{
  "contractName": "BeanPool",
  "abi": [
    {
      "inputs": [
        {
          "internalType": "contract IERC20",
          "name": "_chaAddress",
          "type": "address"
        },
        {
          "internalType": "contract IERC721Card",
          "name": "_nftAddress",
          "type": "address"
        },
        {
          "internalType": "address",
          "name": "initInviteAddress",
          "type": "address"
        },
        {
          "internalType": "address",
          "name": "_blackholeAddress",
          "type": "address"
        },
        {
          "internalType": "address",
          "name": "_airdropAddress",
          "type": "address"
        },
        {
          "internalType": "uint256",
          "name": "_chaPerBlock",
          "type": "uint256"
        },
        {
          "internalType": "uint256",
          "name": "_startBlock",
          "type": "uint256"
        },
        {
          "internalType": "uint256",
          "name": "_totalReward",
          "type": "uint256"
        }
      ],
      "stateMutability": "nonpayable",
      "type": "constructor"
    },
    {
      "anonymous": false,
      "inputs": [
        {
          "indexed": true,
          "internalType": "address",
          "name": "user",
          "type": "address"
        },
        {
          "indexed": true,
          "internalType": "uint256",
          "name": "pid",
          "type": "uint256"
        },
        {
          "indexed": false,
          "internalType": "uint256",
          "name": "amount",
          "type": "uint256"
        }
      ],
      "name": "Deposit",
      "type": "event"
    },
    {
      "anonymous": false,
      "inputs": [
        {
          "indexed": true,
          "internalType": "address",
          "name": "user",
          "type": "address"
        },
        {
          "indexed": true,
          "internalType": "uint256",
          "name": "pid",
          "type": "uint256"
        },
        {
          "indexed": false,
          "internalType": "uint256",
          "name": "amount",
          "type": "uint256"
        },
        {
          "indexed": false,
          "internalType": "uint16",
          "name": "nft1",
          "type": "uint16"
        },
        {
          "indexed": false,
          "internalType": "uint16",
          "name": "nft2",
          "type": "uint16"
        },
        {
          "indexed": false,
          "internalType": "uint16",
          "name": "nft3",
          "type": "uint16"
        }
      ],
      "name": "DepositWithNFT",
      "type": "event"
    },
    {
      "anonymous": false,
      "inputs": [
        {
          "indexed": true,
          "internalType": "address",
          "name": "user",
          "type": "address"
        },
        {
          "indexed": true,
          "internalType": "uint256",
          "name": "pid",
          "type": "uint256"
        },
        {
          "indexed": false,
          "internalType": "uint256",
          "name": "amount",
          "type": "uint256"
        }
      ],
      "name": "EmergencyWithdraw",
      "type": "event"
    },
    {
      "anonymous": false,
      "inputs": [
        {
          "indexed": true,
          "internalType": "address",
          "name": "user",
          "type": "address"
        },
        {
          "indexed": true,
          "internalType": "uint256",
          "name": "pid",
          "type": "uint256"
        },
        {
          "indexed": false,
          "internalType": "uint256",
          "name": "amount",
          "type": "uint256"
        }
      ],
      "name": "Harvest",
      "type": "event"
    },
    {
      "anonymous": false,
      "inputs": [
        {
          "indexed": true,
          "internalType": "address",
          "name": "parent",
          "type": "address"
        },
        {
          "indexed": true,
          "internalType": "address",
          "name": "child",
          "type": "address"
        },
        {
          "indexed": false,
          "internalType": "uint256",
          "name": "timestamp",
          "type": "uint256"
        }
      ],
      "name": "InviteUser",
      "type": "event"
    },
    {
      "anonymous": false,
      "inputs": [
        {
          "indexed": true,
          "internalType": "address",
          "name": "previousOwner",
          "type": "address"
        },
        {
          "indexed": true,
          "internalType": "address",
          "name": "newOwner",
          "type": "address"
        }
      ],
      "name": "OwnershipTransferred",
      "type": "event"
    },
    {
      "anonymous": false,
      "inputs": [
        {
          "indexed": true,
          "internalType": "address",
          "name": "user",
          "type": "address"
        },
        {
          "indexed": true,
          "internalType": "uint256",
          "name": "pid",
          "type": "uint256"
        },
        {
          "indexed": false,
          "internalType": "uint256",
          "name": "amount",
          "type": "uint256"
        }
      ],
      "name": "Withdraw",
      "type": "event"
    },
    {
      "inputs": [],
      "name": "BONUS_MULTIPLIER",
      "outputs": [
        {
          "internalType": "uint256",
          "name": "",
          "type": "uint256"
        }
      ],
      "stateMutability": "view",
      "type": "function"
    },
    {
      "inputs": [],
      "name": "accChaPerShare",
      "outputs": [
        {
          "internalType": "uint256",
          "name": "",
          "type": "uint256"
        }
      ],
      "stateMutability": "view",
      "type": "function"
    },
    {
      "inputs": [],
      "name": "airdropAddress",
      "outputs": [
        {
          "internalType": "address",
          "name": "",
          "type": "address"
        }
      ],
      "stateMutability": "view",
      "type": "function"
    },
    {
      "inputs": [],
      "name": "blackholeAddress",
      "outputs": [
        {
          "internalType": "address",
          "name": "",
          "type": "address"
        }
      ],
      "stateMutability": "view",
      "type": "function"
    },
    {
      "inputs": [],
      "name": "chaPerBlock",
      "outputs": [
        {
          "internalType": "uint256",
          "name": "",
          "type": "uint256"
        }
      ],
      "stateMutability": "view",
      "type": "function"
    },
    {
      "inputs": [],
      "name": "devaddr",
      "outputs": [
        {
          "internalType": "address",
          "name": "",
          "type": "address"
        }
      ],
      "stateMutability": "view",
      "type": "function"
    },
    {
      "inputs": [
        {
          "internalType": "address",
          "name": "",
          "type": "address"
        }
      ],
      "name": "groupPower",
      "outputs": [
        {
          "internalType": "uint256",
          "name": "",
          "type": "uint256"
        }
      ],
      "stateMutability": "view",
      "type": "function"
    },
    {
      "inputs": [],
      "name": "inviteForce",
      "outputs": [
        {
          "internalType": "bool",
          "name": "",
          "type": "bool"
        }
      ],
      "stateMutability": "view",
      "type": "function"
    },
    {
      "inputs": [
        {
          "internalType": "address",
          "name": "",
          "type": "address"
        }
      ],
      "name": "inviteReward",
      "outputs": [
        {
          "internalType": "uint256",
          "name": "",
          "type": "uint256"
        }
      ],
      "stateMutability": "view",
      "type": "function"
    },
    {
      "inputs": [],
      "name": "lastRewardBlock",
      "outputs": [
        {
          "internalType": "uint256",
          "name": "",
          "type": "uint256"
        }
      ],
      "stateMutability": "view",
      "type": "function"
    },
    {
      "inputs": [],
      "name": "maxInviteLayer",
      "outputs": [
        {
          "internalType": "uint8",
          "name": "",
          "type": "uint8"
        }
      ],
      "stateMutability": "view",
      "type": "function"
    },
    {
      "inputs": [
        {
          "internalType": "uint256",
          "name": "",
          "type": "uint256"
        },
        {
          "internalType": "address",
          "name": "",
          "type": "address"
        }
      ],
      "name": "minerInfo",
      "outputs": [
        {
          "internalType": "uint256",
          "name": "amount",
          "type": "uint256"
        },
        {
          "internalType": "uint256",
          "name": "power",
          "type": "uint256"
        },
        {
          "internalType": "uint256",
          "name": "endBlock",
          "type": "uint256"
        },
        {
          "internalType": "uint256",
          "name": "rewardDebt",
          "type": "uint256"
        },
        {
          "internalType": "uint256",
          "name": "nft1",
          "type": "uint256"
        },
        {
          "internalType": "uint256",
          "name": "nft2",
          "type": "uint256"
        },
        {
          "internalType": "uint256",
          "name": "nft3",
          "type": "uint256"
        }
      ],
      "stateMutability": "view",
      "type": "function"
    },
    {
      "inputs": [
        {
          "internalType": "uint256",
          "name": "",
          "type": "uint256"
        }
      ],
      "name": "nftRate",
      "outputs": [
        {
          "internalType": "uint16",
          "name": "",
          "type": "uint16"
        }
      ],
      "stateMutability": "view",
      "type": "function"
    },
    {
      "inputs": [],
      "name": "nftToken",
      "outputs": [
        {
          "internalType": "contract IERC721Card",
          "name": "",
          "type": "address"
        }
      ],
      "stateMutability": "view",
      "type": "function"
    },
    {
      "inputs": [
        {
          "internalType": "address",
          "name": "",
          "type": "address"
        },
        {
          "internalType": "address",
          "name": "",
          "type": "address"
        },
        {
          "internalType": "uint256",
          "name": "",
          "type": "uint256"
        },
        {
          "internalType": "bytes",
          "name": "",
          "type": "bytes"
        }
      ],
      "name": "onERC721Received",
      "outputs": [
        {
          "internalType": "bytes4",
          "name": "",
          "type": "bytes4"
        }
      ],
      "stateMutability": "nonpayable",
      "type": "function"
    },
    {
      "inputs": [],
      "name": "owner",
      "outputs": [
        {
          "internalType": "address",
          "name": "",
          "type": "address"
        }
      ],
      "stateMutability": "view",
      "type": "function"
    },
    {
      "inputs": [],
      "name": "panToken",
      "outputs": [
        {
          "internalType": "contract IERC20",
          "name": "",
          "type": "address"
        }
      ],
      "stateMutability": "view",
      "type": "function"
    },
    {
      "inputs": [
        {
          "internalType": "uint256",
          "name": "",
          "type": "uint256"
        }
      ],
      "name": "poolInfo",
      "outputs": [
        {
          "internalType": "contract IERC20",
          "name": "lpToken",
          "type": "address"
        },
        {
          "internalType": "contract IERC20",
          "name": "lpToken2",
          "type": "address"
        },
        {
          "internalType": "bool",
          "name": "isLp",
          "type": "bool"
        },
        {
          "internalType": "uint32",
          "name": "timeBlocks",
          "type": "uint32"
        },
        {
          "internalType": "uint32",
          "name": "amountRate",
          "type": "uint32"
        },
        {
          "internalType": "uint256",
          "name": "powerRate",
          "type": "uint256"
        }
      ],
      "stateMutability": "view",
      "type": "function"
    },
    {
      "inputs": [],
      "name": "releasedReward",
      "outputs": [
        {
          "internalType": "uint256",
          "name": "",
          "type": "uint256"
        }
      ],
      "stateMutability": "view",
      "type": "function"
    },
    {
      "inputs": [],
      "name": "renounceOwnership",
      "outputs": [],
      "stateMutability": "nonpayable",
      "type": "function"
    },
    {
      "inputs": [],
      "name": "startBlock",
      "outputs": [
        {
          "internalType": "uint256",
          "name": "",
          "type": "uint256"
        }
      ],
      "stateMutability": "view",
      "type": "function"
    },
    {
      "inputs": [],
      "name": "totalAllocPoint",
      "outputs": [
        {
          "internalType": "uint256",
          "name": "",
          "type": "uint256"
        }
      ],
      "stateMutability": "view",
      "type": "function"
    },
    {
      "inputs": [],
      "name": "totalPower",
      "outputs": [
        {
          "internalType": "uint256",
          "name": "",
          "type": "uint256"
        }
      ],
      "stateMutability": "view",
      "type": "function"
    },
    {
      "inputs": [],
      "name": "totalReward",
      "outputs": [
        {
          "internalType": "uint256",
          "name": "",
          "type": "uint256"
        }
      ],
      "stateMutability": "view",
      "type": "function"
    },
    {
      "inputs": [
        {
          "internalType": "address",
          "name": "newOwner",
          "type": "address"
        }
      ],
      "name": "transferOwnership",
      "outputs": [],
      "stateMutability": "nonpayable",
      "type": "function"
    },
    {
      "inputs": [
        {
          "internalType": "address",
          "name": "",
          "type": "address"
        }
      ],
      "name": "userLevel",
      "outputs": [
        {
          "internalType": "uint8",
          "name": "",
          "type": "uint8"
        }
      ],
      "stateMutability": "view",
      "type": "function"
    },
    {
      "inputs": [
        {
          "internalType": "address",
          "name": "",
          "type": "address"
        }
      ],
      "name": "userParent",
      "outputs": [
        {
          "internalType": "address",
          "name": "",
          "type": "address"
        }
      ],
      "stateMutability": "view",
      "type": "function"
    },
    {
      "inputs": [
        {
          "internalType": "address",
          "name": "",
          "type": "address"
        }
      ],
      "name": "userPower",
      "outputs": [
        {
          "internalType": "uint256",
          "name": "",
          "type": "uint256"
        }
      ],
      "stateMutability": "view",
      "type": "function"
    },
    {
      "inputs": [],
      "name": "releaseReward2",
      "outputs": [
        {
          "internalType": "uint256",
          "name": "",
          "type": "uint256"
        }
      ],
      "stateMutability": "view",
      "type": "function"
    },
    {
      "inputs": [],
      "name": "remainReward",
      "outputs": [
        {
          "internalType": "uint256",
          "name": "",
          "type": "uint256"
        }
      ],
      "stateMutability": "view",
      "type": "function"
    },
    {
      "inputs": [],
      "name": "poolLength",
      "outputs": [
        {
          "internalType": "uint256",
          "name": "",
          "type": "uint256"
        }
      ],
      "stateMutability": "view",
      "type": "function"
    },
    {
      "inputs": [
        {
          "internalType": "uint256",
          "name": "_powerRate",
          "type": "uint256"
        },
        {
          "internalType": "uint32",
          "name": "_amountRate",
          "type": "uint32"
        },
        {
          "internalType": "contract IERC20",
          "name": "_token",
          "type": "address"
        },
        {
          "internalType": "contract IERC20",
          "name": "_token2",
          "type": "address"
        },
        {
          "internalType": "bool",
          "name": "_isLp",
          "type": "bool"
        },
        {
          "internalType": "uint32",
          "name": "timeBlocks",
          "type": "uint32"
        },
        {
          "internalType": "bool",
          "name": "_withUpdate",
          "type": "bool"
        }
      ],
      "name": "addPool",
      "outputs": [],
      "stateMutability": "nonpayable",
      "type": "function"
    },
    {
      "inputs": [
        {
          "internalType": "uint256",
          "name": "_pid",
          "type": "uint256"
        },
        {
          "internalType": "uint256",
          "name": "_powerRate",
          "type": "uint256"
        },
        {
          "internalType": "bool",
          "name": "_withUpdate",
          "type": "bool"
        }
      ],
      "name": "setPool",
      "outputs": [],
      "stateMutability": "nonpayable",
      "type": "function"
    },
    {
      "inputs": [
        {
          "internalType": "address",
          "name": "parent",
          "type": "address"
        }
      ],
      "name": "setInvite",
      "outputs": [],
      "stateMutability": "nonpayable",
      "type": "function"
    },
    {
      "inputs": [
        {
          "internalType": "bool",
          "name": "enable",
          "type": "bool"
        }
      ],
      "name": "setInviteEnable",
      "outputs": [],
      "stateMutability": "nonpayable",
      "type": "function"
    },
    {
      "inputs": [
        {
          "internalType": "uint8",
          "name": "layer",
          "type": "uint8"
        }
      ],
      "name": "setMaxInviteLayer",
      "outputs": [],
      "stateMutability": "nonpayable",
      "type": "function"
    },
    {
      "inputs": [
        {
          "internalType": "address",
          "name": "addr",
          "type": "address"
        }
      ],
      "name": "getInviteInfo",
      "outputs": [
        {
          "internalType": "uint16",
          "name": "",
          "type": "uint16"
        },
        {
          "internalType": "uint256",
          "name": "",
          "type": "uint256"
        },
        {
          "internalType": "uint256",
          "name": "",
          "type": "uint256"
        },
        {
          "internalType": "uint256",
          "name": "",
          "type": "uint256"
        },
        {
          "internalType": "address",
          "name": "",
          "type": "address"
        }
      ],
      "stateMutability": "view",
      "type": "function"
    },
    {
      "inputs": [
        {
          "internalType": "uint256",
          "name": "_from",
          "type": "uint256"
        },
        {
          "internalType": "uint256",
          "name": "_to",
          "type": "uint256"
        }
      ],
      "name": "getMultiplier",
      "outputs": [
        {
          "internalType": "uint256",
          "name": "",
          "type": "uint256"
        }
      ],
      "stateMutability": "pure",
      "type": "function"
    },
    {
      "inputs": [
        {
          "internalType": "uint256",
          "name": "_pid",
          "type": "uint256"
        },
        {
          "internalType": "address",
          "name": "_user",
          "type": "address"
        }
      ],
      "name": "pendingReward",
      "outputs": [
        {
          "internalType": "uint256",
          "name": "",
          "type": "uint256"
        }
      ],
      "stateMutability": "view",
      "type": "function"
    },
    {
      "inputs": [],
      "name": "updateReward",
      "outputs": [],
      "stateMutability": "nonpayable",
      "type": "function"
    },
    {
      "inputs": [
        {
          "internalType": "uint256",
          "name": "_pid",
          "type": "uint256"
        },
        {
          "internalType": "uint256",
          "name": "_amount",
          "type": "uint256"
        }
      ],
      "name": "deposit",
      "outputs": [
        {
          "internalType": "bool",
          "name": "",
          "type": "bool"
        }
      ],
      "stateMutability": "nonpayable",
      "type": "function"
    },
    {
      "inputs": [
        {
          "internalType": "uint256",
          "name": "_pid",
          "type": "uint256"
        },
        {
          "internalType": "uint256",
          "name": "_amount",
          "type": "uint256"
        },
        {
          "internalType": "uint16",
          "name": "nft1",
          "type": "uint16"
        },
        {
          "internalType": "uint16",
          "name": "nft2",
          "type": "uint16"
        },
        {
          "internalType": "uint16",
          "name": "nft3",
          "type": "uint16"
        }
      ],
      "name": "depositWithNFT",
      "outputs": [],
      "stateMutability": "nonpayable",
      "type": "function"
    },
    {
      "inputs": [
        {
          "internalType": "uint256",
          "name": "_pid",
          "type": "uint256"
        }
      ],
      "name": "harvest",
      "outputs": [],
      "stateMutability": "nonpayable",
      "type": "function"
    },
    {
      "inputs": [
        {
          "internalType": "uint256",
          "name": "_pid",
          "type": "uint256"
        },
        {
          "internalType": "uint256",
          "name": "_amount",
          "type": "uint256"
        }
      ],
      "name": "withdraw",
      "outputs": [],
      "stateMutability": "nonpayable",
      "type": "function"
    },
    {
      "inputs": [
        {
          "internalType": "uint256",
          "name": "_pid",
          "type": "uint256"
        }
      ],
      "name": "emergencyWithdraw",
      "outputs": [],
      "stateMutability": "nonpayable",
      "type": "function"
    }
  ],
  "bytecode": "0x60e06040526103e860809081526107d060a052610bb860c0526200002890600590600362000259565b506006805461ffff191661050117905560408051610120810182526000608080830182815260a080850184905260c0850184905260e08501849052610100850184905290845284518082018652600f808252600c602080840182905283890187905260608085018890528487018890528189019490945288518086018a526014815280820193909352600a838a015282840187905282860196909652868801919091528651928301875260168352601294830194909452601095820195909552600e8186015290810191909152918101919091526200010c90601390600462000309565b5060006015553480156200011f57600080fd5b50604051620038bc380380620038bc83398101604081905262000142916200045e565b6200014d3362000209565b6006805462010000600160b01b031916620100006001600160a01b038b81169190910291909117909155600880546001600160a01b031990811688841617909155600980548216878416179055600c8590556016849055600a83905560018054909116918916919091179055438210620001ca57601654620001cc565b435b6002555050506001600160a01b03909216600090815260106020526040812080546001600160a01b03191633179055600455506200050f92505050565b600080546001600160a01b038381166001600160a01b0319831681178455604051919092169283917f8be0079c531659141344cd1fd0a4f28419497f9722a3daafe3b4186f6b6457e09190a35050565b82805482825590600052602060002090600f01601090048101928215620002f75791602002820160005b83821115620002c557835183826101000a81548161ffff021916908361ffff160217905550926020019260020160208160010104928301926001030262000283565b8015620002f55782816101000a81549061ffff0219169055600201602081600101049283019260010302620002c5565b505b506200030592915062000363565b5090565b82805482825590600052602060002090810192821562000355579160200282015b82811115620003555782516200034490839060056200037a565b50916020019190600101906200032a565b506200030592915062000413565b5b8082111562000305576000815560010162000364565b82805482825590600052602060002090601f01602090048101928215620002f75791602002820160005b83821115620003e457835183826101000a81548160ff021916908360ff1602179055509260200192600101602081600001049283019260010302620003a4565b8015620002f55782816101000a81549060ff0219169055600101602081600001049283019260010302620003e4565b80821115620003055760006200042a828262000434565b5060010162000413565b50805460008255601f0160209004906000526020600020908101906200045b919062000363565b50565b600080600080600080600080610100898b0312156200047c57600080fd5b88516200048981620004f9565b60208a01519098506200049c81620004f9565b60408a0151909750620004af81620004f9565b60608a0151909650620004c281620004f9565b60808a0151909550620004d581620004f9565b60a08a015160c08b015160e0909b0151999c989b5096999598909790945092505050565b6001600160a01b03811681146200045b57600080fd5b61339d806200051f6000396000f3fe608060405234801561001057600080fd5b506004361061027f5760003560e01c8063715018a61161015c578063cf07ed8c116100ce578063e2bbb15811610087578063e2bbb15814610704578063f0884f9f14610717578063f2fde38b14610737578063f36c0a721461074a578063f53f8e9414610752578063fdab7bb61461076b57600080fd5b8063cf07ed8c1461068f578063d06fcba8146106af578063d49e77cd146106c2578063db3ad22c146106d5578063ddc63262146106de578063dea4d678146106f157600080fd5b80638aa28550116101205780638aa285501461063e5780638da5cb5b146106465780638dbb1e3a1461065757806398969e821461066a578063a0f015ab1461067d578063a9f8d1811461068657600080fd5b8063715018a6146105fe578063750142e6146106065780637d515a101461060f5780638043c10c1461062257806384413b651461062b57600080fd5b80634569d415116101f55780635312ea8e116101b95780635312ea8e1461058457806354ce5f56146105975780635cab2c08146105b45780635e490652146105c757806360fc9c42146105cf5780636c18005b146105f557600080fd5b80634569d4151461048c57806345d3f197146104b657806346ca6bea1461054857806348cd4cb11461055b5780634d6e34521461056457600080fd5b806317caf6f11161024757806317caf6f1146103745780632613f87d1461037d578063280e31cc146103a05780634294c09b146103d557806342f2ca02146103e7578063441a3e701461047957600080fd5b8063081e3eda146102845780630dfcaac61461029b5780631485ff78146102dc578063150b7a02146102e45780631526fe271461031b575b600080fd5b600d545b6040519081526020015b60405180910390f35b6102c46102a9366004612e3d565b6010602052600090815260409020546001600160a01b031681565b6040516001600160a01b039091168152602001610292565b61028861077e565b6103026102f2366004612e77565b630a85bd0160e11b949350505050565b6040516001600160e01b03199091168152602001610292565b61032e610329366004612f91565b610795565b604080516001600160a01b0397881681529690951660208701529215159385019390935263ffffffff9081166060850152909116608083015260a082015260c001610292565b61028860155481565b61039e61038b366004612f57565b6006805460ff1916911515919091179055565b005b6103c36103ae366004612e3d565b60116020526000908152604090205460ff1681565b60405160ff9091168152602001610292565b6006546103c390610100900460ff1681565b6104446103f5366004612fc3565b6014602052816000526040600020602052806000526040600020600091509150508060000154908060010154908060020154908060030154908060040154908060050154908060060154905087565b604080519788526020880196909652948601939093526060850191909152608084015260a083015260c082015260e001610292565b61039e610487366004612ff3565b6107f9565b61039e61049a36600461312e565b6006805460ff9092166101000261ff0019909216919091179055565b6105126104c4366004612e3d565b6001600160a01b03908116600090815260116020908152604080832054600e835281842054600f84528285205460128552838620546010909552929094205460ff9091169593949193911690565b6040805161ffff909616865260208601949094529284019190915260608301526001600160a01b0316608082015260a001610292565b61039e610556366004613015565b610d0f565b61028860165481565b610288610572366004612e3d565b600e6020526000908152604090205481565b61039e610592366004612f91565b610d75565b6006546105a49060ff1681565b6040519015158152602001610292565b61039e6105c2366004612e3d565b610fbe565b610288611146565b6105e26105dd366004612f91565b611168565b60405161ffff9091168152602001610292565b61028860035481565b61039e6111a0565b610288600a5481565b6008546102c4906001600160a01b031681565b610288600b5481565b6009546102c4906001600160a01b031681565b610288600a81565b6000546001600160a01b03166102c4565b610288610665366004612ff3565b6111d6565b610288610678366004612fc3565b6111eb565b610288600c5481565b61028860025481565b61028861069d366004612e3d565b600f6020526000908152604090205481565b6001546102c4906001600160a01b031681565b6007546102c4906001600160a01b031681565b61028860045481565b61039e6106ec366004612f91565b6112cf565b61039e6106ff36600461304e565b6113d2565b6105a4610712366004612ff3565b611e19565b610288610725366004612e3d565b60126020526000908152604090205481565b61039e610745366004612e3d565b6121f0565b61039e61228b565b6006546102c4906201000090046001600160a01b031681565b61039e6107793660046130a5565b612391565b6000600b54600a546107909190613290565b905090565b600d81815481106107a557600080fd5b60009182526020909120600390910201805460018201546002909201546001600160a01b0391821693509082169160ff600160a01b8204169163ffffffff600160a81b8304811692600160c81b9004169086565b6000600d838154811061080e5761080e613309565b6000918252602080832086845260148252604080852033865290925292208054600390920290920192508311156108815760405162461bcd60e51b81526020600482015260126024820152711dda5d1a191c985dce881b9bdd0819dbdbd960721b60448201526064015b60405180910390fd5b6000600354116108dd5760405162461bcd60e51b815260206004820152602160248201527f61636343686150657253686172652073686f756c64206e6f74206265207a65726044820152606f60f81b6064820152608401610878565b43816002015411156109315760405162461bcd60e51b815260206004820181905260248201527f43616e6e6f7420776974686472617720776974682064617973206c696d69742e6044820152606401610878565b61093961228b565b6003808201549054825461095d9164e8d4a510009161095791612511565b9061251d565b11156109a3576000610995826003015461098f64e8d4a51000610957600354876000015461251190919063ffffffff16565b90612529565b90506109a13382612535565b505b6001820154600160a01b900460ff1615610a7457600182015481546001600160a01b0382169163a9059cbb9133916109f4916103e891610957919063ffffffff600160c81b90910481169061251116565b6040516001600160e01b031960e085901b1681526001600160a01b0390921660048301526024820152604401602060405180830381600087803b158015610a3a57600080fd5b505af1158015610a4e573d6000803e3d6000fd5b505050506040513d601f19601f82011682018060405250810190610a729190612f74565b505b815460405163a9059cbb60e01b8152336004820152602481018590526001600160a01b039091169063a9059cbb90604401602060405180830381600087803b158015610abf57600080fd5b505af1158015610ad3573d6000803e3d6000fd5b505050506040513d601f19601f82011682018060405250810190610af79190612f74565b50600481015415610b6b57600154600480830154604051632142170760e11b81526001600160a01b03909316926342842e0e92610b389230923392016131ab565b600060405180830381600087803b158015610b5257600080fd5b505af1158015610b66573d6000803e3d6000fd5b505050505b600581015415610bdf576001546005820154604051632142170760e11b81526001600160a01b03909216916342842e0e91610bac91309133916004016131ab565b600060405180830381600087803b158015610bc657600080fd5b505af1158015610bda573d6000803e3d6000fd5b505050505b600681015415610c53576001546006820154604051632142170760e11b81526001600160a01b03909216916342842e0e91610c2091309133916004016131ab565b600060405180830381600087803b158015610c3a57600080fd5b505af1158015610c4e573d6000803e3d6000fd5b505050505b6001810154600454610c6491612529565b6004556001810154610c779033906127ec565b6001810154336000908152600e6020526040902054610c9591612529565b336000818152600e60205260408082209390935560018401819055808455600484018190556005840181905560068401819055600384015590518591907ff279e6a1f5e320cca91135676d9cb6e44ca8a08c0b88342bcdb1144f6511b56890610d019087815260200190565b60405180910390a350505050565b6000546001600160a01b03163314610d395760405162461bcd60e51b815260040161087890613202565b8015610d4757610d4761228b565b81600d8481548110610d5b57610d5b613309565b906000526020600020906003020160020181905550505050565b6000600d8281548110610d8a57610d8a613309565b6000918252602080832085845260148252604080852033865290925292206002810154600390920290920192504311610e055760405162461bcd60e51b815260206004820181905260248201527f43616e6e6f7420776974686472617720776974682064617973206c696d69742e6044820152606401610878565b80548254610e20916001600160a01b03909116903390612899565b6001820154600160a01b900460ff1615610ef157600182015481546001600160a01b0382169163a9059cbb913391610e71916103e891610957919063ffffffff600160c81b90910481169061251116565b6040516001600160e01b031960e085901b1681526001600160a01b0390921660048301526024820152604401602060405180830381600087803b158015610eb757600080fd5b505af1158015610ecb573d6000803e3d6000fd5b505050506040513d601f19601f82011682018060405250810190610eef9190612f74565b505b8054604051908152839033907fbb757047c2b5f3974fe26b7c10f732e7bce710b0952a71082702781e62ae05959060200160405180910390a36001810154336000908152600e6020526040902054610f4891612529565b336000908152600e60205260409020819055610f63906128fc565b336000908152601160205260409020805460ff191660ff929092169190911790556001810154600454610f9591612529565b6004556001810154610fa89033906127ec565b6000808255600382018190556001909101555050565b336000908152601060205260409020546001600160a01b0316156110245760405162461bcd60e51b815260206004820152601760248201527f596f7520616c726561647920626520696e76697465642e0000000000000000006044820152606401610878565b6001600160a01b038181166000908152601060205260409020541661108b5760405162461bcd60e51b815260206004820152601e60248201527f506172656e742073686f756c6420626520696e766974652066697273742e00006044820152606401610878565b6001600160a01b0381163314156110e45760405162461bcd60e51b815260206004820152601b60248201527f596f752063616e6e6f7420696e7669746520796f757273656c662e00000000006044820152606401610878565b3360008181526010602090815260409182902080546001600160a01b0319166001600160a01b03861690811790915591514281527fd01a455872559e171e8085075930db51054125a0583d0b2273a881159a46a406910160405180910390a350565b600061079064e8d4a5100061095760035460045461251190919063ffffffff16565b6005818154811061117857600080fd5b9060005260206000209060109182820401919006600202915054906101000a900461ffff1681565b6000546001600160a01b031633146111ca5760405162461bcd60e51b815260040161087890613202565b6111d4600061294b565b565b60006111e28284612529565b90505b92915050565b60008281526014602090815260408083206001600160a01b0385168452909152812060035460028201544390811115611225575060028201545b60025481118015611237575060045415155b156112c357600061124a600254836111d6565b90506000611263600c548361251190919063ffffffff16565b905061128d61128660045461095764e8d4a510008561251190919063ffffffff16565b859061299b565b93506112b7856003015461098f64e8d4a51000610957888a6001015461251190919063ffffffff16565b955050505050506111e5565b50600095945050505050565b600081815260146020908152604080832033845290915290206112f061228b565b600061131c826003015461098f64e8d4a51000610957600354876001015461251190919063ffffffff16565b9050600081116113655760405162461bcd60e51b81526020600482015260146024820152731a185c9d995cdd0e881b9bdb99481c995dd85c9960621b6044820152606401610878565b61136f3382612535565b61139164e8d4a51000610957600354856001015461251190919063ffffffff16565b6003830155604051818152839033907f71bab65ced2e5750775a0613be067df48ef06cf92a496ebf7663ae06609249549060200160405180910390a3505050565b6000600d86815481106113e7576113e7613309565b60009182526020808320898452601482526040808520338652835293849020845160e08101865281548152600182015493810193909352600281015494830194909452600380850154606084015260048501546080840152600585015460a084015260069094015460c08301529190920201915061146361228b565b8051156114a4576000611496826060015161098f64e8d4a51000610957600354876020015161251190919063ffffffff16565b90506114a23382612535565b505b81546040516323b872dd60e01b81526001600160a01b03909116906323b872dd906114d790339030908b906004016131ab565b602060405180830381600087803b1580156114f157600080fd5b505af1158015611505573d6000803e3d6000fd5b505050506040513d601f19601f820116820180604052508101906115299190612f74565b506001820154600160a01b900460ff16156115ee5760018201546001600160a01b038116906323b872dd903390309061157c906103e890610957908d9063ffffffff600160c81b90910481169061251116565b6040518463ffffffff1660e01b815260040161159a939291906131ab565b602060405180830381600087803b1580156115b457600080fd5b505af11580156115c8573d6000803e3d6000fd5b505050506040513d601f19601f820116820180604052508101906115ec9190612f74565b505b80516115fa908761299b565b815260028201546000908190819061ffff8916158015906116a057506001546040516331a9108f60e11b815261ffff8b16600482015233916001600160a01b031690636352211e9060240160206040518083038186803b15801561165d57600080fd5b505afa158015611671573d6000803e3d6000fd5b505050506040513d601f19601f820116820180604052508101906116959190612e5a565b6001600160a01b0316145b156117f2576001546040516336af181960e11b815261ffff8b1660048201526001600160a01b0390911690636d5e30329060240160206040518083038186803b1580156116ec57600080fd5b505afa158015611700573d6000803e3d6000fd5b505050506040513d601f19601f82011682018060405250810190611724919061314b565b60ff1693506103e86005858154811061173f5761173f613309565b90600052602060002090601091828204019190066002029054906101000a900461ffff1661ffff1687600201546117769190613271565b611780919061324f565b61178a9082613237565b600154604051632142170760e11b81529192506001600160a01b0316906342842e0e906117bf90339030908e90600401613184565b600060405180830381600087803b1580156117d957600080fd5b505af11580156117ed573d6000803e3d6000fd5b505050505b60008861ffff1611801561188b57506001546040516331a9108f60e11b815261ffff8a16600482015233916001600160a01b031690636352211e9060240160206040518083038186803b15801561184857600080fd5b505afa15801561185c573d6000803e3d6000fd5b505050506040513d601f19601f820116820180604052508101906118809190612e5a565b6001600160a01b0316145b156119dd576001546040516336af181960e11b815261ffff8a1660048201526001600160a01b0390911690636d5e30329060240160206040518083038186803b1580156118d757600080fd5b505afa1580156118eb573d6000803e3d6000fd5b505050506040513d601f19601f8201168201806040525081019061190f919061314b565b60ff1692506103e86005848154811061192a5761192a613309565b90600052602060002090601091828204019190066002029054906101000a900461ffff1661ffff1687600201546119619190613271565b61196b919061324f565b6119759082613237565b600154604051632142170760e11b81529192506001600160a01b0316906342842e0e906119aa90339030908d90600401613184565b600060405180830381600087803b1580156119c457600080fd5b505af11580156119d8573d6000803e3d6000fd5b505050505b60008761ffff16118015611a7657506001546040516331a9108f60e11b815261ffff8916600482015233916001600160a01b031690636352211e9060240160206040518083038186803b158015611a3357600080fd5b505afa158015611a47573d6000803e3d6000fd5b505050506040513d601f19601f82011682018060405250810190611a6b9190612e5a565b6001600160a01b0316145b15611bc8576001546040516336af181960e11b815261ffff891660048201526001600160a01b0390911690636d5e30329060240160206040518083038186803b158015611ac257600080fd5b505afa158015611ad6573d6000803e3d6000fd5b505050506040513d601f19601f82011682018060405250810190611afa919061314b565b60ff1691506103e860058381548110611b1557611b15613309565b90600052602060002090601091828204019190066002029054906101000a900461ffff1661ffff168760020154611b4c9190613271565b611b56919061324f565b611b609082613237565b600154604051632142170760e11b81529192506001600160a01b0316906342842e0e90611b9590339030908c90600401613184565b600060405180830381600087803b158015611baf57600080fd5b505af1158015611bc3573d6000803e3d6000fd5b505050505b836002148015611bd757508284145b8015611be257508183145b15611c13576103e88660020154611388611bfc9190613271565b611c06919061324f565b611c109082613237565b90505b6000611c256103e86109578d85612511565b6020870151909150611c37908261299b565b6020870152600454611c49908261299b565b600455611c5633826129a7565b336000908152600e6020526040902054611c70908261299b565b336000908152600e602052604090205560018701544390611ca390829063ffffffff600160a81b90910481169061299b16565b60408089019190915261ffff808d1660808a01528b811660a08a01528a1660c0890152336000908152600e6020522054611cdc906128fc565b336000908152601160209081526040909120805460ff191660ff939093169290921790915560035490880151611d1c9164e8d4a510009161095791612511565b87606001818152505086601460008f81526020019081526020016000206000336001600160a01b03166001600160a01b03168152602001908152602001600020600082015181600001556020820151816001015560408201518160020155606082015181600301556080820151816004015560a0820151816005015560c082015181600601559050508c336001600160a01b03167f12683d1bce24a39469d43b532a00fb65c26276ed57dbd35b204c720380597f7e8e8e8e8e604051611e02949392919093845261ffff9283166020850152908216604084015216606082015260800190565b60405180910390a350505050505050505050505050565b600080600d8481548110611e2f57611e2f613309565b60009182526020808320878452601482526040808520338652835293849020845160e08101865281548152600182015493810193909352600281015494830194909452600380850154606084015260048501546080840152600585015460a084015260069094015460c083015291909202019150611eab61228b565b60065460ff16151560011415611f2057336000908152601060205260409020546001600160a01b0316611f205760405162461bcd60e51b815260206004820152601a60248201527f596f75206e65656420626520696e76697465642066697273742e0000000000006044820152606401610878565b805115611f61576000611f53826060015161098f64e8d4a51000610957600354876020015161251190919063ffffffff16565b9050611f5f3382612535565b505b81546040516323b872dd60e01b81526001600160a01b03909116906323b872dd90611f94903390309089906004016131ab565b602060405180830381600087803b158015611fae57600080fd5b505af1158015611fc2573d6000803e3d6000fd5b505050506040513d601f19601f82011682018060405250810190611fe69190612f74565b506001820154600160a01b900460ff16156120495761204933306120336103e86109578760010160199054906101000a900463ffffffff1663ffffffff168a61251190919063ffffffff16565b60018601546001600160a01b0316929190612a54565b8051612055908561299b565b81526002820154600090612072906103e890610957908890612511565b6020830151909150612084908261299b565b6020830152600454612096908261299b565b6004556120a333826129a7565b336000908152600e60205260409020546120bd908261299b565b336000908152600e6020526040902055600183015443906120f090829063ffffffff600160a81b90910481169061299b16565b604080850191909152336000908152600e602052205461210f906128fc565b336000908152601160209081526040909120805460ff191660ff93909316929092179091556003549084015161214f9164e8d4a510009161095791612511565b606084019081526000888152601460209081526040808320338085529083529281902087518155828801516001820155818801516002820155935160038501556080870151600485015560a0870151600585015560c0870151600690940193909355915188815289927f90890809c654f11d6e72a28fa60149770a0d11ec6c92319d6ceb2bb0a4ea1a15910160405180910390a35060019695505050505050565b6000546001600160a01b0316331461221a5760405162461bcd60e51b815260040161087890613202565b6001600160a01b03811661227f5760405162461bcd60e51b815260206004820152602660248201527f4f776e61626c653a206e6577206f776e657220697320746865207a65726f206160448201526564647265737360d01b6064820152608401610878565b6122888161294b565b50565b60006122a4600b54600a5461252990919063ffffffff16565b905060025443111580156122b6575080155b156122be5750565b6004546122cc575043600255565b43600254111561231e5760405162461bcd60e51b815260206004820152601960248201527f6c617374526577617264426c6f636b206e6f742076616c6964000000000000006044820152606401610878565b600061232c600254436111d6565b90506000612345600c548361251190919063ffffffff16565b9050808310156123525750815b600b5461235f908261299b565b600b556004546123859061237c906109578464e8d4a51000612511565b6003549061299b565b60035550504360025550565b6000546001600160a01b031633146123bb5760405162461bcd60e51b815260040161087890613202565b80156123c9576123c961228b565b506040805160c0810182526001600160a01b0395861681529385166020850190815292151590840190815263ffffffff918216606085019081529582166080850190815260a08501978852600d8054600181018255600091909152945160039095027fd7b6990105719101dabeb77144f2a3385c8033acd3af97e9423a695e81ad1eb5810180549688166001600160a01b03199097169690961790955592517fd7b6990105719101dabeb77144f2a3385c8033acd3af97e9423a695e81ad1eb6850180549251975194518416600160c81b0263ffffffff60c81b1995909416600160a81b029490941667ffffffffffffffff60a81b19971515600160a01b026001600160a81b0319909316919096161717949094169290921792909217905590517fd7b6990105719101dabeb77144f2a3385c8033acd3af97e9423a695e81ad1eb790910155565b60006111e28284613271565b60006111e2828461324f565b60006111e28284613290565b6006546040516370a0823160e01b81523060048201526000916201000090046001600160a01b0316906370a082319060240160206040518083038186803b15801561257f57600080fd5b505afa158015612593573d6000803e3d6000fd5b505050506040513d601f19601f820116820180604052508101906125b79190612faa565b9050808211156125c5578091505b6006546008546001600160a01b036201000090920482169163a9059cbb91166125f46064610957876002612511565b6040516001600160e01b031960e085901b1681526001600160a01b0390921660048301526024820152604401602060405180830381600087803b15801561263a57600080fd5b505af115801561264e573d6000803e3d6000fd5b505050506040513d601f19601f820116820180604052508101906126729190612f74565b506006546009546001600160a01b036201000090920482169163a9059cbb91166126a2606461095787600a612511565b6040516001600160e01b031960e085901b1681526001600160a01b0390921660048301526024820152604401602060405180830381600087803b1580156126e857600080fd5b505af11580156126fc573d6000803e3d6000fd5b505050506040513d601f19601f820116820180604052508101906127209190612f74565b506006546201000090046001600160a01b031663a9059cbb8461275361274c606461095788600c612511565b8690612529565b6040516001600160e01b031960e085901b1681526001600160a01b0390921660048301526024820152604401602060405180830381600087803b15801561279957600080fd5b505af11580156127ad573d6000803e3d6000fd5b505050506040513d601f19601f820116820180604052508101906127d19190612f74565b5060065460ff16156127e7576127e78383612a7b565b505050565b60005b60065460ff610100909104811690821610156127e7576001600160a01b038084166000908152601060205260409020541680158061283e5750836001600160a01b0316816001600160a01b0316145b156128495750505050565b6001600160a01b0381166000908152600f602052604090205461286c9084612529565b6001600160a01b0382166000908152600f6020526040902055925080612891816132d3565b9150506127ef565b6040516001600160a01b0383166024820152604481018290526127e790849063a9059cbb60e01b906064015b60408051601f198184030181529190526020810180516001600160e01b03166001600160e01b031990931692909217909152612bc6565b60008061291183670de0b6b3a764000061251d565b925060009050610bb88310612928575060036111e5565b6107d08310612939575060026111e5565b6103e883106111e55750600192915050565b600080546001600160a01b038381166001600160a01b0319831681178455604051919092169283917f8be0079c531659141344cd1fd0a4f28419497f9722a3daafe3b4186f6b6457e09190a35050565b60006111e28284613237565b60005b60065460ff610100909104811690821610156127e7576001600160a01b03808416600090815260106020526040902054168015806129f95750836001600160a01b0316816001600160a01b0316145b15612a045750505050565b6001600160a01b0381166000908152600f6020526040902054612a27908461299b565b6001600160a01b0382166000908152600f6020526040902055925080612a4c816132d3565b9150506129aa565b612a75846323b872dd60e01b8585856040516024016128c5939291906131ab565b50505050565b60005b60065460ff610100909104811690821610156127e7576001600160a01b0380841660009081526010602052604090205416801580612acd5750836001600160a01b0316816001600160a01b0316145b15612ad85750505050565b6001600160a01b0381166000908152601160205260408120546013805460ff909216929183908110612b0c57612b0c613309565b906000526020600020018460ff1681548110612b2a57612b2a613309565b60009182526020918290209181049091015460ff601f9092166101000a900416905080612b5957505050505050565b6000612b6d60646109578860ff8616612511565b6001600160a01b038516600090815260126020526040902054909150612b93908261299b565b6001600160a01b03851660009081526012602052604090205550919450829150612bbe9050816132d3565b915050612a7e565b6000612c1b826040518060400160405280602081526020017f5361666545524332303a206c6f772d6c6576656c2063616c6c206661696c6564815250856001600160a01b0316612c989092919063ffffffff16565b8051909150156127e75780806020019051810190612c399190612f74565b6127e75760405162461bcd60e51b815260206004820152602a60248201527f5361666545524332303a204552433230206f7065726174696f6e20646964206e6044820152691bdd081cdd58d8d9595960b21b6064820152608401610878565b6060612ca78484600085612cb1565b90505b9392505050565b606082471015612d125760405162461bcd60e51b815260206004820152602660248201527f416464726573733a20696e73756666696369656e742062616c616e636520666f6044820152651c8818d85b1b60d21b6064820152608401610878565b843b612d605760405162461bcd60e51b815260206004820152601d60248201527f416464726573733a2063616c6c20746f206e6f6e2d636f6e74726163740000006044820152606401610878565b600080866001600160a01b03168587604051612d7c9190613168565b60006040518083038185875af1925050503d8060008114612db9576040519150601f19603f3d011682016040523d82523d6000602084013e612dbe565b606091505b5091509150612dce828286612dd9565b979650505050505050565b60608315612de8575081612caa565b825115612df85782518084602001fd5b8160405162461bcd60e51b815260040161087891906131cf565b803561ffff81168114612e2457600080fd5b919050565b803563ffffffff81168114612e2457600080fd5b600060208284031215612e4f57600080fd5b8135612caa81613335565b600060208284031215612e6c57600080fd5b8151612caa81613335565b60008060008060808587031215612e8d57600080fd5b8435612e9881613335565b93506020850135612ea881613335565b925060408501359150606085013567ffffffffffffffff80821115612ecc57600080fd5b818701915087601f830112612ee057600080fd5b813581811115612ef257612ef261331f565b604051601f8201601f19908116603f01168101908382118183101715612f1a57612f1a61331f565b816040528281528a6020848701011115612f3357600080fd5b82602086016020830137600060208483010152809550505050505092959194509250565b600060208284031215612f6957600080fd5b8135612caa8161334a565b600060208284031215612f8657600080fd5b8151612caa8161334a565b600060208284031215612fa357600080fd5b5035919050565b600060208284031215612fbc57600080fd5b5051919050565b60008060408385031215612fd657600080fd5b823591506020830135612fe881613335565b809150509250929050565b6000806040838503121561300657600080fd5b50508035926020909101359150565b60008060006060848603121561302a57600080fd5b833592506020840135915060408401356130438161334a565b809150509250925092565b600080600080600060a0868803121561306657600080fd5b853594506020860135935061307d60408701612e12565b925061308b60608701612e12565b915061309960808701612e12565b90509295509295909350565b600080600080600080600060e0888a0312156130c057600080fd5b873596506130d060208901612e29565b955060408801356130e081613335565b945060608801356130f081613335565b935060808801356131008161334a565b925061310e60a08901612e29565b915060c088013561311e8161334a565b8091505092959891949750929550565b60006020828403121561314057600080fd5b8135612caa81613358565b60006020828403121561315d57600080fd5b8151612caa81613358565b6000825161317a8184602087016132a7565b9190910192915050565b6001600160a01b03938416815291909216602082015261ffff909116604082015260600190565b6001600160a01b039384168152919092166020820152604081019190915260600190565b60208152600082518060208401526131ee8160408501602087016132a7565b601f01601f19169190910160400192915050565b6020808252818101527f4f776e61626c653a2063616c6c6572206973206e6f7420746865206f776e6572604082015260600190565b6000821982111561324a5761324a6132f3565b500190565b60008261326c57634e487b7160e01b600052601260045260246000fd5b500490565b600081600019048311821515161561328b5761328b6132f3565b500290565b6000828210156132a2576132a26132f3565b500390565b60005b838110156132c25781810151838201526020016132aa565b83811115612a755750506000910152565b600060ff821660ff8114156132ea576132ea6132f3565b60010192915050565b634e487b7160e01b600052601160045260246000fd5b634e487b7160e01b600052603260045260246000fd5b634e487b7160e01b600052604160045260246000fd5b6001600160a01b038116811461228857600080fd5b801515811461228857600080fd5b60ff8116811461228857600080fdfea2646970667358221220ed265ecfad434dde23df1761fa14feea3a04f1d056b7ca46393e9791d298959564736f6c63430008060033",
  "immutableReferences": {},
  "source": "// SPDX-License-Identifier: MIT\npragma solidity ^0.8.0;\n\nimport \"./utils/math/SafeMath.sol\";\nimport \"./utils/Address.sol\";\nimport \"./access/Ownable.sol\";\n\nimport \"./token/ERC721/IERC721.sol\";\nimport \"./token/ERC721/IERC721Card.sol\";\nimport \"./token/ERC20/IERC20.sol\";\nimport \"./token/ERC721/utils/ERC721Holder.sol\";\nimport \"./token/ERC20/utils/SafeERC20.sol\";\n\ninterface IMigratorChef {\n    // Perform LP token migration from legacy UniswapV2 to ChaSwap.\n    // Take the current LP token address and return the new LP token address.\n    // Migrator should have full access to the caller's LP token.\n    // Return the new LP token address.\n    //\n    // XXX Migrator must have allowance access to UniswapV2 LP tokens.\n    // ChaSwap must mint EXACTLY the same amount of ChaSwap LP tokens or\n    // else something bad will happen. Traditional UniswapV2 does not\n    // do that so be careful!\n    function migrate(IERC20 token) external returns (IERC20);\n}\n\n// BeanPool is the master of Reward. He can make Reward and he is a fair guy.\n//\n// Note that it's ownable and the owner wields tremendous power. The ownership\n// will be transferred to a governance smart contract once CHA is sufficiently\n// distributed and the community can show to govern itself.\n//\n// Have fun reading it. Hopefully it's bug-free. God bless.\ncontract BeanPool is Ownable,ERC721Holder {\n    using SafeMath for uint256;\n    using SafeERC20 for IERC20;\n    // Info of each user.\n    // struct UserInfo {\n    //     uint256 amount; // How many LP tokens the user has provided.\n    //     uint256 rewardDebt; // Reward debt. See explanation below.\n    //     //\n    //     // We do some fancy math here. Basically, any point in time, the amount of CHA\n    //     // entitled to a user but is pending to be distributed is:\n    //     //\n    //     //   pending reward = (user.amount * accChaPerShare) - user.rewardDebt\n    //     //\n    //     // Whenever a user deposits or withdraws LP tokens to a pool. Here's what happens:\n    //     //   1. The pool's `accChaPerShare` (and `lastRewardBlock`) gets updated.\n    //     //   2. User receives the pending reward sent to his/her address.\n    //     //   3. User's `amount` gets updated.\n    //     //   4. User's `rewardDebt` gets updated.\n    // }\n\n    struct InviteInfo {\n        address parent;\n        uint256 totalPower;\n    }\n\n    // Miner information describe miner. One should has many Miners;\n    struct MinerInfo {\n        uint256 amount; // \n        uint256 power; // \n        uint256 endBlock; // block\n        uint256 rewardDebt; // Reward debt. See explanation below.\n        uint256 nft1;\n        uint256 nft2;\n        uint256 nft3;\n    }\n    // Info of each pool. pool is set manully.\n    struct PoolInfo {\n        IERC20 lpToken; // Address of LP token contract.\n        IERC20 lpToken2; // Address of LP token contract.\n        bool isLp; // if isLp is true we should have a usdt token.\n        uint32 timeBlocks; // timeBlocks;\n        uint32 amountRate; // The amount rate for token 2, times 1000.\n        uint256 powerRate; // The power rate assigned to this pool. times 1000.\n    }\n    \n    IERC721Card public nftToken;\n    uint256 public lastRewardBlock; // Last block number that CHAs distribution occurs.\n    uint256 public accChaPerShare; // Accumulated CHAs per share, times 1e12. See below.\n    // Total power\n    uint256 public totalPower;\n    uint16[] public nftRate = [1000, 2000, 3000]; // times 1000\n\n    // Invite\n    bool public inviteForce = true;\n    uint8 public maxInviteLayer = 5;\n    // The CHA TOKEN!\n    IERC20 public panToken;\n    // Dev address.\n    address public devaddr;\n    address public blackholeAddress;\n    address public airdropAddress;\n    // address public liquidAddress;\n    // Block number when bonus CHA period ends.\n    // uint256 public bonusEndBlock;\n    // Total reward for miner\n    uint256 public totalReward;\n    // Total released reward\n    uint256 public releasedReward;\n    // CHA tokens created per block.\n    uint256 public chaPerBlock;\n    // Bonus muliplier for early panToken makers.\n    uint256 public constant BONUS_MULTIPLIER = 10;\n    // The migrator contract. It has a lot of power. Can only be set through governance (owner).\n    // IMigratorChef public migrator;\n    // Info of each pool.\n    PoolInfo[] public poolInfo;\n    // Info of each user that stakes LP tokens.\n    mapping(address => uint256) public userPower;\n    mapping(address => uint256) public groupPower;\n    mapping(address => address) public userParent;\n    mapping(address => uint8) public userLevel;\n    mapping(address => uint256) public inviteReward;\n    // mapping(uint8 => mapping(uint8 => uint8)) memory inviteRatio;\n    uint8[][] inviteRatio = [[0,0,0,0,0],[15,12,0,0,0],[20,15,10,0,0],[22,18,16,14,12]];\n    mapping(uint256 => mapping(address => MinerInfo)) public minerInfo;\n    // Total allocation poitns. Must be the sum of all allocation points in all pools.\n    uint256 public totalAllocPoint = 0;\n    // The block number when CHA mining starts.\n    uint256 public startBlock;\n    event Deposit(address indexed user, uint256 indexed pid, uint256 amount);\n    event DepositWithNFT(address indexed user, uint256 indexed pid, uint256 amount,\n        uint16 nft1, uint16 nft2, uint16 nft3);\n    event Withdraw(address indexed user, uint256 indexed pid, uint256 amount);\n    event Harvest(address indexed user, uint256 indexed pid, uint256 amount);\n    event InviteUser(address indexed parent, address indexed child, uint256 timestamp);\n    event EmergencyWithdraw(\n        address indexed user,\n        uint256 indexed pid,\n        uint256 amount\n    );\n\n    constructor(\n        IERC20 _chaAddress,\n        IERC721Card _nftAddress,\n        address initInviteAddress,\n        address _blackholeAddress,\n        address _airdropAddress,\n        // address _liquidAddress,\n        uint256 _chaPerBlock,\n        uint256 _startBlock,\n        uint256 _totalReward\n    ) {\n        panToken = _chaAddress;\n        blackholeAddress = _blackholeAddress;\n        airdropAddress = _airdropAddress;\n        // liquidAddress = _liquidAddress;\n        chaPerBlock = _chaPerBlock;\n        // bonusEndBlock = _bonusEndBlock;\n        startBlock = _startBlock;\n        totalReward = _totalReward;\n        nftToken = IERC721Card(_nftAddress);\n        lastRewardBlock =\n            block.number > startBlock ? block.number : startBlock;\n        // totalAllocPoint = totalAllocPoint.add(_allocPoint);\n        userParent[initInviteAddress] = msg.sender;\n        totalPower = 0;\n    }\n\n    // function totalReward() external view returns (uint256) {\n    //     return totalReward;\n    // }\n\n    // function releasedReward() external view returns (uint256) {\n    //     return releasedReward;\n    // }\n\n    function releaseReward2() external view returns (uint256) {\n        return totalPower.mul(accChaPerShare).div(1e12);\n    }\n\n    function remainReward() external view returns (uint256) {\n        return totalReward - releasedReward;\n    }\n\n    function poolLength() external view returns (uint256) {\n        return poolInfo.length;\n    }\n\n    // Add a new lp to the pool. Can only be called by the owner.\n    // XXX DO NOT add the same LP token more than once. Rewards will be messed up if you do.\n    function addPool(\n        uint256 _powerRate,\n        uint32 _amountRate,\n        IERC20 _token,\n        IERC20 _token2,\n        bool _isLp,\n        uint32 timeBlocks,\n        bool _withUpdate\n    ) public onlyOwner {\n        if (_withUpdate) {\n            updateReward();\n        }\n        \n        poolInfo.push(\n            PoolInfo({\n                lpToken: _token,\n                lpToken2: _token2,\n                isLp: _isLp,\n                timeBlocks: timeBlocks,\n                powerRate: _powerRate,\n                amountRate: _amountRate\n            })\n        );\n    }\n\n    // Update the given pool's CHA power rate. Can only be called by the owner.\n    function setPool(\n        uint256 _pid,\n        uint256 _powerRate,\n        bool _withUpdate\n    ) public onlyOwner {\n        if (_withUpdate) {\n            updateReward();\n        }\n        poolInfo[_pid].powerRate = _powerRate;\n    }\n\n    function setInvite(\n        address parent\n    ) public {\n        require(userParent[msg.sender] == address(0), \"You already be invited.\");\n        require(userParent[parent] != address(0), \"Parent should be invite first.\");\n        require(parent != msg.sender, \"You cannot invite yourself.\");\n        userParent[msg.sender] = parent;\n        emit InviteUser(parent, msg.sender, block.timestamp);\n    }\n\n    function setInviteEnable(\n        bool enable\n    ) public {\n        inviteForce = enable;\n    }\n\n    function setMaxInviteLayer(uint8 layer) public {\n        maxInviteLayer = layer;\n    }\n\n    // Set the migrator contract. Can only be called by the owner.\n    // function setMigrator(IMigratorChef _migrator) public onlyOwner {\n    //     migrator = _migrator;\n    // }\n\n    // // Migrate lp token to another lp contract. Can be called by anyone. We trust that migrator contract is good.\n    // function migrate(uint256 _pid) public {\n    //     require(address(migrator) != address(0), \"migrate: no migrator\");\n    //     PoolInfo storage pool = poolInfo[_pid];\n    //     IERC20 lpToken = pool.lpToken;\n    //     uint256 bal = lpToken.balanceOf(address(this));\n    //     lpToken.safeApprove(address(migrator), bal);\n    //     IERC20 newLpToken = migrator.migrate(lpToken);\n    //     require(bal == newLpToken.balanceOf(address(this)), \"migrate: bad\");\n    //     pool.lpToken = newLpToken;\n    // }\n    function getInviteInfo(address addr) public view returns (uint16, uint256, uint256, uint256, address){\n        return (userLevel[addr],userPower[addr], groupPower[addr], inviteReward[addr], userParent[addr]);\n    }\n    // Return reward multiplier over the given _from to _to block.\n    function getMultiplier(uint256 _from, uint256 _to)\n        public\n        pure\n        returns (uint256)\n    {\n        return _to.sub(_from);\n        // if (_to <= bonusEndBlock) {\n        //     return _to.sub(_from).mul(BONUS_MULTIPLIER);\n        // } else if (_from >= bonusEndBlock) {\n        //     return _to.sub(_from);\n        // } else {\n        //     return\n        //         bonusEndBlock.sub(_from).mul(BONUS_MULTIPLIER).add(\n        //             _to.sub(bonusEndBlock)\n        //         );\n        // }\n    }\n\n    // View function to see pending CHA on frontend.\n    function pendingReward(uint256 _pid, address _user)\n        external\n        view\n        returns (uint256)\n    {\n        // PoolInfo storage pool = poolInfo[_pid];\n        MinerInfo storage miner = minerInfo[_pid][_user];\n        uint256 accCha = accChaPerShare;\n        uint256 endBlock = block.number;\n        if (block.number > miner.endBlock) {\n            endBlock = miner.endBlock;\n        }\n        if (endBlock > lastRewardBlock && totalPower != 0) {\n            uint256 multiplier =\n                getMultiplier(lastRewardBlock, endBlock);\n            uint256 chaReward = multiplier.mul(chaPerBlock);\n            accCha = accCha.add(\n                chaReward.mul(1e12).div(totalPower)\n            );\n            return miner.power.mul(accCha).div(1e12).sub(miner.rewardDebt);\n        }\n        return 0;\n    }\n\n    // Update reward vairables for all pools. Be careful of gas spending!\n    // function updateReward() public {\n    //     uint256 length = poolInfo.length;\n    //     for (uint256 pid = 0; pid < length; ++pid) {\n    //         updateReward(pid);\n    //     }\n    // }\n\n    // Update reward variables of the given pool to be up-to-date.\n    function updateReward() public {\n        // PoolInfo storage pool = poolInfo[_pid];\n        // uint256 remain = panToken.balanceOf(address(this));\n        uint256 remain = totalReward.sub(releasedReward);\n        if (block.number <= lastRewardBlock && remain <= 0) {\n            return;\n        }\n        if (totalPower == 0) {\n            lastRewardBlock = block.number;\n            return;\n        }\n        require(lastRewardBlock<=block.number, \"lastRewardBlock not valid\");\n        uint256 multiplier = getMultiplier(lastRewardBlock, block.number);\n        uint256 chaReward = multiplier.mul(chaPerBlock);\n        // panToken.mint(devaddr, chaReward.div(10));\n        // panToken.mint(address(this), chaReward);\n        if ( remain < chaReward ) {\n            chaReward = remain;\n        }\n        releasedReward  = releasedReward.add(chaReward);\n        accChaPerShare = accChaPerShare.add(\n            chaReward.mul(1e12).div(totalPower)\n        );\n        lastRewardBlock = block.number;\n    }\n\n\n    // Deposit LP tokens to BeanPool for CHA allocation.\n    function deposit(uint256 _pid, uint256 _amount) public returns (bool){\n        PoolInfo storage pool = poolInfo[_pid];\n        MinerInfo memory miner = minerInfo[_pid][msg.sender];\n        updateReward();\n        if (inviteForce == true) {\n            require(userParent[msg.sender] != address(0), \"You need be invited first.\");\n        }\n        if (miner.amount > 0) {\n            uint256 pending =\n                miner.power.mul(accChaPerShare).div(1e12).sub(\n                    miner.rewardDebt\n                );\n            safeChaTransfer(msg.sender, pending);\n        }\n        // pool.lpToken.approve(address(this), _amount);\n        pool.lpToken.transferFrom(\n            address(msg.sender),\n            address(this),\n            _amount\n        );\n        if (pool.isLp) {\n            pool.lpToken2.safeTransferFrom(\n                address(msg.sender),\n                address(this),\n                _amount.mul(pool.amountRate).div(1000)\n            );\n        }\n        miner.amount = miner.amount.add(_amount);\n        uint256 power = _amount.mul(pool.powerRate).div(1000);\n        miner.power = miner.power.add(power);\n        totalPower = totalPower.add(power);\n        upGroupPower(msg.sender, power);\n        userPower[msg.sender] = userPower[msg.sender].add(power);\n        uint256 blockNumber = block.number;\n        miner.endBlock = blockNumber.add(pool.timeBlocks); // * 24 * 1200;\n        userLevel[msg.sender] = getUserLevel(userPower[msg.sender]);\n        miner.rewardDebt = miner.power.mul(accChaPerShare).div(1e12);\n        minerInfo[_pid][msg.sender] = miner;\n        emit Deposit(msg.sender, _pid, _amount);\n        return true;\n    }\n\n    // Deposit LP tokens to BeanPool for CHA allocation.\n    function depositWithNFT(uint256 _pid, uint256 _amount, uint16 nft1, uint16 nft2, uint16 nft3) public {\n        PoolInfo storage pool = poolInfo[_pid];\n        MinerInfo memory miner = minerInfo[_pid][msg.sender];\n        // require(miner.amount == 0, \"You already depsoit this pool.\");\n        updateReward();\n        if (miner.amount > 0) {\n            uint256 pending =\n                miner.power.mul(accChaPerShare).div(1e12).sub(\n                    miner.rewardDebt\n                );\n            safeChaTransfer(msg.sender, pending);\n        }\n        pool.lpToken.transferFrom(\n            address(msg.sender),\n            address(this),\n            _amount\n        );\n        if (pool.isLp) {\n            pool.lpToken2.transferFrom(\n                address(msg.sender),\n                address(this),\n                _amount.mul(pool.amountRate).div(1000)\n            );\n        }\n        miner.amount = miner.amount.add(_amount);\n        uint256 level;\n        uint256 level2;\n        uint256 level3;\n        uint256 rate = pool.powerRate;\n        if (nft1 > 0 && nftToken.ownerOf(nft1) == msg.sender) {\n            level = nftToken.levelOf(nft1);\n            rate += pool.powerRate * nftRate[level] / 1000;\n            nftToken.safeTransferFrom(msg.sender, address(this), nft1);\n        }\n        if (nft2 > 0 && nftToken.ownerOf(nft2) == msg.sender) {\n            level2 = nftToken.levelOf(nft2);\n            rate += pool.powerRate * nftRate[level2] / 1000;\n            nftToken.safeTransferFrom(msg.sender, address(this), nft2);\n        }\n        if (nft3 > 0 && nftToken.ownerOf(nft3) == msg.sender) {\n            level3 = nftToken.levelOf(nft3);\n            rate += pool.powerRate * nftRate[level3] / 1000;\n            nftToken.safeTransferFrom(msg.sender, address(this), nft3);\n        }\n        // \n        if(level == 2 && level == level2 && level2 == level3) {\n            rate += pool.powerRate * 5000/1000;\n        }\n        uint256 power = _amount.mul(rate).div(1000);\n        miner.power = miner.power.add(power);\n        totalPower = totalPower.add(power);\n        upGroupPower(msg.sender, power);\n        userPower[msg.sender] = userPower[msg.sender].add(power);\n        uint256 blockNumber = block.number;\n        miner.endBlock = blockNumber.add(pool.timeBlocks);\n        miner.nft1 = uint16(nft1);\n        miner.nft2 = uint16(nft2);\n        miner.nft3 = uint16(nft3);\n        userLevel[msg.sender] = getUserLevel(userPower[msg.sender]);\n        miner.rewardDebt = miner.power.mul(accChaPerShare).div(1e12);\n        minerInfo[_pid][msg.sender] = miner;\n        emit DepositWithNFT(msg.sender, _pid, _amount, nft1, nft2, nft3);\n    }\n    function getUserLevel(uint256 power) private pure returns(uint8){\n        uint8 level;\n        power = power.div(1e18);\n        level = 0;\n        if (power >= 3000) {\n            level = 3;\n        } else if (power >= 2000) {\n            level = 2;\n        } else if (power >= 1000) {\n            level = 1;\n        }\n        return level;\n    }\n    // // Get a random 100\n    // Get a random 100\n    function random() private view returns (uint8) {\n        return uint8(uint256(keccak256(abi.encodePacked(block.timestamp, block.difficulty)))%100);\n    }\n    // harvest LP tokens from BeanPool.\n    function harvest(uint256 _pid) public {\n        // PoolInfo storage pool = poolInfo[_pid];\n        MinerInfo storage miner = minerInfo[_pid][msg.sender];\n        updateReward();\n        uint256 pending =\n            miner.power.mul(accChaPerShare).div(1e12).sub(\n                miner.rewardDebt\n            );\n        require(pending > 0, \"harvest: none reward\");\n        safeChaTransfer(msg.sender, pending);\n        miner.rewardDebt = miner.power.mul(accChaPerShare).div(1e12);\n        emit Harvest(msg.sender, _pid, pending);\n    }\n\n    // Withdraw LP tokens from BeanPool.\n    function withdraw(uint256 _pid, uint256 _amount) public {\n        PoolInfo storage pool = poolInfo[_pid];\n        MinerInfo storage miner = minerInfo[_pid][msg.sender];\n        require(miner.amount >= _amount, \"withdraw: not good\");\n        require(accChaPerShare > 0, \"accChaPerShare should not be zero\");\n        require(miner.endBlock <= block.number, \"Cannot withdraw with days limit.\");\n        updateReward();\n        if (miner.amount.mul(accChaPerShare).div(1e12) > miner.rewardDebt) {\n            uint256 pending = miner.amount.mul(accChaPerShare).div(1e12).sub(\n                miner.rewardDebt\n            );\n            safeChaTransfer(msg.sender, pending);\n        }\n        \n        if (pool.isLp) {\n            pool.lpToken2.transfer(\n                msg.sender,\n                miner.amount.mul(pool.amountRate).div(1000)\n            );\n        }\n\n        // miner.rewardDebt = miner.power.mul(accChaPerShare).div(1e12);\n        // userLevel[msg.sender] = getUserLevel(userPower[msg.sender]);\n        pool.lpToken.transfer(address(msg.sender), _amount);\n\n        if (miner.nft1 > 0) {\n            nftToken.safeTransferFrom(address(this), msg.sender, miner.nft1);\n        }\n        if (miner.nft2 > 0) {\n            nftToken.safeTransferFrom(address(this), msg.sender, miner.nft2);\n        }\n        if (miner.nft3 > 0) {\n            nftToken.safeTransferFrom(address(this), msg.sender, miner.nft3);\n        }\n\n        // reduce power\n        // uint256 power = miner.power.mul(_amount).div(miner.amount);\n        totalPower = totalPower.sub(miner.power);\n        downGroupPower(msg.sender, miner.power);\n\n        userPower[msg.sender] = userPower[msg.sender].sub(miner.power);\n        //  reduce amount\n        miner.power = 0;\n        miner.amount = 0;\n        miner.nft1 = 0;\n        miner.nft2 = 0;\n        miner.nft3 = 0;\n        miner.rewardDebt = 0;\n        // minerInfo[_pid][msg.sender] = 0;\n\n        emit Withdraw(msg.sender, _pid, _amount);\n    }\n\n    function calculeInviteReward(address child, uint256 total) private {\n\n        for(uint8 layer=0; layer< maxInviteLayer; layer++) {\n            address parent = userParent[child];\n            if (parent == address(0) || parent == child)\n                return;\n            uint8 level = userLevel[parent];\n            uint8 ratio = inviteRatio[level][layer];\n            if (ratio <= 0) {\n                return ;\n            }\n            uint256 reward = total.mul(ratio).div(100);\n            inviteReward[parent] = inviteReward[parent].add(reward);\n            child = parent;\n        }\n    }\n\n    function upGroupPower(address child, uint256 power) private {\n\n        for(uint8 layer=0; layer< maxInviteLayer; layer++) {\n            address parent = userParent[child];\n            if (parent == address(0) || parent == child)\n                return;\n            groupPower[parent] = groupPower[parent].add(power);\n            child = parent;\n        }\n    }\n\n    function downGroupPower(address child, uint256 power) private {\n\n        for(uint8 layer=0; layer< maxInviteLayer; layer++) {\n            address parent = userParent[child];\n            if (parent == address(0) || parent == child)\n                return;\n            groupPower[parent] = groupPower[parent].sub(power);\n            child = parent;\n        }\n    }\n\n    // Withdraw without caring about rewards. EMERGENCY ONLY.\n    function emergencyWithdraw(uint256 _pid) public {\n        PoolInfo storage pool = poolInfo[_pid];\n        MinerInfo storage miner = minerInfo[_pid][msg.sender];\n        require(miner.endBlock < block.number, \"Cannot withdraw with days limit.\");\n        pool.lpToken.safeTransfer(address(msg.sender), miner.amount);\n        if (pool.isLp) {\n            pool.lpToken2.transfer(\n                msg.sender,\n                miner.amount.mul(pool.amountRate).div(1000)\n            );\n        }\n        emit EmergencyWithdraw(msg.sender, _pid, miner.amount);\n        userPower[msg.sender] = userPower[msg.sender].sub(miner.power);\n        userLevel[msg.sender] = getUserLevel(userPower[msg.sender]);\n        totalPower = totalPower.sub(miner.power);\n        downGroupPower(msg.sender, miner.power);\n        miner.amount = 0;\n        miner.rewardDebt = 0;\n        miner.power = 0;\n    }\n\n    // Safe panToken transfer function, just in case if rounding error causes pool to not have enough CHA.\n    function safeChaTransfer(address _to, uint256 _amount) internal {\n        uint256 chaBal = panToken.balanceOf(address(this));\n        if (_amount > chaBal) {\n            _amount = chaBal;\n        }\n        panToken.transfer(blackholeAddress, _amount.mul(2).div(100));\n        panToken.transfer(airdropAddress, _amount.mul(10).div(100));\n        // panToken.transfer(liquidAddress, _amount.mul(4).div(100));\n        panToken.transfer(_to, _amount.sub(_amount.mul(12).div(100)));\n        if(inviteForce)\n           calculeInviteReward(_to, _amount);\n    }\n}",
  "sourcePath": "/Users/jilong/solidity/pantheonNFT/contracts/BeanPool.sol",
  "compiler": {
    "name": "solc",
    "version": "0.8.6+commit.11564f7e.Emscripten.clang"
  },
  "schemaVersion": "3.4.3",
  "updatedAt": "2021-09-25T15:33:02.040Z",
  "networkType": "ethereum",
  "devdoc": {
    "kind": "dev",
    "methods": {
      "onERC721Received(address,address,uint256,bytes)": {
        "details": "See {IERC721Receiver-onERC721Received}. Always returns `IERC721Receiver.onERC721Received.selector`."
      },
      "owner()": {
        "details": "Returns the address of the current owner."
      },
      "renounceOwnership()": {
        "details": "Leaves the contract without owner. It will not be possible to call `onlyOwner` functions anymore. Can only be called by the current owner. NOTE: Renouncing ownership will leave the contract without an owner, thereby removing any functionality that is only available to the owner."
      },
      "transferOwnership(address)": {
        "details": "Transfers ownership of the contract to a new account (`newOwner`). Can only be called by the current owner."
      }
    },
    "version": 1
  },
  "userdoc": {
    "kind": "user",
    "methods": {},
    "version": 1
  }
}