{
  "contractName": "BeanPool",
  "abi": [
    {
      "inputs": [
        {
          "internalType": "contract IERC20",
          "name": "_chaAddress",
          "type": "address"
        },
        {
          "internalType": "contract IERC721Card",
          "name": "_nftAddress",
          "type": "address"
        },
        {
          "internalType": "address",
          "name": "initInviteAddress",
          "type": "address"
        },
        {
          "internalType": "address",
          "name": "_blackholeAddress",
          "type": "address"
        },
        {
          "internalType": "address",
          "name": "_airdropAddress",
          "type": "address"
        },
        {
          "internalType": "uint256",
          "name": "_chaPerBlock",
          "type": "uint256"
        },
        {
          "internalType": "uint256",
          "name": "_startBlock",
          "type": "uint256"
        },
        {
          "internalType": "uint256",
          "name": "_totalReward",
          "type": "uint256"
        }
      ],
      "stateMutability": "nonpayable",
      "type": "constructor"
    },
    {
      "anonymous": false,
      "inputs": [
        {
          "indexed": true,
          "internalType": "address",
          "name": "user",
          "type": "address"
        },
        {
          "indexed": true,
          "internalType": "uint256",
          "name": "pid",
          "type": "uint256"
        },
        {
          "indexed": false,
          "internalType": "uint256",
          "name": "amount",
          "type": "uint256"
        }
      ],
      "name": "Deposit",
      "type": "event"
    },
    {
      "anonymous": false,
      "inputs": [
        {
          "indexed": true,
          "internalType": "address",
          "name": "user",
          "type": "address"
        },
        {
          "indexed": true,
          "internalType": "uint256",
          "name": "pid",
          "type": "uint256"
        },
        {
          "indexed": false,
          "internalType": "uint256",
          "name": "amount",
          "type": "uint256"
        },
        {
          "indexed": false,
          "internalType": "uint16",
          "name": "nft1",
          "type": "uint16"
        },
        {
          "indexed": false,
          "internalType": "uint16",
          "name": "nft2",
          "type": "uint16"
        },
        {
          "indexed": false,
          "internalType": "uint16",
          "name": "nft3",
          "type": "uint16"
        }
      ],
      "name": "DepositWithNFT",
      "type": "event"
    },
    {
      "anonymous": false,
      "inputs": [
        {
          "indexed": true,
          "internalType": "address",
          "name": "user",
          "type": "address"
        },
        {
          "indexed": true,
          "internalType": "uint256",
          "name": "pid",
          "type": "uint256"
        },
        {
          "indexed": false,
          "internalType": "uint256",
          "name": "amount",
          "type": "uint256"
        }
      ],
      "name": "EmergencyWithdraw",
      "type": "event"
    },
    {
      "anonymous": false,
      "inputs": [
        {
          "indexed": true,
          "internalType": "address",
          "name": "user",
          "type": "address"
        },
        {
          "indexed": true,
          "internalType": "uint256",
          "name": "pid",
          "type": "uint256"
        },
        {
          "indexed": false,
          "internalType": "uint256",
          "name": "amount",
          "type": "uint256"
        }
      ],
      "name": "Harvest",
      "type": "event"
    },
    {
      "anonymous": false,
      "inputs": [
        {
          "indexed": true,
          "internalType": "address",
          "name": "previousOwner",
          "type": "address"
        },
        {
          "indexed": true,
          "internalType": "address",
          "name": "newOwner",
          "type": "address"
        }
      ],
      "name": "OwnershipTransferred",
      "type": "event"
    },
    {
      "anonymous": false,
      "inputs": [
        {
          "indexed": true,
          "internalType": "address",
          "name": "user",
          "type": "address"
        },
        {
          "indexed": true,
          "internalType": "uint256",
          "name": "pid",
          "type": "uint256"
        },
        {
          "indexed": false,
          "internalType": "uint256",
          "name": "amount",
          "type": "uint256"
        }
      ],
      "name": "Withdraw",
      "type": "event"
    },
    {
      "inputs": [],
      "name": "BONUS_MULTIPLIER",
      "outputs": [
        {
          "internalType": "uint256",
          "name": "",
          "type": "uint256"
        }
      ],
      "stateMutability": "view",
      "type": "function",
      "constant": true
    },
    {
      "inputs": [],
      "name": "accChaPerShare",
      "outputs": [
        {
          "internalType": "uint256",
          "name": "",
          "type": "uint256"
        }
      ],
      "stateMutability": "view",
      "type": "function",
      "constant": true
    },
    {
      "inputs": [],
      "name": "airdropAddress",
      "outputs": [
        {
          "internalType": "address",
          "name": "",
          "type": "address"
        }
      ],
      "stateMutability": "view",
      "type": "function",
      "constant": true
    },
    {
      "inputs": [],
      "name": "blackholeAddress",
      "outputs": [
        {
          "internalType": "address",
          "name": "",
          "type": "address"
        }
      ],
      "stateMutability": "view",
      "type": "function",
      "constant": true
    },
    {
      "inputs": [],
      "name": "chaPerBlock",
      "outputs": [
        {
          "internalType": "uint256",
          "name": "",
          "type": "uint256"
        }
      ],
      "stateMutability": "view",
      "type": "function",
      "constant": true
    },
    {
      "inputs": [],
      "name": "devaddr",
      "outputs": [
        {
          "internalType": "address",
          "name": "",
          "type": "address"
        }
      ],
      "stateMutability": "view",
      "type": "function",
      "constant": true
    },
    {
      "inputs": [
        {
          "internalType": "address",
          "name": "",
          "type": "address"
        }
      ],
      "name": "groupPower",
      "outputs": [
        {
          "internalType": "uint256",
          "name": "",
          "type": "uint256"
        }
      ],
      "stateMutability": "view",
      "type": "function",
      "constant": true
    },
    {
      "inputs": [],
      "name": "inviteForce",
      "outputs": [
        {
          "internalType": "bool",
          "name": "",
          "type": "bool"
        }
      ],
      "stateMutability": "view",
      "type": "function",
      "constant": true
    },
    {
      "inputs": [
        {
          "internalType": "address",
          "name": "",
          "type": "address"
        }
      ],
      "name": "inviteReward",
      "outputs": [
        {
          "internalType": "uint256",
          "name": "",
          "type": "uint256"
        }
      ],
      "stateMutability": "view",
      "type": "function",
      "constant": true
    },
    {
      "inputs": [],
      "name": "lastRewardBlock",
      "outputs": [
        {
          "internalType": "uint256",
          "name": "",
          "type": "uint256"
        }
      ],
      "stateMutability": "view",
      "type": "function",
      "constant": true
    },
    {
      "inputs": [],
      "name": "maxInviteLayer",
      "outputs": [
        {
          "internalType": "uint8",
          "name": "",
          "type": "uint8"
        }
      ],
      "stateMutability": "view",
      "type": "function",
      "constant": true
    },
    {
      "inputs": [
        {
          "internalType": "uint256",
          "name": "",
          "type": "uint256"
        },
        {
          "internalType": "address",
          "name": "",
          "type": "address"
        }
      ],
      "name": "minerInfo",
      "outputs": [
        {
          "internalType": "uint256",
          "name": "amount",
          "type": "uint256"
        },
        {
          "internalType": "uint256",
          "name": "power",
          "type": "uint256"
        },
        {
          "internalType": "uint256",
          "name": "endBlock",
          "type": "uint256"
        },
        {
          "internalType": "uint256",
          "name": "rewardDebt",
          "type": "uint256"
        },
        {
          "internalType": "uint256",
          "name": "nft1",
          "type": "uint256"
        },
        {
          "internalType": "uint256",
          "name": "nft2",
          "type": "uint256"
        },
        {
          "internalType": "uint256",
          "name": "nft3",
          "type": "uint256"
        }
      ],
      "stateMutability": "view",
      "type": "function",
      "constant": true
    },
    {
      "inputs": [
        {
          "internalType": "uint256",
          "name": "",
          "type": "uint256"
        }
      ],
      "name": "nftRate",
      "outputs": [
        {
          "internalType": "uint16",
          "name": "",
          "type": "uint16"
        }
      ],
      "stateMutability": "view",
      "type": "function",
      "constant": true
    },
    {
      "inputs": [],
      "name": "nftToken",
      "outputs": [
        {
          "internalType": "contract IERC721Card",
          "name": "",
          "type": "address"
        }
      ],
      "stateMutability": "view",
      "type": "function",
      "constant": true
    },
    {
      "inputs": [
        {
          "internalType": "address",
          "name": "",
          "type": "address"
        },
        {
          "internalType": "address",
          "name": "",
          "type": "address"
        },
        {
          "internalType": "uint256",
          "name": "",
          "type": "uint256"
        },
        {
          "internalType": "bytes",
          "name": "",
          "type": "bytes"
        }
      ],
      "name": "onERC721Received",
      "outputs": [
        {
          "internalType": "bytes4",
          "name": "",
          "type": "bytes4"
        }
      ],
      "stateMutability": "nonpayable",
      "type": "function"
    },
    {
      "inputs": [],
      "name": "owner",
      "outputs": [
        {
          "internalType": "address",
          "name": "",
          "type": "address"
        }
      ],
      "stateMutability": "view",
      "type": "function",
      "constant": true
    },
    {
      "inputs": [],
      "name": "panToken",
      "outputs": [
        {
          "internalType": "contract IERC20",
          "name": "",
          "type": "address"
        }
      ],
      "stateMutability": "view",
      "type": "function",
      "constant": true
    },
    {
      "inputs": [
        {
          "internalType": "uint256",
          "name": "",
          "type": "uint256"
        }
      ],
      "name": "poolInfo",
      "outputs": [
        {
          "internalType": "contract IERC20",
          "name": "lpToken",
          "type": "address"
        },
        {
          "internalType": "contract IERC20",
          "name": "lpToken2",
          "type": "address"
        },
        {
          "internalType": "bool",
          "name": "isLp",
          "type": "bool"
        },
        {
          "internalType": "uint32",
          "name": "timeBlocks",
          "type": "uint32"
        },
        {
          "internalType": "uint32",
          "name": "amountRate",
          "type": "uint32"
        },
        {
          "internalType": "uint256",
          "name": "powerRate",
          "type": "uint256"
        }
      ],
      "stateMutability": "view",
      "type": "function",
      "constant": true
    },
    {
      "inputs": [],
      "name": "releasedReward",
      "outputs": [
        {
          "internalType": "uint256",
          "name": "",
          "type": "uint256"
        }
      ],
      "stateMutability": "view",
      "type": "function",
      "constant": true
    },
    {
      "inputs": [],
      "name": "renounceOwnership",
      "outputs": [],
      "stateMutability": "nonpayable",
      "type": "function"
    },
    {
      "inputs": [],
      "name": "startBlock",
      "outputs": [
        {
          "internalType": "uint256",
          "name": "",
          "type": "uint256"
        }
      ],
      "stateMutability": "view",
      "type": "function",
      "constant": true
    },
    {
      "inputs": [],
      "name": "totalAllocPoint",
      "outputs": [
        {
          "internalType": "uint256",
          "name": "",
          "type": "uint256"
        }
      ],
      "stateMutability": "view",
      "type": "function",
      "constant": true
    },
    {
      "inputs": [],
      "name": "totalPower",
      "outputs": [
        {
          "internalType": "uint256",
          "name": "",
          "type": "uint256"
        }
      ],
      "stateMutability": "view",
      "type": "function",
      "constant": true
    },
    {
      "inputs": [],
      "name": "totalReward",
      "outputs": [
        {
          "internalType": "uint256",
          "name": "",
          "type": "uint256"
        }
      ],
      "stateMutability": "view",
      "type": "function",
      "constant": true
    },
    {
      "inputs": [
        {
          "internalType": "address",
          "name": "newOwner",
          "type": "address"
        }
      ],
      "name": "transferOwnership",
      "outputs": [],
      "stateMutability": "nonpayable",
      "type": "function"
    },
    {
      "inputs": [
        {
          "internalType": "address",
          "name": "",
          "type": "address"
        }
      ],
      "name": "userLevel",
      "outputs": [
        {
          "internalType": "uint8",
          "name": "",
          "type": "uint8"
        }
      ],
      "stateMutability": "view",
      "type": "function",
      "constant": true
    },
    {
      "inputs": [
        {
          "internalType": "address",
          "name": "",
          "type": "address"
        }
      ],
      "name": "userParent",
      "outputs": [
        {
          "internalType": "address",
          "name": "",
          "type": "address"
        }
      ],
      "stateMutability": "view",
      "type": "function",
      "constant": true
    },
    {
      "inputs": [
        {
          "internalType": "address",
          "name": "",
          "type": "address"
        }
      ],
      "name": "userPower",
      "outputs": [
        {
          "internalType": "uint256",
          "name": "",
          "type": "uint256"
        }
      ],
      "stateMutability": "view",
      "type": "function",
      "constant": true
    },
    {
      "inputs": [],
      "name": "releaseReward2",
      "outputs": [
        {
          "internalType": "uint256",
          "name": "",
          "type": "uint256"
        }
      ],
      "stateMutability": "view",
      "type": "function",
      "constant": true
    },
    {
      "inputs": [],
      "name": "remainReward",
      "outputs": [
        {
          "internalType": "uint256",
          "name": "",
          "type": "uint256"
        }
      ],
      "stateMutability": "view",
      "type": "function",
      "constant": true
    },
    {
      "inputs": [],
      "name": "poolLength",
      "outputs": [
        {
          "internalType": "uint256",
          "name": "",
          "type": "uint256"
        }
      ],
      "stateMutability": "view",
      "type": "function",
      "constant": true
    },
    {
      "inputs": [
        {
          "internalType": "uint256",
          "name": "_powerRate",
          "type": "uint256"
        },
        {
          "internalType": "uint32",
          "name": "_amountRate",
          "type": "uint32"
        },
        {
          "internalType": "contract IERC20",
          "name": "_token",
          "type": "address"
        },
        {
          "internalType": "contract IERC20",
          "name": "_token2",
          "type": "address"
        },
        {
          "internalType": "bool",
          "name": "_isLp",
          "type": "bool"
        },
        {
          "internalType": "uint32",
          "name": "timeBlocks",
          "type": "uint32"
        },
        {
          "internalType": "bool",
          "name": "_withUpdate",
          "type": "bool"
        }
      ],
      "name": "addPool",
      "outputs": [],
      "stateMutability": "nonpayable",
      "type": "function"
    },
    {
      "inputs": [
        {
          "internalType": "uint256",
          "name": "_pid",
          "type": "uint256"
        },
        {
          "internalType": "uint256",
          "name": "_powerRate",
          "type": "uint256"
        },
        {
          "internalType": "bool",
          "name": "_withUpdate",
          "type": "bool"
        }
      ],
      "name": "setPool",
      "outputs": [],
      "stateMutability": "nonpayable",
      "type": "function"
    },
    {
      "inputs": [
        {
          "internalType": "address",
          "name": "parent",
          "type": "address"
        }
      ],
      "name": "setInvite",
      "outputs": [],
      "stateMutability": "nonpayable",
      "type": "function"
    },
    {
      "inputs": [
        {
          "internalType": "bool",
          "name": "enable",
          "type": "bool"
        }
      ],
      "name": "setInviteEnable",
      "outputs": [],
      "stateMutability": "nonpayable",
      "type": "function"
    },
    {
      "inputs": [
        {
          "internalType": "uint8",
          "name": "layer",
          "type": "uint8"
        }
      ],
      "name": "setMaxInviteLayer",
      "outputs": [],
      "stateMutability": "nonpayable",
      "type": "function"
    },
    {
      "inputs": [
        {
          "internalType": "address",
          "name": "addr",
          "type": "address"
        }
      ],
      "name": "getInviteInfo",
      "outputs": [
        {
          "internalType": "uint16",
          "name": "",
          "type": "uint16"
        },
        {
          "internalType": "uint256",
          "name": "",
          "type": "uint256"
        },
        {
          "internalType": "uint256",
          "name": "",
          "type": "uint256"
        },
        {
          "internalType": "uint256",
          "name": "",
          "type": "uint256"
        },
        {
          "internalType": "address",
          "name": "",
          "type": "address"
        }
      ],
      "stateMutability": "view",
      "type": "function",
      "constant": true
    },
    {
      "inputs": [
        {
          "internalType": "uint256",
          "name": "_from",
          "type": "uint256"
        },
        {
          "internalType": "uint256",
          "name": "_to",
          "type": "uint256"
        }
      ],
      "name": "getMultiplier",
      "outputs": [
        {
          "internalType": "uint256",
          "name": "",
          "type": "uint256"
        }
      ],
      "stateMutability": "pure",
      "type": "function",
      "constant": true
    },
    {
      "inputs": [
        {
          "internalType": "uint256",
          "name": "_pid",
          "type": "uint256"
        },
        {
          "internalType": "address",
          "name": "_user",
          "type": "address"
        }
      ],
      "name": "pendingReward",
      "outputs": [
        {
          "internalType": "uint256",
          "name": "",
          "type": "uint256"
        }
      ],
      "stateMutability": "view",
      "type": "function",
      "constant": true
    },
    {
      "inputs": [],
      "name": "updateReward",
      "outputs": [],
      "stateMutability": "nonpayable",
      "type": "function"
    },
    {
      "inputs": [
        {
          "internalType": "uint256",
          "name": "_pid",
          "type": "uint256"
        },
        {
          "internalType": "uint256",
          "name": "_amount",
          "type": "uint256"
        }
      ],
      "name": "deposit",
      "outputs": [
        {
          "internalType": "bool",
          "name": "",
          "type": "bool"
        }
      ],
      "stateMutability": "nonpayable",
      "type": "function"
    },
    {
      "inputs": [
        {
          "internalType": "uint256",
          "name": "_pid",
          "type": "uint256"
        },
        {
          "internalType": "uint256",
          "name": "_amount",
          "type": "uint256"
        },
        {
          "internalType": "uint16",
          "name": "nft1",
          "type": "uint16"
        },
        {
          "internalType": "uint16",
          "name": "nft2",
          "type": "uint16"
        },
        {
          "internalType": "uint16",
          "name": "nft3",
          "type": "uint16"
        }
      ],
      "name": "depositWithNFT",
      "outputs": [],
      "stateMutability": "nonpayable",
      "type": "function"
    },
    {
      "inputs": [
        {
          "internalType": "uint256",
          "name": "_pid",
          "type": "uint256"
        }
      ],
      "name": "harvest",
      "outputs": [],
      "stateMutability": "nonpayable",
      "type": "function"
    },
    {
      "inputs": [
        {
          "internalType": "uint256",
          "name": "_pid",
          "type": "uint256"
        },
        {
          "internalType": "uint256",
          "name": "_amount",
          "type": "uint256"
        }
      ],
      "name": "withdraw",
      "outputs": [],
      "stateMutability": "nonpayable",
      "type": "function"
    },
    {
      "inputs": [
        {
          "internalType": "uint256",
          "name": "_pid",
          "type": "uint256"
        }
      ],
      "name": "emergencyWithdraw",
      "outputs": [],
      "stateMutability": "nonpayable",
      "type": "function"
    }
  ],
  "bytecode": "0x60e06040526103e860809081526107d060a052610bb860c0526200002890600590600362000259565b506006805461ffff191661050117905560408051610120810182526000608080830182815260a080850184905260c0850184905260e08501849052610100850184905290845284518082018652600f808252600c602080840182905283890187905260608085018890528487018890528189019490945288518086018a526014815280820193909352600a838a015282840187905282860196909652868801919091528651928301875260168352601294830194909452601095820195909552600e8186015290810191909152918101919091526200010c90601390600462000309565b5060006015553480156200011f57600080fd5b50604051620038893803806200388983398101604081905262000142916200045e565b6200014d3362000209565b6006805462010000600160b01b031916620100006001600160a01b038b81169190910291909117909155600880546001600160a01b031990811688841617909155600980548216878416179055600c8590556016849055600a83905560018054909116918916919091179055438210620001ca57601654620001cc565b435b6002555050506001600160a01b03909216600090815260106020526040812080546001600160a01b03191633179055600455506200050f92505050565b600080546001600160a01b038381166001600160a01b0319831681178455604051919092169283917f8be0079c531659141344cd1fd0a4f28419497f9722a3daafe3b4186f6b6457e09190a35050565b82805482825590600052602060002090600f01601090048101928215620002f75791602002820160005b83821115620002c557835183826101000a81548161ffff021916908361ffff160217905550926020019260020160208160010104928301926001030262000283565b8015620002f55782816101000a81549061ffff0219169055600201602081600101049283019260010302620002c5565b505b506200030592915062000363565b5090565b82805482825590600052602060002090810192821562000355579160200282015b82811115620003555782516200034490839060056200037a565b50916020019190600101906200032a565b506200030592915062000413565b5b8082111562000305576000815560010162000364565b82805482825590600052602060002090601f01602090048101928215620002f75791602002820160005b83821115620003e457835183826101000a81548160ff021916908360ff1602179055509260200192600101602081600001049283019260010302620003a4565b8015620002f55782816101000a81549060ff0219169055600101602081600001049283019260010302620003e4565b80821115620003055760006200042a828262000434565b5060010162000413565b50805460008255601f0160209004906000526020600020908101906200045b919062000363565b50565b600080600080600080600080610100898b0312156200047c57600080fd5b88516200048981620004f9565b60208a01519098506200049c81620004f9565b60408a0151909750620004af81620004f9565b60608a0151909650620004c281620004f9565b60808a0151909550620004d581620004f9565b60a08a015160c08b015160e0909b0151999c989b5096999598909790945092505050565b6001600160a01b03811681146200045b57600080fd5b61336a806200051f6000396000f3fe608060405234801561001057600080fd5b506004361061027f5760003560e01c8063715018a61161015c578063cf07ed8c116100ce578063e2bbb15811610087578063e2bbb15814610704578063f0884f9f14610717578063f2fde38b14610737578063f36c0a721461074a578063f53f8e9414610752578063fdab7bb61461076b57600080fd5b8063cf07ed8c1461068f578063d06fcba8146106af578063d49e77cd146106c2578063db3ad22c146106d5578063ddc63262146106de578063dea4d678146106f157600080fd5b80638aa28550116101205780638aa285501461063e5780638da5cb5b146106465780638dbb1e3a1461065757806398969e821461066a578063a0f015ab1461067d578063a9f8d1811461068657600080fd5b8063715018a6146105fe578063750142e6146106065780637d515a101461060f5780638043c10c1461062257806384413b651461062b57600080fd5b80634569d415116101f55780635312ea8e116101b95780635312ea8e1461058457806354ce5f56146105975780635cab2c08146105b45780635e490652146105c757806360fc9c42146105cf5780636c18005b146105f557600080fd5b80634569d4151461048c57806345d3f197146104b657806346ca6bea1461054857806348cd4cb11461055b5780634d6e34521461056457600080fd5b806317caf6f11161024757806317caf6f1146103745780632613f87d1461037d578063280e31cc146103a05780634294c09b146103d557806342f2ca02146103e7578063441a3e701461047957600080fd5b8063081e3eda146102845780630dfcaac61461029b5780631485ff78146102dc578063150b7a02146102e45780631526fe271461031b575b600080fd5b600d545b6040519081526020015b60405180910390f35b6102c46102a9366004612e0a565b6010602052600090815260409020546001600160a01b031681565b6040516001600160a01b039091168152602001610292565b61028861077e565b6103026102f2366004612e44565b630a85bd0160e11b949350505050565b6040516001600160e01b03199091168152602001610292565b61032e610329366004612f5e565b610795565b604080516001600160a01b0397881681529690951660208701529215159385019390935263ffffffff9081166060850152909116608083015260a082015260c001610292565b61028860155481565b61039e61038b366004612f24565b6006805460ff1916911515919091179055565b005b6103c36103ae366004612e0a565b60116020526000908152604090205460ff1681565b60405160ff9091168152602001610292565b6006546103c390610100900460ff1681565b6104446103f5366004612f90565b6014602052816000526040600020602052806000526040600020600091509150508060000154908060010154908060020154908060030154908060040154908060050154908060060154905087565b604080519788526020880196909652948601939093526060850191909152608084015260a083015260c082015260e001610292565b61039e610487366004612fc0565b6107f9565b61039e61049a3660046130fb565b6006805460ff9092166101000261ff0019909216919091179055565b6105126104c4366004612e0a565b6001600160a01b03908116600090815260116020908152604080832054600e835281842054600f84528285205460128552838620546010909552929094205460ff9091169593949193911690565b6040805161ffff909616865260208601949094529284019190915260608301526001600160a01b0316608082015260a001610292565b61039e610556366004612fe2565b610d0f565b61028860165481565b610288610572366004612e0a565b600e6020526000908152604090205481565b61039e610592366004612f5e565b610d75565b6006546105a49060ff1681565b6040519015158152602001610292565b61039e6105c2366004612e0a565b610fbe565b610288611113565b6105e26105dd366004612f5e565b611135565b60405161ffff9091168152602001610292565b61028860035481565b61039e61116d565b610288600a5481565b6008546102c4906001600160a01b031681565b610288600b5481565b6009546102c4906001600160a01b031681565b610288600a81565b6000546001600160a01b03166102c4565b610288610665366004612fc0565b6111a3565b610288610678366004612f90565b6111b8565b610288600c5481565b61028860025481565b61028861069d366004612e0a565b600f6020526000908152604090205481565b6001546102c4906001600160a01b031681565b6007546102c4906001600160a01b031681565b61028860045481565b61039e6106ec366004612f5e565b61129c565b61039e6106ff36600461301b565b61139f565b6105a4610712366004612fc0565b611de6565b610288610725366004612e0a565b60126020526000908152604090205481565b61039e610745366004612e0a565b6121bd565b61039e612258565b6006546102c4906201000090046001600160a01b031681565b61039e610779366004613072565b61235e565b6000600b54600a54610790919061325d565b905090565b600d81815481106107a557600080fd5b60009182526020909120600390910201805460018201546002909201546001600160a01b0391821693509082169160ff600160a01b8204169163ffffffff600160a81b8304811692600160c81b9004169086565b6000600d838154811061080e5761080e6132d6565b6000918252602080832086845260148252604080852033865290925292208054600390920290920192508311156108815760405162461bcd60e51b81526020600482015260126024820152711dda5d1a191c985dce881b9bdd0819dbdbd960721b60448201526064015b60405180910390fd5b6000600354116108dd5760405162461bcd60e51b815260206004820152602160248201527f61636343686150657253686172652073686f756c64206e6f74206265207a65726044820152606f60f81b6064820152608401610878565b43816002015411156109315760405162461bcd60e51b815260206004820181905260248201527f43616e6e6f7420776974686472617720776974682064617973206c696d69742e6044820152606401610878565b610939612258565b6003808201549054825461095d9164e8d4a5100091610957916124de565b906124ea565b11156109a3576000610995826003015461098f64e8d4a5100061095760035487600001546124de90919063ffffffff16565b906124f6565b90506109a13382612502565b505b6001820154600160a01b900460ff1615610a7457600182015481546001600160a01b0382169163a9059cbb9133916109f4916103e891610957919063ffffffff600160c81b9091048116906124de16565b6040516001600160e01b031960e085901b1681526001600160a01b0390921660048301526024820152604401602060405180830381600087803b158015610a3a57600080fd5b505af1158015610a4e573d6000803e3d6000fd5b505050506040513d601f19601f82011682018060405250810190610a729190612f41565b505b815460405163a9059cbb60e01b8152336004820152602481018590526001600160a01b039091169063a9059cbb90604401602060405180830381600087803b158015610abf57600080fd5b505af1158015610ad3573d6000803e3d6000fd5b505050506040513d601f19601f82011682018060405250810190610af79190612f41565b50600481015415610b6b57600154600480830154604051632142170760e11b81526001600160a01b03909316926342842e0e92610b38923092339201613178565b600060405180830381600087803b158015610b5257600080fd5b505af1158015610b66573d6000803e3d6000fd5b505050505b600581015415610bdf576001546005820154604051632142170760e11b81526001600160a01b03909216916342842e0e91610bac9130913391600401613178565b600060405180830381600087803b158015610bc657600080fd5b505af1158015610bda573d6000803e3d6000fd5b505050505b600681015415610c53576001546006820154604051632142170760e11b81526001600160a01b03909216916342842e0e91610c209130913391600401613178565b600060405180830381600087803b158015610c3a57600080fd5b505af1158015610c4e573d6000803e3d6000fd5b505050505b6001810154600454610c64916124f6565b6004556001810154610c779033906127b9565b6001810154336000908152600e6020526040902054610c95916124f6565b336000818152600e60205260408082209390935560018401819055808455600484018190556005840181905560068401819055600384015590518591907ff279e6a1f5e320cca91135676d9cb6e44ca8a08c0b88342bcdb1144f6511b56890610d019087815260200190565b60405180910390a350505050565b6000546001600160a01b03163314610d395760405162461bcd60e51b8152600401610878906131cf565b8015610d4757610d47612258565b81600d8481548110610d5b57610d5b6132d6565b906000526020600020906003020160020181905550505050565b6000600d8281548110610d8a57610d8a6132d6565b6000918252602080832085845260148252604080852033865290925292206002810154600390920290920192504311610e055760405162461bcd60e51b815260206004820181905260248201527f43616e6e6f7420776974686472617720776974682064617973206c696d69742e6044820152606401610878565b80548254610e20916001600160a01b03909116903390612866565b6001820154600160a01b900460ff1615610ef157600182015481546001600160a01b0382169163a9059cbb913391610e71916103e891610957919063ffffffff600160c81b9091048116906124de16565b6040516001600160e01b031960e085901b1681526001600160a01b0390921660048301526024820152604401602060405180830381600087803b158015610eb757600080fd5b505af1158015610ecb573d6000803e3d6000fd5b505050506040513d601f19601f82011682018060405250810190610eef9190612f41565b505b8054604051908152839033907fbb757047c2b5f3974fe26b7c10f732e7bce710b0952a71082702781e62ae05959060200160405180910390a36001810154336000908152600e6020526040902054610f48916124f6565b336000908152600e60205260409020819055610f63906128c9565b336000908152601160205260409020805460ff191660ff929092169190911790556001810154600454610f95916124f6565b6004556001810154610fa89033906127b9565b6000808255600382018190556001909101555050565b336000908152601060205260409020546001600160a01b0316156110245760405162461bcd60e51b815260206004820152601760248201527f596f7520616c726561647920626520696e76697465642e0000000000000000006044820152606401610878565b6001600160a01b038181166000908152601060205260409020541661108b5760405162461bcd60e51b815260206004820152601e60248201527f506172656e742073686f756c6420626520696e766974652066697273742e00006044820152606401610878565b6001600160a01b0381163314156110e45760405162461bcd60e51b815260206004820152601b60248201527f596f752063616e6e6f7420696e7669746520796f757273656c662e00000000006044820152606401610878565b33600090815260106020526040902080546001600160a01b0319166001600160a01b0392909216919091179055565b600061079064e8d4a510006109576003546004546124de90919063ffffffff16565b6005818154811061114557600080fd5b9060005260206000209060109182820401919006600202915054906101000a900461ffff1681565b6000546001600160a01b031633146111975760405162461bcd60e51b8152600401610878906131cf565b6111a16000612918565b565b60006111af82846124f6565b90505b92915050565b60008281526014602090815260408083206001600160a01b03851684529091528120600354600282015443908111156111f2575060028201545b60025481118015611204575060045415155b15611290576000611217600254836111a3565b90506000611230600c54836124de90919063ffffffff16565b905061125a61125360045461095764e8d4a51000856124de90919063ffffffff16565b8590612968565b9350611284856003015461098f64e8d4a51000610957888a600101546124de90919063ffffffff16565b955050505050506111b2565b50600095945050505050565b600081815260146020908152604080832033845290915290206112bd612258565b60006112e9826003015461098f64e8d4a5100061095760035487600101546124de90919063ffffffff16565b9050600081116113325760405162461bcd60e51b81526020600482015260146024820152731a185c9d995cdd0e881b9bdb99481c995dd85c9960621b6044820152606401610878565b61133c3382612502565b61135e64e8d4a5100061095760035485600101546124de90919063ffffffff16565b6003830155604051818152839033907f71bab65ced2e5750775a0613be067df48ef06cf92a496ebf7663ae06609249549060200160405180910390a3505050565b6000600d86815481106113b4576113b46132d6565b60009182526020808320898452601482526040808520338652835293849020845160e08101865281548152600182015493810193909352600281015494830194909452600380850154606084015260048501546080840152600585015460a084015260069094015460c083015291909202019150611430612258565b805115611471576000611463826060015161098f64e8d4a5100061095760035487602001516124de90919063ffffffff16565b905061146f3382612502565b505b81546040516323b872dd60e01b81526001600160a01b03909116906323b872dd906114a490339030908b90600401613178565b602060405180830381600087803b1580156114be57600080fd5b505af11580156114d2573d6000803e3d6000fd5b505050506040513d601f19601f820116820180604052508101906114f69190612f41565b506001820154600160a01b900460ff16156115bb5760018201546001600160a01b038116906323b872dd9033903090611549906103e890610957908d9063ffffffff600160c81b9091048116906124de16565b6040518463ffffffff1660e01b815260040161156793929190613178565b602060405180830381600087803b15801561158157600080fd5b505af1158015611595573d6000803e3d6000fd5b505050506040513d601f19601f820116820180604052508101906115b99190612f41565b505b80516115c79087612968565b815260028201546000908190819061ffff89161580159061166d57506001546040516331a9108f60e11b815261ffff8b16600482015233916001600160a01b031690636352211e9060240160206040518083038186803b15801561162a57600080fd5b505afa15801561163e573d6000803e3d6000fd5b505050506040513d601f19601f820116820180604052508101906116629190612e27565b6001600160a01b0316145b156117bf576001546040516336af181960e11b815261ffff8b1660048201526001600160a01b0390911690636d5e30329060240160206040518083038186803b1580156116b957600080fd5b505afa1580156116cd573d6000803e3d6000fd5b505050506040513d601f19601f820116820180604052508101906116f19190613118565b60ff1693506103e86005858154811061170c5761170c6132d6565b90600052602060002090601091828204019190066002029054906101000a900461ffff1661ffff168760020154611743919061323e565b61174d919061321c565b6117579082613204565b600154604051632142170760e11b81529192506001600160a01b0316906342842e0e9061178c90339030908e90600401613151565b600060405180830381600087803b1580156117a657600080fd5b505af11580156117ba573d6000803e3d6000fd5b505050505b60008861ffff1611801561185857506001546040516331a9108f60e11b815261ffff8a16600482015233916001600160a01b031690636352211e9060240160206040518083038186803b15801561181557600080fd5b505afa158015611829573d6000803e3d6000fd5b505050506040513d601f19601f8201168201806040525081019061184d9190612e27565b6001600160a01b0316145b156119aa576001546040516336af181960e11b815261ffff8a1660048201526001600160a01b0390911690636d5e30329060240160206040518083038186803b1580156118a457600080fd5b505afa1580156118b8573d6000803e3d6000fd5b505050506040513d601f19601f820116820180604052508101906118dc9190613118565b60ff1692506103e8600584815481106118f7576118f76132d6565b90600052602060002090601091828204019190066002029054906101000a900461ffff1661ffff16876002015461192e919061323e565b611938919061321c565b6119429082613204565b600154604051632142170760e11b81529192506001600160a01b0316906342842e0e9061197790339030908d90600401613151565b600060405180830381600087803b15801561199157600080fd5b505af11580156119a5573d6000803e3d6000fd5b505050505b60008761ffff16118015611a4357506001546040516331a9108f60e11b815261ffff8916600482015233916001600160a01b031690636352211e9060240160206040518083038186803b158015611a0057600080fd5b505afa158015611a14573d6000803e3d6000fd5b505050506040513d601f19601f82011682018060405250810190611a389190612e27565b6001600160a01b0316145b15611b95576001546040516336af181960e11b815261ffff891660048201526001600160a01b0390911690636d5e30329060240160206040518083038186803b158015611a8f57600080fd5b505afa158015611aa3573d6000803e3d6000fd5b505050506040513d601f19601f82011682018060405250810190611ac79190613118565b60ff1691506103e860058381548110611ae257611ae26132d6565b90600052602060002090601091828204019190066002029054906101000a900461ffff1661ffff168760020154611b19919061323e565b611b23919061321c565b611b2d9082613204565b600154604051632142170760e11b81529192506001600160a01b0316906342842e0e90611b6290339030908c90600401613151565b600060405180830381600087803b158015611b7c57600080fd5b505af1158015611b90573d6000803e3d6000fd5b505050505b836002148015611ba457508284145b8015611baf57508183145b15611be0576103e88660020154611388611bc9919061323e565b611bd3919061321c565b611bdd9082613204565b90505b6000611bf26103e86109578d856124de565b6020870151909150611c049082612968565b6020870152600454611c169082612968565b600455611c233382612974565b336000908152600e6020526040902054611c3d9082612968565b336000908152600e602052604090205560018701544390611c7090829063ffffffff600160a81b90910481169061296816565b60408089019190915261ffff808d1660808a01528b811660a08a01528a1660c0890152336000908152600e6020522054611ca9906128c9565b336000908152601160209081526040909120805460ff191660ff939093169290921790915560035490880151611ce99164e8d4a5100091610957916124de565b87606001818152505086601460008f81526020019081526020016000206000336001600160a01b03166001600160a01b03168152602001908152602001600020600082015181600001556020820151816001015560408201518160020155606082015181600301556080820151816004015560a0820151816005015560c082015181600601559050508c336001600160a01b03167f12683d1bce24a39469d43b532a00fb65c26276ed57dbd35b204c720380597f7e8e8e8e8e604051611dcf949392919093845261ffff9283166020850152908216604084015216606082015260800190565b60405180910390a350505050505050505050505050565b600080600d8481548110611dfc57611dfc6132d6565b60009182526020808320878452601482526040808520338652835293849020845160e08101865281548152600182015493810193909352600281015494830194909452600380850154606084015260048501546080840152600585015460a084015260069094015460c083015291909202019150611e78612258565b60065460ff16151560011415611eed57336000908152601060205260409020546001600160a01b0316611eed5760405162461bcd60e51b815260206004820152601a60248201527f596f75206e65656420626520696e76697465642066697273742e0000000000006044820152606401610878565b805115611f2e576000611f20826060015161098f64e8d4a5100061095760035487602001516124de90919063ffffffff16565b9050611f2c3382612502565b505b81546040516323b872dd60e01b81526001600160a01b03909116906323b872dd90611f6190339030908990600401613178565b602060405180830381600087803b158015611f7b57600080fd5b505af1158015611f8f573d6000803e3d6000fd5b505050506040513d601f19601f82011682018060405250810190611fb39190612f41565b506001820154600160a01b900460ff16156120165761201633306120006103e86109578760010160199054906101000a900463ffffffff1663ffffffff168a6124de90919063ffffffff16565b60018601546001600160a01b0316929190612a21565b80516120229085612968565b8152600282015460009061203f906103e8906109579088906124de565b60208301519091506120519082612968565b60208301526004546120639082612968565b6004556120703382612974565b336000908152600e602052604090205461208a9082612968565b336000908152600e6020526040902055600183015443906120bd90829063ffffffff600160a81b90910481169061296816565b604080850191909152336000908152600e60205220546120dc906128c9565b336000908152601160209081526040909120805460ff191660ff93909316929092179091556003549084015161211c9164e8d4a5100091610957916124de565b606084019081526000888152601460209081526040808320338085529083529281902087518155828801516001820155818801516002820155935160038501556080870151600485015560a0870151600585015560c0870151600690940193909355915188815289927f90890809c654f11d6e72a28fa60149770a0d11ec6c92319d6ceb2bb0a4ea1a15910160405180910390a35060019695505050505050565b6000546001600160a01b031633146121e75760405162461bcd60e51b8152600401610878906131cf565b6001600160a01b03811661224c5760405162461bcd60e51b815260206004820152602660248201527f4f776e61626c653a206e6577206f776e657220697320746865207a65726f206160448201526564647265737360d01b6064820152608401610878565b61225581612918565b50565b6000612271600b54600a546124f690919063ffffffff16565b90506002544311158015612283575080155b1561228b5750565b600454612299575043600255565b4360025411156122eb5760405162461bcd60e51b815260206004820152601960248201527f6c617374526577617264426c6f636b206e6f742076616c6964000000000000006044820152606401610878565b60006122f9600254436111a3565b90506000612312600c54836124de90919063ffffffff16565b90508083101561231f5750815b600b5461232c9082612968565b600b5560045461235290612349906109578464e8d4a510006124de565b60035490612968565b60035550504360025550565b6000546001600160a01b031633146123885760405162461bcd60e51b8152600401610878906131cf565b801561239657612396612258565b506040805160c0810182526001600160a01b0395861681529385166020850190815292151590840190815263ffffffff918216606085019081529582166080850190815260a08501978852600d8054600181018255600091909152945160039095027fd7b6990105719101dabeb77144f2a3385c8033acd3af97e9423a695e81ad1eb5810180549688166001600160a01b03199097169690961790955592517fd7b6990105719101dabeb77144f2a3385c8033acd3af97e9423a695e81ad1eb6850180549251975194518416600160c81b0263ffffffff60c81b1995909416600160a81b029490941667ffffffffffffffff60a81b19971515600160a01b026001600160a81b0319909316919096161717949094169290921792909217905590517fd7b6990105719101dabeb77144f2a3385c8033acd3af97e9423a695e81ad1eb790910155565b60006111af828461323e565b60006111af828461321c565b60006111af828461325d565b6006546040516370a0823160e01b81523060048201526000916201000090046001600160a01b0316906370a082319060240160206040518083038186803b15801561254c57600080fd5b505afa158015612560573d6000803e3d6000fd5b505050506040513d601f19601f820116820180604052508101906125849190612f77565b905080821115612592578091505b6006546008546001600160a01b036201000090920482169163a9059cbb91166125c160646109578760026124de565b6040516001600160e01b031960e085901b1681526001600160a01b0390921660048301526024820152604401602060405180830381600087803b15801561260757600080fd5b505af115801561261b573d6000803e3d6000fd5b505050506040513d601f19601f8201168201806040525081019061263f9190612f41565b506006546009546001600160a01b036201000090920482169163a9059cbb911661266f606461095787600a6124de565b6040516001600160e01b031960e085901b1681526001600160a01b0390921660048301526024820152604401602060405180830381600087803b1580156126b557600080fd5b505af11580156126c9573d6000803e3d6000fd5b505050506040513d601f19601f820116820180604052508101906126ed9190612f41565b506006546201000090046001600160a01b031663a9059cbb84612720612719606461095788600c6124de565b86906124f6565b6040516001600160e01b031960e085901b1681526001600160a01b0390921660048301526024820152604401602060405180830381600087803b15801561276657600080fd5b505af115801561277a573d6000803e3d6000fd5b505050506040513d601f19601f8201168201806040525081019061279e9190612f41565b5060065460ff16156127b4576127b48383612a48565b505050565b60005b60065460ff610100909104811690821610156127b4576001600160a01b038084166000908152601060205260409020541680158061280b5750836001600160a01b0316816001600160a01b0316145b156128165750505050565b6001600160a01b0381166000908152600f602052604090205461283990846124f6565b6001600160a01b0382166000908152600f602052604090205592508061285e816132a0565b9150506127bc565b6040516001600160a01b0383166024820152604481018290526127b490849063a9059cbb60e01b906064015b60408051601f198184030181529190526020810180516001600160e01b03166001600160e01b031990931692909217909152612b93565b6000806128de83670de0b6b3a76400006124ea565b925060009050610bb883106128f5575060036111b2565b6107d08310612906575060026111b2565b6103e883106111b25750600192915050565b600080546001600160a01b038381166001600160a01b0319831681178455604051919092169283917f8be0079c531659141344cd1fd0a4f28419497f9722a3daafe3b4186f6b6457e09190a35050565b60006111af8284613204565b60005b60065460ff610100909104811690821610156127b4576001600160a01b03808416600090815260106020526040902054168015806129c65750836001600160a01b0316816001600160a01b0316145b156129d15750505050565b6001600160a01b0381166000908152600f60205260409020546129f49084612968565b6001600160a01b0382166000908152600f6020526040902055925080612a19816132a0565b915050612977565b612a42846323b872dd60e01b85858560405160240161289293929190613178565b50505050565b60005b60065460ff610100909104811690821610156127b4576001600160a01b0380841660009081526010602052604090205416801580612a9a5750836001600160a01b0316816001600160a01b0316145b15612aa55750505050565b6001600160a01b0381166000908152601160205260408120546013805460ff909216929183908110612ad957612ad96132d6565b906000526020600020018460ff1681548110612af757612af76132d6565b60009182526020918290209181049091015460ff601f9092166101000a900416905080612b2657505050505050565b6000612b3a60646109578860ff86166124de565b6001600160a01b038516600090815260126020526040902054909150612b609082612968565b6001600160a01b03851660009081526012602052604090205550919450829150612b8b9050816132a0565b915050612a4b565b6000612be8826040518060400160405280602081526020017f5361666545524332303a206c6f772d6c6576656c2063616c6c206661696c6564815250856001600160a01b0316612c659092919063ffffffff16565b8051909150156127b45780806020019051810190612c069190612f41565b6127b45760405162461bcd60e51b815260206004820152602a60248201527f5361666545524332303a204552433230206f7065726174696f6e20646964206e6044820152691bdd081cdd58d8d9595960b21b6064820152608401610878565b6060612c748484600085612c7e565b90505b9392505050565b606082471015612cdf5760405162461bcd60e51b815260206004820152602660248201527f416464726573733a20696e73756666696369656e742062616c616e636520666f6044820152651c8818d85b1b60d21b6064820152608401610878565b843b612d2d5760405162461bcd60e51b815260206004820152601d60248201527f416464726573733a2063616c6c20746f206e6f6e2d636f6e74726163740000006044820152606401610878565b600080866001600160a01b03168587604051612d499190613135565b60006040518083038185875af1925050503d8060008114612d86576040519150601f19603f3d011682016040523d82523d6000602084013e612d8b565b606091505b5091509150612d9b828286612da6565b979650505050505050565b60608315612db5575081612c77565b825115612dc55782518084602001fd5b8160405162461bcd60e51b8152600401610878919061319c565b803561ffff81168114612df157600080fd5b919050565b803563ffffffff81168114612df157600080fd5b600060208284031215612e1c57600080fd5b8135612c7781613302565b600060208284031215612e3957600080fd5b8151612c7781613302565b60008060008060808587031215612e5a57600080fd5b8435612e6581613302565b93506020850135612e7581613302565b925060408501359150606085013567ffffffffffffffff80821115612e9957600080fd5b818701915087601f830112612ead57600080fd5b813581811115612ebf57612ebf6132ec565b604051601f8201601f19908116603f01168101908382118183101715612ee757612ee76132ec565b816040528281528a6020848701011115612f0057600080fd5b82602086016020830137600060208483010152809550505050505092959194509250565b600060208284031215612f3657600080fd5b8135612c7781613317565b600060208284031215612f5357600080fd5b8151612c7781613317565b600060208284031215612f7057600080fd5b5035919050565b600060208284031215612f8957600080fd5b5051919050565b60008060408385031215612fa357600080fd5b823591506020830135612fb581613302565b809150509250929050565b60008060408385031215612fd357600080fd5b50508035926020909101359150565b600080600060608486031215612ff757600080fd5b8335925060208401359150604084013561301081613317565b809150509250925092565b600080600080600060a0868803121561303357600080fd5b853594506020860135935061304a60408701612ddf565b925061305860608701612ddf565b915061306660808701612ddf565b90509295509295909350565b600080600080600080600060e0888a03121561308d57600080fd5b8735965061309d60208901612df6565b955060408801356130ad81613302565b945060608801356130bd81613302565b935060808801356130cd81613317565b92506130db60a08901612df6565b915060c08801356130eb81613317565b8091505092959891949750929550565b60006020828403121561310d57600080fd5b8135612c7781613325565b60006020828403121561312a57600080fd5b8151612c7781613325565b60008251613147818460208701613274565b9190910192915050565b6001600160a01b03938416815291909216602082015261ffff909116604082015260600190565b6001600160a01b039384168152919092166020820152604081019190915260600190565b60208152600082518060208401526131bb816040850160208701613274565b601f01601f19169190910160400192915050565b6020808252818101527f4f776e61626c653a2063616c6c6572206973206e6f7420746865206f776e6572604082015260600190565b60008219821115613217576132176132c0565b500190565b60008261323957634e487b7160e01b600052601260045260246000fd5b500490565b6000816000190483118215151615613258576132586132c0565b500290565b60008282101561326f5761326f6132c0565b500390565b60005b8381101561328f578181015183820152602001613277565b83811115612a425750506000910152565b600060ff821660ff8114156132b7576132b76132c0565b60010192915050565b634e487b7160e01b600052601160045260246000fd5b634e487b7160e01b600052603260045260246000fd5b634e487b7160e01b600052604160045260246000fd5b6001600160a01b038116811461225557600080fd5b801515811461225557600080fd5b60ff8116811461225557600080fdfea2646970667358221220f15cdc324f99b60bacb110e2fcaddb3d61b0fdcd603586f6ef2feb999d05ebe264736f6c63430008060033",
  "immutableReferences": {},
  "source": "// SPDX-License-Identifier: MIT\npragma solidity ^0.8.0;\n\nimport \"./utils/math/SafeMath.sol\";\nimport \"./utils/Address.sol\";\nimport \"./access/Ownable.sol\";\n\nimport \"./token/ERC721/IERC721.sol\";\nimport \"./token/ERC721/IERC721Card.sol\";\nimport \"./token/ERC20/IERC20.sol\";\nimport \"./token/ERC721/utils/ERC721Holder.sol\";\nimport \"./token/ERC20/utils/SafeERC20.sol\";\n\ninterface IMigratorChef {\n    // Perform LP token migration from legacy UniswapV2 to ChaSwap.\n    // Take the current LP token address and return the new LP token address.\n    // Migrator should have full access to the caller's LP token.\n    // Return the new LP token address.\n    //\n    // XXX Migrator must have allowance access to UniswapV2 LP tokens.\n    // ChaSwap must mint EXACTLY the same amount of ChaSwap LP tokens or\n    // else something bad will happen. Traditional UniswapV2 does not\n    // do that so be careful!\n    function migrate(IERC20 token) external returns (IERC20);\n}\n\n// BeanPool is the master of Reward. He can make Reward and he is a fair guy.\n//\n// Note that it's ownable and the owner wields tremendous power. The ownership\n// will be transferred to a governance smart contract once CHA is sufficiently\n// distributed and the community can show to govern itself.\n//\n// Have fun reading it. Hopefully it's bug-free. God bless.\ncontract BeanPool is Ownable,ERC721Holder {\n    using SafeMath for uint256;\n    using SafeERC20 for IERC20;\n    // Info of each user.\n    // struct UserInfo {\n    //     uint256 amount; // How many LP tokens the user has provided.\n    //     uint256 rewardDebt; // Reward debt. See explanation below.\n    //     //\n    //     // We do some fancy math here. Basically, any point in time, the amount of CHA\n    //     // entitled to a user but is pending to be distributed is:\n    //     //\n    //     //   pending reward = (user.amount * accChaPerShare) - user.rewardDebt\n    //     //\n    //     // Whenever a user deposits or withdraws LP tokens to a pool. Here's what happens:\n    //     //   1. The pool's `accChaPerShare` (and `lastRewardBlock`) gets updated.\n    //     //   2. User receives the pending reward sent to his/her address.\n    //     //   3. User's `amount` gets updated.\n    //     //   4. User's `rewardDebt` gets updated.\n    // }\n\n    struct InviteInfo {\n        address parent;\n        uint256 totalPower;\n    }\n\n    // Miner information describe miner. One should has many Miners;\n    struct MinerInfo {\n        uint256 amount; // \n        uint256 power; // \n        uint256 endBlock; // block\n        uint256 rewardDebt; // Reward debt. See explanation below.\n        uint256 nft1;\n        uint256 nft2;\n        uint256 nft3;\n    }\n    // Info of each pool. pool is set manully.\n    struct PoolInfo {\n        IERC20 lpToken; // Address of LP token contract.\n        IERC20 lpToken2; // Address of LP token contract.\n        bool isLp; // if isLp is true we should have a usdt token.\n        uint32 timeBlocks; // timeBlocks;\n        uint32 amountRate; // The amount rate for token 2, times 1000.\n        uint256 powerRate; // The power rate assigned to this pool. times 1000.\n    }\n    \n    IERC721Card public nftToken;\n    uint256 public lastRewardBlock; // Last block number that CHAs distribution occurs.\n    uint256 public accChaPerShare; // Accumulated CHAs per share, times 1e12. See below.\n    // Total power\n    uint256 public totalPower;\n    uint16[] public nftRate = [1000, 2000, 3000]; // times 1000\n\n    // Invite\n    bool public inviteForce = true;\n    uint8 public maxInviteLayer = 5;\n    // The CHA TOKEN!\n    IERC20 public panToken;\n    // Dev address.\n    address public devaddr;\n    address public blackholeAddress;\n    address public airdropAddress;\n    // address public liquidAddress;\n    // Block number when bonus CHA period ends.\n    // uint256 public bonusEndBlock;\n    // Total reward for miner\n    uint256 public totalReward;\n    // Total released reward\n    uint256 public releasedReward;\n    // CHA tokens created per block.\n    uint256 public chaPerBlock;\n    // Bonus muliplier for early panToken makers.\n    uint256 public constant BONUS_MULTIPLIER = 10;\n    // The migrator contract. It has a lot of power. Can only be set through governance (owner).\n    // IMigratorChef public migrator;\n    // Info of each pool.\n    PoolInfo[] public poolInfo;\n    // Info of each user that stakes LP tokens.\n    mapping(address => uint256) public userPower;\n    mapping(address => uint256) public groupPower;\n    mapping(address => address) public userParent;\n    mapping(address => uint8) public userLevel;\n    mapping(address => uint256) public inviteReward;\n    // mapping(uint8 => mapping(uint8 => uint8)) memory inviteRatio;\n    uint8[][] inviteRatio = [[0,0,0,0,0],[15,12,0,0,0],[20,15,10,0,0],[22,18,16,14,12]];\n    mapping(uint256 => mapping(address => MinerInfo)) public minerInfo;\n    // Total allocation poitns. Must be the sum of all allocation points in all pools.\n    uint256 public totalAllocPoint = 0;\n    // The block number when CHA mining starts.\n    uint256 public startBlock;\n    event Deposit(address indexed user, uint256 indexed pid, uint256 amount);\n    event DepositWithNFT(address indexed user, uint256 indexed pid, uint256 amount,\n        uint16 nft1, uint16 nft2, uint16 nft3);\n    event Withdraw(address indexed user, uint256 indexed pid, uint256 amount);\n    event Harvest(address indexed user, uint256 indexed pid, uint256 amount);\n    event EmergencyWithdraw(\n        address indexed user,\n        uint256 indexed pid,\n        uint256 amount\n    );\n\n    constructor(\n        IERC20 _chaAddress,\n        IERC721Card _nftAddress,\n        address initInviteAddress,\n        address _blackholeAddress,\n        address _airdropAddress,\n        // address _liquidAddress,\n        uint256 _chaPerBlock,\n        uint256 _startBlock,\n        uint256 _totalReward\n    ) {\n        panToken = _chaAddress;\n        blackholeAddress = _blackholeAddress;\n        airdropAddress = _airdropAddress;\n        // liquidAddress = _liquidAddress;\n        chaPerBlock = _chaPerBlock;\n        // bonusEndBlock = _bonusEndBlock;\n        startBlock = _startBlock;\n        totalReward = _totalReward;\n        nftToken = IERC721Card(_nftAddress);\n        lastRewardBlock =\n            block.number > startBlock ? block.number : startBlock;\n        // totalAllocPoint = totalAllocPoint.add(_allocPoint);\n        userParent[initInviteAddress] = msg.sender;\n        totalPower = 0;\n    }\n\n    // function totalReward() external view returns (uint256) {\n    //     return totalReward;\n    // }\n\n    // function releasedReward() external view returns (uint256) {\n    //     return releasedReward;\n    // }\n\n    function releaseReward2() external view returns (uint256) {\n        return totalPower.mul(accChaPerShare).div(1e12);\n    }\n\n    function remainReward() external view returns (uint256) {\n        return totalReward - releasedReward;\n    }\n\n    function poolLength() external view returns (uint256) {\n        return poolInfo.length;\n    }\n\n    // Add a new lp to the pool. Can only be called by the owner.\n    // XXX DO NOT add the same LP token more than once. Rewards will be messed up if you do.\n    function addPool(\n        uint256 _powerRate,\n        uint32 _amountRate,\n        IERC20 _token,\n        IERC20 _token2,\n        bool _isLp,\n        uint32 timeBlocks,\n        bool _withUpdate\n    ) public onlyOwner {\n        if (_withUpdate) {\n            updateReward();\n        }\n        \n        poolInfo.push(\n            PoolInfo({\n                lpToken: _token,\n                lpToken2: _token2,\n                isLp: _isLp,\n                timeBlocks: timeBlocks,\n                powerRate: _powerRate,\n                amountRate: _amountRate\n            })\n        );\n    }\n\n    // Update the given pool's CHA power rate. Can only be called by the owner.\n    function setPool(\n        uint256 _pid,\n        uint256 _powerRate,\n        bool _withUpdate\n    ) public onlyOwner {\n        if (_withUpdate) {\n            updateReward();\n        }\n        poolInfo[_pid].powerRate = _powerRate;\n    }\n\n    function setInvite(\n        address parent\n    ) public {\n        require(userParent[msg.sender] == address(0), \"You already be invited.\");\n        require(userParent[parent] != address(0), \"Parent should be invite first.\");\n        require(parent != msg.sender, \"You cannot invite yourself.\");\n        userParent[msg.sender] = parent;\n    }\n\n    function setInviteEnable(\n        bool enable\n    ) public {\n        inviteForce = enable;\n    }\n\n    function setMaxInviteLayer(uint8 layer) public {\n        maxInviteLayer = layer;\n    }\n\n    // Set the migrator contract. Can only be called by the owner.\n    // function setMigrator(IMigratorChef _migrator) public onlyOwner {\n    //     migrator = _migrator;\n    // }\n\n    // // Migrate lp token to another lp contract. Can be called by anyone. We trust that migrator contract is good.\n    // function migrate(uint256 _pid) public {\n    //     require(address(migrator) != address(0), \"migrate: no migrator\");\n    //     PoolInfo storage pool = poolInfo[_pid];\n    //     IERC20 lpToken = pool.lpToken;\n    //     uint256 bal = lpToken.balanceOf(address(this));\n    //     lpToken.safeApprove(address(migrator), bal);\n    //     IERC20 newLpToken = migrator.migrate(lpToken);\n    //     require(bal == newLpToken.balanceOf(address(this)), \"migrate: bad\");\n    //     pool.lpToken = newLpToken;\n    // }\n    function getInviteInfo(address addr) public view returns (uint16, uint256, uint256, uint256, address){\n        return (userLevel[addr],userPower[addr], groupPower[addr], inviteReward[addr], userParent[addr]);\n    }\n    // Return reward multiplier over the given _from to _to block.\n    function getMultiplier(uint256 _from, uint256 _to)\n        public\n        pure\n        returns (uint256)\n    {\n        return _to.sub(_from);\n        // if (_to <= bonusEndBlock) {\n        //     return _to.sub(_from).mul(BONUS_MULTIPLIER);\n        // } else if (_from >= bonusEndBlock) {\n        //     return _to.sub(_from);\n        // } else {\n        //     return\n        //         bonusEndBlock.sub(_from).mul(BONUS_MULTIPLIER).add(\n        //             _to.sub(bonusEndBlock)\n        //         );\n        // }\n    }\n\n    // View function to see pending CHA on frontend.\n    function pendingReward(uint256 _pid, address _user)\n        external\n        view\n        returns (uint256)\n    {\n        // PoolInfo storage pool = poolInfo[_pid];\n        MinerInfo storage miner = minerInfo[_pid][_user];\n        uint256 accCha = accChaPerShare;\n        uint256 endBlock = block.number;\n        if (block.number > miner.endBlock) {\n            endBlock = miner.endBlock;\n        }\n        if (endBlock > lastRewardBlock && totalPower != 0) {\n            uint256 multiplier =\n                getMultiplier(lastRewardBlock, endBlock);\n            uint256 chaReward = multiplier.mul(chaPerBlock);\n            accCha = accCha.add(\n                chaReward.mul(1e12).div(totalPower)\n            );\n            return miner.power.mul(accCha).div(1e12).sub(miner.rewardDebt);\n        }\n        return 0;\n    }\n\n    // Update reward vairables for all pools. Be careful of gas spending!\n    // function updateReward() public {\n    //     uint256 length = poolInfo.length;\n    //     for (uint256 pid = 0; pid < length; ++pid) {\n    //         updateReward(pid);\n    //     }\n    // }\n\n    // Update reward variables of the given pool to be up-to-date.\n    function updateReward() public {\n        // PoolInfo storage pool = poolInfo[_pid];\n        // uint256 remain = panToken.balanceOf(address(this));\n        uint256 remain = totalReward.sub(releasedReward);\n        if (block.number <= lastRewardBlock && remain <= 0) {\n            return;\n        }\n        if (totalPower == 0) {\n            lastRewardBlock = block.number;\n            return;\n        }\n        require(lastRewardBlock<=block.number, \"lastRewardBlock not valid\");\n        uint256 multiplier = getMultiplier(lastRewardBlock, block.number);\n        uint256 chaReward = multiplier.mul(chaPerBlock);\n        // panToken.mint(devaddr, chaReward.div(10));\n        // panToken.mint(address(this), chaReward);\n        if ( remain < chaReward ) {\n            chaReward = remain;\n        }\n        releasedReward  = releasedReward.add(chaReward);\n        accChaPerShare = accChaPerShare.add(\n            chaReward.mul(1e12).div(totalPower)\n        );\n        lastRewardBlock = block.number;\n    }\n\n\n    // Deposit LP tokens to BeanPool for CHA allocation.\n    function deposit(uint256 _pid, uint256 _amount) public returns (bool){\n        PoolInfo storage pool = poolInfo[_pid];\n        MinerInfo memory miner = minerInfo[_pid][msg.sender];\n        updateReward();\n        if (inviteForce == true) {\n            require(userParent[msg.sender] != address(0), \"You need be invited first.\");\n        }\n        if (miner.amount > 0) {\n            uint256 pending =\n                miner.power.mul(accChaPerShare).div(1e12).sub(\n                    miner.rewardDebt\n                );\n            safeChaTransfer(msg.sender, pending);\n        }\n        // pool.lpToken.approve(address(this), _amount);\n        pool.lpToken.transferFrom(\n            address(msg.sender),\n            address(this),\n            _amount\n        );\n        if (pool.isLp) {\n            pool.lpToken2.safeTransferFrom(\n                address(msg.sender),\n                address(this),\n                _amount.mul(pool.amountRate).div(1000)\n            );\n        }\n        miner.amount = miner.amount.add(_amount);\n        uint256 power = _amount.mul(pool.powerRate).div(1000);\n        miner.power = miner.power.add(power);\n        totalPower = totalPower.add(power);\n        upGroupPower(msg.sender, power);\n        userPower[msg.sender] = userPower[msg.sender].add(power);\n        uint256 blockNumber = block.number;\n        miner.endBlock = blockNumber.add(pool.timeBlocks); // * 24 * 1200;\n        userLevel[msg.sender] = getUserLevel(userPower[msg.sender]);\n        miner.rewardDebt = miner.power.mul(accChaPerShare).div(1e12);\n        minerInfo[_pid][msg.sender] = miner;\n        emit Deposit(msg.sender, _pid, _amount);\n        return true;\n    }\n\n    // Deposit LP tokens to BeanPool for CHA allocation.\n    function depositWithNFT(uint256 _pid, uint256 _amount, uint16 nft1, uint16 nft2, uint16 nft3) public {\n        PoolInfo storage pool = poolInfo[_pid];\n        MinerInfo memory miner = minerInfo[_pid][msg.sender];\n        // require(miner.amount == 0, \"You already depsoit this pool.\");\n        updateReward();\n        if (miner.amount > 0) {\n            uint256 pending =\n                miner.power.mul(accChaPerShare).div(1e12).sub(\n                    miner.rewardDebt\n                );\n            safeChaTransfer(msg.sender, pending);\n        }\n        pool.lpToken.transferFrom(\n            address(msg.sender),\n            address(this),\n            _amount\n        );\n        if (pool.isLp) {\n            pool.lpToken2.transferFrom(\n                address(msg.sender),\n                address(this),\n                _amount.mul(pool.amountRate).div(1000)\n            );\n        }\n        miner.amount = miner.amount.add(_amount);\n        uint256 level;\n        uint256 level2;\n        uint256 level3;\n        uint256 rate = pool.powerRate;\n        if (nft1 > 0 && nftToken.ownerOf(nft1) == msg.sender) {\n            level = nftToken.levelOf(nft1);\n            rate += pool.powerRate * nftRate[level] / 1000;\n            nftToken.safeTransferFrom(msg.sender, address(this), nft1);\n        }\n        if (nft2 > 0 && nftToken.ownerOf(nft2) == msg.sender) {\n            level2 = nftToken.levelOf(nft2);\n            rate += pool.powerRate * nftRate[level2] / 1000;\n            nftToken.safeTransferFrom(msg.sender, address(this), nft2);\n        }\n        if (nft3 > 0 && nftToken.ownerOf(nft3) == msg.sender) {\n            level3 = nftToken.levelOf(nft3);\n            rate += pool.powerRate * nftRate[level3] / 1000;\n            nftToken.safeTransferFrom(msg.sender, address(this), nft3);\n        }\n        // \n        if(level == 2 && level == level2 && level2 == level3) {\n            rate += pool.powerRate * 5000/1000;\n        }\n        uint256 power = _amount.mul(rate).div(1000);\n        miner.power = miner.power.add(power);\n        totalPower = totalPower.add(power);\n        upGroupPower(msg.sender, power);\n        userPower[msg.sender] = userPower[msg.sender].add(power);\n        uint256 blockNumber = block.number;\n        miner.endBlock = blockNumber.add(pool.timeBlocks);\n        miner.nft1 = uint16(nft1);\n        miner.nft2 = uint16(nft2);\n        miner.nft3 = uint16(nft3);\n        userLevel[msg.sender] = getUserLevel(userPower[msg.sender]);\n        miner.rewardDebt = miner.power.mul(accChaPerShare).div(1e12);\n        minerInfo[_pid][msg.sender] = miner;\n        emit DepositWithNFT(msg.sender, _pid, _amount, nft1, nft2, nft3);\n    }\n    function getUserLevel(uint256 power) private pure returns(uint8){\n        uint8 level;\n        power = power.div(1e18);\n        level = 0;\n        if (power >= 3000) {\n            level = 3;\n        } else if (power >= 2000) {\n            level = 2;\n        } else if (power >= 1000) {\n            level = 1;\n        }\n        return level;\n    }\n    // // Get a random 100\n    // Get a random 100\n    function random() private view returns (uint8) {\n        return uint8(uint256(keccak256(abi.encodePacked(block.timestamp, block.difficulty)))%100);\n    }\n    // harvest LP tokens from BeanPool.\n    function harvest(uint256 _pid) public {\n        // PoolInfo storage pool = poolInfo[_pid];\n        MinerInfo storage miner = minerInfo[_pid][msg.sender];\n        updateReward();\n        uint256 pending =\n            miner.power.mul(accChaPerShare).div(1e12).sub(\n                miner.rewardDebt\n            );\n        require(pending > 0, \"harvest: none reward\");\n        safeChaTransfer(msg.sender, pending);\n        miner.rewardDebt = miner.power.mul(accChaPerShare).div(1e12);\n        emit Harvest(msg.sender, _pid, pending);\n    }\n\n    // Withdraw LP tokens from BeanPool.\n    function withdraw(uint256 _pid, uint256 _amount) public {\n        PoolInfo storage pool = poolInfo[_pid];\n        MinerInfo storage miner = minerInfo[_pid][msg.sender];\n        require(miner.amount >= _amount, \"withdraw: not good\");\n        require(accChaPerShare > 0, \"accChaPerShare should not be zero\");\n        require(miner.endBlock <= block.number, \"Cannot withdraw with days limit.\");\n        updateReward();\n        if (miner.amount.mul(accChaPerShare).div(1e12) > miner.rewardDebt) {\n            uint256 pending = miner.amount.mul(accChaPerShare).div(1e12).sub(\n                miner.rewardDebt\n            );\n            safeChaTransfer(msg.sender, pending);\n        }\n        \n        if (pool.isLp) {\n            pool.lpToken2.transfer(\n                msg.sender,\n                miner.amount.mul(pool.amountRate).div(1000)\n            );\n        }\n\n        // miner.rewardDebt = miner.power.mul(accChaPerShare).div(1e12);\n        // userLevel[msg.sender] = getUserLevel(userPower[msg.sender]);\n        pool.lpToken.transfer(address(msg.sender), _amount);\n\n        if (miner.nft1 > 0) {\n            nftToken.safeTransferFrom(address(this), msg.sender, miner.nft1);\n        }\n        if (miner.nft2 > 0) {\n            nftToken.safeTransferFrom(address(this), msg.sender, miner.nft2);\n        }\n        if (miner.nft3 > 0) {\n            nftToken.safeTransferFrom(address(this), msg.sender, miner.nft3);\n        }\n\n        // reduce power\n        // uint256 power = miner.power.mul(_amount).div(miner.amount);\n        totalPower = totalPower.sub(miner.power);\n        downGroupPower(msg.sender, miner.power);\n\n        userPower[msg.sender] = userPower[msg.sender].sub(miner.power);\n        //  reduce amount\n        miner.power = 0;\n        miner.amount = 0;\n        miner.nft1 = 0;\n        miner.nft2 = 0;\n        miner.nft3 = 0;\n        miner.rewardDebt = 0;\n        // minerInfo[_pid][msg.sender] = 0;\n\n        emit Withdraw(msg.sender, _pid, _amount);\n    }\n\n    function calculeInviteReward(address child, uint256 total) private {\n\n        for(uint8 layer=0; layer< maxInviteLayer; layer++) {\n            address parent = userParent[child];\n            if (parent == address(0) || parent == child)\n                return;\n            uint8 level = userLevel[parent];\n            uint8 ratio = inviteRatio[level][layer];\n            if (ratio <= 0) {\n                return ;\n            }\n            uint256 reward = total.mul(ratio).div(100);\n            inviteReward[parent] = inviteReward[parent].add(reward);\n            child = parent;\n        }\n    }\n\n    function upGroupPower(address child, uint256 power) private {\n\n        for(uint8 layer=0; layer< maxInviteLayer; layer++) {\n            address parent = userParent[child];\n            if (parent == address(0) || parent == child)\n                return;\n            groupPower[parent] = groupPower[parent].add(power);\n            child = parent;\n        }\n    }\n\n    function downGroupPower(address child, uint256 power) private {\n\n        for(uint8 layer=0; layer< maxInviteLayer; layer++) {\n            address parent = userParent[child];\n            if (parent == address(0) || parent == child)\n                return;\n            groupPower[parent] = groupPower[parent].sub(power);\n            child = parent;\n        }\n    }\n\n    // Withdraw without caring about rewards. EMERGENCY ONLY.\n    function emergencyWithdraw(uint256 _pid) public {\n        PoolInfo storage pool = poolInfo[_pid];\n        MinerInfo storage miner = minerInfo[_pid][msg.sender];\n        require(miner.endBlock < block.number, \"Cannot withdraw with days limit.\");\n        pool.lpToken.safeTransfer(address(msg.sender), miner.amount);\n        if (pool.isLp) {\n            pool.lpToken2.transfer(\n                msg.sender,\n                miner.amount.mul(pool.amountRate).div(1000)\n            );\n        }\n        emit EmergencyWithdraw(msg.sender, _pid, miner.amount);\n        userPower[msg.sender] = userPower[msg.sender].sub(miner.power);\n        userLevel[msg.sender] = getUserLevel(userPower[msg.sender]);\n        totalPower = totalPower.sub(miner.power);\n        downGroupPower(msg.sender, miner.power);\n        miner.amount = 0;\n        miner.rewardDebt = 0;\n        miner.power = 0;\n    }\n\n    // Safe panToken transfer function, just in case if rounding error causes pool to not have enough CHA.\n    function safeChaTransfer(address _to, uint256 _amount) internal {\n        uint256 chaBal = panToken.balanceOf(address(this));\n        if (_amount > chaBal) {\n            _amount = chaBal;\n        }\n        panToken.transfer(blackholeAddress, _amount.mul(2).div(100));\n        panToken.transfer(airdropAddress, _amount.mul(10).div(100));\n        // panToken.transfer(liquidAddress, _amount.mul(4).div(100));\n        panToken.transfer(_to, _amount.sub(_amount.mul(12).div(100)));\n        if(inviteForce)\n           calculeInviteReward(_to, _amount);\n    }\n}",
  "sourcePath": "/Users/jilong/solidity/pantheonNFT/contracts/BeanPool.sol",
  "compiler": {
    "name": "solc",
    "version": "0.8.6+commit.11564f7e.Emscripten.clang"
  },
  "schemaVersion": "3.4.3",
  "updatedAt": "2021-09-24T13:29:47.261Z",
  "networkType": "ethereum",
  "devdoc": {
    "kind": "dev",
    "methods": {
      "onERC721Received(address,address,uint256,bytes)": {
        "details": "See {IERC721Receiver-onERC721Received}. Always returns `IERC721Receiver.onERC721Received.selector`."
      },
      "owner()": {
        "details": "Returns the address of the current owner."
      },
      "renounceOwnership()": {
        "details": "Leaves the contract without owner. It will not be possible to call `onlyOwner` functions anymore. Can only be called by the current owner. NOTE: Renouncing ownership will leave the contract without an owner, thereby removing any functionality that is only available to the owner."
      },
      "transferOwnership(address)": {
        "details": "Transfers ownership of the contract to a new account (`newOwner`). Can only be called by the current owner."
      }
    },
    "version": 1
  },
  "userdoc": {
    "kind": "user",
    "methods": {},
    "version": 1
  }
}