{
  "contractName": "BeanPool",
  "abi": [
    {
      "inputs": [
        {
          "internalType": "contract IERC20",
          "name": "_chaAddress",
          "type": "address"
        },
        {
          "internalType": "contract IERC721Card",
          "name": "_nftAddress",
          "type": "address"
        },
        {
          "internalType": "address",
          "name": "initInviteAddress",
          "type": "address"
        },
        {
          "internalType": "address",
          "name": "_blackholeAddress",
          "type": "address"
        },
        {
          "internalType": "address",
          "name": "_airdropAddress",
          "type": "address"
        },
        {
          "internalType": "uint256",
          "name": "_chaPerBlock",
          "type": "uint256"
        },
        {
          "internalType": "uint256",
          "name": "_startBlock",
          "type": "uint256"
        },
        {
          "internalType": "uint256",
          "name": "_totalReward",
          "type": "uint256"
        }
      ],
      "stateMutability": "nonpayable",
      "type": "constructor"
    },
    {
      "anonymous": false,
      "inputs": [
        {
          "indexed": true,
          "internalType": "address",
          "name": "user",
          "type": "address"
        },
        {
          "indexed": true,
          "internalType": "uint256",
          "name": "pid",
          "type": "uint256"
        },
        {
          "indexed": false,
          "internalType": "uint256",
          "name": "amount",
          "type": "uint256"
        }
      ],
      "name": "Deposit",
      "type": "event"
    },
    {
      "anonymous": false,
      "inputs": [
        {
          "indexed": true,
          "internalType": "address",
          "name": "user",
          "type": "address"
        },
        {
          "indexed": true,
          "internalType": "uint256",
          "name": "pid",
          "type": "uint256"
        },
        {
          "indexed": false,
          "internalType": "uint256",
          "name": "amount",
          "type": "uint256"
        },
        {
          "indexed": false,
          "internalType": "uint16",
          "name": "nft1",
          "type": "uint16"
        },
        {
          "indexed": false,
          "internalType": "uint16",
          "name": "nft2",
          "type": "uint16"
        },
        {
          "indexed": false,
          "internalType": "uint16",
          "name": "nft3",
          "type": "uint16"
        }
      ],
      "name": "DepositWithNFT",
      "type": "event"
    },
    {
      "anonymous": false,
      "inputs": [
        {
          "indexed": true,
          "internalType": "address",
          "name": "user",
          "type": "address"
        },
        {
          "indexed": true,
          "internalType": "uint256",
          "name": "pid",
          "type": "uint256"
        },
        {
          "indexed": false,
          "internalType": "uint256",
          "name": "amount",
          "type": "uint256"
        }
      ],
      "name": "EmergencyWithdraw",
      "type": "event"
    },
    {
      "anonymous": false,
      "inputs": [
        {
          "indexed": true,
          "internalType": "address",
          "name": "user",
          "type": "address"
        },
        {
          "indexed": true,
          "internalType": "uint256",
          "name": "pid",
          "type": "uint256"
        },
        {
          "indexed": false,
          "internalType": "uint256",
          "name": "amount",
          "type": "uint256"
        }
      ],
      "name": "Harvest",
      "type": "event"
    },
    {
      "anonymous": false,
      "inputs": [
        {
          "indexed": true,
          "internalType": "address",
          "name": "previousOwner",
          "type": "address"
        },
        {
          "indexed": true,
          "internalType": "address",
          "name": "newOwner",
          "type": "address"
        }
      ],
      "name": "OwnershipTransferred",
      "type": "event"
    },
    {
      "anonymous": false,
      "inputs": [
        {
          "indexed": true,
          "internalType": "address",
          "name": "user",
          "type": "address"
        },
        {
          "indexed": true,
          "internalType": "uint256",
          "name": "pid",
          "type": "uint256"
        },
        {
          "indexed": false,
          "internalType": "uint256",
          "name": "amount",
          "type": "uint256"
        }
      ],
      "name": "Withdraw",
      "type": "event"
    },
    {
      "inputs": [],
      "name": "BONUS_MULTIPLIER",
      "outputs": [
        {
          "internalType": "uint256",
          "name": "",
          "type": "uint256"
        }
      ],
      "stateMutability": "view",
      "type": "function"
    },
    {
      "inputs": [],
      "name": "accChaPerShare",
      "outputs": [
        {
          "internalType": "uint256",
          "name": "",
          "type": "uint256"
        }
      ],
      "stateMutability": "view",
      "type": "function"
    },
    {
      "inputs": [],
      "name": "airdropAddress",
      "outputs": [
        {
          "internalType": "address",
          "name": "",
          "type": "address"
        }
      ],
      "stateMutability": "view",
      "type": "function"
    },
    {
      "inputs": [],
      "name": "blackholeAddress",
      "outputs": [
        {
          "internalType": "address",
          "name": "",
          "type": "address"
        }
      ],
      "stateMutability": "view",
      "type": "function"
    },
    {
      "inputs": [],
      "name": "chaPerBlock",
      "outputs": [
        {
          "internalType": "uint256",
          "name": "",
          "type": "uint256"
        }
      ],
      "stateMutability": "view",
      "type": "function"
    },
    {
      "inputs": [],
      "name": "devaddr",
      "outputs": [
        {
          "internalType": "address",
          "name": "",
          "type": "address"
        }
      ],
      "stateMutability": "view",
      "type": "function"
    },
    {
      "inputs": [],
      "name": "inviteForce",
      "outputs": [
        {
          "internalType": "bool",
          "name": "",
          "type": "bool"
        }
      ],
      "stateMutability": "view",
      "type": "function"
    },
    {
      "inputs": [
        {
          "internalType": "address",
          "name": "",
          "type": "address"
        }
      ],
      "name": "inviteReward",
      "outputs": [
        {
          "internalType": "uint256",
          "name": "",
          "type": "uint256"
        }
      ],
      "stateMutability": "view",
      "type": "function"
    },
    {
      "inputs": [],
      "name": "lastRewardBlock",
      "outputs": [
        {
          "internalType": "uint256",
          "name": "",
          "type": "uint256"
        }
      ],
      "stateMutability": "view",
      "type": "function"
    },
    {
      "inputs": [],
      "name": "maxInviteLayer",
      "outputs": [
        {
          "internalType": "uint8",
          "name": "",
          "type": "uint8"
        }
      ],
      "stateMutability": "view",
      "type": "function"
    },
    {
      "inputs": [
        {
          "internalType": "uint256",
          "name": "",
          "type": "uint256"
        },
        {
          "internalType": "address",
          "name": "",
          "type": "address"
        }
      ],
      "name": "minerInfo",
      "outputs": [
        {
          "internalType": "uint256",
          "name": "amount",
          "type": "uint256"
        },
        {
          "internalType": "uint256",
          "name": "power",
          "type": "uint256"
        },
        {
          "internalType": "uint256",
          "name": "endBlock",
          "type": "uint256"
        },
        {
          "internalType": "uint256",
          "name": "rewardDebt",
          "type": "uint256"
        },
        {
          "internalType": "uint256",
          "name": "nft1",
          "type": "uint256"
        },
        {
          "internalType": "uint256",
          "name": "nft2",
          "type": "uint256"
        },
        {
          "internalType": "uint256",
          "name": "nft3",
          "type": "uint256"
        }
      ],
      "stateMutability": "view",
      "type": "function"
    },
    {
      "inputs": [
        {
          "internalType": "uint256",
          "name": "",
          "type": "uint256"
        }
      ],
      "name": "nftRate",
      "outputs": [
        {
          "internalType": "uint16",
          "name": "",
          "type": "uint16"
        }
      ],
      "stateMutability": "view",
      "type": "function"
    },
    {
      "inputs": [],
      "name": "nftToken",
      "outputs": [
        {
          "internalType": "contract IERC721Card",
          "name": "",
          "type": "address"
        }
      ],
      "stateMutability": "view",
      "type": "function"
    },
    {
      "inputs": [
        {
          "internalType": "address",
          "name": "",
          "type": "address"
        },
        {
          "internalType": "address",
          "name": "",
          "type": "address"
        },
        {
          "internalType": "uint256",
          "name": "",
          "type": "uint256"
        },
        {
          "internalType": "bytes",
          "name": "",
          "type": "bytes"
        }
      ],
      "name": "onERC721Received",
      "outputs": [
        {
          "internalType": "bytes4",
          "name": "",
          "type": "bytes4"
        }
      ],
      "stateMutability": "nonpayable",
      "type": "function"
    },
    {
      "inputs": [],
      "name": "owner",
      "outputs": [
        {
          "internalType": "address",
          "name": "",
          "type": "address"
        }
      ],
      "stateMutability": "view",
      "type": "function"
    },
    {
      "inputs": [],
      "name": "panToken",
      "outputs": [
        {
          "internalType": "contract IERC20",
          "name": "",
          "type": "address"
        }
      ],
      "stateMutability": "view",
      "type": "function"
    },
    {
      "inputs": [
        {
          "internalType": "uint256",
          "name": "",
          "type": "uint256"
        }
      ],
      "name": "poolInfo",
      "outputs": [
        {
          "internalType": "contract IERC20",
          "name": "lpToken",
          "type": "address"
        },
        {
          "internalType": "contract IERC20",
          "name": "lpToken2",
          "type": "address"
        },
        {
          "internalType": "bool",
          "name": "isLp",
          "type": "bool"
        },
        {
          "internalType": "uint32",
          "name": "timeBlocks",
          "type": "uint32"
        },
        {
          "internalType": "uint32",
          "name": "amountRate",
          "type": "uint32"
        },
        {
          "internalType": "uint256",
          "name": "powerRate",
          "type": "uint256"
        }
      ],
      "stateMutability": "view",
      "type": "function"
    },
    {
      "inputs": [],
      "name": "releasedReward",
      "outputs": [
        {
          "internalType": "uint256",
          "name": "",
          "type": "uint256"
        }
      ],
      "stateMutability": "view",
      "type": "function"
    },
    {
      "inputs": [],
      "name": "renounceOwnership",
      "outputs": [],
      "stateMutability": "nonpayable",
      "type": "function"
    },
    {
      "inputs": [],
      "name": "startBlock",
      "outputs": [
        {
          "internalType": "uint256",
          "name": "",
          "type": "uint256"
        }
      ],
      "stateMutability": "view",
      "type": "function"
    },
    {
      "inputs": [],
      "name": "totalAllocPoint",
      "outputs": [
        {
          "internalType": "uint256",
          "name": "",
          "type": "uint256"
        }
      ],
      "stateMutability": "view",
      "type": "function"
    },
    {
      "inputs": [],
      "name": "totalPower",
      "outputs": [
        {
          "internalType": "uint256",
          "name": "",
          "type": "uint256"
        }
      ],
      "stateMutability": "view",
      "type": "function"
    },
    {
      "inputs": [],
      "name": "totalReward",
      "outputs": [
        {
          "internalType": "uint256",
          "name": "",
          "type": "uint256"
        }
      ],
      "stateMutability": "view",
      "type": "function"
    },
    {
      "inputs": [
        {
          "internalType": "address",
          "name": "newOwner",
          "type": "address"
        }
      ],
      "name": "transferOwnership",
      "outputs": [],
      "stateMutability": "nonpayable",
      "type": "function"
    },
    {
      "inputs": [
        {
          "internalType": "address",
          "name": "",
          "type": "address"
        }
      ],
      "name": "userLevel",
      "outputs": [
        {
          "internalType": "uint8",
          "name": "",
          "type": "uint8"
        }
      ],
      "stateMutability": "view",
      "type": "function"
    },
    {
      "inputs": [
        {
          "internalType": "address",
          "name": "",
          "type": "address"
        }
      ],
      "name": "userParent",
      "outputs": [
        {
          "internalType": "address",
          "name": "",
          "type": "address"
        }
      ],
      "stateMutability": "view",
      "type": "function"
    },
    {
      "inputs": [
        {
          "internalType": "address",
          "name": "",
          "type": "address"
        }
      ],
      "name": "userPower",
      "outputs": [
        {
          "internalType": "uint256",
          "name": "",
          "type": "uint256"
        }
      ],
      "stateMutability": "view",
      "type": "function"
    },
    {
      "inputs": [],
      "name": "releaseReward2",
      "outputs": [
        {
          "internalType": "uint256",
          "name": "",
          "type": "uint256"
        }
      ],
      "stateMutability": "view",
      "type": "function"
    },
    {
      "inputs": [],
      "name": "remainReward",
      "outputs": [
        {
          "internalType": "uint256",
          "name": "",
          "type": "uint256"
        }
      ],
      "stateMutability": "view",
      "type": "function"
    },
    {
      "inputs": [],
      "name": "poolLength",
      "outputs": [
        {
          "internalType": "uint256",
          "name": "",
          "type": "uint256"
        }
      ],
      "stateMutability": "view",
      "type": "function"
    },
    {
      "inputs": [
        {
          "internalType": "uint256",
          "name": "_powerRate",
          "type": "uint256"
        },
        {
          "internalType": "uint32",
          "name": "_amountRate",
          "type": "uint32"
        },
        {
          "internalType": "contract IERC20",
          "name": "_token",
          "type": "address"
        },
        {
          "internalType": "contract IERC20",
          "name": "_token2",
          "type": "address"
        },
        {
          "internalType": "bool",
          "name": "_isLp",
          "type": "bool"
        },
        {
          "internalType": "uint32",
          "name": "timeBlocks",
          "type": "uint32"
        },
        {
          "internalType": "bool",
          "name": "_withUpdate",
          "type": "bool"
        }
      ],
      "name": "addPool",
      "outputs": [],
      "stateMutability": "nonpayable",
      "type": "function"
    },
    {
      "inputs": [
        {
          "internalType": "uint256",
          "name": "_pid",
          "type": "uint256"
        },
        {
          "internalType": "uint256",
          "name": "_powerRate",
          "type": "uint256"
        },
        {
          "internalType": "bool",
          "name": "_withUpdate",
          "type": "bool"
        }
      ],
      "name": "setPool",
      "outputs": [],
      "stateMutability": "nonpayable",
      "type": "function"
    },
    {
      "inputs": [
        {
          "internalType": "address",
          "name": "parent",
          "type": "address"
        }
      ],
      "name": "setInvite",
      "outputs": [],
      "stateMutability": "nonpayable",
      "type": "function"
    },
    {
      "inputs": [
        {
          "internalType": "bool",
          "name": "enable",
          "type": "bool"
        }
      ],
      "name": "setInviteEnable",
      "outputs": [],
      "stateMutability": "nonpayable",
      "type": "function"
    },
    {
      "inputs": [
        {
          "internalType": "uint8",
          "name": "layer",
          "type": "uint8"
        }
      ],
      "name": "setMaxInviteLayer",
      "outputs": [],
      "stateMutability": "nonpayable",
      "type": "function"
    },
    {
      "inputs": [
        {
          "internalType": "address",
          "name": "addr",
          "type": "address"
        }
      ],
      "name": "getInviteInfo",
      "outputs": [
        {
          "internalType": "uint16",
          "name": "",
          "type": "uint16"
        },
        {
          "internalType": "uint256",
          "name": "",
          "type": "uint256"
        },
        {
          "internalType": "uint256",
          "name": "",
          "type": "uint256"
        },
        {
          "internalType": "address",
          "name": "",
          "type": "address"
        }
      ],
      "stateMutability": "view",
      "type": "function"
    },
    {
      "inputs": [
        {
          "internalType": "uint256",
          "name": "_from",
          "type": "uint256"
        },
        {
          "internalType": "uint256",
          "name": "_to",
          "type": "uint256"
        }
      ],
      "name": "getMultiplier",
      "outputs": [
        {
          "internalType": "uint256",
          "name": "",
          "type": "uint256"
        }
      ],
      "stateMutability": "pure",
      "type": "function"
    },
    {
      "inputs": [
        {
          "internalType": "uint256",
          "name": "_pid",
          "type": "uint256"
        },
        {
          "internalType": "address",
          "name": "_user",
          "type": "address"
        }
      ],
      "name": "pendingReward",
      "outputs": [
        {
          "internalType": "uint256",
          "name": "",
          "type": "uint256"
        }
      ],
      "stateMutability": "view",
      "type": "function"
    },
    {
      "inputs": [],
      "name": "updateReward",
      "outputs": [],
      "stateMutability": "nonpayable",
      "type": "function"
    },
    {
      "inputs": [
        {
          "internalType": "uint256",
          "name": "_pid",
          "type": "uint256"
        },
        {
          "internalType": "uint256",
          "name": "_amount",
          "type": "uint256"
        }
      ],
      "name": "deposit",
      "outputs": [
        {
          "internalType": "bool",
          "name": "",
          "type": "bool"
        }
      ],
      "stateMutability": "nonpayable",
      "type": "function"
    },
    {
      "inputs": [
        {
          "internalType": "uint256",
          "name": "_pid",
          "type": "uint256"
        },
        {
          "internalType": "uint256",
          "name": "_amount",
          "type": "uint256"
        },
        {
          "internalType": "uint16",
          "name": "nft1",
          "type": "uint16"
        },
        {
          "internalType": "uint16",
          "name": "nft2",
          "type": "uint16"
        },
        {
          "internalType": "uint16",
          "name": "nft3",
          "type": "uint16"
        }
      ],
      "name": "depositWithNFT",
      "outputs": [],
      "stateMutability": "nonpayable",
      "type": "function"
    },
    {
      "inputs": [
        {
          "internalType": "uint256",
          "name": "_pid",
          "type": "uint256"
        }
      ],
      "name": "harvest",
      "outputs": [],
      "stateMutability": "nonpayable",
      "type": "function"
    },
    {
      "inputs": [
        {
          "internalType": "uint256",
          "name": "_pid",
          "type": "uint256"
        },
        {
          "internalType": "uint256",
          "name": "_amount",
          "type": "uint256"
        }
      ],
      "name": "withdraw",
      "outputs": [],
      "stateMutability": "nonpayable",
      "type": "function"
    },
    {
      "inputs": [
        {
          "internalType": "uint256",
          "name": "_pid",
          "type": "uint256"
        }
      ],
      "name": "emergencyWithdraw",
      "outputs": [],
      "stateMutability": "nonpayable",
      "type": "function"
    }
  ],
  "bytecode": "0x60e06040526103e860809081526107d060a052610bb860c0526200002890600590600362000255565b506006805461ffff191661050017905560408051610120810182526000608080830182815260a080850184905260c0850184905260e08501849052610100850184905290845284518082018652600f808252600c602080840182905283890187905260608085018890528487018890528189019490945288518086018a526014815280820193909352600a838a0152828401879052828601969096528688019190915286519283018752601683526012948301859052601096830196909652600e8282015291810194909452820192909252620001089190600462000305565b5060006014553480156200011b57600080fd5b50604051620036a6380380620036a68339810160408190526200013e916200045a565b620001493362000205565b6006805462010000600160b01b031916620100006001600160a01b038b81169190910291909117909155600880546001600160a01b031990811688841617909155600980548216878416179055600c8590556015849055600a83905560018054909116918916919091179055438210620001c657601554620001c8565b435b6002555050506001600160a01b039092166000908152600f6020526040812080546001600160a01b03191633179055600455506200050b92505050565b600080546001600160a01b038381166001600160a01b0319831681178455604051919092169283917f8be0079c531659141344cd1fd0a4f28419497f9722a3daafe3b4186f6b6457e09190a35050565b82805482825590600052602060002090600f01601090048101928215620002f35791602002820160005b83821115620002c157835183826101000a81548161ffff021916908361ffff16021790555092602001926002016020816001010492830192600103026200027f565b8015620002f15782816101000a81549061ffff0219169055600201602081600101049283019260010302620002c1565b505b50620003019291506200035f565b5090565b82805482825590600052602060002090810192821562000351579160200282015b828111156200035157825162000340908390600562000376565b509160200191906001019062000326565b50620003019291506200040f565b5b8082111562000301576000815560010162000360565b82805482825590600052602060002090601f01602090048101928215620002f35791602002820160005b83821115620003e057835183826101000a81548160ff021916908360ff1602179055509260200192600101602081600001049283019260010302620003a0565b8015620002f15782816101000a81549060ff0219169055600101602081600001049283019260010302620003e0565b808211156200030157600062000426828262000430565b506001016200040f565b50805460008255601f0160209004906000526020600020908101906200045791906200035f565b50565b600080600080600080600080610100898b0312156200047857600080fd5b88516200048581620004f5565b60208a01519098506200049881620004f5565b60408a0151909750620004ab81620004f5565b60608a0151909650620004be81620004f5565b60808a0151909550620004d181620004f5565b60a08a015160c08b015160e0909b0151999c989b5096999598909790945092505050565b6001600160a01b03811681146200045757600080fd5b61318b806200051b6000396000f3fe608060405234801561001057600080fd5b50600436106102745760003560e01c8063715018a611610151578063d06fcba8116100c3578063e2bbb15811610087578063e2bbb158146106ca578063f0884f9f146106dd578063f2fde38b146106fd578063f36c0a7214610710578063f53f8e9414610718578063fdab7bb61461073157600080fd5b8063d06fcba814610675578063d49e77cd14610688578063db3ad22c1461069b578063ddc63262146106a4578063dea4d678146106b757600080fd5b80638aa28550116101155780638aa28550146106245780638da5cb5b1461062c5780638dbb1e3a1461063d57806398969e8214610650578063a0f015ab14610663578063a9f8d1811461066c57600080fd5b8063715018a6146105e4578063750142e6146105ec5780637d515a10146105f55780638043c10c1461060857806384413b651461061157600080fd5b80634569d415116101ea5780635312ea8e116101ae5780635312ea8e1461056a57806354ce5f561461057d5780635cab2c081461059a5780635e490652146105ad57806360fc9c42146105b55780636c18005b146105db57600080fd5b80634569d4151461048157806345d3f197146104ab57806346ca6bea1461052e57806348cd4cb1146105415780634d6e34521461054a57600080fd5b806317caf6f11161023c57806317caf6f1146103695780632613f87d14610372578063280e31cc146103955780634294c09b146103ca57806342f2ca02146103dc578063441a3e701461046e57600080fd5b8063081e3eda146102795780630dfcaac6146102905780631485ff78146102d1578063150b7a02146102d95780631526fe2714610310575b600080fd5b600d545b6040519081526020015b60405180910390f35b6102b961029e366004612c2b565b600f602052600090815260409020546001600160a01b031681565b6040516001600160a01b039091168152602001610287565b61027d610744565b6102f76102e7366004612c65565b630a85bd0160e11b949350505050565b6040516001600160e01b03199091168152602001610287565b61032361031e366004612d7f565b61075b565b604080516001600160a01b0397881681529690951660208701529215159385019390935263ffffffff9081166060850152909116608083015260a082015260c001610287565b61027d60145481565b610393610380366004612d45565b6006805460ff1916911515919091179055565b005b6103b86103a3366004612c2b565b60106020526000908152604090205460ff1681565b60405160ff9091168152602001610287565b6006546103b890610100900460ff1681565b6104396103ea366004612db1565b6013602052816000526040600020602052806000526040600020600091509150508060000154908060010154908060020154908060030154908060040154908060050154908060060154905087565b604080519788526020880196909652948601939093526060850191909152608084015260a083015260c082015260e001610287565b61039361047c366004612de1565b6107bf565b61039361048f366004612f1c565b6006805460ff9092166101000261ff0019909216919091179055565b6105006104b9366004612c2b565b6001600160a01b03808216600090815260106020908152604080832054600e8352818420546011845282852054600f909452919093205460ff909316939092169193509193565b6040805161ffff90951685526020850193909352918301526001600160a01b03166060820152608001610287565b61039361053c366004612e03565b610cc4565b61027d60155481565b61027d610558366004612c2b565b600e6020526000908152604090205481565b610393610578366004612d7f565b610d2a565b60065461058a9060ff1681565b6040519015158152602001610287565b6103936105a8366004612c2b565b610f63565b61027d6110b8565b6105c86105c3366004612d7f565b6110da565b60405161ffff9091168152602001610287565b61027d60035481565b610393611112565b61027d600a5481565b6008546102b9906001600160a01b031681565b61027d600b5481565b6009546102b9906001600160a01b031681565b61027d600a81565b6000546001600160a01b03166102b9565b61027d61064b366004612de1565b611148565b61027d61065e366004612db1565b61115d565b61027d600c5481565b61027d60025481565b6001546102b9906001600160a01b031681565b6007546102b9906001600160a01b031681565b61027d60045481565b6103936106b2366004612d7f565b611241565b6103936106c5366004612e3c565b611344565b61058a6106d8366004612de1565b611d81565b61027d6106eb366004612c2b565b60116020526000908152604090205481565b61039361070b366004612c2b565b61214e565b6103936121e9565b6006546102b9906201000090046001600160a01b031681565b61039361073f366004612e93565b6122ef565b6000600b54600a54610756919061307e565b905090565b600d818154811061076b57600080fd5b60009182526020909120600390910201805460018201546002909201546001600160a01b0391821693509082169160ff600160a01b8204169163ffffffff600160a81b8304811692600160c81b9004169086565b6000600d83815481106107d4576107d46130f7565b6000918252602080832086845260138252604080852033865290925292208054600390920290920192508311156108475760405162461bcd60e51b81526020600482015260126024820152711dda5d1a191c985dce881b9bdd0819dbdbd960721b60448201526064015b60405180910390fd5b6000600354116108a35760405162461bcd60e51b815260206004820152602160248201527f61636343686150657253686172652073686f756c64206e6f74206265207a65726044820152606f60f81b606482015260840161083e565b43816002015411156108f75760405162461bcd60e51b815260206004820181905260248201527f43616e6e6f7420776974686472617720776974682064617973206c696d69742e604482015260640161083e565b6108ff6121e9565b600380820154905482546109239164e8d4a510009161091d9161246f565b9061247b565b111561096957600061095b826003015461095564e8d4a5100061091d600354876000015461246f90919063ffffffff16565b90612487565b90506109673382612493565b505b6001820154600160a01b900460ff1615610a395760018201546001600160a01b0381169063a9059cbb9033906109b9906103e89061091d90899063ffffffff600160c81b90910481169061246f16565b6040516001600160e01b031960e085901b1681526001600160a01b0390921660048301526024820152604401602060405180830381600087803b1580156109ff57600080fd5b505af1158015610a13573d6000803e3d6000fd5b505050506040513d601f19601f82011682018060405250810190610a379190612d62565b505b815460405163a9059cbb60e01b8152336004820152602481018590526001600160a01b039091169063a9059cbb90604401602060405180830381600087803b158015610a8457600080fd5b505af1158015610a98573d6000803e3d6000fd5b505050506040513d601f19601f82011682018060405250810190610abc9190612d62565b50600481015415610b3057600154600480830154604051632142170760e11b81526001600160a01b03909316926342842e0e92610afd923092339201612f99565b600060405180830381600087803b158015610b1757600080fd5b505af1158015610b2b573d6000803e3d6000fd5b505050505b600581015415610ba4576001546005820154604051632142170760e11b81526001600160a01b03909216916342842e0e91610b719130913391600401612f99565b600060405180830381600087803b158015610b8b57600080fd5b505af1158015610b9f573d6000803e3d6000fd5b505050505b600681015415610c18576001546006820154604051632142170760e11b81526001600160a01b03909216916342842e0e91610be59130913391600401612f99565b600060405180830381600087803b158015610bff57600080fd5b505af1158015610c13573d6000803e3d6000fd5b505050505b6001810154600454610c2991612487565b6004556001810154336000908152600e6020526040902054610c4a91612487565b336000818152600e60205260408082209390935560018401819055808455600484018190556005840181905560068401819055600384015590518591907ff279e6a1f5e320cca91135676d9cb6e44ca8a08c0b88342bcdb1144f6511b56890610cb69087815260200190565b60405180910390a350505050565b6000546001600160a01b03163314610cee5760405162461bcd60e51b815260040161083e90612ff0565b8015610cfc57610cfc6121e9565b81600d8481548110610d1057610d106130f7565b906000526020600020906003020160020181905550505050565b6000600d8281548110610d3f57610d3f6130f7565b6000918252602080832085845260138252604080852033865290925292206002810154600390920290920192504311610dba5760405162461bcd60e51b815260206004820181905260248201527f43616e6e6f7420776974686472617720776974682064617973206c696d69742e604482015260640161083e565b80548254610dd5916001600160a01b0390911690339061274a565b6001820154600160a01b900460ff1615610ea657600182015481546001600160a01b0382169163a9059cbb913391610e26916103e89161091d919063ffffffff600160c81b90910481169061246f16565b6040516001600160e01b031960e085901b1681526001600160a01b0390921660048301526024820152604401602060405180830381600087803b158015610e6c57600080fd5b505af1158015610e80573d6000803e3d6000fd5b505050506040513d601f19601f82011682018060405250810190610ea49190612d62565b505b8054604051908152839033907fbb757047c2b5f3974fe26b7c10f732e7bce710b0952a71082702781e62ae05959060200160405180910390a36001810154336000908152600e6020526040902054610efd91612487565b336000908152600e60205260409020819055610f18906127ad565b336000908152601060205260409020805460ff191660ff929092169190911790556001810154600454610f4a91612487565b6004556000808255600382018190556001909101555050565b336000908152600f60205260409020546001600160a01b031615610fc95760405162461bcd60e51b815260206004820152601760248201527f596f7520616c726561647920626520696e76697465642e000000000000000000604482015260640161083e565b6001600160a01b038181166000908152600f6020526040902054166110305760405162461bcd60e51b815260206004820152601e60248201527f506172656e742073686f756c6420626520696e766974652066697273742e0000604482015260640161083e565b6001600160a01b0381163314156110895760405162461bcd60e51b815260206004820152601b60248201527f596f752063616e6e6f7420696e7669746520796f757273656c662e0000000000604482015260640161083e565b336000908152600f6020526040902080546001600160a01b0319166001600160a01b0392909216919091179055565b600061075664e8d4a5100061091d60035460045461246f90919063ffffffff16565b600581815481106110ea57600080fd5b9060005260206000209060109182820401919006600202915054906101000a900461ffff1681565b6000546001600160a01b0316331461113c5760405162461bcd60e51b815260040161083e90612ff0565b61114660006127e6565b565b60006111548284612487565b90505b92915050565b60008281526013602090815260408083206001600160a01b0385168452909152812060035460028201544390811115611197575060028201545b600254811180156111a9575060045415155b156112355760006111bc60025483611148565b905060006111d5600c548361246f90919063ffffffff16565b90506111ff6111f860045461091d64e8d4a510008561246f90919063ffffffff16565b8590612836565b9350611229856003015461095564e8d4a5100061091d888a6001015461246f90919063ffffffff16565b95505050505050611157565b50600095945050505050565b600081815260136020908152604080832033845290915290206112626121e9565b600061128e826003015461095564e8d4a5100061091d600354876001015461246f90919063ffffffff16565b9050600081116112d75760405162461bcd60e51b81526020600482015260146024820152731a185c9d995cdd0e881b9bdb99481c995dd85c9960621b604482015260640161083e565b6112e13382612493565b61130364e8d4a5100061091d600354856001015461246f90919063ffffffff16565b6003830155604051818152839033907f71bab65ced2e5750775a0613be067df48ef06cf92a496ebf7663ae06609249549060200160405180910390a3505050565b6000600d8681548110611359576113596130f7565b60009182526020808320898452601382526040808520338652835293849020845160e08101865281548152600182015493810193909352600281015494830194909452600380850154606084015260048501546080840152600585015460a084015260069094015460c0830152919092020191506113d56121e9565b805115611416576000611408826060015161095564e8d4a5100061091d600354876020015161246f90919063ffffffff16565b90506114143382612493565b505b81546040516323b872dd60e01b81526001600160a01b03909116906323b872dd9061144990339030908b90600401612f99565b602060405180830381600087803b15801561146357600080fd5b505af1158015611477573d6000803e3d6000fd5b505050506040513d601f19601f8201168201806040525081019061149b9190612d62565b506001820154600160a01b900460ff16156115605760018201546001600160a01b038116906323b872dd90339030906114ee906103e89061091d908d9063ffffffff600160c81b90910481169061246f16565b6040518463ffffffff1660e01b815260040161150c93929190612f99565b602060405180830381600087803b15801561152657600080fd5b505af115801561153a573d6000803e3d6000fd5b505050506040513d601f19601f8201168201806040525081019061155e9190612d62565b505b805161156c9087612836565b815260028201546000908190819061ffff89161580159061161257506001546040516331a9108f60e11b815261ffff8b16600482015233916001600160a01b031690636352211e9060240160206040518083038186803b1580156115cf57600080fd5b505afa1580156115e3573d6000803e3d6000fd5b505050506040513d601f19601f820116820180604052508101906116079190612c48565b6001600160a01b0316145b15611764576001546040516336af181960e11b815261ffff8b1660048201526001600160a01b0390911690636d5e30329060240160206040518083038186803b15801561165e57600080fd5b505afa158015611672573d6000803e3d6000fd5b505050506040513d601f19601f820116820180604052508101906116969190612f39565b60ff1693506103e8600585815481106116b1576116b16130f7565b90600052602060002090601091828204019190066002029054906101000a900461ffff1661ffff1687600201546116e8919061305f565b6116f2919061303d565b6116fc9082613025565b600154604051632142170760e11b81529192506001600160a01b0316906342842e0e9061173190339030908e90600401612f72565b600060405180830381600087803b15801561174b57600080fd5b505af115801561175f573d6000803e3d6000fd5b505050505b60008861ffff161180156117fd57506001546040516331a9108f60e11b815261ffff8a16600482015233916001600160a01b031690636352211e9060240160206040518083038186803b1580156117ba57600080fd5b505afa1580156117ce573d6000803e3d6000fd5b505050506040513d601f19601f820116820180604052508101906117f29190612c48565b6001600160a01b0316145b1561194f576001546040516336af181960e11b815261ffff8a1660048201526001600160a01b0390911690636d5e30329060240160206040518083038186803b15801561184957600080fd5b505afa15801561185d573d6000803e3d6000fd5b505050506040513d601f19601f820116820180604052508101906118819190612f39565b60ff1692506103e86005848154811061189c5761189c6130f7565b90600052602060002090601091828204019190066002029054906101000a900461ffff1661ffff1687600201546118d3919061305f565b6118dd919061303d565b6118e79082613025565b600154604051632142170760e11b81529192506001600160a01b0316906342842e0e9061191c90339030908d90600401612f72565b600060405180830381600087803b15801561193657600080fd5b505af115801561194a573d6000803e3d6000fd5b505050505b60008761ffff161180156119e857506001546040516331a9108f60e11b815261ffff8916600482015233916001600160a01b031690636352211e9060240160206040518083038186803b1580156119a557600080fd5b505afa1580156119b9573d6000803e3d6000fd5b505050506040513d601f19601f820116820180604052508101906119dd9190612c48565b6001600160a01b0316145b15611b3a576001546040516336af181960e11b815261ffff891660048201526001600160a01b0390911690636d5e30329060240160206040518083038186803b158015611a3457600080fd5b505afa158015611a48573d6000803e3d6000fd5b505050506040513d601f19601f82011682018060405250810190611a6c9190612f39565b60ff1691506103e860058381548110611a8757611a876130f7565b90600052602060002090601091828204019190066002029054906101000a900461ffff1661ffff168760020154611abe919061305f565b611ac8919061303d565b611ad29082613025565b600154604051632142170760e11b81529192506001600160a01b0316906342842e0e90611b0790339030908c90600401612f72565b600060405180830381600087803b158015611b2157600080fd5b505af1158015611b35573d6000803e3d6000fd5b505050505b836002148015611b4957508284145b8015611b5457508183145b15611b85576103e88660020154611388611b6e919061305f565b611b78919061303d565b611b829082613025565b90505b6000611b976103e861091d8d8561246f565b6020870151909150611ba99082612836565b6020870152600454611bbb9082612836565b600455336000908152600e6020526040902054611bd89082612836565b336000908152600e602052604090205560018701544390611c0b90829063ffffffff600160a81b90910481169061283616565b60408089019190915261ffff808d1660808a01528b811660a08a01528a1660c0890152336000908152600e6020522054611c44906127ad565b336000908152601060209081526040909120805460ff191660ff939093169290921790915560035490880151611c849164e8d4a510009161091d9161246f565b87606001818152505086601360008f81526020019081526020016000206000336001600160a01b03166001600160a01b03168152602001908152602001600020600082015181600001556020820151816001015560408201518160020155606082015181600301556080820151816004015560a0820151816005015560c082015181600601559050508c336001600160a01b03167f12683d1bce24a39469d43b532a00fb65c26276ed57dbd35b204c720380597f7e8e8e8e8e604051611d6a949392919093845261ffff9283166020850152908216604084015216606082015260800190565b60405180910390a350505050505050505050505050565b600080600d8481548110611d9757611d976130f7565b60009182526020808320878452601382526040808520338652835293849020845160e08101865281548152600182015493810193909352600281015494830194909452600380850154606084015260048501546080840152600585015460a084015260069094015460c083015291909202019150611e136121e9565b60065460ff16151560011415611e8857336000908152600f60205260409020546001600160a01b0316611e885760405162461bcd60e51b815260206004820152601a60248201527f596f75206e65656420626520696e76697465642066697273742e000000000000604482015260640161083e565b805115611ec9576000611ebb826060015161095564e8d4a5100061091d600354876020015161246f90919063ffffffff16565b9050611ec73382612493565b505b81546040516323b872dd60e01b81526001600160a01b03909116906323b872dd90611efc90339030908990600401612f99565b602060405180830381600087803b158015611f1657600080fd5b505af1158015611f2a573d6000803e3d6000fd5b505050506040513d601f19601f82011682018060405250810190611f4e9190612d62565b506001820154600160a01b900460ff1615611fb157611fb13330611f9b6103e861091d8760010160199054906101000a900463ffffffff1663ffffffff168a61246f90919063ffffffff16565b60018601546001600160a01b0316929190612842565b8051611fbd9085612836565b81526002820154600090611fda906103e89061091d90889061246f565b6020830151909150611fec9082612836565b6020830152600454611ffe9082612836565b600455336000908152600e602052604090205461201b9082612836565b336000908152600e60205260409020556001830154439061204e90829063ffffffff600160a81b90910481169061283616565b604080850191909152336000908152600e602052205461206d906127ad565b336000908152601060209081526040909120805460ff191660ff9390931692909217909155600354908401516120ad9164e8d4a510009161091d9161246f565b606084019081526000888152601360209081526040808320338085529083529281902087518155828801516001820155818801516002820155935160038501556080870151600485015560a0870151600585015560c0870151600690940193909355915188815289927f90890809c654f11d6e72a28fa60149770a0d11ec6c92319d6ceb2bb0a4ea1a15910160405180910390a35060019695505050505050565b6000546001600160a01b031633146121785760405162461bcd60e51b815260040161083e90612ff0565b6001600160a01b0381166121dd5760405162461bcd60e51b815260206004820152602660248201527f4f776e61626c653a206e6577206f776e657220697320746865207a65726f206160448201526564647265737360d01b606482015260840161083e565b6121e6816127e6565b50565b6000612202600b54600a5461248790919063ffffffff16565b90506002544311158015612214575080155b1561221c5750565b60045461222a575043600255565b43600254111561227c5760405162461bcd60e51b815260206004820152601960248201527f6c617374526577617264426c6f636b206e6f742076616c696400000000000000604482015260640161083e565b600061228a60025443611148565b905060006122a3600c548361246f90919063ffffffff16565b9050808310156122b05750815b600b546122bd9082612836565b600b556004546122e3906122da9061091d8464e8d4a5100061246f565b60035490612836565b60035550504360025550565b6000546001600160a01b031633146123195760405162461bcd60e51b815260040161083e90612ff0565b8015612327576123276121e9565b506040805160c0810182526001600160a01b0395861681529385166020850190815292151590840190815263ffffffff918216606085019081529582166080850190815260a08501978852600d8054600181018255600091909152945160039095027fd7b6990105719101dabeb77144f2a3385c8033acd3af97e9423a695e81ad1eb5810180549688166001600160a01b03199097169690961790955592517fd7b6990105719101dabeb77144f2a3385c8033acd3af97e9423a695e81ad1eb6850180549251975194518416600160c81b0263ffffffff60c81b1995909416600160a81b029490941667ffffffffffffffff60a81b19971515600160a01b026001600160a81b0319909316919096161717949094169290921792909217905590517fd7b6990105719101dabeb77144f2a3385c8033acd3af97e9423a695e81ad1eb790910155565b6000611154828461305f565b6000611154828461303d565b6000611154828461307e565b6006546040516370a0823160e01b81523060048201526000916201000090046001600160a01b0316906370a082319060240160206040518083038186803b1580156124dd57600080fd5b505afa1580156124f1573d6000803e3d6000fd5b505050506040513d601f19601f820116820180604052508101906125159190612d98565b905080821115612523578091505b6006546008546001600160a01b036201000090920482169163a9059cbb9116612552606461091d87600261246f565b6040516001600160e01b031960e085901b1681526001600160a01b0390921660048301526024820152604401602060405180830381600087803b15801561259857600080fd5b505af11580156125ac573d6000803e3d6000fd5b505050506040513d601f19601f820116820180604052508101906125d09190612d62565b506006546009546001600160a01b036201000090920482169163a9059cbb9116612600606461091d87600a61246f565b6040516001600160e01b031960e085901b1681526001600160a01b0390921660048301526024820152604401602060405180830381600087803b15801561264657600080fd5b505af115801561265a573d6000803e3d6000fd5b505050506040513d601f19601f8201168201806040525081019061267e9190612d62565b506006546201000090046001600160a01b031663a9059cbb846126b16126aa606461091d88600c61246f565b8690612487565b6040516001600160e01b031960e085901b1681526001600160a01b0390921660048301526024820152604401602060405180830381600087803b1580156126f757600080fd5b505af115801561270b573d6000803e3d6000fd5b505050506040513d601f19601f8201168201806040525081019061272f9190612d62565b5060065460ff1615612745576127458383612869565b505050565b6040516001600160a01b03831660248201526044810182905261274590849063a9059cbb60e01b906064015b60408051601f198184030181529190526020810180516001600160e01b03166001600160e01b0319909316929092179091526129b4565b6000806127c283670de0b6b3a764000061247b565b9250600090506103e88310611157575060016107d083106111575750600292915050565b600080546001600160a01b038381166001600160a01b0319831681178455604051919092169283917f8be0079c531659141344cd1fd0a4f28419497f9722a3daafe3b4186f6b6457e09190a35050565b60006111548284613025565b612863846323b872dd60e01b85858560405160240161277693929190612f99565b50505050565b60005b60065460ff61010090910481169082161015612745576001600160a01b038084166000908152600f6020526040902054168015806128bb5750836001600160a01b0316816001600160a01b0316145b156128c65750505050565b6001600160a01b0381166000908152601060205260408120546012805460ff9092169291839081106128fa576128fa6130f7565b906000526020600020018460ff1681548110612918576129186130f7565b60009182526020918290209181049091015460ff601f9092166101000a90041690508061294757505050505050565b600061295b606461091d8860ff861661246f565b6001600160a01b0385166000908152601160205260409020549091506129819082612836565b6001600160a01b038516600090815260116020526040902055509194508291506129ac9050816130c1565b91505061286c565b6000612a09826040518060400160405280602081526020017f5361666545524332303a206c6f772d6c6576656c2063616c6c206661696c6564815250856001600160a01b0316612a869092919063ffffffff16565b8051909150156127455780806020019051810190612a279190612d62565b6127455760405162461bcd60e51b815260206004820152602a60248201527f5361666545524332303a204552433230206f7065726174696f6e20646964206e6044820152691bdd081cdd58d8d9595960b21b606482015260840161083e565b6060612a958484600085612a9f565b90505b9392505050565b606082471015612b005760405162461bcd60e51b815260206004820152602660248201527f416464726573733a20696e73756666696369656e742062616c616e636520666f6044820152651c8818d85b1b60d21b606482015260840161083e565b843b612b4e5760405162461bcd60e51b815260206004820152601d60248201527f416464726573733a2063616c6c20746f206e6f6e2d636f6e7472616374000000604482015260640161083e565b600080866001600160a01b03168587604051612b6a9190612f56565b60006040518083038185875af1925050503d8060008114612ba7576040519150601f19603f3d011682016040523d82523d6000602084013e612bac565b606091505b5091509150612bbc828286612bc7565b979650505050505050565b60608315612bd6575081612a98565b825115612be65782518084602001fd5b8160405162461bcd60e51b815260040161083e9190612fbd565b803561ffff81168114612c1257600080fd5b919050565b803563ffffffff81168114612c1257600080fd5b600060208284031215612c3d57600080fd5b8135612a9881613123565b600060208284031215612c5a57600080fd5b8151612a9881613123565b60008060008060808587031215612c7b57600080fd5b8435612c8681613123565b93506020850135612c9681613123565b925060408501359150606085013567ffffffffffffffff80821115612cba57600080fd5b818701915087601f830112612cce57600080fd5b813581811115612ce057612ce061310d565b604051601f8201601f19908116603f01168101908382118183101715612d0857612d0861310d565b816040528281528a6020848701011115612d2157600080fd5b82602086016020830137600060208483010152809550505050505092959194509250565b600060208284031215612d5757600080fd5b8135612a9881613138565b600060208284031215612d7457600080fd5b8151612a9881613138565b600060208284031215612d9157600080fd5b5035919050565b600060208284031215612daa57600080fd5b5051919050565b60008060408385031215612dc457600080fd5b823591506020830135612dd681613123565b809150509250929050565b60008060408385031215612df457600080fd5b50508035926020909101359150565b600080600060608486031215612e1857600080fd5b83359250602084013591506040840135612e3181613138565b809150509250925092565b600080600080600060a08688031215612e5457600080fd5b8535945060208601359350612e6b60408701612c00565b9250612e7960608701612c00565b9150612e8760808701612c00565b90509295509295909350565b600080600080600080600060e0888a031215612eae57600080fd5b87359650612ebe60208901612c17565b95506040880135612ece81613123565b94506060880135612ede81613123565b93506080880135612eee81613138565b9250612efc60a08901612c17565b915060c0880135612f0c81613138565b8091505092959891949750929550565b600060208284031215612f2e57600080fd5b8135612a9881613146565b600060208284031215612f4b57600080fd5b8151612a9881613146565b60008251612f68818460208701613095565b9190910192915050565b6001600160a01b03938416815291909216602082015261ffff909116604082015260600190565b6001600160a01b039384168152919092166020820152604081019190915260600190565b6020815260008251806020840152612fdc816040850160208701613095565b601f01601f19169190910160400192915050565b6020808252818101527f4f776e61626c653a2063616c6c6572206973206e6f7420746865206f776e6572604082015260600190565b60008219821115613038576130386130e1565b500190565b60008261305a57634e487b7160e01b600052601260045260246000fd5b500490565b6000816000190483118215151615613079576130796130e1565b500290565b600082821015613090576130906130e1565b500390565b60005b838110156130b0578181015183820152602001613098565b838111156128635750506000910152565b600060ff821660ff8114156130d8576130d86130e1565b60010192915050565b634e487b7160e01b600052601160045260246000fd5b634e487b7160e01b600052603260045260246000fd5b634e487b7160e01b600052604160045260246000fd5b6001600160a01b03811681146121e657600080fd5b80151581146121e657600080fd5b60ff811681146121e657600080fdfea2646970667358221220a00dff431e5cfcb7cd871ad150cd2846ad150c5d6da420edac5419488e5d429064736f6c63430008060033",
  "immutableReferences": {},
  "source": "// SPDX-License-Identifier: MIT\npragma solidity ^0.8.0;\n\nimport \"./utils/math/SafeMath.sol\";\nimport \"./utils/Address.sol\";\nimport \"./access/Ownable.sol\";\n\nimport \"./token/ERC721/IERC721.sol\";\nimport \"./token/ERC721/IERC721Card.sol\";\nimport \"./token/ERC20/IERC20.sol\";\nimport \"./token/ERC721/utils/ERC721Holder.sol\";\nimport \"./token/ERC20/utils/SafeERC20.sol\";\n\ninterface IMigratorChef {\n    // Perform LP token migration from legacy UniswapV2 to ChaSwap.\n    // Take the current LP token address and return the new LP token address.\n    // Migrator should have full access to the caller's LP token.\n    // Return the new LP token address.\n    //\n    // XXX Migrator must have allowance access to UniswapV2 LP tokens.\n    // ChaSwap must mint EXACTLY the same amount of ChaSwap LP tokens or\n    // else something bad will happen. Traditional UniswapV2 does not\n    // do that so be careful!\n    function migrate(IERC20 token) external returns (IERC20);\n}\n\n// BeanPool is the master of Reward. He can make Reward and he is a fair guy.\n//\n// Note that it's ownable and the owner wields tremendous power. The ownership\n// will be transferred to a governance smart contract once CHA is sufficiently\n// distributed and the community can show to govern itself.\n//\n// Have fun reading it. Hopefully it's bug-free. God bless.\ncontract BeanPool is Ownable,ERC721Holder {\n    using SafeMath for uint256;\n    using SafeERC20 for IERC20;\n    // Info of each user.\n    // struct UserInfo {\n    //     uint256 amount; // How many LP tokens the user has provided.\n    //     uint256 rewardDebt; // Reward debt. See explanation below.\n    //     //\n    //     // We do some fancy math here. Basically, any point in time, the amount of CHA\n    //     // entitled to a user but is pending to be distributed is:\n    //     //\n    //     //   pending reward = (user.amount * accChaPerShare) - user.rewardDebt\n    //     //\n    //     // Whenever a user deposits or withdraws LP tokens to a pool. Here's what happens:\n    //     //   1. The pool's `accChaPerShare` (and `lastRewardBlock`) gets updated.\n    //     //   2. User receives the pending reward sent to his/her address.\n    //     //   3. User's `amount` gets updated.\n    //     //   4. User's `rewardDebt` gets updated.\n    // }\n\n    struct InviteInfo {\n        address parent;\n        uint256 totalPower;\n    }\n\n    // Miner information describe miner. One should has many Miners;\n    struct MinerInfo {\n        uint256 amount; // \n        uint256 power; // \n        uint256 endBlock; // block\n        uint256 rewardDebt; // Reward debt. See explanation below.\n        uint256 nft1;\n        uint256 nft2;\n        uint256 nft3;\n    }\n    // Info of each pool. pool is set manully.\n    struct PoolInfo {\n        IERC20 lpToken; // Address of LP token contract.\n        IERC20 lpToken2; // Address of LP token contract.\n        bool isLp; // if isLp is true we should have a usdt token.\n        uint32 timeBlocks; // timeBlocks;\n        uint32 amountRate; // The amount rate for token 2, times 1000.\n        uint256 powerRate; // The power rate assigned to this pool. times 1000.\n    }\n    \n    IERC721Card public nftToken;\n    uint256 public lastRewardBlock; // Last block number that CHAs distribution occurs.\n    uint256 public accChaPerShare; // Accumulated CHAs per share, times 1e12. See below.\n    // Total power\n    uint256 public totalPower;\n    uint16[] public nftRate = [1000, 2000, 3000]; // times 1000\n\n    // Invite\n    bool public inviteForce = false;\n    uint8 public maxInviteLayer = 5;\n    // The CHA TOKEN!\n    IERC20 public panToken;\n    // Dev address.\n    address public devaddr;\n    address public blackholeAddress;\n    address public airdropAddress;\n    // address public liquidAddress;\n    // Block number when bonus CHA period ends.\n    // uint256 public bonusEndBlock;\n    // Total reward for miner\n    uint256 public totalReward;\n    // Total released reward\n    uint256 public releasedReward;\n    // CHA tokens created per block.\n    uint256 public chaPerBlock;\n    // Bonus muliplier for early panToken makers.\n    uint256 public constant BONUS_MULTIPLIER = 10;\n    // The migrator contract. It has a lot of power. Can only be set through governance (owner).\n    // IMigratorChef public migrator;\n    // Info of each pool.\n    PoolInfo[] public poolInfo;\n    // Info of each user that stakes LP tokens.\n    mapping(address => uint256) public userPower;\n    mapping(address => address) public userParent;\n    mapping(address => uint8) public userLevel;\n    mapping(address => uint256) public inviteReward;\n    // mapping(uint8 => mapping(uint8 => uint8)) memory inviteRatio;\n    uint8[][] inviteRatio = [[0,0,0,0,0],[15,12,0,0,0],[20,15,10,0,0],[22,18,16,14,12]];\n    mapping(uint256 => mapping(address => MinerInfo)) public minerInfo;\n    // Total allocation poitns. Must be the sum of all allocation points in all pools.\n    uint256 public totalAllocPoint = 0;\n    // The block number when CHA mining starts.\n    uint256 public startBlock;\n    event Deposit(address indexed user, uint256 indexed pid, uint256 amount);\n    event DepositWithNFT(address indexed user, uint256 indexed pid, uint256 amount,\n        uint16 nft1, uint16 nft2, uint16 nft3);\n    event Withdraw(address indexed user, uint256 indexed pid, uint256 amount);\n    event Harvest(address indexed user, uint256 indexed pid, uint256 amount);\n    event EmergencyWithdraw(\n        address indexed user,\n        uint256 indexed pid,\n        uint256 amount\n    );\n\n    constructor(\n        IERC20 _chaAddress,\n        IERC721Card _nftAddress,\n        address initInviteAddress,\n        address _blackholeAddress,\n        address _airdropAddress,\n        // address _liquidAddress,\n        uint256 _chaPerBlock,\n        uint256 _startBlock,\n        uint256 _totalReward\n    ) {\n        panToken = _chaAddress;\n        blackholeAddress = _blackholeAddress;\n        airdropAddress = _airdropAddress;\n        // liquidAddress = _liquidAddress;\n        chaPerBlock = _chaPerBlock;\n        // bonusEndBlock = _bonusEndBlock;\n        startBlock = _startBlock;\n        totalReward = _totalReward;\n        nftToken = IERC721Card(_nftAddress);\n        lastRewardBlock =\n            block.number > startBlock ? block.number : startBlock;\n        // totalAllocPoint = totalAllocPoint.add(_allocPoint);\n        userParent[initInviteAddress] = msg.sender;\n        totalPower = 0;\n    }\n\n    // function totalReward() external view returns (uint256) {\n    //     return totalReward;\n    // }\n\n    // function releasedReward() external view returns (uint256) {\n    //     return releasedReward;\n    // }\n\n    function releaseReward2() external view returns (uint256) {\n        return totalPower.mul(accChaPerShare).div(1e12);\n    }\n\n    function remainReward() external view returns (uint256) {\n        return totalReward - releasedReward;\n    }\n\n    function poolLength() external view returns (uint256) {\n        return poolInfo.length;\n    }\n\n    // Add a new lp to the pool. Can only be called by the owner.\n    // XXX DO NOT add the same LP token more than once. Rewards will be messed up if you do.\n    function addPool(\n        uint256 _powerRate,\n        uint32 _amountRate,\n        IERC20 _token,\n        IERC20 _token2,\n        bool _isLp,\n        uint32 timeBlocks,\n        bool _withUpdate\n    ) public onlyOwner {\n        if (_withUpdate) {\n            updateReward();\n        }\n        \n        poolInfo.push(\n            PoolInfo({\n                lpToken: _token,\n                lpToken2: _token2,\n                isLp: _isLp,\n                timeBlocks: timeBlocks,\n                powerRate: _powerRate,\n                amountRate: _amountRate\n            })\n        );\n    }\n\n    // Update the given pool's CHA power rate. Can only be called by the owner.\n    function setPool(\n        uint256 _pid,\n        uint256 _powerRate,\n        bool _withUpdate\n    ) public onlyOwner {\n        if (_withUpdate) {\n            updateReward();\n        }\n        poolInfo[_pid].powerRate = _powerRate;\n    }\n\n    function setInvite(\n        address parent\n    ) public {\n        require(userParent[msg.sender] == address(0), \"You already be invited.\");\n        require(userParent[parent] != address(0), \"Parent should be invite first.\");\n        require(parent != msg.sender, \"You cannot invite yourself.\");\n        userParent[msg.sender] = parent;\n    }\n\n    function setInviteEnable(\n        bool enable\n    ) public {\n        inviteForce = enable;\n    }\n\n    function setMaxInviteLayer(uint8 layer) public {\n        maxInviteLayer = layer;\n    }\n\n    // Set the migrator contract. Can only be called by the owner.\n    // function setMigrator(IMigratorChef _migrator) public onlyOwner {\n    //     migrator = _migrator;\n    // }\n\n    // // Migrate lp token to another lp contract. Can be called by anyone. We trust that migrator contract is good.\n    // function migrate(uint256 _pid) public {\n    //     require(address(migrator) != address(0), \"migrate: no migrator\");\n    //     PoolInfo storage pool = poolInfo[_pid];\n    //     IERC20 lpToken = pool.lpToken;\n    //     uint256 bal = lpToken.balanceOf(address(this));\n    //     lpToken.safeApprove(address(migrator), bal);\n    //     IERC20 newLpToken = migrator.migrate(lpToken);\n    //     require(bal == newLpToken.balanceOf(address(this)), \"migrate: bad\");\n    //     pool.lpToken = newLpToken;\n    // }\n    function getInviteInfo(address addr) public view returns (uint16, uint256, uint256, address){\n        return (userLevel[addr],userPower[addr], inviteReward[addr], userParent[addr]);\n    }\n    // Return reward multiplier over the given _from to _to block.\n    function getMultiplier(uint256 _from, uint256 _to)\n        public\n        pure\n        returns (uint256)\n    {\n        return _to.sub(_from);\n        // if (_to <= bonusEndBlock) {\n        //     return _to.sub(_from).mul(BONUS_MULTIPLIER);\n        // } else if (_from >= bonusEndBlock) {\n        //     return _to.sub(_from);\n        // } else {\n        //     return\n        //         bonusEndBlock.sub(_from).mul(BONUS_MULTIPLIER).add(\n        //             _to.sub(bonusEndBlock)\n        //         );\n        // }\n    }\n\n    // View function to see pending CHA on frontend.\n    function pendingReward(uint256 _pid, address _user)\n        external\n        view\n        returns (uint256)\n    {\n        // PoolInfo storage pool = poolInfo[_pid];\n        MinerInfo storage miner = minerInfo[_pid][_user];\n        uint256 accCha = accChaPerShare;\n        uint256 endBlock = block.number;\n        if (block.number > miner.endBlock) {\n            endBlock = miner.endBlock;\n        }\n        if (endBlock > lastRewardBlock && totalPower != 0) {\n            uint256 multiplier =\n                getMultiplier(lastRewardBlock, endBlock);\n            uint256 chaReward = multiplier.mul(chaPerBlock);\n            accCha = accCha.add(\n                chaReward.mul(1e12).div(totalPower)\n            );\n            return miner.power.mul(accCha).div(1e12).sub(miner.rewardDebt);\n        }\n        return 0;\n    }\n\n    // Update reward vairables for all pools. Be careful of gas spending!\n    // function updateReward() public {\n    //     uint256 length = poolInfo.length;\n    //     for (uint256 pid = 0; pid < length; ++pid) {\n    //         updateReward(pid);\n    //     }\n    // }\n\n    // Update reward variables of the given pool to be up-to-date.\n    function updateReward() public {\n        // PoolInfo storage pool = poolInfo[_pid];\n        // uint256 remain = panToken.balanceOf(address(this));\n        uint256 remain = totalReward.sub(releasedReward);\n        if (block.number <= lastRewardBlock && remain <= 0) {\n            return;\n        }\n        if (totalPower == 0) {\n            lastRewardBlock = block.number;\n            return;\n        }\n        require(lastRewardBlock<=block.number, \"lastRewardBlock not valid\");\n        uint256 multiplier = getMultiplier(lastRewardBlock, block.number);\n        uint256 chaReward = multiplier.mul(chaPerBlock);\n        // panToken.mint(devaddr, chaReward.div(10));\n        // panToken.mint(address(this), chaReward);\n        if ( remain < chaReward ) {\n            chaReward = remain;\n        }\n        releasedReward  = releasedReward.add(chaReward);\n        accChaPerShare = accChaPerShare.add(\n            chaReward.mul(1e12).div(totalPower)\n        );\n        lastRewardBlock = block.number;\n    }\n\n\n    // Deposit LP tokens to BeanPool for CHA allocation.\n    function deposit(uint256 _pid, uint256 _amount) public returns (bool){\n        PoolInfo storage pool = poolInfo[_pid];\n        MinerInfo memory miner = minerInfo[_pid][msg.sender];\n        updateReward();\n        if (inviteForce == true) {\n            require(userParent[msg.sender] != address(0), \"You need be invited first.\");\n        }\n        if (miner.amount > 0) {\n            uint256 pending =\n                miner.power.mul(accChaPerShare).div(1e12).sub(\n                    miner.rewardDebt\n                );\n            safeChaTransfer(msg.sender, pending);\n        }\n        // pool.lpToken.approve(address(this), _amount);\n        pool.lpToken.transferFrom(\n            address(msg.sender),\n            address(this),\n            _amount\n        );\n        if (pool.isLp) {\n            pool.lpToken2.safeTransferFrom(\n                address(msg.sender),\n                address(this),\n                _amount.mul(pool.amountRate).div(1000)\n            );\n        }\n        miner.amount = miner.amount.add(_amount);\n        uint256 power = _amount.mul(pool.powerRate).div(1000);\n        miner.power = miner.power.add(power);\n        totalPower = totalPower.add(power);\n        userPower[msg.sender] = userPower[msg.sender].add(power);\n        uint256 blockNumber = block.number;\n        miner.endBlock = blockNumber.add(pool.timeBlocks); // * 24 * 1200;\n        userLevel[msg.sender] = getUserLevel(userPower[msg.sender]);\n        miner.rewardDebt = miner.power.mul(accChaPerShare).div(1e12);\n        minerInfo[_pid][msg.sender] = miner;\n        emit Deposit(msg.sender, _pid, _amount);\n        return true;\n    }\n\n    // Deposit LP tokens to BeanPool for CHA allocation.\n    function depositWithNFT(uint256 _pid, uint256 _amount, uint16 nft1, uint16 nft2, uint16 nft3) public {\n        PoolInfo storage pool = poolInfo[_pid];\n        MinerInfo memory miner = minerInfo[_pid][msg.sender];\n        // require(miner.amount == 0, \"You already depsoit this pool.\");\n        updateReward();\n        if (miner.amount > 0) {\n            uint256 pending =\n                miner.power.mul(accChaPerShare).div(1e12).sub(\n                    miner.rewardDebt\n                );\n            safeChaTransfer(msg.sender, pending);\n        }\n        pool.lpToken.transferFrom(\n            address(msg.sender),\n            address(this),\n            _amount\n        );\n        if (pool.isLp) {\n            pool.lpToken2.transferFrom(\n                address(msg.sender),\n                address(this),\n                _amount.mul(pool.amountRate).div(1000)\n            );\n        }\n        miner.amount = miner.amount.add(_amount);\n        uint256 level;\n        uint256 level2;\n        uint256 level3;\n        uint256 rate = pool.powerRate;\n        if (nft1 > 0 && nftToken.ownerOf(nft1) == msg.sender) {\n            level = nftToken.levelOf(nft1);\n            rate += pool.powerRate * nftRate[level] / 1000;\n            nftToken.safeTransferFrom(msg.sender, address(this), nft1);\n        }\n        if (nft2 > 0 && nftToken.ownerOf(nft2) == msg.sender) {\n            level2 = nftToken.levelOf(nft2);\n            rate += pool.powerRate * nftRate[level2] / 1000;\n            nftToken.safeTransferFrom(msg.sender, address(this), nft2);\n        }\n        if (nft3 > 0 && nftToken.ownerOf(nft3) == msg.sender) {\n            level3 = nftToken.levelOf(nft3);\n            rate += pool.powerRate * nftRate[level3] / 1000;\n            nftToken.safeTransferFrom(msg.sender, address(this), nft3);\n        }\n        // \n        if(level == 2 && level == level2 && level2 == level3) {\n            rate += pool.powerRate * 5000/1000;\n        }\n        uint256 power = _amount.mul(rate).div(1000);\n        miner.power = miner.power.add(power);\n        totalPower = totalPower.add(power);\n        userPower[msg.sender] = userPower[msg.sender].add(power);\n        uint256 blockNumber = block.number;\n        miner.endBlock = blockNumber.add(pool.timeBlocks);\n        miner.nft1 = uint16(nft1);\n        miner.nft2 = uint16(nft2);\n        miner.nft3 = uint16(nft3);\n        userLevel[msg.sender] = getUserLevel(userPower[msg.sender]);\n        miner.rewardDebt = miner.power.mul(accChaPerShare).div(1e12);\n        minerInfo[_pid][msg.sender] = miner;\n        emit DepositWithNFT(msg.sender, _pid, _amount, nft1, nft2, nft3);\n    }\n    function getUserLevel(uint256 power) private pure returns(uint8){\n        uint8 level;\n        power = power.div(1e18);\n        level = 0;\n        if (power >= 1000) {\n            level = 1;\n            if (power >= 2000) {\n                level = 2;\n            }\n        }\n        return level;\n    }\n    // // Get a random 100\n    // Get a random 100\n    function random() private view returns (uint8) {\n        return uint8(uint256(keccak256(abi.encodePacked(block.timestamp, block.difficulty)))%100);\n    }\n    // harvest LP tokens from BeanPool.\n    function harvest(uint256 _pid) public {\n        // PoolInfo storage pool = poolInfo[_pid];\n        MinerInfo storage miner = minerInfo[_pid][msg.sender];\n        updateReward();\n        uint256 pending =\n            miner.power.mul(accChaPerShare).div(1e12).sub(\n                miner.rewardDebt\n            );\n        require(pending > 0, \"harvest: none reward\");\n        safeChaTransfer(msg.sender, pending);\n        miner.rewardDebt = miner.power.mul(accChaPerShare).div(1e12);\n        emit Harvest(msg.sender, _pid, pending);\n    }\n\n    // Withdraw LP tokens from BeanPool.\n    function withdraw(uint256 _pid, uint256 _amount) public {\n        PoolInfo storage pool = poolInfo[_pid];\n        MinerInfo storage miner = minerInfo[_pid][msg.sender];\n        require(miner.amount >= _amount, \"withdraw: not good\");\n        require(accChaPerShare > 0, \"accChaPerShare should not be zero\");\n        require(miner.endBlock <= block.number, \"Cannot withdraw with days limit.\");\n        updateReward();\n        if (miner.amount.mul(accChaPerShare).div(1e12) > miner.rewardDebt) {\n            uint256 pending = miner.amount.mul(accChaPerShare).div(1e12).sub(\n                miner.rewardDebt\n            );\n            safeChaTransfer(msg.sender, pending);\n        }\n        \n        if (pool.isLp) {\n            pool.lpToken2.transfer(\n                msg.sender,\n                _amount.mul(pool.amountRate).div(1000)\n            );\n        }\n\n        // miner.rewardDebt = miner.power.mul(accChaPerShare).div(1e12);\n        // userLevel[msg.sender] = getUserLevel(userPower[msg.sender]);\n        pool.lpToken.transfer(address(msg.sender), _amount);\n\n        if (miner.nft1 > 0) {\n            nftToken.safeTransferFrom(address(this), msg.sender, miner.nft1);\n        }\n        if (miner.nft2 > 0) {\n            nftToken.safeTransferFrom(address(this), msg.sender, miner.nft2);\n        }\n        if (miner.nft3 > 0) {\n            nftToken.safeTransferFrom(address(this), msg.sender, miner.nft3);\n        }\n\n        // reduce power\n        // uint256 power = miner.power.mul(_amount).div(miner.amount);\n        totalPower = totalPower.sub(miner.power);\n\n        userPower[msg.sender] = userPower[msg.sender].sub(miner.power);\n        //  reduce amount\n        miner.power = 0;\n        miner.amount = 0;\n        miner.nft1 = 0;\n        miner.nft2 = 0;\n        miner.nft3 = 0;\n        miner.rewardDebt = 0;\n        // minerInfo[_pid][msg.sender] = 0;\n\n        emit Withdraw(msg.sender, _pid, _amount);\n    }\n\n    function calculeInviteReward(address child, uint256 total) private {\n\n        for(uint8 layer=0; layer< maxInviteLayer; layer++) {\n            address parent = userParent[child];\n            if (parent == address(0) || parent == child)\n                return;\n            uint8 level = userLevel[parent];\n            uint8 ratio = inviteRatio[level][layer];\n            if (ratio <= 0) {\n                return ;\n            }\n            uint256 reward = total.mul(ratio).div(100);\n            inviteReward[parent] = inviteReward[parent].add(reward);\n            child = parent;\n        }\n    }\n\n    // Withdraw without caring about rewards. EMERGENCY ONLY.\n    function emergencyWithdraw(uint256 _pid) public {\n        PoolInfo storage pool = poolInfo[_pid];\n        MinerInfo storage miner = minerInfo[_pid][msg.sender];\n        require(miner.endBlock < block.number, \"Cannot withdraw with days limit.\");\n        pool.lpToken.safeTransfer(address(msg.sender), miner.amount);\n        if (pool.isLp) {\n            pool.lpToken2.transfer(\n                msg.sender,\n                miner.amount.mul(pool.amountRate).div(1000)\n            );\n        }\n        emit EmergencyWithdraw(msg.sender, _pid, miner.amount);\n        userPower[msg.sender] = userPower[msg.sender].sub(miner.power);\n        userLevel[msg.sender] = getUserLevel(userPower[msg.sender]);\n        totalPower = totalPower.sub(miner.power);\n        miner.amount = 0;\n        miner.rewardDebt = 0;\n        miner.power = 0;\n    }\n\n    // Safe panToken transfer function, just in case if rounding error causes pool to not have enough CHA.\n    function safeChaTransfer(address _to, uint256 _amount) internal {\n        uint256 chaBal = panToken.balanceOf(address(this));\n        if (_amount > chaBal) {\n            _amount = chaBal;\n        }\n        panToken.transfer(blackholeAddress, _amount.mul(2).div(100));\n        panToken.transfer(airdropAddress, _amount.mul(10).div(100));\n        // panToken.transfer(liquidAddress, _amount.mul(4).div(100));\n        panToken.transfer(_to, _amount.sub(_amount.mul(12).div(100)));\n        if(inviteForce)\n           calculeInviteReward(_to, _amount);\n    }\n}",
  "sourcePath": "/Users/jilong/solidity/pantheonNFT/contracts/BeanPool.sol",
  "compiler": {
    "name": "solc",
    "version": "0.8.6+commit.11564f7e.Emscripten.clang"
  },
  "schemaVersion": "3.4.3",
  "updatedAt": "2021-09-18T08:42:46.075Z",
  "devdoc": {
    "kind": "dev",
    "methods": {
      "onERC721Received(address,address,uint256,bytes)": {
        "details": "See {IERC721Receiver-onERC721Received}. Always returns `IERC721Receiver.onERC721Received.selector`."
      },
      "owner()": {
        "details": "Returns the address of the current owner."
      },
      "renounceOwnership()": {
        "details": "Leaves the contract without owner. It will not be possible to call `onlyOwner` functions anymore. Can only be called by the current owner. NOTE: Renouncing ownership will leave the contract without an owner, thereby removing any functionality that is only available to the owner."
      },
      "transferOwnership(address)": {
        "details": "Transfers ownership of the contract to a new account (`newOwner`). Can only be called by the current owner."
      }
    },
    "version": 1
  },
  "userdoc": {
    "kind": "user",
    "methods": {},
    "version": 1
  }
}