{
  "contractName": "BeanPool",
  "abi": [
    {
      "inputs": [
        {
          "internalType": "contract IERC20",
          "name": "_chaAddress",
          "type": "address"
        },
        {
          "internalType": "contract IERC721Card",
          "name": "_nftAddress",
          "type": "address"
        },
        {
          "internalType": "address",
          "name": "initInviteAddress",
          "type": "address"
        },
        {
          "internalType": "address",
          "name": "_blackholeAddress",
          "type": "address"
        },
        {
          "internalType": "address",
          "name": "_airdropAddress",
          "type": "address"
        },
        {
          "internalType": "uint256",
          "name": "_chaPerBlock",
          "type": "uint256"
        },
        {
          "internalType": "uint256",
          "name": "_startBlock",
          "type": "uint256"
        },
        {
          "internalType": "uint256",
          "name": "_totalReward",
          "type": "uint256"
        }
      ],
      "stateMutability": "nonpayable",
      "type": "constructor"
    },
    {
      "anonymous": false,
      "inputs": [
        {
          "indexed": true,
          "internalType": "address",
          "name": "user",
          "type": "address"
        },
        {
          "indexed": true,
          "internalType": "uint256",
          "name": "pid",
          "type": "uint256"
        },
        {
          "indexed": false,
          "internalType": "uint256",
          "name": "amount",
          "type": "uint256"
        }
      ],
      "name": "Deposit",
      "type": "event"
    },
    {
      "anonymous": false,
      "inputs": [
        {
          "indexed": true,
          "internalType": "address",
          "name": "user",
          "type": "address"
        },
        {
          "indexed": true,
          "internalType": "uint256",
          "name": "pid",
          "type": "uint256"
        },
        {
          "indexed": false,
          "internalType": "uint256",
          "name": "amount",
          "type": "uint256"
        },
        {
          "indexed": false,
          "internalType": "uint16",
          "name": "nft1",
          "type": "uint16"
        },
        {
          "indexed": false,
          "internalType": "uint16",
          "name": "nft2",
          "type": "uint16"
        },
        {
          "indexed": false,
          "internalType": "uint16",
          "name": "nft3",
          "type": "uint16"
        }
      ],
      "name": "DepositWithNFT",
      "type": "event"
    },
    {
      "anonymous": false,
      "inputs": [
        {
          "indexed": true,
          "internalType": "address",
          "name": "user",
          "type": "address"
        },
        {
          "indexed": true,
          "internalType": "uint256",
          "name": "pid",
          "type": "uint256"
        },
        {
          "indexed": false,
          "internalType": "uint256",
          "name": "amount",
          "type": "uint256"
        }
      ],
      "name": "EmergencyWithdraw",
      "type": "event"
    },
    {
      "anonymous": false,
      "inputs": [
        {
          "indexed": true,
          "internalType": "address",
          "name": "user",
          "type": "address"
        },
        {
          "indexed": true,
          "internalType": "uint256",
          "name": "pid",
          "type": "uint256"
        },
        {
          "indexed": false,
          "internalType": "uint256",
          "name": "amount",
          "type": "uint256"
        }
      ],
      "name": "Harvest",
      "type": "event"
    },
    {
      "anonymous": false,
      "inputs": [
        {
          "indexed": true,
          "internalType": "address",
          "name": "previousOwner",
          "type": "address"
        },
        {
          "indexed": true,
          "internalType": "address",
          "name": "newOwner",
          "type": "address"
        }
      ],
      "name": "OwnershipTransferred",
      "type": "event"
    },
    {
      "anonymous": false,
      "inputs": [
        {
          "indexed": true,
          "internalType": "address",
          "name": "user",
          "type": "address"
        },
        {
          "indexed": true,
          "internalType": "uint256",
          "name": "pid",
          "type": "uint256"
        },
        {
          "indexed": false,
          "internalType": "uint256",
          "name": "amount",
          "type": "uint256"
        }
      ],
      "name": "Withdraw",
      "type": "event"
    },
    {
      "inputs": [],
      "name": "BONUS_MULTIPLIER",
      "outputs": [
        {
          "internalType": "uint256",
          "name": "",
          "type": "uint256"
        }
      ],
      "stateMutability": "view",
      "type": "function"
    },
    {
      "inputs": [],
      "name": "accChaPerShare",
      "outputs": [
        {
          "internalType": "uint256",
          "name": "",
          "type": "uint256"
        }
      ],
      "stateMutability": "view",
      "type": "function"
    },
    {
      "inputs": [],
      "name": "airdropAddress",
      "outputs": [
        {
          "internalType": "address",
          "name": "",
          "type": "address"
        }
      ],
      "stateMutability": "view",
      "type": "function"
    },
    {
      "inputs": [],
      "name": "blackholeAddress",
      "outputs": [
        {
          "internalType": "address",
          "name": "",
          "type": "address"
        }
      ],
      "stateMutability": "view",
      "type": "function"
    },
    {
      "inputs": [],
      "name": "chaPerBlock",
      "outputs": [
        {
          "internalType": "uint256",
          "name": "",
          "type": "uint256"
        }
      ],
      "stateMutability": "view",
      "type": "function"
    },
    {
      "inputs": [],
      "name": "devaddr",
      "outputs": [
        {
          "internalType": "address",
          "name": "",
          "type": "address"
        }
      ],
      "stateMutability": "view",
      "type": "function"
    },
    {
      "inputs": [],
      "name": "inviteForce",
      "outputs": [
        {
          "internalType": "bool",
          "name": "",
          "type": "bool"
        }
      ],
      "stateMutability": "view",
      "type": "function"
    },
    {
      "inputs": [
        {
          "internalType": "address",
          "name": "",
          "type": "address"
        }
      ],
      "name": "inviteReward",
      "outputs": [
        {
          "internalType": "uint256",
          "name": "",
          "type": "uint256"
        }
      ],
      "stateMutability": "view",
      "type": "function"
    },
    {
      "inputs": [],
      "name": "lastRewardBlock",
      "outputs": [
        {
          "internalType": "uint256",
          "name": "",
          "type": "uint256"
        }
      ],
      "stateMutability": "view",
      "type": "function"
    },
    {
      "inputs": [],
      "name": "maxInviteLayer",
      "outputs": [
        {
          "internalType": "uint8",
          "name": "",
          "type": "uint8"
        }
      ],
      "stateMutability": "view",
      "type": "function"
    },
    {
      "inputs": [
        {
          "internalType": "uint256",
          "name": "",
          "type": "uint256"
        },
        {
          "internalType": "address",
          "name": "",
          "type": "address"
        }
      ],
      "name": "minerInfo",
      "outputs": [
        {
          "internalType": "uint256",
          "name": "amount",
          "type": "uint256"
        },
        {
          "internalType": "uint256",
          "name": "power",
          "type": "uint256"
        },
        {
          "internalType": "uint256",
          "name": "endBlock",
          "type": "uint256"
        },
        {
          "internalType": "uint256",
          "name": "rewardDebt",
          "type": "uint256"
        },
        {
          "internalType": "uint256",
          "name": "nft1",
          "type": "uint256"
        },
        {
          "internalType": "uint256",
          "name": "nft2",
          "type": "uint256"
        },
        {
          "internalType": "uint256",
          "name": "nft3",
          "type": "uint256"
        }
      ],
      "stateMutability": "view",
      "type": "function"
    },
    {
      "inputs": [
        {
          "internalType": "uint256",
          "name": "",
          "type": "uint256"
        }
      ],
      "name": "nftRate",
      "outputs": [
        {
          "internalType": "uint16",
          "name": "",
          "type": "uint16"
        }
      ],
      "stateMutability": "view",
      "type": "function"
    },
    {
      "inputs": [],
      "name": "nftToken",
      "outputs": [
        {
          "internalType": "contract IERC721Card",
          "name": "",
          "type": "address"
        }
      ],
      "stateMutability": "view",
      "type": "function"
    },
    {
      "inputs": [
        {
          "internalType": "address",
          "name": "",
          "type": "address"
        },
        {
          "internalType": "address",
          "name": "",
          "type": "address"
        },
        {
          "internalType": "uint256",
          "name": "",
          "type": "uint256"
        },
        {
          "internalType": "bytes",
          "name": "",
          "type": "bytes"
        }
      ],
      "name": "onERC721Received",
      "outputs": [
        {
          "internalType": "bytes4",
          "name": "",
          "type": "bytes4"
        }
      ],
      "stateMutability": "nonpayable",
      "type": "function"
    },
    {
      "inputs": [],
      "name": "owner",
      "outputs": [
        {
          "internalType": "address",
          "name": "",
          "type": "address"
        }
      ],
      "stateMutability": "view",
      "type": "function"
    },
    {
      "inputs": [],
      "name": "panToken",
      "outputs": [
        {
          "internalType": "contract IERC20",
          "name": "",
          "type": "address"
        }
      ],
      "stateMutability": "view",
      "type": "function"
    },
    {
      "inputs": [
        {
          "internalType": "uint256",
          "name": "",
          "type": "uint256"
        }
      ],
      "name": "poolInfo",
      "outputs": [
        {
          "internalType": "contract IERC20",
          "name": "lpToken",
          "type": "address"
        },
        {
          "internalType": "contract IERC20",
          "name": "lpToken2",
          "type": "address"
        },
        {
          "internalType": "bool",
          "name": "isLp",
          "type": "bool"
        },
        {
          "internalType": "uint32",
          "name": "timeBlocks",
          "type": "uint32"
        },
        {
          "internalType": "uint256",
          "name": "powerRate",
          "type": "uint256"
        }
      ],
      "stateMutability": "view",
      "type": "function"
    },
    {
      "inputs": [],
      "name": "releasedReward",
      "outputs": [
        {
          "internalType": "uint256",
          "name": "",
          "type": "uint256"
        }
      ],
      "stateMutability": "view",
      "type": "function"
    },
    {
      "inputs": [],
      "name": "renounceOwnership",
      "outputs": [],
      "stateMutability": "nonpayable",
      "type": "function"
    },
    {
      "inputs": [],
      "name": "startBlock",
      "outputs": [
        {
          "internalType": "uint256",
          "name": "",
          "type": "uint256"
        }
      ],
      "stateMutability": "view",
      "type": "function"
    },
    {
      "inputs": [],
      "name": "totalAllocPoint",
      "outputs": [
        {
          "internalType": "uint256",
          "name": "",
          "type": "uint256"
        }
      ],
      "stateMutability": "view",
      "type": "function"
    },
    {
      "inputs": [],
      "name": "totalPower",
      "outputs": [
        {
          "internalType": "uint256",
          "name": "",
          "type": "uint256"
        }
      ],
      "stateMutability": "view",
      "type": "function"
    },
    {
      "inputs": [],
      "name": "totalReward",
      "outputs": [
        {
          "internalType": "uint256",
          "name": "",
          "type": "uint256"
        }
      ],
      "stateMutability": "view",
      "type": "function"
    },
    {
      "inputs": [
        {
          "internalType": "address",
          "name": "newOwner",
          "type": "address"
        }
      ],
      "name": "transferOwnership",
      "outputs": [],
      "stateMutability": "nonpayable",
      "type": "function"
    },
    {
      "inputs": [
        {
          "internalType": "address",
          "name": "",
          "type": "address"
        }
      ],
      "name": "userLevel",
      "outputs": [
        {
          "internalType": "uint8",
          "name": "",
          "type": "uint8"
        }
      ],
      "stateMutability": "view",
      "type": "function"
    },
    {
      "inputs": [
        {
          "internalType": "address",
          "name": "",
          "type": "address"
        }
      ],
      "name": "userParent",
      "outputs": [
        {
          "internalType": "address",
          "name": "",
          "type": "address"
        }
      ],
      "stateMutability": "view",
      "type": "function"
    },
    {
      "inputs": [
        {
          "internalType": "address",
          "name": "",
          "type": "address"
        }
      ],
      "name": "userPower",
      "outputs": [
        {
          "internalType": "uint256",
          "name": "",
          "type": "uint256"
        }
      ],
      "stateMutability": "view",
      "type": "function"
    },
    {
      "inputs": [],
      "name": "releaseReward2",
      "outputs": [
        {
          "internalType": "uint256",
          "name": "",
          "type": "uint256"
        }
      ],
      "stateMutability": "view",
      "type": "function"
    },
    {
      "inputs": [],
      "name": "remainReward",
      "outputs": [
        {
          "internalType": "uint256",
          "name": "",
          "type": "uint256"
        }
      ],
      "stateMutability": "view",
      "type": "function"
    },
    {
      "inputs": [],
      "name": "poolLength",
      "outputs": [
        {
          "internalType": "uint256",
          "name": "",
          "type": "uint256"
        }
      ],
      "stateMutability": "view",
      "type": "function"
    },
    {
      "inputs": [
        {
          "internalType": "uint256",
          "name": "_powerRate",
          "type": "uint256"
        },
        {
          "internalType": "contract IERC20",
          "name": "_token",
          "type": "address"
        },
        {
          "internalType": "contract IERC20",
          "name": "_token2",
          "type": "address"
        },
        {
          "internalType": "bool",
          "name": "_isLp",
          "type": "bool"
        },
        {
          "internalType": "uint32",
          "name": "timeBlocks",
          "type": "uint32"
        },
        {
          "internalType": "bool",
          "name": "_withUpdate",
          "type": "bool"
        }
      ],
      "name": "addPool",
      "outputs": [],
      "stateMutability": "nonpayable",
      "type": "function"
    },
    {
      "inputs": [
        {
          "internalType": "uint256",
          "name": "_pid",
          "type": "uint256"
        },
        {
          "internalType": "uint256",
          "name": "_powerRate",
          "type": "uint256"
        },
        {
          "internalType": "bool",
          "name": "_withUpdate",
          "type": "bool"
        }
      ],
      "name": "setPool",
      "outputs": [],
      "stateMutability": "nonpayable",
      "type": "function"
    },
    {
      "inputs": [
        {
          "internalType": "address",
          "name": "parent",
          "type": "address"
        }
      ],
      "name": "setInvite",
      "outputs": [],
      "stateMutability": "nonpayable",
      "type": "function"
    },
    {
      "inputs": [
        {
          "internalType": "bool",
          "name": "enable",
          "type": "bool"
        }
      ],
      "name": "setInviteEnable",
      "outputs": [],
      "stateMutability": "nonpayable",
      "type": "function"
    },
    {
      "inputs": [
        {
          "internalType": "uint8",
          "name": "layer",
          "type": "uint8"
        }
      ],
      "name": "setMaxInviteLayer",
      "outputs": [],
      "stateMutability": "nonpayable",
      "type": "function"
    },
    {
      "inputs": [
        {
          "internalType": "address",
          "name": "addr",
          "type": "address"
        }
      ],
      "name": "getInviteInfo",
      "outputs": [
        {
          "internalType": "uint16",
          "name": "",
          "type": "uint16"
        },
        {
          "internalType": "uint256",
          "name": "",
          "type": "uint256"
        },
        {
          "internalType": "uint256",
          "name": "",
          "type": "uint256"
        },
        {
          "internalType": "address",
          "name": "",
          "type": "address"
        }
      ],
      "stateMutability": "view",
      "type": "function"
    },
    {
      "inputs": [
        {
          "internalType": "uint256",
          "name": "_from",
          "type": "uint256"
        },
        {
          "internalType": "uint256",
          "name": "_to",
          "type": "uint256"
        }
      ],
      "name": "getMultiplier",
      "outputs": [
        {
          "internalType": "uint256",
          "name": "",
          "type": "uint256"
        }
      ],
      "stateMutability": "pure",
      "type": "function"
    },
    {
      "inputs": [
        {
          "internalType": "uint256",
          "name": "_pid",
          "type": "uint256"
        },
        {
          "internalType": "address",
          "name": "_user",
          "type": "address"
        }
      ],
      "name": "pendingReward",
      "outputs": [
        {
          "internalType": "uint256",
          "name": "",
          "type": "uint256"
        }
      ],
      "stateMutability": "view",
      "type": "function"
    },
    {
      "inputs": [],
      "name": "updateReward",
      "outputs": [],
      "stateMutability": "nonpayable",
      "type": "function"
    },
    {
      "inputs": [
        {
          "internalType": "uint256",
          "name": "_pid",
          "type": "uint256"
        },
        {
          "internalType": "uint256",
          "name": "_amount",
          "type": "uint256"
        }
      ],
      "name": "deposit",
      "outputs": [
        {
          "internalType": "bool",
          "name": "",
          "type": "bool"
        }
      ],
      "stateMutability": "nonpayable",
      "type": "function"
    },
    {
      "inputs": [
        {
          "internalType": "uint256",
          "name": "_pid",
          "type": "uint256"
        },
        {
          "internalType": "uint256",
          "name": "_amount",
          "type": "uint256"
        },
        {
          "internalType": "uint16",
          "name": "nft1",
          "type": "uint16"
        },
        {
          "internalType": "uint16",
          "name": "nft2",
          "type": "uint16"
        },
        {
          "internalType": "uint16",
          "name": "nft3",
          "type": "uint16"
        }
      ],
      "name": "depositWithNFT",
      "outputs": [],
      "stateMutability": "nonpayable",
      "type": "function"
    },
    {
      "inputs": [
        {
          "internalType": "uint256",
          "name": "_pid",
          "type": "uint256"
        }
      ],
      "name": "harvest",
      "outputs": [],
      "stateMutability": "nonpayable",
      "type": "function"
    },
    {
      "inputs": [
        {
          "internalType": "uint256",
          "name": "_pid",
          "type": "uint256"
        },
        {
          "internalType": "uint256",
          "name": "_amount",
          "type": "uint256"
        }
      ],
      "name": "withdraw",
      "outputs": [],
      "stateMutability": "nonpayable",
      "type": "function"
    },
    {
      "inputs": [
        {
          "internalType": "uint256",
          "name": "_pid",
          "type": "uint256"
        }
      ],
      "name": "emergencyWithdraw",
      "outputs": [],
      "stateMutability": "nonpayable",
      "type": "function"
    }
  ],
  "bytecode": "0x60e06040526103e860809081526107d060a052610bb860c0526200002890600590600362000255565b506006805461ffff191661050017905560408051610120810182526000608080830182815260a080850184905260c0850184905260e08501849052610100850184905290845284518082018652600f808252600c602080840182905283890187905260608085018890528487018890528189019490945288518086018a526014815280820193909352600a838a0152828401879052828601969096528688019190915286519283018752601683526012948301859052601096830196909652600e8282015291810194909452820192909252620001089190600462000305565b5060006014553480156200011b57600080fd5b5060405162003555380380620035558339810160408190526200013e916200045a565b620001493362000205565b6006805462010000600160b01b031916620100006001600160a01b038b81169190910291909117909155600880546001600160a01b031990811688841617909155600980548216878416179055600c8590556015849055600a83905560018054909116918916919091179055438210620001c657601554620001c8565b435b6002555050506001600160a01b039092166000908152600f6020526040812080546001600160a01b03191633179055600455506200050b92505050565b600080546001600160a01b038381166001600160a01b0319831681178455604051919092169283917f8be0079c531659141344cd1fd0a4f28419497f9722a3daafe3b4186f6b6457e09190a35050565b82805482825590600052602060002090600f01601090048101928215620002f35791602002820160005b83821115620002c157835183826101000a81548161ffff021916908361ffff16021790555092602001926002016020816001010492830192600103026200027f565b8015620002f15782816101000a81549061ffff0219169055600201602081600101049283019260010302620002c1565b505b50620003019291506200035f565b5090565b82805482825590600052602060002090810192821562000351579160200282015b828111156200035157825162000340908390600562000376565b509160200191906001019062000326565b50620003019291506200040f565b5b8082111562000301576000815560010162000360565b82805482825590600052602060002090601f01602090048101928215620002f35791602002820160005b83821115620003e057835183826101000a81548160ff021916908360ff1602179055509260200192600101602081600001049283019260010302620003a0565b8015620002f15782816101000a81549060ff0219169055600101602081600001049283019260010302620003e0565b808211156200030157600062000426828262000430565b506001016200040f565b50805460008255601f0160209004906000526020600020908101906200045791906200035f565b50565b600080600080600080600080610100898b0312156200047857600080fd5b88516200048581620004f5565b60208a01519098506200049881620004f5565b60408a0151909750620004ab81620004f5565b60608a0151909650620004be81620004f5565b60808a0151909550620004d181620004f5565b60a08a015160c08b015160e0909b0151999c989b5096999598909790945092505050565b6001600160a01b03811681146200045757600080fd5b61303a806200051b6000396000f3fe608060405234801561001057600080fd5b50600436106102745760003560e01c8063715018a611610151578063d06fcba8116100c3578063dea4d67811610087578063dea4d678146106c2578063e2bbb158146106d5578063f0884f9f146106e8578063f2fde38b14610708578063f36c0a721461071b578063f53f8e941461072357600080fd5b8063d06fcba81461066d578063d49e77cd14610680578063d4cc41c514610693578063db3ad22c146106a6578063ddc63262146106af57600080fd5b80638aa28550116101155780638aa285501461061c5780638da5cb5b146106245780638dbb1e3a1461063557806398969e8214610648578063a0f015ab1461065b578063a9f8d1811461066457600080fd5b8063715018a6146105dc578063750142e6146105e45780637d515a10146105ed5780638043c10c1461060057806384413b651461060957600080fd5b80634569d415116101ea5780635312ea8e116101ae5780635312ea8e1461056257806354ce5f56146105755780635cab2c08146105925780635e490652146105a557806360fc9c42146105ad5780636c18005b146105d357600080fd5b80634569d4151461047957806345d3f197146104a357806346ca6bea1461052657806348cd4cb1146105395780634d6e34521461054257600080fd5b806317caf6f11161023c57806317caf6f1146103615780632613f87d1461036a578063280e31cc1461038d5780634294c09b146103c257806342f2ca02146103d4578063441a3e701461046657600080fd5b8063081e3eda146102795780630dfcaac6146102905780631485ff78146102d1578063150b7a02146102d95780631526fe2714610310575b600080fd5b600d545b6040519081526020015b60405180910390f35b6102b961029e366004612ae1565b600f602052600090815260409020546001600160a01b031681565b6040516001600160a01b039091168152602001610287565b61027d61073c565b6102f76102e7366004612b1b565b630a85bd0160e11b949350505050565b6040516001600160e01b03199091168152602001610287565b61032361031e366004612c35565b610753565b604080516001600160a01b0396871681529590941660208601529115159284019290925263ffffffff9091166060830152608082015260a001610287565b61027d60145481565b61038b610378366004612bfb565b6006805460ff1916911515919091179055565b005b6103b061039b366004612ae1565b60106020526000908152604090205460ff1681565b60405160ff9091168152602001610287565b6006546103b090610100900460ff1681565b6104316103e2366004612c67565b6013602052816000526040600020602052806000526040600020600091509150508060000154908060010154908060020154908060030154908060040154908060050154908060060154905087565b604080519788526020880196909652948601939093526060850191909152608084015260a083015260c082015260e001610287565b61038b610474366004612d19565b6107ae565b61038b610487366004612dcb565b6006805460ff9092166101000261ff0019909216919091179055565b6104f86104b1366004612ae1565b6001600160a01b03808216600090815260106020908152604080832054600e8352818420546011845282852054600f909452919093205460ff909316939092169193509193565b6040805161ffff90951685526020850193909352918301526001600160a01b03166060820152608001610287565b61038b610534366004612d3b565b610c9d565b61027d60155481565b61027d610550366004612ae1565b600e6020526000908152604090205481565b61038b610570366004612c35565b610d03565b6006546105829060ff1681565b6040519015158152602001610287565b61038b6105a0366004612ae1565b610f25565b61027d61107a565b6105c06105bb366004612c35565b61109c565b60405161ffff9091168152602001610287565b61027d60035481565b61038b6110d4565b61027d600a5481565b6008546102b9906001600160a01b031681565b61027d600b5481565b6009546102b9906001600160a01b031681565b61027d600a81565b6000546001600160a01b03166102b9565b61027d610643366004612d19565b61110a565b61027d610656366004612c67565b61111f565b61027d600c5481565b61027d60025481565b6001546102b9906001600160a01b031681565b6007546102b9906001600160a01b031681565b61038b6106a1366004612c97565b611203565b61027d60045481565b61038b6106bd366004612c35565b61135a565b61038b6106d0366004612d74565b61145d565b6105826106e3366004612d19565b611df3565b61027d6106f6366004612ae1565b60116020526000908152604090205481565b61038b610716366004612ae1565b612198565b61038b612233565b6006546102b9906201000090046001600160a01b031681565b6000600b54600a5461074e9190612f2d565b905090565b600d818154811061076357600080fd5b60009182526020909120600390910201805460018201546002909201546001600160a01b03918216935090821691600160a01b810460ff1691600160a81b90910463ffffffff169085565b6000600d83815481106107c3576107c3612fa6565b6000918252602080832086845260138252604080852033865290925292208054600390920290920192508311156108365760405162461bcd60e51b81526020600482015260126024820152711dda5d1a191c985dce881b9bdd0819dbdbd960721b60448201526064015b60405180910390fd5b6000600354116108925760405162461bcd60e51b815260206004820152602160248201527f61636343686150657253686172652073686f756c64206e6f74206265207a65726044820152606f60f81b606482015260840161082d565b43816002015411156108e65760405162461bcd60e51b815260206004820181905260248201527f43616e6e6f7420776974686472617720776974682064617973206c696d69742e604482015260640161082d565b6108ee612233565b600380820154905482546109129164e8d4a510009161090c91612339565b90612345565b111561095857600061094a826003015461094464e8d4a5100061090c600354876000015461233990919063ffffffff16565b90612351565b9050610956338261235d565b505b6001820154600160a01b900460ff1615610a1257600182015481546001600160a01b039091169063a9059cbb903390610992906004612345565b6040516001600160e01b031960e085901b1681526001600160a01b0390921660048301526024820152604401602060405180830381600087803b1580156109d857600080fd5b505af11580156109ec573d6000803e3d6000fd5b505050506040513d601f19601f82011682018060405250810190610a109190612c18565b505b815460405163a9059cbb60e01b8152336004820152602481018590526001600160a01b039091169063a9059cbb90604401602060405180830381600087803b158015610a5d57600080fd5b505af1158015610a71573d6000803e3d6000fd5b505050506040513d601f19601f82011682018060405250810190610a959190612c18565b50600481015415610b0957600154600480830154604051632142170760e11b81526001600160a01b03909316926342842e0e92610ad6923092339201612e48565b600060405180830381600087803b158015610af057600080fd5b505af1158015610b04573d6000803e3d6000fd5b505050505b600581015415610b7d576001546005820154604051632142170760e11b81526001600160a01b03909216916342842e0e91610b4a9130913391600401612e48565b600060405180830381600087803b158015610b6457600080fd5b505af1158015610b78573d6000803e3d6000fd5b505050505b600681015415610bf1576001546006820154604051632142170760e11b81526001600160a01b03909216916342842e0e91610bbe9130913391600401612e48565b600060405180830381600087803b158015610bd857600080fd5b505af1158015610bec573d6000803e3d6000fd5b505050505b6001810154600454610c0291612351565b6004556001810154336000908152600e6020526040902054610c2391612351565b336000818152600e60205260408082209390935560018401819055808455600484018190556005840181905560068401819055600384015590518591907ff279e6a1f5e320cca91135676d9cb6e44ca8a08c0b88342bcdb1144f6511b56890610c8f9087815260200190565b60405180910390a350505050565b6000546001600160a01b03163314610cc75760405162461bcd60e51b815260040161082d90612e9f565b8015610cd557610cd5612233565b81600d8481548110610ce957610ce9612fa6565b906000526020600020906003020160020181905550505050565b6000600d8281548110610d1857610d18612fa6565b6000918252602080832085845260138252604080852033865290925292206002810154600390920290920192504311610d935760405162461bcd60e51b815260206004820181905260248201527f43616e6e6f7420776974686472617720776974682064617973206c696d69742e604482015260640161082d565b80548254610dae916001600160a01b03909116903390612614565b6001820154600160a01b900460ff1615610e6857600182015481546001600160a01b039091169063a9059cbb903390610de8906004612345565b6040516001600160e01b031960e085901b1681526001600160a01b0390921660048301526024820152604401602060405180830381600087803b158015610e2e57600080fd5b505af1158015610e42573d6000803e3d6000fd5b505050506040513d601f19601f82011682018060405250810190610e669190612c18565b505b8054604051908152839033907fbb757047c2b5f3974fe26b7c10f732e7bce710b0952a71082702781e62ae05959060200160405180910390a36001810154336000908152600e6020526040902054610ebf91612351565b336000908152600e60205260409020819055610eda90612677565b336000908152601060205260409020805460ff191660ff929092169190911790556001810154600454610f0c91612351565b6004556000808255600382018190556001909101555050565b336000908152600f60205260409020546001600160a01b031615610f8b5760405162461bcd60e51b815260206004820152601760248201527f596f7520616c726561647920626520696e76697465642e000000000000000000604482015260640161082d565b6001600160a01b038181166000908152600f602052604090205416610ff25760405162461bcd60e51b815260206004820152601e60248201527f506172656e742073686f756c6420626520696e766974652066697273742e0000604482015260640161082d565b6001600160a01b03811633141561104b5760405162461bcd60e51b815260206004820152601b60248201527f596f752063616e6e6f7420696e7669746520796f757273656c662e0000000000604482015260640161082d565b336000908152600f6020526040902080546001600160a01b0319166001600160a01b0392909216919091179055565b600061074e64e8d4a5100061090c60035460045461233990919063ffffffff16565b600581815481106110ac57600080fd5b9060005260206000209060109182820401919006600202915054906101000a900461ffff1681565b6000546001600160a01b031633146110fe5760405162461bcd60e51b815260040161082d90612e9f565b61110860006126b0565b565b60006111168284612351565b90505b92915050565b60008281526013602090815260408083206001600160a01b0385168452909152812060035460028201544390811115611159575060028201545b6002548111801561116b575060045415155b156111f757600061117e6002548361110a565b90506000611197600c548361233990919063ffffffff16565b90506111c16111ba60045461090c64e8d4a510008561233990919063ffffffff16565b8590612700565b93506111eb856003015461094464e8d4a5100061090c888a6001015461233990919063ffffffff16565b95505050505050611119565b50600095945050505050565b6000546001600160a01b0316331461122d5760405162461bcd60e51b815260040161082d90612e9f565b801561123b5761123b612233565b506040805160a0810182526001600160a01b0395861681529385166020850190815292151590840190815263ffffffff9182166060850190815260808501968752600d8054600181018255600091909152945160039095027fd7b6990105719101dabeb77144f2a3385c8033acd3af97e9423a695e81ad1eb5810180549688166001600160a01b03199097169690961790955592517fd7b6990105719101dabeb77144f2a3385c8033acd3af97e9423a695e81ad1eb68501805492519451909316600160a81b0263ffffffff60a81b19941515600160a01b026001600160a81b0319909316919096161717919091169290921790915590517fd7b6990105719101dabeb77144f2a3385c8033acd3af97e9423a695e81ad1eb790910155565b6000818152601360209081526040808320338452909152902061137b612233565b60006113a7826003015461094464e8d4a5100061090c600354876001015461233990919063ffffffff16565b9050600081116113f05760405162461bcd60e51b81526020600482015260146024820152731a185c9d995cdd0e881b9bdb99481c995dd85c9960621b604482015260640161082d565b6113fa338261235d565b61141c64e8d4a5100061090c600354856001015461233990919063ffffffff16565b6003830155604051818152839033907f71bab65ced2e5750775a0613be067df48ef06cf92a496ebf7663ae06609249549060200160405180910390a3505050565b6000600d868154811061147257611472612fa6565b60009182526020808320898452601382526040808520338652835293849020845160e08101865281548152600182015493810193909352600281015494830194909452600380850154606084015260048501546080840152600585015460a084015260069094015460c0830152919092020191506114ee612233565b80511561152f576000611521826060015161094464e8d4a5100061090c600354876020015161233990919063ffffffff16565b905061152d338261235d565b505b81546040516323b872dd60e01b81526001600160a01b03909116906323b872dd9061156290339030908b90600401612e48565b602060405180830381600087803b15801561157c57600080fd5b505af1158015611590573d6000803e3d6000fd5b505050506040513d601f19601f820116820180604052508101906115b49190612c18565b506001820154600160a01b900460ff161561165b5760018201546001600160a01b03166323b872dd33306115e98a6004612345565b6040518463ffffffff1660e01b815260040161160793929190612e48565b602060405180830381600087803b15801561162157600080fd5b505af1158015611635573d6000803e3d6000fd5b505050506040513d601f19601f820116820180604052508101906116599190612c18565b505b80516116679087612700565b815260028201546000908190819061ffff89161580159061170d57506001546040516331a9108f60e11b815261ffff8b16600482015233916001600160a01b031690636352211e9060240160206040518083038186803b1580156116ca57600080fd5b505afa1580156116de573d6000803e3d6000fd5b505050506040513d601f19601f820116820180604052508101906117029190612afe565b6001600160a01b0316145b1561183b576001546040516336af181960e11b815261ffff8b1660048201526001600160a01b0390911690636d5e30329060240160206040518083038186803b15801561175957600080fd5b505afa15801561176d573d6000803e3d6000fd5b505050506040513d601f19601f820116820180604052508101906117919190612de8565b60ff169350600584815481106117a9576117a9612fa6565b600091825260209091206010820401546117d391600f166002026101000a900461ffff1682612ed4565b600154604051632142170760e11b81529192506001600160a01b0316906342842e0e9061180890339030908e90600401612e21565b600060405180830381600087803b15801561182257600080fd5b505af1158015611836573d6000803e3d6000fd5b505050505b60008861ffff161180156118d457506001546040516331a9108f60e11b815261ffff8a16600482015233916001600160a01b031690636352211e9060240160206040518083038186803b15801561189157600080fd5b505afa1580156118a5573d6000803e3d6000fd5b505050506040513d601f19601f820116820180604052508101906118c99190612afe565b6001600160a01b0316145b15611a02576001546040516336af181960e11b815261ffff8a1660048201526001600160a01b0390911690636d5e30329060240160206040518083038186803b15801561192057600080fd5b505afa158015611934573d6000803e3d6000fd5b505050506040513d601f19601f820116820180604052508101906119589190612de8565b60ff1692506005838154811061197057611970612fa6565b6000918252602090912060108204015461199a91600f166002026101000a900461ffff1682612ed4565b600154604051632142170760e11b81529192506001600160a01b0316906342842e0e906119cf90339030908d90600401612e21565b600060405180830381600087803b1580156119e957600080fd5b505af11580156119fd573d6000803e3d6000fd5b505050505b60008761ffff16118015611a9b57506001546040516331a9108f60e11b815261ffff8916600482015233916001600160a01b031690636352211e9060240160206040518083038186803b158015611a5857600080fd5b505afa158015611a6c573d6000803e3d6000fd5b505050506040513d601f19601f82011682018060405250810190611a909190612afe565b6001600160a01b0316145b15611bc9576001546040516336af181960e11b815261ffff891660048201526001600160a01b0390911690636d5e30329060240160206040518083038186803b158015611ae757600080fd5b505afa158015611afb573d6000803e3d6000fd5b505050506040513d601f19601f82011682018060405250810190611b1f9190612de8565b60ff16915060058281548110611b3757611b37612fa6565b60009182526020909120601082040154611b6191600f166002026101000a900461ffff1682612ed4565b600154604051632142170760e11b81529192506001600160a01b0316906342842e0e90611b9690339030908c90600401612e21565b600060405180830381600087803b158015611bb057600080fd5b505af1158015611bc4573d6000803e3d6000fd5b505050505b836002148015611bd857508284145b8015611be357508183145b15611bf757611bf481613a98612ed4565b90505b6000611c096103e861090c8d85612339565b6020870151909150611c1b9082612700565b6020870152600454611c2d9082612700565b600455336000908152600e6020526040902054611c4a9082612700565b336000908152600e602052604090205560018701544390611c7d90829063ffffffff600160a81b90910481169061270016565b60408089019190915261ffff808d1660808a01528b811660a08a01528a1660c0890152336000908152600e6020522054611cb690612677565b336000908152601060209081526040909120805460ff191660ff939093169290921790915560035490880151611cf69164e8d4a510009161090c91612339565b87606001818152505086601360008f81526020019081526020016000206000336001600160a01b03166001600160a01b03168152602001908152602001600020600082015181600001556020820151816001015560408201518160020155606082015181600301556080820151816004015560a0820151816005015560c082015181600601559050508c336001600160a01b03167f12683d1bce24a39469d43b532a00fb65c26276ed57dbd35b204c720380597f7e8e8e8e8e604051611ddc949392919093845261ffff9283166020850152908216604084015216606082015260800190565b60405180910390a350505050505050505050505050565b600080600d8481548110611e0957611e09612fa6565b60009182526020808320878452601382526040808520338652835293849020845160e08101865281548152600182015493810193909352600281015494830194909452600380850154606084015260048501546080840152600585015460a084015260069094015460c083015291909202019150611e85612233565b60065460ff16151560011415611efa57336000908152600f60205260409020546001600160a01b0316611efa5760405162461bcd60e51b815260206004820152601a60248201527f596f75206e65656420626520696e76697465642066697273742e000000000000604482015260640161082d565b805115611f3b576000611f2d826060015161094464e8d4a5100061090c600354876020015161233990919063ffffffff16565b9050611f39338261235d565b505b81546040516323b872dd60e01b81526001600160a01b03909116906323b872dd90611f6e90339030908990600401612e48565b602060405180830381600087803b158015611f8857600080fd5b505af1158015611f9c573d6000803e3d6000fd5b505050506040513d601f19601f82011682018060405250810190611fc09190612c18565b506001820154600160a01b900460ff1615611ffb57611ffb3330611fe5876004612345565b60018601546001600160a01b031692919061270c565b80516120079085612700565b81526002820154600090612024906103e89061090c908890612339565b60208301519091506120369082612700565b60208301526004546120489082612700565b600455336000908152600e60205260409020546120659082612700565b336000908152600e60205260409020556001830154439061209890829063ffffffff600160a81b90910481169061270016565b604080850191909152336000908152600e60205220546120b790612677565b336000908152601060209081526040909120805460ff191660ff9390931692909217909155600354908401516120f79164e8d4a510009161090c91612339565b606084019081526000888152601360209081526040808320338085529083529281902087518155828801516001820155818801516002820155935160038501556080870151600485015560a0870151600585015560c0870151600690940193909355915188815289927f90890809c654f11d6e72a28fa60149770a0d11ec6c92319d6ceb2bb0a4ea1a15910160405180910390a35060019695505050505050565b6000546001600160a01b031633146121c25760405162461bcd60e51b815260040161082d90612e9f565b6001600160a01b0381166122275760405162461bcd60e51b815260206004820152602660248201527f4f776e61626c653a206e6577206f776e657220697320746865207a65726f206160448201526564647265737360d01b606482015260840161082d565b612230816126b0565b50565b600061224c600b54600a5461235190919063ffffffff16565b9050600254431115801561225e575080155b156122665750565b600454612274575043600255565b4360025411156122c65760405162461bcd60e51b815260206004820152601960248201527f6c617374526577617264426c6f636b206e6f742076616c696400000000000000604482015260640161082d565b60006122d46002544361110a565b905060006122ed600c548361233990919063ffffffff16565b9050808310156122fa5750815b600b546123079082612700565b600b5560045461232d906123249061090c8464e8d4a51000612339565b60035490612700565b60035550504360025550565b60006111168284612f0e565b60006111168284612eec565b60006111168284612f2d565b6006546040516370a0823160e01b81523060048201526000916201000090046001600160a01b0316906370a082319060240160206040518083038186803b1580156123a757600080fd5b505afa1580156123bb573d6000803e3d6000fd5b505050506040513d601f19601f820116820180604052508101906123df9190612c4e565b9050808211156123ed578091505b6006546008546001600160a01b036201000090920482169163a9059cbb911661241c606461090c876002612339565b6040516001600160e01b031960e085901b1681526001600160a01b0390921660048301526024820152604401602060405180830381600087803b15801561246257600080fd5b505af1158015612476573d6000803e3d6000fd5b505050506040513d601f19601f8201168201806040525081019061249a9190612c18565b506006546009546001600160a01b036201000090920482169163a9059cbb91166124ca606461090c87600a612339565b6040516001600160e01b031960e085901b1681526001600160a01b0390921660048301526024820152604401602060405180830381600087803b15801561251057600080fd5b505af1158015612524573d6000803e3d6000fd5b505050506040513d601f19601f820116820180604052508101906125489190612c18565b506006546201000090046001600160a01b031663a9059cbb8461257b612574606461090c88600c612339565b8690612351565b6040516001600160e01b031960e085901b1681526001600160a01b0390921660048301526024820152604401602060405180830381600087803b1580156125c157600080fd5b505af11580156125d5573d6000803e3d6000fd5b505050506040513d601f19601f820116820180604052508101906125f99190612c18565b5060065460ff161561260f5761260f8383612733565b505050565b6040516001600160a01b03831660248201526044810182905261260f90849063a9059cbb60e01b906064015b60408051601f198184030181529190526020810180516001600160e01b03166001600160e01b03199093169290921790915261287e565b60008061268c83670de0b6b3a7640000612345565b9250600090506103e88310611119575060016107d083106111195750600292915050565b600080546001600160a01b038381166001600160a01b0319831681178455604051919092169283917f8be0079c531659141344cd1fd0a4f28419497f9722a3daafe3b4186f6b6457e09190a35050565b60006111168284612ed4565b61272d846323b872dd60e01b85858560405160240161264093929190612e48565b50505050565b60005b60065460ff6101009091048116908216101561260f576001600160a01b038084166000908152600f6020526040902054168015806127855750836001600160a01b0316816001600160a01b0316145b156127905750505050565b6001600160a01b0381166000908152601060205260408120546012805460ff9092169291839081106127c4576127c4612fa6565b906000526020600020018460ff16815481106127e2576127e2612fa6565b60009182526020918290209181049091015460ff601f9092166101000a90041690508061281157505050505050565b6000612825606461090c8860ff8616612339565b6001600160a01b03851660009081526011602052604090205490915061284b9082612700565b6001600160a01b03851660009081526011602052604090205550919450829150612876905081612f70565b915050612736565b60006128d3826040518060400160405280602081526020017f5361666545524332303a206c6f772d6c6576656c2063616c6c206661696c6564815250856001600160a01b03166129509092919063ffffffff16565b80519091501561260f57808060200190518101906128f19190612c18565b61260f5760405162461bcd60e51b815260206004820152602a60248201527f5361666545524332303a204552433230206f7065726174696f6e20646964206e6044820152691bdd081cdd58d8d9595960b21b606482015260840161082d565b606061295f8484600085612969565b90505b9392505050565b6060824710156129ca5760405162461bcd60e51b815260206004820152602660248201527f416464726573733a20696e73756666696369656e742062616c616e636520666f6044820152651c8818d85b1b60d21b606482015260840161082d565b843b612a185760405162461bcd60e51b815260206004820152601d60248201527f416464726573733a2063616c6c20746f206e6f6e2d636f6e7472616374000000604482015260640161082d565b600080866001600160a01b03168587604051612a349190612e05565b60006040518083038185875af1925050503d8060008114612a71576040519150601f19603f3d011682016040523d82523d6000602084013e612a76565b606091505b5091509150612a86828286612a91565b979650505050505050565b60608315612aa0575081612962565b825115612ab05782518084602001fd5b8160405162461bcd60e51b815260040161082d9190612e6c565b803561ffff81168114612adc57600080fd5b919050565b600060208284031215612af357600080fd5b813561296281612fd2565b600060208284031215612b1057600080fd5b815161296281612fd2565b60008060008060808587031215612b3157600080fd5b8435612b3c81612fd2565b93506020850135612b4c81612fd2565b925060408501359150606085013567ffffffffffffffff80821115612b7057600080fd5b818701915087601f830112612b8457600080fd5b813581811115612b9657612b96612fbc565b604051601f8201601f19908116603f01168101908382118183101715612bbe57612bbe612fbc565b816040528281528a6020848701011115612bd757600080fd5b82602086016020830137600060208483010152809550505050505092959194509250565b600060208284031215612c0d57600080fd5b813561296281612fe7565b600060208284031215612c2a57600080fd5b815161296281612fe7565b600060208284031215612c4757600080fd5b5035919050565b600060208284031215612c6057600080fd5b5051919050565b60008060408385031215612c7a57600080fd5b823591506020830135612c8c81612fd2565b809150509250929050565b60008060008060008060c08789031215612cb057600080fd5b863595506020870135612cc281612fd2565b94506040870135612cd281612fd2565b93506060870135612ce281612fe7565b9250608087013563ffffffff81168114612cfb57600080fd5b915060a0870135612d0b81612fe7565b809150509295509295509295565b60008060408385031215612d2c57600080fd5b50508035926020909101359150565b600080600060608486031215612d5057600080fd5b83359250602084013591506040840135612d6981612fe7565b809150509250925092565b600080600080600060a08688031215612d8c57600080fd5b8535945060208601359350612da360408701612aca565b9250612db160608701612aca565b9150612dbf60808701612aca565b90509295509295909350565b600060208284031215612ddd57600080fd5b813561296281612ff5565b600060208284031215612dfa57600080fd5b815161296281612ff5565b60008251612e17818460208701612f44565b9190910192915050565b6001600160a01b03938416815291909216602082015261ffff909116604082015260600190565b6001600160a01b039384168152919092166020820152604081019190915260600190565b6020815260008251806020840152612e8b816040850160208701612f44565b601f01601f19169190910160400192915050565b6020808252818101527f4f776e61626c653a2063616c6c6572206973206e6f7420746865206f776e6572604082015260600190565b60008219821115612ee757612ee7612f90565b500190565b600082612f0957634e487b7160e01b600052601260045260246000fd5b500490565b6000816000190483118215151615612f2857612f28612f90565b500290565b600082821015612f3f57612f3f612f90565b500390565b60005b83811015612f5f578181015183820152602001612f47565b8381111561272d5750506000910152565b600060ff821660ff811415612f8757612f87612f90565b60010192915050565b634e487b7160e01b600052601160045260246000fd5b634e487b7160e01b600052603260045260246000fd5b634e487b7160e01b600052604160045260246000fd5b6001600160a01b038116811461223057600080fd5b801515811461223057600080fd5b60ff8116811461223057600080fdfea26469706673582212203ed099b4aa8f1eb7f40f5cd671594b2618264f448e5056cb36f6648c98fa32fb64736f6c63430008060033",
  "immutableReferences": {},
  "source": "// SPDX-License-Identifier: MIT\npragma solidity ^0.8.0;\n\nimport \"./utils/math/SafeMath.sol\";\nimport \"./utils/Address.sol\";\nimport \"./access/Ownable.sol\";\n\nimport \"./token/ERC721/IERC721.sol\";\nimport \"./token/ERC721/IERC721Card.sol\";\nimport \"./token/ERC20/IERC20.sol\";\nimport \"./token/ERC721/utils/ERC721Holder.sol\";\nimport \"./token/ERC20/utils/SafeERC20.sol\";\n\ninterface IMigratorChef {\n    // Perform LP token migration from legacy UniswapV2 to ChaSwap.\n    // Take the current LP token address and return the new LP token address.\n    // Migrator should have full access to the caller's LP token.\n    // Return the new LP token address.\n    //\n    // XXX Migrator must have allowance access to UniswapV2 LP tokens.\n    // ChaSwap must mint EXACTLY the same amount of ChaSwap LP tokens or\n    // else something bad will happen. Traditional UniswapV2 does not\n    // do that so be careful!\n    function migrate(IERC20 token) external returns (IERC20);\n}\n\n// BeanPool is the master of Reward. He can make Reward and he is a fair guy.\n//\n// Note that it's ownable and the owner wields tremendous power. The ownership\n// will be transferred to a governance smart contract once CHA is sufficiently\n// distributed and the community can show to govern itself.\n//\n// Have fun reading it. Hopefully it's bug-free. God bless.\ncontract BeanPool is Ownable,ERC721Holder {\n    using SafeMath for uint256;\n    using SafeERC20 for IERC20;\n    // Info of each user.\n    // struct UserInfo {\n    //     uint256 amount; // How many LP tokens the user has provided.\n    //     uint256 rewardDebt; // Reward debt. See explanation below.\n    //     //\n    //     // We do some fancy math here. Basically, any point in time, the amount of CHA\n    //     // entitled to a user but is pending to be distributed is:\n    //     //\n    //     //   pending reward = (user.amount * accChaPerShare) - user.rewardDebt\n    //     //\n    //     // Whenever a user deposits or withdraws LP tokens to a pool. Here's what happens:\n    //     //   1. The pool's `accChaPerShare` (and `lastRewardBlock`) gets updated.\n    //     //   2. User receives the pending reward sent to his/her address.\n    //     //   3. User's `amount` gets updated.\n    //     //   4. User's `rewardDebt` gets updated.\n    // }\n\n    struct InviteInfo {\n        address parent;\n        uint256 totalPower;\n    }\n\n    // Miner information describe miner. One should has many Miners;\n    struct MinerInfo {\n        uint256 amount; // \n        uint256 power; // \n        uint256 endBlock; // block\n        uint256 rewardDebt; // Reward debt. See explanation below.\n        uint256 nft1;\n        uint256 nft2;\n        uint256 nft3;\n    }\n    // Info of each pool. pool is set manully.\n    struct PoolInfo {\n        IERC20 lpToken; // Address of LP token contract.\n        IERC20 lpToken2; // Address of LP token contract.\n        bool isLp; // if isLp is true we should have a usdt token.\n        uint32 timeBlocks; // timeBlocks;\n        uint256 powerRate; // The power rate assigned to this pool. times 1000.\n    }\n    \n    IERC721Card public nftToken;\n    uint256 public lastRewardBlock; // Last block number that CHAs distribution occurs.\n    uint256 public accChaPerShare; // Accumulated CHAs per share, times 1e12. See below.\n    // Total power\n    uint256 public totalPower;\n    uint16[] public nftRate = [1000, 2000, 3000]; // times 1000\n\n    // Invite\n    bool public inviteForce = false;\n    uint8 public maxInviteLayer = 5;\n    // The CHA TOKEN!\n    IERC20 public panToken;\n    // Dev address.\n    address public devaddr;\n    address public blackholeAddress;\n    address public airdropAddress;\n    // address public liquidAddress;\n    // Block number when bonus CHA period ends.\n    // uint256 public bonusEndBlock;\n    // Total reward for miner\n    uint256 public totalReward;\n    // Total released reward\n    uint256 public releasedReward;\n    // CHA tokens created per block.\n    uint256 public chaPerBlock;\n    // Bonus muliplier for early panToken makers.\n    uint256 public constant BONUS_MULTIPLIER = 10;\n    // The migrator contract. It has a lot of power. Can only be set through governance (owner).\n    // IMigratorChef public migrator;\n    // Info of each pool.\n    PoolInfo[] public poolInfo;\n    // Info of each user that stakes LP tokens.\n    mapping(address => uint256) public userPower;\n    mapping(address => address) public userParent;\n    mapping(address => uint8) public userLevel;\n    mapping(address => uint256) public inviteReward;\n    // mapping(uint8 => mapping(uint8 => uint8)) memory inviteRatio;\n    uint8[][] inviteRatio = [[0,0,0,0,0],[15,12,0,0,0],[20,15,10,0,0],[22,18,16,14,12]];\n    mapping(uint256 => mapping(address => MinerInfo)) public minerInfo;\n    // Total allocation poitns. Must be the sum of all allocation points in all pools.\n    uint256 public totalAllocPoint = 0;\n    // The block number when CHA mining starts.\n    uint256 public startBlock;\n    event Deposit(address indexed user, uint256 indexed pid, uint256 amount);\n    event DepositWithNFT(address indexed user, uint256 indexed pid, uint256 amount,\n        uint16 nft1, uint16 nft2, uint16 nft3);\n    event Withdraw(address indexed user, uint256 indexed pid, uint256 amount);\n    event Harvest(address indexed user, uint256 indexed pid, uint256 amount);\n    event EmergencyWithdraw(\n        address indexed user,\n        uint256 indexed pid,\n        uint256 amount\n    );\n\n    constructor(\n        IERC20 _chaAddress,\n        IERC721Card _nftAddress,\n        address initInviteAddress,\n        address _blackholeAddress,\n        address _airdropAddress,\n        // address _liquidAddress,\n        uint256 _chaPerBlock,\n        uint256 _startBlock,\n        uint256 _totalReward\n    ) {\n        panToken = _chaAddress;\n        blackholeAddress = _blackholeAddress;\n        airdropAddress = _airdropAddress;\n        // liquidAddress = _liquidAddress;\n        chaPerBlock = _chaPerBlock;\n        // bonusEndBlock = _bonusEndBlock;\n        startBlock = _startBlock;\n        totalReward = _totalReward;\n        nftToken = IERC721Card(_nftAddress);\n        lastRewardBlock =\n            block.number > startBlock ? block.number : startBlock;\n        // totalAllocPoint = totalAllocPoint.add(_allocPoint);\n        userParent[initInviteAddress] = msg.sender;\n        totalPower = 0;\n    }\n\n    // function totalReward() external view returns (uint256) {\n    //     return totalReward;\n    // }\n\n    // function releasedReward() external view returns (uint256) {\n    //     return releasedReward;\n    // }\n\n    function releaseReward2() external view returns (uint256) {\n        return totalPower.mul(accChaPerShare).div(1e12);\n    }\n\n    function remainReward() external view returns (uint256) {\n        return totalReward - releasedReward;\n    }\n\n    function poolLength() external view returns (uint256) {\n        return poolInfo.length;\n    }\n\n    // Add a new lp to the pool. Can only be called by the owner.\n    // XXX DO NOT add the same LP token more than once. Rewards will be messed up if you do.\n    function addPool(\n        uint256 _powerRate,\n        IERC20 _token,\n        IERC20 _token2,\n        bool _isLp,\n        uint32 timeBlocks,\n        bool _withUpdate\n    ) public onlyOwner {\n        if (_withUpdate) {\n            updateReward();\n        }\n        \n        poolInfo.push(\n            PoolInfo({\n                lpToken: _token,\n                lpToken2: _token2,\n                isLp: _isLp,\n                timeBlocks: timeBlocks,\n                powerRate: _powerRate\n            })\n        );\n    }\n\n    // Update the given pool's CHA power rate. Can only be called by the owner.\n    function setPool(\n        uint256 _pid,\n        uint256 _powerRate,\n        bool _withUpdate\n    ) public onlyOwner {\n        if (_withUpdate) {\n            updateReward();\n        }\n        poolInfo[_pid].powerRate = _powerRate;\n    }\n\n    function setInvite(\n        address parent\n    ) public {\n        require(userParent[msg.sender] == address(0), \"You already be invited.\");\n        require(userParent[parent] != address(0), \"Parent should be invite first.\");\n        require(parent != msg.sender, \"You cannot invite yourself.\");\n        userParent[msg.sender] = parent;\n    }\n\n    function setInviteEnable(\n        bool enable\n    ) public {\n        inviteForce = enable;\n    }\n\n    function setMaxInviteLayer(uint8 layer) public {\n        maxInviteLayer = layer;\n    }\n\n    // Set the migrator contract. Can only be called by the owner.\n    // function setMigrator(IMigratorChef _migrator) public onlyOwner {\n    //     migrator = _migrator;\n    // }\n\n    // // Migrate lp token to another lp contract. Can be called by anyone. We trust that migrator contract is good.\n    // function migrate(uint256 _pid) public {\n    //     require(address(migrator) != address(0), \"migrate: no migrator\");\n    //     PoolInfo storage pool = poolInfo[_pid];\n    //     IERC20 lpToken = pool.lpToken;\n    //     uint256 bal = lpToken.balanceOf(address(this));\n    //     lpToken.safeApprove(address(migrator), bal);\n    //     IERC20 newLpToken = migrator.migrate(lpToken);\n    //     require(bal == newLpToken.balanceOf(address(this)), \"migrate: bad\");\n    //     pool.lpToken = newLpToken;\n    // }\n    function getInviteInfo(address addr) public view returns (uint16, uint256, uint256, address){\n        return (userLevel[addr],userPower[addr], inviteReward[addr], userParent[addr]);\n    }\n    // Return reward multiplier over the given _from to _to block.\n    function getMultiplier(uint256 _from, uint256 _to)\n        public\n        pure\n        returns (uint256)\n    {\n        return _to.sub(_from);\n        // if (_to <= bonusEndBlock) {\n        //     return _to.sub(_from).mul(BONUS_MULTIPLIER);\n        // } else if (_from >= bonusEndBlock) {\n        //     return _to.sub(_from);\n        // } else {\n        //     return\n        //         bonusEndBlock.sub(_from).mul(BONUS_MULTIPLIER).add(\n        //             _to.sub(bonusEndBlock)\n        //         );\n        // }\n    }\n\n    // View function to see pending CHA on frontend.\n    function pendingReward(uint256 _pid, address _user)\n        external\n        view\n        returns (uint256)\n    {\n        // PoolInfo storage pool = poolInfo[_pid];\n        MinerInfo storage miner = minerInfo[_pid][_user];\n        uint256 accCha = accChaPerShare;\n        uint256 endBlock = block.number;\n        if (block.number > miner.endBlock) {\n            endBlock = miner.endBlock;\n        }\n        if (endBlock > lastRewardBlock && totalPower != 0) {\n            uint256 multiplier =\n                getMultiplier(lastRewardBlock, endBlock);\n            uint256 chaReward = multiplier.mul(chaPerBlock);\n            accCha = accCha.add(\n                chaReward.mul(1e12).div(totalPower)\n            );\n            return miner.power.mul(accCha).div(1e12).sub(miner.rewardDebt);\n        }\n        return 0;\n    }\n\n    // Update reward vairables for all pools. Be careful of gas spending!\n    // function updateReward() public {\n    //     uint256 length = poolInfo.length;\n    //     for (uint256 pid = 0; pid < length; ++pid) {\n    //         updateReward(pid);\n    //     }\n    // }\n\n    // Update reward variables of the given pool to be up-to-date.\n    function updateReward() public {\n        // PoolInfo storage pool = poolInfo[_pid];\n        // uint256 remain = panToken.balanceOf(address(this));\n        uint256 remain = totalReward.sub(releasedReward);\n        if (block.number <= lastRewardBlock && remain <= 0) {\n            return;\n        }\n        if (totalPower == 0) {\n            lastRewardBlock = block.number;\n            return;\n        }\n        require(lastRewardBlock<=block.number, \"lastRewardBlock not valid\");\n        uint256 multiplier = getMultiplier(lastRewardBlock, block.number);\n        uint256 chaReward = multiplier.mul(chaPerBlock);\n        // panToken.mint(devaddr, chaReward.div(10));\n        // panToken.mint(address(this), chaReward);\n        if ( remain < chaReward ) {\n            chaReward = remain;\n        }\n        releasedReward  = releasedReward.add(chaReward);\n        accChaPerShare = accChaPerShare.add(\n            chaReward.mul(1e12).div(totalPower)\n        );\n        lastRewardBlock = block.number;\n    }\n\n\n    // Deposit LP tokens to BeanPool for CHA allocation.\n    function deposit(uint256 _pid, uint256 _amount) public returns (bool){\n        PoolInfo storage pool = poolInfo[_pid];\n        MinerInfo memory miner = minerInfo[_pid][msg.sender];\n        updateReward();\n        if (inviteForce == true) {\n            require(userParent[msg.sender] != address(0), \"You need be invited first.\");\n        }\n        if (miner.amount > 0) {\n            uint256 pending =\n                miner.power.mul(accChaPerShare).div(1e12).sub(\n                    miner.rewardDebt\n                );\n            safeChaTransfer(msg.sender, pending);\n        }\n        // pool.lpToken.approve(address(this), _amount);\n        pool.lpToken.transferFrom(\n            address(msg.sender),\n            address(this),\n            _amount\n        );\n        if (pool.isLp) {\n            pool.lpToken2.safeTransferFrom(\n                address(msg.sender),\n                address(this),\n                _amount.div(4)\n            );\n        }\n        miner.amount = miner.amount.add(_amount);\n        uint256 power = _amount.mul(pool.powerRate).div(1000);\n        miner.power = miner.power.add(power);\n        totalPower = totalPower.add(power);\n        userPower[msg.sender] = userPower[msg.sender].add(power);\n        uint256 blockNumber = block.number;\n        miner.endBlock = blockNumber.add(pool.timeBlocks); // * 24 * 1200;\n        userLevel[msg.sender] = getUserLevel(userPower[msg.sender]);\n        miner.rewardDebt = miner.power.mul(accChaPerShare).div(1e12);\n        minerInfo[_pid][msg.sender] = miner;\n        emit Deposit(msg.sender, _pid, _amount);\n        return true;\n    }\n\n    // Deposit LP tokens to BeanPool for CHA allocation.\n    function depositWithNFT(uint256 _pid, uint256 _amount, uint16 nft1, uint16 nft2, uint16 nft3) public {\n        PoolInfo storage pool = poolInfo[_pid];\n        MinerInfo memory miner = minerInfo[_pid][msg.sender];\n        // require(miner.amount == 0, \"You already depsoit this pool.\");\n        updateReward();\n        if (miner.amount > 0) {\n            uint256 pending =\n                miner.power.mul(accChaPerShare).div(1e12).sub(\n                    miner.rewardDebt\n                );\n            safeChaTransfer(msg.sender, pending);\n        }\n        pool.lpToken.transferFrom(\n            address(msg.sender),\n            address(this),\n            _amount\n        );\n        if (pool.isLp) {\n            pool.lpToken2.transferFrom(\n                address(msg.sender),\n                address(this),\n                _amount.div(4)\n            );\n        }\n        miner.amount = miner.amount.add(_amount);\n        uint256 level;\n        uint256 level2;\n        uint256 level3;\n        uint256 rate = pool.powerRate;\n        if (nft1 > 0 && nftToken.ownerOf(nft1) == msg.sender) {\n            level = nftToken.levelOf(nft1);\n            rate += nftRate[level];\n            nftToken.safeTransferFrom(msg.sender, address(this), nft1);\n        }\n        if (nft2 > 0 && nftToken.ownerOf(nft2) == msg.sender) {\n            level2 = nftToken.levelOf(nft2);\n            rate += nftRate[level2];\n            nftToken.safeTransferFrom(msg.sender, address(this), nft2);\n        }\n        if (nft3 > 0 && nftToken.ownerOf(nft3) == msg.sender) {\n            level3 = nftToken.levelOf(nft3);\n            rate += nftRate[level3];\n            nftToken.safeTransferFrom(msg.sender, address(this), nft3);\n        }\n        // \n        if(level == 2 && level == level2 && level2 == level3) {\n            rate = rate + 15000;\n        }\n        uint256 power = _amount.mul(rate).div(1000);\n        miner.power = miner.power.add(power);\n        totalPower = totalPower.add(power);\n        userPower[msg.sender] = userPower[msg.sender].add(power);\n        uint256 blockNumber = block.number;\n        miner.endBlock = blockNumber.add(pool.timeBlocks);\n        miner.nft1 = uint16(nft1);\n        miner.nft2 = uint16(nft2);\n        miner.nft3 = uint16(nft3);\n        userLevel[msg.sender] = getUserLevel(userPower[msg.sender]);\n        miner.rewardDebt = miner.power.mul(accChaPerShare).div(1e12);\n        minerInfo[_pid][msg.sender] = miner;\n        emit DepositWithNFT(msg.sender, _pid, _amount, nft1, nft2, nft3);\n    }\n    function getUserLevel(uint256 power) private pure returns(uint8){\n        uint8 level;\n        power = power.div(1e18);\n        level = 0;\n        if (power >= 1000) {\n            level = 1;\n            if (power >= 2000) {\n                level = 2;\n            }\n        }\n        return level;\n    }\n    // // Get a random 100\n    // Get a random 100\n    function random() private view returns (uint8) {\n        return uint8(uint256(keccak256(abi.encodePacked(block.timestamp, block.difficulty)))%100);\n    }\n    // harvest LP tokens from BeanPool.\n    function harvest(uint256 _pid) public {\n        // PoolInfo storage pool = poolInfo[_pid];\n        MinerInfo storage miner = minerInfo[_pid][msg.sender];\n        updateReward();\n        uint256 pending =\n            miner.power.mul(accChaPerShare).div(1e12).sub(\n                miner.rewardDebt\n            );\n        require(pending > 0, \"harvest: none reward\");\n        safeChaTransfer(msg.sender, pending);\n        miner.rewardDebt = miner.power.mul(accChaPerShare).div(1e12);\n        emit Harvest(msg.sender, _pid, pending);\n    }\n\n    // Withdraw LP tokens from BeanPool.\n    function withdraw(uint256 _pid, uint256 _amount) public {\n        PoolInfo storage pool = poolInfo[_pid];\n        MinerInfo storage miner = minerInfo[_pid][msg.sender];\n        require(miner.amount >= _amount, \"withdraw: not good\");\n        require(accChaPerShare > 0, \"accChaPerShare should not be zero\");\n        require(miner.endBlock <= block.number, \"Cannot withdraw with days limit.\");\n        updateReward();\n        if (miner.amount.mul(accChaPerShare).div(1e12) > miner.rewardDebt) {\n            uint256 pending = miner.amount.mul(accChaPerShare).div(1e12).sub(\n                miner.rewardDebt\n            );\n            safeChaTransfer(msg.sender, pending);\n        }\n        \n        if (pool.isLp) {\n            pool.lpToken2.transfer(\n                msg.sender,\n                miner.amount.div(4) // div(1e6).mul(1e8) equ mul(1e12)\n            );\n        }\n\n        // miner.rewardDebt = miner.power.mul(accChaPerShare).div(1e12);\n        // userLevel[msg.sender] = getUserLevel(userPower[msg.sender]);\n        pool.lpToken.transfer(address(msg.sender), _amount);\n\n        if (miner.nft1 > 0) {\n            nftToken.safeTransferFrom(address(this), msg.sender, miner.nft1);\n        }\n        if (miner.nft2 > 0) {\n            nftToken.safeTransferFrom(address(this), msg.sender, miner.nft2);\n        }\n        if (miner.nft3 > 0) {\n            nftToken.safeTransferFrom(address(this), msg.sender, miner.nft3);\n        }\n\n        // reduce power\n        // uint256 power = miner.power.mul(_amount).div(miner.amount);\n        totalPower = totalPower.sub(miner.power);\n\n        userPower[msg.sender] = userPower[msg.sender].sub(miner.power);\n        //  reduce amount\n        miner.power = 0;\n        miner.amount = 0;\n        miner.nft1 = 0;\n        miner.nft2 = 0;\n        miner.nft3 = 0;\n        miner.rewardDebt = 0;\n        // minerInfo[_pid][msg.sender] = 0;\n\n        emit Withdraw(msg.sender, _pid, _amount);\n    }\n\n    function calculeInviteReward(address child, uint256 total) private {\n\n        for(uint8 layer=0; layer< maxInviteLayer; layer++) {\n            address parent = userParent[child];\n            if (parent == address(0) || parent == child)\n                return;\n            uint8 level = userLevel[parent];\n            uint8 ratio = inviteRatio[level][layer];\n            if (ratio <= 0) {\n                return ;\n            }\n            uint256 reward = total.mul(ratio).div(100);\n            inviteReward[parent] = inviteReward[parent].add(reward);\n            child = parent;\n        }\n    }\n\n    // Withdraw without caring about rewards. EMERGENCY ONLY.\n    function emergencyWithdraw(uint256 _pid) public {\n        PoolInfo storage pool = poolInfo[_pid];\n        MinerInfo storage miner = minerInfo[_pid][msg.sender];\n        require(miner.endBlock < block.number, \"Cannot withdraw with days limit.\");\n        pool.lpToken.safeTransfer(address(msg.sender), miner.amount);\n        if (pool.isLp) {\n            pool.lpToken2.transfer(\n                msg.sender,\n                miner.amount.div(4) // div(1e6).mul(1e8) equ mul(1e12)\n            );\n        }\n        emit EmergencyWithdraw(msg.sender, _pid, miner.amount);\n        userPower[msg.sender] = userPower[msg.sender].sub(miner.power);\n        userLevel[msg.sender] = getUserLevel(userPower[msg.sender]);\n        totalPower = totalPower.sub(miner.power);\n        miner.amount = 0;\n        miner.rewardDebt = 0;\n        miner.power = 0;\n    }\n\n    // Safe panToken transfer function, just in case if rounding error causes pool to not have enough CHA.\n    function safeChaTransfer(address _to, uint256 _amount) internal {\n        uint256 chaBal = panToken.balanceOf(address(this));\n        if (_amount > chaBal) {\n            _amount = chaBal;\n        }\n        panToken.transfer(blackholeAddress, _amount.mul(2).div(100));\n        panToken.transfer(airdropAddress, _amount.mul(10).div(100));\n        // panToken.transfer(liquidAddress, _amount.mul(4).div(100));\n        panToken.transfer(_to, _amount.sub(_amount.mul(12).div(100)));\n        if(inviteForce)\n           calculeInviteReward(_to, _amount);\n    }\n}",
  "sourcePath": "/Users/jilong/solidity/pantheonNFT/contracts/BeanPool.sol",
  "compiler": {
    "name": "solc",
    "version": "0.8.6+commit.11564f7e.Emscripten.clang"
  },
  "schemaVersion": "3.4.3",
  "updatedAt": "2021-09-16T04:44:54.007Z",
  "devdoc": {
    "kind": "dev",
    "methods": {
      "onERC721Received(address,address,uint256,bytes)": {
        "details": "See {IERC721Receiver-onERC721Received}. Always returns `IERC721Receiver.onERC721Received.selector`."
      },
      "owner()": {
        "details": "Returns the address of the current owner."
      },
      "renounceOwnership()": {
        "details": "Leaves the contract without owner. It will not be possible to call `onlyOwner` functions anymore. Can only be called by the current owner. NOTE: Renouncing ownership will leave the contract without an owner, thereby removing any functionality that is only available to the owner."
      },
      "transferOwnership(address)": {
        "details": "Transfers ownership of the contract to a new account (`newOwner`). Can only be called by the current owner."
      }
    },
    "version": 1
  },
  "userdoc": {
    "kind": "user",
    "methods": {},
    "version": 1
  }
}