{
  "contractName": "BeanInviteReward",
  "abi": [
    {
      "inputs": [
        {
          "internalType": "address payable",
          "name": "erc20Address_",
          "type": "address"
        },
        {
          "internalType": "address",
          "name": "poolAddress_",
          "type": "address"
        }
      ],
      "stateMutability": "payable",
      "type": "constructor"
    },
    {
      "anonymous": false,
      "inputs": [
        {
          "indexed": true,
          "internalType": "address",
          "name": "previousOwner",
          "type": "address"
        },
        {
          "indexed": true,
          "internalType": "address",
          "name": "newOwner",
          "type": "address"
        }
      ],
      "name": "OwnershipTransferred",
      "type": "event"
    },
    {
      "anonymous": false,
      "inputs": [
        {
          "indexed": false,
          "internalType": "uint256",
          "name": "amount",
          "type": "uint256"
        },
        {
          "indexed": false,
          "internalType": "uint256",
          "name": "totalReward",
          "type": "uint256"
        },
        {
          "indexed": false,
          "internalType": "uint256",
          "name": "timestamp",
          "type": "uint256"
        }
      ],
      "name": "RewardClaimedEvent",
      "type": "event"
    },
    {
      "inputs": [],
      "name": "chairperson",
      "outputs": [
        {
          "internalType": "address",
          "name": "",
          "type": "address"
        }
      ],
      "stateMutability": "view",
      "type": "function"
    },
    {
      "inputs": [],
      "name": "claimEnabled",
      "outputs": [
        {
          "internalType": "bool",
          "name": "",
          "type": "bool"
        }
      ],
      "stateMutability": "view",
      "type": "function"
    },
    {
      "inputs": [],
      "name": "owner",
      "outputs": [
        {
          "internalType": "address",
          "name": "",
          "type": "address"
        }
      ],
      "stateMutability": "view",
      "type": "function"
    },
    {
      "inputs": [],
      "name": "poolAddress",
      "outputs": [
        {
          "internalType": "address",
          "name": "",
          "type": "address"
        }
      ],
      "stateMutability": "view",
      "type": "function"
    },
    {
      "inputs": [],
      "name": "remainSupply",
      "outputs": [
        {
          "internalType": "uint256",
          "name": "",
          "type": "uint256"
        }
      ],
      "stateMutability": "view",
      "type": "function"
    },
    {
      "inputs": [],
      "name": "renounceOwnership",
      "outputs": [],
      "stateMutability": "nonpayable",
      "type": "function"
    },
    {
      "inputs": [
        {
          "internalType": "address",
          "name": "",
          "type": "address"
        }
      ],
      "name": "rewardInfo",
      "outputs": [
        {
          "internalType": "uint256",
          "name": "lastAmount",
          "type": "uint256"
        },
        {
          "internalType": "uint256",
          "name": "lastClaimTime",
          "type": "uint256"
        }
      ],
      "stateMutability": "view",
      "type": "function"
    },
    {
      "inputs": [],
      "name": "token",
      "outputs": [
        {
          "internalType": "contract IERC20",
          "name": "",
          "type": "address"
        }
      ],
      "stateMutability": "view",
      "type": "function"
    },
    {
      "inputs": [
        {
          "internalType": "address",
          "name": "newOwner",
          "type": "address"
        }
      ],
      "name": "transferOwnership",
      "outputs": [],
      "stateMutability": "nonpayable",
      "type": "function"
    },
    {
      "inputs": [
        {
          "internalType": "address",
          "name": "erc20Address_",
          "type": "address"
        }
      ],
      "name": "setTokenAddress",
      "outputs": [],
      "stateMutability": "nonpayable",
      "type": "function"
    },
    {
      "inputs": [
        {
          "internalType": "address",
          "name": "address_",
          "type": "address"
        }
      ],
      "name": "setPoolAddress",
      "outputs": [],
      "stateMutability": "nonpayable",
      "type": "function"
    },
    {
      "inputs": [
        {
          "internalType": "bool",
          "name": "enable",
          "type": "bool"
        }
      ],
      "name": "setClaimEnabled",
      "outputs": [],
      "stateMutability": "nonpayable",
      "type": "function"
    },
    {
      "inputs": [],
      "name": "release",
      "outputs": [],
      "stateMutability": "nonpayable",
      "type": "function"
    },
    {
      "inputs": [],
      "name": "claimFromInvite",
      "outputs": [
        {
          "internalType": "bool",
          "name": "",
          "type": "bool"
        }
      ],
      "stateMutability": "nonpayable",
      "type": "function"
    },
    {
      "inputs": [
        {
          "internalType": "address",
          "name": "user",
          "type": "address"
        }
      ],
      "name": "getClaimInfo",
      "outputs": [
        {
          "internalType": "uint256",
          "name": "",
          "type": "uint256"
        },
        {
          "internalType": "uint256",
          "name": "",
          "type": "uint256"
        }
      ],
      "stateMutability": "view",
      "type": "function"
    },
    {
      "inputs": [],
      "name": "isClaimEnabled",
      "outputs": [
        {
          "internalType": "bool",
          "name": "",
          "type": "bool"
        }
      ],
      "stateMutability": "view",
      "type": "function"
    }
  ],
  "bytecode": "0x6080604052645d21dba000600155620f424060025562015180600355604051610cb5380380610cb5833981016040819052610039916100e4565b61004233610094565b600480546001600160a01b03199081163317909155600154600555600680546001600160a01b039485169216919091179055600780546001600160a81b0319169190921617600160a01b179055610136565b600080546001600160a01b038381166001600160a01b0319831681178455604051919092169283917f8be0079c531659141344cd1fd0a4f28419497f9722a3daafe3b4186f6b6457e09190a35050565b600080604083850312156100f757600080fd5b82516101028161011e565b60208401519092506101138161011e565b809150509250929050565b6001600160a01b038116811461013357600080fd5b50565b610b70806101456000396000f3fe608060405234801561001057600080fd5b50600436106101005760003560e01c80638da5cb5b11610097578063f2fde38b11610066578063f2fde38b1461022e578063f30e5b2614610241578063f6c9e57014610253578063fc0c546a1461025b57600080fd5b80638da5cb5b146101d057806392929a09146101e1578063cbecf6b5146101f4578063e9e15b4f1461021b57600080fd5b80632e4176cf116100d35780632e4176cf146101965780633f5a3152146101a9578063715018a6146101c057806386d1a69f146101c857600080fd5b80630835fe47146101055780631755ff211461013257806326a4e8d21461015d5780632866ed2114610172575b600080fd5b610118610113366004610a56565b61026e565b604080519283526020830191909152015b60405180910390f35b600754610145906001600160a01b031681565b6040516001600160a01b039091168152602001610129565b61017061016b366004610a56565b61033e565b005b60075461018690600160a01b900460ff1681565b6040519015158152602001610129565b600454610145906001600160a01b031681565b6101b260055481565b604051908152602001610129565b6101706103a6565b6101706103dc565b6000546001600160a01b0316610145565b6101706101ef366004610a7f565b61054d565b610118610202366004610a56565b6008602052600090815260409020805460019091015482565b610170610229366004610a56565b610595565b61017061023c366004610a56565b610620565b600754600160a01b900460ff16610186565b6101866106b8565b600654610145906001600160a01b031681565b6001600160a01b038181166000818152600860209081526040808320815180830183528154815260019091015492810192909252600754905163f0884f9f60e01b8152600481019490945291938493919216908390829063f0884f9f9060240160206040518083038186803b1580156102e657600080fd5b505afa1580156102fa573d6000803e3d6000fd5b505050506040513d601f19601f8201168201806040525081019061031e9190610ab9565b83519091506000906103319083906109f3565b9791965090945050505050565b6000546001600160a01b031633146103715760405162461bcd60e51b815260040161036890610ad2565b60405180910390fd5b6001600160a01b03811661038457600080fd5b600680546001600160a01b0319166001600160a01b0392909216919091179055565b6000546001600160a01b031633146103d05760405162461bcd60e51b815260040161036890610ad2565b6103da6000610a06565b565b6000546001600160a01b031633146104065760405162461bcd60e51b815260040161036890610ad2565b600654600480546040516370a0823160e01b815230928101929092526001600160a01b039283169263a9059cbb9291169083906370a082319060240160206040518083038186803b15801561045a57600080fd5b505afa15801561046e573d6000803e3d6000fd5b505050506040513d601f19601f820116820180604052508101906104929190610ab9565b6040516001600160e01b031960e085901b1681526001600160a01b0390921660048301526024820152604401602060405180830381600087803b1580156104d857600080fd5b505af11580156104ec573d6000803e3d6000fd5b505050506040513d601f19601f820116820180604052508101906105109190610a9c565b506004546040516001600160a01b03909116904780156108fc02916000818181858888f1935050505015801561054a573d6000803e3d6000fd5b50565b6000546001600160a01b031633146105775760405162461bcd60e51b815260040161036890610ad2565b60078054911515600160a01b0260ff60a01b19909216919091179055565b6000546001600160a01b031633146105bf5760405162461bcd60e51b815260040161036890610ad2565b6001600160a01b0381166105d257600080fd5b6001600160a01b0381163014156105e857600080fd5b6001600160a01b0381163314156105fe57600080fd5b600780546001600160a01b0319166001600160a01b0392909216919091179055565b6000546001600160a01b0316331461064a5760405162461bcd60e51b815260040161036890610ad2565b6001600160a01b0381166106af5760405162461bcd60e51b815260206004820152602660248201527f4f776e61626c653a206e6577206f776e657220697320746865207a65726f206160448201526564647265737360d01b6064820152608401610368565b61054a81610a06565b600754600090600160a01b900460ff1661070c5760405162461bcd60e51b81526020600482015260156024820152742a34329031b630b4b69034b9903234b9b0b136329760591b6044820152606401610368565b336000818152600860209081526040808320815180830183528154815260019091015492810192909252600754905163f0884f9f60e01b81526004810194909452909242926001600160a01b039092169190829063f0884f9f9060240160206040518083038186803b15801561078157600080fd5b505afa158015610795573d6000803e3d6000fd5b505050506040513d601f19601f820116820180604052508101906107b99190610ab9565b84519091506000906107cc9083906109f3565b905068056bc75e2d631000008110156108325760405162461bcd60e51b815260206004820152602260248201527f54686520726577617264206973206c6974746c65207468616e20313030207061604482015261371760f11b6064820152608401610368565b6006546040516370a0823160e01b815230600482015282916001600160a01b0316906370a082319060240160206040518083038186803b15801561087557600080fd5b505afa158015610889573d6000803e3d6000fd5b505050506040513d601f19601f820116820180604052508101906108ad9190610ab9565b10156108fb5760405162461bcd60e51b815260206004820181905260248201527f52657761726420706f6f6c2068617320696e76616c69642062616c616e63652e6044820152606401610368565b60065460405163a9059cbb60e01b8152336004820152602481018390526001600160a01b039091169063a9059cbb90604401602060405180830381600087803b15801561094757600080fd5b505af115801561095b573d6000803e3d6000fd5b505050506040513d601f19601f8201168201806040525081019061097f9190610a9c565b50818552602080860185815233600090815260088352604090819020885181559151600190920191909155805183815291820184905281018590527ff02bb9690f1ae4d8254c18a9f4c4f5fdd939fbadeb6c1931997f7da0307940049060600160405180910390a160019550505050505090565b60006109ff8284610b07565b9392505050565b600080546001600160a01b038381166001600160a01b0319831681178455604051919092169283917f8be0079c531659141344cd1fd0a4f28419497f9722a3daafe3b4186f6b6457e09190a35050565b600060208284031215610a6857600080fd5b81356001600160a01b03811681146109ff57600080fd5b600060208284031215610a9157600080fd5b81356109ff81610b2c565b600060208284031215610aae57600080fd5b81516109ff81610b2c565b600060208284031215610acb57600080fd5b5051919050565b6020808252818101527f4f776e61626c653a2063616c6c6572206973206e6f7420746865206f776e6572604082015260600190565b600082821015610b2757634e487b7160e01b600052601160045260246000fd5b500390565b801515811461054a57600080fdfea2646970667358221220b43265d28170d4d93508d4585ecee53fe98fb75582337aa8d4251aa80d55be5864736f6c63430008060033",
  "immutableReferences": {},
  "source": "// SPDX-License-Identifier: MIT\npragma solidity ^0.8.0;\n\nimport \"./utils/math/SafeMath.sol\";\nimport \"./utils/Address.sol\";\nimport \"./access/Ownable.sol\";\nimport \"./token/ERC20/IERC20.sol\";\nimport \"./BeanPool.sol\";\n\ncontract BeanInviteReward is Ownable{\n\n  uint TOTAL_PAN_SUPPLY = 40*10**10; // 40*10^10 400000\n  uint MIN_PAN_CLAIM = 1*10**6; // 1 PAN\n  uint MIN_CLAIM_TIMEOFF = 24* 3600; // 1Day\n\n  struct Reward {\n    uint lastAmount;\n    uint lastClaimTime;\n  }\n\n  using SafeMath for uint;\n  // \n  address public chairperson;\n  // \n  uint public remainSupply;\n  // Token\n  IERC20 public token;\n  // Pool token\n  address public poolAddress;\n  // Claim is enabled\n  bool public claimEnabled;\n  // IDO\n  mapping(address => Reward) public rewardInfo;\n  // Event\n  event RewardClaimedEvent(uint amount, uint totalReward, uint timestamp);\n\n  // \n  // ido \n  constructor(\n    address payable erc20Address_,\n    address poolAddress_\n    ) payable {\n  \tchairperson = msg.sender;\n  \tremainSupply = TOTAL_PAN_SUPPLY;\n  \ttoken = IERC20(erc20Address_);\n    poolAddress = poolAddress_;\n    claimEnabled = true;\n  }\n  \n  function setTokenAddress(address erc20Address_) public onlyOwner{\n    require(erc20Address_ != address(0));\n     token = IERC20(erc20Address_);\n  }\n\n  function setPoolAddress(address address_) public onlyOwner{\n    require(address_ != address(0));\n    require(address_ != address(this));\n    require(address_ != msg.sender);\n    poolAddress = address_;\n  }\n\n  function setClaimEnabled(bool enable) public onlyOwner {\n    claimEnabled = enable;\n  }\n  \n  function release() public  onlyOwner {\n      token.transfer(chairperson, token.balanceOf(address(this)));\n      payable(chairperson).transfer(address(this).balance);\n  }\n  \n  // claim\n  function claimFromInvite() public returns (bool){\n  \trequire(claimEnabled, \"The claim is disable.\");\n  \tReward memory reward = rewardInfo[msg.sender];\n    \n    // Get current reward info from Pool address\n    uint timestamp = block.timestamp;\n    // require(timestamp.sub(reward.lastClaimTime) >= MIN_CLAIM_TIMEOFF, \"You claim too frequency.\");\n    \n    // Transfer\n    BeanPool poolContract = BeanPool(poolAddress);\n    uint totalReward = poolContract.inviteReward(msg.sender);\n    uint amount = totalReward.sub(reward.lastAmount);\n  \trequire(amount >=100e18, \"The reward is little than 100 pan.\");\n    require(token.balanceOf(address(this)) >= amount, \"Reward pool has invalid balance.\");\n    \n    token.transfer(msg.sender, amount);\n\n    reward.lastAmount = totalReward;\n    reward.lastClaimTime = timestamp;\n    rewardInfo[msg.sender] = reward;\n    emit RewardClaimedEvent(amount, totalReward, timestamp);\n    return true;\n  }\n\n  function getClaimInfo(address user) public view returns(uint,uint) {\n    Reward memory reward = rewardInfo[user];\n    BeanPool poolContract = BeanPool(poolAddress);\n    uint totalReward = poolContract.inviteReward(user);\n    uint amount = totalReward.sub(reward.lastAmount);\n    return (amount, totalReward);\n  }\n\n  function isClaimEnabled() public view returns(bool) {\n    return claimEnabled;\n  }\n\n}\n",
  "sourcePath": "/Users/jilong/solidity/pantheonNFT/contracts/BeanInviteReward.sol",
  "compiler": {
    "name": "solc",
    "version": "0.8.6+commit.11564f7e.Emscripten.clang"
  },
  "schemaVersion": "3.4.3",
  "updatedAt": "2021-09-16T06:08:15.752Z",
  "devdoc": {
    "kind": "dev",
    "methods": {
      "owner()": {
        "details": "Returns the address of the current owner."
      },
      "renounceOwnership()": {
        "details": "Leaves the contract without owner. It will not be possible to call `onlyOwner` functions anymore. Can only be called by the current owner. NOTE: Renouncing ownership will leave the contract without an owner, thereby removing any functionality that is only available to the owner."
      },
      "transferOwnership(address)": {
        "details": "Transfers ownership of the contract to a new account (`newOwner`). Can only be called by the current owner."
      }
    },
    "version": 1
  },
  "userdoc": {
    "kind": "user",
    "methods": {},
    "version": 1
  }
}