{
  "contractName": "BeanInviteReward",
  "abi": [
    {
      "inputs": [
        {
          "internalType": "address payable",
          "name": "erc20Address_",
          "type": "address"
        },
        {
          "internalType": "address",
          "name": "poolAddress_",
          "type": "address"
        }
      ],
      "stateMutability": "payable",
      "type": "constructor"
    },
    {
      "anonymous": false,
      "inputs": [
        {
          "indexed": true,
          "internalType": "address",
          "name": "previousOwner",
          "type": "address"
        },
        {
          "indexed": true,
          "internalType": "address",
          "name": "newOwner",
          "type": "address"
        }
      ],
      "name": "OwnershipTransferred",
      "type": "event"
    },
    {
      "anonymous": false,
      "inputs": [
        {
          "indexed": false,
          "internalType": "uint256",
          "name": "amount",
          "type": "uint256"
        },
        {
          "indexed": false,
          "internalType": "uint256",
          "name": "totalReward",
          "type": "uint256"
        },
        {
          "indexed": false,
          "internalType": "uint256",
          "name": "timestamp",
          "type": "uint256"
        }
      ],
      "name": "RewardClaimedEvent",
      "type": "event"
    },
    {
      "inputs": [],
      "name": "chairperson",
      "outputs": [
        {
          "internalType": "address",
          "name": "",
          "type": "address"
        }
      ],
      "stateMutability": "view",
      "type": "function"
    },
    {
      "inputs": [],
      "name": "claimEnabled",
      "outputs": [
        {
          "internalType": "bool",
          "name": "",
          "type": "bool"
        }
      ],
      "stateMutability": "view",
      "type": "function"
    },
    {
      "inputs": [],
      "name": "owner",
      "outputs": [
        {
          "internalType": "address",
          "name": "",
          "type": "address"
        }
      ],
      "stateMutability": "view",
      "type": "function"
    },
    {
      "inputs": [],
      "name": "poolAddress",
      "outputs": [
        {
          "internalType": "address",
          "name": "",
          "type": "address"
        }
      ],
      "stateMutability": "view",
      "type": "function"
    },
    {
      "inputs": [],
      "name": "remainSupply",
      "outputs": [
        {
          "internalType": "uint256",
          "name": "",
          "type": "uint256"
        }
      ],
      "stateMutability": "view",
      "type": "function"
    },
    {
      "inputs": [],
      "name": "renounceOwnership",
      "outputs": [],
      "stateMutability": "nonpayable",
      "type": "function"
    },
    {
      "inputs": [
        {
          "internalType": "address",
          "name": "",
          "type": "address"
        }
      ],
      "name": "rewardInfo",
      "outputs": [
        {
          "internalType": "uint256",
          "name": "lastAmount",
          "type": "uint256"
        },
        {
          "internalType": "uint256",
          "name": "extraReward",
          "type": "uint256"
        },
        {
          "internalType": "uint256",
          "name": "lastClaimTime",
          "type": "uint256"
        }
      ],
      "stateMutability": "view",
      "type": "function"
    },
    {
      "inputs": [],
      "name": "token",
      "outputs": [
        {
          "internalType": "contract IERC20",
          "name": "",
          "type": "address"
        }
      ],
      "stateMutability": "view",
      "type": "function"
    },
    {
      "inputs": [
        {
          "internalType": "address",
          "name": "newOwner",
          "type": "address"
        }
      ],
      "name": "transferOwnership",
      "outputs": [],
      "stateMutability": "nonpayable",
      "type": "function"
    },
    {
      "inputs": [
        {
          "internalType": "address",
          "name": "erc20Address_",
          "type": "address"
        }
      ],
      "name": "setTokenAddress",
      "outputs": [],
      "stateMutability": "nonpayable",
      "type": "function"
    },
    {
      "inputs": [
        {
          "internalType": "address",
          "name": "address_",
          "type": "address"
        }
      ],
      "name": "setPoolAddress",
      "outputs": [],
      "stateMutability": "nonpayable",
      "type": "function"
    },
    {
      "inputs": [
        {
          "internalType": "bool",
          "name": "enable",
          "type": "bool"
        }
      ],
      "name": "setClaimEnabled",
      "outputs": [],
      "stateMutability": "nonpayable",
      "type": "function"
    },
    {
      "inputs": [
        {
          "internalType": "address",
          "name": "user",
          "type": "address"
        },
        {
          "internalType": "uint256",
          "name": "amount",
          "type": "uint256"
        }
      ],
      "name": "setExtraReward",
      "outputs": [],
      "stateMutability": "nonpayable",
      "type": "function"
    },
    {
      "inputs": [],
      "name": "release",
      "outputs": [],
      "stateMutability": "nonpayable",
      "type": "function"
    },
    {
      "inputs": [],
      "name": "claimFromInvite",
      "outputs": [
        {
          "internalType": "bool",
          "name": "",
          "type": "bool"
        }
      ],
      "stateMutability": "nonpayable",
      "type": "function"
    },
    {
      "inputs": [
        {
          "internalType": "address",
          "name": "user",
          "type": "address"
        }
      ],
      "name": "getClaimInfo",
      "outputs": [
        {
          "internalType": "uint256",
          "name": "",
          "type": "uint256"
        },
        {
          "internalType": "uint256",
          "name": "",
          "type": "uint256"
        }
      ],
      "stateMutability": "view",
      "type": "function"
    },
    {
      "inputs": [],
      "name": "isClaimEnabled",
      "outputs": [
        {
          "internalType": "bool",
          "name": "",
          "type": "bool"
        }
      ],
      "stateMutability": "view",
      "type": "function"
    }
  ],
  "bytecode": "0x6080604052645d21dba000600155620f424060025562015180600355604051610e57380380610e57833981016040819052610039916100e4565b61004233610094565b600480546001600160a01b03199081163317909155600154600555600680546001600160a01b039485169216919091179055600780546001600160a81b0319169190921617600160a01b179055610136565b600080546001600160a01b038381166001600160a01b0319831681178455604051919092169283917f8be0079c531659141344cd1fd0a4f28419497f9722a3daafe3b4186f6b6457e09190a35050565b600080604083850312156100f757600080fd5b82516101028161011e565b60208401519092506101138161011e565b809150509250929050565b6001600160a01b038116811461013357600080fd5b50565b610d12806101456000396000f3fe608060405234801561001057600080fd5b506004361061010b5760003560e01c806386d1a69f116100a2578063e9e15b4f11610071578063e9e15b4f1461025c578063f2fde38b1461026f578063f30e5b2614610282578063f6c9e57014610294578063fc0c546a1461029c57600080fd5b806386d1a69f146101e65780638da5cb5b146101ee57806392929a09146101ff578063cbecf6b51461021257600080fd5b80632e4176cf116100de5780632e4176cf146101a15780633f5a3152146101b4578063677c8452146101cb578063715018a6146101de57600080fd5b80630835fe47146101105780631755ff211461013d57806326a4e8d2146101685780632866ed211461017d575b600080fd5b61012361011e366004610bbc565b6102af565b604080519283526020830191909152015b60405180910390f35b600754610150906001600160a01b031681565b6040516001600160a01b039091168152602001610134565b61017b610176366004610bbc565b6103a0565b005b60075461019190600160a01b900460ff1681565b6040519015158152602001610134565b600454610150906001600160a01b031681565b6101bd60055481565b604051908152602001610134565b61017b6101d9366004610bd7565b610408565b61017b6104bb565b61017b6104f1565b6000546001600160a01b0316610150565b61017b61020d366004610c01565b610662565b610241610220366004610bbc565b60086020526000908152604090208054600182015460029092015490919083565b60408051938452602084019290925290820152606001610134565b61017b61026a366004610bbc565b6106aa565b61017b61027d366004610bbc565b610735565b600754600160a01b900460ff16610191565b6101916107cd565b600654610150906001600160a01b031681565b6001600160a01b0381811660008181526008602090815260408083208151606081018352815481526001820154938101939093526002015482820152600754905163f0884f9f60e01b8152600481019490945291938493919216908390829063f0884f9f9060240160206040518083038186803b15801561032f57600080fd5b505afa158015610343573d6000803e3d6000fd5b505050506040513d601f19601f820116820180604052508101906103679190610c3b565b9050610380836020015182610b3190919063ffffffff16565b8351909150600090610393908390610b44565b9791965090945050505050565b6000546001600160a01b031633146103d35760405162461bcd60e51b81526004016103ca90610c54565b60405180910390fd5b6001600160a01b0381166103e657600080fd5b600680546001600160a01b0319166001600160a01b0392909216919091179055565b6000546001600160a01b031633146104325760405162461bcd60e51b81526004016103ca90610c54565b6001600160a01b038216600090815260086020908152604091829020825160608101845281548152600182015492810183815260029092015493810193909352839161047f908390610c89565b9052506001600160a01b039092166000908152600860209081526040918290208451815590840151600182015592015160029092019190915550565b6000546001600160a01b031633146104e55760405162461bcd60e51b81526004016103ca90610c54565b6104ef6000610b50565b565b6000546001600160a01b0316331461051b5760405162461bcd60e51b81526004016103ca90610c54565b600654600480546040516370a0823160e01b815230928101929092526001600160a01b039283169263a9059cbb9291169083906370a082319060240160206040518083038186803b15801561056f57600080fd5b505afa158015610583573d6000803e3d6000fd5b505050506040513d601f19601f820116820180604052508101906105a79190610c3b565b6040516001600160e01b031960e085901b1681526001600160a01b0390921660048301526024820152604401602060405180830381600087803b1580156105ed57600080fd5b505af1158015610601573d6000803e3d6000fd5b505050506040513d601f19601f820116820180604052508101906106259190610c1e565b506004546040516001600160a01b03909116904780156108fc02916000818181858888f1935050505015801561065f573d6000803e3d6000fd5b50565b6000546001600160a01b0316331461068c5760405162461bcd60e51b81526004016103ca90610c54565b60078054911515600160a01b0260ff60a01b19909216919091179055565b6000546001600160a01b031633146106d45760405162461bcd60e51b81526004016103ca90610c54565b6001600160a01b0381166106e757600080fd5b6001600160a01b0381163014156106fd57600080fd5b6001600160a01b03811633141561071357600080fd5b600780546001600160a01b0319166001600160a01b0392909216919091179055565b6000546001600160a01b0316331461075f5760405162461bcd60e51b81526004016103ca90610c54565b6001600160a01b0381166107c45760405162461bcd60e51b815260206004820152602660248201527f4f776e61626c653a206e6577206f776e657220697320746865207a65726f206160448201526564647265737360d01b60648201526084016103ca565b61065f81610b50565b600754600090600160a01b900460ff166108215760405162461bcd60e51b81526020600482015260156024820152742a34329031b630b4b69034b9903234b9b0b136329760591b60448201526064016103ca565b3360008181526008602090815260408083208151606081018352815481526001820154938101939093526002015482820152600754905163f0884f9f60e01b81526004810194909452909242926001600160a01b039092169190829063f0884f9f9060240160206040518083038186803b15801561089e57600080fd5b505afa1580156108b2573d6000803e3d6000fd5b505050506040513d601f19601f820116820180604052508101906108d69190610c3b565b90506108ef846020015182610b3190919063ffffffff16565b8451909150600090610902908390610b44565b9050678ac7230489e800008110156109665760405162461bcd60e51b815260206004820152602160248201527f54686520726577617264206973206c6974746c65207468616e2031302070616e6044820152601760f91b60648201526084016103ca565b6006546040516370a0823160e01b815230600482015282916001600160a01b0316906370a082319060240160206040518083038186803b1580156109a957600080fd5b505afa1580156109bd573d6000803e3d6000fd5b505050506040513d601f19601f820116820180604052508101906109e19190610c3b565b1015610a2f5760405162461bcd60e51b815260206004820181905260248201527f52657761726420706f6f6c2068617320696e76616c69642062616c616e63652e60448201526064016103ca565b60065460405163a9059cbb60e01b8152336004820152602481018390526001600160a01b039091169063a9059cbb90604401602060405180830381600087803b158015610a7b57600080fd5b505af1158015610a8f573d6000803e3d6000fd5b505050506040513d601f19601f82011682018060405250810190610ab39190610c1e565b5081855260006020808701828152604080890188815233855260088452938190208951815591516001830155925160029091015581518381529081018490529081018590527ff02bb9690f1ae4d8254c18a9f4c4f5fdd939fbadeb6c1931997f7da0307940049060600160405180910390a160019550505050505090565b6000610b3d8284610c89565b9392505050565b6000610b3d8284610ca1565b600080546001600160a01b038381166001600160a01b0319831681178455604051919092169283917f8be0079c531659141344cd1fd0a4f28419497f9722a3daafe3b4186f6b6457e09190a35050565b80356001600160a01b0381168114610bb757600080fd5b919050565b600060208284031215610bce57600080fd5b610b3d82610ba0565b60008060408385031215610bea57600080fd5b610bf383610ba0565b946020939093013593505050565b600060208284031215610c1357600080fd5b8135610b3d81610cce565b600060208284031215610c3057600080fd5b8151610b3d81610cce565b600060208284031215610c4d57600080fd5b5051919050565b6020808252818101527f4f776e61626c653a2063616c6c6572206973206e6f7420746865206f776e6572604082015260600190565b60008219821115610c9c57610c9c610cb8565b500190565b600082821015610cb357610cb3610cb8565b500390565b634e487b7160e01b600052601160045260246000fd5b801515811461065f57600080fdfea264697066735822122025166de6cdf66b76edef45a2a6dff80e03841c1bb40574ba452c7ee7e92384e664736f6c63430008060033",
  "immutableReferences": {},
  "source": "// SPDX-License-Identifier: MIT\npragma solidity ^0.8.0;\n\nimport \"./utils/math/SafeMath.sol\";\nimport \"./utils/Address.sol\";\nimport \"./access/Ownable.sol\";\nimport \"./token/ERC20/IERC20.sol\";\nimport \"./BeanPool.sol\";\n\ncontract BeanInviteReward is Ownable{\n\n  uint TOTAL_PAN_SUPPLY = 40*10**10; // 40*10^10 400000\n  uint MIN_PAN_CLAIM = 1*10**6; // 1 PAN\n  uint MIN_CLAIM_TIMEOFF = 24* 3600; // 1Day\n\n  struct Reward {\n    uint lastAmount;\n    uint extraReward;\n    uint lastClaimTime;\n  }\n\n  using SafeMath for uint;\n  // \n  address public chairperson;\n  // \n  uint public remainSupply;\n  // Token\n  IERC20 public token;\n  // Pool token\n  address public poolAddress;\n  // Claim is enabled\n  bool public claimEnabled;\n  // IDO\n  mapping(address => Reward) public rewardInfo;\n  // Event\n  event RewardClaimedEvent(uint amount, uint totalReward, uint timestamp);\n\n  // \n  // ido \n  constructor(\n    address payable erc20Address_,\n    address poolAddress_\n    ) payable {\n  \tchairperson = msg.sender;\n  \tremainSupply = TOTAL_PAN_SUPPLY;\n  \ttoken = IERC20(erc20Address_);\n    poolAddress = poolAddress_;\n    claimEnabled = true;\n  }\n  \n  function setTokenAddress(address erc20Address_) public onlyOwner{\n    require(erc20Address_ != address(0));\n     token = IERC20(erc20Address_);\n  }\n\n  function setPoolAddress(address address_) public onlyOwner{\n    require(address_ != address(0));\n    require(address_ != address(this));\n    require(address_ != msg.sender);\n    poolAddress = address_;\n  }\n\n  function setClaimEnabled(bool enable) public onlyOwner {\n    claimEnabled = enable;\n  }\n\n  function setExtraReward(address user, uint amount) public onlyOwner {\n    Reward memory reward = rewardInfo[user];\n    reward.extraReward += amount;\n    rewardInfo[user] = reward;\n  }\n  \n  function release() public  onlyOwner {\n      token.transfer(chairperson, token.balanceOf(address(this)));\n      payable(chairperson).transfer(address(this).balance);\n  }\n  \n  // claim\n  function claimFromInvite() public returns (bool){\n  \trequire(claimEnabled, \"The claim is disable.\");\n  \tReward memory reward = rewardInfo[msg.sender];\n    \n    // Get current reward info from Pool address\n    uint timestamp = block.timestamp;\n    // require(timestamp.sub(reward.lastClaimTime) >= MIN_CLAIM_TIMEOFF, \"You claim too frequency.\");\n    \n    // Transfer\n    BeanPool poolContract = BeanPool(poolAddress);\n    uint totalReward = poolContract.inviteReward(msg.sender);\n    totalReward = totalReward.add(reward.extraReward);\n    uint amount = totalReward.sub(reward.lastAmount);\n  \trequire(amount >=10e18, \"The reward is little than 10 pan.\");\n    require(token.balanceOf(address(this)) >= amount, \"Reward pool has invalid balance.\");\n    token.transfer(msg.sender, amount);\n    reward.lastAmount = totalReward;\n    reward.extraReward = 0;\n    reward.lastClaimTime = timestamp;\n    rewardInfo[msg.sender] = reward;\n    emit RewardClaimedEvent(amount, totalReward, timestamp);\n    return true;\n  }\n\n  function getClaimInfo(address user) public view returns(uint,uint) {\n    Reward memory reward = rewardInfo[user];\n    BeanPool poolContract = BeanPool(poolAddress);\n    uint totalReward = poolContract.inviteReward(user);\n    totalReward = totalReward.add(reward.extraReward);\n    uint amount = totalReward.sub(reward.lastAmount);\n    return (amount, totalReward);\n  }\n\n  function isClaimEnabled() public view returns(bool) {\n    return claimEnabled;\n  }\n\n}\n",
  "sourcePath": "/Users/jilong/solidity/pantheonNFT/contracts/BeanInviteReward.sol",
  "compiler": {
    "name": "solc",
    "version": "0.8.6+commit.11564f7e.Emscripten.clang"
  },
  "schemaVersion": "3.4.3",
  "updatedAt": "2021-09-25T15:33:02.105Z",
  "networkType": "ethereum",
  "devdoc": {
    "kind": "dev",
    "methods": {
      "owner()": {
        "details": "Returns the address of the current owner."
      },
      "renounceOwnership()": {
        "details": "Leaves the contract without owner. It will not be possible to call `onlyOwner` functions anymore. Can only be called by the current owner. NOTE: Renouncing ownership will leave the contract without an owner, thereby removing any functionality that is only available to the owner."
      },
      "transferOwnership(address)": {
        "details": "Transfers ownership of the contract to a new account (`newOwner`). Can only be called by the current owner."
      }
    },
    "version": 1
  },
  "userdoc": {
    "kind": "user",
    "methods": {},
    "version": 1
  }
}