{
  "contractName": "BetaOracleUniswapV2",
  "abi": [
    {
      "inputs": [
        {
          "internalType": "address",
          "name": "_weth",
          "type": "address"
        },
        {
          "internalType": "address",
          "name": "_factory",
          "type": "address"
        },
        {
          "internalType": "uint32",
          "name": "_minTwapTime",
          "type": "uint32"
        }
      ],
      "stateMutability": "nonpayable",
      "type": "constructor"
    },
    {
      "anonymous": false,
      "inputs": [
        {
          "indexed": false,
          "internalType": "address",
          "name": "token",
          "type": "address"
        }
      ],
      "name": "Initialize",
      "type": "event"
    },
    {
      "anonymous": false,
      "inputs": [
        {
          "indexed": true,
          "internalType": "address",
          "name": "token",
          "type": "address"
        },
        {
          "indexed": false,
          "internalType": "uint224",
          "name": "price",
          "type": "uint224"
        }
      ],
      "name": "Observe",
      "type": "event"
    },
    {
      "anonymous": false,
      "inputs": [
        {
          "indexed": true,
          "internalType": "address",
          "name": "token",
          "type": "address"
        },
        {
          "indexed": false,
          "internalType": "address",
          "name": "ext",
          "type": "address"
        }
      ],
      "name": "SetExternal",
      "type": "event"
    },
    {
      "anonymous": false,
      "inputs": [
        {
          "indexed": false,
          "internalType": "address",
          "name": "governor",
          "type": "address"
        }
      ],
      "name": "SetGovernor",
      "type": "event"
    },
    {
      "anonymous": false,
      "inputs": [
        {
          "indexed": false,
          "internalType": "address",
          "name": "pendingGovernor",
          "type": "address"
        }
      ],
      "name": "SetPendingGovernor",
      "type": "event"
    },
    {
      "inputs": [
        {
          "internalType": "address",
          "name": "",
          "type": "address"
        }
      ],
      "name": "exts",
      "outputs": [
        {
          "internalType": "address",
          "name": "",
          "type": "address"
        }
      ],
      "stateMutability": "view",
      "type": "function"
    },
    {
      "inputs": [],
      "name": "factory",
      "outputs": [
        {
          "internalType": "address",
          "name": "",
          "type": "address"
        }
      ],
      "stateMutability": "view",
      "type": "function"
    },
    {
      "inputs": [],
      "name": "governor",
      "outputs": [
        {
          "internalType": "address",
          "name": "",
          "type": "address"
        }
      ],
      "stateMutability": "view",
      "type": "function"
    },
    {
      "inputs": [],
      "name": "minTwapTime",
      "outputs": [
        {
          "internalType": "uint32",
          "name": "",
          "type": "uint32"
        }
      ],
      "stateMutability": "view",
      "type": "function"
    },
    {
      "inputs": [
        {
          "internalType": "address",
          "name": "",
          "type": "address"
        }
      ],
      "name": "observations",
      "outputs": [
        {
          "internalType": "uint256",
          "name": "lastCumu",
          "type": "uint256"
        },
        {
          "internalType": "uint224",
          "name": "lastPrice",
          "type": "uint224"
        },
        {
          "internalType": "uint32",
          "name": "timestamp",
          "type": "uint32"
        }
      ],
      "stateMutability": "view",
      "type": "function"
    },
    {
      "inputs": [],
      "name": "pendingGovernor",
      "outputs": [
        {
          "internalType": "address",
          "name": "",
          "type": "address"
        }
      ],
      "stateMutability": "view",
      "type": "function"
    },
    {
      "inputs": [],
      "name": "weth",
      "outputs": [
        {
          "internalType": "address",
          "name": "",
          "type": "address"
        }
      ],
      "stateMutability": "view",
      "type": "function"
    },
    {
      "inputs": [
        {
          "internalType": "address",
          "name": "_pendingGovernor",
          "type": "address"
        }
      ],
      "name": "setPendingGovernor",
      "outputs": [],
      "stateMutability": "nonpayable",
      "type": "function"
    },
    {
      "inputs": [],
      "name": "acceptGovernor",
      "outputs": [],
      "stateMutability": "nonpayable",
      "type": "function"
    },
    {
      "inputs": [
        {
          "internalType": "address[]",
          "name": "_tokens",
          "type": "address[]"
        },
        {
          "internalType": "address",
          "name": "_ext",
          "type": "address"
        }
      ],
      "name": "setExternalOracle",
      "outputs": [],
      "stateMutability": "nonpayable",
      "type": "function"
    },
    {
      "inputs": [
        {
          "internalType": "address",
          "name": "token",
          "type": "address"
        }
      ],
      "name": "initPriceFromPair",
      "outputs": [],
      "stateMutability": "nonpayable",
      "type": "function"
    },
    {
      "inputs": [
        {
          "internalType": "address[]",
          "name": "tokens",
          "type": "address[]"
        }
      ],
      "name": "massInitPriceFromPair",
      "outputs": [],
      "stateMutability": "nonpayable",
      "type": "function"
    },
    {
      "inputs": [
        {
          "internalType": "address",
          "name": "token",
          "type": "address"
        }
      ],
      "name": "updatePriceFromPair",
      "outputs": [
        {
          "internalType": "uint256",
          "name": "",
          "type": "uint256"
        }
      ],
      "stateMutability": "nonpayable",
      "type": "function"
    },
    {
      "inputs": [
        {
          "internalType": "address[]",
          "name": "tokens",
          "type": "address[]"
        }
      ],
      "name": "massUpdatePriceFromPair",
      "outputs": [
        {
          "internalType": "uint256[]",
          "name": "prices",
          "type": "uint256[]"
        }
      ],
      "stateMutability": "nonpayable",
      "type": "function"
    },
    {
      "inputs": [
        {
          "internalType": "address",
          "name": "token",
          "type": "address"
        }
      ],
      "name": "getAssetETHPrice",
      "outputs": [
        {
          "internalType": "uint256",
          "name": "",
          "type": "uint256"
        }
      ],
      "stateMutability": "nonpayable",
      "type": "function"
    },
    {
      "inputs": [
        {
          "internalType": "address",
          "name": "token",
          "type": "address"
        },
        {
          "internalType": "uint256",
          "name": "amount",
          "type": "uint256"
        }
      ],
      "name": "getAssetETHValue",
      "outputs": [
        {
          "internalType": "uint256",
          "name": "",
          "type": "uint256"
        }
      ],
      "stateMutability": "nonpayable",
      "type": "function"
    },
    {
      "inputs": [
        {
          "internalType": "address",
          "name": "from",
          "type": "address"
        },
        {
          "internalType": "address",
          "name": "to",
          "type": "address"
        },
        {
          "internalType": "uint256",
          "name": "amount",
          "type": "uint256"
        }
      ],
      "name": "convert",
      "outputs": [
        {
          "internalType": "uint256",
          "name": "",
          "type": "uint256"
        }
      ],
      "stateMutability": "nonpayable",
      "type": "function"
    },
    {
      "inputs": [
        {
          "internalType": "address",
          "name": "pair",
          "type": "address"
        }
      ],
      "name": "currentPrice0Cumu",
      "outputs": [
        {
          "internalType": "uint256",
          "name": "price0Cumu",
          "type": "uint256"
        }
      ],
      "stateMutability": "view",
      "type": "function"
    },
    {
      "inputs": [
        {
          "internalType": "address",
          "name": "pair",
          "type": "address"
        }
      ],
      "name": "currentPrice1Cumu",
      "outputs": [
        {
          "internalType": "uint256",
          "name": "price1Cumu",
          "type": "uint256"
        }
      ],
      "stateMutability": "view",
      "type": "function"
    }
  ],
  "bytecode": "0x60e06040523480156200001157600080fd5b50604051620015a7380380620015a78339810160408190526200003491620001e3565b6001600160a01b038316620000905760405162461bcd60e51b815260206004820152601d60248201527f636f6e7374727563746f722f776574682d7a65726f2d6164647265737300000060448201526064015b60405180910390fd5b6001600160a01b038216620000e85760405162461bcd60e51b815260206004820181905260248201527f636f6e7374727563746f722f666163746f72792d7a65726f2d61646472657373604482015260640162000087565b63ffffffff8116620001495760405162461bcd60e51b8152602060048201526024808201527f636f6e7374727563746f722f6d696e2d747761702d74696d652d7a65726f2d76604482015263616c756560e01b606482015260840162000087565b6001600160601b0319606084811b821660805283901b1660a0526001600160e01b031960e082901b1660c052600080546001600160a01b031916339081179091556040519081527fbce074c8369e26e70e1ae2f14fc944da352cfe6f52e2de9572f0c9942a24b7fc9060200160405180910390a150505062000239565b80516001600160a01b0381168114620001de57600080fd5b919050565b600080600060608486031215620001f957600080fd5b6200020484620001c6565b92506200021460208501620001c6565b9150604084015163ffffffff811681146200022e57600080fd5b809150509250925092565b60805160601c60a05160601c60c05160e01c6112fd620002aa600039600081816102a20152610af70152600081816103170152818161075f0152610bcf0152600081816101b701528181610734015281816107df01528181610ba401528181610c510152610d5d01526112fd6000f3fe608060405234801561001057600080fd5b50600436106101215760003560e01c80638a04ff3c116100ad578063c45a015511610071578063c45a015514610312578063d4f4dfe414610339578063e3056a341461034c578063e58bb6391461035f578063f235757f1461036757600080fd5b80638a04ff3c146102355780639a462f8f1461029d578063ae27980d146102d9578063bc388242146102ec578063bd424684146102ff57600080fd5b806327b113ca116100f457806327b113ca1461019f5780633fc8cef3146101b2578063460d5ffa146101d95780636378aa32146101ec57806372b713611461020c57600080fd5b80630c340a2414610126578063144ff194146101565780631e61991114610177578063248391ff1461018c575b600080fd5b600054610139906001600160a01b031681565b6040516001600160a01b0390911681526020015b60405180910390f35b610169610164366004611019565b61037a565b60405190815260200161014d565b61018a610185366004611102565b6104c2565b005b61016961019a366004611053565b61060a565b61018a6101ad3660046110c0565b610644565b6101397f000000000000000000000000000000000000000000000000000000000000000081565b61018a6101e7366004611019565b610690565b6101ff6101fa3660046110c0565b610882565b60405161014d91906111b7565b61013961021a366004611019565b6003602052600090815260409020546001600160a01b031681565b610274610243366004611019565b600260205260009081526040902080546001909101546001600160e01b03811690600160e01b900463ffffffff1683565b604080519384526001600160e01b03909216602084015263ffffffff169082015260600161014d565b6102c47f000000000000000000000000000000000000000000000000000000000000000081565b60405163ffffffff909116815260200161014d565b6101696102e7366004611019565b610934565b6101696102fa366004611019565b610a6b565b61016961030d366004611094565b610d35565b6101397f000000000000000000000000000000000000000000000000000000000000000081565b610169610347366004611019565b610d59565b600154610139906001600160a01b031681565b61018a610e4a565b61018a610375366004611019565b610f03565b600080429050826001600160a01b0316635a3d54936040518163ffffffff1660e01b815260040160206040518083038186803b1580156103b957600080fd5b505afa1580156103cd573d6000803e3d6000fd5b505050506040513d601f19601f820116820180604052508101906103f1919061119e565b91506000806000856001600160a01b0316630902f1ac6040518163ffffffff1660e01b815260040160606040518083038186803b15801561043157600080fd5b505afa158015610445573d6000803e3d6000fd5b505050506040513d601f19601f820116820180604052508101906104699190611159565b92506001600160701b031692506001600160701b031692508363ffffffff168163ffffffff16146104b95780840363ffffffff811683607086901b816104b1576104b161126d565b040286019550505b50505050919050565b6000546001600160a01b031633146105215760405162461bcd60e51b815260206004820152601e60248201527f73657445787465726e616c4f7261636c652f6e6f742d676f7665726e6f72000060448201526064015b60405180910390fd5b60005b8281101561060457816003600086868581811061054357610543611283565b90506020020160208101906105589190611019565b6001600160a01b039081168252602082019290925260400160002080546001600160a01b0319169290911691909117905583838281811061059b5761059b611283565b90506020020160208101906105b09190611019565b6040516001600160a01b03848116825291909116907f6a238cbf889fd9e18ec5a852b4354006cdd576b0f80d18a64e1e87d96d4ddd6d9060200160405180910390a2806105fc8161123c565b915050610524565b50505050565b60008061061685610d59565b9050600061062385610d59565b905080610630838661121d565b61063a91906111fb565b9695505050505050565b60005b8181101561068b5761067983838381811061066457610664611283565b90506020020160208101906101e79190611019565b806106838161123c565b915050610647565b505050565b6001600160a01b03811660009081526002602052604090206001810154600160e01b900463ffffffff16156107155760405162461bcd60e51b815260206004820152602560248201527f696e6974507269636546726f6d506169722f616c72656164792d696e697469616044820152641b1a5e995960da1b6064820152608401610518565b60405163e6a4390560e01b81526001600160a01b0383811660048301527f0000000000000000000000000000000000000000000000000000000000000000811660248301526000917f00000000000000000000000000000000000000000000000000000000000000009091169063e6a439059060440160206040518083038186803b1580156107a357600080fd5b505afa1580156107b7573d6000803e3d6000fd5b505050506040513d601f19601f820116820180604052508101906107db9190611036565b90507f00000000000000000000000000000000000000000000000000000000000000006001600160a01b0316836001600160a01b0316106108245761081f8161037a565b61082d565b61082d81610934565b8255600160e01b4263ffffffff160260018301556040516001600160a01b03841681527f36b1453565f45af7b509b59d5e2eac8f1948ea9e3e193db6663b4101afb6382c9060200160405180910390a1505050565b60608167ffffffffffffffff81111561089d5761089d611299565b6040519080825280602002602001820160405280156108c6578160200160208202803683370190505b50905060005b8281101561092d576108fe8484838181106108e9576108e9611283565b90506020020160208101906102fa9190611019565b82828151811061091057610910611283565b6020908102919091010152806109258161123c565b9150506108cc565b5092915050565b600080429050826001600160a01b0316635909c0d56040518163ffffffff1660e01b815260040160206040518083038186803b15801561097357600080fd5b505afa158015610987573d6000803e3d6000fd5b505050506040513d601f19601f820116820180604052508101906109ab919061119e565b91506000806000856001600160a01b0316630902f1ac6040518163ffffffff1660e01b815260040160606040518083038186803b1580156109eb57600080fd5b505afa1580156109ff573d6000803e3d6000fd5b505050506040513d601f19601f82011682018060405250810190610a239190611159565b92506001600160701b031692506001600160701b031692508363ffffffff168163ffffffff16146104b95780840363ffffffff811684607085901b816104b1576104b161126d565b6001600160a01b03811660009081526002602052604081206001810154600160e01b900463ffffffff1680610aec5760405162461bcd60e51b815260206004820152602160248201527f757064617465507269636546726f6d506169722f756e696e697469616c697a656044820152601960fa1b6064820152608401610518565b4281900363ffffffff7f000000000000000000000000000000000000000000000000000000000000000081169082161015610b855760018301546001600160e01b031680610b7c5760405162461bcd60e51b815260206004820152601c60248201527f757064617465507269636546726f6d506169722f6e6f2d7072696365000000006044820152606401610518565b95945050505050565b60405163e6a4390560e01b81526001600160a01b0386811660048301527f0000000000000000000000000000000000000000000000000000000000000000811660248301526000917f00000000000000000000000000000000000000000000000000000000000000009091169063e6a439059060440160206040518083038186803b158015610c1357600080fd5b505afa158015610c27573d6000803e3d6000fd5b505050506040513d601f19601f82011682018060405250810190610c4b9190611036565b905060007f00000000000000000000000000000000000000000000000000000000000000006001600160a01b0316876001600160a01b031610610c9657610c918261037a565b610c9f565b610c9f82610934565b905060008363ffffffff168660000154830381610cbe57610cbe61126d565b838855046001600160e01b038116600160e01b4263ffffffff1602811760018901556040519081529091506001600160a01b038916907f37063826a3cfcf7bacee74232fe1dbc1526d6b89bbefbb982a7e2d727cd2f28c9060200160405180910390a26001600160e01b0316979650505050505050565b600080610d4184610d59565b90506070610d4f848361121d565b901c949350505050565b60007f00000000000000000000000000000000000000000000000000000000000000006001600160a01b0316826001600160a01b03161415610da05750600160701b919050565b6001600160a01b03808316600090815260036020526040902054168015610e41576040516355cd56ff60e11b81526001600160a01b03848116600483015282169063ab9aadfe9060240160206040518083038186803b158015610e0257600080fd5b505afa158015610e16573d6000803e3d6000fd5b505050506040513d601f19601f82011682018060405250810190610e3a919061119e565b9392505050565b610e3a83610a6b565b6001546001600160a01b03163314610eb05760405162461bcd60e51b815260206004820152602360248201527f616363657074476f7665726e6f722f6e6f742d70656e64696e672d676f7665726044820152623737b960e91b6064820152608401610518565b600180546001600160a01b031990811690915560008054339216821790556040519081527fbce074c8369e26e70e1ae2f14fc944da352cfe6f52e2de9572f0c9942a24b7fc9060200160405180910390a1565b6000546001600160a01b03163314610f5d5760405162461bcd60e51b815260206004820152601f60248201527f73657450656e64696e67476f7665726e6f722f6e6f742d676f7665726e6f72006044820152606401610518565b600180546001600160a01b0319166001600160a01b0383169081179091556040519081527f964dea888b00b2ab53f13dfe7ca334b46e99338c222ae232d98547a1da019f609060200160405180910390a150565b60008083601f840112610fc357600080fd5b50813567ffffffffffffffff811115610fdb57600080fd5b6020830191508360208260051b8501011115610ff657600080fd5b9250929050565b80516001600160701b038116811461101457600080fd5b919050565b60006020828403121561102b57600080fd5b8135610e3a816112af565b60006020828403121561104857600080fd5b8151610e3a816112af565b60008060006060848603121561106857600080fd5b8335611073816112af565b92506020840135611083816112af565b929592945050506040919091013590565b600080604083850312156110a757600080fd5b82356110b2816112af565b946020939093013593505050565b600080602083850312156110d357600080fd5b823567ffffffffffffffff8111156110ea57600080fd5b6110f685828601610fb1565b90969095509350505050565b60008060006040848603121561111757600080fd5b833567ffffffffffffffff81111561112e57600080fd5b61113a86828701610fb1565b909450925050602084013561114e816112af565b809150509250925092565b60008060006060848603121561116e57600080fd5b61117784610ffd565b925061118560208501610ffd565b9150604084015163ffffffff8116811461114e57600080fd5b6000602082840312156111b057600080fd5b5051919050565b6020808252825182820181905260009190848201906040850190845b818110156111ef578351835292840192918401916001016111d3565b50909695505050505050565b60008261121857634e487b7160e01b600052601260045260246000fd5b500490565b600081600019048311821515161561123757611237611257565b500290565b600060001982141561125057611250611257565b5060010190565b634e487b7160e01b600052601160045260246000fd5b634e487b7160e01b600052601260045260246000fd5b634e487b7160e01b600052603260045260246000fd5b634e487b7160e01b600052604160045260246000fd5b6001600160a01b03811681146112c457600080fd5b5056fea2646970667358221220704f95ec1335a4a936fe0fe941d99718b880bf0565b66690b5e945e87fd7103564736f6c63430008060033",
  "immutableReferences": {
    "3990": [
      {
        "length": 32,
        "start": 439
      },
      {
        "length": 32,
        "start": 1844
      },
      {
        "length": 32,
        "start": 2015
      },
      {
        "length": 32,
        "start": 2980
      },
      {
        "length": 32,
        "start": 3153
      },
      {
        "length": 32,
        "start": 3421
      }
    ],
    "3992": [
      {
        "length": 32,
        "start": 791
      },
      {
        "length": 32,
        "start": 1887
      },
      {
        "length": 32,
        "start": 3023
      }
    ],
    "3994": [
      {
        "length": 32,
        "start": 674
      },
      {
        "length": 32,
        "start": 2807
      }
    ]
  },
  "source": "// SPDX-License-Identifier: MIT\npragma solidity ^0.8.0;\n\nimport '../../../interfaces/IUniswapV2Factory.sol';\nimport '../../../interfaces/IUniswapV2Pair.sol';\n\ninterface IBetaOracle {\n  /// @dev Returns the given asset price in ETH (wei), multiplied by 2**112.\n  /// @param token The token to query for asset price\n  function getAssetETHPrice(address token) external returns (uint);\n\n  /// @dev Returns the given asset value in ETH (wei)\n  /// @param token The token to query for asset value\n  /// @param amount The amount of token to query\n  function getAssetETHValue(address token, uint amount) external returns (uint);\n\n  /// @dev Returns the conversion from amount of from` to `to`.\n  /// @param from The source token to convert.\n  /// @param to The destination token to convert.\n  /// @param amount The amount of token for conversion.\n  function convert(\n    address from,\n    address to,\n    uint amount\n  ) external returns (uint);\n}\n\ninterface IExternalOracle {\n  /// @dev Returns the price in terms of ETH for the given token, multiplifed by 2**112.\n  function getETHPx(address token) external view returns (uint);\n}\n\ncontract BetaOracleUniswapV2 is IBetaOracle {\n  event SetGovernor(address governor);\n  event SetPendingGovernor(address pendingGovernor);\n  event Initialize(address token);\n  event Observe(address indexed token, uint224 price);\n  event SetExternal(address indexed token, address ext);\n\n  struct Observation {\n    uint lastCumu;\n    uint224 lastPrice;\n    uint32 timestamp;\n  }\n\n  address public immutable weth;\n  address public immutable factory;\n  uint32 public immutable minTwapTime;\n\n  address public governor;\n  address public pendingGovernor;\n  mapping(address => Observation) public observations;\n  mapping(address => address) public exts;\n\n  /// @dev Initializes the oracle contract.\n  /// @param _weth WETH address.\n  /// @param _factory Uniswap V2 factory address.\n  /// @param _minTwapTime Minimum interval for TWAP time (in seconds).\n  constructor(\n    address _weth,\n    address _factory,\n    uint32 _minTwapTime\n  ) {\n    require(_weth != address(0), 'constructor/weth-zero-address');\n    require(_factory != address(0), 'constructor/factory-zero-address');\n    require(_minTwapTime != 0, 'constructor/min-twap-time-zero-value');\n    weth = _weth;\n    factory = _factory;\n    minTwapTime = _minTwapTime;\n    governor = msg.sender;\n    emit SetGovernor(msg.sender);\n  }\n\n  /// @dev Sets the next governor, which will be in effect when they accept.\n  /// @param _pendingGovernor The next governor address.\n  function setPendingGovernor(address _pendingGovernor) external {\n    require(msg.sender == governor, 'setPendingGovernor/not-governor');\n    pendingGovernor = _pendingGovernor;\n    emit SetPendingGovernor(_pendingGovernor);\n  }\n\n  /// @dev Accepts to become the next governor. Must only be called by the pending governor.\n  function acceptGovernor() external {\n    require(msg.sender == pendingGovernor, 'acceptGovernor/not-pending-governor');\n    pendingGovernor = address(0);\n    governor = msg.sender;\n    emit SetGovernor(msg.sender);\n  }\n\n  /// @dev Updates the external feed contract address for the given tokens by the governor.\n  /// @param _tokens The tokens to update external price oracle contract.\n  /// @param _ext The external price oracle contract.\n  function setExternalOracle(address[] calldata _tokens, address _ext) external {\n    require(msg.sender == governor, 'setExternalOracle/not-governor');\n    for (uint idx = 0; idx < _tokens.length; idx++) {\n      exts[_tokens[idx]] = _ext;\n      emit SetExternal(_tokens[idx], _ext);\n    }\n  }\n\n  /// @dev Initializes data points for price from pair for the given token.\n  /// @param token The token to initialize the price.\n  function initPriceFromPair(address token) public {\n    Observation storage obs = observations[token];\n    require(obs.timestamp == 0, 'initPriceFromPair/already-initialized');\n    address pair = IUniswapV2Factory(factory).getPair(token, weth);\n    obs.lastCumu = token < weth ? currentPrice0Cumu(pair) : currentPrice1Cumu(pair);\n    obs.lastPrice = 0;\n    obs.timestamp = uint32(block.timestamp);\n    emit Initialize(token);\n  }\n\n  /// @dev Utility functions to initialize multiple pair prices at once.\n  /// @param tokens Token list to mass initialize the prices.\n  function massInitPriceFromPair(address[] calldata tokens) external {\n    for (uint idx = 0; idx < tokens.length; idx++) {\n      initPriceFromPair(tokens[idx]);\n    }\n  }\n\n  /// @dev Updates price info for the given token and returns the last price.\n  /// @param token The token to update token-WETH pair price.\n  function updatePriceFromPair(address token) public returns (uint) {\n    Observation storage obs = observations[token];\n    uint32 lastObserved = obs.timestamp;\n    require(lastObserved > 0, 'updatePriceFromPair/uninitialized');\n    unchecked {\n      uint32 timeElapsed = uint32(block.timestamp) - lastObserved; // overflow is desired\n      if (timeElapsed < minTwapTime) {\n        uint lastPrice = obs.lastPrice;\n        require(lastPrice > 0, 'updatePriceFromPair/no-price');\n        return lastPrice;\n      }\n      address pair = IUniswapV2Factory(factory).getPair(token, weth);\n      uint currCumu = token < weth ? currentPrice0Cumu(pair) : currentPrice1Cumu(pair);\n      uint224 price = uint224((currCumu - obs.lastCumu) / timeElapsed); // overflow is desired\n      obs.lastPrice = price;\n      obs.lastCumu = currCumu;\n      obs.timestamp = uint32(block.timestamp);\n      emit Observe(token, price);\n      return price;\n    }\n  }\n\n  /// @dev Utility functions to update multiple pair prices at once.\n  /// @param tokens Token list to mass update prices.\n  function massUpdatePriceFromPair(address[] calldata tokens)\n    external\n    returns (uint[] memory prices)\n  {\n    prices = new uint[](tokens.length);\n    for (uint idx = 0; idx < tokens.length; idx++) {\n      prices[idx] = updatePriceFromPair(tokens[idx]);\n    }\n  }\n\n  /// @dev Returns the price of the given asset in terms of ETH (wei), multiplied by 2**112.\n  /// @param token The token to get asset price of.\n  function getAssetETHPrice(address token) public override returns (uint) {\n    if (token == weth) {\n      return (1 << 112);\n    }\n    address ext = exts[token];\n    if (ext != address(0)) {\n      return IExternalOracle(ext).getETHPx(token);\n    }\n    return updatePriceFromPair(token);\n  }\n\n  /// @dev Returns the given asset value in ETH (wei)\n  /// @param token The token to query for asset value\n  /// @param amount The amount of token to query\n  function getAssetETHValue(address token, uint amount) external override returns (uint) {\n    uint price = getAssetETHPrice(token);\n    return (price * amount) >> 112;\n  }\n\n  /// @dev Returns the conversion from amount of from` to `to`.\n  /// @param from The source token to convert.\n  /// @param to The destination token to convert.\n  /// @param amount The amount of token for conversion.\n  function convert(\n    address from,\n    address to,\n    uint amount\n  ) external override returns (uint) {\n    uint fromPrice = getAssetETHPrice(from);\n    uint toPrice = getAssetETHPrice(to);\n    return (amount * fromPrice) / toPrice;\n  }\n\n  /// @dev Return the current price0 cumulative value on uniswap.\n  /// @param pair The uniswap pair to query for price0 cumulative value.\n  function currentPrice0Cumu(address pair) public view returns (uint price0Cumu) {\n    uint32 currTime = uint32(block.timestamp);\n    price0Cumu = IUniswapV2Pair(pair).price0CumulativeLast();\n    // can use reserves without flash-manipulated risks because cumu changes if reserves change\n    (uint reserve0, uint reserve1, uint32 lastTime) = IUniswapV2Pair(pair).getReserves();\n    if (lastTime != currTime) {\n      unchecked {\n        uint32 timeElapsed = currTime - lastTime; // overflow is desired\n        price0Cumu += uint((reserve1 << 112) / reserve0) * timeElapsed; // overflow is desired\n      }\n    }\n  }\n\n  /// @dev Return the current price1 cumulative value on uniswap.\n  /// @param pair The uniswap pair to query for price1 cumulative value.\n  function currentPrice1Cumu(address pair) public view returns (uint price1Cumu) {\n    uint32 currTime = uint32(block.timestamp);\n    price1Cumu = IUniswapV2Pair(pair).price1CumulativeLast();\n    // can use reserves without flash-manipulated risks because cumu changes if reserves change\n    (uint reserve0, uint reserve1, uint32 lastTime) = IUniswapV2Pair(pair).getReserves();\n    if (lastTime != currTime) {\n      unchecked {\n        uint32 timeElapsed = currTime - lastTime; // overflow is desired\n        price1Cumu += uint((reserve0 << 112) / reserve1) * timeElapsed; // overflow is desired\n      }\n    }\n  }\n}",
  "sourcePath": "/Users/jilong/solidity/pantheonNFT/contracts/token/ERC20/utils/BetaOracleUniswapV2.sol",
  "compiler": {
    "name": "solc",
    "version": "0.8.6+commit.11564f7e.Emscripten.clang"
  },
  "schemaVersion": "3.4.3",
  "updatedAt": "2021-09-16T11:24:12.230Z",
  "devdoc": {
    "kind": "dev",
    "methods": {
      "acceptGovernor()": {
        "details": "Accepts to become the next governor. Must only be called by the pending governor."
      },
      "constructor": {
        "details": "Initializes the oracle contract.",
        "params": {
          "_factory": "Uniswap V2 factory address.",
          "_minTwapTime": "Minimum interval for TWAP time (in seconds).",
          "_weth": "WETH address."
        }
      },
      "convert(address,address,uint256)": {
        "details": "Returns the conversion from amount of from` to `to`.",
        "params": {
          "amount": "The amount of token for conversion.",
          "from": "The source token to convert.",
          "to": "The destination token to convert."
        }
      },
      "currentPrice0Cumu(address)": {
        "details": "Return the current price0 cumulative value on uniswap.",
        "params": {
          "pair": "The uniswap pair to query for price0 cumulative value."
        }
      },
      "currentPrice1Cumu(address)": {
        "details": "Return the current price1 cumulative value on uniswap.",
        "params": {
          "pair": "The uniswap pair to query for price1 cumulative value."
        }
      },
      "getAssetETHPrice(address)": {
        "details": "Returns the price of the given asset in terms of ETH (wei), multiplied by 2**112.",
        "params": {
          "token": "The token to get asset price of."
        }
      },
      "getAssetETHValue(address,uint256)": {
        "details": "Returns the given asset value in ETH (wei)",
        "params": {
          "amount": "The amount of token to query",
          "token": "The token to query for asset value"
        }
      },
      "initPriceFromPair(address)": {
        "details": "Initializes data points for price from pair for the given token.",
        "params": {
          "token": "The token to initialize the price."
        }
      },
      "massInitPriceFromPair(address[])": {
        "details": "Utility functions to initialize multiple pair prices at once.",
        "params": {
          "tokens": "Token list to mass initialize the prices."
        }
      },
      "massUpdatePriceFromPair(address[])": {
        "details": "Utility functions to update multiple pair prices at once.",
        "params": {
          "tokens": "Token list to mass update prices."
        }
      },
      "setExternalOracle(address[],address)": {
        "details": "Updates the external feed contract address for the given tokens by the governor.",
        "params": {
          "_ext": "The external price oracle contract.",
          "_tokens": "The tokens to update external price oracle contract."
        }
      },
      "setPendingGovernor(address)": {
        "details": "Sets the next governor, which will be in effect when they accept.",
        "params": {
          "_pendingGovernor": "The next governor address."
        }
      },
      "updatePriceFromPair(address)": {
        "details": "Updates price info for the given token and returns the last price.",
        "params": {
          "token": "The token to update token-WETH pair price."
        }
      }
    },
    "version": 1
  },
  "userdoc": {
    "kind": "user",
    "methods": {},
    "version": 1
  }
}