{
  "contractName": "DogeFoodSoloPool",
  "abi": [
    {
      "inputs": [
        {
          "internalType": "contract IERC20",
          "name": "_chaAddress",
          "type": "address"
        },
        {
          "internalType": "contract IERC721Card",
          "name": "_nftAddress",
          "type": "address"
        },
        {
          "internalType": "uint256",
          "name": "_chaPerBlock",
          "type": "uint256"
        },
        {
          "internalType": "uint256",
          "name": "_startBlock",
          "type": "uint256"
        },
        {
          "internalType": "uint256",
          "name": "_totalReward",
          "type": "uint256"
        }
      ],
      "stateMutability": "nonpayable",
      "type": "constructor"
    },
    {
      "anonymous": false,
      "inputs": [
        {
          "indexed": true,
          "internalType": "address",
          "name": "user",
          "type": "address"
        },
        {
          "indexed": true,
          "internalType": "uint256",
          "name": "pid",
          "type": "uint256"
        },
        {
          "indexed": false,
          "internalType": "uint256",
          "name": "amount",
          "type": "uint256"
        }
      ],
      "name": "Deposit",
      "type": "event"
    },
    {
      "anonymous": false,
      "inputs": [
        {
          "indexed": true,
          "internalType": "address",
          "name": "user",
          "type": "address"
        },
        {
          "indexed": true,
          "internalType": "uint256",
          "name": "pid",
          "type": "uint256"
        },
        {
          "indexed": false,
          "internalType": "uint256",
          "name": "amount",
          "type": "uint256"
        },
        {
          "indexed": false,
          "internalType": "uint16",
          "name": "nft1",
          "type": "uint16"
        },
        {
          "indexed": false,
          "internalType": "uint16",
          "name": "nft2",
          "type": "uint16"
        },
        {
          "indexed": false,
          "internalType": "uint16",
          "name": "nft3",
          "type": "uint16"
        }
      ],
      "name": "DepositWithNFT",
      "type": "event"
    },
    {
      "anonymous": false,
      "inputs": [
        {
          "indexed": true,
          "internalType": "address",
          "name": "user",
          "type": "address"
        },
        {
          "indexed": true,
          "internalType": "uint256",
          "name": "pid",
          "type": "uint256"
        },
        {
          "indexed": false,
          "internalType": "uint256",
          "name": "amount",
          "type": "uint256"
        }
      ],
      "name": "EmergencyWithdraw",
      "type": "event"
    },
    {
      "anonymous": false,
      "inputs": [
        {
          "indexed": true,
          "internalType": "address",
          "name": "user",
          "type": "address"
        },
        {
          "indexed": true,
          "internalType": "uint256",
          "name": "pid",
          "type": "uint256"
        },
        {
          "indexed": false,
          "internalType": "uint256",
          "name": "amount",
          "type": "uint256"
        }
      ],
      "name": "Harvest",
      "type": "event"
    },
    {
      "anonymous": false,
      "inputs": [
        {
          "indexed": true,
          "internalType": "address",
          "name": "previousOwner",
          "type": "address"
        },
        {
          "indexed": true,
          "internalType": "address",
          "name": "newOwner",
          "type": "address"
        }
      ],
      "name": "OwnershipTransferred",
      "type": "event"
    },
    {
      "anonymous": false,
      "inputs": [
        {
          "indexed": true,
          "internalType": "address",
          "name": "user",
          "type": "address"
        },
        {
          "indexed": true,
          "internalType": "uint256",
          "name": "pid",
          "type": "uint256"
        },
        {
          "indexed": false,
          "internalType": "uint256",
          "name": "amount",
          "type": "uint256"
        }
      ],
      "name": "Withdraw",
      "type": "event"
    },
    {
      "inputs": [],
      "name": "accChaPerShare",
      "outputs": [
        {
          "internalType": "uint256",
          "name": "",
          "type": "uint256"
        }
      ],
      "stateMutability": "view",
      "type": "function"
    },
    {
      "inputs": [],
      "name": "blackholeAddress",
      "outputs": [
        {
          "internalType": "address",
          "name": "",
          "type": "address"
        }
      ],
      "stateMutability": "view",
      "type": "function"
    },
    {
      "inputs": [],
      "name": "chaPerBlock",
      "outputs": [
        {
          "internalType": "uint256",
          "name": "",
          "type": "uint256"
        }
      ],
      "stateMutability": "view",
      "type": "function"
    },
    {
      "inputs": [],
      "name": "devaddr",
      "outputs": [
        {
          "internalType": "address",
          "name": "",
          "type": "address"
        }
      ],
      "stateMutability": "view",
      "type": "function"
    },
    {
      "inputs": [],
      "name": "lastRewardBlock",
      "outputs": [
        {
          "internalType": "uint256",
          "name": "",
          "type": "uint256"
        }
      ],
      "stateMutability": "view",
      "type": "function"
    },
    {
      "inputs": [],
      "name": "liquidAddress",
      "outputs": [
        {
          "internalType": "address",
          "name": "",
          "type": "address"
        }
      ],
      "stateMutability": "view",
      "type": "function"
    },
    {
      "inputs": [
        {
          "internalType": "address",
          "name": "",
          "type": "address"
        }
      ],
      "name": "minerCount",
      "outputs": [
        {
          "internalType": "uint16",
          "name": "",
          "type": "uint16"
        }
      ],
      "stateMutability": "view",
      "type": "function"
    },
    {
      "inputs": [
        {
          "internalType": "address",
          "name": "",
          "type": "address"
        },
        {
          "internalType": "uint256",
          "name": "",
          "type": "uint256"
        }
      ],
      "name": "minerInfo",
      "outputs": [
        {
          "internalType": "uint256",
          "name": "amount",
          "type": "uint256"
        },
        {
          "internalType": "uint256",
          "name": "power",
          "type": "uint256"
        },
        {
          "internalType": "uint256",
          "name": "endBlock",
          "type": "uint256"
        },
        {
          "internalType": "uint256",
          "name": "rewardDebt",
          "type": "uint256"
        },
        {
          "internalType": "uint256",
          "name": "nft1",
          "type": "uint256"
        },
        {
          "internalType": "uint256",
          "name": "nft2",
          "type": "uint256"
        },
        {
          "internalType": "uint256",
          "name": "nft3",
          "type": "uint256"
        }
      ],
      "stateMutability": "view",
      "type": "function"
    },
    {
      "inputs": [],
      "name": "nftToken",
      "outputs": [
        {
          "internalType": "contract IERC721Card",
          "name": "",
          "type": "address"
        }
      ],
      "stateMutability": "view",
      "type": "function"
    },
    {
      "inputs": [
        {
          "internalType": "address",
          "name": "",
          "type": "address"
        },
        {
          "internalType": "address",
          "name": "",
          "type": "address"
        },
        {
          "internalType": "uint256",
          "name": "",
          "type": "uint256"
        },
        {
          "internalType": "bytes",
          "name": "",
          "type": "bytes"
        }
      ],
      "name": "onERC721Received",
      "outputs": [
        {
          "internalType": "bytes4",
          "name": "",
          "type": "bytes4"
        }
      ],
      "stateMutability": "nonpayable",
      "type": "function"
    },
    {
      "inputs": [],
      "name": "owner",
      "outputs": [
        {
          "internalType": "address",
          "name": "",
          "type": "address"
        }
      ],
      "stateMutability": "view",
      "type": "function"
    },
    {
      "inputs": [],
      "name": "panToken",
      "outputs": [
        {
          "internalType": "contract IERC20",
          "name": "",
          "type": "address"
        }
      ],
      "stateMutability": "view",
      "type": "function"
    },
    {
      "inputs": [
        {
          "internalType": "uint256",
          "name": "",
          "type": "uint256"
        }
      ],
      "name": "poolInfo",
      "outputs": [
        {
          "internalType": "contract IERC20",
          "name": "lpToken",
          "type": "address"
        },
        {
          "internalType": "bool",
          "name": "isLp",
          "type": "bool"
        },
        {
          "internalType": "uint32",
          "name": "timeBlocks",
          "type": "uint32"
        },
        {
          "internalType": "uint256",
          "name": "powerRate",
          "type": "uint256"
        }
      ],
      "stateMutability": "view",
      "type": "function"
    },
    {
      "inputs": [],
      "name": "releasedReward",
      "outputs": [
        {
          "internalType": "uint256",
          "name": "",
          "type": "uint256"
        }
      ],
      "stateMutability": "view",
      "type": "function"
    },
    {
      "inputs": [],
      "name": "renounceOwnership",
      "outputs": [],
      "stateMutability": "nonpayable",
      "type": "function"
    },
    {
      "inputs": [],
      "name": "startBlock",
      "outputs": [
        {
          "internalType": "uint256",
          "name": "",
          "type": "uint256"
        }
      ],
      "stateMutability": "view",
      "type": "function"
    },
    {
      "inputs": [],
      "name": "totalAllocPoint",
      "outputs": [
        {
          "internalType": "uint256",
          "name": "",
          "type": "uint256"
        }
      ],
      "stateMutability": "view",
      "type": "function"
    },
    {
      "inputs": [],
      "name": "totalPower",
      "outputs": [
        {
          "internalType": "uint256",
          "name": "",
          "type": "uint256"
        }
      ],
      "stateMutability": "view",
      "type": "function"
    },
    {
      "inputs": [],
      "name": "totalReward",
      "outputs": [
        {
          "internalType": "uint256",
          "name": "",
          "type": "uint256"
        }
      ],
      "stateMutability": "view",
      "type": "function"
    },
    {
      "inputs": [
        {
          "internalType": "address",
          "name": "newOwner",
          "type": "address"
        }
      ],
      "name": "transferOwnership",
      "outputs": [],
      "stateMutability": "nonpayable",
      "type": "function"
    },
    {
      "inputs": [
        {
          "internalType": "address",
          "name": "",
          "type": "address"
        }
      ],
      "name": "userPower",
      "outputs": [
        {
          "internalType": "uint256",
          "name": "",
          "type": "uint256"
        }
      ],
      "stateMutability": "view",
      "type": "function"
    },
    {
      "inputs": [],
      "name": "releaseReward2",
      "outputs": [
        {
          "internalType": "uint256",
          "name": "",
          "type": "uint256"
        }
      ],
      "stateMutability": "view",
      "type": "function"
    },
    {
      "inputs": [],
      "name": "remainReward",
      "outputs": [
        {
          "internalType": "uint256",
          "name": "",
          "type": "uint256"
        }
      ],
      "stateMutability": "view",
      "type": "function"
    },
    {
      "inputs": [],
      "name": "poolLength",
      "outputs": [
        {
          "internalType": "uint256",
          "name": "",
          "type": "uint256"
        }
      ],
      "stateMutability": "view",
      "type": "function"
    },
    {
      "inputs": [
        {
          "internalType": "uint256",
          "name": "_powerRate",
          "type": "uint256"
        },
        {
          "internalType": "contract IERC20",
          "name": "_token",
          "type": "address"
        },
        {
          "internalType": "bool",
          "name": "_isLp",
          "type": "bool"
        },
        {
          "internalType": "uint32",
          "name": "timeBlocks",
          "type": "uint32"
        },
        {
          "internalType": "bool",
          "name": "_withUpdate",
          "type": "bool"
        }
      ],
      "name": "addPool",
      "outputs": [],
      "stateMutability": "nonpayable",
      "type": "function"
    },
    {
      "inputs": [
        {
          "internalType": "uint256",
          "name": "_pid",
          "type": "uint256"
        },
        {
          "internalType": "uint256",
          "name": "_powerRate",
          "type": "uint256"
        },
        {
          "internalType": "bool",
          "name": "_withUpdate",
          "type": "bool"
        }
      ],
      "name": "setPool",
      "outputs": [],
      "stateMutability": "nonpayable",
      "type": "function"
    },
    {
      "inputs": [
        {
          "internalType": "uint256",
          "name": "_from",
          "type": "uint256"
        },
        {
          "internalType": "uint256",
          "name": "_to",
          "type": "uint256"
        }
      ],
      "name": "getMultiplier",
      "outputs": [
        {
          "internalType": "uint256",
          "name": "",
          "type": "uint256"
        }
      ],
      "stateMutability": "pure",
      "type": "function"
    },
    {
      "inputs": [
        {
          "internalType": "address",
          "name": "_user",
          "type": "address"
        },
        {
          "internalType": "uint256",
          "name": "_pid",
          "type": "uint256"
        }
      ],
      "name": "pendingReward",
      "outputs": [
        {
          "internalType": "uint256",
          "name": "",
          "type": "uint256"
        }
      ],
      "stateMutability": "view",
      "type": "function"
    },
    {
      "inputs": [],
      "name": "updateReward",
      "outputs": [],
      "stateMutability": "nonpayable",
      "type": "function"
    },
    {
      "inputs": [
        {
          "internalType": "uint256",
          "name": "_pid",
          "type": "uint256"
        },
        {
          "internalType": "uint16",
          "name": "countday",
          "type": "uint16"
        },
        {
          "internalType": "uint16",
          "name": "nft1",
          "type": "uint16"
        },
        {
          "internalType": "uint16",
          "name": "nft2",
          "type": "uint16"
        },
        {
          "internalType": "uint16",
          "name": "nft3",
          "type": "uint16"
        }
      ],
      "name": "depositWithNFT",
      "outputs": [],
      "stateMutability": "nonpayable",
      "type": "function"
    },
    {
      "inputs": [
        {
          "internalType": "uint256",
          "name": "_pid",
          "type": "uint256"
        }
      ],
      "name": "harvest",
      "outputs": [],
      "stateMutability": "nonpayable",
      "type": "function"
    },
    {
      "inputs": [
        {
          "internalType": "uint256",
          "name": "_pid",
          "type": "uint256"
        },
        {
          "internalType": "uint256",
          "name": "_amount",
          "type": "uint256"
        }
      ],
      "name": "withdraw",
      "outputs": [],
      "stateMutability": "nonpayable",
      "type": "function"
    }
  ],
  "bytecode": "0x608060405260006010553480156200001657600080fd5b5060405162001e4638038062001e468339810160408190526200003991620000fa565b6200004433620000aa565b600580546001600160a01b038088166001600160a01b031992831617909255600b859055601184905560098390556001805492871692909116919091179055438210620000945760115462000096565b435b60025550506000600455506200016b915050565b600080546001600160a01b038381166001600160a01b0319831681178455604051919092169283917f8be0079c531659141344cd1fd0a4f28419497f9722a3daafe3b4186f6b6457e09190a35050565b600080600080600060a086880312156200011357600080fd5b8551620001208162000152565b6020870151909550620001338162000152565b6040870151606088015160809098015196999198509695945092505050565b6001600160a01b03811681146200016857600080fd5b50565b611ccb806200017b6000396000f3fe608060405234801561001057600080fd5b50600436106101f05760003560e01c80638043c10c1161010f578063db3ad22c116100a2578063f2fde38b11610071578063f2fde38b146104bd578063f36c0a72146104d0578063f430cf0d146104d8578063f53f8e94146104eb57600080fd5b8063db3ad22c146103fc578063ddbfdfd514610405578063ddc6326214610497578063e92fa01f146104aa57600080fd5b8063a327f4d1116100de578063a327f4d114610396578063a9f8d181146103cd578063d06fcba8146103d6578063d49e77cd146103e957600080fd5b80638043c10c146103605780638da5cb5b146103695780638dbb1e3a1461037a578063a0f015ab1461038d57600080fd5b80634713b784116101875780636c18005b116101565780636c18005b14610333578063715018a61461033c578063750142e6146103445780637d515a101461034d57600080fd5b80634713b784146102d757806348cd4cb1146103025780634d6e34521461030b5780635e4906521461032b57600080fd5b806317caf6f1116101c357806317caf6f1146102935780632fed3c261461029c578063441a3e70146102b157806346ca6bea146102c457600080fd5b8063081e3eda146101f55780631485ff781461020c578063150b7a02146102145780631526fe271461024b575b600080fd5b600c545b6040519081526020015b60405180910390f35b6101f96104fe565b610232610222366004611892565b630a85bd0160e11b949350505050565b6040516001600160e01b03199091168152602001610203565b61025e6102593660046119bb565b610515565b604080516001600160a01b039095168552921515602085015263ffffffff909116918301919091526060820152608001610203565b6101f960105481565b6102af6102aa366004611a5e565b610565565b005b6102af6102bf366004611abc565b610d01565b6102af6102d2366004611ade565b611072565b6008546102ea906001600160a01b031681565b6040516001600160a01b039091168152602001610203565b6101f960115481565b6101f9610319366004611851565b600d6020526000908152604090205481565b6101f96110d8565b6101f960035481565b6102af6110fa565b6101f960095481565b6007546102ea906001600160a01b031681565b6101f9600a5481565b6000546001600160a01b03166102ea565b6101f9610388366004611abc565b611130565b6101f9600b5481565b6103ba6103a4366004611851565b600e6020526000908152604090205461ffff1681565b60405161ffff9091168152602001610203565b6101f960025481565b6001546102ea906001600160a01b031681565b6006546102ea906001600160a01b031681565b6101f960045481565b610462610413366004611972565b600f602052816000526040600020602052806000526040600020600091509150508060000154908060010154908060020154908060030154908060040154908060050154908060060154905087565b604080519788526020880196909652948601939093526060850191909152608084015260a083015260c082015260e001610203565b6102af6104a53660046119bb565b611145565b6102af6104b83660046119ed565b611249565b6102af6104cb366004611851565b611359565b6102af6113f4565b6101f96104e6366004611972565b6114ed565b6005546102ea906001600160a01b031681565b6000600a546009546105109190611c19565b905090565b600c818154811061052557600080fd5b6000918252602090912060029091020180546001909101546001600160a01b0382169250600160a01b820460ff1691600160a81b900463ffffffff169084565b6000600c868154811061057a5761057a611c46565b60009182526020808320338452600e8252604080852054600f845281862061ffff91821680885290855295829020825160e08101845281548152600182015495810195909552600281810154938601939093526003810154606086015260048101546080860152600581015460a08601526006015460c08501529302019350906007908816108015906106125750601e8761ffff1611155b6106765760405162461bcd60e51b815260206004820152602a60248201527f4465707369746520636f756e74206461792073686f756c64206265747765656e604482015269101b9030b7321019981760b11b60648201526084015b60405180910390fd5b60008661ffff1611801561068e575060008561ffff16115b801561069e575060008461ffff16115b6106f55760405162461bcd60e51b815260206004820152602260248201527f44657073697465206e66742031203220332073686f756c6420626520656d70746044820152613c9760f11b606482015260840161066d565b6106fd6113f4565b6000808761ffff1611801561079757506001546040516331a9108f60e11b815261ffff8916600482015233916001600160a01b031690636352211e9060240160206040518083038186803b15801561075457600080fd5b505afa158015610768573d6000803e3d6000fd5b505050506040513d601f19601f8201168201806040525081019061078c9190611875565b6001600160a01b0316145b15610890576001546040516304eaa11360e01b815261ffff891660048201526001600160a01b03909116906304eaa1139060240160206040518083038186803b1580156107e357600080fd5b505afa1580156107f7573d6000803e3d6000fd5b505050506040513d601f19601f8201168201806040525081019061081b9190611b17565b6108289060ff1682611b96565b600154604051632142170760e11b81529192506001600160a01b0316906342842e0e9061085d90339030908c90600401611b3a565b600060405180830381600087803b15801561087757600080fd5b505af115801561088b573d6000803e3d6000fd5b505050505b60008661ffff1611801561092957506001546040516331a9108f60e11b815261ffff8816600482015233916001600160a01b031690636352211e9060240160206040518083038186803b1580156108e657600080fd5b505afa1580156108fa573d6000803e3d6000fd5b505050506040513d601f19601f8201168201806040525081019061091e9190611875565b6001600160a01b0316145b15610a22576001546040516304eaa11360e01b815261ffff881660048201526001600160a01b03909116906304eaa1139060240160206040518083038186803b15801561097557600080fd5b505afa158015610989573d6000803e3d6000fd5b505050506040513d601f19601f820116820180604052508101906109ad9190611b17565b6109ba9060ff1682611b96565b600154604051632142170760e11b81529192506001600160a01b0316906342842e0e906109ef90339030908b90600401611b3a565b600060405180830381600087803b158015610a0957600080fd5b505af1158015610a1d573d6000803e3d6000fd5b505050505b60008561ffff16118015610abb57506001546040516331a9108f60e11b815261ffff8716600482015233916001600160a01b031690636352211e9060240160206040518083038186803b158015610a7857600080fd5b505afa158015610a8c573d6000803e3d6000fd5b505050506040513d601f19601f82011682018060405250810190610ab09190611875565b6001600160a01b0316145b15610bb4576001546040516304eaa11360e01b815261ffff871660048201526001600160a01b03909116906304eaa1139060240160206040518083038186803b158015610b0757600080fd5b505afa158015610b1b573d6000803e3d6000fd5b505050506040513d601f19601f82011682018060405250810190610b3f9190611b17565b610b4c9060ff1682611b96565b600154604051632142170760e11b81529192506001600160a01b0316906342842e0e90610b8190339030908a90600401611b3a565b600060405180830381600087803b158015610b9b57600080fd5b505af1158015610baf573d6000803e3d6000fd5b505050505b6004546103e890610bc590836115d2565b6004556020830182905243610bf5610bde8b6018611bd0565b610bea906104b0611bd0565b829061ffff166115d2565b604085015261ffff808a16608086015288811660a0860152871660c08501526003546020850151610c369164e8d4a5100091610c30916115de565b906115ea565b60608501908152336000818152600f602090815260408083208a845282529182902088518155908801516001820155818801516002820155925160038401556080870151600484015560a0870151600584015560c087015160069093019290925590518c91907f12683d1bce24a39469d43b532a00fb65c26276ed57dbd35b204c720380597f7e90610cec9087908e908e908e9093845261ffff9283166020850152908216604084015216606082015260800190565b60405180910390a35050505050505050505050565b6000600c8381548110610d1657610d16611c46565b60009182526020808320338452600f82526040808520888652909252922060028181015492029092019250431015610d905760405162461bcd60e51b815260206004820181905260248201527f43616e6e6f7420776974686472617720776974682064617973206c696d69742e604482015260640161066d565b600060035411610dec5760405162461bcd60e51b815260206004820152602160248201527f61636343686150657253686172652073686f756c64206e6f74206265207a65726044820152606f60f81b606482015260840161066d565b610df46113f4565b60038082015490548254610e129164e8d4a5100091610c30916115de565b1115610e58576000610e4a8260030154610e4464e8d4a51000610c3060035487600001546115de90919063ffffffff16565b906115f6565b9050610e563382611602565b505b600481015415610ed357600154600482810154604051632142170760e11b8152309281019290925233602483015260448201526001600160a01b03909116906342842e0e90606401600060405180830381600087803b158015610eba57600080fd5b505af1158015610ece573d6000803e3d6000fd5b505050505b600581015415610f4e576001546005820154604051632142170760e11b815230600482015233602482015260448101919091526001600160a01b03909116906342842e0e90606401600060405180830381600087803b158015610f3557600080fd5b505af1158015610f49573d6000803e3d6000fd5b505050505b600681015415610fc9576001546006820154604051632142170760e11b815230600482015233602482015260448101919091526001600160a01b03909116906342842e0e90606401600060405180830381600087803b158015610fb057600080fd5b505af1158015610fc4573d6000803e3d6000fd5b505050505b6001810154600454610fda916115f6565b6004556001810154336000908152600d6020526040902054610ffb916115f6565b336000818152600d60205260408082209390935560018401819055600484018190556005840181905560068401819055600384015590518591907ff279e6a1f5e320cca91135676d9cb6e44ca8a08c0b88342bcdb1144f6511b568906110649087815260200190565b60405180910390a350505050565b6000546001600160a01b0316331461109c5760405162461bcd60e51b815260040161066d90611b61565b80156110aa576110aa6113f4565b81600c84815481106110be576110be611c46565b906000526020600020906002020160010181905550505050565b600061051064e8d4a51000610c306003546004546115de90919063ffffffff16565b6000546001600160a01b031633146111245760405162461bcd60e51b815260040161066d90611b61565b61112e60006117ea565b565b600061113c82846115f6565b90505b92915050565b336000908152600f6020908152604080832084845290915290206111676113f4565b60006111938260030154610e4464e8d4a51000610c3060035487600101546115de90919063ffffffff16565b9050600081116111dc5760405162461bcd60e51b81526020600482015260146024820152731a185c9d995cdd0e881b9bdb99481c995dd85c9960621b604482015260640161066d565b6111e63382611602565b61120864e8d4a51000610c3060035485600101546115de90919063ffffffff16565b6003830155604051818152839033907f71bab65ced2e5750775a0613be067df48ef06cf92a496ebf7663ae06609249549060200160405180910390a3505050565b6000546001600160a01b031633146112735760405162461bcd60e51b815260040161066d90611b61565b8015611281576112816113f4565b50604080516080810182526001600160a01b0394851681529215156020840190815263ffffffff92831691840191825260608401958652600c8054600181018255600091909152935160029094027fdf6966c971051c3d54ec59162606531493a51404a002842f56009d7e5cf4a8c78101805492519351909416600160a81b0263ffffffff60a81b19931515600160a01b026001600160a81b0319909316959096169490941717169290921790915590517fdf6966c971051c3d54ec59162606531493a51404a002842f56009d7e5cf4a8c890910155565b6000546001600160a01b031633146113835760405162461bcd60e51b815260040161066d90611b61565b6001600160a01b0381166113e85760405162461bcd60e51b815260206004820152602660248201527f4f776e61626c653a206e6577206f776e657220697320746865207a65726f206160448201526564647265737360d01b606482015260840161066d565b6113f1816117ea565b50565b600061140d600a546009546115f690919063ffffffff16565b90506000811161141a5750565b600454611428575043600255565b43600254111561147a5760405162461bcd60e51b815260206004820152601960248201527f6c617374526577617264426c6f636b206e6f742076616c696400000000000000604482015260640161066d565b600061148860025443611130565b905060006114a1600b54836115de90919063ffffffff16565b9050808310156114ae5750815b600a546114bb90826115d2565b600a556004546114e1906114d890610c308464e8d4a510006115de565b600354906115d2565b60035550504360025550565b6001600160a01b0382166000908152600f60209081526040808320848452909152812060035460028201544390811115611528575060028201545b6002548111801561153a575060045415155b156115c657600061154d60025483611130565b90506000611566600b54836115de90919063ffffffff16565b9050611590611589600454610c3064e8d4a51000856115de90919063ffffffff16565b85906115d2565b93506115ba8560030154610e4464e8d4a51000610c30888a600101546115de90919063ffffffff16565b9550505050505061113f565b50600095945050505050565b600061113c8284611b96565b600061113c8284611bfa565b600061113c8284611bae565b600061113c8284611c19565b6005546040516370a0823160e01b81523060048201526000916001600160a01b0316906370a082319060240160206040518083038186803b15801561164657600080fd5b505afa15801561165a573d6000803e3d6000fd5b505050506040513d601f19601f8201168201806040525081019061167e91906119d4565b90508082111561168c578091505b600580546007546001600160a01b039182169263a9059cbb92909116906116bb90606490610c309088906115de565b6040516001600160e01b031960e085901b1681526001600160a01b0390921660048301526024820152604401602060405180830381600087803b15801561170157600080fd5b505af1158015611715573d6000803e3d6000fd5b505050506040513d601f19601f82011682018060405250810190611739919061199e565b506005546001600160a01b031663a9059cbb8461176661175f6064610c3088600d6115de565b86906115f6565b6040516001600160e01b031960e085901b1681526001600160a01b0390921660048301526024820152604401602060405180830381600087803b1580156117ac57600080fd5b505af11580156117c0573d6000803e3d6000fd5b505050506040513d601f19601f820116820180604052508101906117e4919061199e565b50505050565b600080546001600160a01b038381166001600160a01b0319831681178455604051919092169283917f8be0079c531659141344cd1fd0a4f28419497f9722a3daafe3b4186f6b6457e09190a35050565b803561ffff8116811461184c57600080fd5b919050565b60006020828403121561186357600080fd5b813561186e81611c72565b9392505050565b60006020828403121561188757600080fd5b815161186e81611c72565b600080600080608085870312156118a857600080fd5b84356118b381611c72565b935060208501356118c381611c72565b925060408501359150606085013567ffffffffffffffff808211156118e757600080fd5b818701915087601f8301126118fb57600080fd5b81358181111561190d5761190d611c5c565b604051601f8201601f19908116603f0116810190838211818310171561193557611935611c5c565b816040528281528a602084870101111561194e57600080fd5b82602086016020830137600060208483010152809550505050505092959194509250565b6000806040838503121561198557600080fd5b823561199081611c72565b946020939093013593505050565b6000602082840312156119b057600080fd5b815161186e81611c87565b6000602082840312156119cd57600080fd5b5035919050565b6000602082840312156119e657600080fd5b5051919050565b600080600080600060a08688031215611a0557600080fd5b853594506020860135611a1781611c72565b93506040860135611a2781611c87565b9250606086013563ffffffff81168114611a4057600080fd5b91506080860135611a5081611c87565b809150509295509295909350565b600080600080600060a08688031215611a7657600080fd5b85359450611a866020870161183a565b9350611a946040870161183a565b9250611aa26060870161183a565b9150611ab06080870161183a565b90509295509295909350565b60008060408385031215611acf57600080fd5b50508035926020909101359150565b600080600060608486031215611af357600080fd5b83359250602084013591506040840135611b0c81611c87565b809150509250925092565b600060208284031215611b2957600080fd5b815160ff8116811461186e57600080fd5b6001600160a01b03938416815291909216602082015261ffff909116604082015260600190565b6020808252818101527f4f776e61626c653a2063616c6c6572206973206e6f7420746865206f776e6572604082015260600190565b60008219821115611ba957611ba9611c30565b500190565b600082611bcb57634e487b7160e01b600052601260045260246000fd5b500490565b600061ffff80831681851681830481118215151615611bf157611bf1611c30565b02949350505050565b6000816000190483118215151615611c1457611c14611c30565b500290565b600082821015611c2b57611c2b611c30565b500390565b634e487b7160e01b600052601160045260246000fd5b634e487b7160e01b600052603260045260246000fd5b634e487b7160e01b600052604160045260246000fd5b6001600160a01b03811681146113f157600080fd5b80151581146113f157600080fdfea264697066735822122025b9c4de39eb10299b92e725e89a969b3018baf7eee9927dcbfbd1504f06c39364736f6c63430008060033",
  "immutableReferences": {},
  "source": "// SPDX-License-Identifier: MIT\npragma solidity ^0.8.0;\n\nimport \"./utils/math/SafeMath.sol\";\nimport \"./utils/Address.sol\";\nimport \"./access/Ownable.sol\";\n\nimport \"./token/ERC721/IERC721.sol\";\nimport \"./token/ERC721/IERC721Card.sol\";\nimport \"./token/ERC20/IERC20.sol\";\nimport \"./token/ERC721/utils/ERC721Holder.sol\";\nimport \"./token/ERC20/utils/SafeERC20.sol\";\n\ninterface IMigratorChef {\n    // Perform LP token migration from legacy UniswapV2 to ChaSwap.\n    // Take the current LP token address and return the new LP token address.\n    // Migrator should have full access to the caller's LP token.\n    // Return the new LP token address.\n    //\n    // XXX Migrator must have allowance access to UniswapV2 LP tokens.\n    // ChaSwap must mint EXACTLY the same amount of ChaSwap LP tokens or\n    // else something bad will happen. Traditional UniswapV2 does not\n    // do that so be careful!\n    function migrate(IERC20 token) external returns (IERC20);\n}\n\n// DogeFoodPool is the master of Reward. He can make Reward and he is a fair guy.\n//\n// Note that it's ownable and the owner wields tremendous power. The ownership\n// will be transferred to a governance smart contract once CHA is sufficiently\n// distributed and the community can show to govern itself.\n//\n// Have fun reading it. Hopefully it's bug-free. God bless.\ncontract DogeFoodSoloPool is Ownable, ERC721Holder {\n    using SafeMath for uint256;\n    using SafeERC20 for IERC20;\n    // Info of each user.\n    // struct UserInfo {\n    //     uint256 amount; // How many LP tokens the user has provided.\n    //     uint256 rewardDebt; // Reward debt. See explanation below.\n    //     //\n    //     // We do some fancy math here. Basically, any point in time, the amount of CHA\n    //     // entitled to a user but is pending to be distributed is:\n    //     //\n    //     //   pending reward = (user.amount * accChaPerShare) - user.rewardDebt\n    //     //\n    //     // Whenever a user deposits or withdraws LP tokens to a pool. Here's what happens:\n    //     //   1. The pool's `accChaPerShare` (and `lastRewardBlock`) gets updated.\n    //     //   2. User receives the pending reward sent to his/her address.\n    //     //   3. User's `amount` gets updated.\n    //     //   4. User's `rewardDebt` gets updated.\n    // }\n\n    // Miner information describe miner. One should has many Miners;\n    struct MinerInfo {\n        uint256 amount; // \n        uint256 power; //  rati = power / 1000\n        uint256 endBlock; // block\n        uint256 rewardDebt; // Reward debt. See explanation below.\n        uint256 nft1;\n        uint256 nft2;\n        uint256 nft3;\n    }\n    // Info of each pool. pool is set manully.\n    struct PoolInfo {\n        IERC20 lpToken; // Address of LP token contract.\n        bool isLp; // if isLp is true we should have a usdt token.\n        uint32 timeBlocks; // timeBlocks;\n        uint256 powerRate; // The power rate assigned to this pool. times 1000.\n    }\n\n    IERC721Card public nftToken;\n    uint256 public lastRewardBlock; // Last block number that CHAs distribution occurs.\n    uint256 public accChaPerShare; // Accumulated CHAs per share, times 1e12. See below.\n    // Total power\n    uint256 public totalPower;\n\n    IERC20 public panToken;\n    // Dev address.\n    address public devaddr;\n    address public blackholeAddress;\n    address public liquidAddress;\n    uint256 public totalReward;\n    // Total released reward\n    uint256 public releasedReward;\n    // CHA tokens created per block.\n    uint256 public chaPerBlock;\n    // Info of each pool.\n    PoolInfo[] public poolInfo;\n    // Info of each user that stakes LP tokens.\n    mapping(address => uint256) public userPower;\n    mapping(address => uint16) public minerCount;\n    mapping(address => mapping(uint256 => MinerInfo)) public minerInfo;\n    // Total allocation poitns. Must be the sum of all allocation points in all pools.\n    uint256 public totalAllocPoint = 0;\n    // The block number when CHA mining starts.\n    uint256 public startBlock;\n    event Deposit(address indexed user, uint256 indexed pid, uint256 amount);\n    event DepositWithNFT(\n        address indexed user,\n        uint256 indexed pid,\n        uint256 amount,\n        uint16 nft1,\n        uint16 nft2,\n        uint16 nft3\n    );\n    event Withdraw(address indexed user, uint256 indexed pid, uint256 amount);\n    event Harvest(address indexed user, uint256 indexed pid, uint256 amount);\n    event EmergencyWithdraw(\n        address indexed user,\n        uint256 indexed pid,\n        uint256 amount\n    );\n\n    constructor(\n        IERC20 _chaAddress,\n        IERC721Card _nftAddress,\n        uint256 _chaPerBlock,\n        uint256 _startBlock,\n        uint256 _totalReward\n    ) {\n        panToken = _chaAddress;\n        chaPerBlock = _chaPerBlock;\n        startBlock = _startBlock;\n        totalReward = _totalReward;\n        nftToken = IERC721Card(_nftAddress);\n        lastRewardBlock = block.number > startBlock ? block.number : startBlock;\n        // totalAllocPoint = totalAllocPoint.add(_allocPoint);\n        totalPower = 0;\n    }\n\n    function releaseReward2() external view returns (uint256) {\n        return totalPower.mul(accChaPerShare).div(1e12);\n    }\n\n    function remainReward() external view returns (uint256) {\n        return totalReward - releasedReward;\n    }\n\n    function poolLength() external view returns (uint256) {\n        return poolInfo.length;\n    }\n\n    // Add a new lp to the pool. Can only be called by the owner.\n    // XXX DO NOT add the same LP token more than once. Rewards will be messed up if you do.\n    function addPool(\n        uint256 _powerRate,\n        IERC20 _token,\n        bool _isLp,\n        uint32 timeBlocks,\n        bool _withUpdate\n    ) public onlyOwner {\n        if (_withUpdate) {\n            updateReward();\n        }\n\n        poolInfo.push(\n            PoolInfo({\n                lpToken: _token,\n                isLp: _isLp,\n                timeBlocks: timeBlocks,\n                powerRate: _powerRate\n            })\n        );\n    }\n\n    // Update the given pool's CHA power rate. Can only be called by the owner.\n    function setPool(\n        uint256 _pid,\n        uint256 _powerRate,\n        bool _withUpdate\n    ) public onlyOwner {\n        if (_withUpdate) {\n            updateReward();\n        }\n        poolInfo[_pid].powerRate = _powerRate;\n    }\n\n    // Set the migrator contract. Can only be called by the owner.\n    // function setMigrator(IMigratorChef _migrator) public onlyOwner {\n    //     migrator = _migrator;\n    // }\n\n    function getMultiplier(uint256 _from, uint256 _to)\n        public\n        pure\n        returns (uint256)\n    {\n        return _to.sub(_from);\n    }\n\n    // View function to see pending CHA on frontend.\n    function pendingReward(address _user, uint256 _pid)\n        external\n        view\n        returns (uint256)\n    {\n        // PoolInfo storage pool = poolInfo[_pid];\n        MinerInfo storage miner = minerInfo[_user][_pid];\n        uint256 accCha = accChaPerShare;\n        uint256 endBlock = block.number;\n        if (block.number > miner.endBlock) {\n            endBlock = miner.endBlock;\n        }\n        if (endBlock > lastRewardBlock && totalPower != 0) {\n            uint256 multiplier = getMultiplier(lastRewardBlock, endBlock);\n            uint256 chaReward = multiplier.mul(chaPerBlock);\n            accCha = accCha.add(chaReward.mul(1e12).div(totalPower));\n            return miner.power.mul(accCha).div(1e12).sub(miner.rewardDebt);\n        }\n        return 0;\n    }\n\n    // Update reward vairables for all pools. Be careful of gas spending!\n    // function updateReward() public {\n    //     uint256 length = poolInfo.length;\n    //     for (uint256 pid = 0; pid < length; ++pid) {\n    //         updateReward(pid);\n    //     }\n    // }\n\n    // Update reward variables of the given pool to be up-to-date.\n    function updateReward() public {\n        // PoolInfo storage pool = poolInfo[_pid];\n        // uint256 remain = panToken.balanceOf(address(this));\n        uint256 remain = totalReward.sub(releasedReward);\n        if (remain <= 0) {\n            return;\n        }\n        if (totalPower == 0) {\n            lastRewardBlock = block.number;\n            return;\n        }\n        require(lastRewardBlock <= block.number, \"lastRewardBlock not valid\");\n        uint256 multiplier = getMultiplier(lastRewardBlock, block.number);\n        uint256 chaReward = multiplier.mul(chaPerBlock);\n        if (remain < chaReward) {\n            chaReward = remain;\n        }\n        releasedReward = releasedReward.add(chaReward);\n        accChaPerShare = accChaPerShare.add(\n            chaReward.mul(1e12).div(totalPower)\n        );\n        lastRewardBlock = block.number;\n    }\n\n    // Deposit LP tokens to DogeFoodPool for CHA allocation.\n    function depositWithNFT(\n        uint256 _pid,\n        uint16 countday,\n        uint16 nft1,\n        uint16 nft2,\n        uint16 nft3\n    ) public {\n        PoolInfo storage pool = poolInfo[_pid];\n        uint256 count = minerCount[msg.sender];\n        MinerInfo memory miner = minerInfo[msg.sender][count];\n        require(\n            countday >= 7 && countday <= 30,\n            \"Depsite count day should between 7 and 30.\"\n        );\n        require(\n            nft1 > 0 && nft2 > 0 && nft3 > 0,\n            \"Depsite nft 1 2 3 should be empty.\"\n        );\n        updateReward();\n\n        uint256 power = 0;\n        if (nft1 > 0 && nftToken.ownerOf(nft1) == msg.sender) {\n            power += nftToken.powerOf(nft1);\n            nftToken.safeTransferFrom(msg.sender, address(this), nft1);\n        }\n        if (nft2 > 0 && nftToken.ownerOf(nft2) == msg.sender) {\n            power += nftToken.powerOf(nft2);\n            nftToken.safeTransferFrom(msg.sender, address(this), nft2);\n        }\n        if (nft3 > 0 && nftToken.ownerOf(nft3) == msg.sender) {\n            power += nftToken.powerOf(nft3);\n            nftToken.safeTransferFrom(msg.sender, address(this), nft3);\n        }\n        uint256 amount = 1000; // 1USDT = 1000 DOGEFOOD\n        totalPower = totalPower.add(power);\n        uint256 blockNumber = block.number;\n        miner.power = power;\n        miner.endBlock = blockNumber.add(countday * 24 * 1200);\n        miner.nft1 = uint16(nft1);\n        miner.nft2 = uint16(nft2);\n        miner.nft3 = uint16(nft3);\n        miner.rewardDebt = miner.power.mul(accChaPerShare).div(1e12);\n\n        minerInfo[msg.sender][count] = miner;\n        emit DepositWithNFT(msg.sender, _pid, power, nft1, nft2, nft3);\n    }\n\n    // harvest LP tokens from DogeFoodPool.\n    function harvest(uint256 _pid) public {\n        // PoolInfo storage pool = poolInfo[_pid];\n        MinerInfo storage miner = minerInfo[msg.sender][_pid];\n        updateReward();\n        uint256 pending = miner.power.mul(accChaPerShare).div(1e12).sub(\n            miner.rewardDebt\n        );\n        require(pending > 0, \"harvest: none reward\");\n        safeChaTransfer(msg.sender, pending);\n        miner.rewardDebt = miner.power.mul(accChaPerShare).div(1e12);\n        emit Harvest(msg.sender, _pid, pending);\n    }\n\n    // Withdraw LP tokens from DogeFoodPool.\n    function withdraw(uint256 _pid, uint256 _amount) public {\n        PoolInfo storage pool = poolInfo[_pid];\n        MinerInfo storage miner = minerInfo[msg.sender][_pid];\n        require(\n            miner.endBlock <= block.number,\n            \"Cannot withdraw with days limit.\"\n        );\n        require(accChaPerShare > 0, \"accChaPerShare should not be zero\");\n        updateReward();\n        if (miner.amount.mul(accChaPerShare).div(1e12) > miner.rewardDebt) {\n            uint256 pending = miner.amount.mul(accChaPerShare).div(1e12).sub(\n                miner.rewardDebt\n            );\n            safeChaTransfer(msg.sender, pending);\n        }\n\n        if (miner.nft1 > 0) {\n            nftToken.safeTransferFrom(address(this), msg.sender, miner.nft1);\n        }\n        if (miner.nft2 > 0) {\n            nftToken.safeTransferFrom(address(this), msg.sender, miner.nft2);\n        }\n        if (miner.nft3 > 0) {\n            nftToken.safeTransferFrom(address(this), msg.sender, miner.nft3);\n        }\n\n        // reduce power\n        // uint256 power = miner.power.mul(_amount).div(miner.amount);\n        totalPower = totalPower.sub(miner.power);\n\n        userPower[msg.sender] = userPower[msg.sender].sub(miner.power);\n        //  reduce amount\n        miner.power = 0;\n        miner.nft1 = 0;\n        miner.nft2 = 0;\n        miner.nft3 = 0;\n        miner.rewardDebt = 0;\n        // minerInfo[_pid][msg.sender] = 0;\n\n        emit Withdraw(msg.sender, _pid, _amount);\n    }\n\n    // Safe panToken transfer function, just in case if rounding error causes pool to not have enough CHA.\n    function safeChaTransfer(address _to, uint256 _amount) internal {\n        uint256 chaBal = panToken.balanceOf(address(this));\n        if (_amount > chaBal) {\n            _amount = chaBal;\n        }\n        panToken.transfer(blackholeAddress, _amount.mul(5).div(100));\n        // panToken.transfer(liquidAddress, _amount.mul(4).div(100));\n        panToken.transfer(_to, _amount.sub(_amount.mul(13).div(100)));\n    }\n}\n",
  "sourcePath": "/Users/jilong/solidity/pantheonNFT/contracts/DogeFoodSoloPool.sol",
  "compiler": {
    "name": "solc",
    "version": "0.8.6+commit.11564f7e.Emscripten.clang"
  },
  "schemaVersion": "3.4.3",
  "updatedAt": "2022-05-04T22:35:49.361Z",
  "devdoc": {
    "kind": "dev",
    "methods": {
      "onERC721Received(address,address,uint256,bytes)": {
        "details": "See {IERC721Receiver-onERC721Received}. Always returns `IERC721Receiver.onERC721Received.selector`."
      },
      "owner()": {
        "details": "Returns the address of the current owner."
      },
      "renounceOwnership()": {
        "details": "Leaves the contract without owner. It will not be possible to call `onlyOwner` functions anymore. Can only be called by the current owner. NOTE: Renouncing ownership will leave the contract without an owner, thereby removing any functionality that is only available to the owner."
      },
      "transferOwnership(address)": {
        "details": "Transfers ownership of the contract to a new account (`newOwner`). Can only be called by the current owner."
      }
    },
    "version": 1
  },
  "userdoc": {
    "kind": "user",
    "methods": {},
    "version": 1
  }
}