{
  "contractName": "DogeFoodC2C",
  "abi": [
    {
      "inputs": [
        {
          "internalType": "address",
          "name": "beneficience_",
          "type": "address"
        },
        {
          "internalType": "address",
          "name": "nftAddress_",
          "type": "address"
        },
        {
          "internalType": "address",
          "name": "tokenAddress_",
          "type": "address"
        }
      ],
      "stateMutability": "nonpayable",
      "type": "constructor"
    },
    {
      "anonymous": false,
      "inputs": [
        {
          "indexed": false,
          "internalType": "address",
          "name": "owner",
          "type": "address"
        },
        {
          "indexed": false,
          "internalType": "uint256",
          "name": "nftId",
          "type": "uint256"
        },
        {
          "indexed": false,
          "internalType": "uint256",
          "name": "value",
          "type": "uint256"
        },
        {
          "indexed": false,
          "internalType": "uint256",
          "name": "timestamp",
          "type": "uint256"
        }
      ],
      "name": "C2CBuyItemEvent",
      "type": "event"
    },
    {
      "anonymous": false,
      "inputs": [
        {
          "indexed": false,
          "internalType": "address",
          "name": "owner",
          "type": "address"
        },
        {
          "indexed": false,
          "internalType": "uint256",
          "name": "nftId",
          "type": "uint256"
        },
        {
          "indexed": false,
          "internalType": "uint256",
          "name": "value",
          "type": "uint256"
        },
        {
          "indexed": false,
          "internalType": "uint256",
          "name": "timestamp",
          "type": "uint256"
        }
      ],
      "name": "C2CDepositItemEvent",
      "type": "event"
    },
    {
      "anonymous": false,
      "inputs": [
        {
          "indexed": false,
          "internalType": "address",
          "name": "owner",
          "type": "address"
        },
        {
          "indexed": false,
          "internalType": "uint256",
          "name": "nftId",
          "type": "uint256"
        },
        {
          "indexed": false,
          "internalType": "uint256",
          "name": "timestamp",
          "type": "uint256"
        }
      ],
      "name": "C2CDownItemEvent",
      "type": "event"
    },
    {
      "anonymous": false,
      "inputs": [
        {
          "indexed": true,
          "internalType": "address",
          "name": "previousOwner",
          "type": "address"
        },
        {
          "indexed": true,
          "internalType": "address",
          "name": "newOwner",
          "type": "address"
        }
      ],
      "name": "OwnershipTransferred",
      "type": "event"
    },
    {
      "inputs": [],
      "name": "beneficience",
      "outputs": [
        {
          "internalType": "address",
          "name": "",
          "type": "address"
        }
      ],
      "stateMutability": "view",
      "type": "function"
    },
    {
      "inputs": [
        {
          "internalType": "uint256",
          "name": "",
          "type": "uint256"
        }
      ],
      "name": "c2cAllItems",
      "outputs": [
        {
          "internalType": "address",
          "name": "author",
          "type": "address"
        },
        {
          "internalType": "uint256",
          "name": "nftId",
          "type": "uint256"
        },
        {
          "internalType": "uint256",
          "name": "value",
          "type": "uint256"
        },
        {
          "internalType": "uint256",
          "name": "timestamp",
          "type": "uint256"
        }
      ],
      "stateMutability": "view",
      "type": "function"
    },
    {
      "inputs": [],
      "name": "c2cEnabled",
      "outputs": [
        {
          "internalType": "bool",
          "name": "",
          "type": "bool"
        }
      ],
      "stateMutability": "view",
      "type": "function"
    },
    {
      "inputs": [],
      "name": "c2cFee",
      "outputs": [
        {
          "internalType": "uint8",
          "name": "",
          "type": "uint8"
        }
      ],
      "stateMutability": "view",
      "type": "function"
    },
    {
      "inputs": [
        {
          "internalType": "uint256",
          "name": "",
          "type": "uint256"
        }
      ],
      "name": "c2cItems",
      "outputs": [
        {
          "internalType": "address",
          "name": "author",
          "type": "address"
        },
        {
          "internalType": "uint256",
          "name": "nftId",
          "type": "uint256"
        },
        {
          "internalType": "uint256",
          "name": "value",
          "type": "uint256"
        },
        {
          "internalType": "uint256",
          "name": "timestamp",
          "type": "uint256"
        }
      ],
      "stateMutability": "view",
      "type": "function"
    },
    {
      "inputs": [],
      "name": "chairperson",
      "outputs": [
        {
          "internalType": "address",
          "name": "",
          "type": "address"
        }
      ],
      "stateMutability": "view",
      "type": "function"
    },
    {
      "inputs": [],
      "name": "nftToken",
      "outputs": [
        {
          "internalType": "contract IERC721",
          "name": "",
          "type": "address"
        }
      ],
      "stateMutability": "view",
      "type": "function"
    },
    {
      "inputs": [
        {
          "internalType": "address",
          "name": "",
          "type": "address"
        },
        {
          "internalType": "address",
          "name": "",
          "type": "address"
        },
        {
          "internalType": "uint256",
          "name": "",
          "type": "uint256"
        },
        {
          "internalType": "bytes",
          "name": "",
          "type": "bytes"
        }
      ],
      "name": "onERC721Received",
      "outputs": [
        {
          "internalType": "bytes4",
          "name": "",
          "type": "bytes4"
        }
      ],
      "stateMutability": "nonpayable",
      "type": "function"
    },
    {
      "inputs": [],
      "name": "owner",
      "outputs": [
        {
          "internalType": "address",
          "name": "",
          "type": "address"
        }
      ],
      "stateMutability": "view",
      "type": "function"
    },
    {
      "inputs": [],
      "name": "renounceOwnership",
      "outputs": [],
      "stateMutability": "nonpayable",
      "type": "function"
    },
    {
      "inputs": [],
      "name": "token",
      "outputs": [
        {
          "internalType": "contract IERC20",
          "name": "",
          "type": "address"
        }
      ],
      "stateMutability": "view",
      "type": "function"
    },
    {
      "inputs": [],
      "name": "tokenAddress",
      "outputs": [
        {
          "internalType": "address payable",
          "name": "",
          "type": "address"
        }
      ],
      "stateMutability": "view",
      "type": "function"
    },
    {
      "inputs": [],
      "name": "totalItem",
      "outputs": [
        {
          "internalType": "uint256",
          "name": "",
          "type": "uint256"
        }
      ],
      "stateMutability": "view",
      "type": "function"
    },
    {
      "inputs": [
        {
          "internalType": "address",
          "name": "newOwner",
          "type": "address"
        }
      ],
      "name": "transferOwnership",
      "outputs": [],
      "stateMutability": "nonpayable",
      "type": "function"
    },
    {
      "inputs": [
        {
          "internalType": "address payable",
          "name": "nftAddress_",
          "type": "address"
        }
      ],
      "name": "setNFTAddress",
      "outputs": [],
      "stateMutability": "nonpayable",
      "type": "function"
    },
    {
      "inputs": [
        {
          "internalType": "uint256",
          "name": "nftId",
          "type": "uint256"
        },
        {
          "internalType": "uint256",
          "name": "value",
          "type": "uint256"
        }
      ],
      "name": "depositC2CItem",
      "outputs": [
        {
          "internalType": "bool",
          "name": "",
          "type": "bool"
        }
      ],
      "stateMutability": "nonpayable",
      "type": "function"
    },
    {
      "inputs": [
        {
          "internalType": "uint256",
          "name": "nftId",
          "type": "uint256"
        }
      ],
      "name": "buyC2CItem",
      "outputs": [
        {
          "internalType": "bool",
          "name": "",
          "type": "bool"
        }
      ],
      "stateMutability": "payable",
      "type": "function"
    },
    {
      "inputs": [
        {
          "internalType": "uint256",
          "name": "nftId",
          "type": "uint256"
        }
      ],
      "name": "downC2CItem",
      "outputs": [
        {
          "internalType": "bool",
          "name": "",
          "type": "bool"
        }
      ],
      "stateMutability": "nonpayable",
      "type": "function"
    },
    {
      "inputs": [
        {
          "internalType": "uint256",
          "name": "nftId",
          "type": "uint256"
        }
      ],
      "name": "getC2CItem",
      "outputs": [
        {
          "components": [
            {
              "internalType": "address",
              "name": "author",
              "type": "address"
            },
            {
              "internalType": "uint256",
              "name": "nftId",
              "type": "uint256"
            },
            {
              "internalType": "uint256",
              "name": "value",
              "type": "uint256"
            },
            {
              "internalType": "uint256",
              "name": "timestamp",
              "type": "uint256"
            }
          ],
          "internalType": "struct DogeFoodC2C.C2CItem",
          "name": "item",
          "type": "tuple"
        }
      ],
      "stateMutability": "view",
      "type": "function"
    },
    {
      "inputs": [],
      "name": "getTotalItem",
      "outputs": [
        {
          "internalType": "uint256",
          "name": "",
          "type": "uint256"
        }
      ],
      "stateMutability": "view",
      "type": "function"
    },
    {
      "inputs": [],
      "name": "release",
      "outputs": [],
      "stateMutability": "nonpayable",
      "type": "function"
    },
    {
      "inputs": [
        {
          "internalType": "uint8",
          "name": "fee",
          "type": "uint8"
        }
      ],
      "name": "setC2CFee",
      "outputs": [],
      "stateMutability": "nonpayable",
      "type": "function"
    },
    {
      "inputs": [
        {
          "internalType": "bool",
          "name": "enable",
          "type": "bool"
        }
      ],
      "name": "setC2CEnable",
      "outputs": [],
      "stateMutability": "nonpayable",
      "type": "function"
    },
    {
      "inputs": [],
      "name": "isC2CEnable",
      "outputs": [
        {
          "internalType": "bool",
          "name": "",
          "type": "bool"
        }
      ],
      "stateMutability": "view",
      "type": "function"
    }
  ],
  "bytecode": "0x6080604052620f42406001556702c68af0bb140000600255670de0b6b3a76400006003553480156200003057600080fd5b506040516200177f3803806200177f83398101604081905262000053916200014b565b6200005e33620000de565b60098054336001600160a01b031991821617909155600b805460ff19908116600117909155600d805460049216821790556006805483166001600160a01b03958616908117909155600780548416909117905580548216928416928317905560088054821694909316939093179091556005805490921617905562000195565b600080546001600160a01b038381166001600160a01b0319831681178455604051919092169283917f8be0079c531659141344cd1fd0a4f28419497f9722a3daafe3b4186f6b6457e09190a35050565b80516001600160a01b03811681146200014657600080fd5b919050565b6000806000606084860312156200016157600080fd5b6200016c846200012e565b92506200017c602085016200012e565b91506200018c604085016200012e565b90509250925092565b6115da80620001a56000396000f3fe60806040526004361061014b5760003560e01c8063997a3745116100b6578063e9a3655c1161006f578063e9a3655c146103e7578063f15cdad114610407578063f2fde38b14610421578063f482e24314610441578063fc0c546a1461049d578063fd416934146104bd57600080fd5b8063997a3745146103065780639d76ea5814610326578063ae4c603014610346578063bda4fd8914610365578063d06fcba81461037b578063d59ae61c1461039b57600080fd5b806369d037381161010857806369d037381461026b578063715018a61461028b57806377694e01146102a057806385b4c290146102c057806386d1a69f146102d35780638da5cb5b146102e857600080fd5b80630407505214610150578063150b7a02146101855780632e4176cf146101c9578063403a990914610201578063494c650f146102195780634b9f07831461023b575b600080fd5b34801561015c57600080fd5b5061017061016b3660046113ef565b6104e9565b60405190151581526020015b60405180910390f35b34801561019157600080fd5b506101b06101a03660046112d5565b630a85bd0160e11b949350505050565b6040516001600160e01b0319909116815260200161017c565b3480156101d557600080fd5b506009546101e9906001600160a01b031681565b6040516001600160a01b03909116815260200161017c565b34801561020d57600080fd5b50600b5460ff16610170565b34801561022557600080fd5b50610239610234366004611443565b6106c0565b005b34801561024757600080fd5b5061025b6102563660046113ef565b610700565b60405161017c949392919061148a565b34801561027757600080fd5b5061023961028636600461129b565b610744565b34801561029757600080fd5b506102396107ad565b3480156102ac57600080fd5b506008546101e9906001600160a01b031681565b6101706102ce3660046113ef565b6107e3565b3480156102df57600080fd5b50610239610bdf565b3480156102f457600080fd5b506000546001600160a01b03166101e9565b34801561031257600080fd5b506102396103213660046113b5565b610d4c565b34801561033257600080fd5b506004546101e9906001600160a01b031681565b34801561035257600080fd5b50600c545b60405190815260200161017c565b34801561037157600080fd5b50610357600c5481565b34801561038757600080fd5b506007546101e9906001600160a01b031681565b3480156103a757600080fd5b5061025b6103b63660046113ef565b600e6020526000908152604090208054600182015460028301546003909301546001600160a01b0390921692909184565b3480156103f357600080fd5b50610170610402366004611421565b610d89565b34801561041357600080fd5b50600b546101709060ff1681565b34801561042d57600080fd5b5061023961043c36600461129b565b6110fa565b34801561044d57600080fd5b5061046161045c3660046113ef565b611192565b60405161017c919081516001600160a01b0316815260208083015190820152604080830151908201526060918201519181019190915260800190565b3480156104a957600080fd5b506005546101e9906001600160a01b031681565b3480156104c957600080fd5b50600d546104d79060ff1681565b60405160ff909116815260200161017c565b6000818152600e60209081526040808320815160808101835281546001600160a01b0316808252600183015494820194909452600282015492810192909252600301546060820152429161057f5760405162461bcd60e51b8152602060048201526018602482015277151a1a5cc81b999d081a5cc81b9bdd08199bdc881cd95b1b60421b60448201526064015b60405180910390fd5b80516001600160a01b031633146105cd5760405162461bcd60e51b815260206004820152601260248201527149742773206e6f7420796f7572206974656d60701b6044820152606401610576565b600754604051632142170760e11b81526001600160a01b03909116906342842e0e9061060190309033908990600401611466565b600060405180830381600087803b15801561061b57600080fd5b505af115801561062f573d6000803e3d6000fd5b5050506000858152600e6020908152604080832080546001600160a01b031916815560018101849055600281018490556003019290925581513381529081018790529081018490527fd6a8a797238a0196f4a98543809e846abfdc496a09799c6857519d5156447dc1915060600160405180910390a1600c546106b3906001611214565b600c555060019392505050565b6000546001600160a01b031633146106ea5760405162461bcd60e51b8152600401610576906114b0565b600d805460ff191660ff92909216919091179055565b600a818154811061071057600080fd5b600091825260209091206004909102018054600182015460028301546003909301546001600160a01b039092169350919084565b6000546001600160a01b0316331461076e5760405162461bcd60e51b8152600401610576906114b0565b6001600160a01b03811661078157600080fd5b600680546001600160a01b039092166001600160a01b0319928316811790915560078054909216179055565b6000546001600160a01b031633146107d75760405162461bcd60e51b8152600401610576906114b0565b6107e16000611227565b565b6000818152600e60209081526040808320815160808101835281546001600160a01b03168152600182015493810193909352600281015491830191909152600301546060820152600b5442919060ff166108755760405162461bcd60e51b81526020600482015260136024820152722199219039bcb9ba32b69034b9903237bbb71760691b6044820152606401610576565b80516001600160a01b03166108c75760405162461bcd60e51b8152602060048201526018602482015277151a1a5cc81b999d081a5cc81b9bdd08199bdc881cd95b1b60421b6044820152606401610576565b60408181015160055491516370a0823160e01b8152336004820152909182916001600160a01b03909116906370a082319060240160206040518083038186803b15801561091357600080fd5b505afa158015610927573d6000803e3d6000fd5b505050506040513d601f19601f8201168201806040525081019061094b9190611408565b10156109aa5760405162461bcd60e51b815260206004820152602860248201527f5468652076616c756520697320696e73756666696365696e7420666f7220746860448201526734b9903a37b5b2b760c11b6064820152608401610576565b600754604051632142170760e11b81526001600160a01b03909116906342842e0e906109de90309033908a90600401611466565b600060405180830381600087803b1580156109f857600080fd5b505af1158015610a0c573d6000803e3d6000fd5b5050600d5460009250610a319150606490610a2b90859060ff16611277565b90611283565b60055484519192506001600160a01b0316906323b872dd903390610a558686611214565b6040518463ffffffff1660e01b8152600401610a7393929190611466565b602060405180830381600087803b158015610a8d57600080fd5b505af1158015610aa1573d6000803e3d6000fd5b505050506040513d601f19601f82011682018060405250810190610ac591906113d2565b506005546008546040516323b872dd60e01b81526001600160a01b03928316926323b872dd92610aff923392909116908690600401611466565b602060405180830381600087803b158015610b1957600080fd5b505af1158015610b2d573d6000803e3d6000fd5b505050506040513d601f19601f82011682018060405250810190610b5191906113d2565b506000868152600e6020526040812080546001600160a01b0319168155600180820183905560028201839055600390910191909155600c54610b9291611214565b600c556040517f34a30b4763822d24aabe89e533a6b7cb17320c79b6f36fd8d24f6ec9d1ccd05a90610bcb90339089908690899061148a565b60405180910390a150600195945050505050565b6000546001600160a01b03163314610c095760405162461bcd60e51b8152600401610576906114b0565b6009546040516001600160a01b03909116904780156108fc02916000818181858888f19350505050158015610c42573d6000803e3d6000fd5b506005546009546040516370a0823160e01b81523060048201526001600160a01b039283169263a9059cbb92169083906370a082319060240160206040518083038186803b158015610c9357600080fd5b505afa158015610ca7573d6000803e3d6000fd5b505050506040513d601f19601f82011682018060405250810190610ccb9190611408565b6040516001600160e01b031960e085901b1681526001600160a01b0390921660048301526024820152604401602060405180830381600087803b158015610d1157600080fd5b505af1158015610d25573d6000803e3d6000fd5b505050506040513d601f19601f82011682018060405250810190610d4991906113d2565b50565b6000546001600160a01b03163314610d765760405162461bcd60e51b8152600401610576906114b0565b600b805460ff1916911515919091179055565b600b54600090429060ff16610dd65760405162461bcd60e51b81526020600482015260136024820152722199219039bcb9ba32b69034b9903237bbb71760691b6044820152606401610576565b600154831015610e285760405162461bcd60e51b815260206004820181905260248201527f4e46542076616c75652073686f756c6420626967207468616e20302e314554486044820152606401610576565b6007546040516370a0823160e01b81523360048201526000916001600160a01b0316906370a082319060240160206040518083038186803b158015610e6c57600080fd5b505afa158015610e80573d6000803e3d6000fd5b505050506040513d601f19601f82011682018060405250810190610ea49190611408565b11610ef15760405162461bcd60e51b815260206004820181905260248201527f53656e64657220686173206e6f6e65206f6620746869732074797065206e66746044820152606401610576565b6007546040516331a9108f60e11b81526004810186905233916001600160a01b031690636352211e9060240160206040518083038186803b158015610f3557600080fd5b505afa158015610f49573d6000803e3d6000fd5b505050506040513d601f19601f82011682018060405250810190610f6d91906112b8565b6001600160a01b031614610fcf5760405162461bcd60e51b8152602060048201526024808201527f53656e646572206973206e6f7420746865206f776e6572206f662074686973206044820152636974656d60e01b6064820152608401610576565b6007546040516323b872dd60e01b81526001600160a01b03909116906323b872dd9061100390339030908990600401611466565b600060405180830381600087803b15801561101d57600080fd5b505af1158015611031573d6000803e3d6000fd5b5050604080516080810182523381526020808201898152828401898152426060850190815260008c8152600e90945294909220835181546001600160a01b0319166001600160a01b039091161781559051600180830191909155915160028201559251600390930192909255600c549093506110ae92509061128f565b600c556040517f44312976b1f5e95e73b3484c3c98f645e08e08b5059b84dfea041a4e815a736b906110e790339088908890879061148a565b60405180910390a1506001949350505050565b6000546001600160a01b031633146111245760405162461bcd60e51b8152600401610576906114b0565b6001600160a01b0381166111895760405162461bcd60e51b815260206004820152602660248201527f4f776e61626c653a206e6577206f776e657220697320746865207a65726f206160448201526564647265737360d01b6064820152608401610576565b610d4981611227565b6111c6604051806080016040528060006001600160a01b031681526020016000815260200160008152602001600081525090565b506000908152600e6020908152604091829020825160808101845281546001600160a01b03168152600182015492810192909252600281015492820192909252600390910154606082015290565b6000611220828461153e565b9392505050565b600080546001600160a01b038381166001600160a01b0319831681178455604051919092169283917f8be0079c531659141344cd1fd0a4f28419497f9722a3daafe3b4186f6b6457e09190a35050565b6000611220828461151f565b600061122082846114fd565b600061122082846114e5565b6000602082840312156112ad57600080fd5b813561122081611581565b6000602082840312156112ca57600080fd5b815161122081611581565b600080600080608085870312156112eb57600080fd5b84356112f681611581565b9350602085013561130681611581565b925060408501359150606085013567ffffffffffffffff8082111561132a57600080fd5b818701915087601f83011261133e57600080fd5b8135818111156113505761135061156b565b604051601f8201601f19908116603f011681019083821181831017156113785761137861156b565b816040528281528a602084870101111561139157600080fd5b82602086016020830137600060208483010152809550505050505092959194509250565b6000602082840312156113c757600080fd5b813561122081611596565b6000602082840312156113e457600080fd5b815161122081611596565b60006020828403121561140157600080fd5b5035919050565b60006020828403121561141a57600080fd5b5051919050565b6000806040838503121561143457600080fd5b50508035926020909101359150565b60006020828403121561145557600080fd5b813560ff8116811461122057600080fd5b6001600160a01b039384168152919092166020820152604081019190915260600190565b6001600160a01b0394909416845260208401929092526040830152606082015260800190565b6020808252818101527f4f776e61626c653a2063616c6c6572206973206e6f7420746865206f776e6572604082015260600190565b600082198211156114f8576114f8611555565b500190565b60008261151a57634e487b7160e01b600052601260045260246000fd5b500490565b600081600019048311821515161561153957611539611555565b500290565b60008282101561155057611550611555565b500390565b634e487b7160e01b600052601160045260246000fd5b634e487b7160e01b600052604160045260246000fd5b6001600160a01b0381168114610d4957600080fd5b8015158114610d4957600080fdfea26469706673582212205146e241e27dc18f9f1c852f69d5417884e42441ae7ee84314aec59907bd36e864736f6c63430008060033",
  "immutableReferences": {},
  "source": "\nimport \"./utils/math/SafeMath.sol\";\nimport \"./utils/Address.sol\";\nimport \"./token/ERC721/IERC721.sol\";\nimport \"./token/ERC20/IERC20.sol\";\nimport \"./access/Ownable.sol\";\nimport \"./token/ERC721/utils/ERC721Holder.sol\";\n\npragma solidity ^0.8.0;\n// SPDX-License-Identifier: MIT\n\ncontract DogeFoodC2C is Ownable, ERC721Holder{\n\n  uint MIN_DEPOSITE = 1*10**6; // 1PAN\n  uint MAX_DEPOSITE_ETH = 0.2 ether; //10\n  uint MAX_DEPOSITE_SCC = 1*10**18; //10**12\n\n  enum C2CStatus{\n    C2C_ONLINE,\n    C2C_OFFLINE,\n    C2C_LOCKED,\n    C2C_PAUSED\n  }\n\n  struct C2CItem {\n    address author;\n    uint nftId;\n    uint value;\n    // C2CStatus status;\n    uint timestamp;\n  }\n\n  using SafeMath for uint;\n\n  event C2CDepositItemEvent(address owner, uint nftId, uint value, uint timestamp);\n  event C2CBuyItemEvent(address owner, uint nftId, uint value, uint timestamp);\n  event C2CDownItemEvent(address owner, uint nftId, uint timestamp);\n\n  // \n  address payable public tokenAddress;\n  IERC20 public token;\n\n  // NFTToken\n  address nftAddress;\n  IERC721 public nftToken;\n  address public beneficience;\n\n  // \n  address public chairperson;\n  C2CItem[] public c2cAllItems;\n  \n  bool public c2cEnabled;\n  // // \n  uint public totalItem;\n  // C2C fee \n  uint8 public c2cFee;\n\n  // IDO\n  mapping(uint => C2CItem) public c2cItems;\n  // \n  // ido \n  constructor(address beneficience_, address nftAddress_, address tokenAddress_) {\n  \tchairperson = msg.sender;\n  \t// remainSupply = TOTAL_ETH_SUPPLY;\n    c2cEnabled = true;\n    c2cFee = 4;\n    nftAddress = nftAddress_;\n  \tnftToken = IERC721(nftAddress);\n    tokenAddress = payable(tokenAddress_);\n    beneficience = beneficience_;\n    token = IERC20(tokenAddress);\n  }\n  \n  function setNFTAddress(address payable nftAddress_) public onlyOwner{\n    require(nftAddress_ != address(0));\n     nftAddress = nftAddress_;\n     nftToken = IERC721(nftAddress);\n  }\n\n  // ETH\n  // ETH\n  function depositC2CItem(uint nftId, uint value) public returns (bool){\n    uint timestamp = block.timestamp;\n\n    require(c2cEnabled, \"C2C system is down.\");\n\n    require(value >= MIN_DEPOSITE, \"NFT value should big than 0.1ETH\");\n    // NFT\n    require(nftToken.balanceOf(msg.sender) >0, \"Sender has none of this type nft\");\n    // NFT\n    require(nftToken.ownerOf(nftId) == msg.sender, \"Sender is not the owner of this item\");\n\n    // NFT\n    nftToken.transferFrom(msg.sender, address(this), nftId);\n\n    // C2C\n    C2CItem memory c2cItem = C2CItem({\n      nftId: nftId,\n      value: value,\n      author: msg.sender,\n      timestamp: block.timestamp\n    });\n    c2cItems[nftId] = c2cItem;\n    totalItem = totalItem.add(1);\n    // c2cAllItems.push();\n\n    emit C2CDepositItemEvent(msg.sender, nftId, value, timestamp);\n    \n    return true;\n  }\n\n  // IDO\n  // ETH\n  function buyC2CItem(uint nftId) payable public returns (bool){\n    uint timestamp = block.timestamp;\n    // nftitem\n    C2CItem memory c2cItem = c2cItems[nftId];\n    require(c2cEnabled, \"C2C system is down.\");\n    require(c2cItem.author != address(0), \"This nft is not for sell\");\n    // \n    uint value = c2cItem.value;\n    // \n    require(token.balanceOf(msg.sender) >= c2cItem.value, \"The value is insufficeint for this token\");\n\n    // NFT\n    nftToken.safeTransferFrom(address(this), msg.sender, nftId);\n    \n    // \n    uint fee = value.mul(c2cFee).div(100);\n    token.transferFrom(msg.sender, c2cItem.author, value.sub(fee));\n    token.transferFrom(msg.sender, beneficience, fee);\n\n    delete c2cItems[nftId];\n    totalItem = totalItem.sub(1);\n    // \n    emit C2CBuyItemEvent(msg.sender, nftId, value, timestamp);\n\n    return true;\n\n  }\n\n  // IDO\n  // ETH\n  function downC2CItem(uint nftId) public returns (bool){\n    uint timestamp = block.timestamp;\n    // nftitem\n    C2CItem memory c2cItem = c2cItems[nftId];\n    // item\n    require(c2cItem.author != address(0), \"This nft is not for sell\");\n\n    // check is author has the permmit.\n    require(c2cItem.author == msg.sender, \"It's not your item\");\n\n    // NFT\n    nftToken.safeTransferFrom(address(this), msg.sender, nftId);\n\n    delete c2cItems[nftId];\n\n    // \n    emit C2CDownItemEvent(msg.sender, nftId, timestamp);\n    totalItem = totalItem.sub(1);\n    // c2cItems.push(C2CItem({\n    //   nftId: nftId,\n    //   value: value,\n    //   status: C2CStatus.C2C_ONLINE,\n    //   timestamp: block.timestamp\n    // }));\n    return true;\n\n  }\n  \n  function getC2CItem(uint nftId) public view returns(C2CItem memory item){\n    return c2cItems[nftId];\n  }\n\n  function getTotalItem() public view returns (uint) {\n    return totalItem;\n  }\n\n  function release() public  onlyOwner {\n      payable(chairperson).transfer(address(this).balance);\n      token.transfer(chairperson, token.balanceOf(address(this)));\n  }\n\nfunction setC2CFee(uint8 fee) public onlyOwner {\n    c2cFee = fee; //div 100\n  }\n\n  function setC2CEnable(bool enable) public onlyOwner {\n    c2cEnabled = enable;\n  }\n\n  function isC2CEnable() public view returns(bool) {\n    return c2cEnabled;\n  }\n\n}",
  "sourcePath": "/Users/jilong/solidity/pantheonNFT/contracts/DogeFoodC2C.sol",
  "compiler": {
    "name": "solc",
    "version": "0.8.6+commit.11564f7e.Emscripten.clang"
  },
  "schemaVersion": "3.4.3",
  "updatedAt": "2022-05-16T06:20:12.294Z",
  "devdoc": {
    "kind": "dev",
    "methods": {
      "onERC721Received(address,address,uint256,bytes)": {
        "details": "See {IERC721Receiver-onERC721Received}. Always returns `IERC721Receiver.onERC721Received.selector`."
      },
      "owner()": {
        "details": "Returns the address of the current owner."
      },
      "renounceOwnership()": {
        "details": "Leaves the contract without owner. It will not be possible to call `onlyOwner` functions anymore. Can only be called by the current owner. NOTE: Renouncing ownership will leave the contract without an owner, thereby removing any functionality that is only available to the owner."
      },
      "transferOwnership(address)": {
        "details": "Transfers ownership of the contract to a new account (`newOwner`). Can only be called by the current owner."
      }
    },
    "version": 1
  },
  "userdoc": {
    "kind": "user",
    "methods": {},
    "version": 1
  }
}