{
  "contractName": "DogeFoodBlindBox",
  "abi": [
    {
      "inputs": [
        {
          "internalType": "address",
          "name": "beneficiary_",
          "type": "address"
        }
      ],
      "stateMutability": "payable",
      "type": "constructor"
    },
    {
      "anonymous": false,
      "inputs": [
        {
          "indexed": false,
          "internalType": "address",
          "name": "to",
          "type": "address"
        },
        {
          "indexed": false,
          "internalType": "uint8",
          "name": "category",
          "type": "uint8"
        },
        {
          "indexed": false,
          "internalType": "enum DogeFoodBlindBox.BBoxStatus",
          "name": "status",
          "type": "uint8"
        },
        {
          "indexed": false,
          "internalType": "uint16",
          "name": "current",
          "type": "uint16"
        },
        {
          "indexed": false,
          "internalType": "uint16",
          "name": "total",
          "type": "uint16"
        }
      ],
      "name": "BBoxSoldEvent",
      "type": "event"
    },
    {
      "anonymous": false,
      "inputs": [
        {
          "indexed": false,
          "internalType": "enum DogeFoodBlindBox.BBoxStatus",
          "name": "status",
          "type": "uint8"
        }
      ],
      "name": "BBoxStateEvent",
      "type": "event"
    },
    {
      "anonymous": false,
      "inputs": [
        {
          "indexed": true,
          "internalType": "address",
          "name": "previousOwner",
          "type": "address"
        },
        {
          "indexed": true,
          "internalType": "address",
          "name": "newOwner",
          "type": "address"
        }
      ],
      "name": "OwnershipTransferred",
      "type": "event"
    },
    {
      "inputs": [
        {
          "internalType": "uint256",
          "name": "",
          "type": "uint256"
        }
      ],
      "name": "bboxes",
      "outputs": [
        {
          "internalType": "contract IERC721Card",
          "name": "nftToken",
          "type": "address"
        },
        {
          "internalType": "address",
          "name": "tokenAddr",
          "type": "address"
        },
        {
          "internalType": "uint256",
          "name": "tokenValue",
          "type": "uint256"
        },
        {
          "internalType": "uint256",
          "name": "startTimestamp",
          "type": "uint256"
        },
        {
          "internalType": "uint256",
          "name": "endTimestamp",
          "type": "uint256"
        },
        {
          "internalType": "uint16",
          "name": "total",
          "type": "uint16"
        },
        {
          "internalType": "uint16",
          "name": "current",
          "type": "uint16"
        },
        {
          "internalType": "enum DogeFoodBlindBox.BBoxStatus",
          "name": "status",
          "type": "uint8"
        }
      ],
      "stateMutability": "view",
      "type": "function"
    },
    {
      "inputs": [],
      "name": "beneficiary",
      "outputs": [
        {
          "internalType": "address",
          "name": "",
          "type": "address"
        }
      ],
      "stateMutability": "view",
      "type": "function"
    },
    {
      "inputs": [],
      "name": "chairperson",
      "outputs": [
        {
          "internalType": "address",
          "name": "",
          "type": "address"
        }
      ],
      "stateMutability": "view",
      "type": "function"
    },
    {
      "inputs": [],
      "name": "nftAddress",
      "outputs": [
        {
          "internalType": "address payable",
          "name": "",
          "type": "address"
        }
      ],
      "stateMutability": "view",
      "type": "function"
    },
    {
      "inputs": [],
      "name": "owner",
      "outputs": [
        {
          "internalType": "address",
          "name": "",
          "type": "address"
        }
      ],
      "stateMutability": "view",
      "type": "function"
    },
    {
      "inputs": [],
      "name": "renounceOwnership",
      "outputs": [],
      "stateMutability": "nonpayable",
      "type": "function"
    },
    {
      "inputs": [
        {
          "internalType": "address",
          "name": "newOwner",
          "type": "address"
        }
      ],
      "name": "transferOwnership",
      "outputs": [],
      "stateMutability": "nonpayable",
      "type": "function"
    },
    {
      "inputs": [
        {
          "internalType": "uint8",
          "name": "pid",
          "type": "uint8"
        },
        {
          "internalType": "address",
          "name": "tokenAddr",
          "type": "address"
        },
        {
          "internalType": "uint256",
          "name": "tokenValue",
          "type": "uint256"
        }
      ],
      "name": "setBBoxToken",
      "outputs": [],
      "stateMutability": "nonpayable",
      "type": "function"
    },
    {
      "inputs": [
        {
          "internalType": "uint8",
          "name": "pid",
          "type": "uint8"
        },
        {
          "internalType": "uint256",
          "name": "start",
          "type": "uint256"
        },
        {
          "internalType": "uint256",
          "name": "end",
          "type": "uint256"
        }
      ],
      "name": "setBBoxTime",
      "outputs": [],
      "stateMutability": "nonpayable",
      "type": "function"
    },
    {
      "inputs": [
        {
          "internalType": "uint8",
          "name": "pid",
          "type": "uint8"
        },
        {
          "internalType": "uint16",
          "name": "total",
          "type": "uint16"
        }
      ],
      "name": "setBBoxTotal",
      "outputs": [],
      "stateMutability": "nonpayable",
      "type": "function"
    },
    {
      "inputs": [
        {
          "internalType": "uint8",
          "name": "pid",
          "type": "uint8"
        },
        {
          "internalType": "address",
          "name": "_nftAddress",
          "type": "address"
        }
      ],
      "name": "setBBoxNftToken",
      "outputs": [],
      "stateMutability": "nonpayable",
      "type": "function"
    },
    {
      "inputs": [
        {
          "internalType": "uint8",
          "name": "pid",
          "type": "uint8"
        },
        {
          "internalType": "enum DogeFoodBlindBox.BBoxStatus",
          "name": "status",
          "type": "uint8"
        }
      ],
      "name": "setBBoxStatus",
      "outputs": [],
      "stateMutability": "nonpayable",
      "type": "function"
    },
    {
      "inputs": [
        {
          "internalType": "uint8",
          "name": "pid",
          "type": "uint8"
        },
        {
          "internalType": "address",
          "name": "_nftAddress",
          "type": "address"
        },
        {
          "internalType": "address",
          "name": "tokenAddr",
          "type": "address"
        },
        {
          "internalType": "uint256",
          "name": "tokenValue",
          "type": "uint256"
        },
        {
          "internalType": "uint16",
          "name": "total",
          "type": "uint16"
        },
        {
          "internalType": "uint256",
          "name": "startTime",
          "type": "uint256"
        },
        {
          "internalType": "uint256",
          "name": "endTime",
          "type": "uint256"
        }
      ],
      "name": "setBBoxInfo",
      "outputs": [],
      "stateMutability": "nonpayable",
      "type": "function"
    },
    {
      "inputs": [
        {
          "internalType": "uint8",
          "name": "pid",
          "type": "uint8"
        }
      ],
      "name": "buyBBox",
      "outputs": [
        {
          "internalType": "bool",
          "name": "",
          "type": "bool"
        }
      ],
      "stateMutability": "payable",
      "type": "function"
    },
    {
      "inputs": [],
      "name": "release",
      "outputs": [],
      "stateMutability": "nonpayable",
      "type": "function"
    },
    {
      "inputs": [
        {
          "internalType": "uint8",
          "name": "pid",
          "type": "uint8"
        }
      ],
      "name": "isBBoxEnable",
      "outputs": [
        {
          "internalType": "bool",
          "name": "",
          "type": "bool"
        }
      ],
      "stateMutability": "view",
      "type": "function"
    }
  ],
  "bytecode": "0x60806040526040516112b83803806112b8833981016040819052610022916100ae565b61002b3361005e565b60018054336001600160a01b031991821617909155600280549091166001600160a01b03929092169190911790556100de565b600080546001600160a01b038381166001600160a01b0319831681178455604051919092169283917f8be0079c531659141344cd1fd0a4f28419497f9722a3daafe3b4186f6b6457e09190a35050565b6000602082840312156100c057600080fd5b81516001600160a01b03811681146100d757600080fd5b9392505050565b6111cb806100ed6000396000f3fe6080604052600436106100f35760003560e01c8063715018a61161008a57806390d150651161005957806390d1506514610296578063f1d1f657146102b6578063f2fde38b146102d6578063f6112dab146102f657600080fd5b8063715018a61461022e5780638471bb941461024357806386d1a69f146102635780638da5cb5b1461027857600080fd5b80633fdac1d4116100c65780633fdac1d41461019a5780635bf8633a146101ba5780635ec296ff146101da578063674edf481461020e57600080fd5b8063156d3645146100f8578063298d67d21461011a5780632e4176cf1461014257806338af3eed1461017a575b600080fd5b34801561010457600080fd5b50610118610113366004610fb9565b610316565b005b61012d610128366004610e83565b61038d565b60405190151581526020015b60405180910390f35b34801561014e57600080fd5b50600154610162906001600160a01b031681565b6040516001600160a01b039091168152602001610139565b34801561018657600080fd5b50600254610162906001600160a01b031681565b3480156101a657600080fd5b506101186101b5366004610e9e565b6106b0565b3480156101c657600080fd5b50600354610162906001600160a01b031681565b3480156101e657600080fd5b506101fa6101f5366004610e51565b610738565b60405161013998979695949392919061107c565b34801561021a57600080fd5b50610118610229366004610f7e565b6107a7565b34801561023a57600080fd5b50610118610829565b34801561024f57600080fd5b5061011861025e366004610fe3565b61085f565b34801561026f57600080fd5b506101186108cf565b34801561028457600080fd5b506000546001600160a01b0316610162565b3480156102a257600080fd5b506101186102b1366004610f42565b610a91565b3480156102c257600080fd5b5061012d6102d1366004610e83565b610b10565b3480156102e257600080fd5b506101186102f1366004610e0d565b610b6e565b34801561030257600080fd5b50610118610311366004610ed1565b610c06565b6000546001600160a01b031633146103495760405162461bcd60e51b8152600401610340906110d6565b60405180910390fd5b600060048360ff16815481106103615761036161117f565b60009182526020909120600690910201600501805461ffff191661ffff93909316929092179091555050565b600080429050600060048460ff16815481106103ab576103ab61117f565b60009182526020909120600690910201600581015490915061ffff8082166201000090920416106104165760405162461bcd60e51b81526020600482015260156024820152744e6f2072656d61696e2062626f7820737570706c7960581b6044820152606401610340565b8060030154821015801561042d5750806004015482105b6104705760405162461bcd60e51b8152602060048201526014602482015273212624a7222127ac1034b9903737ba1037b832b760611b6044820152606401610340565b60018101546001600160a01b03166104c65760028054908201546040516001600160a01b039092169181156108fc0291906000818181858888f193505050501580156104c0573d6000803e3d6000fd5b50610561565b600181015460028054908301546040516323b872dd60e01b81523360048201526001600160a01b039283166024820152604481019190915291169081906323b872dd90606401602060405180830381600087803b15801561052657600080fd5b505af115801561053a573d6000803e3d6000fd5b505050506040513d601f19601f8201168201806040525081019061055e9190610e2f565b50505b600581015461057b9062010000900461ffff16600161110b565b60058201805463ffff00001981166201000061ffff94851681029182179384905591841690841617910490911614156105c65760058101805464ff0000000019166402000000001790555b805460405163a5ba33f560e01b815260ff861660048201523360248201526001600160a01b039091169063a5ba33f590604401602060405180830381600087803b15801561061357600080fd5b505af1158015610627573d6000803e3d6000fd5b505050506040513d601f19601f8201168201806040525081019061064b9190610e2f565b5060058101546040517fb194b98aa05a0708cf1d34e702d4ed177a0b2019a45f53e0afa586422999f1129161069e913391889160ff6401000000008304169161ffff620100008204811692911690611038565b60405180910390a15060019392505050565b6000546001600160a01b031633146106da5760405162461bcd60e51b8152600401610340906110d6565b6001600160a01b0381166106ed57600080fd5b600060048360ff16815481106107055761070561117f565b6000918252602090912060069091020180546001600160a01b0319166001600160a01b0393909316929092179091555050565b6004818154811061074857600080fd5b60009182526020909120600690910201805460018201546002830154600384015460048501546005909501546001600160a01b0394851696509390921693909261ffff8082169162010000810490911690640100000000900460ff1688565b6000546001600160a01b031633146107d15760405162461bcd60e51b8152600401610340906110d6565b600060048360ff16815481106107e9576107e961117f565b90600052602060002090600602019050818160050160046101000a81548160ff0219169083600281111561081f5761081f611169565b0217905550505050565b6000546001600160a01b031633146108535760405162461bcd60e51b8152600401610340906110d6565b61085d6000610d7e565b565b6000546001600160a01b031633146108895760405162461bcd60e51b8152600401610340906110d6565b81811161089557600080fd5b600060048460ff16815481106108ad576108ad61117f565b6000918252602090912060069091020160038101939093555060049091015550565b6000546001600160a01b031633146108f95760405162461bcd60e51b8152600401610340906110d6565b6001546040516001600160a01b03909116904780156108fc02916000818181858888f19350505050158015610932573d6000803e3d6000fd5b5060005b60045461ffff82161015610a8e57600060048261ffff168154811061095d5761095d61117f565b6000918252602090912060016006909202018181015491546040516370a0823160e01b81523060048201529193506001600160a01b039283169263a9059cbb9291169083906370a082319060240160206040518083038186803b1580156109c357600080fd5b505afa1580156109d7573d6000803e3d6000fd5b505050506040513d601f19601f820116820180604052508101906109fb9190610e6a565b6040516001600160e01b031960e085901b1681526001600160a01b0390921660048301526024820152604401602060405180830381600087803b158015610a4157600080fd5b505af1158015610a55573d6000803e3d6000fd5b505050506040513d601f19601f82011682018060405250810190610a799190610e2f565b50508080610a8690611131565b915050610936565b50565b6000546001600160a01b03163314610abb5760405162461bcd60e51b8152600401610340906110d6565b600060048460ff1681548110610ad357610ad361117f565b600091825260209091206006909102016001810180546001600160a01b0319166001600160a01b0395909516949094179093555060029091015550565b600080429050600060048460ff1681548110610b2e57610b2e61117f565b9060005260206000209060060201905080600301548210158015610b555750806004015482105b15610b64575060019392505050565b5060009392505050565b6000546001600160a01b03163314610b985760405162461bcd60e51b8152600401610340906110d6565b6001600160a01b038116610bfd5760405162461bcd60e51b815260206004820152602660248201527f4f776e61626c653a206e6577206f776e657220697320746865207a65726f206160448201526564647265737360d01b6064820152608401610340565b610a8e81610d7e565b6000546001600160a01b03163314610c305760405162461bcd60e51b8152600401610340906110d6565b604051806101000160405280876001600160a01b03168152602001866001600160a01b031681526020018581526020018381526020018281526020018461ffff168152602001600061ffff16815260200160006002811115610c9457610c94611169565b81525060048860ff1681548110610cad57610cad61117f565b6000918252602091829020835160069092020180546001600160a01b039283166001600160a01b0319918216178255928401516001820180549190931693169290921790556040820151600280830191909155606083015160038301556080830151600483015560a083015160058301805460c086015161ffff908116620100000263ffffffff199092169316929092179190911780825560e08501519264ff000000001990911690640100000000908490811115610d6e57610d6e611169565b0217905550505050505050505050565b600080546001600160a01b038381166001600160a01b0319831681178455604051919092169283917f8be0079c531659141344cd1fd0a4f28419497f9722a3daafe3b4186f6b6457e09190a35050565b80356001600160a01b0381168114610de557600080fd5b919050565b803561ffff81168114610de557600080fd5b803560ff81168114610de557600080fd5b600060208284031215610e1f57600080fd5b610e2882610dce565b9392505050565b600060208284031215610e4157600080fd5b81518015158114610e2857600080fd5b600060208284031215610e6357600080fd5b5035919050565b600060208284031215610e7c57600080fd5b5051919050565b600060208284031215610e9557600080fd5b610e2882610dfc565b60008060408385031215610eb157600080fd5b610eba83610dfc565b9150610ec860208401610dce565b90509250929050565b600080600080600080600060e0888a031215610eec57600080fd5b610ef588610dfc565b9650610f0360208901610dce565b9550610f1160408901610dce565b945060608801359350610f2660808901610dea565b925060a0880135915060c0880135905092959891949750929550565b600080600060608486031215610f5757600080fd5b610f6084610dfc565b9250610f6e60208501610dce565b9150604084013590509250925092565b60008060408385031215610f9157600080fd5b610f9a83610dfc565b9150602083013560038110610fae57600080fd5b809150509250929050565b60008060408385031215610fcc57600080fd5b610fd583610dfc565b9150610ec860208401610dea565b600080600060608486031215610ff857600080fd5b61100184610dfc565b95602085013595506040909401359392505050565b6003811061103457634e487b7160e01b600052602160045260246000fd5b9052565b6001600160a01b038616815260ff8516602082015260a0810161105e6040830186611016565b61ffff80851660608401528084166080840152509695505050505050565b6001600160a01b0389811682528816602082015260408101879052606081018690526080810185905261ffff84811660a0830152831660c082015261010081016110c960e0830184611016565b9998505050505050505050565b6020808252818101527f4f776e61626c653a2063616c6c6572206973206e6f7420746865206f776e6572604082015260600190565b600061ffff80831681851680830382111561112857611128611153565b01949350505050565b600061ffff8083168181141561114957611149611153565b6001019392505050565b634e487b7160e01b600052601160045260246000fd5b634e487b7160e01b600052602160045260246000fd5b634e487b7160e01b600052603260045260246000fdfea2646970667358221220b3761d35cc9cb77ba6ca985b8a631dece46d14b44c01c80bfef7da129fe741e464736f6c63430008060033",
  "immutableReferences": {},
  "source": "// SPDX-License-Identifier: MIT\npragma solidity ^0.8.0;\n\nimport \"./utils/math/SafeMath.sol\";\nimport \"./utils/Address.sol\";\nimport \"./access/Ownable.sol\";\nimport \"./token/ERC20/IERC20.sol\";\nimport \"./token/ERC721/IERC721Card.sol\";\n\ncontract DogeFoodBlindBox is Ownable {\n    using SafeMath for uint256;\n\n    enum BBoxStatus {\n        BLINDBOX_INIT,\n        BLINDBOX_START,\n        BLINDBOX_SOLDOUT\n    }\n    //\n    struct BBox {\n        IERC721Card nftToken;\n        address tokenAddr;\n        uint256 tokenValue;\n        uint256 startTimestamp;\n        uint256 endTimestamp;\n        uint16 total;\n        uint16 current;\n        BBoxStatus status;\n    }\n\n    struct BBoxer {\n        uint256 ethValue;\n        uint256 panValue;\n        // uint timestamp;\n        bool claimed;\n    }\n\n    // struct BBoxerLog {\n    //   address addr;\n    //   uint ethValue;\n    //   uint panValue;\n    //   uint timestamp;\n    // }\n\n    event BBoxSoldEvent(\n        address to,\n        uint8 category,\n        BBoxStatus status,\n        uint16 current,\n        uint16 total\n    );\n    event BBoxStateEvent(BBoxStatus status);\n\n    // \n    address public chairperson;\n    // \n    address public beneficiary;\n    // BBoxerLog[] public idoerLogs;\n\n    // \n    address payable public nftAddress;\n\n    // \n    BBox[] public bboxes;\n\n    // \n    // ido \n    constructor(address beneficiary_) payable {\n        chairperson = msg.sender;\n        beneficiary = beneficiary_;\n    }\n\n    function setBBoxToken(\n        uint8 pid,\n        address tokenAddr,\n        uint256 tokenValue\n    ) public onlyOwner {\n        // tokenAddr address(0) \n        // \n        BBox storage box = bboxes[pid];\n        box.tokenAddr = tokenAddr;\n        box.tokenValue = tokenValue;\n    }\n\n    function setBBoxTime(\n        uint8 pid,\n        uint256 start,\n        uint256 end\n    ) public onlyOwner {\n        require(end > start);\n        BBox storage box = bboxes[pid];\n        box.startTimestamp = start;\n        box.endTimestamp = end;\n    }\n\n    function setBBoxTotal(uint8 pid, uint16 total) public onlyOwner {\n        BBox storage box = bboxes[pid];\n        box.total = total;\n    }\n\n    function setBBoxNftToken(uint8 pid, address _nftAddress) public onlyOwner {\n        require(_nftAddress != address(0));\n        BBox storage box = bboxes[pid];\n        box.nftToken = IERC721Card(_nftAddress);\n    }\n\n    function setBBoxStatus(uint8 pid, BBoxStatus status) public onlyOwner {\n        BBox storage box = bboxes[pid];\n        box.status = status;\n    }\n\n    function setBBoxInfo(\n        uint8 pid,\n        address _nftAddress,\n        address tokenAddr,\n        uint256 tokenValue,\n        uint16 total,\n        uint256 startTime,\n        uint256 endTime\n    ) public onlyOwner {\n        bboxes[pid] = BBox({\n            nftToken: IERC721Card(_nftAddress),\n            tokenAddr: tokenAddr,\n            tokenValue: tokenValue,\n            total: total,\n            current: 0,\n            startTimestamp: startTime,\n            endTimestamp: endTime,\n            status: BBoxStatus.BLINDBOX_INIT\n        });\n    }\n\n    // BBox\n    // BNB\n    // \n    function buyBBox(uint8 pid) public payable returns (bool) {\n        uint256 timestamp = block.timestamp;\n        BBox storage box = bboxes[pid];\n        require(box.current < box.total, \"No remain bbox supply\");\n        // require(\n        //     msg.value >= box.tokenValue,\n        //     \"BLINDBOX value should big than box value\"\n        // );\n        // require(\n        //     idoers[msg.sender].ethValue + msg.value <= MAX_DEPOSITE_ETH,\n        //     \"BLINDBOX total value should less than 4ETH\"\n        // );\n        require(\n            timestamp >= box.startTimestamp && timestamp < box.endTimestamp,\n            \"BLINDBOX is not open\"\n        );\n        if (box.tokenAddr == address(0)) {\n            payable(beneficiary).transfer(box.tokenValue);\n        } else {\n            IERC20 token = IERC20(box.tokenAddr);\n            token.transferFrom(msg.sender, beneficiary, box.tokenValue);\n        }\n\n        box.current = box.current + 1;\n        if (box.current == box.total) {\n            box.status = BBoxStatus.BLINDBOX_SOLDOUT;\n        }\n        box.nftToken.mintCard(pid, msg.sender);\n        emit BBoxSoldEvent(msg.sender, pid, box.status, box.current, box.total);\n        return true;\n    }\n\n    function release() public onlyOwner {\n        payable(chairperson).transfer(address(this).balance);\n        for (uint16 i = 0; i < bboxes.length; i++) {\n            BBox storage box = bboxes[i];\n            IERC20(box.tokenAddr).transfer(\n                chairperson,\n                IERC20(box.tokenAddr).balanceOf(address(this))\n            );\n        }\n    }\n\n    function isBBoxEnable(uint8 pid) public view returns (bool) {\n        uint256 timestamp = block.timestamp;\n        BBox storage box = bboxes[pid];\n        if (timestamp >= box.startTimestamp && timestamp < box.endTimestamp)\n            return true;\n        else return false;\n    }\n\n    // function getBBoxRemain() public view returns (uint256, uint256) {\n    //     return (remainSupply, TOTAL_ETH_SUPPLY);\n    // }\n}\n",
  "sourcePath": "/Users/jilong/solidity/pantheonNFT/contracts/DogeFoodBlindBox.sol",
  "compiler": {
    "name": "solc",
    "version": "0.8.6+commit.11564f7e.Emscripten.clang"
  },
  "schemaVersion": "3.4.3",
  "updatedAt": "2022-05-04T22:35:49.205Z",
  "devdoc": {
    "kind": "dev",
    "methods": {
      "owner()": {
        "details": "Returns the address of the current owner."
      },
      "renounceOwnership()": {
        "details": "Leaves the contract without owner. It will not be possible to call `onlyOwner` functions anymore. Can only be called by the current owner. NOTE: Renouncing ownership will leave the contract without an owner, thereby removing any functionality that is only available to the owner."
      },
      "transferOwnership(address)": {
        "details": "Transfers ownership of the contract to a new account (`newOwner`). Can only be called by the current owner."
      }
    },
    "version": 1
  },
  "userdoc": {
    "kind": "user",
    "methods": {},
    "version": 1
  }
}