{
  "contractName": "DogeFoodPool",
  "abi": [
    {
      "inputs": [
        {
          "internalType": "contract IERC20",
          "name": "_chaAddress",
          "type": "address"
        },
        {
          "internalType": "contract IERC721Card",
          "name": "_nftAddress",
          "type": "address"
        }
      ],
      "stateMutability": "nonpayable",
      "type": "constructor"
    },
    {
      "anonymous": false,
      "inputs": [
        {
          "indexed": true,
          "internalType": "address",
          "name": "user",
          "type": "address"
        },
        {
          "indexed": true,
          "internalType": "uint256",
          "name": "pid",
          "type": "uint256"
        },
        {
          "indexed": false,
          "internalType": "uint256",
          "name": "idx",
          "type": "uint256"
        },
        {
          "indexed": false,
          "internalType": "uint256",
          "name": "startBlock",
          "type": "uint256"
        },
        {
          "indexed": false,
          "internalType": "uint256",
          "name": "endBlock",
          "type": "uint256"
        },
        {
          "indexed": false,
          "internalType": "uint256",
          "name": "power",
          "type": "uint256"
        },
        {
          "indexed": false,
          "internalType": "uint32",
          "name": "nft1",
          "type": "uint32"
        },
        {
          "indexed": false,
          "internalType": "uint32",
          "name": "nft2",
          "type": "uint32"
        },
        {
          "indexed": false,
          "internalType": "uint32",
          "name": "nft3",
          "type": "uint32"
        }
      ],
      "name": "DepositWithNFT",
      "type": "event"
    },
    {
      "anonymous": false,
      "inputs": [
        {
          "indexed": true,
          "internalType": "address",
          "name": "user",
          "type": "address"
        },
        {
          "indexed": true,
          "internalType": "uint256",
          "name": "pid",
          "type": "uint256"
        },
        {
          "indexed": false,
          "internalType": "uint256",
          "name": "idx",
          "type": "uint256"
        },
        {
          "indexed": false,
          "internalType": "uint256",
          "name": "amount",
          "type": "uint256"
        }
      ],
      "name": "Harvest",
      "type": "event"
    },
    {
      "anonymous": false,
      "inputs": [
        {
          "indexed": true,
          "internalType": "address",
          "name": "previousOwner",
          "type": "address"
        },
        {
          "indexed": true,
          "internalType": "address",
          "name": "newOwner",
          "type": "address"
        }
      ],
      "name": "OwnershipTransferred",
      "type": "event"
    },
    {
      "anonymous": false,
      "inputs": [
        {
          "indexed": true,
          "internalType": "address",
          "name": "user",
          "type": "address"
        },
        {
          "indexed": true,
          "internalType": "uint256",
          "name": "pid",
          "type": "uint256"
        },
        {
          "indexed": false,
          "internalType": "uint256",
          "name": "idx",
          "type": "uint256"
        },
        {
          "indexed": false,
          "internalType": "uint256",
          "name": "power",
          "type": "uint256"
        },
        {
          "indexed": false,
          "internalType": "uint32",
          "name": "nft1",
          "type": "uint32"
        },
        {
          "indexed": false,
          "internalType": "uint32",
          "name": "nft2",
          "type": "uint32"
        },
        {
          "indexed": false,
          "internalType": "uint32",
          "name": "nft3",
          "type": "uint32"
        }
      ],
      "name": "Withdraw",
      "type": "event"
    },
    {
      "inputs": [],
      "name": "accChaPerShare",
      "outputs": [
        {
          "internalType": "uint256",
          "name": "",
          "type": "uint256"
        }
      ],
      "stateMutability": "view",
      "type": "function",
      "constant": true
    },
    {
      "inputs": [
        {
          "internalType": "uint256",
          "name": "",
          "type": "uint256"
        }
      ],
      "name": "accPerShareList",
      "outputs": [
        {
          "internalType": "uint256",
          "name": "",
          "type": "uint256"
        }
      ],
      "stateMutability": "view",
      "type": "function",
      "constant": true
    },
    {
      "inputs": [],
      "name": "blackholeAddress",
      "outputs": [
        {
          "internalType": "address",
          "name": "",
          "type": "address"
        }
      ],
      "stateMutability": "view",
      "type": "function",
      "constant": true
    },
    {
      "inputs": [],
      "name": "chaToken",
      "outputs": [
        {
          "internalType": "contract IERC20",
          "name": "",
          "type": "address"
        }
      ],
      "stateMutability": "view",
      "type": "function",
      "constant": true
    },
    {
      "inputs": [],
      "name": "devaddr",
      "outputs": [
        {
          "internalType": "address",
          "name": "",
          "type": "address"
        }
      ],
      "stateMutability": "view",
      "type": "function",
      "constant": true
    },
    {
      "inputs": [],
      "name": "globalReward",
      "outputs": [
        {
          "internalType": "uint256",
          "name": "",
          "type": "uint256"
        }
      ],
      "stateMutability": "view",
      "type": "function",
      "constant": true
    },
    {
      "inputs": [],
      "name": "lastRewardBlock",
      "outputs": [
        {
          "internalType": "uint256",
          "name": "",
          "type": "uint256"
        }
      ],
      "stateMutability": "view",
      "type": "function",
      "constant": true
    },
    {
      "inputs": [],
      "name": "liquidAddress",
      "outputs": [
        {
          "internalType": "address",
          "name": "",
          "type": "address"
        }
      ],
      "stateMutability": "view",
      "type": "function",
      "constant": true
    },
    {
      "inputs": [
        {
          "internalType": "address",
          "name": "",
          "type": "address"
        }
      ],
      "name": "minerCount",
      "outputs": [
        {
          "internalType": "uint256",
          "name": "",
          "type": "uint256"
        }
      ],
      "stateMutability": "view",
      "type": "function",
      "constant": true
    },
    {
      "inputs": [
        {
          "internalType": "address",
          "name": "",
          "type": "address"
        },
        {
          "internalType": "uint256",
          "name": "",
          "type": "uint256"
        }
      ],
      "name": "minerInfo",
      "outputs": [
        {
          "internalType": "uint256",
          "name": "power",
          "type": "uint256"
        },
        {
          "internalType": "uint256",
          "name": "startBlock",
          "type": "uint256"
        },
        {
          "internalType": "uint256",
          "name": "endBlock",
          "type": "uint256"
        },
        {
          "internalType": "uint256",
          "name": "rewardDebt",
          "type": "uint256"
        },
        {
          "internalType": "uint32",
          "name": "nft1",
          "type": "uint32"
        },
        {
          "internalType": "uint32",
          "name": "nft2",
          "type": "uint32"
        },
        {
          "internalType": "uint32",
          "name": "nft3",
          "type": "uint32"
        }
      ],
      "stateMutability": "view",
      "type": "function",
      "constant": true
    },
    {
      "inputs": [],
      "name": "nftToken",
      "outputs": [
        {
          "internalType": "contract IERC721Card",
          "name": "",
          "type": "address"
        }
      ],
      "stateMutability": "view",
      "type": "function",
      "constant": true
    },
    {
      "inputs": [
        {
          "internalType": "address",
          "name": "",
          "type": "address"
        },
        {
          "internalType": "address",
          "name": "",
          "type": "address"
        },
        {
          "internalType": "uint256",
          "name": "",
          "type": "uint256"
        },
        {
          "internalType": "bytes",
          "name": "",
          "type": "bytes"
        }
      ],
      "name": "onERC721Received",
      "outputs": [
        {
          "internalType": "bytes4",
          "name": "",
          "type": "bytes4"
        }
      ],
      "stateMutability": "nonpayable",
      "type": "function"
    },
    {
      "inputs": [],
      "name": "oneDayBlock",
      "outputs": [
        {
          "internalType": "uint32",
          "name": "",
          "type": "uint32"
        }
      ],
      "stateMutability": "view",
      "type": "function",
      "constant": true
    },
    {
      "inputs": [],
      "name": "owner",
      "outputs": [
        {
          "internalType": "address",
          "name": "",
          "type": "address"
        }
      ],
      "stateMutability": "view",
      "type": "function",
      "constant": true
    },
    {
      "inputs": [],
      "name": "poolAddress",
      "outputs": [
        {
          "internalType": "address",
          "name": "",
          "type": "address"
        }
      ],
      "stateMutability": "view",
      "type": "function",
      "constant": true
    },
    {
      "inputs": [
        {
          "internalType": "uint256",
          "name": "",
          "type": "uint256"
        }
      ],
      "name": "poolInfo",
      "outputs": [
        {
          "internalType": "uint256",
          "name": "chaPerBlock",
          "type": "uint256"
        },
        {
          "internalType": "uint256",
          "name": "startBlock",
          "type": "uint256"
        },
        {
          "internalType": "uint256",
          "name": "totalReward",
          "type": "uint256"
        },
        {
          "internalType": "uint256",
          "name": "totalPower",
          "type": "uint256"
        }
      ],
      "stateMutability": "view",
      "type": "function",
      "constant": true
    },
    {
      "inputs": [],
      "name": "releasedReward",
      "outputs": [
        {
          "internalType": "uint256",
          "name": "",
          "type": "uint256"
        }
      ],
      "stateMutability": "view",
      "type": "function",
      "constant": true
    },
    {
      "inputs": [],
      "name": "renounceOwnership",
      "outputs": [],
      "stateMutability": "nonpayable",
      "type": "function"
    },
    {
      "inputs": [],
      "name": "startBlock",
      "outputs": [
        {
          "internalType": "uint256",
          "name": "",
          "type": "uint256"
        }
      ],
      "stateMutability": "view",
      "type": "function",
      "constant": true
    },
    {
      "inputs": [],
      "name": "totalAllocPoint",
      "outputs": [
        {
          "internalType": "uint256",
          "name": "",
          "type": "uint256"
        }
      ],
      "stateMutability": "view",
      "type": "function",
      "constant": true
    },
    {
      "inputs": [
        {
          "internalType": "address",
          "name": "newOwner",
          "type": "address"
        }
      ],
      "name": "transferOwnership",
      "outputs": [],
      "stateMutability": "nonpayable",
      "type": "function"
    },
    {
      "inputs": [],
      "name": "updatePerDay",
      "outputs": [
        {
          "internalType": "uint32",
          "name": "",
          "type": "uint32"
        }
      ],
      "stateMutability": "view",
      "type": "function",
      "constant": true
    },
    {
      "inputs": [
        {
          "internalType": "address",
          "name": "",
          "type": "address"
        }
      ],
      "name": "userPower",
      "outputs": [
        {
          "internalType": "uint256",
          "name": "",
          "type": "uint256"
        }
      ],
      "stateMutability": "view",
      "type": "function",
      "constant": true
    },
    {
      "inputs": [
        {
          "internalType": "uint256",
          "name": "_pid",
          "type": "uint256"
        }
      ],
      "name": "releaseReward2",
      "outputs": [
        {
          "internalType": "uint256",
          "name": "",
          "type": "uint256"
        }
      ],
      "stateMutability": "view",
      "type": "function",
      "constant": true
    },
    {
      "inputs": [
        {
          "internalType": "uint256",
          "name": "_pid",
          "type": "uint256"
        }
      ],
      "name": "remainReward",
      "outputs": [
        {
          "internalType": "uint256",
          "name": "",
          "type": "uint256"
        }
      ],
      "stateMutability": "view",
      "type": "function",
      "constant": true
    },
    {
      "inputs": [],
      "name": "poolLength",
      "outputs": [
        {
          "internalType": "uint256",
          "name": "",
          "type": "uint256"
        }
      ],
      "stateMutability": "view",
      "type": "function",
      "constant": true
    },
    {
      "inputs": [
        {
          "internalType": "uint256",
          "name": "_chaPerBlock",
          "type": "uint256"
        },
        {
          "internalType": "uint256",
          "name": "_startBlock",
          "type": "uint256"
        },
        {
          "internalType": "uint256",
          "name": "_totalReward",
          "type": "uint256"
        }
      ],
      "name": "addPool",
      "outputs": [],
      "stateMutability": "nonpayable",
      "type": "function"
    },
    {
      "inputs": [
        {
          "internalType": "uint256",
          "name": "_pid",
          "type": "uint256"
        },
        {
          "internalType": "uint256",
          "name": "_chaPerBlock",
          "type": "uint256"
        },
        {
          "internalType": "uint256",
          "name": "_startBlock",
          "type": "uint256"
        },
        {
          "internalType": "uint256",
          "name": "_totalReward",
          "type": "uint256"
        }
      ],
      "name": "setPool",
      "outputs": [],
      "stateMutability": "nonpayable",
      "type": "function"
    },
    {
      "inputs": [
        {
          "internalType": "uint32",
          "name": "_oneDayBlock",
          "type": "uint32"
        }
      ],
      "name": "setOneDayBlock",
      "outputs": [],
      "stateMutability": "nonpayable",
      "type": "function"
    },
    {
      "inputs": [
        {
          "internalType": "uint32",
          "name": "_updatePerDay",
          "type": "uint32"
        }
      ],
      "name": "setUpdatePerDay",
      "outputs": [],
      "stateMutability": "nonpayable",
      "type": "function"
    },
    {
      "inputs": [
        {
          "internalType": "address",
          "name": "_chaAddress",
          "type": "address"
        }
      ],
      "name": "setPanToken",
      "outputs": [],
      "stateMutability": "nonpayable",
      "type": "function"
    },
    {
      "inputs": [
        {
          "internalType": "uint256",
          "name": "_pid",
          "type": "uint256"
        },
        {
          "internalType": "uint256",
          "name": "_chaPerBlock",
          "type": "uint256"
        },
        {
          "internalType": "uint256",
          "name": "_totalReward",
          "type": "uint256"
        }
      ],
      "name": "setPoolReward",
      "outputs": [],
      "stateMutability": "nonpayable",
      "type": "function"
    },
    {
      "inputs": [
        {
          "internalType": "uint256",
          "name": "_from",
          "type": "uint256"
        },
        {
          "internalType": "uint256",
          "name": "_to",
          "type": "uint256"
        }
      ],
      "name": "getMultiplier",
      "outputs": [
        {
          "internalType": "uint256",
          "name": "",
          "type": "uint256"
        }
      ],
      "stateMutability": "pure",
      "type": "function",
      "constant": true
    },
    {
      "inputs": [
        {
          "internalType": "uint256",
          "name": "_pid",
          "type": "uint256"
        },
        {
          "internalType": "address",
          "name": "_user",
          "type": "address"
        },
        {
          "internalType": "uint256",
          "name": "idx",
          "type": "uint256"
        }
      ],
      "name": "pendingReward",
      "outputs": [
        {
          "internalType": "uint256",
          "name": "",
          "type": "uint256"
        }
      ],
      "stateMutability": "view",
      "type": "function",
      "constant": true
    },
    {
      "inputs": [
        {
          "internalType": "uint256",
          "name": "_pid",
          "type": "uint256"
        }
      ],
      "name": "updateReward",
      "outputs": [],
      "stateMutability": "nonpayable",
      "type": "function"
    },
    {
      "inputs": [
        {
          "internalType": "uint256",
          "name": "_pid",
          "type": "uint256"
        },
        {
          "internalType": "uint256",
          "name": "countday",
          "type": "uint256"
        },
        {
          "internalType": "uint32",
          "name": "nft1",
          "type": "uint32"
        },
        {
          "internalType": "uint32",
          "name": "nft2",
          "type": "uint32"
        },
        {
          "internalType": "uint32",
          "name": "nft3",
          "type": "uint32"
        }
      ],
      "name": "depositWithNFT",
      "outputs": [],
      "stateMutability": "nonpayable",
      "type": "function"
    },
    {
      "inputs": [
        {
          "internalType": "uint256",
          "name": "_pid",
          "type": "uint256"
        },
        {
          "internalType": "uint256",
          "name": "_idx",
          "type": "uint256"
        }
      ],
      "name": "harvest",
      "outputs": [],
      "stateMutability": "nonpayable",
      "type": "function"
    },
    {
      "inputs": [
        {
          "internalType": "uint256",
          "name": "_pid",
          "type": "uint256"
        },
        {
          "internalType": "uint256",
          "name": "_idx",
          "type": "uint256"
        }
      ],
      "name": "withdraw",
      "outputs": [],
      "stateMutability": "nonpayable",
      "type": "function"
    }
  ],
  "bytecode": "0x60806040526000601055601280546001600160401b0319166406000004b01790553480156200002d57600080fd5b5060405162002227380380620022278339810160408190526200005091620000dd565b6200005b336200008d565b600480546001600160a01b039384166001600160a01b0319918216179091556001805492909316911617905562000135565b600080546001600160a01b038381166001600160a01b0319831681178455604051919092169283917f8be0079c531659141344cd1fd0a4f28419497f9722a3daafe3b4186f6b6457e09190a35050565b60008060408385031215620000f157600080fd5b8251620000fe816200011c565b602084015190925062000111816200011c565b809150509250929050565b6001600160a01b03811681146200013257600080fd5b50565b6120e280620001456000396000f3fe608060405234801561001057600080fd5b50600436106102325760003560e01c80638da5cb5b11610130578063b472d293116100b8578063e4a4b7b11161007c578063e4a4b7b114610592578063e8d6a851146105a5578063f2fde38b146105b8578063f462101e146105cb578063f78649bf146105de57600080fd5b8063b472d293146104a1578063d06fcba8146104b4578063d239987f146104c7578063d49e77cd146104da578063ddbfdfd5146104ed57600080fd5b8063a327f4d1116100ff578063a327f4d114610442578063a43424d714610462578063a9f8d18114610475578063ad1dfb8c1461047e578063b2c9c1911461049157600080fd5b80638da5cb5b146103eb5780638dbb1e3a146103fc57806392526e161461040f5780639d463b991461042f57600080fd5b8063441a3e70116101be5780636c18005b116101825780636c18005b146103ab5780636f8bfcd7146103b4578063715018a6146103c75780637d515a10146103cf5780638043c10c146103e257600080fd5b8063441a3e70146103495780634713b7841461035c57806348cd4cb11461036f5780634d6e3452146103785780635aa4d5331461039857600080fd5b806317caf6f11161020557806317caf6f1146102e357806328e1ac56146102ec5780632a0e62fd146103185780633b45ac411461032b578063425c8abd1461033457600080fd5b8063081e3eda14610237578063150b7a021461024e5780631526fe27146102855780631755ff21146102b8575b600080fd5b600b545b6040519081526020015b60405180910390f35b61026c61025c366004611caf565b630a85bd0160e11b949350505050565b6040516001600160e01b03199091168152602001610245565b610298610293366004611ddd565b6105f1565b604080519485526020850193909352918301526060820152608001610245565b6007546102cb906001600160a01b031681565b6040516001600160a01b039091168152602001610245565b61023b60105481565b60125461030390600160201b900463ffffffff1681565b60405163ffffffff9091168152602001610245565b61023b610326366004611e0f565b61062b565b61023b60095481565b610347610342366004611ddd565b610737565b005b610347610357366004611e47565b6108f0565b6008546102cb906001600160a01b031681565b61023b60115481565b61023b610386366004611c75565b600d6020526000908152604090205481565b6103476103a6366004611ec7565b610c6b565b61023b60035481565b6004546102cb906001600160a01b031681565b61034761146a565b6006546102cb906001600160a01b031681565b61023b600a5481565b6000546001600160a01b03166102cb565b61023b61040a366004611e47565b6114a0565b61023b61041d366004611ddd565b600c6020526000908152604090205481565b61034761043d366004611e69565b6114ac565b61023b610450366004611c75565b600e6020526000908152604090205481565b610347610470366004611f1e565b6115bd565b61023b60025481565b61034761048c366004611f1e565b61160e565b6012546103039063ffffffff1681565b6103476104af366004611e69565b611654565b6001546102cb906001600160a01b031681565b61023b6104d5366004611ddd565b6116b0565b6005546102cb906001600160a01b031681565b6105516104fb366004611d8f565b600f602090815260009283526040808420909152908252902080546001820154600283015460038401546004909401549293919290919063ffffffff80821691600160201b8104821691600160401b9091041687565b60408051978852602088019690965294860193909352606085019190915263ffffffff908116608085015290811660a08401521660c082015260e001610245565b6103476105a0366004611e47565b61171b565b61023b6105b3366004611ddd565b61181e565b6103476105c6366004611c75565b611899565b6103476105d9366004611e95565b611934565b6103476105ec366004611c75565b611998565b600b818154811061060157600080fd5b60009182526020909120600490910201805460018201546002830154600390930154919350919084565b600080600b85815481106106415761064161206b565b600091825260208083206001600160a01b0388168452600f8252604080852088865290925292206002810154600490920290920192504390811115610687575060028101545b60038301541561072857601254600090600c9082906106b59063ffffffff600160201b820481169116611fe6565b63ffffffff1685600201546106ca9190611fd2565b815260200190815260200160002054905080600014156106e957506003545b61071d836003015461071764e8d4a510006107118588600001546119e490919063ffffffff16565b906119f0565b906119fc565b945050505050610730565b600093505050505b9392505050565b6000600b828154811061074c5761074c61206b565b906000526020600020906004020190506000610777600a5483600201546119fc90919063ffffffff16565b90506000811161078657505050565b60038201546107985750504360025550565b4360025411156107ef5760405162461bcd60e51b815260206004820152601960248201527f6c617374526577617264426c6f636b206e6f742076616c69640000000000000060448201526064015b60405180910390fd5b60006107fd600254436114a0565b83549091506000906108109083906119e4565b90508083101561081d5750815b600a5461082a9082611a08565b600a55600384015461085290610849906107118464e8d4a510006119e4565b60035490611a08565b600355601254600c906000906108779063ffffffff600160201b820481169116611fe6565b6108879063ffffffff1643611fd2565b815260200190815260200160002054600014156108e557600354601254600c906000906108c39063ffffffff600160201b820481169116611fe6565b6108d39063ffffffff1643611fd2565b81526020810191909152604001600020555b505043600255505050565b600080600b84815481106109065761090661206b565b60009182526020808320338452600f8252604080852088865290925292206002810154600490920290920192504310156109825760405162461bcd60e51b815260206004820181905260248201527f43616e6e6f7420776974686472617720776974682064617973206c696d69742e60448201526064016107e6565b60006109918260020154611a14565b905081600301546109b864e8d4a510006107118486600001546119e490919063ffffffff16565b11156109f2576109e6826003015461071764e8d4a510006107118587600001546119e490919063ffffffff16565b93506109f23385611ad8565b600482015463ffffffff1615610a7457600154600480840154604051632142170760e11b81526001600160a01b03909316926342842e0e92610a41923092339263ffffffff9092169101611f5c565b600060405180830381600087803b158015610a5b57600080fd5b505af1158015610a6f573d6000803e3d6000fd5b505050505b6004820154600160201b900463ffffffff1615610b0357600154600483810154604051632142170760e11b81526001600160a01b03909316926342842e0e92610ad09230923392600160201b90920463ffffffff169101611f5c565b600060405180830381600087803b158015610aea57600080fd5b505af1158015610afe573d6000803e3d6000fd5b505050505b6004820154600160401b900463ffffffff1615610b9257600154600483810154604051632142170760e11b81526001600160a01b03909316926342842e0e92610b5f9230923392600160401b90920463ffffffff169101611f5c565b600060405180830381600087803b158015610b7957600080fd5b505af1158015610b8d573d6000803e3d6000fd5b505050505b81546003840154610ba2916119fc565b60038401558154336000908152600d6020526040902054610bc2916119fc565b336000818152600d6020908152604091829020939093558454600486015482518a81529485019190915263ffffffff80821685840152600160201b820481166060860152600160401b9091041660808401525188927f7ccbf32a8a22eba0b6a524f081bc934a25084fabb26a193bcef0995b1077934e919081900360a00190a35060008082556004820180546bffffffffffffffffffffffff1916905560039091015550505050565b6000600b8681548110610c8057610c8061206b565b60009182526020808320338452600e8252604080852054600f8452818620818752845294819020815160e081018352815481526001820154948101949094526002810154918401919091526003810154606084015260049081015463ffffffff8082166080860152600160201b8204811660a0860152600160401b9091041660c0840152909202909101925060078710801590610d1e5750601e8711155b610d7d5760405162461bcd60e51b815260206004820152602a60248201527f4465707369746520636f756e74206461792073686f756c64206265747765656e604482015269101b9030b7321019981760b11b60648201526084016107e6565b6001546040516331a9108f60e11b815263ffffffff8816600482015233916001600160a01b031690636352211e9060240160206040518083038186803b158015610dc657600080fd5b505afa158015610dda573d6000803e3d6000fd5b505050506040513d601f19601f82011682018060405250810190610dfe9190611c92565b6001600160a01b0316148015610e9b57506001546040516331a9108f60e11b815263ffffffff8716600482015233916001600160a01b031690636352211e9060240160206040518083038186803b158015610e5857600080fd5b505afa158015610e6c573d6000803e3d6000fd5b505050506040513d601f19601f82011682018060405250810190610e909190611c92565b6001600160a01b0316145b8015610f2e57506001546040516331a9108f60e11b815263ffffffff8616600482015233916001600160a01b031690636352211e9060240160206040518083038186803b158015610eeb57600080fd5b505afa158015610eff573d6000803e3d6000fd5b505050506040513d601f19601f82011682018060405250810190610f239190611c92565b6001600160a01b0316145b610f8c5760405162461bcd60e51b815260206004820152602960248201527f44657073697465206e66742031203220332073686f756c64206265206f776e65604482015268391037b3103cb7ba9760b91b60648201526084016107e6565b6001546040516304eaa11360e01b815263ffffffff881660048201526000916001600160a01b0316906304eaa1139060240160206040518083038186803b158015610fd657600080fd5b505afa158015610fea573d6000803e3d6000fd5b505050506040513d601f19601f8201168201806040525081019061100e9190611f39565b61101b9060ff1682611fba565b600154604051632142170760e11b81529192506001600160a01b0316906342842e0e9061105090339030908c90600401611f5c565b600060405180830381600087803b15801561106a57600080fd5b505af115801561107e573d6000803e3d6000fd5b50506001546040516304eaa11360e01b815263ffffffff8a1660048201526001600160a01b0390911692506304eaa113915060240160206040518083038186803b1580156110cb57600080fd5b505afa1580156110df573d6000803e3d6000fd5b505050506040513d601f19601f820116820180604052508101906111039190611f39565b6111109060ff1682611fba565b600154604051632142170760e11b81529192506001600160a01b0316906342842e0e9061114590339030908b90600401611f5c565b600060405180830381600087803b15801561115f57600080fd5b505af1158015611173573d6000803e3d6000fd5b50506001546040516304eaa11360e01b815263ffffffff891660048201526001600160a01b0390911692506304eaa113915060240160206040518083038186803b1580156111c057600080fd5b505afa1580156111d4573d6000803e3d6000fd5b505050506040513d601f19601f820116820180604052508101906111f89190611f39565b6112059060ff1682611fba565b600154604051632142170760e11b81529192506001600160a01b0316906342842e0e9061123a90339030908a90600401611f5c565b600060405180830381600087803b15801561125457600080fd5b505af1158015611268573d6000803e3d6000fd5b5050505061128f606489606461127e9190611fba565b6112889190611fd2565b82906119e4565b60038501549091506112a19082611a08565b600385015543602083018190528183526012546112cf906112c89063ffffffff168b612009565b8290611a08565b604084015263ffffffff808916608085015287811660a0850152861660c084015260006112fb43611a14565b84519091506113159064e8d4a510009061071190846119e4565b6060850152611325856001611fba565b336000818152600e6020908152604080832094909455600f81528382208983528152838220885181558882015160018201558885015160028201556060890151600382015560808901516004909101805460a08b015160c08c015163ffffffff908116600160401b026bffffffff000000000000000019928216600160201b0267ffffffffffffffff19909416958216959095179290921716929092179055928252600d905291909120546113dc918590611a0816565b336000818152600d602090815260409182902093909355868301518782015182518a815294850191909152908301526060820185905263ffffffff808c166080840152808b1660a0840152891660c08301528c917f9ef35993e4939c4a73e5082479cf85391a488abb3a716bb53677ed534a411a259060e00160405180910390a35050505050505050505050565b6000546001600160a01b031633146114945760405162461bcd60e51b81526004016107e690611f85565b61149e6000611c0c565b565b600061073082846119fc565b6000546001600160a01b031633146114d65760405162461bcd60e51b81526004016107e690611f85565b8143116114e357816114e5565b435b600281905560408051608081018252948552602085019182528401918252600060608501818152600b8054600181018255925294517f0175b7a638427703f0dbe7bb9bbf987a2551717b34e79f33b5b1008d1fa01db960049092029182015590517f0175b7a638427703f0dbe7bb9bbf987a2551717b34e79f33b5b1008d1fa01dba82015590517f0175b7a638427703f0dbe7bb9bbf987a2551717b34e79f33b5b1008d1fa01dbb82015591517f0175b7a638427703f0dbe7bb9bbf987a2551717b34e79f33b5b1008d1fa01dbc9092019190915550565b6000546001600160a01b031633146115e75760405162461bcd60e51b81526004016107e690611f85565b6012805463ffffffff909216600160201b0267ffffffff0000000019909216919091179055565b6000546001600160a01b031633146116385760405162461bcd60e51b81526004016107e690611f85565b6012805463ffffffff191663ffffffff92909216919091179055565b6000546001600160a01b0316331461167e5760405162461bcd60e51b81526004016107e690611f85565b6000600b84815481106116935761169361206b565b600091825260209091206004909102019283555060029091015550565b600080600b83815481106116c6576116c661206b565b90600052602060002090600402016040518060800160405290816000820154815260200160018201548152602001600282015481526020016003820154815250509050600a5481604001516107309190612028565b336000908152600f6020908152604080832085845290915281209061173f43611a14565b9050600061176b836003015461071764e8d4a510006107118688600001546119e490919063ffffffff16565b9050600081116117b45760405162461bcd60e51b81526020600482015260146024820152731a185c9d995cdd0e881b9bdb99481c995dd85c9960621b60448201526064016107e6565b6117be3382611ad8565b82546117d59064e8d4a510009061071190856119e4565b60038401556040805185815260208101839052869133917f4534f107610758c3931de9ad1e176476fcfb8c74adf920167e1d54ee84fcfe76910160405180910390a35050505050565b600080600b83815481106118345761183461206b565b9060005260206000209060040201604051806080016040529081600082015481526020016001820154815260200160028201548152602001600382015481525050905061073064e8d4a5100061071160035484606001516119e490919063ffffffff16565b6000546001600160a01b031633146118c35760405162461bcd60e51b81526004016107e690611f85565b6001600160a01b0381166119285760405162461bcd60e51b815260206004820152602660248201527f4f776e61626c653a206e6577206f776e657220697320746865207a65726f206160448201526564647265737360d01b60648201526084016107e6565b61193181611c0c565b50565b6000546001600160a01b0316331461195e5760405162461bcd60e51b81526004016107e690611f85565b6000600b85815481106119735761197361206b565b6000918252602090912060049091020193845550600183019190915560029091015550565b6000546001600160a01b031633146119c25760405162461bcd60e51b81526004016107e690611f85565b600480546001600160a01b0319166001600160a01b0392909216919091179055565b60006107308284612009565b60006107308284611fd2565b60006107308284612028565b60006107308284611fba565b6012546000908190611a4e90611a399063ffffffff600160201b820481169116611fe6565b63ffffffff16846119f090919063ffffffff16565b6000818152600c602052604090205490915080158015611a6e5750600182115b15611a9457600c6000611a82600185612028565b81526020019081526020016000205490505b80158015611aa25750600282115b15611ac857600c6000611ab6600285612028565b81526020019081526020016000205490505b8061073057506003549392505050565b600480546040516370a0823160e01b815230928101929092526000916001600160a01b03909116906370a082319060240160206040518083038186803b158015611b2157600080fd5b505afa158015611b35573d6000803e3d6000fd5b505050506040513d601f19601f82011682018060405250810190611b599190611df6565b905080821115611b67578091505b6004546001600160a01b031663a9059cbb84611b88606461071187826119e4565b6040516001600160e01b031960e085901b1681526001600160a01b0390921660048301526024820152604401602060405180830381600087803b158015611bce57600080fd5b505af1158015611be2573d6000803e3d6000fd5b505050506040513d601f19601f82011682018060405250810190611c069190611dbb565b50505050565b600080546001600160a01b038381166001600160a01b0319831681178455604051919092169283917f8be0079c531659141344cd1fd0a4f28419497f9722a3daafe3b4186f6b6457e09190a35050565b803563ffffffff81168114611c7057600080fd5b919050565b600060208284031215611c8757600080fd5b813561073081612097565b600060208284031215611ca457600080fd5b815161073081612097565b60008060008060808587031215611cc557600080fd5b8435611cd081612097565b93506020850135611ce081612097565b925060408501359150606085013567ffffffffffffffff80821115611d0457600080fd5b818701915087601f830112611d1857600080fd5b813581811115611d2a57611d2a612081565b604051601f8201601f19908116603f01168101908382118183101715611d5257611d52612081565b816040528281528a6020848701011115611d6b57600080fd5b82602086016020830137600060208483010152809550505050505092959194509250565b60008060408385031215611da257600080fd5b8235611dad81612097565b946020939093013593505050565b600060208284031215611dcd57600080fd5b8151801515811461073057600080fd5b600060208284031215611def57600080fd5b5035919050565b600060208284031215611e0857600080fd5b5051919050565b600080600060608486031215611e2457600080fd5b833592506020840135611e3681612097565b929592945050506040919091013590565b60008060408385031215611e5a57600080fd5b50508035926020909101359150565b600080600060608486031215611e7e57600080fd5b505081359360208301359350604090920135919050565b60008060008060808587031215611eab57600080fd5b5050823594602084013594506040840135936060013592509050565b600080600080600060a08688031215611edf57600080fd5b8535945060208601359350611ef660408701611c5c565b9250611f0460608701611c5c565b9150611f1260808701611c5c565b90509295509295909350565b600060208284031215611f3057600080fd5b61073082611c5c565b600060208284031215611f4b57600080fd5b815160ff8116811461073057600080fd5b6001600160a01b03938416815291909216602082015263ffffffff909116604082015260600190565b6020808252818101527f4f776e61626c653a2063616c6c6572206973206e6f7420746865206f776e6572604082015260600190565b60008219821115611fcd57611fcd61203f565b500190565b600082611fe157611fe1612055565b500490565b600063ffffffff80841680611ffd57611ffd612055565b92169190910492915050565b60008160001904831182151516156120235761202361203f565b500290565b60008282101561203a5761203a61203f565b500390565b634e487b7160e01b600052601160045260246000fd5b634e487b7160e01b600052601260045260246000fd5b634e487b7160e01b600052603260045260246000fd5b634e487b7160e01b600052604160045260246000fd5b6001600160a01b038116811461193157600080fdfea2646970667358221220d78ae55dab5416a8dc0037053a826e3e5b7b3479cfd09b17cc55a77ec07acee364736f6c63430008060033",
  "immutableReferences": {},
  "source": "// SPDX-License-Identifier: MIT\npragma solidity ^0.8.0;\n// import \"@nomiclabs/buidler/console.sol\";\nimport \"./utils/math/SafeMath.sol\";\nimport \"./utils/Address.sol\";\nimport \"./access/Ownable.sol\";\n\nimport \"./token/ERC721/IERC721.sol\";\nimport \"./token/ERC721/IERC721Card.sol\";\nimport \"./token/ERC20/IERC20.sol\";\nimport \"./token/ERC721/utils/ERC721Holder.sol\";\nimport \"./token/ERC20/utils/SafeERC20.sol\";\n\ninterface IMigratorChef {\n    // Perform LP token migration from legacy UniswapV2 to ChaSwap.\n    // Take the current LP token address and return the new LP token address.\n    // Migrator should have full access to the caller's LP token.\n    // Return the new LP token address.\n    //\n    // XXX Migrator must have allowance access to UniswapV2 LP tokens.\n    // ChaSwap must mint EXACTLY the same amount of ChaSwap LP tokens or\n    // else something bad will happen. Traditional UniswapV2 does not\n    // do that so be careful!\n    function migrate(IERC20 token) external returns (IERC20);\n}\n\n// DogeFoodPool is the master of Reward. He can make Reward and he is a fair guy.\n//\n// Note that it's ownable and the owner wields tremendous power. The ownership\n// will be transferred to a governance smart contract once CHA is sufficiently\n// distributed and the community can show to govern itself.\n//\n// Have fun reading it. Hopefully it's bug-free. God bless.\ncontract DogeFoodPool is Ownable, ERC721Holder {\n    using SafeMath for uint256;\n    using SafeERC20 for IERC20;\n\n    // Miner information describe miner. One should has many Miners;\n    struct MinerInfo {\n        uint256 power; //  rati = power / 1000\n        uint256 startBlock; // block\n        uint256 endBlock; // block\n        uint256 rewardDebt; // Reward debt. See explanation below.\n        uint32 nft1;\n        uint32 nft2;\n        uint32 nft3;\n    }\n    // Info of each pool. pool is set manully.\n    struct PoolInfo {\n        uint256 chaPerBlock;\n        uint256 startBlock;\n        uint256 totalReward;\n        uint256 totalPower;\n    }\n\n    event DepositWithNFT(\n        address indexed user,\n        uint256 indexed pid,\n        uint256 idx,\n        uint256 startBlock,\n        uint256 endBlock,\n        uint256 power,\n        uint32 nft1,\n        uint32 nft2,\n        uint32 nft3\n    );\n    event Withdraw(\n        address indexed user,\n        uint256 indexed pid,\n        uint256 idx,\n        uint256 power,\n        uint32 nft1,\n        uint32 nft2,\n        uint32 nft3\n    );\n    event Harvest(\n        address indexed user,\n        uint256 indexed pid,\n        uint256 idx,\n        uint256 amount\n    );\n\n    IERC721Card public nftToken;\n    uint256 public lastRewardBlock; // Last block number that CHAs distribution occurs.\n    uint256 public accChaPerShare; // Accumulated CHAs per share, times 1e12. See below.\n\n    IERC20 public chaToken;\n    // Dev address.\n    address public devaddr;\n    address public blackholeAddress;\n    address public poolAddress;\n    address public liquidAddress;\n    uint256 public globalReward;\n    // Total released reward\n    uint256 public releasedReward;\n    // Info of each pool.\n    PoolInfo[] public poolInfo;\n    // Info of each user that stakes LP tokens.\n    mapping(uint256 => uint256) public accPerShareList;\n    mapping(address => uint256) public userPower;\n    mapping(address => uint256) public minerCount;\n    mapping(address => mapping(uint256 => MinerInfo)) public minerInfo;\n    // mapping(address => MinerInfo[]) public minerInfo;\n    // Total allocation poitns. Must be the sum of all allocation points in all pools.\n    uint256 public totalAllocPoint = 0;\n    // The block number when CHA mining starts.\n    uint256 public startBlock;\n    uint32 public oneDayBlock = 1 * 1200; // to Fixed\n    uint32 public updatePerDay = 6; // to Fixed\n\n    constructor(IERC20 _chaAddress, IERC721Card _nftAddress) {\n        chaToken = _chaAddress;\n        nftToken = IERC721Card(_nftAddress);\n        // totalAllocPoint = totalAllocPoint.add(_allocPoint);\n    }\n\n    function releaseReward2(uint256 _pid) external view returns (uint256) {\n        PoolInfo memory pool = poolInfo[_pid];\n        return pool.totalPower.mul(accChaPerShare).div(1e12);\n    }\n\n    function remainReward(uint256 _pid) external view returns (uint256) {\n        PoolInfo memory pool = poolInfo[_pid];\n        return pool.totalReward - releasedReward;\n    }\n\n    function poolLength() external view returns (uint256) {\n        return poolInfo.length;\n    }\n\n    // Add a new lp to the pool. Can only be called by the owner.\n    // XXX DO NOT add the same LP token more than once. Rewards will be messed up if you do.\n    function addPool(\n        uint256 _chaPerBlock,\n        uint256 _startBlock,\n        uint256 _totalReward\n    ) public onlyOwner {\n        _startBlock = block.number > _startBlock ? block.number : _startBlock;\n        lastRewardBlock = _startBlock;\n        poolInfo.push(\n            PoolInfo({\n                chaPerBlock: _chaPerBlock,\n                startBlock: _startBlock,\n                totalReward: _totalReward,\n                totalPower: 0\n            })\n        );\n    }\n\n    // Update the given pool's CHA power rate. Can only be called by the owner.\n    function setPool(\n        uint256 _pid,\n        uint256 _chaPerBlock,\n        uint256 _startBlock,\n        uint256 _totalReward\n    ) public onlyOwner {\n        PoolInfo storage pool = poolInfo[_pid];\n        pool.chaPerBlock = _chaPerBlock;\n        pool.startBlock = _startBlock;\n        pool.totalReward = _totalReward;\n    }\n\n    function setOneDayBlock(uint32 _oneDayBlock) public onlyOwner {\n        oneDayBlock = _oneDayBlock;\n    }\n\n    function setUpdatePerDay(uint32 _updatePerDay) public onlyOwner {\n        updatePerDay = _updatePerDay;\n    }\n\n    function setPanToken(address _chaAddress) public onlyOwner {\n        chaToken = IERC20(_chaAddress);\n    }\n\n    function setPoolReward(\n        uint256 _pid,\n        uint256 _chaPerBlock,\n        uint256 _totalReward\n    ) public onlyOwner {\n        PoolInfo storage pool = poolInfo[_pid];\n        pool.chaPerBlock = _chaPerBlock;\n        pool.totalReward = _totalReward;\n    }\n\n    // Set the migrator contract. Can only be called by the owner.\n    // function setMigrator(IMigratorChef _migrator) public onlyOwner {\n    //     migrator = _migrator;\n    // }\n\n    function getMultiplier(uint256 _from, uint256 _to)\n        public\n        pure\n        returns (uint256)\n    {\n        return _to.sub(_from);\n    }\n\n    // View function to see pending CHA on frontend.\n    function pendingReward(\n        uint256 _pid,\n        address _user,\n        uint256 idx\n    ) external view returns (uint256) {\n        PoolInfo storage pool = poolInfo[_pid];\n        MinerInfo storage miner = minerInfo[_user][idx];\n        uint256 endBlock = block.number;\n        if (block.number > miner.endBlock) {\n            endBlock = miner.endBlock;\n        }\n        if (pool.totalPower != 0) {\n            // uint256 accCha = accChaPerShare;\n            // uint256 multiplier = getMultiplier(lastRewardBlock, endBlock);\n            // uint256 chaReward = multiplier.mul(pool.chaPerBlock);\n            // accCha = accCha.add(chaReward.mul(1e12).div(pool.totalPower));\n            uint256 accPerShare = accPerShareList[\n                miner.endBlock / (oneDayBlock / updatePerDay)\n            ];\n            if (accPerShare == 0) accPerShare = accChaPerShare;\n            return miner.power.mul(accPerShare).div(1e12).sub(miner.rewardDebt);\n        }\n        return 0;\n    }\n\n    // Update reward vairables for all pools. Be careful of gas spending!\n    // function updateReward() public {\n    //     uint256 length = poolInfo.length;\n    //     for (uint256 pid = 0; pid < length; ++pid) {\n    //         updateReward(pid);\n    //     }\n    // }\n\n    // Update reward variables of the given pool to be up-to-date.\n    function updateReward(uint256 _pid) public {\n        PoolInfo storage pool = poolInfo[_pid];\n        // uint256 remain = chaToken.balanceOf(address(this));\n        uint256 remain = pool.totalReward.sub(releasedReward);\n        if (remain <= 0) {\n            return;\n        }\n        if (pool.totalPower == 0) {\n            lastRewardBlock = block.number;\n            return;\n        }\n        require(lastRewardBlock <= block.number, \"lastRewardBlock not valid\");\n        uint256 multiplier = getMultiplier(lastRewardBlock, block.number);\n        uint256 chaReward = multiplier.mul(pool.chaPerBlock);\n        if (remain < chaReward) {\n            chaReward = remain;\n        }\n        releasedReward = releasedReward.add(chaReward);\n        accChaPerShare = accChaPerShare.add(\n            chaReward.mul(1e12).div(pool.totalPower)\n        );\n        if (accPerShareList[block.number / (oneDayBlock / updatePerDay)] == 0)\n            accPerShareList[\n                block.number / (oneDayBlock / updatePerDay)\n            ] = accChaPerShare;\n        lastRewardBlock = block.number;\n    }\n\n    // Deposit LP tokens to DogeFoodPool for CHA allocation.\n    function depositWithNFT(\n        uint256 _pid,\n        uint256 countday,\n        uint32 nft1,\n        uint32 nft2,\n        uint32 nft3\n    ) public {\n        PoolInfo storage pool = poolInfo[_pid];\n        uint256 count = minerCount[msg.sender];\n        MinerInfo memory miner = minerInfo[msg.sender][count];\n        require(\n            countday >= 7 && countday <= 30,\n            \"Depsite count day should between 7 and 30.\"\n        );\n        // require(\n        //     nft1 > 0 && nft2 > 0 && nft3 > 0,\n        //     \"Depsite nft 1 2 3 should not be empty.\"\n        // );\n        // updateReward(0);\n        require(\n            (nftToken.ownerOf(nft1) == msg.sender) &&\n                (nftToken.ownerOf(nft2) == msg.sender) &&\n                (nftToken.ownerOf(nft3) == msg.sender),\n            \"Depsite nft 1 2 3 should be owner of you.\"\n        );\n        uint256 power = 0;\n        power += nftToken.powerOf(nft1);\n        nftToken.safeTransferFrom(msg.sender, address(this), nft1);\n        power += nftToken.powerOf(nft2);\n        nftToken.safeTransferFrom(msg.sender, address(this), nft2);\n        power += nftToken.powerOf(nft3);\n        nftToken.safeTransferFrom(msg.sender, address(this), nft3);\n        power = power.mul((countday + 100) / 100);\n        // uint256 amount = 1000; // 1USDT = 1000 DOGEFOOD\n        pool.totalPower = pool.totalPower.add(power);\n        uint256 blockNumber = block.number;\n        miner.startBlock = blockNumber;\n        miner.power = power;\n        miner.endBlock = blockNumber.add(countday * oneDayBlock); // toFixed\n\n        miner.nft1 = uint32(nft1);\n        miner.nft2 = uint32(nft2);\n        miner.nft3 = uint32(nft3);\n        uint256 accPerShare = getAccPerShare(block.number);\n        miner.rewardDebt = miner.power.mul(accPerShare).div(1e12);\n        minerCount[msg.sender] = count + 1;\n        minerInfo[msg.sender][count] = miner;\n        userPower[msg.sender] = userPower[msg.sender].add(power);\n        emit DepositWithNFT(\n            msg.sender,\n            _pid,\n            count,\n            miner.startBlock,\n            miner.endBlock,\n            power,\n            nft1,\n            nft2,\n            nft3\n        );\n    }\n\n    function getAccPerShare(uint256 blockNumber)\n        private\n        view\n        returns (uint256)\n    {\n        uint256 blockBase = blockNumber.div(oneDayBlock / updatePerDay);\n        uint256 accPerShare = accPerShareList[blockBase];\n        if (accPerShare == 0 && blockBase > 1)\n            accPerShare = accPerShareList[blockBase - 1];\n        if (accPerShare == 0 && blockBase > 2)\n            accPerShare = accPerShareList[blockBase - 2];\n        if (accPerShare == 0) accPerShare = accChaPerShare;\n        return accPerShare;\n    }\n\n    // harvest LP tokens from DogeFoodPool.\n    function harvest(uint256 _pid, uint256 _idx) public {\n        // PoolInfo storage pool = poolInfo[_pid];\n        MinerInfo storage miner = minerInfo[msg.sender][_pid];\n        // updateReward(0);\n        uint256 accPerShare = getAccPerShare(block.number);\n        uint256 pending = miner.power.mul(accPerShare).div(1e12).sub(\n            miner.rewardDebt\n        );\n        require(pending > 0, \"harvest: none reward\");\n        safeChaTransfer(msg.sender, pending);\n        miner.rewardDebt = miner.power.mul(accPerShare).div(1e12);\n        emit Harvest(msg.sender, _pid, _idx, pending);\n    }\n\n    // Withdraw LP tokens from DogeFoodPool.\n    function withdraw(uint256 _pid, uint256 _idx) public {\n        uint256 pending;\n        PoolInfo storage pool = poolInfo[_pid];\n        MinerInfo storage miner = minerInfo[msg.sender][_idx];\n        require(\n            miner.endBlock <= block.number,\n            \"Cannot withdraw with days limit.\"\n        );\n        // require(accChaPerShare > 0, \"accChaPerShare should not be zero\");\n        // updateReward(0);\n        uint256 accPerShare = getAccPerShare(miner.endBlock);\n        if (miner.power.mul(accPerShare).div(1e12) > miner.rewardDebt) {\n            pending = miner.power.mul(accPerShare).div(1e12).sub(\n                miner.rewardDebt\n            );\n            safeChaTransfer(msg.sender, pending);\n        }\n\n        if (miner.nft1 > 0) {\n            nftToken.safeTransferFrom(address(this), msg.sender, miner.nft1);\n        }\n        if (miner.nft2 > 0) {\n            nftToken.safeTransferFrom(address(this), msg.sender, miner.nft2);\n        }\n        if (miner.nft3 > 0) {\n            nftToken.safeTransferFrom(address(this), msg.sender, miner.nft3);\n        }\n\n        // reduce power\n        // uint256 power = miner.power.mul(_amount).div(miner.amount);\n        pool.totalPower = pool.totalPower.sub(miner.power);\n\n        userPower[msg.sender] = userPower[msg.sender].sub(miner.power);\n        emit Withdraw(\n            msg.sender,\n            _pid,\n            _idx,\n            miner.power,\n            miner.nft1,\n            miner.nft2,\n            miner.nft3\n        );\n        //  reduce amount\n        miner.power = 0;\n        miner.nft1 = 0;\n        miner.nft2 = 0;\n        miner.nft3 = 0;\n        miner.rewardDebt = 0;\n        // minerInfo[_pid][msg.sender] = 0;\n    }\n\n    // Safe chaToken transfer function, just in case if rounding error causes pool to not have enough CHA.\n    function safeChaTransfer(address _to, uint256 _amount) internal {\n        uint256 chaBalance = chaToken.balanceOf(address(this));\n        if (_amount > chaBalance) {\n            _amount = chaBalance;\n        }\n        // chaToken.transfer(blackholeAddress, _amount.mul(10).div(100));\n        // chaToken.transfer(liquidAddress, _amount.mul(10).div(100));\n        chaToken.transfer(_to, _amount.mul(100).div(100));\n    }\n}\n",
  "sourcePath": "/Users/jilong/solidity/pantheonNFT/contracts/DogeFoodPool.sol",
  "compiler": {
    "name": "solc",
    "version": "0.8.6+commit.11564f7e.Emscripten.clang"
  },
  "schemaVersion": "3.4.3",
  "updatedAt": "2022-05-16T09:14:21.369Z",
  "networkType": "ethereum",
  "devdoc": {
    "kind": "dev",
    "methods": {
      "onERC721Received(address,address,uint256,bytes)": {
        "details": "See {IERC721Receiver-onERC721Received}. Always returns `IERC721Receiver.onERC721Received.selector`."
      },
      "owner()": {
        "details": "Returns the address of the current owner."
      },
      "renounceOwnership()": {
        "details": "Leaves the contract without owner. It will not be possible to call `onlyOwner` functions anymore. Can only be called by the current owner. NOTE: Renouncing ownership will leave the contract without an owner, thereby removing any functionality that is only available to the owner."
      },
      "transferOwnership(address)": {
        "details": "Transfers ownership of the contract to a new account (`newOwner`). Can only be called by the current owner."
      }
    },
    "version": 1
  },
  "userdoc": {
    "kind": "user",
    "methods": {},
    "version": 1
  }
}