{
  "contractName": "DogeFoodBlindBox",
  "abi": [
    {
      "inputs": [
        {
          "internalType": "address",
          "name": "beneficiary_",
          "type": "address"
        }
      ],
      "stateMutability": "payable",
      "type": "constructor",
      "payable": true
    },
    {
      "anonymous": false,
      "inputs": [
        {
          "indexed": false,
          "internalType": "address",
          "name": "to",
          "type": "address"
        },
        {
          "indexed": false,
          "internalType": "uint8",
          "name": "boxId",
          "type": "uint8"
        },
        {
          "indexed": false,
          "internalType": "uint8",
          "name": "category",
          "type": "uint8"
        },
        {
          "indexed": false,
          "internalType": "uint32",
          "name": "serialNo",
          "type": "uint32"
        },
        {
          "indexed": false,
          "internalType": "uint8",
          "name": "level",
          "type": "uint8"
        },
        {
          "indexed": false,
          "internalType": "uint32",
          "name": "power",
          "type": "uint32"
        },
        {
          "indexed": false,
          "internalType": "uint256",
          "name": "value",
          "type": "uint256"
        },
        {
          "indexed": false,
          "internalType": "string",
          "name": "url",
          "type": "string"
        },
        {
          "indexed": false,
          "internalType": "enum DogeFoodBlindBox.BBoxStatus",
          "name": "status",
          "type": "uint8"
        },
        {
          "indexed": false,
          "internalType": "uint16",
          "name": "current",
          "type": "uint16"
        },
        {
          "indexed": false,
          "internalType": "uint16",
          "name": "total",
          "type": "uint16"
        }
      ],
      "name": "BBoxOpenEvent",
      "type": "event"
    },
    {
      "anonymous": false,
      "inputs": [
        {
          "indexed": false,
          "internalType": "enum DogeFoodBlindBox.BBoxStatus",
          "name": "status",
          "type": "uint8"
        }
      ],
      "name": "BBoxStateEvent",
      "type": "event"
    },
    {
      "anonymous": false,
      "inputs": [
        {
          "indexed": true,
          "internalType": "address",
          "name": "previousOwner",
          "type": "address"
        },
        {
          "indexed": true,
          "internalType": "address",
          "name": "newOwner",
          "type": "address"
        }
      ],
      "name": "OwnershipTransferred",
      "type": "event"
    },
    {
      "inputs": [
        {
          "internalType": "uint256",
          "name": "",
          "type": "uint256"
        }
      ],
      "name": "bboxes",
      "outputs": [
        {
          "internalType": "address",
          "name": "nftToken",
          "type": "address"
        },
        {
          "internalType": "address",
          "name": "tokenAddr",
          "type": "address"
        },
        {
          "internalType": "uint256",
          "name": "tokenValue",
          "type": "uint256"
        },
        {
          "internalType": "uint256",
          "name": "startTimestamp",
          "type": "uint256"
        },
        {
          "internalType": "uint256",
          "name": "endTimestamp",
          "type": "uint256"
        },
        {
          "internalType": "uint8",
          "name": "category",
          "type": "uint8"
        },
        {
          "internalType": "uint16",
          "name": "total",
          "type": "uint16"
        },
        {
          "internalType": "uint16",
          "name": "current",
          "type": "uint16"
        },
        {
          "internalType": "enum DogeFoodBlindBox.BBoxStatus",
          "name": "status",
          "type": "uint8"
        }
      ],
      "stateMutability": "view",
      "type": "function",
      "constant": true
    },
    {
      "inputs": [],
      "name": "beneficiary",
      "outputs": [
        {
          "internalType": "address",
          "name": "",
          "type": "address"
        }
      ],
      "stateMutability": "view",
      "type": "function",
      "constant": true
    },
    {
      "inputs": [],
      "name": "blackholeAddr",
      "outputs": [
        {
          "internalType": "address",
          "name": "",
          "type": "address"
        }
      ],
      "stateMutability": "view",
      "type": "function",
      "constant": true
    },
    {
      "inputs": [],
      "name": "chairperson",
      "outputs": [
        {
          "internalType": "address",
          "name": "",
          "type": "address"
        }
      ],
      "stateMutability": "view",
      "type": "function",
      "constant": true
    },
    {
      "inputs": [],
      "name": "nftAddress",
      "outputs": [
        {
          "internalType": "address payable",
          "name": "",
          "type": "address"
        }
      ],
      "stateMutability": "view",
      "type": "function",
      "constant": true
    },
    {
      "inputs": [],
      "name": "owner",
      "outputs": [
        {
          "internalType": "address",
          "name": "",
          "type": "address"
        }
      ],
      "stateMutability": "view",
      "type": "function",
      "constant": true
    },
    {
      "inputs": [],
      "name": "renounceOwnership",
      "outputs": [],
      "stateMutability": "nonpayable",
      "type": "function"
    },
    {
      "inputs": [
        {
          "internalType": "address",
          "name": "newOwner",
          "type": "address"
        }
      ],
      "name": "transferOwnership",
      "outputs": [],
      "stateMutability": "nonpayable",
      "type": "function"
    },
    {
      "inputs": [
        {
          "internalType": "uint8",
          "name": "pid",
          "type": "uint8"
        },
        {
          "internalType": "address",
          "name": "tokenAddr",
          "type": "address"
        },
        {
          "internalType": "uint256",
          "name": "tokenValue",
          "type": "uint256"
        }
      ],
      "name": "setBBoxToken",
      "outputs": [],
      "stateMutability": "nonpayable",
      "type": "function"
    },
    {
      "inputs": [
        {
          "internalType": "uint8",
          "name": "pid",
          "type": "uint8"
        },
        {
          "internalType": "uint256",
          "name": "start",
          "type": "uint256"
        },
        {
          "internalType": "uint256",
          "name": "end",
          "type": "uint256"
        }
      ],
      "name": "setBBoxTime",
      "outputs": [],
      "stateMutability": "nonpayable",
      "type": "function"
    },
    {
      "inputs": [
        {
          "internalType": "uint8",
          "name": "pid",
          "type": "uint8"
        },
        {
          "internalType": "uint8",
          "name": "category",
          "type": "uint8"
        }
      ],
      "name": "setBBoxCategory",
      "outputs": [],
      "stateMutability": "nonpayable",
      "type": "function"
    },
    {
      "inputs": [
        {
          "internalType": "uint8",
          "name": "pid",
          "type": "uint8"
        },
        {
          "internalType": "uint16",
          "name": "total",
          "type": "uint16"
        }
      ],
      "name": "setBBoxTotal",
      "outputs": [],
      "stateMutability": "nonpayable",
      "type": "function"
    },
    {
      "inputs": [
        {
          "internalType": "uint8",
          "name": "pid",
          "type": "uint8"
        },
        {
          "internalType": "address",
          "name": "_nftAddress",
          "type": "address"
        }
      ],
      "name": "setBBoxNftToken",
      "outputs": [],
      "stateMutability": "nonpayable",
      "type": "function"
    },
    {
      "inputs": [
        {
          "internalType": "uint8",
          "name": "pid",
          "type": "uint8"
        },
        {
          "internalType": "enum DogeFoodBlindBox.BBoxStatus",
          "name": "status",
          "type": "uint8"
        }
      ],
      "name": "setBBoxStatus",
      "outputs": [],
      "stateMutability": "nonpayable",
      "type": "function"
    },
    {
      "inputs": [
        {
          "internalType": "address",
          "name": "_beneficiary",
          "type": "address"
        }
      ],
      "name": "setBeneficiary",
      "outputs": [],
      "stateMutability": "nonpayable",
      "type": "function"
    },
    {
      "inputs": [
        {
          "internalType": "uint8",
          "name": "category",
          "type": "uint8"
        },
        {
          "internalType": "address",
          "name": "_nftAddress",
          "type": "address"
        },
        {
          "internalType": "address",
          "name": "tokenAddr",
          "type": "address"
        },
        {
          "internalType": "uint256",
          "name": "tokenValue",
          "type": "uint256"
        },
        {
          "internalType": "uint16",
          "name": "total",
          "type": "uint16"
        },
        {
          "internalType": "uint256",
          "name": "startTime",
          "type": "uint256"
        },
        {
          "internalType": "uint256",
          "name": "endTime",
          "type": "uint256"
        }
      ],
      "name": "setBBoxInfo",
      "outputs": [
        {
          "internalType": "uint8",
          "name": "pid",
          "type": "uint8"
        }
      ],
      "stateMutability": "nonpayable",
      "type": "function"
    },
    {
      "inputs": [
        {
          "internalType": "uint8",
          "name": "pid",
          "type": "uint8"
        },
        {
          "internalType": "uint32",
          "name": "serialNo",
          "type": "uint32"
        }
      ],
      "name": "openBBox",
      "outputs": [
        {
          "internalType": "bool",
          "name": "",
          "type": "bool"
        }
      ],
      "stateMutability": "payable",
      "type": "function",
      "payable": true
    },
    {
      "inputs": [],
      "name": "release",
      "outputs": [],
      "stateMutability": "nonpayable",
      "type": "function"
    },
    {
      "inputs": [
        {
          "internalType": "uint8",
          "name": "pid",
          "type": "uint8"
        }
      ],
      "name": "isBBoxEnable",
      "outputs": [
        {
          "internalType": "bool",
          "name": "",
          "type": "bool"
        }
      ],
      "stateMutability": "view",
      "type": "function",
      "constant": true
    },
    {
      "inputs": [
        {
          "internalType": "uint8",
          "name": "id",
          "type": "uint8"
        }
      ],
      "name": "getBBoxInfo",
      "outputs": [
        {
          "internalType": "uint8",
          "name": "category",
          "type": "uint8"
        },
        {
          "internalType": "uint16",
          "name": "current",
          "type": "uint16"
        },
        {
          "internalType": "uint16",
          "name": "total",
          "type": "uint16"
        },
        {
          "internalType": "address",
          "name": "tokenAddr",
          "type": "address"
        },
        {
          "internalType": "uint256",
          "name": "tokenValue",
          "type": "uint256"
        },
        {
          "internalType": "uint256",
          "name": "startTimestamp",
          "type": "uint256"
        },
        {
          "internalType": "uint256",
          "name": "endTimestamp",
          "type": "uint256"
        }
      ],
      "stateMutability": "view",
      "type": "function",
      "constant": true
    },
    {
      "inputs": [
        {
          "internalType": "uint8",
          "name": "id",
          "type": "uint8"
        },
        {
          "internalType": "uint32",
          "name": "serialNo",
          "type": "uint32"
        }
      ],
      "name": "getBBox",
      "outputs": [
        {
          "internalType": "uint16",
          "name": "category",
          "type": "uint16"
        },
        {
          "internalType": "uint16",
          "name": "level",
          "type": "uint16"
        },
        {
          "internalType": "uint16",
          "name": "power",
          "type": "uint16"
        },
        {
          "internalType": "address",
          "name": "owner",
          "type": "address"
        },
        {
          "internalType": "string",
          "name": "url",
          "type": "string"
        }
      ],
      "stateMutability": "view",
      "type": "function",
      "constant": true
    }
  ],
  "bytecode": "0x608060405260405162001e5a38038062001e5a833981016040819052610024916100be565b61002d3361006e565b600180546001600160a01b03199081163317909155600280546001600160a01b0393909316928216929092179091556004805490911661dead1790556100ee565b600080546001600160a01b038381166001600160a01b0319831681178455604051919092169283917f8be0079c531659141344cd1fd0a4f28419497f9722a3daafe3b4186f6b6457e09190a35050565b6000602082840312156100d057600080fd5b81516001600160a01b03811681146100e757600080fd5b9392505050565b611d5c80620000fe6000396000f3fe60806040526004361061012a5760003560e01c80637b2625db116100ab57806390d150651161006f57806390d150651461033c578063a3d671f61461035c578063df4ef9481461037f578063f1d1f657146103e9578063f2fde38b14610409578063f6112dab1461042957600080fd5b80637b2625db146102985780638471bb94146102c957806386d1a69f146102e95780638c8ed52f146102fe5780638da5cb5b1461031e57600080fd5b80635bf8633a116100f25780635bf8633a146101ee5780635ec296ff1461020e578063674edf48146102435780636bacfb4f14610263578063715018a61461028357600080fd5b8063156d36451461012f5780631c31f710146101515780632e4176cf1461017157806338af3eed146101ae5780633fdac1d4146101ce575b600080fd5b34801561013b57600080fd5b5061014f61014a366004611901565b61045b565b005b34801561015d57600080fd5b5061014f61016c366004611641565b6104d8565b34801561017d57600080fd5b50600154610191906001600160a01b031681565b6040516001600160a01b0390911681526020015b60405180910390f35b3480156101ba57600080fd5b50600254610191906001600160a01b031681565b3480156101da57600080fd5b5061014f6101e93660046117db565b610537565b3480156101fa57600080fd5b50600354610191906001600160a01b031681565b34801561021a57600080fd5b5061022e61022936600461178c565b6105bf565b6040516101a599989796959493929190611a45565b34801561024f57600080fd5b5061014f61025e3660046118cf565b610637565b34801561026f57600080fd5b50600454610191906001600160a01b031681565b34801561028f57600080fd5b5061014f6106b9565b3480156102a457600080fd5b506102b86102b3366004611992565b6106ef565b6040516101a5959493929190611b70565b3480156102d557600080fd5b5061014f6102e436600461195d565b6108e6565b3480156102f557600080fd5b5061014f610956565b34801561030a57600080fd5b5061014f6103193660046119c9565b610b18565b34801561032a57600080fd5b506000546001600160a01b0316610191565b34801561034857600080fd5b5061014f61035736600461188e565b610b84565b61036f61036a366004611992565b610c03565b60405190151581526020016101a5565b34801561038b57600080fd5b5061039f61039a3660046117be565b610fa5565b6040805160ff98909816885261ffff968716602089015294909516938601939093526001600160a01b03919091166060850152608084015260a083015260c082015260e0016101a5565b3480156103f557600080fd5b5061036f6104043660046117be565b6110be565b34801561041557600080fd5b5061014f610424366004611641565b61111c565b34801561043557600080fd5b50610449610444366004611814565b6111b4565b60405160ff90911681526020016101a5565b6000546001600160a01b0316331461048e5760405162461bcd60e51b815260040161048590611b3b565b60405180910390fd5b600060058360ff16815481106104a6576104a6611cc6565b60009182526020909120600560069092020101805461ffff9093166101000262ffff0019909316929092179091555050565b6000546001600160a01b031633146105025760405162461bcd60e51b815260040161048590611b3b565b6001600160a01b03811661051557600080fd5b600280546001600160a01b0319166001600160a01b0392909216919091179055565b6000546001600160a01b031633146105615760405162461bcd60e51b815260040161048590611b3b565b6001600160a01b03811661057457600080fd5b600060058360ff168154811061058c5761058c611cc6565b6000918252602090912060069091020180546001600160a01b0319166001600160a01b0393909316929092179091555050565b600581815481106105cf57600080fd5b60009182526020909120600690910201805460018201546002830154600384015460048501546005909501546001600160a01b039485169650929093169390929160ff8082169161ffff61010082048116926301000000830490911691600160281b90041689565b6000546001600160a01b031633146106615760405162461bcd60e51b815260040161048590611b3b565b600060058360ff168154811061067957610679611cc6565b90600052602060002090600602019050818160050160056101000a81548160ff021916908360028111156106af576106af611cb0565b0217905550505050565b6000546001600160a01b031633146106e35760405162461bcd60e51b815260040161048590611b3b565b6106ed6000611365565b565b6000806000806060600060058860ff168154811061070f5761070f611cc6565b60009182526020918290206040805161012081018252600690930290910180546001600160a01b03908116845260018201541693830193909352600280840154918301919091526003830154606083015260048301546080830152600583015460ff80821660a085015261ffff610100808404821660c08701526301000000840490911660e0860152939493850192600160281b90920416908111156107b7576107b7611cb0565b60028111156107c8576107c8611cb0565b90525080516040516348c4698960e11b815263ffffffff8a1660048201529192506001600160a01b031690639188d3129060240160806040518083038186803b15801561081457600080fd5b505afa158015610828573d6000803e3d6000fd5b505050506040513d601f19601f8201168201806040525081019061084c919061172d565b845160405163c87b56dd60e01b815263ffffffff8d166004820152949a5092985090965094506001600160a01b03169063c87b56dd9060240160006040518083038186803b15801561089d57600080fd5b505afa1580156108b1573d6000803e3d6000fd5b505050506040513d6000823e601f3d908101601f191682016040526108d99190810190611680565b9150509295509295909350565b6000546001600160a01b031633146109105760405162461bcd60e51b815260040161048590611b3b565b81811161091c57600080fd5b600060058460ff168154811061093457610934611cc6565b6000918252602090912060069091020160038101939093555060049091015550565b6000546001600160a01b031633146109805760405162461bcd60e51b815260040161048590611b3b565b6001546040516001600160a01b03909116904780156108fc02916000818181858888f193505050501580156109b9573d6000803e3d6000fd5b5060005b60055461ffff82161015610b1557600060058261ffff16815481106109e4576109e4611cc6565b6000918252602090912060016006909202018181015491546040516370a0823160e01b81523060048201529193506001600160a01b039283169263a9059cbb9291169083906370a082319060240160206040518083038186803b158015610a4a57600080fd5b505afa158015610a5e573d6000803e3d6000fd5b505050506040513d601f19601f82011682018060405250810190610a8291906117a5565b6040516001600160e01b031960e085901b1681526001600160a01b0390921660048301526024820152604401602060405180830381600087803b158015610ac857600080fd5b505af1158015610adc573d6000803e3d6000fd5b505050506040513d601f19601f82011682018060405250810190610b00919061165e565b50508080610b0d90611c4e565b9150506109bd565b50565b6000546001600160a01b03163314610b425760405162461bcd60e51b815260040161048590611b3b565b600060058360ff1681548110610b5a57610b5a611cc6565b60009182526020909120600690910201600501805460ff191660ff93909316929092179091555050565b6000546001600160a01b03163314610bae5760405162461bcd60e51b815260040161048590611b3b565b600060058460ff1681548110610bc657610bc6611cc6565b600091825260209091206006909102016001810180546001600160a01b0319166001600160a01b0395909516949094179093555060029091015550565b600080429050600060058560ff1681548110610c2157610c21611cc6565b6000918252602090912060056006909202019081015490915061ffff6101008204811663010000009092041610610c925760405162461bcd60e51b81526020600482015260156024820152744e6f2072656d61696e2062626f7820737570706c7960581b6044820152606401610485565b80600301548210158015610ca95750806004015482105b610cec5760405162461bcd60e51b8152602060048201526014602482015273212624a7222127ac1034b9903737ba1037b832b760611b6044820152606401610485565b60018101546001600160a01b0316610d425760028054908201546040516001600160a01b039092169181156108fc0291906000818181858888f19350505050158015610d3c573d6000803e3d6000fd5b50610d65565b600181015460028201546001600160a01b0390911690610d639082906113b5565b505b6005810154610d80906301000000900461ffff166001611bae565b60058201805464ffff0000001916630100000061ffff938416810291909117918290556101008204831691049091161415610dcf5760058101805465ff00000000001916650200000000001790555b63ffffffff8416610dfb576005810154610df89060ff8116906301000000900461ffff166115c8565b93505b80546005820154604051635efbd96d60e01b815260ff909116600482015263ffffffff8616602482015233604482015260009182916001600160a01b0390911690635efbd96d906064016040805180830381600087803b158015610e5e57600080fd5b505af1158015610e72573d6000803e3d6000fd5b505050506040513d601f19601f82011682018060405250810190610e96919061192f565b845460405163c87b56dd60e01b815263ffffffff8a1660048201529294509092506000916001600160a01b039091169063c87b56dd9060240160006040518083038186803b158015610ee757600080fd5b505afa158015610efb573d6000803e3d6000fd5b505050506040513d6000823e601f3d908101601f19168201604052610f239190810190611680565b600585015460028601546040519293507f1f4025a989c64ea30c2e923cdcae205b7082ef2ddf5ec517a70bd88755f9cbc792610f8f9233928d9260ff808416938f938c938c9391928c92600160281b8204169161ffff6301000000830481169261010090041690611aaa565b60405180910390a1506001979650505050505050565b60008060008060008060008060058960ff1681548110610fc757610fc7611cc6565b60009182526020918290206040805161012081018252600690930290910180546001600160a01b03908116845260018201541693830193909352600280840154918301919091526003830154606083015260048301546080830152600583015460ff80821660a085015261ffff610100808404821660c08701526301000000840490911660e0860152939493850192600160281b909204169081111561106f5761106f611cb0565b600281111561108057611080611cb0565b90525060a081015160e082015160c0830151602084015160408501516060860151608090960151949f939e50919c509a509850919650945092505050565b600080429050600060058460ff16815481106110dc576110dc611cc6565b90600052602060002090600602019050806003015482101580156111035750806004015482105b15611112575060019392505050565b5060009392505050565b6000546001600160a01b031633146111465760405162461bcd60e51b815260040161048590611b3b565b6001600160a01b0381166111ab5760405162461bcd60e51b815260206004820152602660248201527f4f776e61626c653a206e6577206f776e657220697320746865207a65726f206160448201526564647265737360d01b6064820152608401610485565b610b1581611365565b600080546001600160a01b031633146111df5760405162461bcd60e51b815260040161048590611b3b565b6005604051806101200160405280896001600160a01b03168152602001886001600160a01b031681526020018781526020018581526020018481526020018a60ff1681526020018661ffff168152602001600061ffff1681526020016000600281111561124e5761124e611cb0565b90528154600181810184556000938452602093849020835160069093020180546001600160a01b039384166001600160a01b031991821617825594840151918101805492909316919094161790556040810151600280840191909155606082015160038401556080820151600484015560a082015160058401805460c085015160e086015161ffff90811663010000000264ffff000000199190921661010090810262ffffff1990941660ff9096169590951792909217918216811783559285015194959493919265ff0000000000191665ffffff000000199091161790600160281b90849081111561134357611343611cb0565b0217905550506005546113599150600190611c07565b98975050505050505050565b600080546001600160a01b038381166001600160a01b0319831681178455604051919092169283917f8be0079c531659141344cd1fd0a4f28419497f9722a3daafe3b4186f6b6457e09190a35050565b6004546001600160a01b03808416916323b872dd913391166113e360646113dd87600a611629565b90611635565b6040516001600160e01b031960e086901b1681526001600160a01b0393841660048201529290911660248301526044820152606401602060405180830381600087803b15801561143257600080fd5b505af1158015611446573d6000803e3d6000fd5b505050506040513d601f19601f8201168201806040525081019061146a919061165e565b506002546001600160a01b03808416916323b872dd9133911661149360646113dd87600a611629565b6040516001600160e01b031960e086901b1681526001600160a01b0393841660048201529290911660248301526044820152606401602060405180830381600087803b1580156114e257600080fd5b505af11580156114f6573d6000803e3d6000fd5b505050506040513d601f19601f8201168201806040525081019061151a919061165e565b506001600160a01b0382166323b872dd333061153c60646113dd876050611629565b6040516001600160e01b031960e086901b1681526001600160a01b0393841660048201529290911660248301526044820152606401602060405180830381600087803b15801561158b57600080fd5b505af115801561159f573d6000803e3d6000fd5b505050506040513d601f19601f820116820180604052508101906115c3919061165e565b505050565b6040516001600160f81b031960f884901b1660208201526001600160f01b031960f083901b166021820152600090633b9aca00906023016040516020818303038152906040528051906020012060001c6116229190611c70565b9392505050565b60006116228284611be8565b60006116228284611bd4565b60006020828403121561165357600080fd5b813561162281611cf2565b60006020828403121561167057600080fd5b8151801515811461162257600080fd5b60006020828403121561169257600080fd5b815167ffffffffffffffff808211156116aa57600080fd5b818401915084601f8301126116be57600080fd5b8151818111156116d0576116d0611cdc565b604051601f8201601f19908116603f011681019083821181831017156116f8576116f8611cdc565b8160405282815287602084870101111561171157600080fd5b611722836020830160208801611c1e565b979650505050505050565b6000806000806080858703121561174357600080fd5b845161174e81611d07565b602086015190945061175f81611d07565b604086015190935061177081611d07565b606086015190925061178181611cf2565b939692955090935050565b60006020828403121561179e57600080fd5b5035919050565b6000602082840312156117b757600080fd5b5051919050565b6000602082840312156117d057600080fd5b813561162281611d17565b600080604083850312156117ee57600080fd5b82356117f981611d17565b9150602083013561180981611cf2565b809150509250929050565b600080600080600080600060e0888a03121561182f57600080fd5b873561183a81611d17565b9650602088013561184a81611cf2565b9550604088013561185a81611cf2565b945060608801359350608088013561187181611d07565b9699959850939692959460a0840135945060c09093013592915050565b6000806000606084860312156118a357600080fd5b83356118ae81611d17565b925060208401356118be81611cf2565b929592945050506040919091013590565b600080604083850312156118e257600080fd5b82356118ed81611d17565b915060208301356003811061180957600080fd5b6000806040838503121561191457600080fd5b823561191f81611d17565b9150602083013561180981611d07565b6000806040838503121561194257600080fd5b825161194d81611d17565b6020939093015192949293505050565b60008060006060848603121561197257600080fd5b833561197d81611d17565b95602085013595506040909401359392505050565b600080604083850312156119a557600080fd5b82356119b081611d17565b9150602083013563ffffffff8116811461180957600080fd5b600080604083850312156119dc57600080fd5b82356119e781611d17565b9150602083013561180981611d17565b60038110611a1557634e487b7160e01b600052602160045260246000fd5b9052565b60008151808452611a31816020860160208601611c1e565b601f01601f19169290920160200192915050565b6001600160a01b038a811682528916602082015260408101889052606081018790526080810186905260ff851660a082015261ffff84811660c0830152831660e08201526101208101611a9c6101008301846119f7565b9a9950505050505050505050565b6001600160a01b038c16815260ff8b811660208301528a8116604083015263ffffffff8a811660608401529089166080830152871660a082015260c0810186905261016060e08201819052600090611b0483820188611a19565b915050611b156101008301866119f7565b61ffff808516610120840152808416610140840152509c9b505050505050505050505050565b6020808252818101527f4f776e61626c653a2063616c6c6572206973206e6f7420746865206f776e6572604082015260600190565b61ffff86811682528581166020830152841660408201526001600160a01b038316606082015260a06080820181905260009061172290830184611a19565b600061ffff808316818516808303821115611bcb57611bcb611c84565b01949350505050565b600082611be357611be3611c9a565b500490565b6000816000190483118215151615611c0257611c02611c84565b500290565b600082821015611c1957611c19611c84565b500390565b60005b83811015611c39578181015183820152602001611c21565b83811115611c48576000848401525b50505050565b600061ffff80831681811415611c6657611c66611c84565b6001019392505050565b600082611c7f57611c7f611c9a565b500690565b634e487b7160e01b600052601160045260246000fd5b634e487b7160e01b600052601260045260246000fd5b634e487b7160e01b600052602160045260246000fd5b634e487b7160e01b600052603260045260246000fd5b634e487b7160e01b600052604160045260246000fd5b6001600160a01b0381168114610b1557600080fd5b61ffff81168114610b1557600080fd5b60ff81168114610b1557600080fdfea2646970667358221220ea526e241b6e80f0b432a74e6b76f82f19f5143230b730be5ed03d4738e8c4a464736f6c63430008060033",
  "immutableReferences": {},
  "source": "// SPDX-License-Identifier: MIT\npragma solidity ^0.8.0;\n\nimport \"./utils/math/SafeMath.sol\";\nimport \"./utils/Address.sol\";\nimport \"./access/Ownable.sol\";\nimport \"./token/ERC20/IERC20.sol\";\nimport \"./token/ERC721/IERC721Card.sol\";\n\ncontract DogeFoodBlindBox is Ownable {\n    using SafeMath for uint256;\n\n    enum BBoxStatus {\n        BLINDBOX_INIT,\n        BLINDBOX_START,\n        BLINDBOX_SOLDOUT\n    }\n    //\n    struct BBox {\n        address nftToken;\n        address tokenAddr;\n        uint256 tokenValue;\n        uint256 startTimestamp;\n        uint256 endTimestamp;\n        uint8 category;\n        uint16 total;\n        uint16 current;\n        BBoxStatus status;\n    }\n\n    struct BBoxer {\n        uint256 ethValue;\n        uint256 panValue;\n        // uint timestamp;\n        bool claimed;\n    }\n\n    // struct BBoxerLog {\n    //   address addr;\n    //   uint ethValue;\n    //   uint panValue;\n    //   uint timestamp;\n    // }\n\n    event BBoxOpenEvent(\n        address to,\n        uint8 boxId,\n        uint8 category,\n        uint32 serialNo,\n        uint8 level,\n        uint32 power,\n        uint256 value,\n        string url,\n        BBoxStatus status,\n        uint16 current,\n        uint16 total\n    );\n    event BBoxStateEvent(BBoxStatus status);\n\n    // \n    address public chairperson;\n    // \n    address public beneficiary;\n    // BBoxerLog[] public idoerLogs;\n\n    // \n    address payable public nftAddress;\n    address public blackholeAddr;\n    // \n    BBox[] public bboxes;\n\n    // \n    // ido \n    constructor(address beneficiary_) payable {\n        chairperson = msg.sender;\n        beneficiary = beneficiary_;\n        blackholeAddr = address(0x000000000000000000000000000000000000dEaD);\n    }\n\n    function setBBoxToken(\n        uint8 pid,\n        address tokenAddr,\n        uint256 tokenValue\n    ) public onlyOwner {\n        // tokenAddr address(0) \n        // \n        BBox storage box = bboxes[pid];\n        box.tokenAddr = tokenAddr;\n        box.tokenValue = tokenValue;\n    }\n\n    function setBBoxTime(\n        uint8 pid,\n        uint256 start,\n        uint256 end\n    ) public onlyOwner {\n        require(end > start);\n        BBox storage box = bboxes[pid];\n        box.startTimestamp = start;\n        box.endTimestamp = end;\n    }\n\n    function setBBoxCategory(uint8 pid, uint8 category) public onlyOwner {\n        BBox storage box = bboxes[pid];\n        box.category = category;\n    }\n\n    function setBBoxTotal(uint8 pid, uint16 total) public onlyOwner {\n        BBox storage box = bboxes[pid];\n        box.total = total;\n    }\n\n    function setBBoxNftToken(uint8 pid, address _nftAddress) public onlyOwner {\n        require(_nftAddress != address(0));\n        BBox storage box = bboxes[pid];\n        box.nftToken = _nftAddress;\n    }\n\n    function setBBoxStatus(uint8 pid, BBoxStatus status) public onlyOwner {\n        BBox storage box = bboxes[pid];\n        box.status = status;\n    }\n\n    function setBeneficiary(address _beneficiary) public onlyOwner {\n        require(_beneficiary != address(0));\n        beneficiary = _beneficiary;\n    }\n\n    function setBBoxInfo(\n        uint8 category,\n        address _nftAddress,\n        address tokenAddr,\n        uint256 tokenValue,\n        uint16 total,\n        uint256 startTime,\n        uint256 endTime\n    ) public onlyOwner returns (uint8 pid) {\n        bboxes.push(\n            BBox({\n                nftToken: _nftAddress,\n                tokenAddr: tokenAddr,\n                tokenValue: tokenValue,\n                category: category,\n                total: total,\n                current: 0,\n                startTimestamp: startTime,\n                endTimestamp: endTime,\n                status: BBoxStatus.BLINDBOX_INIT\n            })\n        );\n        return uint8(bboxes.length - 1);\n    }\n\n    // Get a SerialNo\n    function getSerialNo(uint8 category, uint16 current)\n        private\n        pure\n        returns (uint32)\n    {\n        return\n            uint32(\n                uint256(keccak256(abi.encodePacked(category, current))) %\n                    1000000000\n            );\n    }\n\n    function safeTransferToThis(IERC20 token, uint256 _amount) internal {\n        // uint256 chaBal = token.balanceOf(address(this));\n        // if (_amount > chaBal) {\n        //     _amount = chaBal;\n        // }\n        token.transferFrom(msg.sender, blackholeAddr, _amount.mul(10).div(100));\n        token.transferFrom(msg.sender, beneficiary, _amount.mul(10).div(100));\n        token.transferFrom(msg.sender, address(this), _amount.mul(80).div(100));\n    }\n\n    // BBox\n    // BNB\n    // \n    function openBBox(uint8 pid, uint32 serialNo)\n        public\n        payable\n        returns (bool)\n    {\n        uint256 timestamp = block.timestamp;\n        BBox storage box = bboxes[pid];\n        require(box.current < box.total, \"No remain bbox supply\");\n        // require(\n        //     msg.value >= box.tokenValue,\n        //     \"BLINDBOX value should big than box value\"\n        // );\n        // require(\n        //     idoers[msg.sender].ethValue + msg.value <= MAX_DEPOSITE_ETH,\n        //     \"BLINDBOX total value should less than 4ETH\"\n        // );\n        require(\n            timestamp >= box.startTimestamp && timestamp < box.endTimestamp,\n            \"BLINDBOX is not open\"\n        );\n        if (box.tokenAddr == address(0)) {\n            payable(beneficiary).transfer(box.tokenValue);\n        } else {\n            IERC20 token = IERC20(box.tokenAddr);\n            safeTransferToThis(token, box.tokenValue);\n        }\n\n        box.current = box.current + 1;\n        if (box.current == box.total) {\n            box.status = BBoxStatus.BLINDBOX_SOLDOUT;\n        }\n        if (serialNo == 0) serialNo = getSerialNo(box.category, box.current);\n        (uint8 level, uint256 power) = IERC721Card(box.nftToken).mintCard(\n            box.category,\n            serialNo,\n            msg.sender\n        );\n        string memory url = IERC721Card(box.nftToken).tokenURI(\n            uint256(serialNo)\n        );\n        emit BBoxOpenEvent(\n            msg.sender,\n            pid,\n            box.category,\n            serialNo,\n            level,\n            uint32(power),\n            box.tokenValue,\n            url,\n            box.status,\n            box.current,\n            box.total\n        );\n        return true;\n    }\n\n    function release() public onlyOwner {\n        payable(chairperson).transfer(address(this).balance);\n        for (uint16 i = 0; i < bboxes.length; i++) {\n            BBox storage box = bboxes[i];\n            IERC20(box.tokenAddr).transfer(\n                chairperson,\n                IERC20(box.tokenAddr).balanceOf(address(this))\n            );\n        }\n    }\n\n    function isBBoxEnable(uint8 pid) public view returns (bool) {\n        uint256 timestamp = block.timestamp;\n        BBox storage box = bboxes[pid];\n        if (timestamp >= box.startTimestamp && timestamp < box.endTimestamp)\n            return true;\n        else return false;\n    }\n\n    function getBBoxInfo(uint8 id)\n        external\n        view\n        returns (\n            uint8 category,\n            uint16 current,\n            uint16 total,\n            address tokenAddr,\n            uint256 tokenValue,\n            uint256 startTimestamp,\n            uint256 endTimestamp\n        )\n    {\n        BBox memory bbox = bboxes[id];\n        return (\n            bbox.category,\n            bbox.current,\n            bbox.total,\n            bbox.tokenAddr,\n            bbox.tokenValue,\n            bbox.startTimestamp,\n            bbox.endTimestamp\n        );\n    }\n\n    function getBBox(uint8 id, uint32 serialNo)\n        external\n        view\n        returns (\n            uint16 category,\n            uint16 level,\n            uint16 power,\n            address owner,\n            string memory url\n        )\n    {\n        BBox memory bbox = bboxes[id];\n        (category, level, power, owner) = IERC721Card(bbox.nftToken).getCard(\n            serialNo\n        );\n        url = IERC721Card(bbox.nftToken).tokenURI(uint256(serialNo));\n    }\n}\n",
  "sourcePath": "/Users/jilong/solidity/pantheonNFT/contracts/DogeFoodBlindBox.sol",
  "compiler": {
    "name": "solc",
    "version": "0.8.6+commit.11564f7e.Emscripten.clang"
  },
  "schemaVersion": "3.4.3",
  "updatedAt": "2022-05-16T09:14:21.330Z",
  "networkType": "ethereum",
  "devdoc": {
    "kind": "dev",
    "methods": {
      "owner()": {
        "details": "Returns the address of the current owner."
      },
      "renounceOwnership()": {
        "details": "Leaves the contract without owner. It will not be possible to call `onlyOwner` functions anymore. Can only be called by the current owner. NOTE: Renouncing ownership will leave the contract without an owner, thereby removing any functionality that is only available to the owner."
      },
      "transferOwnership(address)": {
        "details": "Transfers ownership of the contract to a new account (`newOwner`). Can only be called by the current owner."
      }
    },
    "version": 1
  },
  "userdoc": {
    "kind": "user",
    "methods": {},
    "version": 1
  }
}