{
  "contractName": "DogeFoodToken",
  "abi": [
    {
      "inputs": [
        {
          "internalType": "address",
          "name": "pancakeRouter",
          "type": "address"
        },
        {
          "internalType": "address",
          "name": "nftAddress_",
          "type": "address"
        },
        {
          "internalType": "address",
          "name": "blackholeAddress_",
          "type": "address"
        },
        {
          "internalType": "address",
          "name": "airdropAddress_",
          "type": "address"
        }
      ],
      "stateMutability": "nonpayable",
      "type": "constructor"
    },
    {
      "anonymous": false,
      "inputs": [
        {
          "indexed": true,
          "internalType": "address",
          "name": "owner",
          "type": "address"
        },
        {
          "indexed": true,
          "internalType": "address",
          "name": "spender",
          "type": "address"
        },
        {
          "indexed": false,
          "internalType": "uint256",
          "name": "value",
          "type": "uint256"
        }
      ],
      "name": "Approval",
      "type": "event"
    },
    {
      "anonymous": false,
      "inputs": [
        {
          "indexed": false,
          "internalType": "uint256",
          "name": "minTokensBeforeSwap",
          "type": "uint256"
        }
      ],
      "name": "MinTokensBeforeSwapUpdated",
      "type": "event"
    },
    {
      "anonymous": false,
      "inputs": [
        {
          "indexed": true,
          "internalType": "address",
          "name": "previousOwner",
          "type": "address"
        },
        {
          "indexed": true,
          "internalType": "address",
          "name": "newOwner",
          "type": "address"
        }
      ],
      "name": "OwnershipTransferred",
      "type": "event"
    },
    {
      "anonymous": false,
      "inputs": [
        {
          "indexed": false,
          "internalType": "uint256",
          "name": "tokensSwapped",
          "type": "uint256"
        },
        {
          "indexed": false,
          "internalType": "uint256",
          "name": "ethReceived",
          "type": "uint256"
        },
        {
          "indexed": false,
          "internalType": "uint256",
          "name": "tokensIntoLiqudity",
          "type": "uint256"
        }
      ],
      "name": "SwapAndLiquify",
      "type": "event"
    },
    {
      "anonymous": false,
      "inputs": [
        {
          "indexed": false,
          "internalType": "bool",
          "name": "enabled",
          "type": "bool"
        }
      ],
      "name": "SwapAndLiquifyEnabledUpdated",
      "type": "event"
    },
    {
      "anonymous": false,
      "inputs": [
        {
          "indexed": true,
          "internalType": "address",
          "name": "from",
          "type": "address"
        },
        {
          "indexed": true,
          "internalType": "address",
          "name": "to",
          "type": "address"
        },
        {
          "indexed": false,
          "internalType": "uint256",
          "name": "value",
          "type": "uint256"
        }
      ],
      "name": "Transfer",
      "type": "event"
    },
    {
      "inputs": [],
      "name": "LUCKY_THREDHOLD",
      "outputs": [
        {
          "internalType": "uint256",
          "name": "",
          "type": "uint256"
        }
      ],
      "stateMutability": "view",
      "type": "function"
    },
    {
      "inputs": [],
      "name": "_accHolderBonus",
      "outputs": [
        {
          "internalType": "uint256",
          "name": "",
          "type": "uint256"
        }
      ],
      "stateMutability": "view",
      "type": "function"
    },
    {
      "inputs": [
        {
          "internalType": "address",
          "name": "",
          "type": "address"
        }
      ],
      "name": "_lastTransferLimitCount",
      "outputs": [
        {
          "internalType": "uint256",
          "name": "",
          "type": "uint256"
        }
      ],
      "stateMutability": "view",
      "type": "function"
    },
    {
      "inputs": [
        {
          "internalType": "address",
          "name": "",
          "type": "address"
        }
      ],
      "name": "_lastTransferLimitTime",
      "outputs": [
        {
          "internalType": "uint256",
          "name": "",
          "type": "uint256"
        }
      ],
      "stateMutability": "view",
      "type": "function"
    },
    {
      "inputs": [],
      "name": "_maxSwapAmount",
      "outputs": [
        {
          "internalType": "uint256",
          "name": "",
          "type": "uint256"
        }
      ],
      "stateMutability": "view",
      "type": "function"
    },
    {
      "inputs": [],
      "name": "_maxTxAmount",
      "outputs": [
        {
          "internalType": "uint256",
          "name": "",
          "type": "uint256"
        }
      ],
      "stateMutability": "view",
      "type": "function"
    },
    {
      "inputs": [],
      "name": "_onedaySeconds",
      "outputs": [
        {
          "internalType": "uint256",
          "name": "",
          "type": "uint256"
        }
      ],
      "stateMutability": "view",
      "type": "function"
    },
    {
      "inputs": [],
      "name": "_tokenPrice",
      "outputs": [
        {
          "internalType": "uint256",
          "name": "",
          "type": "uint256"
        }
      ],
      "stateMutability": "view",
      "type": "function"
    },
    {
      "inputs": [],
      "name": "airdropAddress",
      "outputs": [
        {
          "internalType": "address",
          "name": "",
          "type": "address"
        }
      ],
      "stateMutability": "view",
      "type": "function"
    },
    {
      "inputs": [],
      "name": "blackholeAddress",
      "outputs": [
        {
          "internalType": "address",
          "name": "",
          "type": "address"
        }
      ],
      "stateMutability": "view",
      "type": "function"
    },
    {
      "inputs": [],
      "name": "nftToken",
      "outputs": [
        {
          "internalType": "contract IERC721Card",
          "name": "",
          "type": "address"
        }
      ],
      "stateMutability": "view",
      "type": "function"
    },
    {
      "inputs": [
        {
          "internalType": "address",
          "name": "",
          "type": "address"
        },
        {
          "internalType": "address",
          "name": "",
          "type": "address"
        },
        {
          "internalType": "uint256",
          "name": "",
          "type": "uint256"
        },
        {
          "internalType": "bytes",
          "name": "",
          "type": "bytes"
        }
      ],
      "name": "onERC721Received",
      "outputs": [
        {
          "internalType": "bytes4",
          "name": "",
          "type": "bytes4"
        }
      ],
      "stateMutability": "nonpayable",
      "type": "function"
    },
    {
      "inputs": [],
      "name": "owner",
      "outputs": [
        {
          "internalType": "address",
          "name": "",
          "type": "address"
        }
      ],
      "stateMutability": "view",
      "type": "function"
    },
    {
      "inputs": [],
      "name": "redeemAddress",
      "outputs": [
        {
          "internalType": "address",
          "name": "",
          "type": "address"
        }
      ],
      "stateMutability": "view",
      "type": "function"
    },
    {
      "inputs": [],
      "name": "renounceOwnership",
      "outputs": [],
      "stateMutability": "nonpayable",
      "type": "function"
    },
    {
      "inputs": [],
      "name": "swapAndLiquifyEnabled",
      "outputs": [
        {
          "internalType": "bool",
          "name": "",
          "type": "bool"
        }
      ],
      "stateMutability": "view",
      "type": "function"
    },
    {
      "inputs": [
        {
          "internalType": "address",
          "name": "newOwner",
          "type": "address"
        }
      ],
      "name": "transferOwnership",
      "outputs": [],
      "stateMutability": "nonpayable",
      "type": "function"
    },
    {
      "inputs": [],
      "name": "uniswapV2Pair",
      "outputs": [
        {
          "internalType": "address",
          "name": "",
          "type": "address"
        }
      ],
      "stateMutability": "view",
      "type": "function"
    },
    {
      "inputs": [],
      "name": "uniswapV2Router",
      "outputs": [
        {
          "internalType": "contract IUniswapV2Router02",
          "name": "",
          "type": "address"
        }
      ],
      "stateMutability": "view",
      "type": "function"
    },
    {
      "stateMutability": "payable",
      "type": "receive"
    },
    {
      "inputs": [],
      "name": "name",
      "outputs": [
        {
          "internalType": "string",
          "name": "",
          "type": "string"
        }
      ],
      "stateMutability": "view",
      "type": "function"
    },
    {
      "inputs": [],
      "name": "symbol",
      "outputs": [
        {
          "internalType": "string",
          "name": "",
          "type": "string"
        }
      ],
      "stateMutability": "view",
      "type": "function"
    },
    {
      "inputs": [],
      "name": "decimals",
      "outputs": [
        {
          "internalType": "uint8",
          "name": "",
          "type": "uint8"
        }
      ],
      "stateMutability": "view",
      "type": "function"
    },
    {
      "inputs": [],
      "name": "totalSupply",
      "outputs": [
        {
          "internalType": "uint256",
          "name": "",
          "type": "uint256"
        }
      ],
      "stateMutability": "view",
      "type": "function"
    },
    {
      "inputs": [
        {
          "internalType": "address",
          "name": "account",
          "type": "address"
        }
      ],
      "name": "balanceOf",
      "outputs": [
        {
          "internalType": "uint256",
          "name": "",
          "type": "uint256"
        }
      ],
      "stateMutability": "view",
      "type": "function"
    },
    {
      "inputs": [
        {
          "internalType": "address",
          "name": "recipient",
          "type": "address"
        },
        {
          "internalType": "uint256",
          "name": "amount",
          "type": "uint256"
        }
      ],
      "name": "transfer",
      "outputs": [
        {
          "internalType": "bool",
          "name": "",
          "type": "bool"
        }
      ],
      "stateMutability": "nonpayable",
      "type": "function"
    },
    {
      "inputs": [
        {
          "internalType": "address",
          "name": "owner",
          "type": "address"
        },
        {
          "internalType": "address",
          "name": "spender",
          "type": "address"
        }
      ],
      "name": "allowance",
      "outputs": [
        {
          "internalType": "uint256",
          "name": "",
          "type": "uint256"
        }
      ],
      "stateMutability": "view",
      "type": "function"
    },
    {
      "inputs": [
        {
          "internalType": "address",
          "name": "spender",
          "type": "address"
        },
        {
          "internalType": "uint256",
          "name": "amount",
          "type": "uint256"
        }
      ],
      "name": "approve",
      "outputs": [
        {
          "internalType": "bool",
          "name": "",
          "type": "bool"
        }
      ],
      "stateMutability": "nonpayable",
      "type": "function"
    },
    {
      "inputs": [
        {
          "internalType": "address",
          "name": "sender",
          "type": "address"
        },
        {
          "internalType": "address",
          "name": "recipient",
          "type": "address"
        },
        {
          "internalType": "uint256",
          "name": "amount",
          "type": "uint256"
        }
      ],
      "name": "transferFrom",
      "outputs": [
        {
          "internalType": "bool",
          "name": "",
          "type": "bool"
        }
      ],
      "stateMutability": "nonpayable",
      "type": "function"
    },
    {
      "inputs": [
        {
          "internalType": "address",
          "name": "spender",
          "type": "address"
        },
        {
          "internalType": "uint256",
          "name": "addedValue",
          "type": "uint256"
        }
      ],
      "name": "increaseAllowance",
      "outputs": [
        {
          "internalType": "bool",
          "name": "",
          "type": "bool"
        }
      ],
      "stateMutability": "nonpayable",
      "type": "function"
    },
    {
      "inputs": [
        {
          "internalType": "address",
          "name": "spender",
          "type": "address"
        },
        {
          "internalType": "uint256",
          "name": "subtractedValue",
          "type": "uint256"
        }
      ],
      "name": "decreaseAllowance",
      "outputs": [
        {
          "internalType": "bool",
          "name": "",
          "type": "bool"
        }
      ],
      "stateMutability": "nonpayable",
      "type": "function"
    },
    {
      "inputs": [
        {
          "internalType": "address",
          "name": "account",
          "type": "address"
        }
      ],
      "name": "isExcludedFromReward",
      "outputs": [
        {
          "internalType": "bool",
          "name": "",
          "type": "bool"
        }
      ],
      "stateMutability": "view",
      "type": "function"
    },
    {
      "inputs": [],
      "name": "totalFees",
      "outputs": [
        {
          "internalType": "uint256",
          "name": "",
          "type": "uint256"
        }
      ],
      "stateMutability": "view",
      "type": "function"
    },
    {
      "inputs": [],
      "name": "tokenPrice",
      "outputs": [
        {
          "internalType": "uint256",
          "name": "",
          "type": "uint256"
        }
      ],
      "stateMutability": "view",
      "type": "function"
    },
    {
      "inputs": [],
      "name": "blackholeAmount",
      "outputs": [
        {
          "internalType": "uint256",
          "name": "",
          "type": "uint256"
        }
      ],
      "stateMutability": "view",
      "type": "function"
    },
    {
      "inputs": [
        {
          "internalType": "address",
          "name": "account",
          "type": "address"
        }
      ],
      "name": "excludeFromFee",
      "outputs": [],
      "stateMutability": "nonpayable",
      "type": "function"
    },
    {
      "inputs": [
        {
          "internalType": "address",
          "name": "account",
          "type": "address"
        }
      ],
      "name": "includeInFee",
      "outputs": [],
      "stateMutability": "nonpayable",
      "type": "function"
    },
    {
      "inputs": [
        {
          "internalType": "uint256",
          "name": "blackholeFee",
          "type": "uint256"
        }
      ],
      "name": "setBlackholeFeePercent",
      "outputs": [],
      "stateMutability": "nonpayable",
      "type": "function"
    },
    {
      "inputs": [
        {
          "internalType": "uint256",
          "name": "airdropFee",
          "type": "uint256"
        }
      ],
      "name": "setAirdropFeePercent",
      "outputs": [],
      "stateMutability": "nonpayable",
      "type": "function"
    },
    {
      "inputs": [
        {
          "internalType": "uint256",
          "name": "liquidityFee",
          "type": "uint256"
        }
      ],
      "name": "setLiquidityFeePercent",
      "outputs": [],
      "stateMutability": "nonpayable",
      "type": "function"
    },
    {
      "inputs": [
        {
          "internalType": "uint256",
          "name": "maxTxPercent",
          "type": "uint256"
        }
      ],
      "name": "setMaxTxPercent",
      "outputs": [],
      "stateMutability": "nonpayable",
      "type": "function"
    },
    {
      "inputs": [
        {
          "internalType": "uint256",
          "name": "maxTxAmount",
          "type": "uint256"
        }
      ],
      "name": "setMaxTxAmount",
      "outputs": [],
      "stateMutability": "nonpayable",
      "type": "function"
    },
    {
      "inputs": [
        {
          "internalType": "uint256",
          "name": "onedaySeconds",
          "type": "uint256"
        }
      ],
      "name": "setOnedayTime",
      "outputs": [],
      "stateMutability": "nonpayable",
      "type": "function"
    },
    {
      "inputs": [
        {
          "internalType": "bool",
          "name": "_enabled",
          "type": "bool"
        }
      ],
      "name": "setSwapAndLiquifyEnabled",
      "outputs": [],
      "stateMutability": "nonpayable",
      "type": "function"
    },
    {
      "inputs": [
        {
          "internalType": "address",
          "name": "account",
          "type": "address"
        }
      ],
      "name": "isExcludedFromFee",
      "outputs": [
        {
          "internalType": "bool",
          "name": "",
          "type": "bool"
        }
      ],
      "stateMutability": "view",
      "type": "function"
    },
    {
      "inputs": [],
      "name": "getHolderBonusInfo",
      "outputs": [
        {
          "internalType": "bool",
          "name": "",
          "type": "bool"
        },
        {
          "internalType": "uint256",
          "name": "",
          "type": "uint256"
        },
        {
          "internalType": "uint256",
          "name": "",
          "type": "uint256"
        },
        {
          "internalType": "uint256",
          "name": "",
          "type": "uint256"
        }
      ],
      "stateMutability": "view",
      "type": "function"
    },
    {
      "inputs": [],
      "name": "claimForHolderBonus",
      "outputs": [
        {
          "internalType": "bool",
          "name": "",
          "type": "bool"
        }
      ],
      "stateMutability": "nonpayable",
      "type": "function"
    },
    {
      "inputs": [
        {
          "internalType": "address",
          "name": "nftAddress_",
          "type": "address"
        }
      ],
      "name": "setNFTToken",
      "outputs": [],
      "stateMutability": "nonpayable",
      "type": "function"
    }
  ],
  "bytecode": "0x60c060405265b5e620f48000600a556601c6bf52634000600a5462000025919062000376565b600c5560408051808201909152600e8082526d2237b3b2a337b7b2102a37b5b2b760911b60209092019182526200005f91600d9162000256565b50604080518082019091526006808252651111d19bdbd960d21b60209092019182526200008f91600e9162000256565b50600f805460ff19166006179055600560105560046011819055601255600d601355601d805461ff00191661010017905564174876e800601e81905566038d7ea4c68000601f5562015180602055602155662386f26fc10000602255348015620000f857600080fd5b5060405162002aaf38038062002aaf8339810160408190526200011b9162000319565b620001263362000206565b600a54336000818152600160208181526040808420959095556001600160601b031960608a811b821660805288901b1660a052601680546001600160a01b038881166001600160a01b031990921691909117909155835416835260039052838220805460ff199081168317909155308352939091208054909316179091556028601a5584906001600160a01b031660006001600160a01b03167fddf252ad1be2c89b69c2b068fc378daa952ba7f163c4a11628f55a4df523b3ef600a54604051620001f391815260200190565b60405180910390a35050505050620003d9565b600080546001600160a01b038381166001600160a01b0319831681178455604051919092169283917f8be0079c531659141344cd1fd0a4f28419497f9722a3daafe3b4186f6b6457e09190a35050565b82805462000264906200039c565b90600052602060002090601f016020900481019282620002885760008555620002d3565b82601f10620002a357805160ff1916838001178555620002d3565b82800160010185558215620002d3579182015b82811115620002d3578251825591602001919060010190620002b6565b50620002e1929150620002e5565b5090565b5b80821115620002e15760008155600101620002e6565b80516001600160a01b03811681146200031457600080fd5b919050565b600080600080608085870312156200033057600080fd5b6200033b85620002fc565b93506200034b60208601620002fc565b92506200035b60408601620002fc565b91506200036b60608601620002fc565b905092959194509250565b6000828210156200039757634e487b7160e01b600052601160045260246000fd5b500390565b600181811c90821680620003b157607f821691505b60208210811415620003d357634e487b7160e01b600052602260045260246000fd5b50919050565b60805160601c60a05160601c61265d62000452600039600081816105dd01528181610a1901528181610af101528181610d6a01528181611c4e01528181611c820152611cc501526000818161038a01528181611db901528181611e8101528181611ebd01528181611f370152611f5e015261265d6000f3fe60806040526004361061028c5760003560e01c80637d515a101161015a578063b27b168b116100c1578063e471baa61161007a578063e471baa614610828578063e7fa808014610855578063ea2f0b3714610882578063ec28438a146108a2578063f2fde38b146108c2578063f917e302146108e257600080fd5b8063b27b168b1461074c578063c49b9a801461076c578063d06fcba81461078c578063d543dbeb146107ac578063dd62ed3e146107cc578063e06bd4a51461081257600080fd5b806395d89b411161011357806395d89b41146106ab57806399a7e957146106c0578063a2475f02146106d6578063a457c2d7146106f6578063a839782414610716578063a9059cbb1461072c57600080fd5b80637d515a10146105cb5780637ff9b596146105ff57806384413b651461061457806388f82020146106345780638da5cb5b1461066d5780638ee88c531461068b57600080fd5b8063313ce567116101fe57806349bd5a5e116101b757806349bd5a5e146105085780634a74bb02146105285780635342acb41461054757806370a0823114610580578063715018a6146105a05780637d1db4a5146105b557600080fd5b8063313ce5671461044457806339509351146104665780633b971f9f1461048657806341f78fe91461049c578063437823ec146104d35780634714dbd6146104f357600080fd5b80631694505e116102505780631694505e1461037857806317f3c56a146103c457806318160ddd146103d95780632099fdd6146103ee57806323b872dd14610404578063265b51501461042457600080fd5b806306fdde0314610298578063095ea7b3146102c357806310e71a02146102f357806313114a9d14610315578063150b7a021461033457600080fd5b3661029357005b600080fd5b3480156102a457600080fd5b506102ad610902565b6040516102ba9190612356565b60405180910390f35b3480156102cf57600080fd5b506102e36102de3660046122a8565b610994565b60405190151581526020016102ba565b3480156102ff57600080fd5b5061031361030e366004612114565b6109aa565b005b34801561032157600080fd5b50600b545b6040519081526020016102ba565b34801561034057600080fd5b5061035f61034f3660046121c8565b630a85bd0160e11b949350505050565b6040516001600160e01b031990911681526020016102ba565b34801561038457600080fd5b506103ac7f000000000000000000000000000000000000000000000000000000000000000081565b6040516001600160a01b0390911681526020016102ba565b3480156103d057600080fd5b50610326610a12565b3480156103e557600080fd5b50600a54610326565b3480156103fa57600080fd5b5061032660205481565b34801561041057600080fd5b506102e361041f366004612187565b610a42565b34801561043057600080fd5b506015546103ac906001600160a01b031681565b34801561045057600080fd5b50600f5460405160ff90911681526020016102ba565b34801561047257600080fd5b506102e36104813660046122a8565b610aab565b34801561049257600080fd5b50610326601a5481565b3480156104a857600080fd5b506104b1610ae1565b60408051941515855260208501939093529183015260608201526080016102ba565b3480156104df57600080fd5b506103136104ee366004612114565b610bc5565b3480156104ff57600080fd5b506102e3610c13565b34801561051457600080fd5b506014546103ac906001600160a01b031681565b34801561053457600080fd5b50601d546102e390610100900460ff1681565b34801561055357600080fd5b506102e3610562366004612114565b6001600160a01b031660009081526003602052604090205460ff1690565b34801561058c57600080fd5b5061032661059b366004612114565b610e19565b3480156105ac57600080fd5b50610313610e34565b3480156105c157600080fd5b50610326601e5481565b3480156105d757600080fd5b506103ac7f000000000000000000000000000000000000000000000000000000000000000081565b34801561060b57600080fd5b50601a54610326565b34801561062057600080fd5b506016546103ac906001600160a01b031681565b34801561064057600080fd5b506102e361064f366004612114565b6001600160a01b031660009081526004602052604090205460ff1690565b34801561067957600080fd5b506000546001600160a01b03166103ac565b34801561069757600080fd5b506103136106a63660046122f6565b610e6a565b3480156106b757600080fd5b506102ad610e99565b3480156106cc57600080fd5b5061032660225481565b3480156106e257600080fd5b506103136106f13660046122f6565b610ea8565b34801561070257600080fd5b506102e36107113660046122a8565b610ed7565b34801561072257600080fd5b5061032660185481565b34801561073857600080fd5b506102e36107473660046122a8565b610f26565b34801561075857600080fd5b506103136107673660046122f6565b610f33565b34801561077857600080fd5b506103136107873660046122d4565b610f62565b34801561079857600080fd5b506019546103ac906001600160a01b031681565b3480156107b857600080fd5b506103136107c73660046122f6565b610fe0565b3480156107d857600080fd5b506103266107e736600461214e565b6001600160a01b03918216600090815260026020908152604080832093909416825291909152205490565b34801561081e57600080fd5b5061032660215481565b34801561083457600080fd5b50610326610843366004612114565b60076020526000908152604090205481565b34801561086157600080fd5b50610326610870366004612114565b60086020526000908152604090205481565b34801561088e57600080fd5b5061031361089d366004612114565b61102b565b3480156108ae57600080fd5b506103136108bd3660046122f6565b611076565b3480156108ce57600080fd5b506103136108dd366004612114565b6110a5565b3480156108ee57600080fd5b506103136108fd3660046122f6565b611140565b6060600d8054610911906124fe565b80601f016020809104026020016040519081016040528092919081815260200182805461093d906124fe565b801561098a5780601f1061095f5761010080835404028352916020019161098a565b820191906000526020600020905b81548152906001019060200180831161096d57829003601f168201915b5050505050905090565b60006109a133848461116f565b50600192915050565b6000546001600160a01b031633146109dd5760405162461bcd60e51b81526004016109d4906123ab565b60405180910390fd5b6001600160a01b0381166109f057600080fd5b601980546001600160a01b0319166001600160a01b0392909216919091179055565b6000610a3d7f0000000000000000000000000000000000000000000000000000000000000000610e19565b905090565b6000610a4f848484611294565b610aa18433610a9c856040518060600160405280602881526020016125bb602891396001600160a01b038a166000908152600260209081526040808320338452909152902054919061190f565b61116f565b5060019392505050565b3360008181526002602090815260408083206001600160a01b038716845290915281205490916109a1918590610a9c908661193b565b6000806000806000610b48610b157f0000000000000000000000000000000000000000000000000000000000000000610e19565b610b42610b2130610e19565b610b42610b3961059b6000546001600160a01b031690565b600a549061194e565b9061194e565b905047600066038d7ea4c6800082118015610b8e5750602054610b8b60066000335b6001600160a01b03168152602081019190915260400160002054429061194e565b10155b8015610ba85750602054610ba56005600033610b6a565b10155b90506000610bb533610e19565b9198919750929550909350915050565b6000546001600160a01b03163314610bef5760405162461bcd60e51b81526004016109d4906123ab565b6001600160a01b03166000908152600360205260409020805460ff19166001179055565b60004766038d7ea4c680008111610c7a5760405162461bcd60e51b815260206004820152602560248201527f546f74616c2072657761726420706f6f6c206c6974746c65207468616e20302e60448201526418a2aa241760d91b60648201526084016109d4565b602054610c8a6006600033610b6a565b1015610ce65760405162461bcd60e51b815260206004820152602560248201527f4c61737420636c61696d2074696d65206c6974746c65207468616e203234204860448201526437bab9399760d91b60648201526084016109d4565b602054610cf66005600033610b6a565b1015610d505760405162461bcd60e51b8152602060048201526024808201527f4c617374207472616e6665722074696d65206c657373207468616e20323420486044820152636f75727360e01b60648201526084016109d4565b336000908152600660205260408120429055610d8e610b157f0000000000000000000000000000000000000000000000000000000000000000610e19565b3360009081526001602052604081205491925090610dba908390610db49061271061195a565b90611966565b90506101f4811115610dcb57506101f45b6000610ddd612710610db4868561195a565b604051909150339082156108fc029083906000818181858888f19350505050158015610e0d573d6000803e3d6000fd5b50600194505050505090565b6001600160a01b031660009081526001602052604090205490565b6000546001600160a01b03163314610e5e5760405162461bcd60e51b81526004016109d4906123ab565b610e686000611972565b565b6000546001600160a01b03163314610e945760405162461bcd60e51b81526004016109d4906123ab565b601255565b6060600e8054610911906124fe565b6000546001600160a01b03163314610ed25760405162461bcd60e51b81526004016109d4906123ab565b602055565b60006109a13384610a9c85604051806060016040528060258152602001612603602591393360009081526002602090815260408083206001600160a01b038d168452909152902054919061190f565b60006109a1338484611294565b6000546001600160a01b03163314610f5d5760405162461bcd60e51b81526004016109d4906123ab565b601055565b6000546001600160a01b03163314610f8c5760405162461bcd60e51b81526004016109d4906123ab565b601d80548215156101000261ff00199091161790556040517f53726dfcaf90650aa7eb35524f4d3220f07413c8d6cb404cc8c18bf5591bc15990610fd590831515815260200190565b60405180910390a150565b6000546001600160a01b0316331461100a5760405162461bcd60e51b81526004016109d4906123ab565b611025612710610db483600a5461195a90919063ffffffff16565b601e5550565b6000546001600160a01b031633146110555760405162461bcd60e51b81526004016109d4906123ab565b6001600160a01b03166000908152600360205260409020805460ff19169055565b6000546001600160a01b031633146110a05760405162461bcd60e51b81526004016109d4906123ab565b601e55565b6000546001600160a01b031633146110cf5760405162461bcd60e51b81526004016109d4906123ab565b6001600160a01b0381166111345760405162461bcd60e51b815260206004820152602660248201527f4f776e61626c653a206e6577206f776e657220697320746865207a65726f206160448201526564647265737360d01b60648201526084016109d4565b61113d81611972565b50565b6000546001600160a01b0316331461116a5760405162461bcd60e51b81526004016109d4906123ab565b601155565b6001600160a01b0383166111d15760405162461bcd60e51b8152602060048201526024808201527f45524332303a20617070726f76652066726f6d20746865207a65726f206164646044820152637265737360e01b60648201526084016109d4565b6001600160a01b0382166112325760405162461bcd60e51b815260206004820152602260248201527f45524332303a20617070726f766520746f20746865207a65726f206164647265604482015261737360f01b60648201526084016109d4565b6001600160a01b0383811660008181526002602090815260408083209487168084529482529182902085905590518481527f8c5be1e5ebec7d5bd14f71427d1e84f3dd0314c0f7b2291e5b200ac8c7c3b92591015b60405180910390a3505050565b6001600160a01b0383166112f85760405162461bcd60e51b815260206004820152602560248201527f45524332303a207472616e736665722066726f6d20746865207a65726f206164604482015264647265737360d81b60648201526084016109d4565b6001600160a01b03821661135a5760405162461bcd60e51b815260206004820152602360248201527f45524332303a207472616e7366657220746f20746865207a65726f206164647260448201526265737360e81b60648201526084016109d4565b600081116113bc5760405162461bcd60e51b815260206004820152602960248201527f5472616e7366657220616d6f756e74206d7573742062652067726561746572206044820152687468616e207a65726f60b81b60648201526084016109d4565b60145460009081906001600160a01b03868116911614156113e2575060019050826113ff565b6014546001600160a01b03858116911614156113ff575060019050835b81801561142557506001600160a01b03851660009081526003602052604090205460ff16155b801561144a57506001600160a01b03841660009081526003602052604090205460ff16155b801561146457506000546001600160a01b03868116911614155b801561147e57506000546001600160a01b03858116911614155b15611667576001600160a01b038116600090815260076020526040902054600111156114c0576001600160a01b03811660009081526007602052604090204290555b6001600160a01b0381166000908152600860205260409020546014116115b557602080546001600160a01b0383166000908152600790925260409091205461150990429061194e565b1061153b576001600160a01b0381166000908152600860209081526040808320839055600790915290204290556115b5565b6001600160a01b0381166000908152600860205260409020546014116115b55760405162461bcd60e51b815260206004820152602960248201527f5472616e736665722065786365656473206c696d69742032302074696d6573206044820152683832b9103230bc901760b91b60648201526084016109d4565b601e548311156116185760405162461bcd60e51b815260206004820152602860248201527f5472616e7366657220616d6f756e74206578636565647320746865206d6178546044820152673c20b6b7bab73a1760c11b60648201526084016109d4565b6001600160a01b038086166000908152600560209081526040808320429055928416825260089052205461164d90600161193b565b6001600160a01b0382166000908152600860205260409020555b600061167230610e19565b9050602154811061168257506021545b601d5460ff1615801561169c5750601d54610100900460ff165b156116aa576116aa816119c2565b60006116b4611a60565b60ff1690506000806001600160a01b0388163b6118a5576019546040516370a0823160e01b81526001600160a01b038a8116600483015260059216906370a082319060240160206040518083038186803b15801561171157600080fd5b505afa158015611725573d6000803e3d6000fd5b505050506040513d601f19601f82011682018060405250810190611749919061230f565b11611754578261176b565b600261176184600361249e565b61176b9190612469565b925060058361ffff16111580156117855750633b9aca0087115b156117965750600490506001611836565b60058361ffff16111580156117ae5750631dcd650087115b156117bf5750600390506001611836565b600a8361ffff16111580156117d75750631dcd650087115b156117e85750600290506001611836565b60148361ffff161115801561180057506305f5e10087115b1561181057506001905080611836565b601e8361ffff161115801561182957506305f5e1008710155b1561183657506000905060015b80156118a5576019546040516357f3fa8d60e11b815260ff841660048201526001600160a01b038a811660248301529091169063afe7f51a90604401600060405180830381600087803b15801561188c57600080fd5b505af11580156118a0573d6000803e3d6000fd5b505050505b6001600160a01b03891660009081526003602052604090205460ff16806118e457506001600160a01b03881660009081526003602052604090205460ff165b156118f9576118f4898989611aa3565b611904565b611904898989611b37565b505050505050505050565b600081848411156119335760405162461bcd60e51b81526004016109d49190612356565b505050900390565b60006119478284612451565b9392505050565b600061194782846124e7565b600061194782846124c8565b6000611947828461248a565b600080546001600160a01b038381166001600160a01b0319831681178455604051919092169283917f8be0079c531659141344cd1fd0a4f28419497f9722a3daafe3b4186f6b6457e09190a35050565b601d805460ff1916600117905560006119dc826002611966565b905060006119ea838361194e565b9050476119f682611d62565b6000611a02478361194e565b9050611a0e8482611f31565b60408051858152602081018390529081018490527f17bbfb9a6069321b6ded73bd96327c9e6b7212a5cd51ff219cd61370acafb5619060600160405180910390a15050601d805460ff19169055505050565b600060644244604051602001611a80929190918252602082015260400190565b6040516020818303038152906040528051906020012060001c610a3d9190612539565b6001600160a01b038316600090815260016020526040902054611ac6908261194e565b6001600160a01b038085166000908152600160205260408082209390935590841681522054611af5908261193b565b6001600160a01b0380841660008181526001602052604090819020939093559151908516906000805160206125e3833981519152906112879085815260200190565b600080600080611b4685612046565b6001600160a01b038b1660009081526001602052604090205493975091955093509150611b73908661194e565b6001600160a01b038089166000908152600160205260408082209390935590881681522054611ba2908561193b565b6001600160a01b038088166000908152600160205260408082209390935560165490911681522054611bd4908361193b565b6016546001600160a01b0316600090815260016020526040808220929092553081522054611c02908261193b565b3060009081526001602090815260409182902092909255518581526001600160a01b0388811692908a16916000805160206125e3833981519152910160405180910390a3600c54611c727f0000000000000000000000000000000000000000000000000000000000000000610e19565b1015611d26576001600160a01b037f000000000000000000000000000000000000000000000000000000000000000016600090815260016020526040902054611cbb908461193b565b6001600160a01b037f0000000000000000000000000000000000000000000000000000000000000000811660008181526001602052604090819020939093559151908916906000805160206125e383398151915290611d1d9087815260200190565b60405180910390a35b6016546040518381526001600160a01b03918216918916906000805160206125e38339815191529060200160405180910390a350505050505050565b6040805160028082526060820183526000926020830190803683370190505090503081600081518110611d9757611d97612579565b60200260200101906001600160a01b031690816001600160a01b0316815250507f00000000000000000000000000000000000000000000000000000000000000006001600160a01b031663ad5c46486040518163ffffffff1660e01b815260040160206040518083038186803b158015611e1057600080fd5b505afa158015611e24573d6000803e3d6000fd5b505050506040513d601f19601f82011682018060405250810190611e489190612131565b81600181518110611e5b57611e5b612579565b60200260200101906001600160a01b031690816001600160a01b031681525050611ea6307f00000000000000000000000000000000000000000000000000000000000000008461116f565b60405163791ac94760e01b81526001600160a01b037f0000000000000000000000000000000000000000000000000000000000000000169063791ac94790611efb9085906000908690309042906004016123e0565b600060405180830381600087803b158015611f1557600080fd5b505af1158015611f29573d6000803e3d6000fd5b505050505050565b611f5c307f00000000000000000000000000000000000000000000000000000000000000008461116f565b7f00000000000000000000000000000000000000000000000000000000000000006001600160a01b031663f305d719823085600080611fa36000546001600160a01b031690565b60405160e088901b6001600160e01b03191681526001600160a01b03958616600482015260248101949094526044840192909252606483015290911660848201524260a482015260c4016060604051808303818588803b15801561200657600080fd5b505af115801561201a573d6000803e3d6000fd5b50505050506040513d601f19601f8201168201806040525081019061203f9190612328565b5050505050565b60008060008060006120578661209e565b90506000612064876120c0565b90506000612071886120dc565b9050600061207e896120f8565b9050600061208c8a8361194e565b9a949950919750919550919350505050565b60006120ba6064610db46010548561195a90919063ffffffff16565b92915050565b60006120ba6064610db46012548561195a90919063ffffffff16565b60006120ba6064610db46011548561195a90919063ffffffff16565b60006120ba6064610db46013548561195a90919063ffffffff16565b60006020828403121561212657600080fd5b8135611947816125a5565b60006020828403121561214357600080fd5b8151611947816125a5565b6000806040838503121561216157600080fd5b823561216c816125a5565b9150602083013561217c816125a5565b809150509250929050565b60008060006060848603121561219c57600080fd5b83356121a7816125a5565b925060208401356121b7816125a5565b929592945050506040919091013590565b600080600080608085870312156121de57600080fd5b84356121e9816125a5565b935060208501356121f9816125a5565b925060408501359150606085013567ffffffffffffffff8082111561221d57600080fd5b818701915087601f83011261223157600080fd5b8135818111156122435761224361258f565b604051601f8201601f19908116603f0116810190838211818310171561226b5761226b61258f565b816040528281528a602084870101111561228457600080fd5b82602086016020830137600060208483010152809550505050505092959194509250565b600080604083850312156122bb57600080fd5b82356122c6816125a5565b946020939093013593505050565b6000602082840312156122e657600080fd5b8135801515811461194757600080fd5b60006020828403121561230857600080fd5b5035919050565b60006020828403121561232157600080fd5b5051919050565b60008060006060848603121561233d57600080fd5b8351925060208401519150604084015190509250925092565b600060208083528351808285015260005b8181101561238357858101830151858201604001528201612367565b81811115612395576000604083870101525b50601f01601f1916929092016040019392505050565b6020808252818101527f4f776e61626c653a2063616c6c6572206973206e6f7420746865206f776e6572604082015260600190565b600060a082018783526020878185015260a0604085015281875180845260c086019150828901935060005b818110156124305784516001600160a01b03168352938301939183019160010161240b565b50506001600160a01b03969096166060850152505050608001529392505050565b600082198211156124645761246461254d565b500190565b600061ffff8084168061247e5761247e612563565b92169190910492915050565b60008261249957612499612563565b500490565b600061ffff808316818516818304811182151516156124bf576124bf61254d565b02949350505050565b60008160001904831182151516156124e2576124e261254d565b500290565b6000828210156124f9576124f961254d565b500390565b600181811c9082168061251257607f821691505b6020821081141561253357634e487b7160e01b600052602260045260246000fd5b50919050565b60008261254857612548612563565b500690565b634e487b7160e01b600052601160045260246000fd5b634e487b7160e01b600052601260045260246000fd5b634e487b7160e01b600052603260045260246000fd5b634e487b7160e01b600052604160045260246000fd5b6001600160a01b038116811461113d57600080fdfe45524332303a207472616e7366657220616d6f756e74206578636565647320616c6c6f77616e6365ddf252ad1be2c89b69c2b068fc378daa952ba7f163c4a11628f55a4df523b3ef45524332303a2064656372656173656420616c6c6f77616e63652062656c6f77207a65726fa26469706673582212202717c4c738b5486065674c3c542e7b9dd8ac9c44510e586cff1c6a8e9fb1020364736f6c63430008060033",
  "immutableReferences": {
    "6074": [
      {
        "length": 32,
        "start": 906
      },
      {
        "length": 32,
        "start": 7609
      },
      {
        "length": 32,
        "start": 7809
      },
      {
        "length": 32,
        "start": 7869
      },
      {
        "length": 32,
        "start": 7991
      },
      {
        "length": 32,
        "start": 8030
      }
    ],
    "6078": [
      {
        "length": 32,
        "start": 1501
      },
      {
        "length": 32,
        "start": 2585
      },
      {
        "length": 32,
        "start": 2801
      },
      {
        "length": 32,
        "start": 3434
      },
      {
        "length": 32,
        "start": 7246
      },
      {
        "length": 32,
        "start": 7298
      },
      {
        "length": 32,
        "start": 7365
      }
    ]
  },
  "source": "\n// SPDX-License-Identifier: MIT\n\n/**\n   # DogeFood tokens\n */\nimport \"./utils/math/SafeMath.sol\";\nimport \"./utils/Address.sol\";\nimport \"./token/ERC721/IERC721.sol\";\nimport \"./token/ERC20/IERC20.sol\";\nimport \"./access/Ownable.sol\";\nimport \"./token/ERC721/utils/ERC721Holder.sol\";\n\npragma solidity ^0.8.0;\n\n// pragma solidity >=0.5.0;\n\ninterface IUniswapV2Factory {\n    event PairCreated(address indexed token0, address indexed token1, address pair, uint);\n\n    function feeTo() external view returns (address);\n    function feeToSetter() external view returns (address);\n\n    function getPair(address tokenA, address tokenB) external view returns (address pair);\n    function allPairs(uint) external view returns (address pair);\n    function allPairsLength() external view returns (uint);\n\n    function createPair(address tokenA, address tokenB) external returns (address pair);\n\n    function setFeeTo(address) external;\n    function setFeeToSetter(address) external;\n}\n\n\n// pragma solidity >=0.5.0;\n\ninterface IUniswapV2Pair {\n    event Approval(address indexed owner, address indexed spender, uint value);\n    event Transfer(address indexed from, address indexed to, uint value);\n\n    function name() external pure returns (string memory);\n    function symbol() external pure returns (string memory);\n    function decimals() external pure returns (uint8);\n    function totalSupply() external view returns (uint);\n    function balanceOf(address owner) external view returns (uint);\n    function allowance(address owner, address spender) external view returns (uint);\n\n    function approve(address spender, uint value) external returns (bool);\n    function transfer(address to, uint value) external returns (bool);\n    function transferFrom(address from, address to, uint value) external returns (bool);\n\n    function DOMAIN_SEPARATOR() external view returns (bytes32);\n    function PERMIT_TYPEHASH() external pure returns (bytes32);\n    function nonces(address owner) external view returns (uint);\n\n    function permit(address owner, address spender, uint value, uint deadline, uint8 v, bytes32 r, bytes32 s) external;\n\n    event Mint(address indexed sender, uint amount0, uint amount1);\n    event Burn(address indexed sender, uint amount0, uint amount1, address indexed to);\n    event Swap(\n        address indexed sender,\n        uint amount0In,\n        uint amount1In,\n        uint amount0Out,\n        uint amount1Out,\n        address indexed to\n    );\n    event Sync(uint112 reserve0, uint112 reserve1);\n\n    function MINIMUM_LIQUIDITY() external pure returns (uint);\n    function factory() external view returns (address);\n    function token0() external view returns (address);\n    function token1() external view returns (address);\n    function getReserves() external view returns (uint112 reserve0, uint112 reserve1, uint32 blockTimestampLast);\n    function price0CumulativeLast() external view returns (uint);\n    function price1CumulativeLast() external view returns (uint);\n    function kLast() external view returns (uint);\n\n    function mint(address to) external returns (uint liquidity);\n    function burn(address to) external returns (uint amount0, uint amount1);\n    function swap(uint amount0Out, uint amount1Out, address to, bytes calldata data) external;\n    function skim(address to) external;\n    function sync() external;\n\n    function initialize(address, address) external;\n}\n\n// pragma solidity >=0.6.2;\n\ninterface IUniswapV2Router01 {\n    function factory() external pure returns (address);\n    function WETH() external pure returns (address);\n\n    function addLiquidity(\n        address tokenA,\n        address tokenB,\n        uint amountADesired,\n        uint amountBDesired,\n        uint amountAMin,\n        uint amountBMin,\n        address to,\n        uint deadline\n    ) external returns (uint amountA, uint amountB, uint liquidity);\n    function addLiquidityETH(\n        address token,\n        uint amountTokenDesired,\n        uint amountTokenMin,\n        uint amountETHMin,\n        address to,\n        uint deadline\n    ) external payable returns (uint amountToken, uint amountETH, uint liquidity);\n    function removeLiquidity(\n        address tokenA,\n        address tokenB,\n        uint liquidity,\n        uint amountAMin,\n        uint amountBMin,\n        address to,\n        uint deadline\n    ) external returns (uint amountA, uint amountB);\n    function removeLiquidityETH(\n        address token,\n        uint liquidity,\n        uint amountTokenMin,\n        uint amountETHMin,\n        address to,\n        uint deadline\n    ) external returns (uint amountToken, uint amountETH);\n    function removeLiquidityWithPermit(\n        address tokenA,\n        address tokenB,\n        uint liquidity,\n        uint amountAMin,\n        uint amountBMin,\n        address to,\n        uint deadline,\n        bool approveMax, uint8 v, bytes32 r, bytes32 s\n    ) external returns (uint amountA, uint amountB);\n    function removeLiquidityETHWithPermit(\n        address token,\n        uint liquidity,\n        uint amountTokenMin,\n        uint amountETHMin,\n        address to,\n        uint deadline,\n        bool approveMax, uint8 v, bytes32 r, bytes32 s\n    ) external returns (uint amountToken, uint amountETH);\n    function swapExactTokensForTokens(\n        uint amountIn,\n        uint amountOutMin,\n        address[] calldata path,\n        address to,\n        uint deadline\n    ) external returns (uint[] memory amounts);\n    function swapTokensForExactTokens(\n        uint amountOut,\n        uint amountInMax,\n        address[] calldata path,\n        address to,\n        uint deadline\n    ) external returns (uint[] memory amounts);\n    function swapExactETHForTokens(uint amountOutMin, address[] calldata path, address to, uint deadline)\n        external\n        payable\n        returns (uint[] memory amounts);\n    function swapTokensForExactETH(uint amountOut, uint amountInMax, address[] calldata path, address to, uint deadline)\n        external\n        returns (uint[] memory amounts);\n    function swapExactTokensForETH(uint amountIn, uint amountOutMin, address[] calldata path, address to, uint deadline)\n        external\n        returns (uint[] memory amounts);\n    function swapETHForExactTokens(uint amountOut, address[] calldata path, address to, uint deadline)\n        external\n        payable\n        returns (uint[] memory amounts);\n\n    function quote(uint amountA, uint reserveA, uint reserveB) external pure returns (uint amountB);\n    function getAmountOut(uint amountIn, uint reserveIn, uint reserveOut) external pure returns (uint amountOut);\n    function getAmountIn(uint amountOut, uint reserveIn, uint reserveOut) external pure returns (uint amountIn);\n    function getAmountsOut(uint amountIn, address[] calldata path) external view returns (uint[] memory amounts);\n    function getAmountsIn(uint amountOut, address[] calldata path) external view returns (uint[] memory amounts);\n}\n\n\n\n// pragma solidity >=0.6.2;\n\ninterface IUniswapV2Router02 is IUniswapV2Router01 {\n    function removeLiquidityETHSupportingFeeOnTransferTokens(\n        address token,\n        uint liquidity,\n        uint amountTokenMin,\n        uint amountETHMin,\n        address to,\n        uint deadline\n    ) external returns (uint amountETH);\n    function removeLiquidityETHWithPermitSupportingFeeOnTransferTokens(\n        address token,\n        uint liquidity,\n        uint amountTokenMin,\n        uint amountETHMin,\n        address to,\n        uint deadline,\n        bool approveMax, uint8 v, bytes32 r, bytes32 s\n    ) external returns (uint amountETH);\n\n    function swapExactTokensForTokensSupportingFeeOnTransferTokens(\n        uint amountIn,\n        uint amountOutMin,\n        address[] calldata path,\n        address to,\n        uint deadline\n    ) external;\n    function swapExactETHForTokensSupportingFeeOnTransferTokens(\n        uint amountOutMin,\n        address[] calldata path,\n        address to,\n        uint deadline\n    ) external payable;\n    function swapExactTokensForETHSupportingFeeOnTransferTokens(\n        uint amountIn,\n        uint amountOutMin,\n        address[] calldata path,\n        address to,\n        uint deadline\n    ) external;\n}\n\n/**\n * @dev Required interface of an ERC721 compliant contract.\n */\ninterface IERC721Card {\n    /**\n     * @dev Emitted when `tokenId` token is transferred from `from` to `to`.\n     */\n    event Transfer(address indexed from, address indexed to, uint256 indexed tokenId);\n\n    /**\n     * @dev Emitted when `owner` enables `approved` to manage the `tokenId` token.\n     */\n    event Approval(address indexed owner, address indexed approved, uint256 indexed tokenId);\n\n    /**\n     * @dev Emitted when `owner` enables or disables (`approved`) `operator` to manage all of its assets.\n     */\n    event ApprovalForAll(address indexed owner, address indexed operator, bool approved);\n\n    /**\n     * @dev Returns the number of tokens in ``owner``'s account.\n     */\n    function balanceOf(address owner) external view returns (uint256 balance);\n\n    /**\n     * @dev Returns the owner of the `tokenId` token.\n     *\n     * Requirements:\n     *\n     * - `tokenId` must exist.\n     */\n    function ownerOf(uint256 tokenId) external view returns (address owner);\n\n    /**\n     * @dev Safely transfers `tokenId` token from `from` to `to`, checking first that contract recipients\n     * are aware of the ERC721 protocol to prevent tokens from being forever locked.\n     *\n     * Requirements:\n     *\n     * - `from` cannot be the zero address.\n     * - `to` cannot be the zero address.\n     * - `tokenId` token must exist and be owned by `from`.\n     * - If the caller is not `from`, it must be have been allowed to move this token by either {approve} or {setApprovalForAll}.\n     * - If `to` refers to a smart contract, it must implement {IERC721Receiver-onERC721Received}, which is called upon a safe transfer.\n     *\n     * Emits a {Transfer} event.\n     */\n    function safeTransferFrom(\n        address from,\n        address to,\n        uint256 tokenId\n    ) external;\n\n    /**\n     * @dev Transfers `tokenId` token from `from` to `to`.\n     *\n     * WARNING: Usage of this method is discouraged, use {safeTransferFrom} whenever possible.\n     *\n     * Requirements:\n     *\n     * - `from` cannot be the zero address.\n     * - `to` cannot be the zero address.\n     * - `tokenId` token must be owned by `from`.\n     * - If the caller is not `from`, it must be approved to move this token by either {approve} or {setApprovalForAll}.\n     *\n     * Emits a {Transfer} event.\n     */\n    function transferFrom(\n        address from,\n        address to,\n        uint256 tokenId\n    ) external;\n\n    /**\n     * @dev Gives permission to `to` to transfer `tokenId` token to another account.\n     * The approval is cleared when the token is transferred.\n     *\n     * Only a single account can be approved at a time, so approving the zero address clears previous approvals.\n     *\n     * Requirements:\n     *\n     * - The caller must own the token or be an approved operator.\n     * - `tokenId` must exist.\n     *\n     * Emits an {Approval} event.\n     */\n    function approve(address to, uint256 tokenId) external;\n\n    /**\n     * @dev Returns the number of tokens in ``owner``'s account.\n     */\n    function levelView(uint8 level) external view returns (\n        uint16 total, \n        uint16 current,\n        uint16 power\n    );\n\n    /**\n     * @dev Returns the number of tokens in ``owner``'s account.\n     */\n    function levelOf(uint256 id) external view returns (uint8 level);\n\n    function mintWithLevel(uint8 _level, address to) external;\n\n    /**\n     * @dev Returns the account approved for `tokenId` token.\n     *\n     * Requirements:\n     *\n     * - `tokenId` must exist.\n     */\n    function getApproved(uint256 tokenId) external view returns (address operator);\n\n    /**\n     * @dev Approve or remove `operator` as an operator for the caller.\n     * Operators can call {transferFrom} or {safeTransferFrom} for any token owned by the caller.\n     *\n     * Requirements:\n     *\n     * - The `operator` cannot be the caller.\n     *\n     * Emits an {ApprovalForAll} event.\n     */\n    function setApprovalForAll(address operator, bool _approved) external;\n\n    /**\n     * @dev Returns if the `operator` is allowed to manage all of the assets of `owner`.\n     *\n     * See {setApprovalForAll}\n     */\n    function isApprovedForAll(address owner, address operator) external view returns (bool);\n\n    /**\n     * @dev Safely transfers `tokenId` token from `from` to `to`.\n     *\n     * Requirements:\n     *\n     * - `from` cannot be the zero address.\n     * - `to` cannot be the zero address.\n     * - `tokenId` token must exist and be owned by `from`.\n     * - If the caller is not `from`, it must be approved to move this token by either {approve} or {setApprovalForAll}.\n     * - If `to` refers to a smart contract, it must implement {IERC721Receiver-onERC721Received}, which is called upon a safe transfer.\n     *\n     * Emits a {Transfer} event.\n     */\n    function safeTransferFrom(\n        address from,\n        address to,\n        uint256 tokenId,\n        bytes calldata data\n    ) external;\n    \n}\n\ncontract DogeFoodToken is Context, IERC20, Ownable, ERC721Holder {\n    using SafeMath for uint256;\n    using Address for address;\n\n    mapping (address => uint256) private _tOwned;\n    mapping (address => mapping (address => uint256)) private _allowances;\n\n    mapping (address => bool) private _isExcludedFromFee;\n\n    mapping (address => bool) private _isExcluded;\n    mapping (address => uint256) private _lastTransferTime;\n    mapping (address => uint256) private _lastClaimBonusTime;\n    mapping (address => uint256) public _lastTransferLimitTime;\n    mapping (address => uint256) public _lastTransferLimitCount;\n\n    address[] private _excluded;\n   \n    uint256 private constant MAX = ~uint256(0);\n    uint256 private _tTotal = 2 * 10**8 * 10**6;\n    uint256 private _tFeeTotal;\n    uint256 private BLACKHOLE_LIMIT = _tTotal - 5 * 10 ** 8 * 10 ** 6;\n\n    string private _name = \"DogeFood Token\";\n    string private _symbol = \"DGFood\";\n    uint8 private _decimals = 6;\n    \n    uint256 private _blackholeFee = 5;\n    // uint256 private _luckyBonusFee = 2;\n    // uint256 private _holderBonusFee = 5; // 4: holder bonus, 1: redeem fund\n    uint256 private _airdropFee = 4;\n    uint256 private _liquidityFee = 4;\n    uint256 private _allTaxFee = 13; // all up fee.\n\n    IUniswapV2Router02 public immutable uniswapV2Router;\n    // address public immutable uniswapV2Pair;\n    address public uniswapV2Pair;\n    address public immutable blackholeAddress;\n    address public redeemAddress;\n    // address public luckyBonusAddress;\n    address public airdropAddress;\n    uint256 private airdropAmount;\n    uint256 public _accHolderBonus; // scc\n    // nft address\n    IERC721Card  public nftToken;\n    \n    uint256 public _tokenPrice;\n    uint256 lastPrice0Cumulative;\n    uint256 lastPrice0Timestamp;\n    \n    bool inSwapAndLiquify;\n    bool public swapAndLiquifyEnabled = true;\n    \n    uint256 public _maxTxAmount = 10 * 10**4 * 10**6;\n    uint256 private numTokensSellToAddToLiquidity = 10 * 10**8 * 10**6;\n    uint256 public _onedaySeconds = 24 * 3600;\n    uint256 public _maxSwapAmount = 10 * 10**4 * 10**6;\n    uint256 public LUCKY_THREDHOLD = 10**16;\n    \n    event MinTokensBeforeSwapUpdated(uint256 minTokensBeforeSwap);\n    event SwapAndLiquifyEnabledUpdated(bool enabled);\n    event SwapAndLiquify(\n        uint256 tokensSwapped,\n        uint256 ethReceived,\n        uint256 tokensIntoLiqudity\n    );\n    \n    modifier lockTheSwap {\n        inSwapAndLiquify = true;\n        _;\n        inSwapAndLiquify = false;\n    }\n    \n    constructor (address pancakeRouter, address nftAddress_, address blackholeAddress_, address airdropAddress_) {\n        _tOwned[_msgSender()] = _tTotal;\n        \n        IUniswapV2Router02 _uniswapV2Router = IUniswapV2Router02(pancakeRouter);\n         // Create a uniswap pair for this new token\n        // uniswapV2Pair = IUniswapV2Factory(_uniswapV2Router.factory())\n        //   .createPair(address(this), _uniswapV2Router.WETH());\n        // set the rest of the contract variables\n        uniswapV2Router = _uniswapV2Router;\n        blackholeAddress = blackholeAddress_;\n        airdropAddress = airdropAddress_;\n        // nftToken = IERC721Card(nftAddress_);\n        //exclude owner and this contract from fee\n        _isExcludedFromFee[owner()] = true;\n        _isExcludedFromFee[address(this)] = true;\n        _tokenPrice = 40; // 1_scc_wei = 40 eth_wei\n        \n        emit Transfer(address(0), _msgSender(), _tTotal);\n    }\n\n    function name() public view returns (string memory) {\n        return _name;\n    }\n\n    function symbol() public view returns (string memory) {\n        return _symbol;\n    }\n\n    function decimals() public view returns (uint8) {\n        return _decimals;\n    }\n\n    function totalSupply() public view override returns (uint256) {\n        return _tTotal;\n    }\n\n    function balanceOf(address account) public view override returns (uint256) {\n        return _tOwned[account];\n    }\n\n    function transfer(address recipient, uint256 amount) public override returns (bool) {\n        _transfer(_msgSender(), recipient, amount);\n        return true;\n    }\n\n    function allowance(address owner, address spender) public view override returns (uint256) {\n        return _allowances[owner][spender];\n    }\n\n    function approve(address spender, uint256 amount) public override returns (bool) {\n        _approve(_msgSender(), spender, amount);\n        return true;\n    }\n\n    function transferFrom(address sender, address recipient, uint256 amount) public override returns (bool) {\n        _transfer(sender, recipient, amount);\n        _approve(sender, _msgSender(), _allowances[sender][_msgSender()].sub(amount, \"ERC20: transfer amount exceeds allowance\"));\n        return true;\n    }\n\n    function increaseAllowance(address spender, uint256 addedValue) public virtual returns (bool) {\n        _approve(_msgSender(), spender, _allowances[_msgSender()][spender].add(addedValue));\n        return true;\n    }\n\n    function decreaseAllowance(address spender, uint256 subtractedValue) public virtual returns (bool) {\n        _approve(_msgSender(), spender, _allowances[_msgSender()][spender].sub(subtractedValue, \"ERC20: decreased allowance below zero\"));\n        return true;\n    }\n\n    function isExcludedFromReward(address account) public view returns (bool) {\n        return _isExcluded[account];\n    }\n\n    function totalFees() public view returns (uint256) {\n        return _tFeeTotal;\n    }\n    \n    function tokenPrice() public view returns (uint256) {\n        return _tokenPrice;\n    }\n    \n    function blackholeAmount() public view returns (uint256) {\n        return balanceOf(blackholeAddress);\n    }\n\n    function excludeFromFee(address account) public onlyOwner {\n        _isExcludedFromFee[account] = true;\n    }\n    \n    function includeInFee(address account) public onlyOwner {\n        _isExcludedFromFee[account] = false;\n    }\n    \n    function setBlackholeFeePercent(uint256 blackholeFee) external onlyOwner() {\n        _blackholeFee = blackholeFee;\n    }\n\n    // function setLuckyBonusFeePercent(uint256 luckyBonusFee) external onlyOwner() {\n    //     _luckyBonusFee = luckyBonusFee;\n    // }\n\n    // function setHolderBonusFeePercent(uint256 holderBonusFee) external onlyOwner() {\n    //     _holderBonusFee = holderBonusFee;\n    // }\n\n    function setAirdropFeePercent(uint256 airdropFee) external onlyOwner() {\n        _airdropFee = airdropFee;\n    }\n    \n    function setLiquidityFeePercent(uint256 liquidityFee) external onlyOwner() {\n        _liquidityFee = liquidityFee;\n    }\n   \n    function setMaxTxPercent(uint256 maxTxPercent) external onlyOwner() {\n        _maxTxAmount = _tTotal.mul(maxTxPercent).div(\n            10**4\n        );\n    }\n    \n    function setMaxTxAmount(uint256 maxTxAmount) external onlyOwner() {\n        _maxTxAmount = maxTxAmount;\n    }\n\n    function setOnedayTime(uint onedaySeconds) external onlyOwner() {\n        _onedaySeconds = onedaySeconds;\n    }\n    function setSwapAndLiquifyEnabled(bool _enabled) public onlyOwner {\n        swapAndLiquifyEnabled = _enabled;\n        emit SwapAndLiquifyEnabledUpdated(_enabled);\n    }\n    \n     //to recieve ETH from uniswapV2Router when swaping\n    receive() external payable {}\n\n    function _getFeeValues(uint256 tAmount) private view\n        returns (uint256, uint256, uint256, uint256) {\n        uint256 tBlackholeFee = calculateBlackholeFee(tAmount);\n        uint256 tLiquidityFee = calculateLiquidityFee(tAmount);\n        // uint256 tLuckyBonusFee = calculateLuckyBonusFee(tAmount);\n        // uint256 tHolderBonusFee = calculateHolderBonusFee(tAmount);\n        uint256 tAirdropFee = calculateAirdropFee(tAmount);\n        uint256 tAllTaxFee = calculateAllTaxFee(tAmount);\n\n        uint256 tTransferAmount = tAmount.sub(tAllTaxFee);\n        return (tTransferAmount, tBlackholeFee, tAirdropFee, tLiquidityFee);\n    }\n\n    function calculateAllTaxFee(uint256 _amount) private view returns (uint256) {\n        return _amount.mul(_allTaxFee).div(\n            10**2\n        );\n    }\n\n    function calculateBlackholeFee(uint256 _amount) private view returns (uint256) {\n        return _amount.mul(_blackholeFee).div(\n            10**2\n        );\n    }\n\n    function calculateLiquidityFee(uint256 _amount) private view returns (uint256) {\n        return _amount.mul(_liquidityFee).div(\n            10**2\n        );\n    }\n\n    // function calculateLuckyBonusFee(uint256 _amount) private view returns (uint256) {\n    //     return _amount.mul(_luckyBonusFee).div(\n    //         10**2\n    //     );\n    // }\n\n    // function calculateHolderBonusFee(uint256 _amount) private view returns (uint256) {\n    //     return _amount.mul(_holderBonusFee).div(\n    //         10**2\n    //     );\n    // }\n\n    function calculateAirdropFee(uint256 _amount) private view returns (uint256) {\n        return _amount.mul(_airdropFee).div(\n            10**2\n        );\n    }\n    \n    function isExcludedFromFee(address account) public view returns(bool) {\n        return _isExcludedFromFee[account];\n    }\n\n    function _approve(address owner, address spender, uint256 amount) private {\n        require(owner != address(0), \"ERC20: approve from the zero address\");\n        require(spender != address(0), \"ERC20: approve to the zero address\");\n\n        _allowances[owner][spender] = amount;\n        emit Approval(owner, spender, amount);\n    }\n\n    function _transfer(\n        address from,\n        address to,\n        uint256 amount\n    ) private {\n        require(from != address(0), \"ERC20: transfer from the zero address\");\n        require(to != address(0), \"ERC20: transfer to the zero address\");\n        require(amount > 0, \"Transfer amount must be greater than zero\");\n        bool fromSwap; \n        address limitAddress;\n        fromSwap = false;\n        if(from == uniswapV2Pair) {\n            limitAddress = to;\n            fromSwap = true;\n        } else if (to == uniswapV2Pair) {\n            limitAddress = from;\n            fromSwap = true;\n        }\n        if(fromSwap && !_isExcludedFromFee[from] && !_isExcludedFromFee[to]\n            && from != owner() && to != owner()) {\n            if ( _lastTransferLimitTime[limitAddress] < 1)\n                _lastTransferLimitTime[limitAddress] = block.timestamp;\n            if ( _lastTransferLimitCount[limitAddress]>=20 ) {\n                if (block.timestamp.sub(_lastTransferLimitTime[limitAddress]) >= _onedaySeconds) {\n                    _lastTransferLimitCount[limitAddress] = 0;\n                    _lastTransferLimitTime[limitAddress] = block.timestamp;\n                }\n                else\n                    require(_lastTransferLimitCount[limitAddress]<20, \"Transfer exceeds limit 20 times per day .\");\n            }\n            \n            require(amount <= _maxTxAmount, \"Transfer amount exceeds the maxTxAmount.\");\n            \n            _lastTransferTime[from] = block.timestamp;\n            _lastTransferLimitCount[limitAddress] = _lastTransferLimitCount[limitAddress].add(1);\n        }\n        \n        // // is the token balance of this contract address over the min number of\n        // // tokens that we need to initiate a swap + liquidity lock?\n        // // also, don't get caught in a circular liquidity event.\n        // // also, don't swap & liquify if sender is uniswap pair.\n        // uint256 contractTokenBalance = balanceOf(address(this));\n        \n        uint256 contractTokenBalance = balanceOf(address(this));\n        \n        if(contractTokenBalance >= _maxSwapAmount)\n        {\n            contractTokenBalance = _maxSwapAmount;\n        }\n        // uint256 currentSupply = _tTotal - balanceOf(blackholeAddress);\n        \n        // numTokensSellToAddToLiquidity = currentSupply.div(100000);\n        \n        // bool overMinTokenBalance = contractTokenBalance >= numTokensSellToAddToLiquidity;\n        if (\n            // overMinTokenBalance &&\n            !inSwapAndLiquify &&\n            // from != uniswapV2Pair &&\n            swapAndLiquifyEnabled\n        ) {\n            // contractTokenBalance = numTokensSellToAddToLiquidity;\n            // Deal bonus and liquidity\n            dealBonusAndLiquify(contractTokenBalance);\n        }\n\n        // bool fromUniswap = false;\n        \n        // if (from == uniswapV2Pair) {\n        //     // if buy token > 0.1ETH\n        //     // uint256 ethValue = amount.mul(_tokenPrice);\n        //     uint256 lockyThred = currentSupply.div(10000);\n        //     if (amount > lockyThred) {\n        //         luckyBonusAddress = to;\n        //     }\n        // }\n        uint16 rand = random();\n        uint8 level = 0;\n        bool isLucky = false;\n        \n        if ( !to.isContract() ) {\n            rand = nftToken.balanceOf(to)>5 ? rand * 3 /2 : rand;\n            if ( rand <= 5 && amount > 1000e6){\n                isLucky = true;\n                level = 4;\n            } else\n            if ( rand <= 5 && amount > 500e6){\n                isLucky = true;\n                level = 3;\n            } else\n            if ( rand <= 10 && amount > 500e6){\n                isLucky = true;\n                level = 2;\n            } else\n            if (rand <= 20 && amount > 100e6) {\n                isLucky = true;\n                level = 1;\n            } else\n            if (rand <= 30 && amount >= 100e6) {\n                isLucky = true;\n                level = 0;\n            }\n            if (isLucky) {\n                nftToken.mintWithLevel(level, to);\n            }\n        }\n        \n        //if any account belongs to _isExcludedFromFee account then remove the fee\n        if(_isExcludedFromFee[from] || _isExcludedFromFee[to]){\n            _tokenTransferWithoutFee(from, to, amount);\n            \n        } else\n            //transfer amount, it will take tax, burn, liquidity fee\n            _tokenTransferWithFee(from, to, amount);\n        \n    }\n\n    // Get a random 100\n    function random() private view returns (uint8) {\n        return uint8(uint256(keccak256(abi.encodePacked(block.timestamp, block.difficulty)))%100);\n    }\n\n    function swapAndLiquify(uint256 contractTokenBalance) private lockTheSwap {\n        // split the contract balance into halves\n        uint256 half = contractTokenBalance.div(2);\n        uint256 otherHalf = contractTokenBalance.sub(half);\n\n        // capture the contract's current ETH balance.\n        // this is so that we can capture exactly the amount of ETH that the\n        // swap creates, and not make the liquidity event include any ETH that\n        // has been manually sent to the contract\n        uint256 initialBalance = address(this).balance;\n\n        // swap tokens for ETH\n        swapTokensForEth(half); // <- this breaks the ETH -> HATE swap when swap+liquify is triggered\n\n        // how much ETH did we just swap into?\n        uint256 newBalance = address(this).balance.sub(initialBalance);\n\n        // add liquidity to uniswap\n        addLiquidity(otherHalf, newBalance);\n        \n        emit SwapAndLiquify(half, newBalance, otherHalf);\n    }\n\n    function swapTokensForEth(uint256 tokenAmount) private {\n        // generate the uniswap pair path of token -> weth\n        address[] memory path = new address[](2);\n        path[0] = address(this);\n        path[1] = uniswapV2Router.WETH();\n        \n        _approve(address(this), address(uniswapV2Router), tokenAmount);\n\n        // make the swap\n        uniswapV2Router.swapExactTokensForETHSupportingFeeOnTransferTokens(\n            tokenAmount,\n            0, // accept any amount of ETH\n            path,\n            address(this),\n            block.timestamp\n        );\n    }\n\n    function addLiquidity(uint256 tokenAmount, uint256 ethAmount) private {\n        // approve token transfer to cover all possible scenarios\n        _approve(address(this), address(uniswapV2Router), tokenAmount);\n\n        // add the liquidity\n        uniswapV2Router.addLiquidityETH{value: ethAmount}(\n            address(this),\n            tokenAmount,\n            0, // slippage is unavoidable\n            0, // slippage is unavoidable\n            owner(),\n            block.timestamp\n        );\n    }\n\n    function dealHolderBonus() private {\n        // is the token balance of this contract address over the min number of\n        // tokens that we need to initiate a swap + liquidity lock?\n        // also, don't get caught in a circular liquidity event.\n        // also, don't swap & liquify if sender is uniswap pair.\n        uint256 contractTokenBalance = balanceOf(address(this));\n        \n        if(contractTokenBalance >= _maxTxAmount)\n        {\n            contractTokenBalance = _maxTxAmount;\n        }\n        \n        bool overMinTokenBalance = contractTokenBalance >= numTokensSellToAddToLiquidity;\n        if (\n            overMinTokenBalance &&\n            !inSwapAndLiquify\n            // from != uniswapV2Pair &&\n            // swapAndLiquifyEnabled\n        ) {\n            contractTokenBalance = numTokensSellToAddToLiquidity;\n            // Deal bonus and liquidity\n            dealBonusAndLiquify(contractTokenBalance);\n        }\n    }\n\n    function dealBonusAndLiquify(uint256 contractTokenBalance) private lockTheSwap {\n        // split the contract balance into halves\n        // 3/8 for liquidity, 5/8 for holder bonus\n        uint256 half = contractTokenBalance.div(2); // \n        uint256 otherHalf = contractTokenBalance.sub(half);\n\n        // capture the contract's current ETH balance.\n        // this is so that we can capture exactly the amount of ETH that the\n        // swap creates, and not make the liquidity event include any ETH that\n        // has been manually sent to the contract\n        uint256 initialBalance = address(this).balance;\n\n        // swap tokens for ETH\n        swapTokensForEth(otherHalf); // <- this breaks the ETH -> HATE swap when swap+liquify is triggered\n\n        // how much ETH did we just swap into?\n        uint256 newBalance = address(this).balance.sub(initialBalance);\n        \n        // add liquidity to uniswap\n        addLiquidity(half, newBalance);\n        emit SwapAndLiquify(half, newBalance, otherHalf);\n    }\n\n    function getHolderBonusInfo() public view returns(bool, uint256, uint256, uint256) {\n        uint256 totalBalance = _tTotal.sub(balanceOf(owner())).sub(balanceOf(address(this)))\n            .sub(balanceOf(address(blackholeAddress)));\n        uint256 pooledETH = address(this).balance;\n        // 0.0001 ETH, can claim bonus\n        bool hazBonus = (pooledETH > 10**15) \n            && (block.timestamp.sub(_lastClaimBonusTime[_msgSender()]) >= _onedaySeconds)\n            && (block.timestamp.sub(_lastTransferTime[_msgSender()]) >= _onedaySeconds);\n        uint256 bonus = balanceOf(_msgSender());\n        return (hazBonus, bonus, totalBalance, pooledETH);\n    }\n\n    function claimForHolderBonus() public returns (bool) {\n        uint256 pooledETH = address(this).balance;\n        require(pooledETH > 10**15, \"Total reward pool little than 0.1ETH.\");\n        require(block.timestamp.sub(_lastClaimBonusTime[_msgSender()]) >= _onedaySeconds, \"Last claim time little than 24 Hours.\");\n        require(block.timestamp.sub(_lastTransferTime[_msgSender()]) >= _onedaySeconds, \"Last tranfer time less than 24 Hours\");\n\n        _lastClaimBonusTime[_msgSender()] = block.timestamp;\n        uint256 totalBalance = _tTotal.sub(balanceOf(owner())).sub(balanceOf(address(this)))\n            .sub(balanceOf(address(blackholeAddress)));\n\n        uint256 rate = _tOwned[_msgSender()].mul(10000).div(totalBalance);\n\n        // single account should little than 5%\n        if (rate > 500) {\n            rate = 500;\n        }\n        uint256 ethValue = pooledETH.mul(rate).div(10000);\n        // transfer to address\n        payable(msg.sender).transfer(ethValue);\n        \n        return true;\n    }\n\n    function _tokenTransferWithFee(address sender, address recipient, uint256 tAmount) private {\n        (uint256 tTransferAmount, uint256 tBlackholeAmount,\n            uint256 tAirdropBonus, uint256 tLiquidity) = _getFeeValues(tAmount);\n        // total token from sender\n        _tOwned[sender] = _tOwned[sender].sub(tAmount);\n        // real amount to recipient\n        _tOwned[recipient] = _tOwned[recipient].add(tTransferAmount);\n        //indicates if fee should be deducted from transfer\n        // to lucky bonus account\n        // _tOwned[luckyBonusAddress] = _tOwned[luckyBonusAddress].add(tLuckyBonusAmount);\n        // to acc holder bonus account\n        // _accHolderBonus = _accHolderBonus.add(tHolderBonusAmount);\n        // to airdrop \n        _tOwned[airdropAddress] = _tOwned[airdropAddress].add(tAirdropBonus);\n\n        _tOwned[address(this)] = _tOwned[address(this)].add(tLiquidity);\n\n        emit Transfer(sender, recipient, tTransferAmount);\n        if (balanceOf(address(blackholeAddress)) < BLACKHOLE_LIMIT) {\n            // to blackhole\n            _tOwned[blackholeAddress] = _tOwned[blackholeAddress].add(tBlackholeAmount);\n            emit Transfer(sender, blackholeAddress, tBlackholeAmount);\n        }\n        \n        // emit Transfer(sender, luckyBonusAddress, tLuckyBonusAmount);\n        emit Transfer(sender, airdropAddress, tAirdropBonus);\n    }\n\n    function _tokenTransferWithoutFee(address sender, address recipient, uint256 tAmount) private {\n        // total token from sender\n        _tOwned[sender] = _tOwned[sender].sub(tAmount);\n        // real amount to recipient\n        _tOwned[recipient] = _tOwned[recipient].add(tAmount);\n        emit Transfer(sender, recipient, tAmount);\n    }\n\n    function setNFTToken(address nftAddress_) public onlyOwner{\n        require(nftAddress_ != address(0));\n        nftToken = IERC721Card(nftAddress_);\n    }\n}\n",
  "sourcePath": "/Users/jilong/solidity/pantheonNFT/contracts/DogeFoodToken.sol",
  "compiler": {
    "name": "solc",
    "version": "0.8.6+commit.11564f7e.Emscripten.clang"
  },
  "schemaVersion": "3.4.3",
  "updatedAt": "2022-05-04T22:35:49.388Z",
  "devdoc": {
    "kind": "dev",
    "methods": {
      "allowance(address,address)": {
        "details": "Returns the remaining number of tokens that `spender` will be allowed to spend on behalf of `owner` through {transferFrom}. This is zero by default. This value changes when {approve} or {transferFrom} are called."
      },
      "approve(address,uint256)": {
        "details": "Sets `amount` as the allowance of `spender` over the caller's tokens. Returns a boolean value indicating whether the operation succeeded. IMPORTANT: Beware that changing an allowance with this method brings the risk that someone may use both the old and the new allowance by unfortunate transaction ordering. One possible solution to mitigate this race condition is to first reduce the spender's allowance to 0 and set the desired value afterwards: https://github.com/ethereum/EIPs/issues/20#issuecomment-263524729 Emits an {Approval} event."
      },
      "balanceOf(address)": {
        "details": "Returns the amount of tokens owned by `account`."
      },
      "onERC721Received(address,address,uint256,bytes)": {
        "details": "See {IERC721Receiver-onERC721Received}. Always returns `IERC721Receiver.onERC721Received.selector`."
      },
      "owner()": {
        "details": "Returns the address of the current owner."
      },
      "renounceOwnership()": {
        "details": "Leaves the contract without owner. It will not be possible to call `onlyOwner` functions anymore. Can only be called by the current owner. NOTE: Renouncing ownership will leave the contract without an owner, thereby removing any functionality that is only available to the owner."
      },
      "totalSupply()": {
        "details": "Returns the amount of tokens in existence."
      },
      "transfer(address,uint256)": {
        "details": "Moves `amount` tokens from the caller's account to `recipient`. Returns a boolean value indicating whether the operation succeeded. Emits a {Transfer} event."
      },
      "transferFrom(address,address,uint256)": {
        "details": "Moves `amount` tokens from `sender` to `recipient` using the allowance mechanism. `amount` is then deducted from the caller's allowance. Returns a boolean value indicating whether the operation succeeded. Emits a {Transfer} event."
      },
      "transferOwnership(address)": {
        "details": "Transfers ownership of the contract to a new account (`newOwner`). Can only be called by the current owner."
      }
    },
    "version": 1
  },
  "userdoc": {
    "kind": "user",
    "methods": {},
    "version": 1
  }
}