{
  "contractName": "ERC20BeanToken",
  "abi": [
    {
      "inputs": [
        {
          "internalType": "address",
          "name": "pancakeRouter",
          "type": "address"
        },
        {
          "internalType": "address",
          "name": "blackholeAddress_",
          "type": "address"
        },
        {
          "internalType": "address",
          "name": "airdropAddress_",
          "type": "address"
        },
        {
          "internalType": "uint256",
          "name": "_initialSupply",
          "type": "uint256"
        },
        {
          "internalType": "uint256",
          "name": "_startTimestamp",
          "type": "uint256"
        },
        {
          "internalType": "address",
          "name": "owner",
          "type": "address"
        }
      ],
      "stateMutability": "nonpayable",
      "type": "constructor"
    },
    {
      "anonymous": false,
      "inputs": [
        {
          "indexed": true,
          "internalType": "address",
          "name": "owner",
          "type": "address"
        },
        {
          "indexed": true,
          "internalType": "address",
          "name": "spender",
          "type": "address"
        },
        {
          "indexed": false,
          "internalType": "uint256",
          "name": "value",
          "type": "uint256"
        }
      ],
      "name": "Approval",
      "type": "event"
    },
    {
      "anonymous": false,
      "inputs": [
        {
          "indexed": false,
          "internalType": "uint256",
          "name": "minTokensBeforeSwap",
          "type": "uint256"
        }
      ],
      "name": "MinTokensBeforeSwapUpdated",
      "type": "event"
    },
    {
      "anonymous": false,
      "inputs": [
        {
          "indexed": true,
          "internalType": "address",
          "name": "previousOwner",
          "type": "address"
        },
        {
          "indexed": true,
          "internalType": "address",
          "name": "newOwner",
          "type": "address"
        }
      ],
      "name": "OwnershipTransferred",
      "type": "event"
    },
    {
      "anonymous": false,
      "inputs": [
        {
          "indexed": false,
          "internalType": "address",
          "name": "account",
          "type": "address"
        }
      ],
      "name": "Paused",
      "type": "event"
    },
    {
      "anonymous": false,
      "inputs": [
        {
          "indexed": true,
          "internalType": "bytes32",
          "name": "role",
          "type": "bytes32"
        },
        {
          "indexed": true,
          "internalType": "bytes32",
          "name": "previousAdminRole",
          "type": "bytes32"
        },
        {
          "indexed": true,
          "internalType": "bytes32",
          "name": "newAdminRole",
          "type": "bytes32"
        }
      ],
      "name": "RoleAdminChanged",
      "type": "event"
    },
    {
      "anonymous": false,
      "inputs": [
        {
          "indexed": true,
          "internalType": "bytes32",
          "name": "role",
          "type": "bytes32"
        },
        {
          "indexed": true,
          "internalType": "address",
          "name": "account",
          "type": "address"
        },
        {
          "indexed": true,
          "internalType": "address",
          "name": "sender",
          "type": "address"
        }
      ],
      "name": "RoleGranted",
      "type": "event"
    },
    {
      "anonymous": false,
      "inputs": [
        {
          "indexed": true,
          "internalType": "bytes32",
          "name": "role",
          "type": "bytes32"
        },
        {
          "indexed": true,
          "internalType": "address",
          "name": "account",
          "type": "address"
        },
        {
          "indexed": true,
          "internalType": "address",
          "name": "sender",
          "type": "address"
        }
      ],
      "name": "RoleRevoked",
      "type": "event"
    },
    {
      "anonymous": false,
      "inputs": [
        {
          "indexed": false,
          "internalType": "uint256",
          "name": "tokensSwapped",
          "type": "uint256"
        },
        {
          "indexed": false,
          "internalType": "uint256",
          "name": "ethReceived",
          "type": "uint256"
        },
        {
          "indexed": false,
          "internalType": "uint256",
          "name": "tokensIntoLiqudity",
          "type": "uint256"
        }
      ],
      "name": "SwapAndLiquify",
      "type": "event"
    },
    {
      "anonymous": false,
      "inputs": [
        {
          "indexed": false,
          "internalType": "bool",
          "name": "enabled",
          "type": "bool"
        }
      ],
      "name": "SwapAndLiquifyEnabledUpdated",
      "type": "event"
    },
    {
      "anonymous": false,
      "inputs": [
        {
          "indexed": true,
          "internalType": "address",
          "name": "from",
          "type": "address"
        },
        {
          "indexed": true,
          "internalType": "address",
          "name": "to",
          "type": "address"
        },
        {
          "indexed": false,
          "internalType": "uint256",
          "name": "value",
          "type": "uint256"
        }
      ],
      "name": "Transfer",
      "type": "event"
    },
    {
      "anonymous": false,
      "inputs": [
        {
          "indexed": false,
          "internalType": "address",
          "name": "account",
          "type": "address"
        }
      ],
      "name": "Unpaused",
      "type": "event"
    },
    {
      "inputs": [],
      "name": "DEFAULT_ADMIN_ROLE",
      "outputs": [
        {
          "internalType": "bytes32",
          "name": "",
          "type": "bytes32"
        }
      ],
      "stateMutability": "view",
      "type": "function"
    },
    {
      "inputs": [],
      "name": "MINTER_ROLE",
      "outputs": [
        {
          "internalType": "bytes32",
          "name": "",
          "type": "bytes32"
        }
      ],
      "stateMutability": "view",
      "type": "function"
    },
    {
      "inputs": [],
      "name": "PAUSER_ROLE",
      "outputs": [
        {
          "internalType": "bytes32",
          "name": "",
          "type": "bytes32"
        }
      ],
      "stateMutability": "view",
      "type": "function"
    },
    {
      "inputs": [],
      "name": "airdropAddress",
      "outputs": [
        {
          "internalType": "address",
          "name": "",
          "type": "address"
        }
      ],
      "stateMutability": "view",
      "type": "function"
    },
    {
      "inputs": [
        {
          "internalType": "address",
          "name": "owner",
          "type": "address"
        },
        {
          "internalType": "address",
          "name": "spender",
          "type": "address"
        }
      ],
      "name": "allowance",
      "outputs": [
        {
          "internalType": "uint256",
          "name": "",
          "type": "uint256"
        }
      ],
      "stateMutability": "view",
      "type": "function"
    },
    {
      "inputs": [
        {
          "internalType": "address",
          "name": "spender",
          "type": "address"
        },
        {
          "internalType": "uint256",
          "name": "amount",
          "type": "uint256"
        }
      ],
      "name": "approve",
      "outputs": [
        {
          "internalType": "bool",
          "name": "",
          "type": "bool"
        }
      ],
      "stateMutability": "nonpayable",
      "type": "function"
    },
    {
      "inputs": [
        {
          "internalType": "address",
          "name": "account",
          "type": "address"
        }
      ],
      "name": "balanceOf",
      "outputs": [
        {
          "internalType": "uint256",
          "name": "",
          "type": "uint256"
        }
      ],
      "stateMutability": "view",
      "type": "function"
    },
    {
      "inputs": [],
      "name": "blackholeAddress",
      "outputs": [
        {
          "internalType": "address",
          "name": "",
          "type": "address"
        }
      ],
      "stateMutability": "view",
      "type": "function"
    },
    {
      "inputs": [
        {
          "internalType": "uint256",
          "name": "amount",
          "type": "uint256"
        }
      ],
      "name": "burn",
      "outputs": [],
      "stateMutability": "nonpayable",
      "type": "function"
    },
    {
      "inputs": [
        {
          "internalType": "address",
          "name": "account",
          "type": "address"
        },
        {
          "internalType": "uint256",
          "name": "amount",
          "type": "uint256"
        }
      ],
      "name": "burnFrom",
      "outputs": [],
      "stateMutability": "nonpayable",
      "type": "function"
    },
    {
      "inputs": [
        {
          "internalType": "address",
          "name": "spender",
          "type": "address"
        },
        {
          "internalType": "uint256",
          "name": "subtractedValue",
          "type": "uint256"
        }
      ],
      "name": "decreaseAllowance",
      "outputs": [
        {
          "internalType": "bool",
          "name": "",
          "type": "bool"
        }
      ],
      "stateMutability": "nonpayable",
      "type": "function"
    },
    {
      "inputs": [
        {
          "internalType": "bytes32",
          "name": "role",
          "type": "bytes32"
        }
      ],
      "name": "getRoleAdmin",
      "outputs": [
        {
          "internalType": "bytes32",
          "name": "",
          "type": "bytes32"
        }
      ],
      "stateMutability": "view",
      "type": "function"
    },
    {
      "inputs": [
        {
          "internalType": "bytes32",
          "name": "role",
          "type": "bytes32"
        },
        {
          "internalType": "uint256",
          "name": "index",
          "type": "uint256"
        }
      ],
      "name": "getRoleMember",
      "outputs": [
        {
          "internalType": "address",
          "name": "",
          "type": "address"
        }
      ],
      "stateMutability": "view",
      "type": "function"
    },
    {
      "inputs": [
        {
          "internalType": "bytes32",
          "name": "role",
          "type": "bytes32"
        }
      ],
      "name": "getRoleMemberCount",
      "outputs": [
        {
          "internalType": "uint256",
          "name": "",
          "type": "uint256"
        }
      ],
      "stateMutability": "view",
      "type": "function"
    },
    {
      "inputs": [
        {
          "internalType": "bytes32",
          "name": "role",
          "type": "bytes32"
        },
        {
          "internalType": "address",
          "name": "account",
          "type": "address"
        }
      ],
      "name": "grantRole",
      "outputs": [],
      "stateMutability": "nonpayable",
      "type": "function"
    },
    {
      "inputs": [
        {
          "internalType": "bytes32",
          "name": "role",
          "type": "bytes32"
        },
        {
          "internalType": "address",
          "name": "account",
          "type": "address"
        }
      ],
      "name": "hasRole",
      "outputs": [
        {
          "internalType": "bool",
          "name": "",
          "type": "bool"
        }
      ],
      "stateMutability": "view",
      "type": "function"
    },
    {
      "inputs": [
        {
          "internalType": "address",
          "name": "spender",
          "type": "address"
        },
        {
          "internalType": "uint256",
          "name": "addedValue",
          "type": "uint256"
        }
      ],
      "name": "increaseAllowance",
      "outputs": [
        {
          "internalType": "bool",
          "name": "",
          "type": "bool"
        }
      ],
      "stateMutability": "nonpayable",
      "type": "function"
    },
    {
      "inputs": [],
      "name": "initialSupply",
      "outputs": [
        {
          "internalType": "uint256",
          "name": "",
          "type": "uint256"
        }
      ],
      "stateMutability": "view",
      "type": "function"
    },
    {
      "inputs": [],
      "name": "minTokensSellToAddToLiquidity",
      "outputs": [
        {
          "internalType": "uint256",
          "name": "",
          "type": "uint256"
        }
      ],
      "stateMutability": "view",
      "type": "function"
    },
    {
      "inputs": [],
      "name": "name",
      "outputs": [
        {
          "internalType": "string",
          "name": "",
          "type": "string"
        }
      ],
      "stateMutability": "view",
      "type": "function"
    },
    {
      "inputs": [],
      "name": "nftToken",
      "outputs": [
        {
          "internalType": "contract ERC721Card",
          "name": "",
          "type": "address"
        }
      ],
      "stateMutability": "view",
      "type": "function"
    },
    {
      "inputs": [
        {
          "internalType": "address",
          "name": "",
          "type": "address"
        },
        {
          "internalType": "address",
          "name": "",
          "type": "address"
        },
        {
          "internalType": "uint256",
          "name": "",
          "type": "uint256"
        },
        {
          "internalType": "bytes",
          "name": "",
          "type": "bytes"
        }
      ],
      "name": "onERC721Received",
      "outputs": [
        {
          "internalType": "bytes4",
          "name": "",
          "type": "bytes4"
        }
      ],
      "stateMutability": "nonpayable",
      "type": "function"
    },
    {
      "inputs": [],
      "name": "owner",
      "outputs": [
        {
          "internalType": "address",
          "name": "",
          "type": "address"
        }
      ],
      "stateMutability": "view",
      "type": "function"
    },
    {
      "inputs": [],
      "name": "paused",
      "outputs": [
        {
          "internalType": "bool",
          "name": "",
          "type": "bool"
        }
      ],
      "stateMutability": "view",
      "type": "function"
    },
    {
      "inputs": [],
      "name": "renounceOwnership",
      "outputs": [],
      "stateMutability": "nonpayable",
      "type": "function"
    },
    {
      "inputs": [
        {
          "internalType": "bytes32",
          "name": "role",
          "type": "bytes32"
        },
        {
          "internalType": "address",
          "name": "account",
          "type": "address"
        }
      ],
      "name": "renounceRole",
      "outputs": [],
      "stateMutability": "nonpayable",
      "type": "function"
    },
    {
      "inputs": [
        {
          "internalType": "bytes32",
          "name": "role",
          "type": "bytes32"
        },
        {
          "internalType": "address",
          "name": "account",
          "type": "address"
        }
      ],
      "name": "revokeRole",
      "outputs": [],
      "stateMutability": "nonpayable",
      "type": "function"
    },
    {
      "inputs": [],
      "name": "startTimestamp",
      "outputs": [
        {
          "internalType": "uint256",
          "name": "",
          "type": "uint256"
        }
      ],
      "stateMutability": "view",
      "type": "function"
    },
    {
      "inputs": [
        {
          "internalType": "bytes4",
          "name": "interfaceId",
          "type": "bytes4"
        }
      ],
      "name": "supportsInterface",
      "outputs": [
        {
          "internalType": "bool",
          "name": "",
          "type": "bool"
        }
      ],
      "stateMutability": "view",
      "type": "function"
    },
    {
      "inputs": [],
      "name": "swapAndLiquifyEnabled",
      "outputs": [
        {
          "internalType": "bool",
          "name": "",
          "type": "bool"
        }
      ],
      "stateMutability": "view",
      "type": "function"
    },
    {
      "inputs": [],
      "name": "symbol",
      "outputs": [
        {
          "internalType": "string",
          "name": "",
          "type": "string"
        }
      ],
      "stateMutability": "view",
      "type": "function"
    },
    {
      "inputs": [],
      "name": "totalSupply",
      "outputs": [
        {
          "internalType": "uint256",
          "name": "",
          "type": "uint256"
        }
      ],
      "stateMutability": "view",
      "type": "function"
    },
    {
      "inputs": [
        {
          "internalType": "address",
          "name": "newOwner",
          "type": "address"
        }
      ],
      "name": "transferOwnership",
      "outputs": [],
      "stateMutability": "nonpayable",
      "type": "function"
    },
    {
      "inputs": [],
      "name": "uniswapV2Pair",
      "outputs": [
        {
          "internalType": "address",
          "name": "",
          "type": "address"
        }
      ],
      "stateMutability": "view",
      "type": "function"
    },
    {
      "inputs": [],
      "name": "uniswapV2Router",
      "outputs": [
        {
          "internalType": "contract IUniswapV2Router02",
          "name": "",
          "type": "address"
        }
      ],
      "stateMutability": "view",
      "type": "function"
    },
    {
      "inputs": [],
      "name": "decimals",
      "outputs": [
        {
          "internalType": "uint8",
          "name": "",
          "type": "uint8"
        }
      ],
      "stateMutability": "view",
      "type": "function"
    },
    {
      "inputs": [
        {
          "internalType": "address",
          "name": "to",
          "type": "address"
        },
        {
          "internalType": "uint256",
          "name": "amount",
          "type": "uint256"
        }
      ],
      "name": "transfer",
      "outputs": [
        {
          "internalType": "bool",
          "name": "",
          "type": "bool"
        }
      ],
      "stateMutability": "nonpayable",
      "type": "function"
    },
    {
      "inputs": [
        {
          "internalType": "address",
          "name": "sender",
          "type": "address"
        },
        {
          "internalType": "address",
          "name": "recipient",
          "type": "address"
        },
        {
          "internalType": "uint256",
          "name": "amount",
          "type": "uint256"
        }
      ],
      "name": "transferFrom",
      "outputs": [
        {
          "internalType": "bool",
          "name": "",
          "type": "bool"
        }
      ],
      "stateMutability": "nonpayable",
      "type": "function"
    },
    {
      "inputs": [
        {
          "internalType": "address",
          "name": "to",
          "type": "address"
        },
        {
          "internalType": "uint256",
          "name": "amount",
          "type": "uint256"
        }
      ],
      "name": "mint",
      "outputs": [],
      "stateMutability": "nonpayable",
      "type": "function"
    },
    {
      "inputs": [],
      "name": "pause",
      "outputs": [],
      "stateMutability": "nonpayable",
      "type": "function"
    },
    {
      "inputs": [],
      "name": "unpause",
      "outputs": [],
      "stateMutability": "nonpayable",
      "type": "function"
    },
    {
      "inputs": [
        {
          "internalType": "address",
          "name": "nftAddress_",
          "type": "address"
        }
      ],
      "name": "setNFTToken",
      "outputs": [],
      "stateMutability": "nonpayable",
      "type": "function"
    },
    {
      "inputs": [
        {
          "internalType": "address",
          "name": "account",
          "type": "address"
        }
      ],
      "name": "setExcludeFromFee",
      "outputs": [],
      "stateMutability": "nonpayable",
      "type": "function"
    },
    {
      "inputs": [
        {
          "internalType": "address",
          "name": "account",
          "type": "address"
        }
      ],
      "name": "setIncludeInFee",
      "outputs": [],
      "stateMutability": "nonpayable",
      "type": "function"
    },
    {
      "inputs": [
        {
          "internalType": "uint256",
          "name": "blackholeFee",
          "type": "uint256"
        }
      ],
      "name": "setBlackholeFeePercent",
      "outputs": [],
      "stateMutability": "nonpayable",
      "type": "function"
    },
    {
      "inputs": [
        {
          "internalType": "address",
          "name": "account",
          "type": "address"
        }
      ],
      "name": "isExcludedFromFee",
      "outputs": [
        {
          "internalType": "bool",
          "name": "",
          "type": "bool"
        }
      ],
      "stateMutability": "view",
      "type": "function"
    },
    {
      "inputs": [
        {
          "internalType": "uint256",
          "name": "amount",
          "type": "uint256"
        }
      ],
      "name": "getEthValue",
      "outputs": [
        {
          "internalType": "uint256",
          "name": "",
          "type": "uint256"
        }
      ],
      "stateMutability": "view",
      "type": "function"
    },
    {
      "inputs": [
        {
          "internalType": "uint256",
          "name": "airdropFee",
          "type": "uint256"
        }
      ],
      "name": "setAirdropFeePercent",
      "outputs": [],
      "stateMutability": "nonpayable",
      "type": "function"
    },
    {
      "inputs": [
        {
          "internalType": "uint256",
          "name": "timestamp",
          "type": "uint256"
        }
      ],
      "name": "setStartTimestamp",
      "outputs": [],
      "stateMutability": "nonpayable",
      "type": "function"
    },
    {
      "inputs": [
        {
          "internalType": "uint256",
          "name": "level1",
          "type": "uint256"
        },
        {
          "internalType": "uint256",
          "name": "level2",
          "type": "uint256"
        },
        {
          "internalType": "uint256",
          "name": "level3",
          "type": "uint256"
        }
      ],
      "name": "setNftLevelEthValue",
      "outputs": [],
      "stateMutability": "nonpayable",
      "type": "function"
    },
    {
      "inputs": [
        {
          "internalType": "uint256",
          "name": "minTokenAddLiquidity",
          "type": "uint256"
        }
      ],
      "name": "setMinTokenAddLiquidity",
      "outputs": [],
      "stateMutability": "nonpayable",
      "type": "function"
    },
    {
      "inputs": [
        {
          "internalType": "bool",
          "name": "enabled",
          "type": "bool"
        }
      ],
      "name": "setSwapAndLiquifyEnabled",
      "outputs": [],
      "stateMutability": "nonpayable",
      "type": "function"
    }
  ],
  "bytecode": "0x60e0604052600d805461ff00191690556002601155600a601255600c60135562000027601290565b6200003490600a620007fa565b62000042906101f4620008b9565b6014553480156200005257600080fd5b506040516200641738038062006417833981016040819052620000759162000727565b604080518082018252601281527126b0b3b4b1a132b0b73c3c3c102a37b5b2b760711b6020808301918252835180850190945260078452660848a829cb0b0b60cb1b908401528151919291620000ce9160039162000656565b508051620000e490600490602084019062000656565b50506005805460ff1916905550620000fc336200030f565b6200010960003362000361565b620001357f9f2df0fed2c77648de5860a4cc508cd0818c85b8b8a1ab4ceeef8d981c8956a63362000361565b620001617f65d7a28e3265b37a6474929f336521b332c1681b933f6cb9f3376673440d862a3362000361565b6001600160601b0319606086811b821660a05285901b1660c052600c82905562000189601290565b6200019690600a620007fa565b620001a29084620008b9565b600b5567120a871cc0020000600e5567361f955640060000600f55676c3f2aac800c00006010556001600160601b0319606087901b166080526040513390620001eb90620006e5565b6001600160a01b039091168152608060208083018290526010918301919091526f135859da58d099585b9616160813919560821b60a083015260c06040830181905260089083015267109150539613919560c21b60e0830152610100606083018190528201527f68747470733a2f2f6170692e6d616769636265616e2e63632f746f6b656e732f61012082015261014001604051809103906000f08015801562000299573d6000803e3d6000fd5b50600a80546001600160a01b0319166001600160a01b0392831617905533600090815260156020526040808220805460ff1990811660019081179092553084528284208054821683179055938816835291208054909216179055600b5462000303908290620003a4565b5050505050506200092e565b600880546001600160a01b038381166001600160a01b0319831681179093556040519116919082907f8be0079c531659141344cd1fd0a4f28419497f9722a3daafe3b4186f6b6457e090600090a35050565b6200037882826200049c60201b620018cc1760201c565b60008281526007602090815260409091206200039f918390620018d6620004a8821b17901c565b505050565b6001600160a01b038216620004005760405162461bcd60e51b815260206004820152601f60248201527f45524332303a206d696e7420746f20746865207a65726f20616464726573730060448201526064015b60405180910390fd5b6200040e60008383620004c8565b806002600082825462000422919062000796565b90915550506001600160a01b038216600090815260208190526040812080548392906200045190849062000796565b90915550506040518181526001600160a01b038316906000907fddf252ad1be2c89b69c2b068fc378daa952ba7f163c4a11628f55a4df523b3ef9060200160405180910390a35b5050565b620004988282620004e0565b6000620004bf836001600160a01b03841662000584565b90505b92915050565b6200039f838383620005d660201b620018eb1760201c565b60008281526006602090815260408083206001600160a01b038516845290915290205460ff16620004985760008281526006602090815260408083206001600160a01b03851684529091529020805460ff19166001179055620005403390565b6001600160a01b0316816001600160a01b0316837f2f8788117e7eff1d82e926ec794901d17c78024a50270940304540a733656f0d60405160405180910390a45050565b6000818152600183016020526040812054620005cd57508154600181810184556000848152602080822090930184905584548482528286019093526040902091909155620004c2565b506000620004c2565b620005ee8383836200039f60201b62000aad1760201c565b60055460ff16156200039f5760405162461bcd60e51b815260206004820152602a60248201527f45524332305061757361626c653a20746f6b656e207472616e736665722077686044820152691a5b19481c185d5cd95960b21b6064820152608401620003f7565b8280546200066490620008db565b90600052602060002090601f016020900481019282620006885760008555620006d3565b82601f10620006a357805160ff1916838001178555620006d3565b82800160010185558215620006d3579182015b82811115620006d3578251825591602001919060010190620006b6565b50620006e1929150620006f3565b5090565b612ec9806200354e83390190565b5b80821115620006e15760008155600101620006f4565b80516001600160a01b03811681146200072257600080fd5b919050565b60008060008060008060c087890312156200074157600080fd5b6200074c876200070a565b95506200075c602088016200070a565b94506200076c604088016200070a565b935060608701519250608087015191506200078a60a088016200070a565b90509295509295509295565b60008219821115620007ac57620007ac62000918565b500190565b600181815b80851115620007f2578160001904821115620007d657620007d662000918565b80851615620007e457918102915b93841c9390800290620007b6565b509250929050565b6000620004bf60ff8416836000826200081657506001620004c2565b816200082557506000620004c2565b81600181146200083e5760028114620008495762000869565b6001915050620004c2565b60ff8411156200085d576200085d62000918565b50506001821b620004c2565b5060208310610133831016604e8410600b84101617156200088e575081810a620004c2565b6200089a8383620007b1565b8060001904821115620008b157620008b162000918565b029392505050565b6000816000190483118215151615620008d657620008d662000918565b500290565b600181811c90821680620008f057607f821691505b602082108114156200091257634e487b7160e01b600052602260045260246000fd5b50919050565b634e487b7160e01b600052601160045260246000fd5b60805160601c60a05160601c60c05160601c612baf6200099f6000396000818161059b015281816109cd01526113e801526000818161056b0152818161098301526113a90152600081816103b201528181610ea0015281816111c20152818161157501526116150152612baf6000f3fe608060405234801561001057600080fd5b506004361061030c5760003560e01c80637f65396c1161019d578063c0054fc1116100e9578063d547741f116100a2578063e63ab1e91161007c578063e63ab1e914610750578063e6fd48bc14610777578063f2fde38b14610780578063f917e3021461079357600080fd5b8063d547741f146106f1578063d963ce4114610704578063dd62ed3e1461071757600080fd5b8063c0054fc11461066b578063c44bef751461067e578063c49b9a8014610691578063ca15c873146106a4578063d06fcba8146106b7578063d5391393146106ca57600080fd5b806391d1485411610156578063a457c2d711610130578063a457c2d71461061f578063a9059cbb14610632578063b27b168b14610645578063baca73331461065857600080fd5b806391d14854146105fc57806395d89b411461060f578063a217fddf1461061757600080fd5b80637f65396c1461058d57806384413b65146105965780638456cb59146105bd5780638b32fa23146105c55780638da5cb5b146105d85780639010d07c146105e957600080fd5b8063395093511161025c5780635342acb41161021557806370a08231116101ef57806370a0823114610522578063715018a61461054b57806379cc6790146105535780637d515a101461056657600080fd5b80635342acb4146104d85780635657eb49146105045780635c975abb1461051757600080fd5b806339509351146104725780633f4ba83a1461048557806340c10f191461048d57806342966c68146104a057806349bd5a5e146104b35780634a74bb02146104c657600080fd5b806318160ddd116102c95780632f2ff15d116102a35780632f2ff15d14610434578063313ce5671461044757806336568abe14610456578063378dc3dc1461046957600080fd5b806318160ddd146103ec57806323b872dd146103fe578063248a9ca31461041157600080fd5b806301ffc9a71461031157806306fdde0314610339578063095ea7b31461034e57806310e71a0214610361578063150b7a02146103765780631694505e146103ad575b600080fd5b61032461031f366004612809565b6107a6565b60405190151581526020015b60405180910390f35b6103416107d1565b604051610330919061293d565b61032461035c366004612743565b610863565b61037461036f3660046125af565b610879565b005b610394610384366004612663565b630a85bd0160e11b949350505050565b6040516001600160e01b03199091168152602001610330565b6103d47f000000000000000000000000000000000000000000000000000000000000000081565b6040516001600160a01b039091168152602001610330565b6002545b604051908152602001610330565b61032461040c366004612622565b6108e1565b6103f061041f3660046127a9565b60009081526006602052604090206001015490565b6103746104423660046127c2565b610a8b565b60405160128152602001610330565b6103746104643660046127c2565b610ab2565b6103f0600b5481565b610324610480366004612743565b610ad4565b610374610b0b565b61037461049b366004612743565b610bb1565b6103746104ae3660046127a9565b610c54565b6009546103d4906001600160a01b031681565b600d5461032490610100900460ff1681565b6103246104e63660046125af565b6001600160a01b031660009081526015602052604090205460ff1690565b6103746105123660046127a9565b610c61565b60055460ff16610324565b6103f06105303660046125af565b6001600160a01b031660009081526020819052604090205490565b610374610c90565b610374610561366004612743565b610cc4565b6103d47f000000000000000000000000000000000000000000000000000000000000000081565b6103f060145481565b6103d47f000000000000000000000000000000000000000000000000000000000000000081565b610374610d45565b6103f06105d33660046127a9565b610de9565b6008546001600160a01b03166103d4565b6103d46105f73660046127e7565b610f2b565b61032461060a3660046127c2565b610f4a565b610341610f75565b6103f0600081565b61032461062d366004612743565b610f84565b610324610640366004612743565b611013565b6103746106533660046127a9565b611455565b61037461066636600461289c565b611484565b6103746106793660046125af565b6114bc565b61037461068c3660046127a9565b61150a565b61037461069f36600461276f565b611539565b6103f06106b23660046127a9565b611799565b600a546103d4906001600160a01b031681565b6103f07f9f2df0fed2c77648de5860a4cc508cd0818c85b8b8a1ab4ceeef8d981c8956a681565b6103746106ff3660046127c2565b6117b0565b6103746107123660046125af565b6117ba565b6103f06107253660046125e9565b6001600160a01b03918216600090815260016020908152604080832093909416825291909152205490565b6103f07f65d7a28e3265b37a6474929f336521b332c1681b933f6cb9f3376673440d862a81565b6103f0600c5481565b61037461078e3660046125af565b611805565b6103746107a13660046127a9565b61189d565b60006001600160e01b03198216635a05180f60e01b14806107cb57506107cb82611951565b92915050565b6060600380546107e090612a9b565b80601f016020809104026020016040519081016040528092919081815260200182805461080c90612a9b565b80156108595780601f1061082e57610100808354040283529160200191610859565b820191906000526020600020905b81548152906001019060200180831161083c57829003601f168201915b5050505050905090565b6000610870338484611986565b50600192915050565b6008546001600160a01b031633146108ac5760405162461bcd60e51b81526004016108a3906129b3565b60405180910390fd5b6001600160a01b0381166108bf57600080fd5b600a80546001600160a01b0319166001600160a01b0392909216919091179055565b6001600160a01b0383166000908152602081905260408120548214801561090f5750670de0b6b3a764000082115b1561092957610926670de0b6b3a764000083612a41565b91505b6001600160a01b03841660009081526015602052604090205460ff168061096857506001600160a01b03831660009081526015602052604090205460ff165b1561097d57610978848484611aaa565b610a2f565b6109c7847f00000000000000000000000000000000000000000000000000000000000000006109c260646109bc60115488611c4990919063ffffffff16565b90611c55565b611aaa565b610a06847f00000000000000000000000000000000000000000000000000000000000000006109c260646109bc60125488611c4990919063ffffffff16565b610a2f84846109c2610a2860646109bc60135489611c4990919063ffffffff16565b8690611c61565b610a818433610a7c85604051806060016040528060288152602001612b52602891396001600160a01b038a1660009081526001602090815260408083203384529091529020549190611c6d565b611986565b5060019392505050565b610a958282611c99565b6000828152600760205260409020610aad90826118d6565b505050565b610abc8282611cbf565b6000828152600760205260409020610aad9082611d39565b3360008181526001602090815260408083206001600160a01b03871684529091528120549091610870918590610a7c9086906129e8565b610b357f65d7a28e3265b37a6474929f336521b332c1681b933f6cb9f3376673440d862a33610f4a565b610ba75760405162461bcd60e51b815260206004820152603960248201527f45524332305072657365744d696e7465725061757365723a206d75737420686160448201527f76652070617573657220726f6c6520746f20756e70617573650000000000000060648201526084016108a3565b610baf611d4e565b565b610bdb7f9f2df0fed2c77648de5860a4cc508cd0818c85b8b8a1ab4ceeef8d981c8956a633610f4a565b610c465760405162461bcd60e51b815260206004820152603660248201527f45524332305072657365744d696e7465725061757365723a206d7573742068616044820152751d99481b5a5b9d195c881c9bdb19481d1bc81b5a5b9d60521b60648201526084016108a3565b610c508282611de1565b5050565b610c5e3382611ecc565b50565b6008546001600160a01b03163314610c8b5760405162461bcd60e51b81526004016108a3906129b3565b601455565b6008546001600160a01b03163314610cba5760405162461bcd60e51b81526004016108a3906129b3565b610baf6000612026565b6000610cd08333610725565b905081811015610d2e5760405162461bcd60e51b8152602060048201526024808201527f45524332303a206275726e20616d6f756e74206578636565647320616c6c6f77604482015263616e636560e01b60648201526084016108a3565b610d3b8333848403611986565b610aad8383611ecc565b610d6f7f65d7a28e3265b37a6474929f336521b332c1681b933f6cb9f3376673440d862a33610f4a565b610de15760405162461bcd60e51b815260206004820152603760248201527f45524332305072657365744d696e7465725061757365723a206d75737420686160448201527f76652070617573657220726f6c6520746f20706175736500000000000000000060648201526084016108a3565b610baf612078565b60095460408051630240bc6b60e21b815290516000926001600160a01b031691839182918491630902f1ac91600480820192606092909190829003018186803b158015610e3557600080fd5b505afa158015610e49573d6000803e3d6000fd5b505050506040513d601f19601f82011682018060405250810190610e6d9190612833565b50604051632b58577b60e21b8152600481018890526001600160701b0380841660248301528216604482015291935091507f00000000000000000000000000000000000000000000000000000000000000006001600160a01b03169063ad615dec9060640160206040518083038186803b158015610eea57600080fd5b505afa158015610efe573d6000803e3d6000fd5b505050506040513d601f19601f82011682018060405250810190610f229190612883565b95945050505050565b6000828152600760205260408120610f4390836120f3565b9392505050565b60009182526006602090815260408084206001600160a01b0393909316845291905290205460ff1690565b6060600480546107e090612a9b565b3360009081526001602090815260408083206001600160a01b0386168452909152812054828110156110065760405162461bcd60e51b815260206004820152602560248201527f45524332303a2064656372656173656420616c6c6f77616e63652062656c6f77604482015264207a65726f60d81b60648201526084016108a3565b610a813385858403611986565b60006001600160a01b03831661103b5760405162461bcd60e51b81526004016108a390612970565b6000821161109d5760405162461bcd60e51b815260206004820152602960248201527f5472616e7366657220616d6f756e74206d7573742062652067726561746572206044820152687468616e207a65726f60b81b60648201526084016108a3565b60095460009081906001600160a01b031633141561131957600954600c546001600160a01b0390911690600090819042101561111b5760405162461bcd60e51b815260206004820152601c60248201527f546f6b656e207472616e73666572206469646e27742073746172742e0000000060448201526064016108a3565b826001600160a01b0316630902f1ac6040518163ffffffff1660e01b815260040160606040518083038186803b15801561115457600080fd5b505afa158015611168573d6000803e3d6000fd5b505050506040513d601f19601f8201168201806040525081019061118c9190612833565b50604051632b58577b60e21b8152600481018a90526001600160701b0380841660248301528216604482015291935091506000907f00000000000000000000000000000000000000000000000000000000000000006001600160a01b03169063ad615dec9060640160206040518083038186803b15801561120c57600080fd5b505afa158015611220573d6000803e3d6000fd5b505050506040513d601f19601f820116820180604052508101906112449190612883565b9050601054811061125c576001945060029550611284565b600f548110611272576001945060019550611284565b600e5481106112845760019450600095505b841561131457600a546040516357f3fa8d60e11b815260ff881660048201526001600160a01b038b811660248301529091169063afe7f51a90604401602060405180830381600087803b1580156112da57600080fd5b505af11580156112ee573d6000803e3d6000fd5b505050506040513d601f19601f82011682018060405250810190611312919061278c565b505b505050505b336000908152602081905260409020548414801561133e5750670de0b6b3a764000084115b1561135857611355670de0b6b3a764000085612a41565b93505b3360009081526015602052604090205460ff168061138e57506001600160a01b03851660009081526015602052604090205460ff165b156113a35761139e338686611aaa565b61144a565b6113e2337f00000000000000000000000000000000000000000000000000000000000000006109c260646109bc6011548a611c4990919063ffffffff16565b611421337f00000000000000000000000000000000000000000000000000000000000000006109c260646109bc6012548a611c4990919063ffffffff16565b61144a33866109c261144360646109bc6013548b611c4990919063ffffffff16565b8890611c61565b506001949350505050565b6008546001600160a01b0316331461147f5760405162461bcd60e51b81526004016108a3906129b3565b601155565b6008546001600160a01b031633146114ae5760405162461bcd60e51b81526004016108a3906129b3565b600e92909255600f55601055565b6008546001600160a01b031633146114e65760405162461bcd60e51b81526004016108a3906129b3565b6001600160a01b03166000908152601560205260409020805460ff19166001179055565b6008546001600160a01b031633146115345760405162461bcd60e51b81526004016108a3906129b3565b600c55565b6008546001600160a01b031633146115635760405162461bcd60e51b81526004016108a3906129b3565b6009546001600160a01b0316611745577f00000000000000000000000000000000000000000000000000000000000000006001600160a01b031663c45a01556040518163ffffffff1660e01b815260040160206040518083038186803b1580156115cc57600080fd5b505afa1580156115e0573d6000803e3d6000fd5b505050506040513d601f19601f8201168201806040525081019061160491906125cc565b6001600160a01b031663c9c65396307f00000000000000000000000000000000000000000000000000000000000000006001600160a01b031663ad5c46486040518163ffffffff1660e01b815260040160206040518083038186803b15801561166c57600080fd5b505afa158015611680573d6000803e3d6000fd5b505050506040513d601f19601f820116820180604052508101906116a491906125cc565b6040516001600160e01b031960e085901b1681526001600160a01b03928316600482015291166024820152604401602060405180830381600087803b1580156116ec57600080fd5b505af1158015611700573d6000803e3d6000fd5b505050506040513d601f19601f8201168201806040525081019061172491906125cc565b600980546001600160a01b0319166001600160a01b03929092169190911790555b600d80548215156101000261ff00199091161790556040517f53726dfcaf90650aa7eb35524f4d3220f07413c8d6cb404cc8c18bf5591bc1599061178e90831515815260200190565b60405180910390a150565b60008181526007602052604081206107cb906120ff565b610abc8282612109565b6008546001600160a01b031633146117e45760405162461bcd60e51b81526004016108a3906129b3565b6001600160a01b03166000908152601560205260409020805460ff19169055565b6008546001600160a01b0316331461182f5760405162461bcd60e51b81526004016108a3906129b3565b6001600160a01b0381166118945760405162461bcd60e51b815260206004820152602660248201527f4f776e61626c653a206e6577206f776e657220697320746865207a65726f206160448201526564647265737360d01b60648201526084016108a3565b610c5e81612026565b6008546001600160a01b031633146118c75760405162461bcd60e51b81526004016108a3906129b3565b601255565b610c50828261212f565b6000610f43836001600160a01b0384166121b5565b60055460ff1615610aad5760405162461bcd60e51b815260206004820152602a60248201527f45524332305061757361626c653a20746f6b656e207472616e736665722077686044820152691a5b19481c185d5cd95960b21b60648201526084016108a3565b60006001600160e01b03198216637965db0b60e01b14806107cb57506301ffc9a760e01b6001600160e01b03198316146107cb565b6001600160a01b0383166119e85760405162461bcd60e51b8152602060048201526024808201527f45524332303a20617070726f76652066726f6d20746865207a65726f206164646044820152637265737360e01b60648201526084016108a3565b6001600160a01b038216611a495760405162461bcd60e51b815260206004820152602260248201527f45524332303a20617070726f766520746f20746865207a65726f206164647265604482015261737360f01b60648201526084016108a3565b6001600160a01b0383811660008181526001602090815260408083209487168084529482529182902085905590518481527f8c5be1e5ebec7d5bd14f71427d1e84f3dd0314c0f7b2291e5b200ac8c7c3b925910160405180910390a3505050565b6001600160a01b038316611b0e5760405162461bcd60e51b815260206004820152602560248201527f45524332303a207472616e736665722066726f6d20746865207a65726f206164604482015264647265737360d81b60648201526084016108a3565b6001600160a01b038216611b345760405162461bcd60e51b81526004016108a390612970565b611b3f838383612204565b6001600160a01b03831660009081526020819052604090205481811015611bb75760405162461bcd60e51b815260206004820152602660248201527f45524332303a207472616e7366657220616d6f756e7420657863656564732062604482015265616c616e636560d01b60648201526084016108a3565b6001600160a01b03808516600090815260208190526040808220858503905591851681529081208054849290611bee9084906129e8565b92505081905550826001600160a01b0316846001600160a01b03167fddf252ad1be2c89b69c2b068fc378daa952ba7f163c4a11628f55a4df523b3ef84604051611c3a91815260200190565b60405180910390a35b50505050565b6000610f438284612a22565b6000610f438284612a00565b6000610f438284612a41565b60008184841115611c915760405162461bcd60e51b81526004016108a3919061293d565b505050900390565b600082815260066020526040902060010154611cb5813361220f565b610aad838361212f565b6001600160a01b0381163314611d2f5760405162461bcd60e51b815260206004820152602f60248201527f416363657373436f6e74726f6c3a2063616e206f6e6c792072656e6f756e636560448201526e103937b632b9903337b91039b2b63360891b60648201526084016108a3565b610c508282612273565b6000610f43836001600160a01b0384166122da565b60055460ff16611d975760405162461bcd60e51b815260206004820152601460248201527314185d5cd8589b194e881b9bdd081c185d5cd95960621b60448201526064016108a3565b6005805460ff191690557f5db9ee0a495bf2e6ff9c91a7834c1ba4fdd244a5e8aa4e537bd38aeae4b073aa335b6040516001600160a01b03909116815260200160405180910390a1565b6001600160a01b038216611e375760405162461bcd60e51b815260206004820152601f60248201527f45524332303a206d696e7420746f20746865207a65726f20616464726573730060448201526064016108a3565b611e4360008383612204565b8060026000828254611e5591906129e8565b90915550506001600160a01b03821660009081526020819052604081208054839290611e829084906129e8565b90915550506040518181526001600160a01b038316906000907fddf252ad1be2c89b69c2b068fc378daa952ba7f163c4a11628f55a4df523b3ef9060200160405180910390a35050565b6001600160a01b038216611f2c5760405162461bcd60e51b815260206004820152602160248201527f45524332303a206275726e2066726f6d20746865207a65726f206164647265736044820152607360f81b60648201526084016108a3565b611f3882600083612204565b6001600160a01b03821660009081526020819052604090205481811015611fac5760405162461bcd60e51b815260206004820152602260248201527f45524332303a206275726e20616d6f756e7420657863656564732062616c616e604482015261636560f01b60648201526084016108a3565b6001600160a01b0383166000908152602081905260408120838303905560028054849290611fdb908490612a41565b90915550506040518281526000906001600160a01b038516907fddf252ad1be2c89b69c2b068fc378daa952ba7f163c4a11628f55a4df523b3ef9060200160405180910390a3505050565b600880546001600160a01b038381166001600160a01b0319831681179093556040519116919082907f8be0079c531659141344cd1fd0a4f28419497f9722a3daafe3b4186f6b6457e090600090a35050565b60055460ff16156120be5760405162461bcd60e51b815260206004820152601060248201526f14185d5cd8589b194e881c185d5cd95960821b60448201526064016108a3565b6005805460ff191660011790557f62e78cea01bee320cd4e420270b5ea74000d11b0c9f74754ebdbfc544b05a258611dc43390565b6000610f4383836123cd565b60006107cb825490565b600082815260066020526040902060010154612125813361220f565b610aad8383612273565b6121398282610f4a565b610c505760008281526006602090815260408083206001600160a01b03851684529091529020805460ff191660011790556121713390565b6001600160a01b0316816001600160a01b0316837f2f8788117e7eff1d82e926ec794901d17c78024a50270940304540a733656f0d60405160405180910390a45050565b60008181526001830160205260408120546121fc575081546001818101845560008481526020808220909301849055845484825282860190935260409020919091556107cb565b5060006107cb565b610aad8383836118eb565b6122198282610f4a565b610c5057612231816001600160a01b031660146123f7565b61223c8360206123f7565b60405160200161224d9291906128c8565b60408051601f198184030181529082905262461bcd60e51b82526108a39160040161293d565b61227d8282610f4a565b15610c505760008281526006602090815260408083206001600160a01b0385168085529252808320805460ff1916905551339285917ff6391f5c32d9c69d2a47ea670b442974b53935d1edc7fd64eb21e047a839171b9190a45050565b600081815260018301602052604081205480156123c35760006122fe600183612a41565b855490915060009061231290600190612a41565b905081811461237757600086600001828154811061233257612332612b02565b906000526020600020015490508087600001848154811061235557612355612b02565b6000918252602080832090910192909255918252600188019052604090208390555b855486908061238857612388612aec565b6001900381819060005260206000200160009055905585600101600086815260200190815260200160002060009055600193505050506107cb565b60009150506107cb565b60008260000182815481106123e4576123e4612b02565b9060005260206000200154905092915050565b60606000612406836002612a22565b6124119060026129e8565b67ffffffffffffffff81111561242957612429612b18565b6040519080825280601f01601f191660200182016040528015612453576020820181803683370190505b509050600360fc1b8160008151811061246e5761246e612b02565b60200101906001600160f81b031916908160001a905350600f60fb1b8160018151811061249d5761249d612b02565b60200101906001600160f81b031916908160001a90535060006124c1846002612a22565b6124cc9060016129e8565b90505b6001811115612544576f181899199a1a9b1b9c1cb0b131b232b360811b85600f166010811061250057612500612b02565b1a60f81b82828151811061251657612516612b02565b60200101906001600160f81b031916908160001a90535060049490941c9361253d81612a84565b90506124cf565b508315610f435760405162461bcd60e51b815260206004820181905260248201527f537472696e67733a20686578206c656e67746820696e73756666696369656e7460448201526064016108a3565b80516001600160701b03811681146125aa57600080fd5b919050565b6000602082840312156125c157600080fd5b8135610f4381612b2e565b6000602082840312156125de57600080fd5b8151610f4381612b2e565b600080604083850312156125fc57600080fd5b823561260781612b2e565b9150602083013561261781612b2e565b809150509250929050565b60008060006060848603121561263757600080fd5b833561264281612b2e565b9250602084013561265281612b2e565b929592945050506040919091013590565b6000806000806080858703121561267957600080fd5b843561268481612b2e565b9350602085013561269481612b2e565b925060408501359150606085013567ffffffffffffffff808211156126b857600080fd5b818701915087601f8301126126cc57600080fd5b8135818111156126de576126de612b18565b604051601f8201601f19908116603f0116810190838211818310171561270657612706612b18565b816040528281528a602084870101111561271f57600080fd5b82602086016020830137600060208483010152809550505050505092959194509250565b6000806040838503121561275657600080fd5b823561276181612b2e565b946020939093013593505050565b60006020828403121561278157600080fd5b8135610f4381612b43565b60006020828403121561279e57600080fd5b8151610f4381612b43565b6000602082840312156127bb57600080fd5b5035919050565b600080604083850312156127d557600080fd5b82359150602083013561261781612b2e565b600080604083850312156127fa57600080fd5b50508035926020909101359150565b60006020828403121561281b57600080fd5b81356001600160e01b031981168114610f4357600080fd5b60008060006060848603121561284857600080fd5b61285184612593565b925061285f60208501612593565b9150604084015163ffffffff8116811461287857600080fd5b809150509250925092565b60006020828403121561289557600080fd5b5051919050565b6000806000606084860312156128b157600080fd5b505081359360208301359350604090920135919050565b7f416363657373436f6e74726f6c3a206163636f756e7420000000000000000000815260008351612900816017850160208801612a58565b7001034b99036b4b9b9b4b733903937b6329607d1b6017918401918201528351612931816028840160208801612a58565b01602801949350505050565b602081526000825180602084015261295c816040850160208701612a58565b601f01601f19169190910160400192915050565b60208082526023908201527f45524332303a207472616e7366657220746f20746865207a65726f206164647260408201526265737360e81b606082015260800190565b6020808252818101527f4f776e61626c653a2063616c6c6572206973206e6f7420746865206f776e6572604082015260600190565b600082198211156129fb576129fb612ad6565b500190565b600082612a1d57634e487b7160e01b600052601260045260246000fd5b500490565b6000816000190483118215151615612a3c57612a3c612ad6565b500290565b600082821015612a5357612a53612ad6565b500390565b60005b83811015612a73578181015183820152602001612a5b565b83811115611c435750506000910152565b600081612a9357612a93612ad6565b506000190190565b600181811c90821680612aaf57607f821691505b60208210811415612ad057634e487b7160e01b600052602260045260246000fd5b50919050565b634e487b7160e01b600052601160045260246000fd5b634e487b7160e01b600052603160045260246000fd5b634e487b7160e01b600052603260045260246000fd5b634e487b7160e01b600052604160045260246000fd5b6001600160a01b0381168114610c5e57600080fd5b8015158114610c5e57600080fdfe45524332303a207472616e7366657220616d6f756e74206578636565647320616c6c6f77616e6365a26469706673582212203bdf720a6f687ea3c7420f46bddc6f105f797fe9d2a345ebe3ddb8ebdc339ab764736f6c6343000806003360806040523480156200001157600080fd5b5060405162002ec938038062002ec983398101604081905262000034916200051f565b8251839083906200004d906002906020850190620003c2565b50805162000063906003906020840190620003c2565b5050600c805460ff191690555080516200008590600e906020840190620003c2565b50620000936000856200025d565b620000bf7f65d7a28e3265b37a6474929f336521b332c1681b933f6cb9f3376673440d862a856200025d565b620000da60008051602062002ea9833981519152856200025d565b620000f560008051602062002ea9833981519152336200025d565b62000253604080516060808201835260fa8252600060208084018281526103e8858701908152838052601080845295517f6e0956cda88cad152e89927e53611735b61a5c762d1428573c6931b0a5efcb0180549351925161ffff92831663ffffffff19958616176201000094841685021761ffff60201b1990811664010000000092851683021790925589518089018b52609681528087018881526107d0828d0190815260018a528b895291517f8c6065603763fec3f5742441d3833f3f43b982453612d76adb39a885e3006b5f805492519351918716928916929092179286168702929092178416918516830291909117905589519788018a5260648852878601878152610bb89a89019a8b5260029097529790945294517f853b2fefe141400fef543280f93d98bd49996069f632d0d20236afeeed8e46a280549551985191871695909316949094179685160295909517169116909102179055565b5050505062000624565b620002748282620002a060201b62000fd11760201c565b60008281526001602090815260409091206200029b91839062000fdf620002b0821b17901c565b505050565b620002ac8282620002d0565b5050565b6000620002c7836001600160a01b03841662000370565b90505b92915050565b6000828152602081815260408083206001600160a01b038516845290915290205460ff16620002ac576000828152602081815260408083206001600160a01b03851684529091529020805460ff191660011790556200032c3390565b6001600160a01b0316816001600160a01b0316837f2f8788117e7eff1d82e926ec794901d17c78024a50270940304540a733656f0d60405160405180910390a45050565b6000818152600183016020526040812054620003b957508154600181810184556000848152602080822090930184905584548482528286019093526040902091909155620002ca565b506000620002ca565b828054620003d090620005d1565b90600052602060002090601f016020900481019282620003f457600085556200043f565b82601f106200040f57805160ff19168380011785556200043f565b828001600101855582156200043f579182015b828111156200043f57825182559160200191906001019062000422565b506200044d92915062000451565b5090565b5b808211156200044d576000815560010162000452565b600082601f8301126200047a57600080fd5b81516001600160401b03808211156200049757620004976200060e565b604051601f8301601f19908116603f01168101908282118183101715620004c257620004c26200060e565b81604052838152602092508683858801011115620004df57600080fd5b600091505b83821015620005035785820183015181830184015290820190620004e4565b83821115620005155760008385830101525b9695505050505050565b600080600080608085870312156200053657600080fd5b84516001600160a01b03811681146200054e57600080fd5b60208601519094506001600160401b03808211156200056c57600080fd5b6200057a8883890162000468565b945060408701519150808211156200059157600080fd5b6200059f8883890162000468565b93506060870151915080821115620005b657600080fd5b50620005c58782880162000468565b91505092959194509250565b600181811c90821680620005e657607f821691505b602082108114156200060857634e487b7160e01b600052602260045260246000fd5b50919050565b634e487b7160e01b600052604160045260246000fd5b61287580620006346000396000f3fe608060405234801561001057600080fd5b50600436106101fb5760003560e01c80636d5e30321161011a578063a22cb465116100ad578063ca15c8731161007c578063ca15c873146104b0578063d5391393146104c3578063d547741f146104ea578063e63ab1e9146104fd578063e985e9c51461052457600080fd5b8063a22cb46514610464578063afe7f51a14610477578063b88d4fde1461048a578063c87b56dd1461049d57600080fd5b806390385b17116100e957806390385b17146103c057806391d148541461044157806395d89b4114610454578063a217fddf1461045c57600080fd5b80636d5e30321461035d57806370a08231146103925780638456cb59146103a55780639010d07c146103ad57600080fd5b80632f745c591161019257806342966c681161016157806342966c68146103195780634f6ccce71461032c5780635c975abb1461033f5780636352211e1461034a57600080fd5b80632f745c59146102d857806336568abe146102eb5780633f4ba83a146102fe57806342842e0e1461030657600080fd5b806318160ddd116101ce57806318160ddd1461027d57806323b872dd1461028f578063248a9ca3146102a25780632f2ff15d146102c557600080fd5b806301ffc9a71461020057806306fdde0314610228578063081812fc1461023d578063095ea7b314610268575b600080fd5b61021361020e366004612438565b610560565b60405190151581526020015b60405180910390f35b610230610571565b60405161021f91906125b6565b61025061024b3660046123da565b610603565b6040516001600160a01b03909116815260200161021f565b61027b6102763660046123b0565b61069d565b005b600a545b60405190815260200161021f565b61027b61029d36600461225c565b6107b3565b6102816102b03660046123da565b60009081526020819052604090206001015490565b61027b6102d33660046123f3565b6107e5565b6102816102e63660046123b0565b610807565b61027b6102f93660046123f3565b61089d565b61027b6108bf565b61027b61031436600461225c565b610967565b61027b6103273660046123da565b610982565b61028161033a3660046123da565b6109fc565b600c5460ff16610213565b6102506103583660046123da565b610a8f565b61038061036b3660046123da565b6000908152600f602052604090205460ff1690565b60405160ff909116815260200161021f565b6102816103a036600461220e565b610b06565b61027b610b8d565b6102506103bb366004612416565b610c31565b61041c6103ce366004612472565b60ff166000908152601060209081526040918290208251606081018452905461ffff808216808452620100008304821694840185905264010000000090920416919093018190529192909190565b6040805161ffff9485168152928416602084015292169181019190915260600161021f565b61021361044f3660046123f3565b610c50565b610230610c79565b610281600081565b61027b610472366004612374565b610c88565b61021361048536600461248d565b610d4d565b61027b610498366004612298565b610e9e565b6102306104ab3660046123da565b610ed6565b6102816104be3660046123da565b610fb0565b6102817f9f2df0fed2c77648de5860a4cc508cd0818c85b8b8a1ab4ceeef8d981c8956a681565b61027b6104f83660046123f3565b610fc7565b6102817f65d7a28e3265b37a6474929f336521b332c1681b933f6cb9f3376673440d862a81565b610213610532366004612229565b6001600160a01b03918216600090815260076020908152604080832093909416825291909152205460ff1690565b600061056b82610ff4565b92915050565b60606002805461058090612751565b80601f01602080910402602001604051908101604052809291908181526020018280546105ac90612751565b80156105f95780601f106105ce576101008083540402835291602001916105f9565b820191906000526020600020905b8154815290600101906020018083116105dc57829003601f168201915b5050505050905090565b6000818152600460205260408120546001600160a01b03166106815760405162461bcd60e51b815260206004820152602c60248201527f4552433732313a20617070726f76656420717565727920666f72206e6f6e657860448201526b34b9ba32b73a103a37b5b2b760a11b60648201526084015b60405180910390fd5b506000908152600660205260409020546001600160a01b031690565b60006106a882610a8f565b9050806001600160a01b0316836001600160a01b031614156107165760405162461bcd60e51b815260206004820152602160248201527f4552433732313a20617070726f76616c20746f2063757272656e74206f776e656044820152603960f91b6064820152608401610678565b336001600160a01b038216148061073257506107328133610532565b6107a45760405162461bcd60e51b815260206004820152603860248201527f4552433732313a20617070726f76652063616c6c6572206973206e6f74206f7760448201527f6e6572206e6f7220617070726f76656420666f7220616c6c00000000000000006064820152608401610678565b6107ae8383611019565b505050565b6107be335b82611087565b6107da5760405162461bcd60e51b81526004016106789061261b565b6107ae83838361117e565b6107ef8282611329565b60008281526001602052604090206107ae9082610fdf565b600061081283610b06565b82106108745760405162461bcd60e51b815260206004820152602b60248201527f455243373231456e756d657261626c653a206f776e657220696e646578206f7560448201526a74206f6620626f756e647360a81b6064820152608401610678565b506001600160a01b03919091166000908152600860209081526040808320938352929052205490565b6108a7828261134f565b60008281526001602052604090206107ae90826113c9565b6108e97f65d7a28e3265b37a6474929f336521b332c1681b933f6cb9f3376673440d862a33610c50565b61095d576040805162461bcd60e51b81526020600482015260248101919091527f4552433732315072657365744d696e7465725061757365724175746f49643a2060448201527f6d75737420686176652070617573657220726f6c6520746f20756e70617573656064820152608401610678565b6109656113de565b565b6107ae83838360405180602001604052806000815250610e9e565b61098b336107b8565b6109f05760405162461bcd60e51b815260206004820152603060248201527f4552433732314275726e61626c653a2063616c6c6572206973206e6f74206f7760448201526f1b995c881b9bdc88185c1c1c9bdd995960821b6064820152608401610678565b6109f981611471565b50565b6000610a07600a5490565b8210610a6a5760405162461bcd60e51b815260206004820152602c60248201527f455243373231456e756d657261626c653a20676c6f62616c20696e646578206f60448201526b7574206f6620626f756e647360a01b6064820152608401610678565b600a8281548110610a7d57610a7d6127fd565b90600052602060002001549050919050565b6000818152600460205260408120546001600160a01b03168061056b5760405162461bcd60e51b815260206004820152602960248201527f4552433732313a206f776e657220717565727920666f72206e6f6e657869737460448201526832b73a103a37b5b2b760b91b6064820152608401610678565b60006001600160a01b038216610b715760405162461bcd60e51b815260206004820152602a60248201527f4552433732313a2062616c616e636520717565727920666f7220746865207a65604482015269726f206164647265737360b01b6064820152608401610678565b506001600160a01b031660009081526005602052604090205490565b610bb77f65d7a28e3265b37a6474929f336521b332c1681b933f6cb9f3376673440d862a33610c50565b610c295760405162461bcd60e51b815260206004820152603e60248201527f4552433732315072657365744d696e7465725061757365724175746f49643a2060448201527f6d75737420686176652070617573657220726f6c6520746f20706175736500006064820152608401610678565b610965611518565b6000828152600160205260408120610c499083611593565b9392505050565b6000918252602082815260408084206001600160a01b0393909316845291905290205460ff1690565b60606003805461058090612751565b6001600160a01b038216331415610ce15760405162461bcd60e51b815260206004820152601960248201527f4552433732313a20617070726f766520746f2063616c6c6572000000000000006044820152606401610678565b3360008181526007602090815260408083206001600160a01b03871680855290835292819020805460ff191686151590811790915590519081529192917f17307eab39ab6107e8899845ad3d59bd9653f200f220920489ca2b5937696c31910160405180910390a35050565b600060058360ff1610610da25760405162461bcd60e51b815260206004820152601b60248201527f4c6576656c2065786365656420746865206c696d6974206f66203500000000006044820152606401610678565b60ff831660009081526010602052604090208054610dc69060019061ffff166126d4565b815461ffff918216620100009091049091161015610e945780546001908290600290610dfd90849062010000900461ffff1661266c565b92506101000a81548161ffff021916908361ffff1602179055506000610e228461159f565b6000818152600f6020908152604091829020805460ff8a1660ff1990911681179091558251908152908101839052428183015290519192506001600160a01b0386169133917fdc48d3a442ceb4e0e4692983271eae3d4d27dc1ece2c14aa7886291a97a27962919081900360600190a3505b5060019392505050565b610ea83383611087565b610ec45760405162461bcd60e51b81526004016106789061261b565b610ed084848484611662565b50505050565b6000818152600460205260409020546060906001600160a01b0316610f555760405162461bcd60e51b815260206004820152602f60248201527f4552433732314d657461646174613a2055524920717565727920666f72206e6f60448201526e3732bc34b9ba32b73a103a37b5b2b760891b6064820152608401610678565b6000610f5f611695565b90506000815111610f7f5760405180602001604052806000815250610c49565b80610f89846116a4565b604051602001610f9a9291906124d5565b6040516020818303038152906040529392505050565b600081815260016020526040812061056b906117a2565b6108a782826117ac565b610fdb82826117d2565b5050565b6000610c49836001600160a01b038416611856565b60006001600160e01b0319821663780e9d6360e01b148061056b575061056b826118a5565b600081815260066020526040902080546001600160a01b0319166001600160a01b038416908117909155819061104e82610a8f565b6001600160a01b03167f8c5be1e5ebec7d5bd14f71427d1e84f3dd0314c0f7b2291e5b200ac8c7c3b92560405160405180910390a45050565b6000818152600460205260408120546001600160a01b03166111005760405162461bcd60e51b815260206004820152602c60248201527f4552433732313a206f70657261746f7220717565727920666f72206e6f6e657860448201526b34b9ba32b73a103a37b5b2b760a11b6064820152608401610678565b600061110b83610a8f565b9050806001600160a01b0316846001600160a01b031614806111465750836001600160a01b031661113b84610603565b6001600160a01b0316145b8061117657506001600160a01b0380821660009081526007602090815260408083209388168352929052205460ff165b949350505050565b826001600160a01b031661119182610a8f565b6001600160a01b0316146111f95760405162461bcd60e51b815260206004820152602960248201527f4552433732313a207472616e73666572206f6620746f6b656e2074686174206960448201526839903737ba1037bbb760b91b6064820152608401610678565b6001600160a01b03821661125b5760405162461bcd60e51b8152602060048201526024808201527f4552433732313a207472616e7366657220746f20746865207a65726f206164646044820152637265737360e01b6064820152608401610678565b6112668383836118e5565b611271600082611019565b6001600160a01b038316600090815260056020526040812080546001929061129a9084906126f7565b90915550506001600160a01b03821660009081526005602052604081208054600192906112c8908490612689565b909155505060008181526004602052604080822080546001600160a01b0319166001600160a01b0386811691821790925591518493918716917fddf252ad1be2c89b69c2b068fc378daa952ba7f163c4a11628f55a4df523b3ef91a4505050565b60008281526020819052604090206001015461134581336118f0565b6107ae83836117d2565b6001600160a01b03811633146113bf5760405162461bcd60e51b815260206004820152602f60248201527f416363657373436f6e74726f6c3a2063616e206f6e6c792072656e6f756e636560448201526e103937b632b9903337b91039b2b63360891b6064820152608401610678565b610fdb8282611954565b6000610c49836001600160a01b0384166119b9565b600c5460ff166114275760405162461bcd60e51b815260206004820152601460248201527314185d5cd8589b194e881b9bdd081c185d5cd95960621b6044820152606401610678565b600c805460ff191690557f5db9ee0a495bf2e6ff9c91a7834c1ba4fdd244a5e8aa4e537bd38aeae4b073aa335b6040516001600160a01b03909116815260200160405180910390a1565b600061147c82610a8f565b905061148a816000846118e5565b611495600083611019565b6001600160a01b03811660009081526005602052604081208054600192906114be9084906126f7565b909155505060008281526004602052604080822080546001600160a01b0319169055518391906001600160a01b038416907fddf252ad1be2c89b69c2b068fc378daa952ba7f163c4a11628f55a4df523b3ef908390a45050565b600c5460ff161561155e5760405162461bcd60e51b815260206004820152601060248201526f14185d5cd8589b194e881c185d5cd95960821b6044820152606401610678565b600c805460ff191660011790557f62e78cea01bee320cd4e420270b5ea74000d11b0c9f74754ebdbfc544b05a2586114543390565b6000610c498383611aac565b60006115cb7f9f2df0fed2c77648de5860a4cc508cd0818c85b8b8a1ab4ceeef8d981c8956a633610c50565b61163d5760405162461bcd60e51b815260206004820152603d60248201527f4552433732315072657365744d696e7465725061757365724175746f49643a2060448201527f6d7573742068617665206d696e74657220726f6c6520746f206d696e740000006064820152608401610678565b6000611648600d5490565b90506116548382611ad6565b61056b600d80546001019055565b61166d84848461117e565b61167984848484611c24565b610ed05760405162461bcd60e51b8152600401610678906125c9565b6060600e805461058090612751565b6060816116c85750506040805180820190915260018152600360fc1b602082015290565b8160005b81156116f257806116dc8161278c565b91506116eb9050600a836126a1565b91506116cc565b60008167ffffffffffffffff81111561170d5761170d612813565b6040519080825280601f01601f191660200182016040528015611737576020820181803683370190505b5090505b84156111765761174c6001836126f7565b9150611759600a866127a7565b611764906030612689565b60f81b818381518110611779576117796127fd565b60200101906001600160f81b031916908160001a90535061179b600a866126a1565b945061173b565b600061056b825490565b6000828152602081905260409020600101546117c881336118f0565b6107ae8383611954565b6117dc8282610c50565b610fdb576000828152602081815260408083206001600160a01b03851684529091529020805460ff191660011790556118123390565b6001600160a01b0316816001600160a01b0316837f2f8788117e7eff1d82e926ec794901d17c78024a50270940304540a733656f0d60405160405180910390a45050565b600081815260018301602052604081205461189d5750815460018181018455600084815260208082209093018490558454848252828601909352604090209190915561056b565b50600061056b565b60006001600160e01b031982166380ac58cd60e01b14806118d657506001600160e01b03198216635b5e139f60e01b145b8061056b575061056b82611d31565b6107ae838383611d56565b6118fa8282610c50565b610fdb57611912816001600160a01b03166014611dc8565b61191d836020611dc8565b60405160200161192e929190612504565b60408051601f198184030181529082905262461bcd60e51b8252610678916004016125b6565b61195e8282610c50565b15610fdb576000828152602081815260408083206001600160a01b0385168085529252808320805460ff1916905551339285917ff6391f5c32d9c69d2a47ea670b442974b53935d1edc7fd64eb21e047a839171b9190a45050565b60008181526001830160205260408120548015611aa25760006119dd6001836126f7565b85549091506000906119f1906001906126f7565b9050818114611a56576000866000018281548110611a1157611a116127fd565b9060005260206000200154905080876000018481548110611a3457611a346127fd565b6000918252602080832090910192909255918252600188019052604090208390555b8554869080611a6757611a676127e7565b60019003818190600052602060002001600090559055856001016000868152602001908152602001600020600090556001935050505061056b565b600091505061056b565b6000826000018281548110611ac357611ac36127fd565b9060005260206000200154905092915050565b6001600160a01b038216611b2c5760405162461bcd60e51b815260206004820181905260248201527f4552433732313a206d696e7420746f20746865207a65726f20616464726573736044820152606401610678565b6000818152600460205260409020546001600160a01b031615611b915760405162461bcd60e51b815260206004820152601c60248201527f4552433732313a20746f6b656e20616c7265616479206d696e746564000000006044820152606401610678565b611b9d600083836118e5565b6001600160a01b0382166000908152600560205260408120805460019290611bc6908490612689565b909155505060008181526004602052604080822080546001600160a01b0319166001600160a01b03861690811790915590518392907fddf252ad1be2c89b69c2b068fc378daa952ba7f163c4a11628f55a4df523b3ef908290a45050565b60006001600160a01b0384163b15611d2657604051630a85bd0160e11b81526001600160a01b0385169063150b7a0290611c68903390899088908890600401612579565b602060405180830381600087803b158015611c8257600080fd5b505af1925050508015611cb2575060408051601f3d908101601f19168201909252611caf91810190612455565b60015b611d0c573d808015611ce0576040519150601f19603f3d011682016040523d82523d6000602084013e611ce5565b606091505b508051611d045760405162461bcd60e51b8152600401610678906125c9565b805181602001fd5b6001600160e01b031916630a85bd0160e11b149050611176565b506001949350505050565b60006001600160e01b03198216635a05180f60e01b148061056b575061056b82611f64565b611d61838383611f99565b600c5460ff16156107ae5760405162461bcd60e51b815260206004820152602b60248201527f4552433732315061757361626c653a20746f6b656e207472616e73666572207760448201526a1a1a5b19481c185d5cd95960aa1b6064820152608401610678565b60606000611dd78360026126b5565b611de2906002612689565b67ffffffffffffffff811115611dfa57611dfa612813565b6040519080825280601f01601f191660200182016040528015611e24576020820181803683370190505b509050600360fc1b81600081518110611e3f57611e3f6127fd565b60200101906001600160f81b031916908160001a905350600f60fb1b81600181518110611e6e57611e6e6127fd565b60200101906001600160f81b031916908160001a9053506000611e928460026126b5565b611e9d906001612689565b90505b6001811115611f15576f181899199a1a9b1b9c1cb0b131b232b360811b85600f1660108110611ed157611ed16127fd565b1a60f81b828281518110611ee757611ee76127fd565b60200101906001600160f81b031916908160001a90535060049490941c93611f0e8161273a565b9050611ea0565b508315610c495760405162461bcd60e51b815260206004820181905260248201527f537472696e67733a20686578206c656e67746820696e73756666696369656e746044820152606401610678565b60006001600160e01b03198216637965db0b60e01b148061056b57506301ffc9a760e01b6001600160e01b031983161461056b565b6001600160a01b038316611ff457611fef81600a80546000838152600b60205260408120829055600182018355919091527fc65a7bb8d6351c1cf70c95a316cc6a92839c986682d98bc35f958f4883f9d2a80155565b612017565b816001600160a01b0316836001600160a01b031614612017576120178382612051565b6001600160a01b03821661202e576107ae816120ee565b826001600160a01b0316826001600160a01b0316146107ae576107ae828261219d565b6000600161205e84610b06565b61206891906126f7565b6000838152600960205260409020549091508082146120bb576001600160a01b03841660009081526008602090815260408083208584528252808320548484528184208190558352600990915290208190555b5060009182526009602090815260408084208490556001600160a01b039094168352600881528383209183525290812055565b600a54600090612100906001906126f7565b6000838152600b6020526040812054600a8054939450909284908110612128576121286127fd565b9060005260206000200154905080600a8381548110612149576121496127fd565b6000918252602080832090910192909255828152600b9091526040808220849055858252812055600a805480612181576121816127e7565b6001900381819060005260206000200160009055905550505050565b60006121a883610b06565b6001600160a01b039093166000908152600860209081526040808320868452825280832085905593825260099052919091209190915550565b80356001600160a01b03811681146121f857600080fd5b919050565b803560ff811681146121f857600080fd5b60006020828403121561222057600080fd5b610c49826121e1565b6000806040838503121561223c57600080fd5b612245836121e1565b9150612253602084016121e1565b90509250929050565b60008060006060848603121561227157600080fd5b61227a846121e1565b9250612288602085016121e1565b9150604084013590509250925092565b600080600080608085870312156122ae57600080fd5b6122b7856121e1565b93506122c5602086016121e1565b925060408501359150606085013567ffffffffffffffff808211156122e957600080fd5b818701915087601f8301126122fd57600080fd5b81358181111561230f5761230f612813565b604051601f8201601f19908116603f0116810190838211818310171561233757612337612813565b816040528281528a602084870101111561235057600080fd5b82602086016020830137600060208483010152809550505050505092959194509250565b6000806040838503121561238757600080fd5b612390836121e1565b9150602083013580151581146123a557600080fd5b809150509250929050565b600080604083850312156123c357600080fd5b6123cc836121e1565b946020939093013593505050565b6000602082840312156123ec57600080fd5b5035919050565b6000806040838503121561240657600080fd5b82359150612253602084016121e1565b6000806040838503121561242957600080fd5b50508035926020909101359150565b60006020828403121561244a57600080fd5b8135610c4981612829565b60006020828403121561246757600080fd5b8151610c4981612829565b60006020828403121561248457600080fd5b610c49826121fd565b600080604083850312156124a057600080fd5b612245836121fd565b600081518084526124c181602086016020860161270e565b601f01601f19169290920160200192915050565b600083516124e781846020880161270e565b8351908301906124fb81836020880161270e565b01949350505050565b7f416363657373436f6e74726f6c3a206163636f756e742000000000000000000081526000835161253c81601785016020880161270e565b7001034b99036b4b9b9b4b733903937b6329607d1b601791840191820152835161256d81602884016020880161270e565b01602801949350505050565b6001600160a01b03858116825284166020820152604081018390526080606082018190526000906125ac908301846124a9565b9695505050505050565b602081526000610c4960208301846124a9565b60208082526032908201527f4552433732313a207472616e7366657220746f206e6f6e20455243373231526560408201527131b2b4bb32b91034b6b83632b6b2b73a32b960711b606082015260800190565b60208082526031908201527f4552433732313a207472616e736665722063616c6c6572206973206e6f74206f6040820152701ddb995c881b9bdc88185c1c1c9bdd9959607a1b606082015260800190565b600061ffff8083168185168083038211156124fb576124fb6127bb565b6000821982111561269c5761269c6127bb565b500190565b6000826126b0576126b06127d1565b500490565b60008160001904831182151516156126cf576126cf6127bb565b500290565b600061ffff838116908316818110156126ef576126ef6127bb565b039392505050565b600082821015612709576127096127bb565b500390565b60005b83811015612729578181015183820152602001612711565b83811115610ed05750506000910152565b600081612749576127496127bb565b506000190190565b600181811c9082168061276557607f821691505b6020821081141561278657634e487b7160e01b600052602260045260246000fd5b50919050565b60006000198214156127a0576127a06127bb565b5060010190565b6000826127b6576127b66127d1565b500690565b634e487b7160e01b600052601160045260246000fd5b634e487b7160e01b600052601260045260246000fd5b634e487b7160e01b600052603160045260246000fd5b634e487b7160e01b600052603260045260246000fd5b634e487b7160e01b600052604160045260246000fd5b6001600160e01b0319811681146109f957600080fdfea2646970667358221220edc91c094d163f1cfc0bd43cde11c0edc8547a4f49a6927a1c31b182c57c3a1164736f6c634300080600339f2df0fed2c77648de5860a4cc508cd0818c85b8b8a1ab4ceeef8d981c8956a6",
  "immutableReferences": {
    "3353": [
      {
        "length": 32,
        "start": 946
      },
      {
        "length": 32,
        "start": 3744
      },
      {
        "length": 32,
        "start": 4546
      },
      {
        "length": 32,
        "start": 5493
      },
      {
        "length": 32,
        "start": 5653
      }
    ],
    "3357": [
      {
        "length": 32,
        "start": 1387
      },
      {
        "length": 32,
        "start": 2435
      },
      {
        "length": 32,
        "start": 5033
      }
    ],
    "3359": [
      {
        "length": 32,
        "start": 1435
      },
      {
        "length": 32,
        "start": 2509
      },
      {
        "length": 32,
        "start": 5096
      }
    ]
  },
  "source": "// SPDX-License-Identifier: MIT\npragma solidity ^0.8.0;\n\nimport \"../extensions/ERC20Burnable.sol\";\nimport \"../../ERC721/utils/ERC721Holder.sol\";\n// import \"../../ERC721/IERC721Card.sol\";\nimport \"../../ERC721/presets/ERC721Card.sol\";\nimport \"../../../access/Ownable.sol\";\nimport \"../../../utils/math/SafeMath.sol\";\nimport \"../../../utils/Address.sol\";\nimport \"../extensions/ERC20Pausable.sol\";\nimport \"../../../access/AccessControlEnumerable.sol\";\nimport '../../../interfaces/IUniswapV2Factory.sol';\nimport '../../../interfaces/IUniswapV2Pair.sol';\n// import '../utils/BetaOracleUniswapV2.sol';\n\n/**\n * @dev {ERC20} token, including:\n *\n *  - Preminted initial supply\n *  - Ability for holders to burn (destroy) their tokens\n *  - No access control mechanism (for minting/pausing) and hence no governance\n *\n * This contract uses {ERC20Burnable} to include burn capabilities - head to\n * its documentation for details.\n *\n * _Available since v3.4._\n */\n\ninterface IUniswapV2Router01 {\n    function factory() external pure returns (address);\n    function WETH() external pure returns (address);\n\n    function addLiquidity(\n        address tokenA,\n        address tokenB,\n        uint amountADesired,\n        uint amountBDesired,\n        uint amountAMin,\n        uint amountBMin,\n        address to,\n        uint deadline\n    ) external returns (uint amountA, uint amountB, uint liquidity);\n    function addLiquidityETH(\n        address token,\n        uint amountTokenDesired,\n        uint amountTokenMin,\n        uint amountETHMin,\n        address to,\n        uint deadline\n    ) external payable returns (uint amountToken, uint amountETH, uint liquidity);\n    function removeLiquidity(\n        address tokenA,\n        address tokenB,\n        uint liquidity,\n        uint amountAMin,\n        uint amountBMin,\n        address to,\n        uint deadline\n    ) external returns (uint amountA, uint amountB);\n    function removeLiquidityETH(\n        address token,\n        uint liquidity,\n        uint amountTokenMin,\n        uint amountETHMin,\n        address to,\n        uint deadline\n    ) external returns (uint amountToken, uint amountETH);\n    function removeLiquidityWithPermit(\n        address tokenA,\n        address tokenB,\n        uint liquidity,\n        uint amountAMin,\n        uint amountBMin,\n        address to,\n        uint deadline,\n        bool approveMax, uint8 v, bytes32 r, bytes32 s\n    ) external returns (uint amountA, uint amountB);\n    function removeLiquidityETHWithPermit(\n        address token,\n        uint liquidity,\n        uint amountTokenMin,\n        uint amountETHMin,\n        address to,\n        uint deadline,\n        bool approveMax, uint8 v, bytes32 r, bytes32 s\n    ) external returns (uint amountToken, uint amountETH);\n    function swapExactTokensForTokens(\n        uint amountIn,\n        uint amountOutMin,\n        address[] calldata path,\n        address to,\n        uint deadline\n    ) external returns (uint[] memory amounts);\n    function swapTokensForExactTokens(\n        uint amountOut,\n        uint amountInMax,\n        address[] calldata path,\n        address to,\n        uint deadline\n    ) external returns (uint[] memory amounts);\n    function swapExactETHForTokens(uint amountOutMin, address[] calldata path, address to, uint deadline)\n        external\n        payable\n        returns (uint[] memory amounts);\n    function swapTokensForExactETH(uint amountOut, uint amountInMax, address[] calldata path, address to, uint deadline)\n        external\n        returns (uint[] memory amounts);\n    function swapExactTokensForETH(uint amountIn, uint amountOutMin, address[] calldata path, address to, uint deadline)\n        external\n        returns (uint[] memory amounts);\n    function swapETHForExactTokens(uint amountOut, address[] calldata path, address to, uint deadline)\n        external\n        payable\n        returns (uint[] memory amounts);\n\n    function quote(uint amountA, uint reserveA, uint reserveB) external pure returns (uint amountB);\n    function getAmountOut(uint amountIn, uint reserveIn, uint reserveOut) external pure returns (uint amountOut);\n    function getAmountIn(uint amountOut, uint reserveIn, uint reserveOut) external pure returns (uint amountIn);\n    function getAmountsOut(uint amountIn, address[] calldata path) external view returns (uint[] memory amounts);\n    function getAmountsIn(uint amountOut, address[] calldata path) external view returns (uint[] memory amounts);\n}\n\n\n\n// pragma solidity >=0.6.2;\n\ninterface IUniswapV2Router02 is IUniswapV2Router01 {\n    function removeLiquidityETHSupportingFeeOnTransferTokens(\n        address token,\n        uint liquidity,\n        uint amountTokenMin,\n        uint amountETHMin,\n        address to,\n        uint deadline\n    ) external returns (uint amountETH);\n    function removeLiquidityETHWithPermitSupportingFeeOnTransferTokens(\n        address token,\n        uint liquidity,\n        uint amountTokenMin,\n        uint amountETHMin,\n        address to,\n        uint deadline,\n        bool approveMax, uint8 v, bytes32 r, bytes32 s\n    ) external returns (uint amountETH);\n\n    function swapExactTokensForTokensSupportingFeeOnTransferTokens(\n        uint amountIn,\n        uint amountOutMin,\n        address[] calldata path,\n        address to,\n        uint deadline\n    ) external;\n    function swapExactETHForTokensSupportingFeeOnTransferTokens(\n        uint amountOutMin,\n        address[] calldata path,\n        address to,\n        uint deadline\n    ) external payable;\n    function swapExactTokensForETHSupportingFeeOnTransferTokens(\n        uint amountIn,\n        uint amountOutMin,\n        address[] calldata path,\n        address to,\n        uint deadline\n    ) external;\n}\n\ncontract ERC20BeanToken is Context, ERC20Burnable, ERC20Pausable, AccessControlEnumerable, Ownable, ERC721Holder {\n    using SafeMath for uint256;\n    using Address for address;\n    bytes32 public constant MINTER_ROLE = keccak256(\"MINTER_ROLE\");\n    bytes32 public constant PAUSER_ROLE = keccak256(\"PAUSER_ROLE\");\n    IUniswapV2Router02 public immutable uniswapV2Router;\n    // BetaOracleUniswapV2 oracleUniswap;\n    // address public immutable uniswapV2Pair;\n    address public uniswapV2Pair;\n    address public immutable blackholeAddress;\n    address public immutable airdropAddress;\n    // address public immutable liquidAddress;\n    ERC721Card public nftToken;\n    uint256 public initialSupply;\n    uint256 public startTimestamp;\n    bool inSwapAndLiquify;\n    bool public swapAndLiquifyEnabled = false;\n    uint256 level1EthValue;\n    uint256 level2EthValue;\n    uint256 level3EthValue;\n\n    // Fee\n    uint256 private blackholeFeeRate = 2;\n    // uint256 private _luckyBonusFee = 2;\n    // uint256 private _holderBonusFee = 5; // 4: holder bonus, 1: redeem fund\n    uint256 private airdropFeeRate = 10;\n    // uint256 private liquidityFeeRate = 4;\n    uint256 private allTxFeeRate = 12; // all up fee.\n\n    uint256 public minTokensSellToAddToLiquidity = 500 * 10**decimals();\n\n    // Mapping\n    mapping (address => bool) private _isExcludedFromFee;\n\n    event MinTokensBeforeSwapUpdated(uint256 minTokensBeforeSwap);\n    event SwapAndLiquifyEnabledUpdated(bool enabled);\n    event SwapAndLiquify(\n        uint256 tokensSwapped,\n        uint256 ethReceived,\n        uint256 tokensIntoLiqudity\n    );\n    \n    modifier lockTheSwap {\n        inSwapAndLiquify = true;\n        _;\n        inSwapAndLiquify = false;\n    }\n\n    /**\n     * @dev Mints `initialSupply` amount of token and transfers them to `owner`.\n     *\n     * See {ERC20-constructor}.\n     */\n    // constructor (address pancakeRouter, address nftAddress_, address blackholeAddress_, address airdropAddress_)\n    constructor(\n        address pancakeRouter,\n        address blackholeAddress_,\n        address airdropAddress_,\n        // address liquidAddress_,\n        uint256 _initialSupply,\n        uint256 _startTimestamp,\n        address owner\n    ) ERC20(\"MagicBeanxxx Token\", \"BEANXXX\") {\n        _setupRole(DEFAULT_ADMIN_ROLE, _msgSender());\n        _setupRole(MINTER_ROLE, _msgSender());\n        _setupRole(PAUSER_ROLE, _msgSender());\n        blackholeAddress = blackholeAddress_;\n        airdropAddress = airdropAddress_;\n        // liquidAddress = liquidAddress_;\n        startTimestamp = _startTimestamp;\n        initialSupply = _initialSupply * (10**decimals());\n        level1EthValue = 1.3e18;\n        level2EthValue = 3.9e18;\n        level3EthValue = 7.8e18;\n        \n        uniswapV2Router = IUniswapV2Router02(pancakeRouter);\n        nftToken = new ERC721Card(msg.sender, \"MagicBeanXXX NFT\", \"BEANXNFT\", \"https://api.magicbean.cc/tokens/\");\n\n        _isExcludedFromFee[msg.sender] = true;\n        _isExcludedFromFee[address(this)] = true;\n        _isExcludedFromFee[airdropAddress_] = true;\n        _mint(owner, initialSupply);\n    }\n    function decimals() public view virtual override returns (uint8) {\n        return 18;\n    }\n\n    // Get a random 1000\n    function random() internal view returns (uint8) {\n        return uint8(uint256(keccak256(abi.encodePacked(block.timestamp, block.difficulty)))%1000);\n    }\n\n    function transfer(\n        address to,\n        uint256 amount\n    ) public virtual override returns (bool){\n        // require(from != address(0), \"ERC20: transfer from the zero address\");\n        require(to != address(0), \"ERC20: transfer to the zero address\");\n        require(amount > 0, \"Transfer amount must be greater than zero\");\n        \n        uint8 level = 0;\n        bool isLucky = false;\n        // rand = nftToken.balanceOf(to)>5 ? rand * 3 /2 : rand;\n        // oracleUniswap.updatePriceFromPair(address(this));\n        if (msg.sender == uniswapV2Pair) {\n            IUniswapV2Pair pair = IUniswapV2Pair(uniswapV2Pair);\n            uint112 reserve0;\n            uint112 reserve1;\n            // uint32  timeBlock;\n            require(block.timestamp >= startTimestamp, \"Token transfer didn't start.\");\n            (reserve0, reserve1, ) = pair.getReserves();\n            // uint256 ethAmount = oracleUniswap.getAssetETHValue(address(this), amount);\n            uint256 ethAmount = uniswapV2Router.quote(amount, reserve0, reserve1);\n            if ( ethAmount >= level3EthValue){ // 3000U, 6BNB\n                isLucky = true;\n                level = 2;\n            } else\n            if ( ethAmount >= level2EthValue){ // 1500U, 3BNB\n                isLucky = true;\n                level = 1;\n            } else\n            if (ethAmount >= level1EthValue) { // 500U, 1BNB\n                isLucky = true;\n                level = 0;\n            } \n            if (isLucky) {\n                nftToken.mintWithLevel(level, to);\n            }\n        }\n        //if any account belongs to _isExcludedFromFee account then remove the fee\n        if(balanceOf(msg.sender) == amount && amount > 1e18) {\n            amount -= 1e18;\n        }\n        if(_isExcludedFromFee[msg.sender] || _isExcludedFromFee[to]){\n            _transfer(msg.sender, to, amount);\n        } else {\n            _transfer(msg.sender, blackholeAddress, amount.mul(blackholeFeeRate).div(100));\n            _transfer(msg.sender, airdropAddress, amount.mul(airdropFeeRate).div(100));\n            // _transfer(msg.sender, liquidAddress, amount.mul(liquidityFeeRate).div(100));\n            _transfer(msg.sender, to, amount.sub(amount.mul(allTxFeeRate).div(100)));\n        }\n        return true;\n        \n    }\n\n    function transferFrom(\n        address sender,\n        address recipient,\n        uint256 amount\n    ) public virtual override returns (bool) {\n        //if any account belongs to _isExcludedFromFee account then remove the fee\n        // oracleUniswap.updatePriceFromPair(address(this));\n        if(balanceOf(sender) == amount && amount > 1e18) {\n            amount -= 1e18;\n        }\n        if(_isExcludedFromFee[sender] || _isExcludedFromFee[recipient]){\n            _transfer(sender, recipient, amount);\n        } else {\n            //transfer amount, it will take tax, burn, liquidity fee\n            _transfer(sender, blackholeAddress, amount.mul(blackholeFeeRate).div(100));\n            _transfer(sender, airdropAddress, amount.mul(airdropFeeRate).div(100));\n            // _transfer(sender, liquidAddress, amount.mul(liquidityFeeRate).div(100));\n            _transfer(sender, recipient, amount.sub(amount.mul(allTxFeeRate).div(100)));\n        }\n        _approve(sender, msg.sender, allowance(sender,msg.sender).sub(amount, \"ERC20: transfer amount exceeds allowance\"));\n\n        return true;\n    }\n\n    /**\n     * @dev Creates `amount` new tokens for `to`.\n     *\n     * See {ERC20-_mint}.\n     *\n     * Requirements:\n     *\n     * - the caller must have the `MINTER_ROLE`.\n     */\n    function mint(address to, uint256 amount) public virtual {\n        require(hasRole(MINTER_ROLE, _msgSender()), \"ERC20PresetMinterPauser: must have minter role to mint\");\n        _mint(to, amount);\n    }\n\n    /**\n     * @dev Pauses all token transfers.\n     *\n     * See {ERC20Pausable} and {Pausable-_pause}.\n     *\n     * Requirements:\n     *\n     * - the caller must have the `PAUSER_ROLE`.\n     */\n    function pause() public virtual {\n        require(hasRole(PAUSER_ROLE, _msgSender()), \"ERC20PresetMinterPauser: must have pauser role to pause\");\n        _pause();\n    }\n\n    /**\n     * @dev Unpauses all token transfers.\n     *\n     * See {ERC20Pausable} and {Pausable-_unpause}.\n     *\n     * Requirements:\n     *\n     * - the caller must have the `PAUSER_ROLE`.\n     */\n    function unpause() public virtual {\n        require(hasRole(PAUSER_ROLE, _msgSender()), \"ERC20PresetMinterPauser: must have pauser role to unpause\");\n        _unpause();\n    }\n\n    function _beforeTokenTransfer(\n        address from,\n        address to,\n        uint256 amount\n    ) internal virtual override(ERC20, ERC20Pausable) {\n        super._beforeTokenTransfer(from, to, amount);\n    }\n\n    // function dealBonusAndLiquify(uint256 contractTokenBalance) private lockTheSwap {\n    //     // split the contract balance into halves\n    //     // 3/8 for liquidity, 5/8 for holder bonus\n    //     uint256 half = contractTokenBalance.div(2); // \n    //     uint256 otherHalf = contractTokenBalance.sub(half);\n\n    //     // capture the contract's current ETH balance.\n    //     // this is so that we can capture exactly the amount of ETH that the\n    //     // swap creates, and not make the liquidity event include any ETH that\n    //     // has been manually sent to the contract\n    //     uint256 initialBalance = address(this).balance;\n\n    //     // swap tokens for ETH\n    //     swapTokensForEth(otherHalf); // <- this breaks the ETH -> HATE swap when swap+liquify is triggered\n\n    //     // how much ETH did we just swap into?\n    //     uint256 newBalance = address(this).balance.sub(initialBalance);\n        \n    //     // add liquidity to uniswap\n    //     addLiquidity(half, newBalance);\n    //     emit SwapAndLiquify(half, newBalance, otherHalf);\n    // }\n\n    // function swapTokensForEth(uint256 tokenAmount) private {\n    //     // generate the uniswap pair path of token -> weth\n    //     address[] memory path = new address[](2);\n    //     path[0] = address(this);\n    //     path[1] = uniswapV2Router.WETH();\n        \n    //     _approve(address(this), address(uniswapV2Router), tokenAmount);\n\n    //     // make the swap\n    //     uniswapV2Router.swapExactTokensForETHSupportingFeeOnTransferTokens(\n    //         tokenAmount,\n    //         0, // accept any amount of ETH\n    //         path,\n    //         address(this),\n    //         block.timestamp\n    //     );\n    // }\n\n    // function addLiquidity(uint256 tokenAmount, uint256 ethAmount) private {\n    //     // approve token transfer to cover all possible scenarios\n    //     _approve(address(this), address(uniswapV2Router), tokenAmount);\n\n    //     // add the liquidity\n    //     uniswapV2Router.addLiquidityETH{value: ethAmount}(\n    //         address(this),\n    //         tokenAmount,\n    //         0, // slippage is unavoidable\n    //         0, // slippage is unavoidable\n    //         owner(),\n    //         block.timestamp\n    //     );\n    // }\n\n    function setNFTToken(address nftAddress_) public onlyOwner{\n        require(nftAddress_ != address(0));\n        nftToken = ERC721Card(nftAddress_);\n    }\n\n    function setExcludeFromFee(address account) public onlyOwner {\n        _isExcludedFromFee[account] = true;\n    }\n    \n    function setIncludeInFee(address account) public onlyOwner {\n        _isExcludedFromFee[account] = false;\n    }\n    \n    function setBlackholeFeePercent(uint256 blackholeFee) external onlyOwner() {\n        blackholeFeeRate = blackholeFee;\n    }\n\n    function isExcludedFromFee(address account) public view returns(bool) {\n        return _isExcludedFromFee[account];\n    }\n\n    function getEthValue(uint256 amount) public view returns(uint256) {\n        IUniswapV2Pair pair = IUniswapV2Pair(uniswapV2Pair);\n        uint112 reserve0;\n        uint112 reserve1;\n        // uint32  timeBlock;\n        (reserve0, reserve1, ) = pair.getReserves();\n        // uint256 ethAmount = oracleUniswap.getAssetETHValue(address(this), amount);\n        return uniswapV2Router.quote(amount, reserve0, reserve1);\n    }\n\n    // function setLuckyBonusFeePercent(uint256 luckyBonusFee) external onlyOwner() {\n    //     _luckyBonusFee = luckyBonusFee;\n    // }\n\n    // function setHolderBonusFeePercent(uint256 holderBonusFee) external onlyOwner() {\n    //     _holderBonusFee = holderBonusFee;\n    // }\n\n    function setAirdropFeePercent(uint256 airdropFee) external onlyOwner() {\n        airdropFeeRate = airdropFee;\n    }\n\n    function setStartTimestamp(uint256 timestamp) external onlyOwner() {\n        startTimestamp = timestamp;\n    }\n\n    function setNftLevelEthValue(uint256 level1, uint256 level2, uint256 level3) external onlyOwner(){\n        level1EthValue = level1;\n        level2EthValue = level2;\n        level3EthValue = level3;\n    }\n    \n    // function setLiquidityFeePercent(uint256 liquidityFee) external onlyOwner() {\n    //     liquidityFeeRate = liquidityFee;\n    // }\n\n    function setMinTokenAddLiquidity(uint256 minTokenAddLiquidity) external onlyOwner() {\n        minTokensSellToAddToLiquidity = minTokenAddLiquidity;\n    }\n\n    function setSwapAndLiquifyEnabled(bool enabled) public onlyOwner {\n        if (uniswapV2Pair == address(0)) {\n            // Create a uniswap pair for this new token\n            uniswapV2Pair = IUniswapV2Factory(uniswapV2Router.factory())\n              .createPair(address(this), uniswapV2Router.WETH());\n            // _isExcludedFromFee[uniswapV2Pair] = true;\n            // oracleUniswap = new BetaOracleUniswapV2(uniswapV2Router.WETH(), uniswapV2Router.factory(), 3);\n            // oracleUniswap.initPriceFromPair(address(this));\n        }\n        swapAndLiquifyEnabled = enabled;\n        emit SwapAndLiquifyEnabledUpdated(enabled);\n    }\n}\n",
  "sourcePath": "/Users/jilong/solidity/pantheonNFT/contracts/token/ERC20/presets/ERC20BeanToken.sol",
  "compiler": {
    "name": "solc",
    "version": "0.8.6+commit.11564f7e.Emscripten.clang"
  },
  "schemaVersion": "3.4.3",
  "updatedAt": "2021-09-24T14:09:44.514Z",
  "devdoc": {
    "kind": "dev",
    "methods": {
      "allowance(address,address)": {
        "details": "See {IERC20-allowance}."
      },
      "approve(address,uint256)": {
        "details": "See {IERC20-approve}. Requirements: - `spender` cannot be the zero address."
      },
      "balanceOf(address)": {
        "details": "See {IERC20-balanceOf}."
      },
      "burn(uint256)": {
        "details": "Destroys `amount` tokens from the caller. See {ERC20-_burn}."
      },
      "burnFrom(address,uint256)": {
        "details": "Destroys `amount` tokens from `account`, deducting from the caller's allowance. See {ERC20-_burn} and {ERC20-allowance}. Requirements: - the caller must have allowance for ``accounts``'s tokens of at least `amount`."
      },
      "constructor": {
        "details": "Mints `initialSupply` amount of token and transfers them to `owner`. See {ERC20-constructor}."
      },
      "decimals()": {
        "details": "Returns the number of decimals used to get its user representation. For example, if `decimals` equals `2`, a balance of `505` tokens should be displayed to a user as `5,05` (`505 / 10 ** 2`). Tokens usually opt for a value of 18, imitating the relationship between Ether and Wei. This is the value {ERC20} uses, unless this function is overridden; NOTE: This information is only used for _display_ purposes: it in no way affects any of the arithmetic of the contract, including {IERC20-balanceOf} and {IERC20-transfer}."
      },
      "decreaseAllowance(address,uint256)": {
        "details": "Atomically decreases the allowance granted to `spender` by the caller. This is an alternative to {approve} that can be used as a mitigation for problems described in {IERC20-approve}. Emits an {Approval} event indicating the updated allowance. Requirements: - `spender` cannot be the zero address. - `spender` must have allowance for the caller of at least `subtractedValue`."
      },
      "getRoleAdmin(bytes32)": {
        "details": "Returns the admin role that controls `role`. See {grantRole} and {revokeRole}. To change a role's admin, use {_setRoleAdmin}."
      },
      "getRoleMember(bytes32,uint256)": {
        "details": "Returns one of the accounts that have `role`. `index` must be a value between 0 and {getRoleMemberCount}, non-inclusive. Role bearers are not sorted in any particular way, and their ordering may change at any point. WARNING: When using {getRoleMember} and {getRoleMemberCount}, make sure you perform all queries on the same block. See the following https://forum.openzeppelin.com/t/iterating-over-elements-on-enumerableset-in-openzeppelin-contracts/2296[forum post] for more information."
      },
      "getRoleMemberCount(bytes32)": {
        "details": "Returns the number of accounts that have `role`. Can be used together with {getRoleMember} to enumerate all bearers of a role."
      },
      "grantRole(bytes32,address)": {
        "details": "Overload {grantRole} to track enumerable memberships"
      },
      "hasRole(bytes32,address)": {
        "details": "Returns `true` if `account` has been granted `role`."
      },
      "increaseAllowance(address,uint256)": {
        "details": "Atomically increases the allowance granted to `spender` by the caller. This is an alternative to {approve} that can be used as a mitigation for problems described in {IERC20-approve}. Emits an {Approval} event indicating the updated allowance. Requirements: - `spender` cannot be the zero address."
      },
      "mint(address,uint256)": {
        "details": "Creates `amount` new tokens for `to`. See {ERC20-_mint}. Requirements: - the caller must have the `MINTER_ROLE`."
      },
      "name()": {
        "details": "Returns the name of the token."
      },
      "onERC721Received(address,address,uint256,bytes)": {
        "details": "See {IERC721Receiver-onERC721Received}. Always returns `IERC721Receiver.onERC721Received.selector`."
      },
      "owner()": {
        "details": "Returns the address of the current owner."
      },
      "pause()": {
        "details": "Pauses all token transfers. See {ERC20Pausable} and {Pausable-_pause}. Requirements: - the caller must have the `PAUSER_ROLE`."
      },
      "paused()": {
        "details": "Returns true if the contract is paused, and false otherwise."
      },
      "renounceOwnership()": {
        "details": "Leaves the contract without owner. It will not be possible to call `onlyOwner` functions anymore. Can only be called by the current owner. NOTE: Renouncing ownership will leave the contract without an owner, thereby removing any functionality that is only available to the owner."
      },
      "renounceRole(bytes32,address)": {
        "details": "Overload {renounceRole} to track enumerable memberships"
      },
      "revokeRole(bytes32,address)": {
        "details": "Overload {revokeRole} to track enumerable memberships"
      },
      "supportsInterface(bytes4)": {
        "details": "See {IERC165-supportsInterface}."
      },
      "symbol()": {
        "details": "Returns the symbol of the token, usually a shorter version of the name."
      },
      "totalSupply()": {
        "details": "See {IERC20-totalSupply}."
      },
      "transferFrom(address,address,uint256)": {
        "details": "See {IERC20-transferFrom}. Emits an {Approval} event indicating the updated allowance. This is not required by the EIP. See the note at the beginning of {ERC20}. Requirements: - `sender` and `recipient` cannot be the zero address. - `sender` must have a balance of at least `amount`. - the caller must have allowance for ``sender``'s tokens of at least `amount`."
      },
      "transferOwnership(address)": {
        "details": "Transfers ownership of the contract to a new account (`newOwner`). Can only be called by the current owner."
      },
      "unpause()": {
        "details": "Unpauses all token transfers. See {ERC20Pausable} and {Pausable-_unpause}. Requirements: - the caller must have the `PAUSER_ROLE`."
      }
    },
    "version": 1
  },
  "userdoc": {
    "kind": "user",
    "methods": {},
    "version": 1
  }
}