{
  "contractName": "ERC20BeanToken",
  "abi": [
    {
      "inputs": [
        {
          "internalType": "address",
          "name": "pancakeRouter",
          "type": "address"
        },
        {
          "internalType": "address",
          "name": "blackholeAddress_",
          "type": "address"
        },
        {
          "internalType": "address",
          "name": "airdropAddress_",
          "type": "address"
        },
        {
          "internalType": "uint256",
          "name": "_initialSupply",
          "type": "uint256"
        },
        {
          "internalType": "address",
          "name": "owner",
          "type": "address"
        }
      ],
      "stateMutability": "nonpayable",
      "type": "constructor"
    },
    {
      "anonymous": false,
      "inputs": [
        {
          "indexed": true,
          "internalType": "address",
          "name": "owner",
          "type": "address"
        },
        {
          "indexed": true,
          "internalType": "address",
          "name": "spender",
          "type": "address"
        },
        {
          "indexed": false,
          "internalType": "uint256",
          "name": "value",
          "type": "uint256"
        }
      ],
      "name": "Approval",
      "type": "event"
    },
    {
      "anonymous": false,
      "inputs": [
        {
          "indexed": false,
          "internalType": "uint256",
          "name": "minTokensBeforeSwap",
          "type": "uint256"
        }
      ],
      "name": "MinTokensBeforeSwapUpdated",
      "type": "event"
    },
    {
      "anonymous": false,
      "inputs": [
        {
          "indexed": true,
          "internalType": "address",
          "name": "previousOwner",
          "type": "address"
        },
        {
          "indexed": true,
          "internalType": "address",
          "name": "newOwner",
          "type": "address"
        }
      ],
      "name": "OwnershipTransferred",
      "type": "event"
    },
    {
      "anonymous": false,
      "inputs": [
        {
          "indexed": false,
          "internalType": "uint256",
          "name": "tokensSwapped",
          "type": "uint256"
        },
        {
          "indexed": false,
          "internalType": "uint256",
          "name": "ethReceived",
          "type": "uint256"
        },
        {
          "indexed": false,
          "internalType": "uint256",
          "name": "tokensIntoLiqudity",
          "type": "uint256"
        }
      ],
      "name": "SwapAndLiquify",
      "type": "event"
    },
    {
      "anonymous": false,
      "inputs": [
        {
          "indexed": false,
          "internalType": "bool",
          "name": "enabled",
          "type": "bool"
        }
      ],
      "name": "SwapAndLiquifyEnabledUpdated",
      "type": "event"
    },
    {
      "anonymous": false,
      "inputs": [
        {
          "indexed": true,
          "internalType": "address",
          "name": "from",
          "type": "address"
        },
        {
          "indexed": true,
          "internalType": "address",
          "name": "to",
          "type": "address"
        },
        {
          "indexed": false,
          "internalType": "uint256",
          "name": "value",
          "type": "uint256"
        }
      ],
      "name": "Transfer",
      "type": "event"
    },
    {
      "inputs": [],
      "name": "airdropAddress",
      "outputs": [
        {
          "internalType": "address",
          "name": "",
          "type": "address"
        }
      ],
      "stateMutability": "view",
      "type": "function"
    },
    {
      "inputs": [
        {
          "internalType": "address",
          "name": "owner",
          "type": "address"
        },
        {
          "internalType": "address",
          "name": "spender",
          "type": "address"
        }
      ],
      "name": "allowance",
      "outputs": [
        {
          "internalType": "uint256",
          "name": "",
          "type": "uint256"
        }
      ],
      "stateMutability": "view",
      "type": "function"
    },
    {
      "inputs": [
        {
          "internalType": "address",
          "name": "spender",
          "type": "address"
        },
        {
          "internalType": "uint256",
          "name": "amount",
          "type": "uint256"
        }
      ],
      "name": "approve",
      "outputs": [
        {
          "internalType": "bool",
          "name": "",
          "type": "bool"
        }
      ],
      "stateMutability": "nonpayable",
      "type": "function"
    },
    {
      "inputs": [
        {
          "internalType": "address",
          "name": "account",
          "type": "address"
        }
      ],
      "name": "balanceOf",
      "outputs": [
        {
          "internalType": "uint256",
          "name": "",
          "type": "uint256"
        }
      ],
      "stateMutability": "view",
      "type": "function"
    },
    {
      "inputs": [],
      "name": "blackholeAddress",
      "outputs": [
        {
          "internalType": "address",
          "name": "",
          "type": "address"
        }
      ],
      "stateMutability": "view",
      "type": "function"
    },
    {
      "inputs": [
        {
          "internalType": "uint256",
          "name": "amount",
          "type": "uint256"
        }
      ],
      "name": "burn",
      "outputs": [],
      "stateMutability": "nonpayable",
      "type": "function"
    },
    {
      "inputs": [
        {
          "internalType": "address",
          "name": "account",
          "type": "address"
        },
        {
          "internalType": "uint256",
          "name": "amount",
          "type": "uint256"
        }
      ],
      "name": "burnFrom",
      "outputs": [],
      "stateMutability": "nonpayable",
      "type": "function"
    },
    {
      "inputs": [
        {
          "internalType": "address",
          "name": "spender",
          "type": "address"
        },
        {
          "internalType": "uint256",
          "name": "subtractedValue",
          "type": "uint256"
        }
      ],
      "name": "decreaseAllowance",
      "outputs": [
        {
          "internalType": "bool",
          "name": "",
          "type": "bool"
        }
      ],
      "stateMutability": "nonpayable",
      "type": "function"
    },
    {
      "inputs": [
        {
          "internalType": "address",
          "name": "spender",
          "type": "address"
        },
        {
          "internalType": "uint256",
          "name": "addedValue",
          "type": "uint256"
        }
      ],
      "name": "increaseAllowance",
      "outputs": [
        {
          "internalType": "bool",
          "name": "",
          "type": "bool"
        }
      ],
      "stateMutability": "nonpayable",
      "type": "function"
    },
    {
      "inputs": [],
      "name": "initialSupply",
      "outputs": [
        {
          "internalType": "uint256",
          "name": "",
          "type": "uint256"
        }
      ],
      "stateMutability": "view",
      "type": "function"
    },
    {
      "inputs": [],
      "name": "minTokensSellToAddToLiquidity",
      "outputs": [
        {
          "internalType": "uint256",
          "name": "",
          "type": "uint256"
        }
      ],
      "stateMutability": "view",
      "type": "function"
    },
    {
      "inputs": [],
      "name": "name",
      "outputs": [
        {
          "internalType": "string",
          "name": "",
          "type": "string"
        }
      ],
      "stateMutability": "view",
      "type": "function"
    },
    {
      "inputs": [],
      "name": "nftToken",
      "outputs": [
        {
          "internalType": "contract ERC721Card",
          "name": "",
          "type": "address"
        }
      ],
      "stateMutability": "view",
      "type": "function"
    },
    {
      "inputs": [
        {
          "internalType": "address",
          "name": "",
          "type": "address"
        },
        {
          "internalType": "address",
          "name": "",
          "type": "address"
        },
        {
          "internalType": "uint256",
          "name": "",
          "type": "uint256"
        },
        {
          "internalType": "bytes",
          "name": "",
          "type": "bytes"
        }
      ],
      "name": "onERC721Received",
      "outputs": [
        {
          "internalType": "bytes4",
          "name": "",
          "type": "bytes4"
        }
      ],
      "stateMutability": "nonpayable",
      "type": "function"
    },
    {
      "inputs": [],
      "name": "owner",
      "outputs": [
        {
          "internalType": "address",
          "name": "",
          "type": "address"
        }
      ],
      "stateMutability": "view",
      "type": "function"
    },
    {
      "inputs": [],
      "name": "renounceOwnership",
      "outputs": [],
      "stateMutability": "nonpayable",
      "type": "function"
    },
    {
      "inputs": [],
      "name": "swapAndLiquifyEnabled",
      "outputs": [
        {
          "internalType": "bool",
          "name": "",
          "type": "bool"
        }
      ],
      "stateMutability": "view",
      "type": "function"
    },
    {
      "inputs": [],
      "name": "symbol",
      "outputs": [
        {
          "internalType": "string",
          "name": "",
          "type": "string"
        }
      ],
      "stateMutability": "view",
      "type": "function"
    },
    {
      "inputs": [],
      "name": "totalSupply",
      "outputs": [
        {
          "internalType": "uint256",
          "name": "",
          "type": "uint256"
        }
      ],
      "stateMutability": "view",
      "type": "function"
    },
    {
      "inputs": [
        {
          "internalType": "address",
          "name": "newOwner",
          "type": "address"
        }
      ],
      "name": "transferOwnership",
      "outputs": [],
      "stateMutability": "nonpayable",
      "type": "function"
    },
    {
      "inputs": [],
      "name": "uniswapV2Pair",
      "outputs": [
        {
          "internalType": "address",
          "name": "",
          "type": "address"
        }
      ],
      "stateMutability": "view",
      "type": "function"
    },
    {
      "inputs": [],
      "name": "uniswapV2Router",
      "outputs": [
        {
          "internalType": "contract IUniswapV2Router02",
          "name": "",
          "type": "address"
        }
      ],
      "stateMutability": "view",
      "type": "function"
    },
    {
      "inputs": [],
      "name": "decimals",
      "outputs": [
        {
          "internalType": "uint8",
          "name": "",
          "type": "uint8"
        }
      ],
      "stateMutability": "view",
      "type": "function"
    },
    {
      "inputs": [
        {
          "internalType": "address",
          "name": "to",
          "type": "address"
        },
        {
          "internalType": "uint256",
          "name": "amount",
          "type": "uint256"
        }
      ],
      "name": "transfer",
      "outputs": [
        {
          "internalType": "bool",
          "name": "",
          "type": "bool"
        }
      ],
      "stateMutability": "nonpayable",
      "type": "function"
    },
    {
      "inputs": [
        {
          "internalType": "address",
          "name": "sender",
          "type": "address"
        },
        {
          "internalType": "address",
          "name": "recipient",
          "type": "address"
        },
        {
          "internalType": "uint256",
          "name": "amount",
          "type": "uint256"
        }
      ],
      "name": "transferFrom",
      "outputs": [
        {
          "internalType": "bool",
          "name": "",
          "type": "bool"
        }
      ],
      "stateMutability": "nonpayable",
      "type": "function"
    },
    {
      "inputs": [
        {
          "internalType": "address",
          "name": "nftAddress_",
          "type": "address"
        }
      ],
      "name": "setNFTToken",
      "outputs": [],
      "stateMutability": "nonpayable",
      "type": "function"
    },
    {
      "inputs": [
        {
          "internalType": "address",
          "name": "account",
          "type": "address"
        }
      ],
      "name": "setExcludeFromFee",
      "outputs": [],
      "stateMutability": "nonpayable",
      "type": "function"
    },
    {
      "inputs": [
        {
          "internalType": "address",
          "name": "account",
          "type": "address"
        }
      ],
      "name": "setIncludeInFee",
      "outputs": [],
      "stateMutability": "nonpayable",
      "type": "function"
    },
    {
      "inputs": [
        {
          "internalType": "uint256",
          "name": "blackholeFee",
          "type": "uint256"
        }
      ],
      "name": "setBlackholeFeePercent",
      "outputs": [],
      "stateMutability": "nonpayable",
      "type": "function"
    },
    {
      "inputs": [
        {
          "internalType": "address",
          "name": "account",
          "type": "address"
        }
      ],
      "name": "isExcludedFromFee",
      "outputs": [
        {
          "internalType": "bool",
          "name": "",
          "type": "bool"
        }
      ],
      "stateMutability": "view",
      "type": "function"
    },
    {
      "inputs": [
        {
          "internalType": "uint256",
          "name": "amount",
          "type": "uint256"
        }
      ],
      "name": "getEthValue",
      "outputs": [
        {
          "internalType": "uint256",
          "name": "",
          "type": "uint256"
        }
      ],
      "stateMutability": "view",
      "type": "function"
    },
    {
      "inputs": [
        {
          "internalType": "uint256",
          "name": "airdropFee",
          "type": "uint256"
        }
      ],
      "name": "setAirdropFeePercent",
      "outputs": [],
      "stateMutability": "nonpayable",
      "type": "function"
    },
    {
      "inputs": [
        {
          "internalType": "uint256",
          "name": "level1",
          "type": "uint256"
        },
        {
          "internalType": "uint256",
          "name": "level2",
          "type": "uint256"
        },
        {
          "internalType": "uint256",
          "name": "level3",
          "type": "uint256"
        }
      ],
      "name": "setNftLevelEthValue",
      "outputs": [],
      "stateMutability": "nonpayable",
      "type": "function"
    },
    {
      "inputs": [
        {
          "internalType": "uint256",
          "name": "minTokenAddLiquidity",
          "type": "uint256"
        }
      ],
      "name": "setMinTokenAddLiquidity",
      "outputs": [],
      "stateMutability": "nonpayable",
      "type": "function"
    },
    {
      "inputs": [
        {
          "internalType": "bool",
          "name": "enabled",
          "type": "bool"
        }
      ],
      "name": "setSwapAndLiquifyEnabled",
      "outputs": [],
      "stateMutability": "nonpayable",
      "type": "function"
    }
  ],
  "bytecode": "0x60e06040526009805461ff00191690556002600d55600a600e55600c600f5560126200002d90600a62000582565b6200003b906101f462000650565b6010553480156200004b57600080fd5b50604051620052e6380380620052e68339810160408190526200006e91620004b7565b604080518082018252601381527f4d616769634265616e2058585820546f6b656e000000000000000000000000006020808301918252835180850190945260058452640848a829cb60db1b908401528151919291620000d091600391620003e6565b508051620000e6906004906020840190620003e6565b50505062000103620000fd620002a860201b60201c565b620002ac565b6001600160601b0319606085811b821660a05284901b1660c05262000126601290565b6200013390600a62000582565b6200013f908362000650565b60085566038d7ea4c68000600a55660aa87bee538000600b55661550f7dca70000600c556001600160601b0319606086901b166080526040513390620001859062000475565b6001600160a01b039091168152608060208083018290526010918301919091526f135859da58d099585b9616160813919560821b60a083015260c06040830181905260089083015267109150539613919560c21b60e0830152610100606083018190528201527f68747470733a2f2f6170692e6d616769636265616e2e63632f746f6b656e732f61012082015261014001604051809103906000f08015801562000233573d6000803e3d6000fd5b50600780546001600160a01b0319166001600160a01b0392831617905533600090815260116020526040808220805460ff19908116600190811790925530845282842080548216831790559387168352912080549092161790556008546200029d908290620002fe565b5050505050620006c5565b3390565b600580546001600160a01b038381166001600160a01b0319831681179093556040519116919082907f8be0079c531659141344cd1fd0a4f28419497f9722a3daafe3b4186f6b6457e090600090a35050565b6001600160a01b038216620003595760405162461bcd60e51b815260206004820152601f60248201527f45524332303a206d696e7420746f20746865207a65726f206164647265737300604482015260640160405180910390fd5b80600260008282546200036d91906200051e565b90915550506001600160a01b038216600090815260208190526040812080548392906200039c9084906200051e565b90915550506040518181526001600160a01b038316906000907fddf252ad1be2c89b69c2b068fc378daa952ba7f163c4a11628f55a4df523b3ef9060200160405180910390a35050565b828054620003f49062000672565b90600052602060002090601f01602090048101928262000418576000855562000463565b82601f106200043357805160ff191683800117855562000463565b8280016001018555821562000463579182015b828111156200046357825182559160200191906001019062000446565b506200047192915062000483565b5090565b612ec9806200241d83390190565b5b8082111562000471576000815560010162000484565b80516001600160a01b0381168114620004b257600080fd5b919050565b600080600080600060a08688031215620004d057600080fd5b620004db866200049a565b9450620004eb602087016200049a565b9350620004fb604087016200049a565b92506060860151915062000512608087016200049a565b90509295509295909350565b60008219821115620005345762000534620006af565b500190565b600181815b808511156200057a5781600019048211156200055e576200055e620006af565b808516156200056c57918102915b93841c93908002906200053e565b509250929050565b60006200059360ff8416836200059a565b9392505050565b600082620005ab575060016200064a565b81620005ba575060006200064a565b8160018114620005d35760028114620005de57620005fe565b60019150506200064a565b60ff841115620005f257620005f2620006af565b50506001821b6200064a565b5060208310610133831016604e8410600b841016171562000623575081810a6200064a565b6200062f838362000539565b8060001904821115620006465762000646620006af565b0290505b92915050565b60008160001904831182151516156200066d576200066d620006af565b500290565b600181811c908216806200068757607f821691505b60208210811415620006a957634e487b7160e01b600052602260045260246000fd5b50919050565b634e487b7160e01b600052601160045260246000fd5b60805160601c60a05160601c60c05160601c611ce06200073d600039600081816104220152818161071b0152610e3c0152600081816103f2015281816106d101528181610dfd0152610ea40152600081816102a8015281816109bf01528181610c4301528181610ffb015261109b0152611ce06000f3fe608060405234801561001057600080fd5b50600436106102115760003560e01c806379cc679011610125578063b27b168b116100ad578063d06fcba81161007c578063d06fcba8146104e2578063d963ce41146104f5578063dd62ed3e14610508578063f2fde38b14610541578063f917e3021461055457600080fd5b8063b27b168b14610496578063baca7333146104a9578063c0054fc1146104bc578063c49b9a80146104cf57600080fd5b80638b32fa23116100f45780638b32fa23146104445780638da5cb5b1461045757806395d89b4114610468578063a457c2d714610470578063a9059cbb1461048357600080fd5b806379cc6790146103da5780637d515a10146103ed5780637f65396c1461041457806384413b651461041d57600080fd5b8063378dc3dc116101a85780634a74bb02116101775780634a74bb02146103585780635342acb41461036a5780635657eb491461039657806370a08231146103a9578063715018a6146103d257600080fd5b8063378dc3dc14610316578063395093511461031f57806342966c681461033257806349bd5a5e1461034557600080fd5b80631694505e116101e45780631694505e146102a357806318160ddd146102e257806323b872dd146102f4578063313ce5671461030757600080fd5b806306fdde0314610216578063095ea7b31461023457806310e71a0214610257578063150b7a021461026c575b600080fd5b61021e610567565b60405161022b9190611abb565b60405180910390f35b6102476102423660046119a7565b6105f9565b604051901515815260200161022b565b61026a610265366004611813565b61060f565b005b61028a61027a3660046118c7565b630a85bd0160e11b949350505050565b6040516001600160e01b0319909116815260200161022b565b6102ca7f000000000000000000000000000000000000000000000000000000000000000081565b6040516001600160a01b03909116815260200161022b565b6002545b60405190815260200161022b565b610247610302366004611886565b610677565b6040516012815260200161022b565b6102e660085481565b61024761032d3660046119a7565b6107d9565b61026a610340366004611a5d565b610810565b6006546102ca906001600160a01b031681565b60095461024790610100900460ff1681565b610247610378366004611813565b6001600160a01b031660009081526011602052604090205460ff1690565b61026a6103a4366004611a5d565b61081d565b6102e66103b7366004611813565b6001600160a01b031660009081526020819052604090205490565b61026a61084c565b61026a6103e83660046119a7565b610882565b6102ca7f000000000000000000000000000000000000000000000000000000000000000081565b6102e660105481565b6102ca7f000000000000000000000000000000000000000000000000000000000000000081565b6102e6610452366004611a5d565b610908565b6005546001600160a01b03166102ca565b61021e610a4a565b61024761047e3660046119a7565b610a59565b6102476104913660046119a7565b610ae8565b61026a6104a4366004611a5d565b610f0a565b61026a6104b7366004611a8f565b610f39565b61026a6104ca366004611813565b610f71565b61026a6104dd3660046119d3565b610fbf565b6007546102ca906001600160a01b031681565b61026a610503366004611813565b611237565b6102e661051636600461184d565b6001600160a01b03918216600090815260016020908152604080832093909416825291909152205490565b61026a61054f366004611813565b611282565b61026a610562366004611a5d565b61131a565b60606003805461057690611bf8565b80601f01602080910402602001604051908101604052809291908181526020018280546105a290611bf8565b80156105ef5780601f106105c4576101008083540402835291602001916105ef565b820191906000526020600020905b8154815290600101906020018083116105d257829003601f168201915b5050505050905090565b6000610606338484611349565b50600192915050565b6005546001600160a01b031633146106425760405162461bcd60e51b815260040161063990611b53565b60405180910390fd5b6001600160a01b03811661065557600080fd5b600780546001600160a01b0319166001600160a01b0392909216919091179055565b6001600160a01b03831660009081526011602052604081205460ff16806106b657506001600160a01b03831660009081526011602052604090205460ff165b156106cb576106c684848461146d565b61077d565b610715847f0000000000000000000000000000000000000000000000000000000000000000610710606461070a600d548861160090919063ffffffff16565b90611613565b61146d565b610754847f0000000000000000000000000000000000000000000000000000000000000000610710606461070a600e548861160090919063ffffffff16565b61077d8484610710610776606461070a600f548961160090919063ffffffff16565b869061161f565b6107cf84336107ca85604051806060016040528060288152602001611c83602891396001600160a01b038a166000908152600160209081526040808320338452909152902054919061162b565b611349565b5060019392505050565b3360008181526001602090815260408083206001600160a01b038716845290915281205490916106069185906107ca908690611b88565b61081a3382611657565b50565b6005546001600160a01b031633146108475760405162461bcd60e51b815260040161063990611b53565b601055565b6005546001600160a01b031633146108765760405162461bcd60e51b815260040161063990611b53565b61088060006117a5565b565b600061088e8333610516565b9050818110156108ec5760405162461bcd60e51b8152602060048201526024808201527f45524332303a206275726e20616d6f756e74206578636565647320616c6c6f77604482015263616e636560e01b6064820152608401610639565b6108f98333848403611349565b6109038383611657565b505050565b60065460408051630240bc6b60e21b815290516000926001600160a01b031691839182918491630902f1ac91600480820192606092909190829003018186803b15801561095457600080fd5b505afa158015610968573d6000803e3d6000fd5b505050506040513d601f19601f8201168201806040525081019061098c9190611a0d565b50604051632b58577b60e21b8152600481018890526001600160701b0380841660248301528216604482015291935091507f00000000000000000000000000000000000000000000000000000000000000006001600160a01b03169063ad615dec9060640160206040518083038186803b158015610a0957600080fd5b505afa158015610a1d573d6000803e3d6000fd5b505050506040513d601f19601f82011682018060405250810190610a419190611a76565b95945050505050565b60606004805461057690611bf8565b3360009081526001602090815260408083206001600160a01b038616845290915281205482811015610adb5760405162461bcd60e51b815260206004820152602560248201527f45524332303a2064656372656173656420616c6c6f77616e63652062656c6f77604482015264207a65726f60d81b6064820152608401610639565b6107cf3385858403611349565b60006001600160a01b038316610b105760405162461bcd60e51b815260040161063990611b10565b60008211610b725760405162461bcd60e51b815260206004820152602960248201527f5472616e7366657220616d6f756e74206d7573742062652067726561746572206044820152687468616e207a65726f60b81b6064820152608401610639565b60065460009081906001600160a01b0316331415610d9a5760065460408051630240bc6b60e21b815290516001600160a01b039092169160009182918491630902f1ac916004808301926060929190829003018186803b158015610bd557600080fd5b505afa158015610be9573d6000803e3d6000fd5b505050506040513d601f19601f82011682018060405250810190610c0d9190611a0d565b50604051632b58577b60e21b8152600481018a90526001600160701b0380841660248301528216604482015291935091506000907f00000000000000000000000000000000000000000000000000000000000000006001600160a01b03169063ad615dec9060640160206040518083038186803b158015610c8d57600080fd5b505afa158015610ca1573d6000803e3d6000fd5b505050506040513d601f19601f82011682018060405250810190610cc59190611a76565b9050600c548110610cdd576001945060029550610d05565b600b548110610cf3576001945060019550610d05565b600a548110610d055760019450600095505b8415610d95576007546040516357f3fa8d60e11b815260ff881660048201526001600160a01b038b811660248301529091169063afe7f51a90604401602060405180830381600087803b158015610d5b57600080fd5b505af1158015610d6f573d6000803e3d6000fd5b505050506040513d601f19601f82011682018060405250810190610d9391906119f0565b505b505050505b3360009081526011602052604090205460ff1680610dd057506001600160a01b03851660009081526011602052604090205460ff165b15610de557610de033868661146d565b610eff565b6006546001600160a01b03163314610e9e57610e36337f0000000000000000000000000000000000000000000000000000000000000000610710606461070a600d548a61160090919063ffffffff16565b610e75337f0000000000000000000000000000000000000000000000000000000000000000610710606461070a600e548a61160090919063ffffffff16565b610de03386610710610e97606461070a600f548b61160090919063ffffffff16565b889061161f565b610edd337f0000000000000000000000000000000000000000000000000000000000000000610710606461070a600d548a61160090919063ffffffff16565b610eff3386610710610e97606461070a600d548b61160090919063ffffffff16565b506001949350505050565b6005546001600160a01b03163314610f345760405162461bcd60e51b815260040161063990611b53565b600d55565b6005546001600160a01b03163314610f635760405162461bcd60e51b815260040161063990611b53565b600a92909255600b55600c55565b6005546001600160a01b03163314610f9b5760405162461bcd60e51b815260040161063990611b53565b6001600160a01b03166000908152601160205260409020805460ff19166001179055565b6005546001600160a01b03163314610fe95760405162461bcd60e51b815260040161063990611b53565b6006546001600160a01b03166111e3577f00000000000000000000000000000000000000000000000000000000000000006001600160a01b031663c45a01556040518163ffffffff1660e01b815260040160206040518083038186803b15801561105257600080fd5b505afa158015611066573d6000803e3d6000fd5b505050506040513d601f19601f8201168201806040525081019061108a9190611830565b6001600160a01b031663c9c65396307f00000000000000000000000000000000000000000000000000000000000000006001600160a01b031663ad5c46486040518163ffffffff1660e01b815260040160206040518083038186803b1580156110f257600080fd5b505afa158015611106573d6000803e3d6000fd5b505050506040513d601f19601f8201168201806040525081019061112a9190611830565b6040516001600160e01b031960e085901b1681526001600160a01b03928316600482015291166024820152604401602060405180830381600087803b15801561117257600080fd5b505af1158015611186573d6000803e3d6000fd5b505050506040513d601f19601f820116820180604052508101906111aa9190611830565b600680546001600160a01b0319166001600160a01b039290921691821790556000908152601160205260409020805460ff191660011790555b600980548215156101000261ff00199091161790556040517f53726dfcaf90650aa7eb35524f4d3220f07413c8d6cb404cc8c18bf5591bc1599061122c90831515815260200190565b60405180910390a150565b6005546001600160a01b031633146112615760405162461bcd60e51b815260040161063990611b53565b6001600160a01b03166000908152601160205260409020805460ff19169055565b6005546001600160a01b031633146112ac5760405162461bcd60e51b815260040161063990611b53565b6001600160a01b0381166113115760405162461bcd60e51b815260206004820152602660248201527f4f776e61626c653a206e6577206f776e657220697320746865207a65726f206160448201526564647265737360d01b6064820152608401610639565b61081a816117a5565b6005546001600160a01b031633146113445760405162461bcd60e51b815260040161063990611b53565b600e55565b6001600160a01b0383166113ab5760405162461bcd60e51b8152602060048201526024808201527f45524332303a20617070726f76652066726f6d20746865207a65726f206164646044820152637265737360e01b6064820152608401610639565b6001600160a01b03821661140c5760405162461bcd60e51b815260206004820152602260248201527f45524332303a20617070726f766520746f20746865207a65726f206164647265604482015261737360f01b6064820152608401610639565b6001600160a01b0383811660008181526001602090815260408083209487168084529482529182902085905590518481527f8c5be1e5ebec7d5bd14f71427d1e84f3dd0314c0f7b2291e5b200ac8c7c3b925910160405180910390a3505050565b6001600160a01b0383166114d15760405162461bcd60e51b815260206004820152602560248201527f45524332303a207472616e736665722066726f6d20746865207a65726f206164604482015264647265737360d81b6064820152608401610639565b6001600160a01b0382166114f75760405162461bcd60e51b815260040161063990611b10565b6001600160a01b0383166000908152602081905260409020548181101561156f5760405162461bcd60e51b815260206004820152602660248201527f45524332303a207472616e7366657220616d6f756e7420657863656564732062604482015265616c616e636560d01b6064820152608401610639565b6001600160a01b038085166000908152602081905260408082208585039055918516815290812080548492906115a6908490611b88565b92505081905550826001600160a01b0316846001600160a01b03167fddf252ad1be2c89b69c2b068fc378daa952ba7f163c4a11628f55a4df523b3ef846040516115f291815260200190565b60405180910390a350505050565b600061160c8284611bc2565b9392505050565b600061160c8284611ba0565b600061160c8284611be1565b6000818484111561164f5760405162461bcd60e51b81526004016106399190611abb565b505050900390565b6001600160a01b0382166116b75760405162461bcd60e51b815260206004820152602160248201527f45524332303a206275726e2066726f6d20746865207a65726f206164647265736044820152607360f81b6064820152608401610639565b6001600160a01b0382166000908152602081905260409020548181101561172b5760405162461bcd60e51b815260206004820152602260248201527f45524332303a206275726e20616d6f756e7420657863656564732062616c616e604482015261636560f01b6064820152608401610639565b6001600160a01b038316600090815260208190526040812083830390556002805484929061175a908490611be1565b90915550506040518281526000906001600160a01b038516907fddf252ad1be2c89b69c2b068fc378daa952ba7f163c4a11628f55a4df523b3ef9060200160405180910390a3505050565b600580546001600160a01b038381166001600160a01b0319831681179093556040519116919082907f8be0079c531659141344cd1fd0a4f28419497f9722a3daafe3b4186f6b6457e090600090a35050565b80516001600160701b038116811461180e57600080fd5b919050565b60006020828403121561182557600080fd5b813561160c81611c5f565b60006020828403121561184257600080fd5b815161160c81611c5f565b6000806040838503121561186057600080fd5b823561186b81611c5f565b9150602083013561187b81611c5f565b809150509250929050565b60008060006060848603121561189b57600080fd5b83356118a681611c5f565b925060208401356118b681611c5f565b929592945050506040919091013590565b600080600080608085870312156118dd57600080fd5b84356118e881611c5f565b935060208501356118f881611c5f565b925060408501359150606085013567ffffffffffffffff8082111561191c57600080fd5b818701915087601f83011261193057600080fd5b81358181111561194257611942611c49565b604051601f8201601f19908116603f0116810190838211818310171561196a5761196a611c49565b816040528281528a602084870101111561198357600080fd5b82602086016020830137600060208483010152809550505050505092959194509250565b600080604083850312156119ba57600080fd5b82356119c581611c5f565b946020939093013593505050565b6000602082840312156119e557600080fd5b813561160c81611c74565b600060208284031215611a0257600080fd5b815161160c81611c74565b600080600060608486031215611a2257600080fd5b611a2b846117f7565b9250611a39602085016117f7565b9150604084015163ffffffff81168114611a5257600080fd5b809150509250925092565b600060208284031215611a6f57600080fd5b5035919050565b600060208284031215611a8857600080fd5b5051919050565b600080600060608486031215611aa457600080fd5b505081359360208301359350604090920135919050565b600060208083528351808285015260005b81811015611ae857858101830151858201604001528201611acc565b81811115611afa576000604083870101525b50601f01601f1916929092016040019392505050565b60208082526023908201527f45524332303a207472616e7366657220746f20746865207a65726f206164647260408201526265737360e81b606082015260800190565b6020808252818101527f4f776e61626c653a2063616c6c6572206973206e6f7420746865206f776e6572604082015260600190565b60008219821115611b9b57611b9b611c33565b500190565b600082611bbd57634e487b7160e01b600052601260045260246000fd5b500490565b6000816000190483118215151615611bdc57611bdc611c33565b500290565b600082821015611bf357611bf3611c33565b500390565b600181811c90821680611c0c57607f821691505b60208210811415611c2d57634e487b7160e01b600052602260045260246000fd5b50919050565b634e487b7160e01b600052601160045260246000fd5b634e487b7160e01b600052604160045260246000fd5b6001600160a01b038116811461081a57600080fd5b801515811461081a57600080fdfe45524332303a207472616e7366657220616d6f756e74206578636565647320616c6c6f77616e6365a2646970667358221220b05befb2eb5877f7c428197c6e1acde96a4bec3a2c047a3d44ce3189745292b664736f6c6343000806003360806040523480156200001157600080fd5b5060405162002ec938038062002ec983398101604081905262000034916200051f565b8251839083906200004d906002906020850190620003c2565b50805162000063906003906020840190620003c2565b5050600c805460ff191690555080516200008590600e906020840190620003c2565b50620000936000856200025d565b620000bf7f65d7a28e3265b37a6474929f336521b332c1681b933f6cb9f3376673440d862a856200025d565b620000da60008051602062002ea9833981519152856200025d565b620000f560008051602062002ea9833981519152336200025d565b62000253604080516060808201835260fa8252600060208084018281526103e8858701908152838052601080845295517f6e0956cda88cad152e89927e53611735b61a5c762d1428573c6931b0a5efcb0180549351925161ffff92831663ffffffff19958616176201000094841685021761ffff60201b1990811664010000000092851683021790925589518089018b52609681528087018881526107d0828d0190815260018a528b895291517f8c6065603763fec3f5742441d3833f3f43b982453612d76adb39a885e3006b5f805492519351918716928916929092179286168702929092178416918516830291909117905589519788018a5260648852878601878152610bb89a89019a8b5260029097529790945294517f853b2fefe141400fef543280f93d98bd49996069f632d0d20236afeeed8e46a280549551985191871695909316949094179685160295909517169116909102179055565b5050505062000624565b620002748282620002a060201b62000fd11760201c565b60008281526001602090815260409091206200029b91839062000fdf620002b0821b17901c565b505050565b620002ac8282620002d0565b5050565b6000620002c7836001600160a01b03841662000370565b90505b92915050565b6000828152602081815260408083206001600160a01b038516845290915290205460ff16620002ac576000828152602081815260408083206001600160a01b03851684529091529020805460ff191660011790556200032c3390565b6001600160a01b0316816001600160a01b0316837f2f8788117e7eff1d82e926ec794901d17c78024a50270940304540a733656f0d60405160405180910390a45050565b6000818152600183016020526040812054620003b957508154600181810184556000848152602080822090930184905584548482528286019093526040902091909155620002ca565b506000620002ca565b828054620003d090620005d1565b90600052602060002090601f016020900481019282620003f457600085556200043f565b82601f106200040f57805160ff19168380011785556200043f565b828001600101855582156200043f579182015b828111156200043f57825182559160200191906001019062000422565b506200044d92915062000451565b5090565b5b808211156200044d576000815560010162000452565b600082601f8301126200047a57600080fd5b81516001600160401b03808211156200049757620004976200060e565b604051601f8301601f19908116603f01168101908282118183101715620004c257620004c26200060e565b81604052838152602092508683858801011115620004df57600080fd5b600091505b83821015620005035785820183015181830184015290820190620004e4565b83821115620005155760008385830101525b9695505050505050565b600080600080608085870312156200053657600080fd5b84516001600160a01b03811681146200054e57600080fd5b60208601519094506001600160401b03808211156200056c57600080fd5b6200057a8883890162000468565b945060408701519150808211156200059157600080fd5b6200059f8883890162000468565b93506060870151915080821115620005b657600080fd5b50620005c58782880162000468565b91505092959194509250565b600181811c90821680620005e657607f821691505b602082108114156200060857634e487b7160e01b600052602260045260246000fd5b50919050565b634e487b7160e01b600052604160045260246000fd5b61287580620006346000396000f3fe608060405234801561001057600080fd5b50600436106101fb5760003560e01c80636d5e30321161011a578063a22cb465116100ad578063ca15c8731161007c578063ca15c873146104b0578063d5391393146104c3578063d547741f146104ea578063e63ab1e9146104fd578063e985e9c51461052457600080fd5b8063a22cb46514610464578063afe7f51a14610477578063b88d4fde1461048a578063c87b56dd1461049d57600080fd5b806390385b17116100e957806390385b17146103c057806391d148541461044157806395d89b4114610454578063a217fddf1461045c57600080fd5b80636d5e30321461035d57806370a08231146103925780638456cb59146103a55780639010d07c146103ad57600080fd5b80632f745c591161019257806342966c681161016157806342966c68146103195780634f6ccce71461032c5780635c975abb1461033f5780636352211e1461034a57600080fd5b80632f745c59146102d857806336568abe146102eb5780633f4ba83a146102fe57806342842e0e1461030657600080fd5b806318160ddd116101ce57806318160ddd1461027d57806323b872dd1461028f578063248a9ca3146102a25780632f2ff15d146102c557600080fd5b806301ffc9a71461020057806306fdde0314610228578063081812fc1461023d578063095ea7b314610268575b600080fd5b61021361020e366004612438565b610560565b60405190151581526020015b60405180910390f35b610230610571565b60405161021f91906125b6565b61025061024b3660046123da565b610603565b6040516001600160a01b03909116815260200161021f565b61027b6102763660046123b0565b61069d565b005b600a545b60405190815260200161021f565b61027b61029d36600461225c565b6107b3565b6102816102b03660046123da565b60009081526020819052604090206001015490565b61027b6102d33660046123f3565b6107e5565b6102816102e63660046123b0565b610807565b61027b6102f93660046123f3565b61089d565b61027b6108bf565b61027b61031436600461225c565b610967565b61027b6103273660046123da565b610982565b61028161033a3660046123da565b6109fc565b600c5460ff16610213565b6102506103583660046123da565b610a8f565b61038061036b3660046123da565b6000908152600f602052604090205460ff1690565b60405160ff909116815260200161021f565b6102816103a036600461220e565b610b06565b61027b610b8d565b6102506103bb366004612416565b610c31565b61041c6103ce366004612472565b60ff166000908152601060209081526040918290208251606081018452905461ffff808216808452620100008304821694840185905264010000000090920416919093018190529192909190565b6040805161ffff9485168152928416602084015292169181019190915260600161021f565b61021361044f3660046123f3565b610c50565b610230610c79565b610281600081565b61027b610472366004612374565b610c88565b61021361048536600461248d565b610d4d565b61027b610498366004612298565b610e9e565b6102306104ab3660046123da565b610ed6565b6102816104be3660046123da565b610fb0565b6102817f9f2df0fed2c77648de5860a4cc508cd0818c85b8b8a1ab4ceeef8d981c8956a681565b61027b6104f83660046123f3565b610fc7565b6102817f65d7a28e3265b37a6474929f336521b332c1681b933f6cb9f3376673440d862a81565b610213610532366004612229565b6001600160a01b03918216600090815260076020908152604080832093909416825291909152205460ff1690565b600061056b82610ff4565b92915050565b60606002805461058090612751565b80601f01602080910402602001604051908101604052809291908181526020018280546105ac90612751565b80156105f95780601f106105ce576101008083540402835291602001916105f9565b820191906000526020600020905b8154815290600101906020018083116105dc57829003601f168201915b5050505050905090565b6000818152600460205260408120546001600160a01b03166106815760405162461bcd60e51b815260206004820152602c60248201527f4552433732313a20617070726f76656420717565727920666f72206e6f6e657860448201526b34b9ba32b73a103a37b5b2b760a11b60648201526084015b60405180910390fd5b506000908152600660205260409020546001600160a01b031690565b60006106a882610a8f565b9050806001600160a01b0316836001600160a01b031614156107165760405162461bcd60e51b815260206004820152602160248201527f4552433732313a20617070726f76616c20746f2063757272656e74206f776e656044820152603960f91b6064820152608401610678565b336001600160a01b038216148061073257506107328133610532565b6107a45760405162461bcd60e51b815260206004820152603860248201527f4552433732313a20617070726f76652063616c6c6572206973206e6f74206f7760448201527f6e6572206e6f7220617070726f76656420666f7220616c6c00000000000000006064820152608401610678565b6107ae8383611019565b505050565b6107be335b82611087565b6107da5760405162461bcd60e51b81526004016106789061261b565b6107ae83838361117e565b6107ef8282611329565b60008281526001602052604090206107ae9082610fdf565b600061081283610b06565b82106108745760405162461bcd60e51b815260206004820152602b60248201527f455243373231456e756d657261626c653a206f776e657220696e646578206f7560448201526a74206f6620626f756e647360a81b6064820152608401610678565b506001600160a01b03919091166000908152600860209081526040808320938352929052205490565b6108a7828261134f565b60008281526001602052604090206107ae90826113c9565b6108e97f65d7a28e3265b37a6474929f336521b332c1681b933f6cb9f3376673440d862a33610c50565b61095d576040805162461bcd60e51b81526020600482015260248101919091527f4552433732315072657365744d696e7465725061757365724175746f49643a2060448201527f6d75737420686176652070617573657220726f6c6520746f20756e70617573656064820152608401610678565b6109656113de565b565b6107ae83838360405180602001604052806000815250610e9e565b61098b336107b8565b6109f05760405162461bcd60e51b815260206004820152603060248201527f4552433732314275726e61626c653a2063616c6c6572206973206e6f74206f7760448201526f1b995c881b9bdc88185c1c1c9bdd995960821b6064820152608401610678565b6109f981611471565b50565b6000610a07600a5490565b8210610a6a5760405162461bcd60e51b815260206004820152602c60248201527f455243373231456e756d657261626c653a20676c6f62616c20696e646578206f60448201526b7574206f6620626f756e647360a01b6064820152608401610678565b600a8281548110610a7d57610a7d6127fd565b90600052602060002001549050919050565b6000818152600460205260408120546001600160a01b03168061056b5760405162461bcd60e51b815260206004820152602960248201527f4552433732313a206f776e657220717565727920666f72206e6f6e657869737460448201526832b73a103a37b5b2b760b91b6064820152608401610678565b60006001600160a01b038216610b715760405162461bcd60e51b815260206004820152602a60248201527f4552433732313a2062616c616e636520717565727920666f7220746865207a65604482015269726f206164647265737360b01b6064820152608401610678565b506001600160a01b031660009081526005602052604090205490565b610bb77f65d7a28e3265b37a6474929f336521b332c1681b933f6cb9f3376673440d862a33610c50565b610c295760405162461bcd60e51b815260206004820152603e60248201527f4552433732315072657365744d696e7465725061757365724175746f49643a2060448201527f6d75737420686176652070617573657220726f6c6520746f20706175736500006064820152608401610678565b610965611518565b6000828152600160205260408120610c499083611593565b9392505050565b6000918252602082815260408084206001600160a01b0393909316845291905290205460ff1690565b60606003805461058090612751565b6001600160a01b038216331415610ce15760405162461bcd60e51b815260206004820152601960248201527f4552433732313a20617070726f766520746f2063616c6c6572000000000000006044820152606401610678565b3360008181526007602090815260408083206001600160a01b03871680855290835292819020805460ff191686151590811790915590519081529192917f17307eab39ab6107e8899845ad3d59bd9653f200f220920489ca2b5937696c31910160405180910390a35050565b600060058360ff1610610da25760405162461bcd60e51b815260206004820152601b60248201527f4c6576656c2065786365656420746865206c696d6974206f66203500000000006044820152606401610678565b60ff831660009081526010602052604090208054610dc69060019061ffff166126d4565b815461ffff918216620100009091049091161015610e945780546001908290600290610dfd90849062010000900461ffff1661266c565b92506101000a81548161ffff021916908361ffff1602179055506000610e228461159f565b6000818152600f6020908152604091829020805460ff8a1660ff1990911681179091558251908152908101839052428183015290519192506001600160a01b0386169133917fdc48d3a442ceb4e0e4692983271eae3d4d27dc1ece2c14aa7886291a97a27962919081900360600190a3505b5060019392505050565b610ea83383611087565b610ec45760405162461bcd60e51b81526004016106789061261b565b610ed084848484611662565b50505050565b6000818152600460205260409020546060906001600160a01b0316610f555760405162461bcd60e51b815260206004820152602f60248201527f4552433732314d657461646174613a2055524920717565727920666f72206e6f60448201526e3732bc34b9ba32b73a103a37b5b2b760891b6064820152608401610678565b6000610f5f611695565b90506000815111610f7f5760405180602001604052806000815250610c49565b80610f89846116a4565b604051602001610f9a9291906124d5565b6040516020818303038152906040529392505050565b600081815260016020526040812061056b906117a2565b6108a782826117ac565b610fdb82826117d2565b5050565b6000610c49836001600160a01b038416611856565b60006001600160e01b0319821663780e9d6360e01b148061056b575061056b826118a5565b600081815260066020526040902080546001600160a01b0319166001600160a01b038416908117909155819061104e82610a8f565b6001600160a01b03167f8c5be1e5ebec7d5bd14f71427d1e84f3dd0314c0f7b2291e5b200ac8c7c3b92560405160405180910390a45050565b6000818152600460205260408120546001600160a01b03166111005760405162461bcd60e51b815260206004820152602c60248201527f4552433732313a206f70657261746f7220717565727920666f72206e6f6e657860448201526b34b9ba32b73a103a37b5b2b760a11b6064820152608401610678565b600061110b83610a8f565b9050806001600160a01b0316846001600160a01b031614806111465750836001600160a01b031661113b84610603565b6001600160a01b0316145b8061117657506001600160a01b0380821660009081526007602090815260408083209388168352929052205460ff165b949350505050565b826001600160a01b031661119182610a8f565b6001600160a01b0316146111f95760405162461bcd60e51b815260206004820152602960248201527f4552433732313a207472616e73666572206f6620746f6b656e2074686174206960448201526839903737ba1037bbb760b91b6064820152608401610678565b6001600160a01b03821661125b5760405162461bcd60e51b8152602060048201526024808201527f4552433732313a207472616e7366657220746f20746865207a65726f206164646044820152637265737360e01b6064820152608401610678565b6112668383836118e5565b611271600082611019565b6001600160a01b038316600090815260056020526040812080546001929061129a9084906126f7565b90915550506001600160a01b03821660009081526005602052604081208054600192906112c8908490612689565b909155505060008181526004602052604080822080546001600160a01b0319166001600160a01b0386811691821790925591518493918716917fddf252ad1be2c89b69c2b068fc378daa952ba7f163c4a11628f55a4df523b3ef91a4505050565b60008281526020819052604090206001015461134581336118f0565b6107ae83836117d2565b6001600160a01b03811633146113bf5760405162461bcd60e51b815260206004820152602f60248201527f416363657373436f6e74726f6c3a2063616e206f6e6c792072656e6f756e636560448201526e103937b632b9903337b91039b2b63360891b6064820152608401610678565b610fdb8282611954565b6000610c49836001600160a01b0384166119b9565b600c5460ff166114275760405162461bcd60e51b815260206004820152601460248201527314185d5cd8589b194e881b9bdd081c185d5cd95960621b6044820152606401610678565b600c805460ff191690557f5db9ee0a495bf2e6ff9c91a7834c1ba4fdd244a5e8aa4e537bd38aeae4b073aa335b6040516001600160a01b03909116815260200160405180910390a1565b600061147c82610a8f565b905061148a816000846118e5565b611495600083611019565b6001600160a01b03811660009081526005602052604081208054600192906114be9084906126f7565b909155505060008281526004602052604080822080546001600160a01b0319169055518391906001600160a01b038416907fddf252ad1be2c89b69c2b068fc378daa952ba7f163c4a11628f55a4df523b3ef908390a45050565b600c5460ff161561155e5760405162461bcd60e51b815260206004820152601060248201526f14185d5cd8589b194e881c185d5cd95960821b6044820152606401610678565b600c805460ff191660011790557f62e78cea01bee320cd4e420270b5ea74000d11b0c9f74754ebdbfc544b05a2586114543390565b6000610c498383611aac565b60006115cb7f9f2df0fed2c77648de5860a4cc508cd0818c85b8b8a1ab4ceeef8d981c8956a633610c50565b61163d5760405162461bcd60e51b815260206004820152603d60248201527f4552433732315072657365744d696e7465725061757365724175746f49643a2060448201527f6d7573742068617665206d696e74657220726f6c6520746f206d696e740000006064820152608401610678565b6000611648600d5490565b90506116548382611ad6565b61056b600d80546001019055565b61166d84848461117e565b61167984848484611c24565b610ed05760405162461bcd60e51b8152600401610678906125c9565b6060600e805461058090612751565b6060816116c85750506040805180820190915260018152600360fc1b602082015290565b8160005b81156116f257806116dc8161278c565b91506116eb9050600a836126a1565b91506116cc565b60008167ffffffffffffffff81111561170d5761170d612813565b6040519080825280601f01601f191660200182016040528015611737576020820181803683370190505b5090505b84156111765761174c6001836126f7565b9150611759600a866127a7565b611764906030612689565b60f81b818381518110611779576117796127fd565b60200101906001600160f81b031916908160001a90535061179b600a866126a1565b945061173b565b600061056b825490565b6000828152602081905260409020600101546117c881336118f0565b6107ae8383611954565b6117dc8282610c50565b610fdb576000828152602081815260408083206001600160a01b03851684529091529020805460ff191660011790556118123390565b6001600160a01b0316816001600160a01b0316837f2f8788117e7eff1d82e926ec794901d17c78024a50270940304540a733656f0d60405160405180910390a45050565b600081815260018301602052604081205461189d5750815460018181018455600084815260208082209093018490558454848252828601909352604090209190915561056b565b50600061056b565b60006001600160e01b031982166380ac58cd60e01b14806118d657506001600160e01b03198216635b5e139f60e01b145b8061056b575061056b82611d31565b6107ae838383611d56565b6118fa8282610c50565b610fdb57611912816001600160a01b03166014611dc8565b61191d836020611dc8565b60405160200161192e929190612504565b60408051601f198184030181529082905262461bcd60e51b8252610678916004016125b6565b61195e8282610c50565b15610fdb576000828152602081815260408083206001600160a01b0385168085529252808320805460ff1916905551339285917ff6391f5c32d9c69d2a47ea670b442974b53935d1edc7fd64eb21e047a839171b9190a45050565b60008181526001830160205260408120548015611aa25760006119dd6001836126f7565b85549091506000906119f1906001906126f7565b9050818114611a56576000866000018281548110611a1157611a116127fd565b9060005260206000200154905080876000018481548110611a3457611a346127fd565b6000918252602080832090910192909255918252600188019052604090208390555b8554869080611a6757611a676127e7565b60019003818190600052602060002001600090559055856001016000868152602001908152602001600020600090556001935050505061056b565b600091505061056b565b6000826000018281548110611ac357611ac36127fd565b9060005260206000200154905092915050565b6001600160a01b038216611b2c5760405162461bcd60e51b815260206004820181905260248201527f4552433732313a206d696e7420746f20746865207a65726f20616464726573736044820152606401610678565b6000818152600460205260409020546001600160a01b031615611b915760405162461bcd60e51b815260206004820152601c60248201527f4552433732313a20746f6b656e20616c7265616479206d696e746564000000006044820152606401610678565b611b9d600083836118e5565b6001600160a01b0382166000908152600560205260408120805460019290611bc6908490612689565b909155505060008181526004602052604080822080546001600160a01b0319166001600160a01b03861690811790915590518392907fddf252ad1be2c89b69c2b068fc378daa952ba7f163c4a11628f55a4df523b3ef908290a45050565b60006001600160a01b0384163b15611d2657604051630a85bd0160e11b81526001600160a01b0385169063150b7a0290611c68903390899088908890600401612579565b602060405180830381600087803b158015611c8257600080fd5b505af1925050508015611cb2575060408051601f3d908101601f19168201909252611caf91810190612455565b60015b611d0c573d808015611ce0576040519150601f19603f3d011682016040523d82523d6000602084013e611ce5565b606091505b508051611d045760405162461bcd60e51b8152600401610678906125c9565b805181602001fd5b6001600160e01b031916630a85bd0160e11b149050611176565b506001949350505050565b60006001600160e01b03198216635a05180f60e01b148061056b575061056b82611f64565b611d61838383611f99565b600c5460ff16156107ae5760405162461bcd60e51b815260206004820152602b60248201527f4552433732315061757361626c653a20746f6b656e207472616e73666572207760448201526a1a1a5b19481c185d5cd95960aa1b6064820152608401610678565b60606000611dd78360026126b5565b611de2906002612689565b67ffffffffffffffff811115611dfa57611dfa612813565b6040519080825280601f01601f191660200182016040528015611e24576020820181803683370190505b509050600360fc1b81600081518110611e3f57611e3f6127fd565b60200101906001600160f81b031916908160001a905350600f60fb1b81600181518110611e6e57611e6e6127fd565b60200101906001600160f81b031916908160001a9053506000611e928460026126b5565b611e9d906001612689565b90505b6001811115611f15576f181899199a1a9b1b9c1cb0b131b232b360811b85600f1660108110611ed157611ed16127fd565b1a60f81b828281518110611ee757611ee76127fd565b60200101906001600160f81b031916908160001a90535060049490941c93611f0e8161273a565b9050611ea0565b508315610c495760405162461bcd60e51b815260206004820181905260248201527f537472696e67733a20686578206c656e67746820696e73756666696369656e746044820152606401610678565b60006001600160e01b03198216637965db0b60e01b148061056b57506301ffc9a760e01b6001600160e01b031983161461056b565b6001600160a01b038316611ff457611fef81600a80546000838152600b60205260408120829055600182018355919091527fc65a7bb8d6351c1cf70c95a316cc6a92839c986682d98bc35f958f4883f9d2a80155565b612017565b816001600160a01b0316836001600160a01b031614612017576120178382612051565b6001600160a01b03821661202e576107ae816120ee565b826001600160a01b0316826001600160a01b0316146107ae576107ae828261219d565b6000600161205e84610b06565b61206891906126f7565b6000838152600960205260409020549091508082146120bb576001600160a01b03841660009081526008602090815260408083208584528252808320548484528184208190558352600990915290208190555b5060009182526009602090815260408084208490556001600160a01b039094168352600881528383209183525290812055565b600a54600090612100906001906126f7565b6000838152600b6020526040812054600a8054939450909284908110612128576121286127fd565b9060005260206000200154905080600a8381548110612149576121496127fd565b6000918252602080832090910192909255828152600b9091526040808220849055858252812055600a805480612181576121816127e7565b6001900381819060005260206000200160009055905550505050565b60006121a883610b06565b6001600160a01b039093166000908152600860209081526040808320868452825280832085905593825260099052919091209190915550565b80356001600160a01b03811681146121f857600080fd5b919050565b803560ff811681146121f857600080fd5b60006020828403121561222057600080fd5b610c49826121e1565b6000806040838503121561223c57600080fd5b612245836121e1565b9150612253602084016121e1565b90509250929050565b60008060006060848603121561227157600080fd5b61227a846121e1565b9250612288602085016121e1565b9150604084013590509250925092565b600080600080608085870312156122ae57600080fd5b6122b7856121e1565b93506122c5602086016121e1565b925060408501359150606085013567ffffffffffffffff808211156122e957600080fd5b818701915087601f8301126122fd57600080fd5b81358181111561230f5761230f612813565b604051601f8201601f19908116603f0116810190838211818310171561233757612337612813565b816040528281528a602084870101111561235057600080fd5b82602086016020830137600060208483010152809550505050505092959194509250565b6000806040838503121561238757600080fd5b612390836121e1565b9150602083013580151581146123a557600080fd5b809150509250929050565b600080604083850312156123c357600080fd5b6123cc836121e1565b946020939093013593505050565b6000602082840312156123ec57600080fd5b5035919050565b6000806040838503121561240657600080fd5b82359150612253602084016121e1565b6000806040838503121561242957600080fd5b50508035926020909101359150565b60006020828403121561244a57600080fd5b8135610c4981612829565b60006020828403121561246757600080fd5b8151610c4981612829565b60006020828403121561248457600080fd5b610c49826121fd565b600080604083850312156124a057600080fd5b612245836121fd565b600081518084526124c181602086016020860161270e565b601f01601f19169290920160200192915050565b600083516124e781846020880161270e565b8351908301906124fb81836020880161270e565b01949350505050565b7f416363657373436f6e74726f6c3a206163636f756e742000000000000000000081526000835161253c81601785016020880161270e565b7001034b99036b4b9b9b4b733903937b6329607d1b601791840191820152835161256d81602884016020880161270e565b01602801949350505050565b6001600160a01b03858116825284166020820152604081018390526080606082018190526000906125ac908301846124a9565b9695505050505050565b602081526000610c4960208301846124a9565b60208082526032908201527f4552433732313a207472616e7366657220746f206e6f6e20455243373231526560408201527131b2b4bb32b91034b6b83632b6b2b73a32b960711b606082015260800190565b60208082526031908201527f4552433732313a207472616e736665722063616c6c6572206973206e6f74206f6040820152701ddb995c881b9bdc88185c1c1c9bdd9959607a1b606082015260800190565b600061ffff8083168185168083038211156124fb576124fb6127bb565b6000821982111561269c5761269c6127bb565b500190565b6000826126b0576126b06127d1565b500490565b60008160001904831182151516156126cf576126cf6127bb565b500290565b600061ffff838116908316818110156126ef576126ef6127bb565b039392505050565b600082821015612709576127096127bb565b500390565b60005b83811015612729578181015183820152602001612711565b83811115610ed05750506000910152565b600081612749576127496127bb565b506000190190565b600181811c9082168061276557607f821691505b6020821081141561278657634e487b7160e01b600052602260045260246000fd5b50919050565b60006000198214156127a0576127a06127bb565b5060010190565b6000826127b6576127b66127d1565b500690565b634e487b7160e01b600052601160045260246000fd5b634e487b7160e01b600052601260045260246000fd5b634e487b7160e01b600052603160045260246000fd5b634e487b7160e01b600052603260045260246000fd5b634e487b7160e01b600052604160045260246000fd5b6001600160e01b0319811681146109f957600080fdfea2646970667358221220edc91c094d163f1cfc0bd43cde11c0edc8547a4f49a6927a1c31b182c57c3a1164736f6c634300080600339f2df0fed2c77648de5860a4cc508cd0818c85b8b8a1ab4ceeef8d981c8956a6",
  "immutableReferences": {
    "3298": [
      {
        "length": 32,
        "start": 680
      },
      {
        "length": 32,
        "start": 2495
      },
      {
        "length": 32,
        "start": 3139
      },
      {
        "length": 32,
        "start": 4091
      },
      {
        "length": 32,
        "start": 4251
      }
    ],
    "3302": [
      {
        "length": 32,
        "start": 1010
      },
      {
        "length": 32,
        "start": 1745
      },
      {
        "length": 32,
        "start": 3581
      },
      {
        "length": 32,
        "start": 3748
      }
    ],
    "3304": [
      {
        "length": 32,
        "start": 1058
      },
      {
        "length": 32,
        "start": 1819
      },
      {
        "length": 32,
        "start": 3644
      }
    ]
  },
  "source": "// SPDX-License-Identifier: MIT\npragma solidity ^0.8.0;\n\nimport \"../extensions/ERC20Burnable.sol\";\nimport \"../../ERC721/utils/ERC721Holder.sol\";\n// import \"../../ERC721/IERC721Card.sol\";\nimport \"../../ERC721/presets/ERC721Card.sol\";\nimport \"../../../access/Ownable.sol\";\nimport \"../../../utils/math/SafeMath.sol\";\nimport \"../../../utils/Address.sol\";\nimport '../../../interfaces/IUniswapV2Factory.sol';\nimport '../../../interfaces/IUniswapV2Pair.sol';\n// import '../utils/BetaOracleUniswapV2.sol';\n\n/**\n * @dev {ERC20} token, including:\n *\n *  - Preminted initial supply\n *  - Ability for holders to burn (destroy) their tokens\n *  - No access control mechanism (for minting/pausing) and hence no governance\n *\n * This contract uses {ERC20Burnable} to include burn capabilities - head to\n * its documentation for details.\n *\n * _Available since v3.4._\n */\n\ninterface IUniswapV2Router01 {\n    function factory() external pure returns (address);\n    function WETH() external pure returns (address);\n\n    function addLiquidity(\n        address tokenA,\n        address tokenB,\n        uint amountADesired,\n        uint amountBDesired,\n        uint amountAMin,\n        uint amountBMin,\n        address to,\n        uint deadline\n    ) external returns (uint amountA, uint amountB, uint liquidity);\n    function addLiquidityETH(\n        address token,\n        uint amountTokenDesired,\n        uint amountTokenMin,\n        uint amountETHMin,\n        address to,\n        uint deadline\n    ) external payable returns (uint amountToken, uint amountETH, uint liquidity);\n    function removeLiquidity(\n        address tokenA,\n        address tokenB,\n        uint liquidity,\n        uint amountAMin,\n        uint amountBMin,\n        address to,\n        uint deadline\n    ) external returns (uint amountA, uint amountB);\n    function removeLiquidityETH(\n        address token,\n        uint liquidity,\n        uint amountTokenMin,\n        uint amountETHMin,\n        address to,\n        uint deadline\n    ) external returns (uint amountToken, uint amountETH);\n    function removeLiquidityWithPermit(\n        address tokenA,\n        address tokenB,\n        uint liquidity,\n        uint amountAMin,\n        uint amountBMin,\n        address to,\n        uint deadline,\n        bool approveMax, uint8 v, bytes32 r, bytes32 s\n    ) external returns (uint amountA, uint amountB);\n    function removeLiquidityETHWithPermit(\n        address token,\n        uint liquidity,\n        uint amountTokenMin,\n        uint amountETHMin,\n        address to,\n        uint deadline,\n        bool approveMax, uint8 v, bytes32 r, bytes32 s\n    ) external returns (uint amountToken, uint amountETH);\n    function swapExactTokensForTokens(\n        uint amountIn,\n        uint amountOutMin,\n        address[] calldata path,\n        address to,\n        uint deadline\n    ) external returns (uint[] memory amounts);\n    function swapTokensForExactTokens(\n        uint amountOut,\n        uint amountInMax,\n        address[] calldata path,\n        address to,\n        uint deadline\n    ) external returns (uint[] memory amounts);\n    function swapExactETHForTokens(uint amountOutMin, address[] calldata path, address to, uint deadline)\n        external\n        payable\n        returns (uint[] memory amounts);\n    function swapTokensForExactETH(uint amountOut, uint amountInMax, address[] calldata path, address to, uint deadline)\n        external\n        returns (uint[] memory amounts);\n    function swapExactTokensForETH(uint amountIn, uint amountOutMin, address[] calldata path, address to, uint deadline)\n        external\n        returns (uint[] memory amounts);\n    function swapETHForExactTokens(uint amountOut, address[] calldata path, address to, uint deadline)\n        external\n        payable\n        returns (uint[] memory amounts);\n\n    function quote(uint amountA, uint reserveA, uint reserveB) external pure returns (uint amountB);\n    function getAmountOut(uint amountIn, uint reserveIn, uint reserveOut) external pure returns (uint amountOut);\n    function getAmountIn(uint amountOut, uint reserveIn, uint reserveOut) external pure returns (uint amountIn);\n    function getAmountsOut(uint amountIn, address[] calldata path) external view returns (uint[] memory amounts);\n    function getAmountsIn(uint amountOut, address[] calldata path) external view returns (uint[] memory amounts);\n}\n\n\n\n// pragma solidity >=0.6.2;\n\ninterface IUniswapV2Router02 is IUniswapV2Router01 {\n    function removeLiquidityETHSupportingFeeOnTransferTokens(\n        address token,\n        uint liquidity,\n        uint amountTokenMin,\n        uint amountETHMin,\n        address to,\n        uint deadline\n    ) external returns (uint amountETH);\n    function removeLiquidityETHWithPermitSupportingFeeOnTransferTokens(\n        address token,\n        uint liquidity,\n        uint amountTokenMin,\n        uint amountETHMin,\n        address to,\n        uint deadline,\n        bool approveMax, uint8 v, bytes32 r, bytes32 s\n    ) external returns (uint amountETH);\n\n    function swapExactTokensForTokensSupportingFeeOnTransferTokens(\n        uint amountIn,\n        uint amountOutMin,\n        address[] calldata path,\n        address to,\n        uint deadline\n    ) external;\n    function swapExactETHForTokensSupportingFeeOnTransferTokens(\n        uint amountOutMin,\n        address[] calldata path,\n        address to,\n        uint deadline\n    ) external payable;\n    function swapExactTokensForETHSupportingFeeOnTransferTokens(\n        uint amountIn,\n        uint amountOutMin,\n        address[] calldata path,\n        address to,\n        uint deadline\n    ) external;\n}\n\ncontract ERC20BeanToken is ERC20Burnable, Ownable, ERC721Holder {\n    using SafeMath for uint256;\n    using Address for address;\n    IUniswapV2Router02 public immutable uniswapV2Router;\n    // BetaOracleUniswapV2 oracleUniswap;\n    // address public immutable uniswapV2Pair;\n    address public uniswapV2Pair;\n    address public immutable blackholeAddress;\n    address public immutable airdropAddress;\n    // address public immutable liquidAddress;\n    ERC721Card public nftToken;\n    uint256 public initialSupply;\n    bool inSwapAndLiquify;\n    bool public swapAndLiquifyEnabled = false;\n    uint256 level1EthValue;\n    uint256 level2EthValue;\n    uint256 level3EthValue;\n\n    // Fee\n    uint256 private blackholeFeeRate = 2;\n    // uint256 private _luckyBonusFee = 2;\n    // uint256 private _holderBonusFee = 5; // 4: holder bonus, 1: redeem fund\n    uint256 private airdropFeeRate = 10;\n    // uint256 private liquidityFeeRate = 4;\n    uint256 private allTxFeeRate = 12; // all up fee.\n\n    uint256 public minTokensSellToAddToLiquidity = 500 * 10**decimals();\n\n    // Mapping\n    mapping (address => bool) private _isExcludedFromFee;\n\n    event MinTokensBeforeSwapUpdated(uint256 minTokensBeforeSwap);\n    event SwapAndLiquifyEnabledUpdated(bool enabled);\n    event SwapAndLiquify(\n        uint256 tokensSwapped,\n        uint256 ethReceived,\n        uint256 tokensIntoLiqudity\n    );\n    \n    modifier lockTheSwap {\n        inSwapAndLiquify = true;\n        _;\n        inSwapAndLiquify = false;\n    }\n\n    /**\n     * @dev Mints `initialSupply` amount of token and transfers them to `owner`.\n     *\n     * See {ERC20-constructor}.\n     */\n    // constructor (address pancakeRouter, address nftAddress_, address blackholeAddress_, address airdropAddress_)\n    constructor(\n        address pancakeRouter,\n        address blackholeAddress_,\n        address airdropAddress_,\n        // address liquidAddress_,\n        uint256 _initialSupply,\n        address owner\n    ) ERC20(\"MagicBean XXX Token\", \"BEANX\") {\n        \n        blackholeAddress = blackholeAddress_;\n        airdropAddress = airdropAddress_;\n        // liquidAddress = liquidAddress_;\n        initialSupply = _initialSupply * (10**decimals());\n        level1EthValue = 0.001e18;\n        level2EthValue = 0.003e18;\n        level3EthValue = 0.006e18;\n        \n        uniswapV2Router = IUniswapV2Router02(pancakeRouter);\n        nftToken = new ERC721Card(msg.sender, \"MagicBeanXXX NFT\", \"BEANXNFT\", \"https://api.magicbean.cc/tokens/\");\n\n        _isExcludedFromFee[msg.sender] = true;\n        _isExcludedFromFee[address(this)] = true;\n        _isExcludedFromFee[airdropAddress_] = true;\n        _mint(owner, initialSupply);\n    }\n    function decimals() public view virtual override returns (uint8) {\n        return 18;\n    }\n\n    // Get a random 1000\n    function random() internal view returns (uint8) {\n        return uint8(uint256(keccak256(abi.encodePacked(block.timestamp, block.difficulty)))%1000);\n    }\n\n    function transfer(\n        address to,\n        uint256 amount\n    ) public virtual override returns (bool){\n        // require(from != address(0), \"ERC20: transfer from the zero address\");\n        require(to != address(0), \"ERC20: transfer to the zero address\");\n        require(amount > 0, \"Transfer amount must be greater than zero\");\n        \n        uint8 level = 0;\n        bool isLucky = false;\n        // rand = nftToken.balanceOf(to)>5 ? rand * 3 /2 : rand;\n        // oracleUniswap.updatePriceFromPair(address(this));\n        if (msg.sender == uniswapV2Pair) {\n            IUniswapV2Pair pair = IUniswapV2Pair(uniswapV2Pair);\n            uint112 reserve0;\n            uint112 reserve1;\n            // uint32  timeBlock;\n            (reserve0, reserve1, ) = pair.getReserves();\n            // uint256 ethAmount = oracleUniswap.getAssetETHValue(address(this), amount);\n            uint256 ethAmount = uniswapV2Router.quote(amount, reserve0, reserve1);\n            if ( ethAmount >= level3EthValue){ // 3000U, 6BNB\n                isLucky = true;\n                level = 2;\n            } else\n            if ( ethAmount >= level2EthValue){ // 1500U, 3BNB\n                isLucky = true;\n                level = 1;\n            } else\n            if (ethAmount >= level1EthValue) { // 500U, 1BNB\n                isLucky = true;\n                level = 0;\n            } \n            if (isLucky) {\n                nftToken.mintWithLevel(level, to);\n            }\n        }\n        //if any account belongs to _isExcludedFromFee account then remove the fee\n        if(_isExcludedFromFee[msg.sender] || _isExcludedFromFee[to]){\n            _transfer(msg.sender, to, amount);\n        } else if (msg.sender != uniswapV2Pair) {\n            _transfer(msg.sender, blackholeAddress, amount.mul(blackholeFeeRate).div(100));\n            _transfer(msg.sender, airdropAddress, amount.mul(airdropFeeRate).div(100));\n            // _transfer(msg.sender, liquidAddress, amount.mul(liquidityFeeRate).div(100));\n            _transfer(msg.sender, to, amount.sub(amount.mul(allTxFeeRate).div(100)));\n        } else {\n            _transfer(msg.sender, blackholeAddress, amount.mul(blackholeFeeRate).div(100));\n            _transfer(msg.sender, to, amount.sub(amount.mul(blackholeFeeRate).div(100)));\n        }\n        return true;\n        \n    }\n\n    function transferFrom(\n        address sender,\n        address recipient,\n        uint256 amount\n    ) public virtual override returns (bool) {\n        //if any account belongs to _isExcludedFromFee account then remove the fee\n        // oracleUniswap.updatePriceFromPair(address(this));\n        if(_isExcludedFromFee[sender] || _isExcludedFromFee[recipient]){\n            _transfer(sender, recipient, amount);\n        } else {\n            //transfer amount, it will take tax, burn, liquidity fee\n            _transfer(sender, blackholeAddress, amount.mul(blackholeFeeRate).div(100));\n            _transfer(sender, airdropAddress, amount.mul(airdropFeeRate).div(100));\n            // _transfer(sender, liquidAddress, amount.mul(liquidityFeeRate).div(100));\n            _transfer(sender, recipient, amount.sub(amount.mul(allTxFeeRate).div(100)));\n        }\n        _approve(sender, msg.sender, allowance(sender,msg.sender).sub(amount, \"ERC20: transfer amount exceeds allowance\"));\n\n        return true;\n    }\n\n    // function dealBonusAndLiquify(uint256 contractTokenBalance) private lockTheSwap {\n    //     // split the contract balance into halves\n    //     // 3/8 for liquidity, 5/8 for holder bonus\n    //     uint256 half = contractTokenBalance.div(2); // \n    //     uint256 otherHalf = contractTokenBalance.sub(half);\n\n    //     // capture the contract's current ETH balance.\n    //     // this is so that we can capture exactly the amount of ETH that the\n    //     // swap creates, and not make the liquidity event include any ETH that\n    //     // has been manually sent to the contract\n    //     uint256 initialBalance = address(this).balance;\n\n    //     // swap tokens for ETH\n    //     swapTokensForEth(otherHalf); // <- this breaks the ETH -> HATE swap when swap+liquify is triggered\n\n    //     // how much ETH did we just swap into?\n    //     uint256 newBalance = address(this).balance.sub(initialBalance);\n        \n    //     // add liquidity to uniswap\n    //     addLiquidity(half, newBalance);\n    //     emit SwapAndLiquify(half, newBalance, otherHalf);\n    // }\n\n    // function swapTokensForEth(uint256 tokenAmount) private {\n    //     // generate the uniswap pair path of token -> weth\n    //     address[] memory path = new address[](2);\n    //     path[0] = address(this);\n    //     path[1] = uniswapV2Router.WETH();\n        \n    //     _approve(address(this), address(uniswapV2Router), tokenAmount);\n\n    //     // make the swap\n    //     uniswapV2Router.swapExactTokensForETHSupportingFeeOnTransferTokens(\n    //         tokenAmount,\n    //         0, // accept any amount of ETH\n    //         path,\n    //         address(this),\n    //         block.timestamp\n    //     );\n    // }\n\n    // function addLiquidity(uint256 tokenAmount, uint256 ethAmount) private {\n    //     // approve token transfer to cover all possible scenarios\n    //     _approve(address(this), address(uniswapV2Router), tokenAmount);\n\n    //     // add the liquidity\n    //     uniswapV2Router.addLiquidityETH{value: ethAmount}(\n    //         address(this),\n    //         tokenAmount,\n    //         0, // slippage is unavoidable\n    //         0, // slippage is unavoidable\n    //         owner(),\n    //         block.timestamp\n    //     );\n    // }\n\n    function setNFTToken(address nftAddress_) public onlyOwner{\n        require(nftAddress_ != address(0));\n        nftToken = ERC721Card(nftAddress_);\n    }\n\n    function setExcludeFromFee(address account) public onlyOwner {\n        _isExcludedFromFee[account] = true;\n    }\n    \n    function setIncludeInFee(address account) public onlyOwner {\n        _isExcludedFromFee[account] = false;\n    }\n    \n    function setBlackholeFeePercent(uint256 blackholeFee) external onlyOwner() {\n        blackholeFeeRate = blackholeFee;\n    }\n\n    function isExcludedFromFee(address account) public view returns(bool) {\n        return _isExcludedFromFee[account];\n    }\n\n    function getEthValue(uint256 amount) public view returns(uint256) {\n        IUniswapV2Pair pair = IUniswapV2Pair(uniswapV2Pair);\n        uint112 reserve0;\n        uint112 reserve1;\n        // uint32  timeBlock;\n        (reserve0, reserve1, ) = pair.getReserves();\n        // uint256 ethAmount = oracleUniswap.getAssetETHValue(address(this), amount);\n        return uniswapV2Router.quote(amount, reserve0, reserve1);\n    }\n\n    // function setLuckyBonusFeePercent(uint256 luckyBonusFee) external onlyOwner() {\n    //     _luckyBonusFee = luckyBonusFee;\n    // }\n\n    // function setHolderBonusFeePercent(uint256 holderBonusFee) external onlyOwner() {\n    //     _holderBonusFee = holderBonusFee;\n    // }\n\n    function setAirdropFeePercent(uint256 airdropFee) external onlyOwner() {\n        airdropFeeRate = airdropFee;\n    }\n\n    function setNftLevelEthValue(uint256 level1, uint256 level2, uint256 level3) external onlyOwner(){\n        level1EthValue = level1;\n        level2EthValue = level2;\n        level3EthValue = level3;\n    }\n    \n    // function setLiquidityFeePercent(uint256 liquidityFee) external onlyOwner() {\n    //     liquidityFeeRate = liquidityFee;\n    // }\n\n    function setMinTokenAddLiquidity(uint256 minTokenAddLiquidity) external onlyOwner() {\n        minTokensSellToAddToLiquidity = minTokenAddLiquidity;\n    }\n\n    function setSwapAndLiquifyEnabled(bool enabled) public onlyOwner {\n        if (uniswapV2Pair == address(0)) {\n            // Create a uniswap pair for this new token\n            uniswapV2Pair = IUniswapV2Factory(uniswapV2Router.factory())\n              .createPair(address(this), uniswapV2Router.WETH());\n            _isExcludedFromFee[uniswapV2Pair] = true;\n            // oracleUniswap = new BetaOracleUniswapV2(uniswapV2Router.WETH(), uniswapV2Router.factory(), 3);\n            // oracleUniswap.initPriceFromPair(address(this));\n        }\n        swapAndLiquifyEnabled = enabled;\n        emit SwapAndLiquifyEnabledUpdated(enabled);\n    }\n}\n",
  "sourcePath": "/Users/jilong/solidity/pantheonNFT/contracts/token/ERC20/presets/ERC20BeanToken.sol",
  "compiler": {
    "name": "solc",
    "version": "0.8.6+commit.11564f7e.Emscripten.clang"
  },
  "schemaVersion": "3.4.3",
  "updatedAt": "2021-09-16T12:26:02.731Z",
  "devdoc": {
    "kind": "dev",
    "methods": {
      "allowance(address,address)": {
        "details": "See {IERC20-allowance}."
      },
      "approve(address,uint256)": {
        "details": "See {IERC20-approve}. Requirements: - `spender` cannot be the zero address."
      },
      "balanceOf(address)": {
        "details": "See {IERC20-balanceOf}."
      },
      "burn(uint256)": {
        "details": "Destroys `amount` tokens from the caller. See {ERC20-_burn}."
      },
      "burnFrom(address,uint256)": {
        "details": "Destroys `amount` tokens from `account`, deducting from the caller's allowance. See {ERC20-_burn} and {ERC20-allowance}. Requirements: - the caller must have allowance for ``accounts``'s tokens of at least `amount`."
      },
      "constructor": {
        "details": "Mints `initialSupply` amount of token and transfers them to `owner`. See {ERC20-constructor}."
      },
      "decimals()": {
        "details": "Returns the number of decimals used to get its user representation. For example, if `decimals` equals `2`, a balance of `505` tokens should be displayed to a user as `5,05` (`505 / 10 ** 2`). Tokens usually opt for a value of 18, imitating the relationship between Ether and Wei. This is the value {ERC20} uses, unless this function is overridden; NOTE: This information is only used for _display_ purposes: it in no way affects any of the arithmetic of the contract, including {IERC20-balanceOf} and {IERC20-transfer}."
      },
      "decreaseAllowance(address,uint256)": {
        "details": "Atomically decreases the allowance granted to `spender` by the caller. This is an alternative to {approve} that can be used as a mitigation for problems described in {IERC20-approve}. Emits an {Approval} event indicating the updated allowance. Requirements: - `spender` cannot be the zero address. - `spender` must have allowance for the caller of at least `subtractedValue`."
      },
      "increaseAllowance(address,uint256)": {
        "details": "Atomically increases the allowance granted to `spender` by the caller. This is an alternative to {approve} that can be used as a mitigation for problems described in {IERC20-approve}. Emits an {Approval} event indicating the updated allowance. Requirements: - `spender` cannot be the zero address."
      },
      "name()": {
        "details": "Returns the name of the token."
      },
      "onERC721Received(address,address,uint256,bytes)": {
        "details": "See {IERC721Receiver-onERC721Received}. Always returns `IERC721Receiver.onERC721Received.selector`."
      },
      "owner()": {
        "details": "Returns the address of the current owner."
      },
      "renounceOwnership()": {
        "details": "Leaves the contract without owner. It will not be possible to call `onlyOwner` functions anymore. Can only be called by the current owner. NOTE: Renouncing ownership will leave the contract without an owner, thereby removing any functionality that is only available to the owner."
      },
      "symbol()": {
        "details": "Returns the symbol of the token, usually a shorter version of the name."
      },
      "totalSupply()": {
        "details": "See {IERC20-totalSupply}."
      },
      "transferFrom(address,address,uint256)": {
        "details": "See {IERC20-transferFrom}. Emits an {Approval} event indicating the updated allowance. This is not required by the EIP. See the note at the beginning of {ERC20}. Requirements: - `sender` and `recipient` cannot be the zero address. - `sender` must have a balance of at least `amount`. - the caller must have allowance for ``sender``'s tokens of at least `amount`."
      },
      "transferOwnership(address)": {
        "details": "Transfers ownership of the contract to a new account (`newOwner`). Can only be called by the current owner."
      }
    },
    "version": 1
  },
  "userdoc": {
    "kind": "user",
    "methods": {},
    "version": 1
  }
}