{
  "contractName": "ERC20PanToken",
  "abi": [
    {
      "inputs": [
        {
          "internalType": "address",
          "name": "pancakeRouter",
          "type": "address"
        },
        {
          "internalType": "address",
          "name": "blackholeAddress_",
          "type": "address"
        },
        {
          "internalType": "address",
          "name": "airdropAddress_",
          "type": "address"
        },
        {
          "internalType": "address",
          "name": "liquidAddress_",
          "type": "address"
        },
        {
          "internalType": "uint256",
          "name": "_initialSupply",
          "type": "uint256"
        },
        {
          "internalType": "address",
          "name": "owner",
          "type": "address"
        }
      ],
      "stateMutability": "nonpayable",
      "type": "constructor"
    },
    {
      "anonymous": false,
      "inputs": [
        {
          "indexed": true,
          "internalType": "address",
          "name": "owner",
          "type": "address"
        },
        {
          "indexed": true,
          "internalType": "address",
          "name": "spender",
          "type": "address"
        },
        {
          "indexed": false,
          "internalType": "uint256",
          "name": "value",
          "type": "uint256"
        }
      ],
      "name": "Approval",
      "type": "event"
    },
    {
      "anonymous": false,
      "inputs": [
        {
          "indexed": false,
          "internalType": "uint256",
          "name": "minTokensBeforeSwap",
          "type": "uint256"
        }
      ],
      "name": "MinTokensBeforeSwapUpdated",
      "type": "event"
    },
    {
      "anonymous": false,
      "inputs": [
        {
          "indexed": true,
          "internalType": "address",
          "name": "previousOwner",
          "type": "address"
        },
        {
          "indexed": true,
          "internalType": "address",
          "name": "newOwner",
          "type": "address"
        }
      ],
      "name": "OwnershipTransferred",
      "type": "event"
    },
    {
      "anonymous": false,
      "inputs": [
        {
          "indexed": false,
          "internalType": "uint256",
          "name": "tokensSwapped",
          "type": "uint256"
        },
        {
          "indexed": false,
          "internalType": "uint256",
          "name": "ethReceived",
          "type": "uint256"
        },
        {
          "indexed": false,
          "internalType": "uint256",
          "name": "tokensIntoLiqudity",
          "type": "uint256"
        }
      ],
      "name": "SwapAndLiquify",
      "type": "event"
    },
    {
      "anonymous": false,
      "inputs": [
        {
          "indexed": false,
          "internalType": "bool",
          "name": "enabled",
          "type": "bool"
        }
      ],
      "name": "SwapAndLiquifyEnabledUpdated",
      "type": "event"
    },
    {
      "anonymous": false,
      "inputs": [
        {
          "indexed": true,
          "internalType": "address",
          "name": "from",
          "type": "address"
        },
        {
          "indexed": true,
          "internalType": "address",
          "name": "to",
          "type": "address"
        },
        {
          "indexed": false,
          "internalType": "uint256",
          "name": "value",
          "type": "uint256"
        }
      ],
      "name": "Transfer",
      "type": "event"
    },
    {
      "inputs": [],
      "name": "airdropAddress",
      "outputs": [
        {
          "internalType": "address",
          "name": "",
          "type": "address"
        }
      ],
      "stateMutability": "view",
      "type": "function"
    },
    {
      "inputs": [
        {
          "internalType": "address",
          "name": "owner",
          "type": "address"
        },
        {
          "internalType": "address",
          "name": "spender",
          "type": "address"
        }
      ],
      "name": "allowance",
      "outputs": [
        {
          "internalType": "uint256",
          "name": "",
          "type": "uint256"
        }
      ],
      "stateMutability": "view",
      "type": "function"
    },
    {
      "inputs": [
        {
          "internalType": "address",
          "name": "spender",
          "type": "address"
        },
        {
          "internalType": "uint256",
          "name": "amount",
          "type": "uint256"
        }
      ],
      "name": "approve",
      "outputs": [
        {
          "internalType": "bool",
          "name": "",
          "type": "bool"
        }
      ],
      "stateMutability": "nonpayable",
      "type": "function"
    },
    {
      "inputs": [
        {
          "internalType": "address",
          "name": "account",
          "type": "address"
        }
      ],
      "name": "balanceOf",
      "outputs": [
        {
          "internalType": "uint256",
          "name": "",
          "type": "uint256"
        }
      ],
      "stateMutability": "view",
      "type": "function"
    },
    {
      "inputs": [],
      "name": "blackholeAddress",
      "outputs": [
        {
          "internalType": "address",
          "name": "",
          "type": "address"
        }
      ],
      "stateMutability": "view",
      "type": "function"
    },
    {
      "inputs": [
        {
          "internalType": "uint256",
          "name": "amount",
          "type": "uint256"
        }
      ],
      "name": "burn",
      "outputs": [],
      "stateMutability": "nonpayable",
      "type": "function"
    },
    {
      "inputs": [
        {
          "internalType": "address",
          "name": "account",
          "type": "address"
        },
        {
          "internalType": "uint256",
          "name": "amount",
          "type": "uint256"
        }
      ],
      "name": "burnFrom",
      "outputs": [],
      "stateMutability": "nonpayable",
      "type": "function"
    },
    {
      "inputs": [
        {
          "internalType": "address",
          "name": "spender",
          "type": "address"
        },
        {
          "internalType": "uint256",
          "name": "subtractedValue",
          "type": "uint256"
        }
      ],
      "name": "decreaseAllowance",
      "outputs": [
        {
          "internalType": "bool",
          "name": "",
          "type": "bool"
        }
      ],
      "stateMutability": "nonpayable",
      "type": "function"
    },
    {
      "inputs": [
        {
          "internalType": "address",
          "name": "spender",
          "type": "address"
        },
        {
          "internalType": "uint256",
          "name": "addedValue",
          "type": "uint256"
        }
      ],
      "name": "increaseAllowance",
      "outputs": [
        {
          "internalType": "bool",
          "name": "",
          "type": "bool"
        }
      ],
      "stateMutability": "nonpayable",
      "type": "function"
    },
    {
      "inputs": [],
      "name": "initialSupply",
      "outputs": [
        {
          "internalType": "uint256",
          "name": "",
          "type": "uint256"
        }
      ],
      "stateMutability": "view",
      "type": "function"
    },
    {
      "inputs": [],
      "name": "liquidAddress",
      "outputs": [
        {
          "internalType": "address",
          "name": "",
          "type": "address"
        }
      ],
      "stateMutability": "view",
      "type": "function"
    },
    {
      "inputs": [],
      "name": "minTokensSellToAddToLiquidity",
      "outputs": [
        {
          "internalType": "uint256",
          "name": "",
          "type": "uint256"
        }
      ],
      "stateMutability": "view",
      "type": "function"
    },
    {
      "inputs": [],
      "name": "name",
      "outputs": [
        {
          "internalType": "string",
          "name": "",
          "type": "string"
        }
      ],
      "stateMutability": "view",
      "type": "function"
    },
    {
      "inputs": [],
      "name": "nftToken",
      "outputs": [
        {
          "internalType": "contract ERC721Card",
          "name": "",
          "type": "address"
        }
      ],
      "stateMutability": "view",
      "type": "function"
    },
    {
      "inputs": [
        {
          "internalType": "address",
          "name": "",
          "type": "address"
        },
        {
          "internalType": "address",
          "name": "",
          "type": "address"
        },
        {
          "internalType": "uint256",
          "name": "",
          "type": "uint256"
        },
        {
          "internalType": "bytes",
          "name": "",
          "type": "bytes"
        }
      ],
      "name": "onERC721Received",
      "outputs": [
        {
          "internalType": "bytes4",
          "name": "",
          "type": "bytes4"
        }
      ],
      "stateMutability": "nonpayable",
      "type": "function"
    },
    {
      "inputs": [],
      "name": "owner",
      "outputs": [
        {
          "internalType": "address",
          "name": "",
          "type": "address"
        }
      ],
      "stateMutability": "view",
      "type": "function"
    },
    {
      "inputs": [],
      "name": "renounceOwnership",
      "outputs": [],
      "stateMutability": "nonpayable",
      "type": "function"
    },
    {
      "inputs": [],
      "name": "swapAndLiquifyEnabled",
      "outputs": [
        {
          "internalType": "bool",
          "name": "",
          "type": "bool"
        }
      ],
      "stateMutability": "view",
      "type": "function"
    },
    {
      "inputs": [],
      "name": "symbol",
      "outputs": [
        {
          "internalType": "string",
          "name": "",
          "type": "string"
        }
      ],
      "stateMutability": "view",
      "type": "function"
    },
    {
      "inputs": [],
      "name": "totalSupply",
      "outputs": [
        {
          "internalType": "uint256",
          "name": "",
          "type": "uint256"
        }
      ],
      "stateMutability": "view",
      "type": "function"
    },
    {
      "inputs": [
        {
          "internalType": "address",
          "name": "newOwner",
          "type": "address"
        }
      ],
      "name": "transferOwnership",
      "outputs": [],
      "stateMutability": "nonpayable",
      "type": "function"
    },
    {
      "inputs": [],
      "name": "uniswapV2Pair",
      "outputs": [
        {
          "internalType": "address",
          "name": "",
          "type": "address"
        }
      ],
      "stateMutability": "view",
      "type": "function"
    },
    {
      "inputs": [],
      "name": "uniswapV2Router",
      "outputs": [
        {
          "internalType": "contract IUniswapV2Router02",
          "name": "",
          "type": "address"
        }
      ],
      "stateMutability": "view",
      "type": "function"
    },
    {
      "inputs": [],
      "name": "decimals",
      "outputs": [
        {
          "internalType": "uint8",
          "name": "",
          "type": "uint8"
        }
      ],
      "stateMutability": "view",
      "type": "function"
    },
    {
      "inputs": [
        {
          "internalType": "address",
          "name": "to",
          "type": "address"
        },
        {
          "internalType": "uint256",
          "name": "amount",
          "type": "uint256"
        }
      ],
      "name": "transfer",
      "outputs": [
        {
          "internalType": "bool",
          "name": "",
          "type": "bool"
        }
      ],
      "stateMutability": "nonpayable",
      "type": "function"
    },
    {
      "inputs": [
        {
          "internalType": "address",
          "name": "sender",
          "type": "address"
        },
        {
          "internalType": "address",
          "name": "recipient",
          "type": "address"
        },
        {
          "internalType": "uint256",
          "name": "amount",
          "type": "uint256"
        }
      ],
      "name": "transferFrom",
      "outputs": [
        {
          "internalType": "bool",
          "name": "",
          "type": "bool"
        }
      ],
      "stateMutability": "nonpayable",
      "type": "function"
    },
    {
      "inputs": [
        {
          "internalType": "address",
          "name": "nftAddress_",
          "type": "address"
        }
      ],
      "name": "setNFTToken",
      "outputs": [],
      "stateMutability": "nonpayable",
      "type": "function"
    },
    {
      "inputs": [
        {
          "internalType": "address",
          "name": "account",
          "type": "address"
        }
      ],
      "name": "setExcludeFromFee",
      "outputs": [],
      "stateMutability": "nonpayable",
      "type": "function"
    },
    {
      "inputs": [
        {
          "internalType": "address",
          "name": "account",
          "type": "address"
        }
      ],
      "name": "setIncludeInFee",
      "outputs": [],
      "stateMutability": "nonpayable",
      "type": "function"
    },
    {
      "inputs": [
        {
          "internalType": "uint256",
          "name": "blackholeFee",
          "type": "uint256"
        }
      ],
      "name": "setBlackholeFeePercent",
      "outputs": [],
      "stateMutability": "nonpayable",
      "type": "function"
    },
    {
      "inputs": [
        {
          "internalType": "address",
          "name": "account",
          "type": "address"
        }
      ],
      "name": "isExcludedFromFee",
      "outputs": [
        {
          "internalType": "bool",
          "name": "",
          "type": "bool"
        }
      ],
      "stateMutability": "view",
      "type": "function"
    },
    {
      "inputs": [
        {
          "internalType": "uint256",
          "name": "airdropFee",
          "type": "uint256"
        }
      ],
      "name": "setAirdropFeePercent",
      "outputs": [],
      "stateMutability": "nonpayable",
      "type": "function"
    },
    {
      "inputs": [
        {
          "internalType": "uint256",
          "name": "liquidityFee",
          "type": "uint256"
        }
      ],
      "name": "setLiquidityFeePercent",
      "outputs": [],
      "stateMutability": "nonpayable",
      "type": "function"
    },
    {
      "inputs": [
        {
          "internalType": "uint256",
          "name": "minTokenAddLiquidity",
          "type": "uint256"
        }
      ],
      "name": "setMinTokenAddLiquidity",
      "outputs": [],
      "stateMutability": "nonpayable",
      "type": "function"
    },
    {
      "inputs": [
        {
          "internalType": "bool",
          "name": "enabled",
          "type": "bool"
        }
      ],
      "name": "setSwapAndLiquifyEnabled",
      "outputs": [],
      "stateMutability": "nonpayable",
      "type": "function"
    }
  ],
  "bytecode": "0x6101006040526009805461ff00191690556005600a556004600b819055600c55600d805560126200003290600a6200057e565b62000040906101f46200064c565b600e553480156200005057600080fd5b5060405162006532380380620065328339810160408190526200007391620004a2565b6040518060400160405280600c81526020016b2820a7102a37b5b2b7102b1960a11b815250604051806040016040528060038152602001622820a760e91b8152508160039080519060200190620000cc929190620003d1565b508051620000e2906004906020840190620003d1565b505050620000ff620000f96200029360201b60201c565b62000297565b6001600160601b0319606086811b821660a05285811b821660c05284901b1660e0526200012a601290565b6200013790600a6200057e565b6200014390836200064c565b6008556001600160601b0319606087901b166080526040513390620001689062000460565b6001600160a01b039091168152608060208201819052600f908201526e2830b73a3432b7b71027232a102b1960891b60a082015260c0604082018190526006908201526514105393919560d21b60e0820152610100606082018190526021908201527f68747470733a2f2f6170692e70616e7468656f6e2e626573742f746f6b656e73610120820152602f60f81b61014082015261016001604051809103906000f0801580156200021d573d6000803e3d6000fd5b50600780546001600160a01b0319166001600160a01b03928316179055336000908152600f6020526040808220805460ff199081166001908117909255308452828420805482168317905593881683529120805490921617905560085462000287908290620002e9565b505050505050620006c1565b3390565b600580546001600160a01b038381166001600160a01b0319831681179093556040519116919082907f8be0079c531659141344cd1fd0a4f28419497f9722a3daafe3b4186f6b6457e090600090a35050565b6001600160a01b038216620003445760405162461bcd60e51b815260206004820152601f60248201527f45524332303a206d696e7420746f20746865207a65726f206164647265737300604482015260640160405180910390fd5b80600260008282546200035891906200051a565b90915550506001600160a01b03821660009081526020819052604081208054839290620003879084906200051a565b90915550506040518181526001600160a01b038316906000907fddf252ad1be2c89b69c2b068fc378daa952ba7f163c4a11628f55a4df523b3ef9060200160405180910390a35050565b828054620003df906200066e565b90600052602060002090601f0160209004810192826200040357600085556200044e565b82601f106200041e57805160ff19168380011785556200044e565b828001600101855582156200044e579182015b828111156200044e57825182559160200191906001019062000431565b506200045c9291506200046e565b5090565b6141c0806200237283390190565b5b808211156200045c57600081556001016200046f565b80516001600160a01b03811681146200049d57600080fd5b919050565b60008060008060008060c08789031215620004bc57600080fd5b620004c78762000485565b9550620004d76020880162000485565b9450620004e76040880162000485565b9350620004f76060880162000485565b9250608087015191506200050e60a0880162000485565b90509295509295509295565b60008219821115620005305762000530620006ab565b500190565b600181815b80851115620005765781600019048211156200055a576200055a620006ab565b808516156200056857918102915b93841c93908002906200053a565b509250929050565b60006200058f60ff84168362000596565b9392505050565b600082620005a75750600162000646565b81620005b65750600062000646565b8160018114620005cf5760028114620005da57620005fa565b600191505062000646565b60ff841115620005ee57620005ee620006ab565b50506001821b62000646565b5060208310610133831016604e8410600b84101617156200061f575081810a62000646565b6200062b838362000535565b8060001904821115620006425762000642620006ab565b0290505b92915050565b6000816000190483118215151615620006695762000669620006ab565b500290565b600181811c908216806200068357607f821691505b60208210811415620006a557634e487b7160e01b600052602260045260246000fd5b50919050565b634e487b7160e01b600052601160045260246000fd5b60805160601c60a05160601c60c05160601c60e05160601c611c336200073f6000396000818161034a0152818161076e0152610e510152600081816104490152818161072f0152610e12015260008181610419015281816106e50152610dc10152600081816102a801528181610f9a015261103a0152611c336000f3fe608060405234801561001057600080fd5b50600436106102115760003560e01c8063715018a611610125578063a9059cbb116100ad578063d06fcba81161007c578063d06fcba8146104f6578063d963ce4114610509578063dd62ed3e1461051c578063f2fde38b14610555578063f917e3021461056857600080fd5b8063a9059cbb146104aa578063b27b168b146104bd578063c0054fc1146104d0578063c49b9a80146104e357600080fd5b806384413b65116100f457806384413b65146104445780638da5cb5b1461046b5780638ee88c531461047c57806395d89b411461048f578063a457c2d71461049757600080fd5b8063715018a6146103f957806379cc6790146104015780637d515a10146104145780637f65396c1461043b57600080fd5b8063378dc3dc116101a857806349bd5a5e1161017757806349bd5a5e1461036c5780634a74bb021461037f5780635342acb4146103915780635657eb49146103bd57806370a08231146103d057600080fd5b8063378dc3dc14610316578063395093511461031f57806342966c68146103325780634713b7841461034557600080fd5b80631694505e116101e45780631694505e146102a357806318160ddd146102e257806323b872dd146102f4578063313ce5671461030757600080fd5b806306fdde0314610216578063095ea7b31461023457806310e71a0214610257578063150b7a021461026c575b600080fd5b61021e61057b565b60405161022b91906119f2565b60405180910390f35b610247610242366004611973565b61060d565b604051901515815260200161022b565b61026a6102653660046117df565b610623565b005b61028a61027a366004611893565b630a85bd0160e11b949350505050565b6040516001600160e01b0319909116815260200161022b565b6102ca7f000000000000000000000000000000000000000000000000000000000000000081565b6040516001600160a01b03909116815260200161022b565b6002545b60405190815260200161022b565b610247610302366004611852565b61068b565b6040516012815260200161022b565b6102e660085481565b61024761032d366004611973565b61082c565b61026a6103403660046119d9565b610863565b6102ca7f000000000000000000000000000000000000000000000000000000000000000081565b6006546102ca906001600160a01b031681565b60095461024790610100900460ff1681565b61024761039f3660046117df565b6001600160a01b03166000908152600f602052604090205460ff1690565b61026a6103cb3660046119d9565b610870565b6102e66103de3660046117df565b6001600160a01b031660009081526020819052604090205490565b61026a61089f565b61026a61040f366004611973565b6108d5565b6102ca7f000000000000000000000000000000000000000000000000000000000000000081565b6102e6600e5481565b6102ca7f000000000000000000000000000000000000000000000000000000000000000081565b6005546001600160a01b03166102ca565b61026a61048a3660046119d9565b61095b565b61021e61098a565b6102476104a5366004611973565b610999565b6102476104b8366004611973565b610a28565b61026a6104cb3660046119d9565b610ee1565b61026a6104de3660046117df565b610f10565b61026a6104f136600461199f565b610f5e565b6007546102ca906001600160a01b031681565b61026a6105173660046117df565b6111d6565b6102e661052a366004611819565b6001600160a01b03918216600090815260016020908152604080832093909416825291909152205490565b61026a6105633660046117df565b611221565b61026a6105763660046119d9565b6112b9565b60606003805461058a90611b21565b80601f01602080910402602001604051908101604052809291908181526020018280546105b690611b21565b80156106035780601f106105d857610100808354040283529160200191610603565b820191906000526020600020905b8154815290600101906020018083116105e657829003601f168201915b5050505050905090565b600061061a3384846112e8565b50600192915050565b6005546001600160a01b031633146106565760405162461bcd60e51b815260040161064d90611a8a565b60405180910390fd5b6001600160a01b03811661066957600080fd5b600780546001600160a01b0319166001600160a01b0392909216919091179055565b6001600160a01b0383166000908152600f602052604081205460ff16806106ca57506001600160a01b0383166000908152600f602052604090205460ff165b156106df576106da84848461140c565b6107d0565b610729847f0000000000000000000000000000000000000000000000000000000000000000610724606461071e600a548861159f90919063ffffffff16565b906115b2565b61140c565b610768847f0000000000000000000000000000000000000000000000000000000000000000610724606461071e600b548861159f90919063ffffffff16565b6107a7847f0000000000000000000000000000000000000000000000000000000000000000610724606461071e600c548861159f90919063ffffffff16565b6107d084846107246107c9606461071e600d548961159f90919063ffffffff16565b86906115be565b610822843361081d85604051806060016040528060288152602001611bd6602891396001600160a01b038a16600090815260016020908152604080832033845290915290205491906115ca565b6112e8565b5060019392505050565b3360008181526001602090815260408083206001600160a01b0387168452909152812054909161061a91859061081d908690611abf565b61086d33826115f6565b50565b6005546001600160a01b0316331461089a5760405162461bcd60e51b815260040161064d90611a8a565b600e55565b6005546001600160a01b031633146108c95760405162461bcd60e51b815260040161064d90611a8a565b6108d36000611744565b565b60006108e1833361052a565b90508181101561093f5760405162461bcd60e51b8152602060048201526024808201527f45524332303a206275726e20616d6f756e74206578636565647320616c6c6f77604482015263616e636560e01b606482015260840161064d565b61094c83338484036112e8565b61095683836115f6565b505050565b6005546001600160a01b031633146109855760405162461bcd60e51b815260040161064d90611a8a565b600c55565b60606004805461058a90611b21565b3360009081526001602090815260408083206001600160a01b038616845290915281205482811015610a1b5760405162461bcd60e51b815260206004820152602560248201527f45524332303a2064656372656173656420616c6c6f77616e63652062656c6f77604482015264207a65726f60d81b606482015260840161064d565b61082233858584036112e8565b60006001600160a01b038316610a505760405162461bcd60e51b815260040161064d90611a47565b60008211610ab25760405162461bcd60e51b815260206004820152602960248201527f5472616e7366657220616d6f756e74206d7573742062652067726561746572206044820152687468616e207a65726f60b81b606482015260840161064d565b6000610abc611796565b60065460ff91909116915060009081906001600160a01b0316331415610d7057686c6b935b8bbd400000851115610b5257506001600a61ffff84161015610b065760049150610cd2565b60148361ffff161015610b1c5760039150610cd2565b60328361ffff161015610b325760029150610cd2565b6101f48361ffff161015610b495760019150610cd2565b60009150610cd2565b682b5e3af16b18800000851115610bde57506001600561ffff84161015610b7c5760049150610cd2565b600a8361ffff161015610b925760039150610cd2565b601e8361ffff161015610ba85760029150610cd2565b61012c8361ffff161015610bbf5760019150610cd2565b6103208361ffff161015610bd65760009150610cd2565b506000610cd2565b680ad78ebc5ac6200000851115610c62576001905060018361ffff161015610c095760049150610cd2565b60058361ffff161015610c1f5760039150610cd2565b600f8361ffff161015610c355760029150610cd2565b60968361ffff161015610c4b5760019150610cd2565b6101f48361ffff161015610bd65760009150610cd2565b68022b1c8c1227a000008510610cd2576001905060018361ffff161015610c8c5760039150610cd2565b60038361ffff161015610ca25760029150610cd2565b60288361ffff161015610cb85760019150610cd2565b60968361ffff161015610cce5760009150610cd2565b5060005b8015610d70576007546040516393d16c7160e01b8152600060048201819052602482015260ff841660448201526001600160a01b038881166064830152909116906393d16c7190608401602060405180830381600087803b158015610d3657600080fd5b505af1158015610d4a573d6000803e3d6000fd5b505050506040513d601f19601f82011682018060405250810190610d6e91906119bc565b505b336000908152600f602052604090205460ff1680610da657506001600160a01b0386166000908152600f602052604090205460ff165b15610dbb57610db633878761140c565b610ed5565b610dfa337f0000000000000000000000000000000000000000000000000000000000000000610724606461071e600a548b61159f90919063ffffffff16565b6006546001600160a01b03163314610eb357610e4b337f0000000000000000000000000000000000000000000000000000000000000000610724606461071e600b548b61159f90919063ffffffff16565b610e8a337f0000000000000000000000000000000000000000000000000000000000000000610724606461071e600c548b61159f90919063ffffffff16565b610db63387610724610eac606461071e600d548c61159f90919063ffffffff16565b89906115be565b610ed53387610724610eac606461071e600a548c61159f90919063ffffffff16565b50600195945050505050565b6005546001600160a01b03163314610f0b5760405162461bcd60e51b815260040161064d90611a8a565b600a55565b6005546001600160a01b03163314610f3a5760405162461bcd60e51b815260040161064d90611a8a565b6001600160a01b03166000908152600f60205260409020805460ff19166001179055565b6005546001600160a01b03163314610f885760405162461bcd60e51b815260040161064d90611a8a565b6006546001600160a01b0316611182577f00000000000000000000000000000000000000000000000000000000000000006001600160a01b031663c45a01556040518163ffffffff1660e01b815260040160206040518083038186803b158015610ff157600080fd5b505afa158015611005573d6000803e3d6000fd5b505050506040513d601f19601f8201168201806040525081019061102991906117fc565b6001600160a01b031663c9c65396307f00000000000000000000000000000000000000000000000000000000000000006001600160a01b031663ad5c46486040518163ffffffff1660e01b815260040160206040518083038186803b15801561109157600080fd5b505afa1580156110a5573d6000803e3d6000fd5b505050506040513d601f19601f820116820180604052508101906110c991906117fc565b6040516001600160e01b031960e085901b1681526001600160a01b03928316600482015291166024820152604401602060405180830381600087803b15801561111157600080fd5b505af1158015611125573d6000803e3d6000fd5b505050506040513d601f19601f8201168201806040525081019061114991906117fc565b600680546001600160a01b0319166001600160a01b039290921691821790556000908152600f60205260409020805460ff191660011790555b600980548215156101000261ff00199091161790556040517f53726dfcaf90650aa7eb35524f4d3220f07413c8d6cb404cc8c18bf5591bc159906111cb90831515815260200190565b60405180910390a150565b6005546001600160a01b031633146112005760405162461bcd60e51b815260040161064d90611a8a565b6001600160a01b03166000908152600f60205260409020805460ff19169055565b6005546001600160a01b0316331461124b5760405162461bcd60e51b815260040161064d90611a8a565b6001600160a01b0381166112b05760405162461bcd60e51b815260206004820152602660248201527f4f776e61626c653a206e6577206f776e657220697320746865207a65726f206160448201526564647265737360d01b606482015260840161064d565b61086d81611744565b6005546001600160a01b031633146112e35760405162461bcd60e51b815260040161064d90611a8a565b600b55565b6001600160a01b03831661134a5760405162461bcd60e51b8152602060048201526024808201527f45524332303a20617070726f76652066726f6d20746865207a65726f206164646044820152637265737360e01b606482015260840161064d565b6001600160a01b0382166113ab5760405162461bcd60e51b815260206004820152602260248201527f45524332303a20617070726f766520746f20746865207a65726f206164647265604482015261737360f01b606482015260840161064d565b6001600160a01b0383811660008181526001602090815260408083209487168084529482529182902085905590518481527f8c5be1e5ebec7d5bd14f71427d1e84f3dd0314c0f7b2291e5b200ac8c7c3b925910160405180910390a3505050565b6001600160a01b0383166114705760405162461bcd60e51b815260206004820152602560248201527f45524332303a207472616e736665722066726f6d20746865207a65726f206164604482015264647265737360d81b606482015260840161064d565b6001600160a01b0382166114965760405162461bcd60e51b815260040161064d90611a47565b6001600160a01b0383166000908152602081905260409020548181101561150e5760405162461bcd60e51b815260206004820152602660248201527f45524332303a207472616e7366657220616d6f756e7420657863656564732062604482015265616c616e636560d01b606482015260840161064d565b6001600160a01b03808516600090815260208190526040808220858503905591851681529081208054849290611545908490611abf565b92505081905550826001600160a01b0316846001600160a01b03167fddf252ad1be2c89b69c2b068fc378daa952ba7f163c4a11628f55a4df523b3ef8460405161159191815260200190565b60405180910390a350505050565b60006115ab8284611aeb565b9392505050565b60006115ab8284611ad7565b60006115ab8284611b0a565b600081848411156115ee5760405162461bcd60e51b815260040161064d91906119f2565b505050900390565b6001600160a01b0382166116565760405162461bcd60e51b815260206004820152602160248201527f45524332303a206275726e2066726f6d20746865207a65726f206164647265736044820152607360f81b606482015260840161064d565b6001600160a01b038216600090815260208190526040902054818110156116ca5760405162461bcd60e51b815260206004820152602260248201527f45524332303a206275726e20616d6f756e7420657863656564732062616c616e604482015261636560f01b606482015260840161064d565b6001600160a01b03831660009081526020819052604081208383039055600280548492906116f9908490611b0a565b90915550506040518281526000906001600160a01b038516907fddf252ad1be2c89b69c2b068fc378daa952ba7f163c4a11628f55a4df523b3ef9060200160405180910390a3505050565b600580546001600160a01b038381166001600160a01b0319831681179093556040519116919082907f8be0079c531659141344cd1fd0a4f28419497f9722a3daafe3b4186f6b6457e090600090a35050565b60006103e842446040516020016117b7929190918252602082015260400190565b6040516020818303038152906040528051906020012060001c6117da9190611b5c565b905090565b6000602082840312156117f157600080fd5b81356115ab81611bb2565b60006020828403121561180e57600080fd5b81516115ab81611bb2565b6000806040838503121561182c57600080fd5b823561183781611bb2565b9150602083013561184781611bb2565b809150509250929050565b60008060006060848603121561186757600080fd5b833561187281611bb2565b9250602084013561188281611bb2565b929592945050506040919091013590565b600080600080608085870312156118a957600080fd5b84356118b481611bb2565b935060208501356118c481611bb2565b925060408501359150606085013567ffffffffffffffff808211156118e857600080fd5b818701915087601f8301126118fc57600080fd5b81358181111561190e5761190e611b9c565b604051601f8201601f19908116603f0116810190838211818310171561193657611936611b9c565b816040528281528a602084870101111561194f57600080fd5b82602086016020830137600060208483010152809550505050505092959194509250565b6000806040838503121561198657600080fd5b823561199181611bb2565b946020939093013593505050565b6000602082840312156119b157600080fd5b81356115ab81611bc7565b6000602082840312156119ce57600080fd5b81516115ab81611bc7565b6000602082840312156119eb57600080fd5b5035919050565b600060208083528351808285015260005b81811015611a1f57858101830151858201604001528201611a03565b81811115611a31576000604083870101525b50601f01601f1916929092016040019392505050565b60208082526023908201527f45524332303a207472616e7366657220746f20746865207a65726f206164647260408201526265737360e81b606082015260800190565b6020808252818101527f4f776e61626c653a2063616c6c6572206973206e6f7420746865206f776e6572604082015260600190565b60008219821115611ad257611ad2611b70565b500190565b600082611ae657611ae6611b86565b500490565b6000816000190483118215151615611b0557611b05611b70565b500290565b600082821015611b1c57611b1c611b70565b500390565b600181811c90821680611b3557607f821691505b60208210811415611b5657634e487b7160e01b600052602260045260246000fd5b50919050565b600082611b6b57611b6b611b86565b500690565b634e487b7160e01b600052601160045260246000fd5b634e487b7160e01b600052601260045260246000fd5b634e487b7160e01b600052604160045260246000fd5b6001600160a01b038116811461086d57600080fd5b801515811461086d57600080fdfe45524332303a207472616e7366657220616d6f756e74206578636565647320616c6c6f77616e6365a26469706673582212205a9ac25b830123e4029116296783a447c5efda95e9d36275b1a71ee78b3b125b64736f6c6343000806003360806040523480156200001157600080fd5b50604051620041c0380380620041c0833981016040819052620000349162000f28565b8251839083906200004d90600290602085019062000dcb565b5080516200006390600390602084019062000dcb565b5050600c805460ff191690555080516200008590600e90602084019062000dcb565b506200009360008562000c66565b620000bf7f65d7a28e3265b37a6474929f336521b332c1681b933f6cb9f3376673440d862a8562000c66565b620000da600080516020620041a08339815191528562000c66565b620000f5600080516020620041a08339815191523362000c66565b62000c5c6040518060600160405280600a61ffff168152602001600061ffff1681526020016101c261ffff1681525060136000600160ff1681526020019081526020016000206000600460ff16815260200190815260200160002060008201518160000160006101000a81548161ffff021916908361ffff16021790555060208201518160000160026101000a81548161ffff021916908361ffff16021790555060408201518160000160046101000a81548161ffff021916908361ffff1602179055509050506040518060600160405280606461ffff168152602001600061ffff16815260200160c861ffff1681525060136000600160ff1681526020019081526020016000206000600360ff16815260200190815260200160002060008201518160000160006101000a81548161ffff021916908361ffff16021790555060208201518160000160026101000a81548161ffff021916908361ffff16021790555060408201518160000160046101000a81548161ffff021916908361ffff1602179055509050506040518060600160405280609661ffff168152602001600061ffff168152602001609661ffff1681525060136000600160ff1681526020019081526020016000206000600260ff16815260200190815260200160002060008201518160000160006101000a81548161ffff021916908361ffff16021790555060208201518160000160026101000a81548161ffff021916908361ffff16021790555060408201518160000160046101000a81548161ffff021916908361ffff160217905550905050604051806060016040528060c861ffff168152602001600061ffff168152602001607861ffff1681525060136000600160ff1681526020019081526020016000206000600160ff16815260200190815260200160002060008201518160000160006101000a81548161ffff021916908361ffff16021790555060208201518160000160026101000a81548161ffff021916908361ffff16021790555060408201518160000160046101000a81548161ffff021916908361ffff160217905550905050604051806060016040528061021c61ffff168152602001600061ffff168152602001606461ffff1681525060136000600160ff16815260200190815260200160002060008060ff16815260200190815260200160002060008201518160000160006101000a81548161ffff021916908361ffff16021790555060208201518160000160026101000a81548161ffff021916908361ffff16021790555060408201518160000160046101000a81548161ffff021916908361ffff1602179055509050506040518060600160405280600a61ffff168152602001600061ffff1681526020016101c261ffff1681525060136000600260ff1681526020019081526020016000206000600460ff16815260200190815260200160002060008201518160000160006101000a81548161ffff021916908361ffff16021790555060208201518160000160026101000a81548161ffff021916908361ffff16021790555060408201518160000160046101000a81548161ffff021916908361ffff1602179055509050506040518060600160405280606461ffff168152602001600061ffff16815260200160c861ffff1681525060136000600260ff1681526020019081526020016000206000600360ff16815260200190815260200160002060008201518160000160006101000a81548161ffff021916908361ffff16021790555060208201518160000160026101000a81548161ffff021916908361ffff16021790555060408201518160000160046101000a81548161ffff021916908361ffff1602179055509050506040518060600160405280609661ffff168152602001600061ffff168152602001609661ffff1681525060136000600260ff1681526020019081526020016000206000600260ff16815260200190815260200160002060008201518160000160006101000a81548161ffff021916908361ffff16021790555060208201518160000160026101000a81548161ffff021916908361ffff16021790555060408201518160000160046101000a81548161ffff021916908361ffff160217905550905050604051806060016040528060c861ffff168152602001600061ffff168152602001607861ffff1681525060136000600260ff1681526020019081526020016000206000600160ff16815260200190815260200160002060008201518160000160006101000a81548161ffff021916908361ffff16021790555060208201518160000160026101000a81548161ffff021916908361ffff16021790555060408201518160000160046101000a81548161ffff021916908361ffff160217905550905050604051806060016040528061021c61ffff168152602001600061ffff168152602001606461ffff1681525060136000600260ff16815260200190815260200160002060008060ff16815260200190815260200160002060008201518160000160006101000a81548161ffff021916908361ffff16021790555060208201518160000160026101000a81548161ffff021916908361ffff16021790555060408201518160000160046101000a81548161ffff021916908361ffff1602179055509050506040518060600160405280600a61ffff168152602001600061ffff1681526020016101c261ffff1681525060136000600360ff1681526020019081526020016000206000600460ff16815260200190815260200160002060008201518160000160006101000a81548161ffff021916908361ffff16021790555060208201518160000160026101000a81548161ffff021916908361ffff16021790555060408201518160000160046101000a81548161ffff021916908361ffff1602179055509050506040518060600160405280600061ffff168152602001600061ffff16815260200160c861ffff1681525060136000600360ff1681526020019081526020016000206000600360ff16815260200190815260200160002060008201518160000160006101000a81548161ffff021916908361ffff16021790555060208201518160000160026101000a81548161ffff021916908361ffff16021790555060408201518160000160046101000a81548161ffff021916908361ffff1602179055509050506040518060600160405280600061ffff168152602001600061ffff168152602001609661ffff1681525060136000600360ff1681526020019081526020016000206000600260ff16815260200190815260200160002060008201518160000160006101000a81548161ffff021916908361ffff16021790555060208201518160000160026101000a81548161ffff021916908361ffff16021790555060408201518160000160046101000a81548161ffff021916908361ffff1602179055509050506040518060600160405280600061ffff168152602001600061ffff168152602001607861ffff1681525060136000600360ff1681526020019081526020016000206000600160ff16815260200190815260200160002060008201518160000160006101000a81548161ffff021916908361ffff16021790555060208201518160000160026101000a81548161ffff021916908361ffff16021790555060408201518160000160046101000a81548161ffff021916908361ffff16021790555090505060405180606001604052806103de61ffff168152602001600061ffff168152602001606461ffff1681525060136000600360ff16815260200190815260200160002060008060ff16815260200190815260200160002060008201518160000160006101000a81548161ffff021916908361ffff16021790555060208201518160000160026101000a81548161ffff021916908361ffff16021790555060408201518160000160046101000a81548161ffff021916908361ffff160217905550905050565b505050506200102d565b62000c7d828262000ca960201b620015461760201c565b600082815260016020908152604090912062000ca49183906200155462000cb9821b17901c565b505050565b62000cb5828262000cd9565b5050565b600062000cd0836001600160a01b03841662000d79565b90505b92915050565b6000828152602081815260408083206001600160a01b038516845290915290205460ff1662000cb5576000828152602081815260408083206001600160a01b03851684529091529020805460ff1916600117905562000d353390565b6001600160a01b0316816001600160a01b0316837f2f8788117e7eff1d82e926ec794901d17c78024a50270940304540a733656f0d60405160405180910390a45050565b600081815260018301602052604081205462000dc25750815460018181018455600084815260208082209093018490558454848252828601909352604090209190915562000cd3565b50600062000cd3565b82805462000dd99062000fda565b90600052602060002090601f01602090048101928262000dfd576000855562000e48565b82601f1062000e1857805160ff191683800117855562000e48565b8280016001018555821562000e48579182015b8281111562000e4857825182559160200191906001019062000e2b565b5062000e5692915062000e5a565b5090565b5b8082111562000e56576000815560010162000e5b565b600082601f83011262000e8357600080fd5b81516001600160401b038082111562000ea05762000ea062001017565b604051601f8301601f19908116603f0116810190828211818310171562000ecb5762000ecb62001017565b8160405283815260209250868385880101111562000ee857600080fd5b600091505b8382101562000f0c578582018301518183018401529082019062000eed565b8382111562000f1e5760008385830101525b9695505050505050565b6000806000806080858703121562000f3f57600080fd5b84516001600160a01b038116811462000f5757600080fd5b60208601519094506001600160401b038082111562000f7557600080fd5b62000f838883890162000e71565b9450604087015191508082111562000f9a57600080fd5b62000fa88883890162000e71565b9350606087015191508082111562000fbf57600080fd5b5062000fce8782880162000e71565b91505092959194509250565b600181811c9082168062000fef57607f821691505b602082108114156200101157634e487b7160e01b600052602260045260246000fd5b50919050565b634e487b7160e01b600052604160045260246000fd5b613163806200103d6000396000f3fe608060405234801561001057600080fd5b50600436106102485760003560e01c806370a082311161013b578063a22cb465116100b8578063d53913931161007c578063d539139314610614578063d547741f1461063b578063df264c201461064e578063e63ab1e9146106db578063e985e9c51461070257600080fd5b8063a22cb46514610581578063b88d4fde14610594578063c558a120146105a7578063c87b56dd146105ee578063ca15c8731461060157600080fd5b806391d14854116100ff57806391d14854146104fa57806393d16c711461050d57806395d89b411461052057806399d3497a14610528578063a217fddf1461057957600080fd5b806370a08231146104625780638456cb59146104755780638ed914cd1461047d5780639010d07c146104a05780639188d312146104b357600080fd5b806336568abe116101c95780634f6ccce71161018d5780634f6ccce7146103d05780635c975abb146103e35780635efbd96d146103ee5780636352211e1461041a5780636d5e30321461042d57600080fd5b806336568abe1461036f5780633f4ba83a1461038257806342842e0e1461038a57806342966c681461039d5780634c7683ff146103b057600080fd5b806318160ddd1161021057806318160ddd1461030157806323b872dd14610313578063248a9ca3146103265780632f2ff15d146103495780632f745c591461035c57600080fd5b806301ffc9a71461024d57806304eaa1131461027557806306fdde03146102ac578063081812fc146102c1578063095ea7b3146102ec575b600080fd5b61026061025b366004612c0b565b61073e565b60405190151581526020015b60405180910390f35b610299610283366004612bad565b60009081526011602052604090205461ffff1690565b60405161ffff909116815260200161026c565b6102b461074f565b60405161026c9190612e61565b6102d46102cf366004612bad565b6107e1565b6040516001600160a01b03909116815260200161026c565b6102ff6102fa366004612b83565b61087b565b005b600a545b60405190815260200161026c565b6102ff610321366004612a2f565b610991565b610305610334366004612bad565b60009081526020819052604090206001015490565b6102ff610357366004612bc6565b6109c3565b61030561036a366004612b83565b6109e5565b6102ff61037d366004612bc6565b610a7b565b6102ff610a9d565b6102ff610398366004612a2f565b610b45565b6102ff6103ab366004612bad565b610b60565b6103056103be366004612bad565b60009081526012602052604090205490565b6103056103de366004612bad565b610bda565b600c5460ff16610260565b6104016103fc366004612c45565b610c6d565b6040805160ff909316835260208301919091520161026c565b6102d4610428366004612bad565b610f0b565b61045061043b366004612bad565b60009081526010602052604090205460ff1690565b60405160ff909116815260200161026c565b6103056104703660046129e1565b610f82565b6102ff611009565b61045061048b366004612bad565b6000908152600f602052604090205460ff1690565b6102d46104ae366004612be9565b6110ad565b6104c66104c1366004612bad565b6110cc565b6040805161ffff9586168152938516602085015291909316908201526001600160a01b03909116606082015260800161026c565b610260610508366004612bc6565b611165565b61026061051b366004612c88565b61118e565b6102b461133f565b610260610536366004612d06565b60ff8084166000908152601360209081526040808320938616835292905220805461ffff8316600160201b0265ffff000000001990911617905560019392505050565b610305600081565b6102ff61058f366004612b47565b61134e565b6102ff6105a2366004612a6b565b611413565b6102606105b5366004612d06565b60ff8084166000908152601360209081526040808320938616835292905220805461ffff831661ffff1990911617905560019392505050565b6102b46105fc366004612bad565b61144b565b61030561060f366004612bad565b611525565b6103057f9f2df0fed2c77648de5860a4cc508cd0818c85b8b8a1ab4ceeef8d981c8956a681565b6102ff610649366004612bc6565b61153c565b6106b661065c366004612cdc565b60ff80831660009081526013602090815260408083209385168352928152908290208251606081018452905461ffff8082168084526201000083048216948401859052600160201b90920416919093018190529250925092565b6040805161ffff9485168152928416602084015292169181019190915260600161026c565b6103057f65d7a28e3265b37a6474929f336521b332c1681b933f6cb9f3376673440d862a81565b6102606107103660046129fc565b6001600160a01b03918216600090815260076020908152604080832093909416825291909152205460ff1690565b600061074982611569565b92915050565b60606002805461075e9061301f565b80601f016020809104026020016040519081016040528092919081815260200182805461078a9061301f565b80156107d75780601f106107ac576101008083540402835291602001916107d7565b820191906000526020600020905b8154815290600101906020018083116107ba57829003601f168201915b5050505050905090565b6000818152600460205260408120546001600160a01b031661085f5760405162461bcd60e51b815260206004820152602c60248201527f4552433732313a20617070726f76656420717565727920666f72206e6f6e657860448201526b34b9ba32b73a103a37b5b2b760a11b60648201526084015b60405180910390fd5b506000908152600660205260409020546001600160a01b031690565b600061088682610f0b565b9050806001600160a01b0316836001600160a01b031614156108f45760405162461bcd60e51b815260206004820152602160248201527f4552433732313a20617070726f76616c20746f2063757272656e74206f776e656044820152603960f91b6064820152608401610856565b336001600160a01b038216148061091057506109108133610710565b6109825760405162461bcd60e51b815260206004820152603860248201527f4552433732313a20617070726f76652063616c6c6572206973206e6f74206f7760448201527f6e6572206e6f7220617070726f76656420666f7220616c6c00000000000000006064820152608401610856565b61098c838361158e565b505050565b61099c335b826115fc565b6109b85760405162461bcd60e51b815260040161085690612ec6565b61098c8383836116ef565b6109cd828261189a565b600082815260016020526040902061098c9082611554565b60006109f083610f82565b8210610a525760405162461bcd60e51b815260206004820152602b60248201527f455243373231456e756d657261626c653a206f776e657220696e646578206f7560448201526a74206f6620626f756e647360a81b6064820152608401610856565b506001600160a01b03919091166000908152600860209081526040808320938352929052205490565b610a8582826118c0565b600082815260016020526040902061098c908261193a565b610ac77f65d7a28e3265b37a6474929f336521b332c1681b933f6cb9f3376673440d862a33611165565b610b3b576040805162461bcd60e51b81526020600482015260248101919091527f4552433732315072657365744d696e7465725061757365724175746f49643a2060448201527f6d75737420686176652070617573657220726f6c6520746f20756e70617573656064820152608401610856565b610b4361194f565b565b61098c83838360405180602001604052806000815250611413565b610b6933610996565b610bce5760405162461bcd60e51b815260206004820152603060248201527f4552433732314275726e61626c653a2063616c6c6572206973206e6f74206f7760448201526f1b995c881b9bdc88185c1c1c9bdd995960821b6064820152608401610856565b610bd7816119e2565b50565b6000610be5600a5490565b8210610c485760405162461bcd60e51b815260206004820152602c60248201527f455243373231456e756d657261626c653a20676c6f62616c20696e646578206f60448201526b7574206f6620626f756e647360a01b6064820152608401610856565b600a8281548110610c5b57610c5b6130eb565b90600052602060002001549050919050565b600080600080610c7c87611a89565b60ff808a16600090815260136020908152604080832093861683529290522080549294509092509061ffff80821691610cbe9162010000909104166001612f17565b61ffff1610610d0f5760405162461bcd60e51b815260206004820152601b60248201527f54686973206c6576656c2063617264206973206d696e74206f757400000000006044820152606401610856565b63ffffffff871660009081526012602052604090205415610d6b5760405162461bcd60e51b81526020600482015260166024820152752a3434b99039b2b934b0b627379034b9903ab9b2b21760511b6044820152606401610856565b80546001908290600290610d8a90849062010000900461ffff16612f17565b92506101000a81548161ffff021916908361ffff1602179055506000610db08789611c8b565b905083601060008a63ffffffff16815260200190815260200160002060006101000a81548160ff021916908360ff1602179055508160000160049054906101000a900461ffff16601160008a63ffffffff16815260200190815260200160002060006101000a81548161ffff021916908361ffff16021790555088600f60008a63ffffffff16815260200190815260200160002060006101000a81548160ff021916908360ff16021790555080601260008a63ffffffff16815260200190815260200160002081905550866001600160a01b0316336001600160a01b03167fedfe0615279efed66dde975fb01ab81427599c8c70f937ee384d78bfaf39c5648b8b8842604051610ee8949392919060ff948516815263ffffffff93909316602084015292166040820152606081019190915260800190565b60405180910390a350549197600160201b90920461ffff16965090945050505050565b6000818152600460205260408120546001600160a01b0316806107495760405162461bcd60e51b815260206004820152602960248201527f4552433732313a206f776e657220717565727920666f72206e6f6e657869737460448201526832b73a103a37b5b2b760b91b6064820152608401610856565b60006001600160a01b038216610fed5760405162461bcd60e51b815260206004820152602a60248201527f4552433732313a2062616c616e636520717565727920666f7220746865207a65604482015269726f206164647265737360b01b6064820152608401610856565b506001600160a01b031660009081526005602052604090205490565b6110337f65d7a28e3265b37a6474929f336521b332c1681b933f6cb9f3376673440d862a33611165565b6110a55760405162461bcd60e51b815260206004820152603e60248201527f4552433732315072657365744d696e7465725061757365724175746f49643a2060448201527f6d75737420686176652070617573657220726f6c6520746f20706175736500006064820152608401610856565b610b43611d54565b60008281526001602052604081206110c59083611dcf565b9392505050565b6000818152600f602090815260408083205460ff908116808552601384528285208686526010808652848720549093168087529085528386208451606081018652905461ffff8082168352620100008204811683890152600160201b909104169481019485528787529290945291518493849384939290919061114e89610f0b565b60ff9384169a929093169850965090945092505050565b6000918252602082815260408084206001600160a01b0393909316845291905290205460ff1690565b600060058360ff16106111e35760405162461bcd60e51b815260206004820152601b60248201527f4c6576656c2065786365656420746865206c696d6974206f66203500000000006044820152606401610856565b60ff8086166000908152601360209081526040808320938716835292905220805461ffff8082169161121e9162010000909104166001612f17565b61ffff161015611331578054600190829060029061124790849062010000900461ffff16612f17565b92506101000a81548161ffff021916908361ffff160217905550600061126d8487611c8b565b63ffffffff87166000818152601060209081526040808320805460ff1990811660ff8d81169182179093558954601186528487208054600160201b90920461ffff1661ffff19909216919091179055600f85528386208054909216928f169283179091556012845293829020869055815190815291820193909352918201524260608201529091506001600160a01b0385169033907fedfe0615279efed66dde975fb01ab81427599c8c70f937ee384d78bfaf39c5649060800160405180910390a3505b60019150505b949350505050565b60606003805461075e9061301f565b6001600160a01b0382163314156113a75760405162461bcd60e51b815260206004820152601960248201527f4552433732313a20617070726f766520746f2063616c6c6572000000000000006044820152606401610856565b3360008181526007602090815260408083206001600160a01b03871680855290835292819020805460ff191686151590811790915590519081529192917f17307eab39ab6107e8899845ad3d59bd9653f200f220920489ca2b5937696c31910160405180910390a35050565b61141d33836115fc565b6114395760405162461bcd60e51b815260040161085690612ec6565b61144584848484611ddb565b50505050565b6000818152600460205260409020546060906001600160a01b03166114ca5760405162461bcd60e51b815260206004820152602f60248201527f4552433732314d657461646174613a2055524920717565727920666f72206e6f60448201526e3732bc34b9ba32b73a103a37b5b2b760891b6064820152608401610856565b60006114d4611e0e565b905060008151116114f457604051806020016040528060008152506110c5565b806114fe84611e1d565b60405160200161150f929190612d80565b6040516020818303038152906040529392505050565b600081815260016020526040812061074990611f1b565b610a858282611f25565b6115508282611f4b565b5050565b60006110c5836001600160a01b038416611fcf565b60006001600160e01b0319821663780e9d6360e01b148061074957506107498261201e565b600081815260066020526040902080546001600160a01b0319166001600160a01b03841690811790915581906115c382610f0b565b6001600160a01b03167f8c5be1e5ebec7d5bd14f71427d1e84f3dd0314c0f7b2291e5b200ac8c7c3b92560405160405180910390a45050565b6000818152600460205260408120546001600160a01b03166116755760405162461bcd60e51b815260206004820152602c60248201527f4552433732313a206f70657261746f7220717565727920666f72206e6f6e657860448201526b34b9ba32b73a103a37b5b2b760a11b6064820152608401610856565b600061168083610f0b565b9050806001600160a01b0316846001600160a01b031614806116bb5750836001600160a01b03166116b0846107e1565b6001600160a01b0316145b8061133757506001600160a01b0380821660009081526007602090815260408083209388168352929052205460ff16611337565b826001600160a01b031661170282610f0b565b6001600160a01b03161461176a5760405162461bcd60e51b815260206004820152602960248201527f4552433732313a207472616e73666572206f6620746f6b656e2074686174206960448201526839903737ba1037bbb760b91b6064820152608401610856565b6001600160a01b0382166117cc5760405162461bcd60e51b8152602060048201526024808201527f4552433732313a207472616e7366657220746f20746865207a65726f206164646044820152637265737360e01b6064820152608401610856565b6117d783838361205e565b6117e260008261158e565b6001600160a01b038316600090815260056020526040812080546001929061180b908490612fa4565b90915550506001600160a01b0382166000908152600560205260408120805460019290611839908490612f34565b909155505060008181526004602052604080822080546001600160a01b0319166001600160a01b0386811691821790925591518493918716917fddf252ad1be2c89b69c2b068fc378daa952ba7f163c4a11628f55a4df523b3ef91a4505050565b6000828152602081905260409020600101546118b68133612069565b61098c8383611f4b565b6001600160a01b03811633146119305760405162461bcd60e51b815260206004820152602f60248201527f416363657373436f6e74726f6c3a2063616e206f6e6c792072656e6f756e636560448201526e103937b632b9903337b91039b2b63360891b6064820152608401610856565b61155082826120cd565b60006110c5836001600160a01b038416612132565b600c5460ff166119985760405162461bcd60e51b815260206004820152601460248201527314185d5cd8589b194e881b9bdd081c185d5cd95960621b6044820152606401610856565b600c805460ff191690557f5db9ee0a495bf2e6ff9c91a7834c1ba4fdd244a5e8aa4e537bd38aeae4b073aa335b6040516001600160a01b03909116815260200160405180910390a1565b60006119ed82610f0b565b90506119fb8160008461205e565b611a0660008361158e565b6001600160a01b0381166000908152600560205260408120805460019290611a2f908490612fa4565b909155505060008281526004602052604080822080546001600160a01b0319169055518391906001600160a01b038416907fddf252ad1be2c89b69c2b068fc378daa952ba7f163c4a11628f55a4df523b3ef908390a45050565b6000806000611a96612225565b60ff16905060006101cc821115611aaf57506000611af3565b6101048261ffff161115611ac557506001611af3565b606e8261ffff161115611ada57506002611af3565b600a8261ffff161115611aef57506003611af3565b5060045b805b60008160000b12611ba05760ff80871660009081526013602090815260408083209385168352928152908290208251606081018452905461ffff8082168084526201000083048216948401859052600160201b909204169382019390935283929091611b62906001612f17565b61ffff1611611b8b578181602001516001611b7d9190612f17565b965096505050505050915091565b50508080611b9890612fe7565b915050611af5565b506000611bae826001612f4c565b90505b60048160000b13611c4e5760ff80871660009081526013602090815260408083209385168352928152908290208251606081018452905461ffff8082168084526201000083048216948401859052600160201b909204169382019390935283929091611c1e906001612f17565b61ffff1611611c39578181602001516001611b7d9190612f17565b50508080611c469061305a565b915050611bb1565b5060405162461bcd60e51b8152602060048201526011602482015270139bc8185d985a5b18589b194818d85c99607a1b6044820152606401610856565b6000611cb77f9f2df0fed2c77648de5860a4cc508cd0818c85b8b8a1ab4ceeef8d981c8956a633611165565b611d295760405162461bcd60e51b815260206004820152603d60248201527f4552433732315072657365744d696e7465725061757365724175746f49643a2060448201527f6d7573742068617665206d696e74657220726f6c6520746f206d696e740000006064820152608401610856565b6000611d34600d5490565b9050611d46848463ffffffff1661226e565b6110c5600d80546001019055565b600c5460ff1615611d9a5760405162461bcd60e51b815260206004820152601060248201526f14185d5cd8589b194e881c185d5cd95960821b6044820152606401610856565b600c805460ff191660011790557f62e78cea01bee320cd4e420270b5ea74000d11b0c9f74754ebdbfc544b05a2586119c53390565b60006110c583836123bc565b611de68484846116ef565b611df2848484846123e6565b6114455760405162461bcd60e51b815260040161085690612e74565b6060600e805461075e9061301f565b606081611e415750506040805180820190915260018152600360fc1b602082015290565b8160005b8115611e6b5780611e558161307a565b9150611e649050600a83612f71565b9150611e45565b60008167ffffffffffffffff811115611e8657611e86613101565b6040519080825280601f01601f191660200182016040528015611eb0576020820181803683370190505b5090505b841561133757611ec5600183612fa4565b9150611ed2600a86613095565b611edd906030612f34565b60f81b818381518110611ef257611ef26130eb565b60200101906001600160f81b031916908160001a905350611f14600a86612f71565b9450611eb4565b6000610749825490565b600082815260208190526040902060010154611f418133612069565b61098c83836120cd565b611f558282611165565b611550576000828152602081815260408083206001600160a01b03851684529091529020805460ff19166001179055611f8b3390565b6001600160a01b0316816001600160a01b0316837f2f8788117e7eff1d82e926ec794901d17c78024a50270940304540a733656f0d60405160405180910390a45050565b600081815260018301602052604081205461201657508154600181810184556000848152602080822090930184905584548482528286019093526040902091909155610749565b506000610749565b60006001600160e01b031982166380ac58cd60e01b148061204f57506001600160e01b03198216635b5e139f60e01b145b806107495750610749826124f0565b61098c838383612515565b6120738282611165565b6115505761208b816001600160a01b03166014612587565b612096836020612587565b6040516020016120a7929190612daf565b60408051601f198184030181529082905262461bcd60e51b825261085691600401612e61565b6120d78282611165565b15611550576000828152602081815260408083206001600160a01b0385168085529252808320805460ff1916905551339285917ff6391f5c32d9c69d2a47ea670b442974b53935d1edc7fd64eb21e047a839171b9190a45050565b6000818152600183016020526040812054801561221b576000612156600183612fa4565b855490915060009061216a90600190612fa4565b90508181146121cf57600086600001828154811061218a5761218a6130eb565b90600052602060002001549050808760000184815481106121ad576121ad6130eb565b6000918252602080832090910192909255918252600188019052604090208390555b85548690806121e0576121e06130d5565b600190038181906000526020600020016000905590558560010160008681526020019081526020016000206000905560019350505050610749565b6000915050610749565b60006103e84244604051602001612246929190918252602082015260400190565b6040516020818303038152906040528051906020012060001c6122699190613095565b905090565b6001600160a01b0382166122c45760405162461bcd60e51b815260206004820181905260248201527f4552433732313a206d696e7420746f20746865207a65726f20616464726573736044820152606401610856565b6000818152600460205260409020546001600160a01b0316156123295760405162461bcd60e51b815260206004820152601c60248201527f4552433732313a20746f6b656e20616c7265616479206d696e746564000000006044820152606401610856565b6123356000838361205e565b6001600160a01b038216600090815260056020526040812080546001929061235e908490612f34565b909155505060008181526004602052604080822080546001600160a01b0319166001600160a01b03861690811790915590518392907fddf252ad1be2c89b69c2b068fc378daa952ba7f163c4a11628f55a4df523b3ef908290a45050565b60008260000182815481106123d3576123d36130eb565b9060005260206000200154905092915050565b60006001600160a01b0384163b156124e857604051630a85bd0160e11b81526001600160a01b0385169063150b7a029061242a903390899088908890600401612e24565b602060405180830381600087803b15801561244457600080fd5b505af1925050508015612474575060408051601f3d908101601f1916820190925261247191810190612c28565b60015b6124ce573d8080156124a2576040519150601f19603f3d011682016040523d82523d6000602084013e6124a7565b606091505b5080516124c65760405162461bcd60e51b815260040161085690612e74565b805181602001fd5b6001600160e01b031916630a85bd0160e11b149050611337565b506001611337565b60006001600160e01b03198216635a05180f60e01b1480610749575061074982612723565b612520838383612758565b600c5460ff161561098c5760405162461bcd60e51b815260206004820152602b60248201527f4552433732315061757361626c653a20746f6b656e207472616e73666572207760448201526a1a1a5b19481c185d5cd95960aa1b6064820152608401610856565b60606000612596836002612f85565b6125a1906002612f34565b67ffffffffffffffff8111156125b9576125b9613101565b6040519080825280601f01601f1916602001820160405280156125e3576020820181803683370190505b509050600360fc1b816000815181106125fe576125fe6130eb565b60200101906001600160f81b031916908160001a905350600f60fb1b8160018151811061262d5761262d6130eb565b60200101906001600160f81b031916908160001a9053506000612651846002612f85565b61265c906001612f34565b90505b60018111156126d4576f181899199a1a9b1b9c1cb0b131b232b360811b85600f1660108110612690576126906130eb565b1a60f81b8282815181106126a6576126a66130eb565b60200101906001600160f81b031916908160001a90535060049490941c936126cd81613008565b905061265f565b5083156110c55760405162461bcd60e51b815260206004820181905260248201527f537472696e67733a20686578206c656e67746820696e73756666696369656e746044820152606401610856565b60006001600160e01b03198216637965db0b60e01b148061074957506301ffc9a760e01b6001600160e01b0319831614610749565b6001600160a01b0383166127b3576127ae81600a80546000838152600b60205260408120829055600182018355919091527fc65a7bb8d6351c1cf70c95a316cc6a92839c986682d98bc35f958f4883f9d2a80155565b6127d6565b816001600160a01b0316836001600160a01b0316146127d6576127d68382612810565b6001600160a01b0382166127ed5761098c816128ad565b826001600160a01b0316826001600160a01b03161461098c5761098c828261295c565b6000600161281d84610f82565b6128279190612fa4565b60008381526009602052604090205490915080821461287a576001600160a01b03841660009081526008602090815260408083208584528252808320548484528184208190558352600990915290208190555b5060009182526009602090815260408084208490556001600160a01b039094168352600881528383209183525290812055565b600a546000906128bf90600190612fa4565b6000838152600b6020526040812054600a80549394509092849081106128e7576128e76130eb565b9060005260206000200154905080600a8381548110612908576129086130eb565b6000918252602080832090910192909255828152600b9091526040808220849055858252812055600a805480612940576129406130d5565b6001900381819060005260206000200160009055905550505050565b600061296783610f82565b6001600160a01b039093166000908152600860209081526040808320868452825280832085905593825260099052919091209190915550565b80356001600160a01b03811681146129b757600080fd5b919050565b803563ffffffff811681146129b757600080fd5b803560ff811681146129b757600080fd5b6000602082840312156129f357600080fd5b6110c5826129a0565b60008060408385031215612a0f57600080fd5b612a18836129a0565b9150612a26602084016129a0565b90509250929050565b600080600060608486031215612a4457600080fd5b612a4d846129a0565b9250612a5b602085016129a0565b9150604084013590509250925092565b60008060008060808587031215612a8157600080fd5b612a8a856129a0565b9350612a98602086016129a0565b925060408501359150606085013567ffffffffffffffff80821115612abc57600080fd5b818701915087601f830112612ad057600080fd5b813581811115612ae257612ae2613101565b604051601f8201601f19908116603f01168101908382118183101715612b0a57612b0a613101565b816040528281528a6020848701011115612b2357600080fd5b82602086016020830137600060208483010152809550505050505092959194509250565b60008060408385031215612b5a57600080fd5b612b63836129a0565b915060208301358015158114612b7857600080fd5b809150509250929050565b60008060408385031215612b9657600080fd5b612b9f836129a0565b946020939093013593505050565b600060208284031215612bbf57600080fd5b5035919050565b60008060408385031215612bd957600080fd5b82359150612a26602084016129a0565b60008060408385031215612bfc57600080fd5b50508035926020909101359150565b600060208284031215612c1d57600080fd5b81356110c581613117565b600060208284031215612c3a57600080fd5b81516110c581613117565b600080600060608486031215612c5a57600080fd5b612c63846129d0565b9250612c71602085016129bc565b9150612c7f604085016129a0565b90509250925092565b60008060008060808587031215612c9e57600080fd5b612ca7856129d0565b9350612cb5602086016129bc565b9250612cc3604086016129d0565b9150612cd1606086016129a0565b905092959194509250565b60008060408385031215612cef57600080fd5b612cf8836129d0565b9150612a26602084016129d0565b600080600060608486031215612d1b57600080fd5b612d24846129d0565b9250612d32602085016129d0565b9150604084013561ffff81168114612d4957600080fd5b809150509250925092565b60008151808452612d6c816020860160208601612fbb565b601f01601f19169290920160200192915050565b60008351612d92818460208801612fbb565b835190830190612da6818360208801612fbb565b01949350505050565b7f416363657373436f6e74726f6c3a206163636f756e7420000000000000000000815260008351612de7816017850160208801612fbb565b7001034b99036b4b9b9b4b733903937b6329607d1b6017918401918201528351612e18816028840160208801612fbb565b01602801949350505050565b6001600160a01b0385811682528416602082015260408101839052608060608201819052600090612e5790830184612d54565b9695505050505050565b6020815260006110c56020830184612d54565b60208082526032908201527f4552433732313a207472616e7366657220746f206e6f6e20455243373231526560408201527131b2b4bb32b91034b6b83632b6b2b73a32b960711b606082015260800190565b60208082526031908201527f4552433732313a207472616e736665722063616c6c6572206973206e6f74206f6040820152701ddb995c881b9bdc88185c1c1c9bdd9959607a1b606082015260800190565b600061ffff808316818516808303821115612da657612da66130a9565b60008219821115612f4757612f476130a9565b500190565b600060ff821660ff84168060ff03821115612f6957612f696130a9565b019392505050565b600082612f8057612f806130bf565b500490565b6000816000190483118215151615612f9f57612f9f6130a9565b500290565b600082821015612fb657612fb66130a9565b500390565b60005b83811015612fd6578181015183820152602001612fbe565b838111156114455750506000910152565b600081810b607f19811415612ffe57612ffe6130a9565b6000190192915050565b600081613017576130176130a9565b506000190190565b600181811c9082168061303357607f821691505b6020821081141561305457634e487b7160e01b600052602260045260246000fd5b50919050565b60008160000b607f811415613071576130716130a9565b60010192915050565b600060001982141561308e5761308e6130a9565b5060010190565b6000826130a4576130a46130bf565b500690565b634e487b7160e01b600052601160045260246000fd5b634e487b7160e01b600052601260045260246000fd5b634e487b7160e01b600052603160045260246000fd5b634e487b7160e01b600052603260045260246000fd5b634e487b7160e01b600052604160045260246000fd5b6001600160e01b031981168114610bd757600080fdfea2646970667358221220fb15e36e2a3718cccd05371b0222807bac48757e40af4e86310ec57574ece2d264736f6c634300080600339f2df0fed2c77648de5860a4cc508cd0818c85b8b8a1ab4ceeef8d981c8956a6",
  "immutableReferences": {
    "9802": [
      {
        "length": 32,
        "start": 680
      },
      {
        "length": 32,
        "start": 3994
      },
      {
        "length": 32,
        "start": 4154
      }
    ],
    "9806": [
      {
        "length": 32,
        "start": 1049
      },
      {
        "length": 32,
        "start": 1765
      },
      {
        "length": 32,
        "start": 3521
      }
    ],
    "9808": [
      {
        "length": 32,
        "start": 1097
      },
      {
        "length": 32,
        "start": 1839
      },
      {
        "length": 32,
        "start": 3602
      }
    ],
    "9810": [
      {
        "length": 32,
        "start": 842
      },
      {
        "length": 32,
        "start": 1902
      },
      {
        "length": 32,
        "start": 3665
      }
    ]
  },
  "source": "// SPDX-License-Identifier: MIT\npragma solidity ^0.8.0;\n\nimport \"../extensions/ERC20Burnable.sol\";\nimport \"../../ERC721/utils/ERC721Holder.sol\";\n// import \"../../ERC721/IERC721Card.sol\";\nimport \"../../ERC721/presets/ERC721Card.sol\";\nimport \"../../../access/Ownable.sol\";\nimport \"../../../utils/math/SafeMath.sol\";\nimport \"../../../utils/Address.sol\";\n\n/**\n * @dev {ERC20} token, including:\n *\n *  - Preminted initial supply\n *  - Ability for holders to burn (destroy) their tokens\n *  - No access control mechanism (for minting/pausing) and hence no governance\n *\n * This contract uses {ERC20Burnable} to include burn capabilities - head to\n * its documentation for details.\n *\n * _Available since v3.4._\n */\n\n// pragma solidity >=0.5.0;\n\ninterface IUniswapV2Factory {\n    event PairCreated(\n        address indexed token0,\n        address indexed token1,\n        address pair,\n        uint256\n    );\n\n    function feeTo() external view returns (address);\n\n    function feeToSetter() external view returns (address);\n\n    function getPair(address tokenA, address tokenB)\n        external\n        view\n        returns (address pair);\n\n    function allPairs(uint256) external view returns (address pair);\n\n    function allPairsLength() external view returns (uint256);\n\n    function createPair(address tokenA, address tokenB)\n        external\n        returns (address pair);\n\n    function setFeeTo(address) external;\n\n    function setFeeToSetter(address) external;\n}\n\n// pragma solidity >=0.5.0;\n\ninterface IUniswapV2Pair {\n    event Approval(\n        address indexed owner,\n        address indexed spender,\n        uint256 value\n    );\n    event Transfer(address indexed from, address indexed to, uint256 value);\n\n    function name() external pure returns (string memory);\n\n    function symbol() external pure returns (string memory);\n\n    function decimals() external pure returns (uint8);\n\n    function totalSupply() external view returns (uint256);\n\n    function balanceOf(address owner) external view returns (uint256);\n\n    function allowance(address owner, address spender)\n        external\n        view\n        returns (uint256);\n\n    function approve(address spender, uint256 value) external returns (bool);\n\n    function transfer(address to, uint256 value) external returns (bool);\n\n    function transferFrom(\n        address from,\n        address to,\n        uint256 value\n    ) external returns (bool);\n\n    function DOMAIN_SEPARATOR() external view returns (bytes32);\n\n    function PERMIT_TYPEHASH() external pure returns (bytes32);\n\n    function nonces(address owner) external view returns (uint256);\n\n    function permit(\n        address owner,\n        address spender,\n        uint256 value,\n        uint256 deadline,\n        uint8 v,\n        bytes32 r,\n        bytes32 s\n    ) external;\n\n    event Mint(address indexed sender, uint256 amount0, uint256 amount1);\n    event Burn(\n        address indexed sender,\n        uint256 amount0,\n        uint256 amount1,\n        address indexed to\n    );\n    event Swap(\n        address indexed sender,\n        uint256 amount0In,\n        uint256 amount1In,\n        uint256 amount0Out,\n        uint256 amount1Out,\n        address indexed to\n    );\n    event Sync(uint112 reserve0, uint112 reserve1);\n\n    function MINIMUM_LIQUIDITY() external pure returns (uint256);\n\n    function factory() external view returns (address);\n\n    function token0() external view returns (address);\n\n    function token1() external view returns (address);\n\n    function getReserves()\n        external\n        view\n        returns (\n            uint112 reserve0,\n            uint112 reserve1,\n            uint32 blockTimestampLast\n        );\n\n    function price0CumulativeLast() external view returns (uint256);\n\n    function price1CumulativeLast() external view returns (uint256);\n\n    function kLast() external view returns (uint256);\n\n    function mint(address to) external returns (uint256 liquidity);\n\n    function burn(address to)\n        external\n        returns (uint256 amount0, uint256 amount1);\n\n    function swap(\n        uint256 amount0Out,\n        uint256 amount1Out,\n        address to,\n        bytes calldata data\n    ) external;\n\n    function skim(address to) external;\n\n    function sync() external;\n\n    function initialize(address, address) external;\n}\n\n// pragma solidity >=0.6.2;\n\ninterface IUniswapV2Router01 {\n    function factory() external pure returns (address);\n\n    function WETH() external pure returns (address);\n\n    function addLiquidity(\n        address tokenA,\n        address tokenB,\n        uint256 amountADesired,\n        uint256 amountBDesired,\n        uint256 amountAMin,\n        uint256 amountBMin,\n        address to,\n        uint256 deadline\n    )\n        external\n        returns (\n            uint256 amountA,\n            uint256 amountB,\n            uint256 liquidity\n        );\n\n    function addLiquidityETH(\n        address token,\n        uint256 amountTokenDesired,\n        uint256 amountTokenMin,\n        uint256 amountETHMin,\n        address to,\n        uint256 deadline\n    )\n        external\n        payable\n        returns (\n            uint256 amountToken,\n            uint256 amountETH,\n            uint256 liquidity\n        );\n\n    function removeLiquidity(\n        address tokenA,\n        address tokenB,\n        uint256 liquidity,\n        uint256 amountAMin,\n        uint256 amountBMin,\n        address to,\n        uint256 deadline\n    ) external returns (uint256 amountA, uint256 amountB);\n\n    function removeLiquidityETH(\n        address token,\n        uint256 liquidity,\n        uint256 amountTokenMin,\n        uint256 amountETHMin,\n        address to,\n        uint256 deadline\n    ) external returns (uint256 amountToken, uint256 amountETH);\n\n    function removeLiquidityWithPermit(\n        address tokenA,\n        address tokenB,\n        uint256 liquidity,\n        uint256 amountAMin,\n        uint256 amountBMin,\n        address to,\n        uint256 deadline,\n        bool approveMax,\n        uint8 v,\n        bytes32 r,\n        bytes32 s\n    ) external returns (uint256 amountA, uint256 amountB);\n\n    function removeLiquidityETHWithPermit(\n        address token,\n        uint256 liquidity,\n        uint256 amountTokenMin,\n        uint256 amountETHMin,\n        address to,\n        uint256 deadline,\n        bool approveMax,\n        uint8 v,\n        bytes32 r,\n        bytes32 s\n    ) external returns (uint256 amountToken, uint256 amountETH);\n\n    function swapExactTokensForTokens(\n        uint256 amountIn,\n        uint256 amountOutMin,\n        address[] calldata path,\n        address to,\n        uint256 deadline\n    ) external returns (uint256[] memory amounts);\n\n    function swapTokensForExactTokens(\n        uint256 amountOut,\n        uint256 amountInMax,\n        address[] calldata path,\n        address to,\n        uint256 deadline\n    ) external returns (uint256[] memory amounts);\n\n    function swapExactETHForTokens(\n        uint256 amountOutMin,\n        address[] calldata path,\n        address to,\n        uint256 deadline\n    ) external payable returns (uint256[] memory amounts);\n\n    function swapTokensForExactETH(\n        uint256 amountOut,\n        uint256 amountInMax,\n        address[] calldata path,\n        address to,\n        uint256 deadline\n    ) external returns (uint256[] memory amounts);\n\n    function swapExactTokensForETH(\n        uint256 amountIn,\n        uint256 amountOutMin,\n        address[] calldata path,\n        address to,\n        uint256 deadline\n    ) external returns (uint256[] memory amounts);\n\n    function swapETHForExactTokens(\n        uint256 amountOut,\n        address[] calldata path,\n        address to,\n        uint256 deadline\n    ) external payable returns (uint256[] memory amounts);\n\n    function quote(\n        uint256 amountA,\n        uint256 reserveA,\n        uint256 reserveB\n    ) external pure returns (uint256 amountB);\n\n    function getAmountOut(\n        uint256 amountIn,\n        uint256 reserveIn,\n        uint256 reserveOut\n    ) external pure returns (uint256 amountOut);\n\n    function getAmountIn(\n        uint256 amountOut,\n        uint256 reserveIn,\n        uint256 reserveOut\n    ) external pure returns (uint256 amountIn);\n\n    function getAmountsOut(uint256 amountIn, address[] calldata path)\n        external\n        view\n        returns (uint256[] memory amounts);\n\n    function getAmountsIn(uint256 amountOut, address[] calldata path)\n        external\n        view\n        returns (uint256[] memory amounts);\n}\n\n// pragma solidity >=0.6.2;\n\ninterface IUniswapV2Router02 is IUniswapV2Router01 {\n    function removeLiquidityETHSupportingFeeOnTransferTokens(\n        address token,\n        uint256 liquidity,\n        uint256 amountTokenMin,\n        uint256 amountETHMin,\n        address to,\n        uint256 deadline\n    ) external returns (uint256 amountETH);\n\n    function removeLiquidityETHWithPermitSupportingFeeOnTransferTokens(\n        address token,\n        uint256 liquidity,\n        uint256 amountTokenMin,\n        uint256 amountETHMin,\n        address to,\n        uint256 deadline,\n        bool approveMax,\n        uint8 v,\n        bytes32 r,\n        bytes32 s\n    ) external returns (uint256 amountETH);\n\n    function swapExactTokensForTokensSupportingFeeOnTransferTokens(\n        uint256 amountIn,\n        uint256 amountOutMin,\n        address[] calldata path,\n        address to,\n        uint256 deadline\n    ) external;\n\n    function swapExactETHForTokensSupportingFeeOnTransferTokens(\n        uint256 amountOutMin,\n        address[] calldata path,\n        address to,\n        uint256 deadline\n    ) external payable;\n\n    function swapExactTokensForETHSupportingFeeOnTransferTokens(\n        uint256 amountIn,\n        uint256 amountOutMin,\n        address[] calldata path,\n        address to,\n        uint256 deadline\n    ) external;\n}\n\ncontract ERC20PanToken is ERC20Burnable, Ownable, ERC721Holder {\n    using SafeMath for uint256;\n    using Address for address;\n    IUniswapV2Router02 public immutable uniswapV2Router;\n    // address public immutable uniswapV2Pair;\n    address public uniswapV2Pair;\n    address public immutable blackholeAddress;\n    address public immutable airdropAddress;\n    address public immutable liquidAddress;\n    ERC721Card public nftToken;\n    uint256 public initialSupply;\n    bool inSwapAndLiquify;\n    bool public swapAndLiquifyEnabled = false;\n\n    // Fee\n    uint256 private blackholeFeeRate = 5;\n    // uint256 private _luckyBonusFee = 2;\n    // uint256 private _holderBonusFee = 5; // 4: holder bonus, 1: redeem fund\n    uint256 private airdropFeeRate = 4;\n    uint256 private liquidityFeeRate = 4;\n    uint256 private allTxFeeRate = 13; // all up fee.\n\n    uint256 public minTokensSellToAddToLiquidity = 500 * 10**decimals();\n\n    // Mapping\n    mapping(address => bool) private _isExcludedFromFee;\n\n    event MinTokensBeforeSwapUpdated(uint256 minTokensBeforeSwap);\n    event SwapAndLiquifyEnabledUpdated(bool enabled);\n    event SwapAndLiquify(\n        uint256 tokensSwapped,\n        uint256 ethReceived,\n        uint256 tokensIntoLiqudity\n    );\n\n    modifier lockTheSwap() {\n        inSwapAndLiquify = true;\n        _;\n        inSwapAndLiquify = false;\n    }\n\n    /**\n     * @dev Mints `initialSupply` amount of token and transfers them to `owner`.\n     *\n     * See {ERC20-constructor}.\n     */\n    // constructor (address pancakeRouter, address nftAddress_, address blackholeAddress_, address airdropAddress_)\n    constructor(\n        address pancakeRouter,\n        address blackholeAddress_,\n        address airdropAddress_,\n        address liquidAddress_,\n        uint256 _initialSupply,\n        address owner\n    ) ERC20(\"PAN Token V2\", \"PAN\") {\n        blackholeAddress = blackholeAddress_;\n        airdropAddress = airdropAddress_;\n        liquidAddress = liquidAddress_;\n        initialSupply = _initialSupply * (10**decimals());\n\n        uniswapV2Router = IUniswapV2Router02(pancakeRouter);\n        nftToken = new ERC721Card(\n            msg.sender,\n            \"Pantheon NFT V2\",\n            \"PANNFT\",\n            \"https://api.pantheon.best/tokens/\"\n        );\n\n        _isExcludedFromFee[msg.sender] = true;\n        _isExcludedFromFee[address(this)] = true;\n        _isExcludedFromFee[airdropAddress_] = true;\n        _mint(owner, initialSupply);\n    }\n\n    function decimals() public view virtual override returns (uint8) {\n        return 18;\n    }\n\n    // Get a random 1000\n    function random() internal view returns (uint8) {\n        return\n            uint8(\n                uint256(\n                    keccak256(\n                        abi.encodePacked(block.timestamp, block.difficulty)\n                    )\n                ) % 1000\n            );\n    }\n\n    function transfer(address to, uint256 amount)\n        public\n        virtual\n        override\n        returns (bool)\n    {\n        // require(from != address(0), \"ERC20: transfer from the zero address\");\n        require(to != address(0), \"ERC20: transfer to the zero address\");\n        require(amount > 0, \"Transfer amount must be greater than zero\");\n\n        // // is the token balance of this contract address over the min number of\n        // // tokens that we need to initiate a swap + liquidity lock?\n        // // also, don't get caught in a circular liquidity event.\n        // // also, don't swap & liquify if sender is uniswap pair.\n        // bool overMinTokenBalance = balanceOf(address(this)) >= minTokensSellToAddToLiquidity;\n        // if (\n        //     !inSwapAndLiquify &&\n        //     balanceOf(address(this)) >= minTokensSellToAddToLiquidity &&\n        //     // from != uniswapV2Pair &&\n        //     swapAndLiquifyEnabled\n        // ) {\n        //     // Deal bonus and liquidity\n        //     if(uniswapV2Pair != address(0)) {\n        //         // Create a uniswap pair for this new token\n        //         dealBonusAndLiquify(minTokensSellToAddToLiquidity);\n        //     }\n        // }\n\n        // bool fromUniswap = false;\n\n        // if (from == uniswapV2Pair) {\n        //     // if buy token > 0.1ETH\n        //     // uint256 ethValue = amount.mul(_tokenPrice);\n        //     uint256 lockyThred = currentSupply.div(10000);\n        //     if (amount > lockyThred) {\n        //         luckyBonusAddress = to;\n        //     }\n        // }\n        uint16 rand = random();\n        uint8 level = 0;\n        bool isLucky = false;\n        // rand = nftToken.balanceOf(to)>5 ? rand * 3 /2 : rand;\n        if (msg.sender == uniswapV2Pair) {\n            if (amount > 2000e18) {\n                // 4 * 500\n                isLucky = true;\n                if (rand < 10) level = 4;\n                else if (rand < 20) level = 3;\n                else if (rand < 50) level = 2;\n                else if (rand < 500) level = 1;\n                else level = 0;\n            } else if (amount > 800e18) {\n                // 4 * 200\n                isLucky = true;\n                if (rand < 5) level = 4;\n                else if (rand < 10) level = 3;\n                else if (rand < 30) level = 2;\n                else if (rand < 300) level = 1;\n                else if (rand < 800) level = 0;\n                else isLucky = false;\n            } else if (amount > 200e18) {\n                // 4 * 50\n                isLucky = true;\n                if (rand < 1) level = 4;\n                else if (rand < 5) level = 3;\n                else if (rand < 15) level = 2;\n                else if (rand < 150) level = 1;\n                else if (rand < 500) level = 0;\n                else isLucky = false;\n            } else if (amount >= 40e18) {\n                // 4 * 10\n                isLucky = true;\n                if (rand < 1) level = 3;\n                else if (rand < 3) level = 2;\n                else if (rand < 40) level = 1;\n                else if (rand < 150) level = 0;\n                else isLucky = false;\n            }\n            if (isLucky) {\n                nftToken.mintWithLevel(0, 0, level, to);\n            }\n        }\n        //if any account belongs to _isExcludedFromFee account then remove the fee\n        if (_isExcludedFromFee[msg.sender] || _isExcludedFromFee[to]) {\n            _transfer(msg.sender, to, amount);\n        } else {\n            //transfer amount, it will take tax, burn, liquidity fee\n            _transfer(\n                msg.sender,\n                blackholeAddress,\n                amount.mul(blackholeFeeRate).div(100)\n            );\n            if (msg.sender != uniswapV2Pair) {\n                _transfer(\n                    msg.sender,\n                    airdropAddress,\n                    amount.mul(airdropFeeRate).div(100)\n                );\n                _transfer(\n                    msg.sender,\n                    liquidAddress,\n                    amount.mul(liquidityFeeRate).div(100)\n                );\n                _transfer(\n                    msg.sender,\n                    to,\n                    amount.sub(amount.mul(allTxFeeRate).div(100))\n                );\n            } else {\n                _transfer(\n                    msg.sender,\n                    to,\n                    amount.sub(amount.mul(blackholeFeeRate).div(100))\n                );\n            }\n        }\n        return true;\n    }\n\n    function transferFrom(\n        address sender,\n        address recipient,\n        uint256 amount\n    ) public virtual override returns (bool) {\n        //if any account belongs to _isExcludedFromFee account then remove the fee\n        if (_isExcludedFromFee[sender] || _isExcludedFromFee[recipient]) {\n            _transfer(sender, recipient, amount);\n        } else {\n            //transfer amount, it will take tax, burn, liquidity fee\n            _transfer(\n                sender,\n                blackholeAddress,\n                amount.mul(blackholeFeeRate).div(100)\n            );\n            _transfer(\n                sender,\n                airdropAddress,\n                amount.mul(airdropFeeRate).div(100)\n            );\n            _transfer(\n                sender,\n                liquidAddress,\n                amount.mul(liquidityFeeRate).div(100)\n            );\n            _transfer(\n                sender,\n                recipient,\n                amount.sub(amount.mul(allTxFeeRate).div(100))\n            );\n        }\n        _approve(\n            sender,\n            msg.sender,\n            allowance(sender, msg.sender).sub(\n                amount,\n                \"ERC20: transfer amount exceeds allowance\"\n            )\n        );\n\n        return true;\n    }\n\n    // function dealBonusAndLiquify(uint256 contractTokenBalance) private lockTheSwap {\n    //     // split the contract balance into halves\n    //     // 3/8 for liquidity, 5/8 for holder bonus\n    //     uint256 half = contractTokenBalance.div(2); //\n    //     uint256 otherHalf = contractTokenBalance.sub(half);\n\n    //     // capture the contract's current ETH balance.\n    //     // this is so that we can capture exactly the amount of ETH that the\n    //     // swap creates, and not make the liquidity event include any ETH that\n    //     // has been manually sent to the contract\n    //     uint256 initialBalance = address(this).balance;\n\n    //     // swap tokens for ETH\n    //     swapTokensForEth(otherHalf); // <- this breaks the ETH -> HATE swap when swap+liquify is triggered\n\n    //     // how much ETH did we just swap into?\n    //     uint256 newBalance = address(this).balance.sub(initialBalance);\n\n    //     // add liquidity to uniswap\n    //     addLiquidity(half, newBalance);\n    //     emit SwapAndLiquify(half, newBalance, otherHalf);\n    // }\n\n    // function swapTokensForEth(uint256 tokenAmount) private {\n    //     // generate the uniswap pair path of token -> weth\n    //     address[] memory path = new address[](2);\n    //     path[0] = address(this);\n    //     path[1] = uniswapV2Router.WETH();\n\n    //     _approve(address(this), address(uniswapV2Router), tokenAmount);\n\n    //     // make the swap\n    //     uniswapV2Router.swapExactTokensForETHSupportingFeeOnTransferTokens(\n    //         tokenAmount,\n    //         0, // accept any amount of ETH\n    //         path,\n    //         address(this),\n    //         block.timestamp\n    //     );\n    // }\n\n    // function addLiquidity(uint256 tokenAmount, uint256 ethAmount) private {\n    //     // approve token transfer to cover all possible scenarios\n    //     _approve(address(this), address(uniswapV2Router), tokenAmount);\n\n    //     // add the liquidity\n    //     uniswapV2Router.addLiquidityETH{value: ethAmount}(\n    //         address(this),\n    //         tokenAmount,\n    //         0, // slippage is unavoidable\n    //         0, // slippage is unavoidable\n    //         owner(),\n    //         block.timestamp\n    //     );\n    // }\n\n    function setNFTToken(address nftAddress_) public onlyOwner {\n        require(nftAddress_ != address(0));\n        nftToken = ERC721Card(nftAddress_);\n    }\n\n    function setExcludeFromFee(address account) public onlyOwner {\n        _isExcludedFromFee[account] = true;\n    }\n\n    function setIncludeInFee(address account) public onlyOwner {\n        _isExcludedFromFee[account] = false;\n    }\n\n    function setBlackholeFeePercent(uint256 blackholeFee) external onlyOwner {\n        blackholeFeeRate = blackholeFee;\n    }\n\n    function isExcludedFromFee(address account) public view returns (bool) {\n        return _isExcludedFromFee[account];\n    }\n\n    // function setLuckyBonusFeePercent(uint256 luckyBonusFee) external onlyOwner() {\n    //     _luckyBonusFee = luckyBonusFee;\n    // }\n\n    // function setHolderBonusFeePercent(uint256 holderBonusFee) external onlyOwner() {\n    //     _holderBonusFee = holderBonusFee;\n    // }\n\n    function setAirdropFeePercent(uint256 airdropFee) external onlyOwner {\n        airdropFeeRate = airdropFee;\n    }\n\n    function setLiquidityFeePercent(uint256 liquidityFee) external onlyOwner {\n        liquidityFeeRate = liquidityFee;\n    }\n\n    function setMinTokenAddLiquidity(uint256 minTokenAddLiquidity)\n        external\n        onlyOwner\n    {\n        minTokensSellToAddToLiquidity = minTokenAddLiquidity;\n    }\n\n    function setSwapAndLiquifyEnabled(bool enabled) public onlyOwner {\n        if (uniswapV2Pair == address(0)) {\n            // Create a uniswap pair for this new token\n            uniswapV2Pair = IUniswapV2Factory(uniswapV2Router.factory())\n                .createPair(address(this), uniswapV2Router.WETH());\n            _isExcludedFromFee[uniswapV2Pair] = true;\n        }\n        swapAndLiquifyEnabled = enabled;\n        emit SwapAndLiquifyEnabledUpdated(enabled);\n    }\n}\n",
  "sourcePath": "/Users/jilong/solidity/pantheonNFT/contracts/token/ERC20/presets/ERC20PanToken.sol",
  "compiler": {
    "name": "solc",
    "version": "0.8.6+commit.11564f7e.Emscripten.clang"
  },
  "schemaVersion": "3.4.3",
  "updatedAt": "2022-05-16T06:20:12.980Z",
  "devdoc": {
    "kind": "dev",
    "methods": {
      "allowance(address,address)": {
        "details": "See {IERC20-allowance}."
      },
      "approve(address,uint256)": {
        "details": "See {IERC20-approve}. Requirements: - `spender` cannot be the zero address."
      },
      "balanceOf(address)": {
        "details": "See {IERC20-balanceOf}."
      },
      "burn(uint256)": {
        "details": "Destroys `amount` tokens from the caller. See {ERC20-_burn}."
      },
      "burnFrom(address,uint256)": {
        "details": "Destroys `amount` tokens from `account`, deducting from the caller's allowance. See {ERC20-_burn} and {ERC20-allowance}. Requirements: - the caller must have allowance for ``accounts``'s tokens of at least `amount`."
      },
      "constructor": {
        "details": "Mints `initialSupply` amount of token and transfers them to `owner`. See {ERC20-constructor}."
      },
      "decimals()": {
        "details": "Returns the number of decimals used to get its user representation. For example, if `decimals` equals `2`, a balance of `505` tokens should be displayed to a user as `5,05` (`505 / 10 ** 2`). Tokens usually opt for a value of 18, imitating the relationship between Ether and Wei. This is the value {ERC20} uses, unless this function is overridden; NOTE: This information is only used for _display_ purposes: it in no way affects any of the arithmetic of the contract, including {IERC20-balanceOf} and {IERC20-transfer}."
      },
      "decreaseAllowance(address,uint256)": {
        "details": "Atomically decreases the allowance granted to `spender` by the caller. This is an alternative to {approve} that can be used as a mitigation for problems described in {IERC20-approve}. Emits an {Approval} event indicating the updated allowance. Requirements: - `spender` cannot be the zero address. - `spender` must have allowance for the caller of at least `subtractedValue`."
      },
      "increaseAllowance(address,uint256)": {
        "details": "Atomically increases the allowance granted to `spender` by the caller. This is an alternative to {approve} that can be used as a mitigation for problems described in {IERC20-approve}. Emits an {Approval} event indicating the updated allowance. Requirements: - `spender` cannot be the zero address."
      },
      "name()": {
        "details": "Returns the name of the token."
      },
      "onERC721Received(address,address,uint256,bytes)": {
        "details": "See {IERC721Receiver-onERC721Received}. Always returns `IERC721Receiver.onERC721Received.selector`."
      },
      "owner()": {
        "details": "Returns the address of the current owner."
      },
      "renounceOwnership()": {
        "details": "Leaves the contract without owner. It will not be possible to call `onlyOwner` functions anymore. Can only be called by the current owner. NOTE: Renouncing ownership will leave the contract without an owner, thereby removing any functionality that is only available to the owner."
      },
      "symbol()": {
        "details": "Returns the symbol of the token, usually a shorter version of the name."
      },
      "totalSupply()": {
        "details": "See {IERC20-totalSupply}."
      },
      "transferFrom(address,address,uint256)": {
        "details": "See {IERC20-transferFrom}. Emits an {Approval} event indicating the updated allowance. This is not required by the EIP. See the note at the beginning of {ERC20}. Requirements: - `sender` and `recipient` cannot be the zero address. - `sender` must have a balance of at least `amount`. - the caller must have allowance for ``sender``'s tokens of at least `amount`."
      },
      "transferOwnership(address)": {
        "details": "Transfers ownership of the contract to a new account (`newOwner`). Can only be called by the current owner."
      }
    },
    "version": 1
  },
  "userdoc": {
    "kind": "user",
    "methods": {},
    "version": 1
  }
}