{
  "contractName": "ERC721Card",
  "abi": [
    {
      "inputs": [
        {
          "internalType": "string",
          "name": "name",
          "type": "string"
        },
        {
          "internalType": "string",
          "name": "symbol",
          "type": "string"
        },
        {
          "internalType": "string",
          "name": "baseTokenURI",
          "type": "string"
        }
      ],
      "stateMutability": "nonpayable",
      "type": "constructor"
    },
    {
      "anonymous": false,
      "inputs": [
        {
          "indexed": true,
          "internalType": "address",
          "name": "owner",
          "type": "address"
        },
        {
          "indexed": true,
          "internalType": "address",
          "name": "approved",
          "type": "address"
        },
        {
          "indexed": true,
          "internalType": "uint256",
          "name": "tokenId",
          "type": "uint256"
        }
      ],
      "name": "Approval",
      "type": "event"
    },
    {
      "anonymous": false,
      "inputs": [
        {
          "indexed": true,
          "internalType": "address",
          "name": "owner",
          "type": "address"
        },
        {
          "indexed": true,
          "internalType": "address",
          "name": "operator",
          "type": "address"
        },
        {
          "indexed": false,
          "internalType": "bool",
          "name": "approved",
          "type": "bool"
        }
      ],
      "name": "ApprovalForAll",
      "type": "event"
    },
    {
      "anonymous": false,
      "inputs": [
        {
          "indexed": true,
          "internalType": "address",
          "name": "to",
          "type": "address"
        },
        {
          "indexed": false,
          "internalType": "uint16",
          "name": "level",
          "type": "uint16"
        },
        {
          "indexed": false,
          "internalType": "uint256",
          "name": "id",
          "type": "uint256"
        },
        {
          "indexed": false,
          "internalType": "uint256",
          "name": "timestamp",
          "type": "uint256"
        }
      ],
      "name": "MintWithLevel",
      "type": "event"
    },
    {
      "anonymous": false,
      "inputs": [
        {
          "indexed": false,
          "internalType": "address",
          "name": "account",
          "type": "address"
        }
      ],
      "name": "Paused",
      "type": "event"
    },
    {
      "anonymous": false,
      "inputs": [
        {
          "indexed": true,
          "internalType": "bytes32",
          "name": "role",
          "type": "bytes32"
        },
        {
          "indexed": true,
          "internalType": "bytes32",
          "name": "previousAdminRole",
          "type": "bytes32"
        },
        {
          "indexed": true,
          "internalType": "bytes32",
          "name": "newAdminRole",
          "type": "bytes32"
        }
      ],
      "name": "RoleAdminChanged",
      "type": "event"
    },
    {
      "anonymous": false,
      "inputs": [
        {
          "indexed": true,
          "internalType": "bytes32",
          "name": "role",
          "type": "bytes32"
        },
        {
          "indexed": true,
          "internalType": "address",
          "name": "account",
          "type": "address"
        },
        {
          "indexed": true,
          "internalType": "address",
          "name": "sender",
          "type": "address"
        }
      ],
      "name": "RoleGranted",
      "type": "event"
    },
    {
      "anonymous": false,
      "inputs": [
        {
          "indexed": true,
          "internalType": "bytes32",
          "name": "role",
          "type": "bytes32"
        },
        {
          "indexed": true,
          "internalType": "address",
          "name": "account",
          "type": "address"
        },
        {
          "indexed": true,
          "internalType": "address",
          "name": "sender",
          "type": "address"
        }
      ],
      "name": "RoleRevoked",
      "type": "event"
    },
    {
      "anonymous": false,
      "inputs": [
        {
          "indexed": true,
          "internalType": "address",
          "name": "from",
          "type": "address"
        },
        {
          "indexed": true,
          "internalType": "address",
          "name": "to",
          "type": "address"
        },
        {
          "indexed": true,
          "internalType": "uint256",
          "name": "tokenId",
          "type": "uint256"
        }
      ],
      "name": "Transfer",
      "type": "event"
    },
    {
      "anonymous": false,
      "inputs": [
        {
          "indexed": false,
          "internalType": "address",
          "name": "account",
          "type": "address"
        }
      ],
      "name": "Unpaused",
      "type": "event"
    },
    {
      "inputs": [],
      "name": "DEFAULT_ADMIN_ROLE",
      "outputs": [
        {
          "internalType": "bytes32",
          "name": "",
          "type": "bytes32"
        }
      ],
      "stateMutability": "view",
      "type": "function",
      "constant": true
    },
    {
      "inputs": [],
      "name": "MINTER_ROLE",
      "outputs": [
        {
          "internalType": "bytes32",
          "name": "",
          "type": "bytes32"
        }
      ],
      "stateMutability": "view",
      "type": "function",
      "constant": true
    },
    {
      "inputs": [],
      "name": "PAUSER_ROLE",
      "outputs": [
        {
          "internalType": "bytes32",
          "name": "",
          "type": "bytes32"
        }
      ],
      "stateMutability": "view",
      "type": "function",
      "constant": true
    },
    {
      "inputs": [
        {
          "internalType": "address",
          "name": "to",
          "type": "address"
        },
        {
          "internalType": "uint256",
          "name": "tokenId",
          "type": "uint256"
        }
      ],
      "name": "approve",
      "outputs": [],
      "stateMutability": "nonpayable",
      "type": "function"
    },
    {
      "inputs": [
        {
          "internalType": "address",
          "name": "owner",
          "type": "address"
        }
      ],
      "name": "balanceOf",
      "outputs": [
        {
          "internalType": "uint256",
          "name": "",
          "type": "uint256"
        }
      ],
      "stateMutability": "view",
      "type": "function",
      "constant": true
    },
    {
      "inputs": [
        {
          "internalType": "uint256",
          "name": "tokenId",
          "type": "uint256"
        }
      ],
      "name": "burn",
      "outputs": [],
      "stateMutability": "nonpayable",
      "type": "function"
    },
    {
      "inputs": [
        {
          "internalType": "uint256",
          "name": "tokenId",
          "type": "uint256"
        }
      ],
      "name": "getApproved",
      "outputs": [
        {
          "internalType": "address",
          "name": "",
          "type": "address"
        }
      ],
      "stateMutability": "view",
      "type": "function",
      "constant": true
    },
    {
      "inputs": [
        {
          "internalType": "bytes32",
          "name": "role",
          "type": "bytes32"
        }
      ],
      "name": "getRoleAdmin",
      "outputs": [
        {
          "internalType": "bytes32",
          "name": "",
          "type": "bytes32"
        }
      ],
      "stateMutability": "view",
      "type": "function",
      "constant": true
    },
    {
      "inputs": [
        {
          "internalType": "bytes32",
          "name": "role",
          "type": "bytes32"
        },
        {
          "internalType": "uint256",
          "name": "index",
          "type": "uint256"
        }
      ],
      "name": "getRoleMember",
      "outputs": [
        {
          "internalType": "address",
          "name": "",
          "type": "address"
        }
      ],
      "stateMutability": "view",
      "type": "function",
      "constant": true
    },
    {
      "inputs": [
        {
          "internalType": "bytes32",
          "name": "role",
          "type": "bytes32"
        }
      ],
      "name": "getRoleMemberCount",
      "outputs": [
        {
          "internalType": "uint256",
          "name": "",
          "type": "uint256"
        }
      ],
      "stateMutability": "view",
      "type": "function",
      "constant": true
    },
    {
      "inputs": [
        {
          "internalType": "bytes32",
          "name": "role",
          "type": "bytes32"
        },
        {
          "internalType": "address",
          "name": "account",
          "type": "address"
        }
      ],
      "name": "grantRole",
      "outputs": [],
      "stateMutability": "nonpayable",
      "type": "function"
    },
    {
      "inputs": [
        {
          "internalType": "bytes32",
          "name": "role",
          "type": "bytes32"
        },
        {
          "internalType": "address",
          "name": "account",
          "type": "address"
        }
      ],
      "name": "hasRole",
      "outputs": [
        {
          "internalType": "bool",
          "name": "",
          "type": "bool"
        }
      ],
      "stateMutability": "view",
      "type": "function",
      "constant": true
    },
    {
      "inputs": [
        {
          "internalType": "address",
          "name": "owner",
          "type": "address"
        },
        {
          "internalType": "address",
          "name": "operator",
          "type": "address"
        }
      ],
      "name": "isApprovedForAll",
      "outputs": [
        {
          "internalType": "bool",
          "name": "",
          "type": "bool"
        }
      ],
      "stateMutability": "view",
      "type": "function",
      "constant": true
    },
    {
      "inputs": [],
      "name": "name",
      "outputs": [
        {
          "internalType": "string",
          "name": "",
          "type": "string"
        }
      ],
      "stateMutability": "view",
      "type": "function",
      "constant": true
    },
    {
      "inputs": [
        {
          "internalType": "uint256",
          "name": "tokenId",
          "type": "uint256"
        }
      ],
      "name": "ownerOf",
      "outputs": [
        {
          "internalType": "address",
          "name": "",
          "type": "address"
        }
      ],
      "stateMutability": "view",
      "type": "function",
      "constant": true
    },
    {
      "inputs": [],
      "name": "paused",
      "outputs": [
        {
          "internalType": "bool",
          "name": "",
          "type": "bool"
        }
      ],
      "stateMutability": "view",
      "type": "function",
      "constant": true
    },
    {
      "inputs": [
        {
          "internalType": "bytes32",
          "name": "role",
          "type": "bytes32"
        },
        {
          "internalType": "address",
          "name": "account",
          "type": "address"
        }
      ],
      "name": "renounceRole",
      "outputs": [],
      "stateMutability": "nonpayable",
      "type": "function"
    },
    {
      "inputs": [
        {
          "internalType": "bytes32",
          "name": "role",
          "type": "bytes32"
        },
        {
          "internalType": "address",
          "name": "account",
          "type": "address"
        }
      ],
      "name": "revokeRole",
      "outputs": [],
      "stateMutability": "nonpayable",
      "type": "function"
    },
    {
      "inputs": [
        {
          "internalType": "address",
          "name": "from",
          "type": "address"
        },
        {
          "internalType": "address",
          "name": "to",
          "type": "address"
        },
        {
          "internalType": "uint256",
          "name": "tokenId",
          "type": "uint256"
        }
      ],
      "name": "safeTransferFrom",
      "outputs": [],
      "stateMutability": "nonpayable",
      "type": "function"
    },
    {
      "inputs": [
        {
          "internalType": "address",
          "name": "from",
          "type": "address"
        },
        {
          "internalType": "address",
          "name": "to",
          "type": "address"
        },
        {
          "internalType": "uint256",
          "name": "tokenId",
          "type": "uint256"
        },
        {
          "internalType": "bytes",
          "name": "_data",
          "type": "bytes"
        }
      ],
      "name": "safeTransferFrom",
      "outputs": [],
      "stateMutability": "nonpayable",
      "type": "function"
    },
    {
      "inputs": [
        {
          "internalType": "address",
          "name": "operator",
          "type": "address"
        },
        {
          "internalType": "bool",
          "name": "approved",
          "type": "bool"
        }
      ],
      "name": "setApprovalForAll",
      "outputs": [],
      "stateMutability": "nonpayable",
      "type": "function"
    },
    {
      "inputs": [],
      "name": "symbol",
      "outputs": [
        {
          "internalType": "string",
          "name": "",
          "type": "string"
        }
      ],
      "stateMutability": "view",
      "type": "function",
      "constant": true
    },
    {
      "inputs": [
        {
          "internalType": "uint256",
          "name": "index",
          "type": "uint256"
        }
      ],
      "name": "tokenByIndex",
      "outputs": [
        {
          "internalType": "uint256",
          "name": "",
          "type": "uint256"
        }
      ],
      "stateMutability": "view",
      "type": "function",
      "constant": true
    },
    {
      "inputs": [
        {
          "internalType": "address",
          "name": "owner",
          "type": "address"
        },
        {
          "internalType": "uint256",
          "name": "index",
          "type": "uint256"
        }
      ],
      "name": "tokenOfOwnerByIndex",
      "outputs": [
        {
          "internalType": "uint256",
          "name": "",
          "type": "uint256"
        }
      ],
      "stateMutability": "view",
      "type": "function",
      "constant": true
    },
    {
      "inputs": [
        {
          "internalType": "uint256",
          "name": "tokenId",
          "type": "uint256"
        }
      ],
      "name": "tokenURI",
      "outputs": [
        {
          "internalType": "string",
          "name": "",
          "type": "string"
        }
      ],
      "stateMutability": "view",
      "type": "function",
      "constant": true
    },
    {
      "inputs": [],
      "name": "totalSupply",
      "outputs": [
        {
          "internalType": "uint256",
          "name": "",
          "type": "uint256"
        }
      ],
      "stateMutability": "view",
      "type": "function",
      "constant": true
    },
    {
      "inputs": [
        {
          "internalType": "address",
          "name": "from",
          "type": "address"
        },
        {
          "internalType": "address",
          "name": "to",
          "type": "address"
        },
        {
          "internalType": "uint256",
          "name": "tokenId",
          "type": "uint256"
        }
      ],
      "name": "transferFrom",
      "outputs": [],
      "stateMutability": "nonpayable",
      "type": "function"
    },
    {
      "inputs": [
        {
          "internalType": "uint256",
          "name": "id",
          "type": "uint256"
        }
      ],
      "name": "levelOf",
      "outputs": [
        {
          "internalType": "uint8",
          "name": "level",
          "type": "uint8"
        }
      ],
      "stateMutability": "view",
      "type": "function",
      "constant": true
    },
    {
      "inputs": [
        {
          "internalType": "uint8",
          "name": "level",
          "type": "uint8"
        }
      ],
      "name": "levelView",
      "outputs": [
        {
          "internalType": "uint16",
          "name": "total",
          "type": "uint16"
        },
        {
          "internalType": "uint16",
          "name": "current",
          "type": "uint16"
        },
        {
          "internalType": "uint16",
          "name": "power",
          "type": "uint16"
        }
      ],
      "stateMutability": "view",
      "type": "function",
      "constant": true
    },
    {
      "inputs": [
        {
          "internalType": "uint8",
          "name": "_level",
          "type": "uint8"
        },
        {
          "internalType": "address",
          "name": "to",
          "type": "address"
        }
      ],
      "name": "mintWithLevel",
      "outputs": [
        {
          "internalType": "bool",
          "name": "",
          "type": "bool"
        }
      ],
      "stateMutability": "nonpayable",
      "type": "function"
    },
    {
      "inputs": [],
      "name": "pause",
      "outputs": [],
      "stateMutability": "nonpayable",
      "type": "function"
    },
    {
      "inputs": [],
      "name": "unpause",
      "outputs": [],
      "stateMutability": "nonpayable",
      "type": "function"
    },
    {
      "inputs": [
        {
          "internalType": "bytes4",
          "name": "interfaceId",
          "type": "bytes4"
        }
      ],
      "name": "supportsInterface",
      "outputs": [
        {
          "internalType": "bool",
          "name": "",
          "type": "bool"
        }
      ],
      "stateMutability": "view",
      "type": "function",
      "constant": true
    }
  ],
  "bytecode": "0x60806040523480156200001157600080fd5b506040516200571c3803806200571c83398181016040528101906200003791906200088e565b828281600290805190602001906200005192919062000760565b5080600390805190602001906200006a92919062000760565b5050506000600c60006101000a81548160ff02191690831515021790555080600e9080519060200190620000a092919062000760565b50620000c56000801b620000b96200016060201b60201c565b6200016860201b60201c565b620001067f9f2df0fed2c77648de5860a4cc508cd0818c85b8b8a1ab4ceeef8d981c8956a6620000fa6200016060201b60201c565b6200016860201b60201c565b620001477f65d7a28e3265b37a6474929f336521b332c1681b933f6cb9f3376673440d862a6200013b6200016060201b60201c565b6200016860201b60201c565b62000157620001b060201b60201c565b50505062000acb565b600033905090565b6200017f82826200051a60201b6200152c1760201c565b620001ab81600160008581526020019081526020016000206200053060201b6200153a1790919060201c565b505050565b604051806060016040528061fa0061ffff168152602001600061ffff168152602001606461ffff16815250601060008060ff16815260200190815260200160002060008201518160000160006101000a81548161ffff021916908361ffff16021790555060208201518160000160026101000a81548161ffff021916908361ffff16021790555060408201518160000160046101000a81548161ffff021916908361ffff160217905550905050604051806060016040528061465061ffff168152602001600061ffff168152602001609661ffff1681525060106000600160ff16815260200190815260200160002060008201518160000160006101000a81548161ffff021916908361ffff16021790555060208201518160000160026101000a81548161ffff021916908361ffff16021790555060408201518160000160046101000a81548161ffff021916908361ffff160217905550905050604051806060016040528061070861ffff168152602001600061ffff16815260200161012c61ffff1681525060106000600260ff16815260200190815260200160002060008201518160000160006101000a81548161ffff021916908361ffff16021790555060208201518160000160026101000a81548161ffff021916908361ffff16021790555060408201518160000160046101000a81548161ffff021916908361ffff160217905550905050604051806060016040528061038461ffff168152602001600061ffff16815260200161025861ffff1681525060106000600360ff16815260200190815260200160002060008201518160000160006101000a81548161ffff021916908361ffff16021790555060208201518160000160026101000a81548161ffff021916908361ffff16021790555060408201518160000160046101000a81548161ffff021916908361ffff160217905550905050604051806060016040528061012c61ffff168152602001600061ffff1681526020016105dc61ffff1681525060106000600460ff16815260200190815260200160002060008201518160000160006101000a81548161ffff021916908361ffff16021790555060208201518160000160026101000a81548161ffff021916908361ffff16021790555060408201518160000160046101000a81548161ffff021916908361ffff160217905550905050565b6200052c82826200056860201b60201c565b5050565b600062000560836000018373ffffffffffffffffffffffffffffffffffffffff1660001b6200065960201b60201c565b905092915050565b6200057a8282620006d360201b60201c565b6200065557600160008084815260200190815260200160002060000160008373ffffffffffffffffffffffffffffffffffffffff1673ffffffffffffffffffffffffffffffffffffffff16815260200190815260200160002060006101000a81548160ff021916908315150217905550620005fa6200016060201b60201c565b73ffffffffffffffffffffffffffffffffffffffff168173ffffffffffffffffffffffffffffffffffffffff16837f2f8788117e7eff1d82e926ec794901d17c78024a50270940304540a733656f0d60405160405180910390a45b5050565b60006200066d83836200073d60201b60201c565b620006c8578260000182908060018154018082558091505060019003906000526020600020016000909190919091505582600001805490508360010160008481526020019081526020016000208190555060019050620006cd565b600090505b92915050565b600080600084815260200190815260200160002060000160008373ffffffffffffffffffffffffffffffffffffffff1673ffffffffffffffffffffffffffffffffffffffff16815260200190815260200160002060009054906101000a900460ff16905092915050565b600080836001016000848152602001908152602001600020541415905092915050565b8280546200076e90620009dc565b90600052602060002090601f016020900481019282620007925760008555620007de565b82601f10620007ad57805160ff1916838001178555620007de565b82800160010185558215620007de579182015b82811115620007dd578251825591602001919060010190620007c0565b5b509050620007ed9190620007f1565b5090565b5b808211156200080c576000816000905550600101620007f2565b5090565b600062000827620008218462000970565b62000947565b90508281526020810184848401111562000846576200084562000aab565b5b62000853848285620009a6565b509392505050565b600082601f83011262000873576200087262000aa6565b5b81516200088584826020860162000810565b91505092915050565b600080600060608486031215620008aa57620008a962000ab5565b5b600084015167ffffffffffffffff811115620008cb57620008ca62000ab0565b5b620008d9868287016200085b565b935050602084015167ffffffffffffffff811115620008fd57620008fc62000ab0565b5b6200090b868287016200085b565b925050604084015167ffffffffffffffff8111156200092f576200092e62000ab0565b5b6200093d868287016200085b565b9150509250925092565b60006200095362000966565b905062000961828262000a12565b919050565b6000604051905090565b600067ffffffffffffffff8211156200098e576200098d62000a77565b5b620009998262000aba565b9050602081019050919050565b60005b83811015620009c6578082015181840152602081019050620009a9565b83811115620009d6576000848401525b50505050565b60006002820490506001821680620009f557607f821691505b6020821081141562000a0c5762000a0b62000a48565b5b50919050565b62000a1d8262000aba565b810181811067ffffffffffffffff8211171562000a3f5762000a3e62000a77565b5b80604052505050565b7f4e487b7100000000000000000000000000000000000000000000000000000000600052602260045260246000fd5b7f4e487b7100000000000000000000000000000000000000000000000000000000600052604160045260246000fd5b600080fd5b600080fd5b600080fd5b600080fd5b6000601f19601f8301169050919050565b614c418062000adb6000396000f3fe608060405234801561001057600080fd5b50600436106101fb5760003560e01c80636d5e30321161011a578063a22cb465116100ad578063ca15c8731161007c578063ca15c873146105fc578063d53913931461062c578063d547741f1461064a578063e63ab1e914610666578063e985e9c514610684576101fb565b8063a22cb46514610564578063afe7f51a14610580578063b88d4fde146105b0578063c87b56dd146105cc576101fb565b806390385b17116100e957806390385b17146104c657806391d14854146104f857806395d89b4114610528578063a217fddf14610546576101fb565b80636d5e30321461042c57806370a082311461045c5780638456cb591461048c5780639010d07c14610496576101fb565b80632f745c591161019257806342966c681161016157806342966c68146103925780634f6ccce7146103ae5780635c975abb146103de5780636352211e146103fc576101fb565b80632f745c591461032057806336568abe146103505780633f4ba83a1461036c57806342842e0e14610376576101fb565b806318160ddd116101ce57806318160ddd1461029a57806323b872dd146102b8578063248a9ca3146102d45780632f2ff15d14610304576101fb565b806301ffc9a71461020057806306fdde0314610230578063081812fc1461024e578063095ea7b31461027e575b600080fd5b61021a600480360381019061021591906134a3565b6106b4565b6040516102279190613b19565b60405180910390f35b6102386106c6565b6040516102459190613b4f565b60405180910390f35b610268600480360381019061026391906134fd565b610758565b6040516102759190613ab2565b60405180910390f35b610298600480360381019061029391906133b6565b6107dd565b005b6102a26108f5565b6040516102af9190613ec8565b60405180910390f35b6102d260048036038101906102cd91906132a0565b610902565b005b6102ee60048036038101906102e991906133f6565b610962565b6040516102fb9190613b34565b60405180910390f35b61031e60048036038101906103199190613423565b610981565b005b61033a600480360381019061033591906133b6565b6109b5565b6040516103479190613ec8565b60405180910390f35b61036a60048036038101906103659190613423565b610a5a565b005b610374610a8e565b005b610390600480360381019061038b91906132a0565b610b08565b005b6103ac60048036038101906103a791906134fd565b610b28565b005b6103c860048036038101906103c391906134fd565b610b84565b6040516103d59190613ec8565b60405180910390f35b6103e6610bf5565b6040516103f39190613b19565b60405180910390f35b610416600480360381019061041191906134fd565b610c0c565b6040516104239190613ab2565b60405180910390f35b610446600480360381019061044191906134fd565b610cbe565b6040516104539190613ee3565b60405180910390f35b61047660048036038101906104719190613233565b610ce8565b6040516104839190613ec8565b60405180910390f35b610494610da0565b005b6104b060048036038101906104ab9190613463565b610e1a565b6040516104bd9190613ab2565b60405180910390f35b6104e060048036038101906104db919061352a565b610e49565b6040516104ef93929190613e91565b60405180910390f35b610512600480360381019061050d9190613423565b610ef2565b60405161051f9190613b19565b60405180910390f35b610530610f5c565b60405161053d9190613b4f565b60405180910390f35b61054e610fee565b60405161055b9190613b34565b60405180910390f35b61057e60048036038101906105799190613376565b610ff5565b005b61059a60048036038101906105959190613557565b611176565b6040516105a79190613b19565b60405180910390f35b6105ca60048036038101906105c591906132f3565b6112ef565b005b6105e660048036038101906105e191906134fd565b611351565b6040516105f39190613b4f565b60405180910390f35b610616600480360381019061061191906133f6565b6113f8565b6040516106239190613ec8565b60405180910390f35b61063461141c565b6040516106419190613b34565b60405180910390f35b610664600480360381019061065f9190613423565b611440565b005b61066e611474565b60405161067b9190613b34565b60405180910390f35b61069e60048036038101906106999190613260565b611498565b6040516106ab9190613b19565b60405180910390f35b60006106bf8261156a565b9050919050565b6060600280546106d590614266565b80601f016020809104026020016040519081016040528092919081815260200182805461070190614266565b801561074e5780601f106107235761010080835404028352916020019161074e565b820191906000526020600020905b81548152906001019060200180831161073157829003601f168201915b5050505050905090565b6000610763826115e4565b6107a2576040517f08c379a000000000000000000000000000000000000000000000000000000000815260040161079990613d71565b60405180910390fd5b6006600083815260200190815260200160002060009054906101000a900473ffffffffffffffffffffffffffffffffffffffff169050919050565b60006107e882610c0c565b90508073ffffffffffffffffffffffffffffffffffffffff168373ffffffffffffffffffffffffffffffffffffffff161415610859576040517f08c379a000000000000000000000000000000000000000000000000000000000815260040161085090613dd1565b60405180910390fd5b8073ffffffffffffffffffffffffffffffffffffffff16610878611650565b73ffffffffffffffffffffffffffffffffffffffff1614806108a757506108a6816108a1611650565b611498565b5b6108e6576040517f08c379a00000000000000000000000000000000000000000000000000000000081526004016108dd90613cd1565b60405180910390fd5b6108f08383611658565b505050565b6000600a80549050905090565b61091361090d611650565b82611711565b610952576040517f08c379a000000000000000000000000000000000000000000000000000000000815260040161094990613df1565b60405180910390fd5b61095d8383836117ef565b505050565b6000806000838152602001908152602001600020600101549050919050565b61098b8282611a4b565b6109b0816001600085815260200190815260200160002061153a90919063ffffffff16565b505050565b60006109c083610ce8565b8210610a01576040517f08c379a00000000000000000000000000000000000000000000000000000000081526004016109f890613bd1565b60405180910390fd5b600860008473ffffffffffffffffffffffffffffffffffffffff1673ffffffffffffffffffffffffffffffffffffffff168152602001908152602001600020600083815260200190815260200160002054905092915050565b610a648282611a74565b610a898160016000858152602001908152602001600020611af790919063ffffffff16565b505050565b610abf7f65d7a28e3265b37a6474929f336521b332c1681b933f6cb9f3376673440d862a610aba611650565b610ef2565b610afe576040517f08c379a0000000000000000000000000000000000000000000000000000000008152600401610af590613e51565b60405180910390fd5b610b06611b27565b565b610b23838383604051806020016040528060008152506112ef565b505050565b610b39610b33611650565b82611711565b610b78576040517f08c379a0000000000000000000000000000000000000000000000000000000008152600401610b6f90613e31565b60405180910390fd5b610b8181611bc9565b50565b6000610b8e6108f5565b8210610bcf576040517f08c379a0000000000000000000000000000000000000000000000000000000008152600401610bc690613e11565b60405180910390fd5b600a8281548110610be357610be26143ff565b5b90600052602060002001549050919050565b6000600c60009054906101000a900460ff16905090565b6000806004600084815260200190815260200160002060009054906101000a900473ffffffffffffffffffffffffffffffffffffffff169050600073ffffffffffffffffffffffffffffffffffffffff168173ffffffffffffffffffffffffffffffffffffffff161415610cb5576040517f08c379a0000000000000000000000000000000000000000000000000000000008152600401610cac90613d11565b60405180910390fd5b80915050919050565b6000600f600083815260200190815260200160002060009054906101000a900460ff169050919050565b60008073ffffffffffffffffffffffffffffffffffffffff168273ffffffffffffffffffffffffffffffffffffffff161415610d59576040517f08c379a0000000000000000000000000000000000000000000000000000000008152600401610d5090613cf1565b60405180910390fd5b600560008373ffffffffffffffffffffffffffffffffffffffff1673ffffffffffffffffffffffffffffffffffffffff168152602001908152602001600020549050919050565b610dd17f65d7a28e3265b37a6474929f336521b332c1681b933f6cb9f3376673440d862a610dcc611650565b610ef2565b610e10576040517f08c379a0000000000000000000000000000000000000000000000000000000008152600401610e0790613c31565b60405180910390fd5b610e18611cda565b565b6000610e418260016000868152602001908152602001600020611d7d90919063ffffffff16565b905092915050565b600080600080601060008660ff1660ff1681526020019081526020016000206040518060600160405290816000820160009054906101000a900461ffff1661ffff1661ffff1681526020016000820160029054906101000a900461ffff1661ffff1661ffff1681526020016000820160049054906101000a900461ffff1661ffff1661ffff16815250509050806000015181602001518260400151935093509350509193909250565b600080600084815260200190815260200160002060000160008373ffffffffffffffffffffffffffffffffffffffff1673ffffffffffffffffffffffffffffffffffffffff16815260200190815260200160002060009054906101000a900460ff16905092915050565b606060038054610f6b90614266565b80601f0160208091040260200160405190810160405280929190818152602001828054610f9790614266565b8015610fe45780601f10610fb957610100808354040283529160200191610fe4565b820191906000526020600020905b815481529060010190602001808311610fc757829003601f168201915b5050505050905090565b6000801b81565b610ffd611650565b73ffffffffffffffffffffffffffffffffffffffff168273ffffffffffffffffffffffffffffffffffffffff16141561106b576040517f08c379a000000000000000000000000000000000000000000000000000000000815260040161106290613c71565b60405180910390fd5b8060076000611078611650565b73ffffffffffffffffffffffffffffffffffffffff1673ffffffffffffffffffffffffffffffffffffffff16815260200190815260200160002060008473ffffffffffffffffffffffffffffffffffffffff1673ffffffffffffffffffffffffffffffffffffffff16815260200190815260200160002060006101000a81548160ff0219169083151502179055508173ffffffffffffffffffffffffffffffffffffffff16611125611650565b73ffffffffffffffffffffffffffffffffffffffff167f17307eab39ab6107e8899845ad3d59bd9653f200f220920489ca2b5937696c318360405161116a9190613b19565b60405180910390a35050565b600060058360ff16106111be576040517f08c379a00000000000000000000000000000000000000000000000000000000081526004016111b590613d31565b60405180910390fd5b6000601060008560ff1660ff168152602001908152602001600020905060018160000160009054906101000a900461ffff166111fa91906140e7565b61ffff168160000160029054906101000a900461ffff1661ffff1610156112e45760018160000160028282829054906101000a900461ffff1661123d9190613fce565b92506101000a81548161ffff021916908361ffff160217905550600061126284611d97565b905084600f600083815260200190815260200160002060006101000a81548160ff021916908360ff1602179055508373ffffffffffffffffffffffffffffffffffffffff167fda8db738b3247209c0227b5d5f5eac5ba23940ce08abf8ea27cc4d183fe612a08683426040516112da93929190613efe565b60405180910390a2505b600191505092915050565b6113006112fa611650565b83611711565b61133f576040517f08c379a000000000000000000000000000000000000000000000000000000000815260040161133690613df1565b60405180910390fd5b61134b84848484611dc3565b50505050565b606061135c826115e4565b61139b576040517f08c379a000000000000000000000000000000000000000000000000000000000815260040161139290613db1565b60405180910390fd5b60006113a5611e1f565b905060008151116113c557604051806020016040528060008152506113f0565b806113cf84611eb1565b6040516020016113e0929190613a54565b6040516020818303038152906040525b915050919050565b600061141560016000848152602001908152602001600020612012565b9050919050565b7f9f2df0fed2c77648de5860a4cc508cd0818c85b8b8a1ab4ceeef8d981c8956a681565b61144a8282612027565b61146f8160016000858152602001908152602001600020611af790919063ffffffff16565b505050565b7f65d7a28e3265b37a6474929f336521b332c1681b933f6cb9f3376673440d862a81565b6000600760008473ffffffffffffffffffffffffffffffffffffffff1673ffffffffffffffffffffffffffffffffffffffff16815260200190815260200160002060008373ffffffffffffffffffffffffffffffffffffffff1673ffffffffffffffffffffffffffffffffffffffff16815260200190815260200160002060009054906101000a900460ff16905092915050565b6115368282612050565b5050565b6000611562836000018373ffffffffffffffffffffffffffffffffffffffff1660001b612130565b905092915050565b60007f780e9d63000000000000000000000000000000000000000000000000000000007bffffffffffffffffffffffffffffffffffffffffffffffffffffffff1916827bffffffffffffffffffffffffffffffffffffffffffffffffffffffff191614806115dd57506115dc826121a0565b5b9050919050565b60008073ffffffffffffffffffffffffffffffffffffffff166004600084815260200190815260200160002060009054906101000a900473ffffffffffffffffffffffffffffffffffffffff1673ffffffffffffffffffffffffffffffffffffffff1614159050919050565b600033905090565b816006600083815260200190815260200160002060006101000a81548173ffffffffffffffffffffffffffffffffffffffff021916908373ffffffffffffffffffffffffffffffffffffffff160217905550808273ffffffffffffffffffffffffffffffffffffffff166116cb83610c0c565b73ffffffffffffffffffffffffffffffffffffffff167f8c5be1e5ebec7d5bd14f71427d1e84f3dd0314c0f7b2291e5b200ac8c7c3b92560405160405180910390a45050565b600061171c826115e4565b61175b576040517f08c379a000000000000000000000000000000000000000000000000000000000815260040161175290613c91565b60405180910390fd5b600061176683610c0c565b90508073ffffffffffffffffffffffffffffffffffffffff168473ffffffffffffffffffffffffffffffffffffffff1614806117d557508373ffffffffffffffffffffffffffffffffffffffff166117bd84610758565b73ffffffffffffffffffffffffffffffffffffffff16145b806117e657506117e58185611498565b5b91505092915050565b8273ffffffffffffffffffffffffffffffffffffffff1661180f82610c0c565b73ffffffffffffffffffffffffffffffffffffffff1614611865576040517f08c379a000000000000000000000000000000000000000000000000000000000815260040161185c90613d91565b60405180910390fd5b600073ffffffffffffffffffffffffffffffffffffffff168273ffffffffffffffffffffffffffffffffffffffff1614156118d5576040517f08c379a00000000000000000000000000000000000000000000000000000000081526004016118cc90613c51565b60405180910390fd5b6118e0838383612282565b6118eb600082611658565b6001600560008573ffffffffffffffffffffffffffffffffffffffff1673ffffffffffffffffffffffffffffffffffffffff168152602001908152602001600020600082825461193b919061411b565b925050819055506001600560008473ffffffffffffffffffffffffffffffffffffffff1673ffffffffffffffffffffffffffffffffffffffff16815260200190815260200160002060008282546119929190614006565b92505081905550816004600083815260200190815260200160002060006101000a81548173ffffffffffffffffffffffffffffffffffffffff021916908373ffffffffffffffffffffffffffffffffffffffff160217905550808273ffffffffffffffffffffffffffffffffffffffff168473ffffffffffffffffffffffffffffffffffffffff167fddf252ad1be2c89b69c2b068fc378daa952ba7f163c4a11628f55a4df523b3ef60405160405180910390a4505050565b611a5482610962565b611a6581611a60611650565b612292565b611a6f8383612050565b505050565b611a7c611650565b73ffffffffffffffffffffffffffffffffffffffff168173ffffffffffffffffffffffffffffffffffffffff1614611ae9576040517f08c379a0000000000000000000000000000000000000000000000000000000008152600401611ae090613e71565b60405180910390fd5b611af3828261232f565b5050565b6000611b1f836000018373ffffffffffffffffffffffffffffffffffffffff1660001b612410565b905092915050565b611b2f610bf5565b611b6e576040517f08c379a0000000000000000000000000000000000000000000000000000000008152600401611b6590613bb1565b60405180910390fd5b6000600c60006101000a81548160ff0219169083151502179055507f5db9ee0a495bf2e6ff9c91a7834c1ba4fdd244a5e8aa4e537bd38aeae4b073aa611bb2611650565b604051611bbf9190613ab2565b60405180910390a1565b6000611bd482610c0c565b9050611be281600084612282565b611bed600083611658565b6001600560008373ffffffffffffffffffffffffffffffffffffffff1673ffffffffffffffffffffffffffffffffffffffff1681526020019081526020016000206000828254611c3d919061411b565b925050819055506004600083815260200190815260200160002060006101000a81549073ffffffffffffffffffffffffffffffffffffffff021916905581600073ffffffffffffffffffffffffffffffffffffffff168273ffffffffffffffffffffffffffffffffffffffff167fddf252ad1be2c89b69c2b068fc378daa952ba7f163c4a11628f55a4df523b3ef60405160405180910390a45050565b611ce2610bf5565b15611d22576040517f08c379a0000000000000000000000000000000000000000000000000000000008152600401611d1990613cb1565b60405180910390fd5b6001600c60006101000a81548160ff0219169083151502179055507f62e78cea01bee320cd4e420270b5ea74000d11b0c9f74754ebdbfc544b05a258611d66611650565b604051611d739190613ab2565b60405180910390a1565b6000611d8c8360000183612524565b60001c905092915050565b600080611da4600d61254f565b9050611db0838261255d565b611dba600d61272b565b80915050919050565b611dce8484846117ef565b611dda84848484612741565b611e19576040517f08c379a0000000000000000000000000000000000000000000000000000000008152600401611e1090613bf1565b60405180910390fd5b50505050565b6060600e8054611e2e90614266565b80601f0160208091040260200160405190810160405280929190818152602001828054611e5a90614266565b8015611ea75780601f10611e7c57610100808354040283529160200191611ea7565b820191906000526020600020905b815481529060010190602001808311611e8a57829003601f168201915b5050505050905090565b60606000821415611ef9576040518060400160405280600181526020017f3000000000000000000000000000000000000000000000000000000000000000815250905061200d565b600082905060005b60008214611f2b578080611f14906142c9565b915050600a82611f24919061405c565b9150611f01565b60008167ffffffffffffffff811115611f4757611f4661442e565b5b6040519080825280601f01601f191660200182016040528015611f795781602001600182028036833780820191505090505b5090505b6000851461200657600182611f92919061411b565b9150600a85611fa19190614312565b6030611fad9190614006565b60f81b818381518110611fc357611fc26143ff565b5b60200101907effffffffffffffffffffffffffffffffffffffffffffffffffffffffffffff1916908160001a905350600a85611fff919061405c565b9450611f7d565b8093505050505b919050565b6000612020826000016128d8565b9050919050565b61203082610962565b6120418161203c611650565b612292565b61204b838361232f565b505050565b61205a8282610ef2565b61212c57600160008084815260200190815260200160002060000160008373ffffffffffffffffffffffffffffffffffffffff1673ffffffffffffffffffffffffffffffffffffffff16815260200190815260200160002060006101000a81548160ff0219169083151502179055506120d1611650565b73ffffffffffffffffffffffffffffffffffffffff168173ffffffffffffffffffffffffffffffffffffffff16837f2f8788117e7eff1d82e926ec794901d17c78024a50270940304540a733656f0d60405160405180910390a45b5050565b600061213c83836128e9565b61219557826000018290806001815401808255809150506001900390600052602060002001600090919091909150558260000180549050836001016000848152602001908152602001600020819055506001905061219a565b600090505b92915050565b60007f80ac58cd000000000000000000000000000000000000000000000000000000007bffffffffffffffffffffffffffffffffffffffffffffffffffffffff1916827bffffffffffffffffffffffffffffffffffffffffffffffffffffffff1916148061226b57507f5b5e139f000000000000000000000000000000000000000000000000000000007bffffffffffffffffffffffffffffffffffffffffffffffffffffffff1916827bffffffffffffffffffffffffffffffffffffffffffffffffffffffff1916145b8061227b575061227a8261290c565b5b9050919050565b61228d838383612986565b505050565b61229c8282610ef2565b61232b576122c18173ffffffffffffffffffffffffffffffffffffffff1660146129de565b6122cf8360001c60206129de565b6040516020016122e0929190613a78565b6040516020818303038152906040526040517f08c379a00000000000000000000000000000000000000000000000000000000081526004016123229190613b4f565b60405180910390fd5b5050565b6123398282610ef2565b1561240c57600080600084815260200190815260200160002060000160008373ffffffffffffffffffffffffffffffffffffffff1673ffffffffffffffffffffffffffffffffffffffff16815260200190815260200160002060006101000a81548160ff0219169083151502179055506123b1611650565b73ffffffffffffffffffffffffffffffffffffffff168173ffffffffffffffffffffffffffffffffffffffff16837ff6391f5c32d9c69d2a47ea670b442974b53935d1edc7fd64eb21e047a839171b60405160405180910390a45b5050565b60008083600101600084815260200190815260200160002054905060008114612518576000600182612442919061411b565b905060006001866000018054905061245a919061411b565b90508181146124c957600086600001828154811061247b5761247a6143ff565b5b906000526020600020015490508087600001848154811061249f5761249e6143ff565b5b90600052602060002001819055508387600101600083815260200190815260200160002081905550505b856000018054806124dd576124dc6143d0565b5b60019003818190600052602060002001600090559055856001016000868152602001908152602001600020600090556001935050505061251e565b60009150505b92915050565b600082600001828154811061253c5761253b6143ff565b5b9060005260206000200154905092915050565b600081600001549050919050565b600073ffffffffffffffffffffffffffffffffffffffff168273ffffffffffffffffffffffffffffffffffffffff1614156125cd576040517f08c379a00000000000000000000000000000000000000000000000000000000081526004016125c490613d51565b60405180910390fd5b6125d6816115e4565b15612616576040517f08c379a000000000000000000000000000000000000000000000000000000000815260040161260d90613c11565b60405180910390fd5b61262260008383612282565b6001600560008473ffffffffffffffffffffffffffffffffffffffff1673ffffffffffffffffffffffffffffffffffffffff16815260200190815260200160002060008282546126729190614006565b92505081905550816004600083815260200190815260200160002060006101000a81548173ffffffffffffffffffffffffffffffffffffffff021916908373ffffffffffffffffffffffffffffffffffffffff160217905550808273ffffffffffffffffffffffffffffffffffffffff16600073ffffffffffffffffffffffffffffffffffffffff167fddf252ad1be2c89b69c2b068fc378daa952ba7f163c4a11628f55a4df523b3ef60405160405180910390a45050565b6001816000016000828254019250508190555050565b60006127628473ffffffffffffffffffffffffffffffffffffffff16612c1a565b156128cb578373ffffffffffffffffffffffffffffffffffffffff1663150b7a0261278b611650565b8786866040518563ffffffff1660e01b81526004016127ad9493929190613acd565b602060405180830381600087803b1580156127c757600080fd5b505af19250505080156127f857506040513d601f19601f820116820180604052508101906127f591906134d0565b60015b61287b573d8060008114612828576040519150601f19603f3d011682016040523d82523d6000602084013e61282d565b606091505b50600081511415612873576040517f08c379a000000000000000000000000000000000000000000000000000000000815260040161286a90613bf1565b60405180910390fd5b805181602001fd5b63150b7a0260e01b7bffffffffffffffffffffffffffffffffffffffffffffffffffffffff1916817bffffffffffffffffffffffffffffffffffffffffffffffffffffffff1916149150506128d0565b600190505b949350505050565b600081600001805490509050919050565b600080836001016000848152602001908152602001600020541415905092915050565b60007f5a05180f000000000000000000000000000000000000000000000000000000007bffffffffffffffffffffffffffffffffffffffffffffffffffffffff1916827bffffffffffffffffffffffffffffffffffffffffffffffffffffffff1916148061297f575061297e82612c2d565b5b9050919050565b612991838383612ca7565b612999610bf5565b156129d9576040517f08c379a00000000000000000000000000000000000000000000000000000000081526004016129d090613b91565b60405180910390fd5b505050565b6060600060028360026129f1919061408d565b6129fb9190614006565b67ffffffffffffffff811115612a1457612a1361442e565b5b6040519080825280601f01601f191660200182016040528015612a465781602001600182028036833780820191505090505b5090507f300000000000000000000000000000000000000000000000000000000000000081600081518110612a7e57612a7d6143ff565b5b60200101907effffffffffffffffffffffffffffffffffffffffffffffffffffffffffffff1916908160001a9053507f780000000000000000000000000000000000000000000000000000000000000081600181518110612ae257612ae16143ff565b5b60200101907effffffffffffffffffffffffffffffffffffffffffffffffffffffffffffff1916908160001a90535060006001846002612b22919061408d565b612b2c9190614006565b90505b6001811115612bcc577f3031323334353637383961626364656600000000000000000000000000000000600f861660108110612b6e57612b6d6143ff565b5b1a60f81b828281518110612b8557612b846143ff565b5b60200101907effffffffffffffffffffffffffffffffffffffffffffffffffffffffffffff1916908160001a905350600485901c945080612bc59061423c565b9050612b2f565b5060008414612c10576040517f08c379a0000000000000000000000000000000000000000000000000000000008152600401612c0790613b71565b60405180910390fd5b8091505092915050565b600080823b905060008111915050919050565b60007f7965db0b000000000000000000000000000000000000000000000000000000007bffffffffffffffffffffffffffffffffffffffffffffffffffffffff1916827bffffffffffffffffffffffffffffffffffffffffffffffffffffffff19161480612ca05750612c9f82612dbb565b5b9050919050565b612cb2838383612e25565b600073ffffffffffffffffffffffffffffffffffffffff168373ffffffffffffffffffffffffffffffffffffffff161415612cf557612cf081612e2a565b612d34565b8173ffffffffffffffffffffffffffffffffffffffff168373ffffffffffffffffffffffffffffffffffffffff1614612d3357612d328382612e73565b5b5b600073ffffffffffffffffffffffffffffffffffffffff168273ffffffffffffffffffffffffffffffffffffffff161415612d7757612d7281612fe0565b612db6565b8273ffffffffffffffffffffffffffffffffffffffff168273ffffffffffffffffffffffffffffffffffffffff1614612db557612db482826130b1565b5b5b505050565b60007f01ffc9a7000000000000000000000000000000000000000000000000000000007bffffffffffffffffffffffffffffffffffffffffffffffffffffffff1916827bffffffffffffffffffffffffffffffffffffffffffffffffffffffff1916149050919050565b505050565b600a80549050600b600083815260200190815260200160002081905550600a81908060018154018082558091505060019003906000526020600020016000909190919091505550565b60006001612e8084610ce8565b612e8a919061411b565b9050600060096000848152602001908152602001600020549050818114612f6f576000600860008673ffffffffffffffffffffffffffffffffffffffff1673ffffffffffffffffffffffffffffffffffffffff168152602001908152602001600020600084815260200190815260200160002054905080600860008773ffffffffffffffffffffffffffffffffffffffff1673ffffffffffffffffffffffffffffffffffffffff168152602001908152602001600020600084815260200190815260200160002081905550816009600083815260200190815260200160002081905550505b6009600084815260200190815260200160002060009055600860008573ffffffffffffffffffffffffffffffffffffffff1673ffffffffffffffffffffffffffffffffffffffff16815260200190815260200160002060008381526020019081526020016000206000905550505050565b60006001600a80549050612ff4919061411b565b90506000600b60008481526020019081526020016000205490506000600a8381548110613024576130236143ff565b5b9060005260206000200154905080600a8381548110613046576130456143ff565b5b906000526020600020018190555081600b600083815260200190815260200160002081905550600b600085815260200190815260200160002060009055600a805480613095576130946143d0565b5b6001900381819060005260206000200160009055905550505050565b60006130bc83610ce8565b905081600860008573ffffffffffffffffffffffffffffffffffffffff1673ffffffffffffffffffffffffffffffffffffffff168152602001908152602001600020600083815260200190815260200160002081905550806009600084815260200190815260200160002081905550505050565b600061314361313e84613f5a565b613f35565b90508281526020810184848401111561315f5761315e614462565b5b61316a8482856141fa565b509392505050565b60008135905061318181614b81565b92915050565b60008135905061319681614b98565b92915050565b6000813590506131ab81614baf565b92915050565b6000813590506131c081614bc6565b92915050565b6000815190506131d581614bc6565b92915050565b600082601f8301126131f0576131ef61445d565b5b8135613200848260208601613130565b91505092915050565b60008135905061321881614bdd565b92915050565b60008135905061322d81614bf4565b92915050565b6000602082840312156132495761324861446c565b5b600061325784828501613172565b91505092915050565b600080604083850312156132775761327661446c565b5b600061328585828601613172565b925050602061329685828601613172565b9150509250929050565b6000806000606084860312156132b9576132b861446c565b5b60006132c786828701613172565b93505060206132d886828701613172565b92505060406132e986828701613209565b9150509250925092565b6000806000806080858703121561330d5761330c61446c565b5b600061331b87828801613172565b945050602061332c87828801613172565b935050604061333d87828801613209565b925050606085013567ffffffffffffffff81111561335e5761335d614467565b5b61336a878288016131db565b91505092959194509250565b6000806040838503121561338d5761338c61446c565b5b600061339b85828601613172565b92505060206133ac85828601613187565b9150509250929050565b600080604083850312156133cd576133cc61446c565b5b60006133db85828601613172565b92505060206133ec85828601613209565b9150509250929050565b60006020828403121561340c5761340b61446c565b5b600061341a8482850161319c565b91505092915050565b6000806040838503121561343a5761343961446c565b5b60006134488582860161319c565b925050602061345985828601613172565b9150509250929050565b6000806040838503121561347a5761347961446c565b5b60006134888582860161319c565b925050602061349985828601613209565b9150509250929050565b6000602082840312156134b9576134b861446c565b5b60006134c7848285016131b1565b91505092915050565b6000602082840312156134e6576134e561446c565b5b60006134f4848285016131c6565b91505092915050565b6000602082840312156135135761351261446c565b5b600061352184828501613209565b91505092915050565b6000602082840312156135405761353f61446c565b5b600061354e8482850161321e565b91505092915050565b6000806040838503121561356e5761356d61446c565b5b600061357c8582860161321e565b925050602061358d85828601613172565b9150509250929050565b6135a08161414f565b82525050565b6135af81614161565b82525050565b6135be8161416d565b82525050565b60006135cf82613f8b565b6135d98185613fa1565b93506135e9818560208601614209565b6135f281614471565b840191505092915050565b600061360882613f96565b6136128185613fb2565b9350613622818560208601614209565b61362b81614471565b840191505092915050565b600061364182613f96565b61364b8185613fc3565b935061365b818560208601614209565b80840191505092915050565b6000613674602083613fb2565b915061367f82614482565b602082019050919050565b6000613697602b83613fb2565b91506136a2826144ab565b604082019050919050565b60006136ba601483613fb2565b91506136c5826144fa565b602082019050919050565b60006136dd602b83613fb2565b91506136e882614523565b604082019050919050565b6000613700603283613fb2565b915061370b82614572565b604082019050919050565b6000613723601c83613fb2565b915061372e826145c1565b602082019050919050565b6000613746603e83613fb2565b9150613751826145ea565b604082019050919050565b6000613769602483613fb2565b915061377482614639565b604082019050919050565b600061378c601983613fb2565b915061379782614688565b602082019050919050565b60006137af602c83613fb2565b91506137ba826146b1565b604082019050919050565b60006137d2601083613fb2565b91506137dd82614700565b602082019050919050565b60006137f5603883613fb2565b915061380082614729565b604082019050919050565b6000613818602a83613fb2565b915061382382614778565b604082019050919050565b600061383b602983613fb2565b9150613846826147c7565b604082019050919050565b600061385e601b83613fb2565b915061386982614816565b602082019050919050565b6000613881602083613fb2565b915061388c8261483f565b602082019050919050565b60006138a4602c83613fb2565b91506138af82614868565b604082019050919050565b60006138c7602983613fb2565b91506138d2826148b7565b604082019050919050565b60006138ea602f83613fb2565b91506138f582614906565b604082019050919050565b600061390d602183613fb2565b915061391882614955565b604082019050919050565b6000613930603183613fb2565b915061393b826149a4565b604082019050919050565b6000613953602c83613fb2565b915061395e826149f3565b604082019050919050565b6000613976601783613fc3565b915061398182614a42565b601782019050919050565b6000613999603083613fb2565b91506139a482614a6b565b604082019050919050565b60006139bc604083613fb2565b91506139c782614aba565b604082019050919050565b60006139df601183613fc3565b91506139ea82614b09565b601182019050919050565b6000613a02602f83613fb2565b9150613a0d82614b32565b604082019050919050565b613a21816141a3565b82525050565b613a30816141d1565b82525050565b613a3f816141e8565b82525050565b613a4e816141db565b82525050565b6000613a608285613636565b9150613a6c8284613636565b91508190509392505050565b6000613a8382613969565b9150613a8f8285613636565b9150613a9a826139d2565b9150613aa68284613636565b91508190509392505050565b6000602082019050613ac76000830184613597565b92915050565b6000608082019050613ae26000830187613597565b613aef6020830186613597565b613afc6040830185613a27565b8181036060830152613b0e81846135c4565b905095945050505050565b6000602082019050613b2e60008301846135a6565b92915050565b6000602082019050613b4960008301846135b5565b92915050565b60006020820190508181036000830152613b6981846135fd565b905092915050565b60006020820190508181036000830152613b8a81613667565b9050919050565b60006020820190508181036000830152613baa8161368a565b9050919050565b60006020820190508181036000830152613bca816136ad565b9050919050565b60006020820190508181036000830152613bea816136d0565b9050919050565b60006020820190508181036000830152613c0a816136f3565b9050919050565b60006020820190508181036000830152613c2a81613716565b9050919050565b60006020820190508181036000830152613c4a81613739565b9050919050565b60006020820190508181036000830152613c6a8161375c565b9050919050565b60006020820190508181036000830152613c8a8161377f565b9050919050565b60006020820190508181036000830152613caa816137a2565b9050919050565b60006020820190508181036000830152613cca816137c5565b9050919050565b60006020820190508181036000830152613cea816137e8565b9050919050565b60006020820190508181036000830152613d0a8161380b565b9050919050565b60006020820190508181036000830152613d2a8161382e565b9050919050565b60006020820190508181036000830152613d4a81613851565b9050919050565b60006020820190508181036000830152613d6a81613874565b9050919050565b60006020820190508181036000830152613d8a81613897565b9050919050565b60006020820190508181036000830152613daa816138ba565b9050919050565b60006020820190508181036000830152613dca816138dd565b9050919050565b60006020820190508181036000830152613dea81613900565b9050919050565b60006020820190508181036000830152613e0a81613923565b9050919050565b60006020820190508181036000830152613e2a81613946565b9050919050565b60006020820190508181036000830152613e4a8161398c565b9050919050565b60006020820190508181036000830152613e6a816139af565b9050919050565b60006020820190508181036000830152613e8a816139f5565b9050919050565b6000606082019050613ea66000830186613a18565b613eb36020830185613a18565b613ec06040830184613a18565b949350505050565b6000602082019050613edd6000830184613a27565b92915050565b6000602082019050613ef86000830184613a45565b92915050565b6000606082019050613f136000830186613a36565b613f206020830185613a27565b613f2d6040830184613a27565b949350505050565b6000613f3f613f50565b9050613f4b8282614298565b919050565b6000604051905090565b600067ffffffffffffffff821115613f7557613f7461442e565b5b613f7e82614471565b9050602081019050919050565b600081519050919050565b600081519050919050565b600082825260208201905092915050565b600082825260208201905092915050565b600081905092915050565b6000613fd9826141a3565b9150613fe4836141a3565b92508261ffff03821115613ffb57613ffa614343565b5b828201905092915050565b6000614011826141d1565b915061401c836141d1565b9250827fffffffffffffffffffffffffffffffffffffffffffffffffffffffffffffffff0382111561405157614050614343565b5b828201905092915050565b6000614067826141d1565b9150614072836141d1565b92508261408257614081614372565b5b828204905092915050565b6000614098826141d1565b91506140a3836141d1565b9250817fffffffffffffffffffffffffffffffffffffffffffffffffffffffffffffffff04831182151516156140dc576140db614343565b5b828202905092915050565b60006140f2826141a3565b91506140fd836141a3565b9250828210156141105761410f614343565b5b828203905092915050565b6000614126826141d1565b9150614131836141d1565b92508282101561414457614143614343565b5b828203905092915050565b600061415a826141b1565b9050919050565b60008115159050919050565b6000819050919050565b60007fffffffff0000000000000000000000000000000000000000000000000000000082169050919050565b600061ffff82169050919050565b600073ffffffffffffffffffffffffffffffffffffffff82169050919050565b6000819050919050565b600060ff82169050919050565b60006141f3826141db565b9050919050565b82818337600083830152505050565b60005b8381101561422757808201518184015260208101905061420c565b83811115614236576000848401525b50505050565b6000614247826141d1565b9150600082141561425b5761425a614343565b5b600182039050919050565b6000600282049050600182168061427e57607f821691505b60208210811415614292576142916143a1565b5b50919050565b6142a182614471565b810181811067ffffffffffffffff821117156142c0576142bf61442e565b5b80604052505050565b60006142d4826141d1565b91507fffffffffffffffffffffffffffffffffffffffffffffffffffffffffffffffff82141561430757614306614343565b5b600182019050919050565b600061431d826141d1565b9150614328836141d1565b92508261433857614337614372565b5b828206905092915050565b7f4e487b7100000000000000000000000000000000000000000000000000000000600052601160045260246000fd5b7f4e487b7100000000000000000000000000000000000000000000000000000000600052601260045260246000fd5b7f4e487b7100000000000000000000000000000000000000000000000000000000600052602260045260246000fd5b7f4e487b7100000000000000000000000000000000000000000000000000000000600052603160045260246000fd5b7f4e487b7100000000000000000000000000000000000000000000000000000000600052603260045260246000fd5b7f4e487b7100000000000000000000000000000000000000000000000000000000600052604160045260246000fd5b600080fd5b600080fd5b600080fd5b600080fd5b6000601f19601f8301169050919050565b7f537472696e67733a20686578206c656e67746820696e73756666696369656e74600082015250565b7f4552433732315061757361626c653a20746f6b656e207472616e73666572207760008201527f68696c6520706175736564000000000000000000000000000000000000000000602082015250565b7f5061757361626c653a206e6f7420706175736564000000000000000000000000600082015250565b7f455243373231456e756d657261626c653a206f776e657220696e646578206f7560008201527f74206f6620626f756e6473000000000000000000000000000000000000000000602082015250565b7f4552433732313a207472616e7366657220746f206e6f6e20455243373231526560008201527f63656976657220696d706c656d656e7465720000000000000000000000000000602082015250565b7f4552433732313a20746f6b656e20616c7265616479206d696e74656400000000600082015250565b7f4552433732315072657365744d696e7465725061757365724175746f49643a2060008201527f6d75737420686176652070617573657220726f6c6520746f2070617573650000602082015250565b7f4552433732313a207472616e7366657220746f20746865207a65726f2061646460008201527f7265737300000000000000000000000000000000000000000000000000000000602082015250565b7f4552433732313a20617070726f766520746f2063616c6c657200000000000000600082015250565b7f4552433732313a206f70657261746f7220717565727920666f72206e6f6e657860008201527f697374656e7420746f6b656e0000000000000000000000000000000000000000602082015250565b7f5061757361626c653a2070617573656400000000000000000000000000000000600082015250565b7f4552433732313a20617070726f76652063616c6c6572206973206e6f74206f7760008201527f6e6572206e6f7220617070726f76656420666f7220616c6c0000000000000000602082015250565b7f4552433732313a2062616c616e636520717565727920666f7220746865207a6560008201527f726f206164647265737300000000000000000000000000000000000000000000602082015250565b7f4552433732313a206f776e657220717565727920666f72206e6f6e657869737460008201527f656e7420746f6b656e0000000000000000000000000000000000000000000000602082015250565b7f4c6576656c2065786365656420746865206c696d6974206f6620350000000000600082015250565b7f4552433732313a206d696e7420746f20746865207a65726f2061646472657373600082015250565b7f4552433732313a20617070726f76656420717565727920666f72206e6f6e657860008201527f697374656e7420746f6b656e0000000000000000000000000000000000000000602082015250565b7f4552433732313a207472616e73666572206f6620746f6b656e2074686174206960008201527f73206e6f74206f776e0000000000000000000000000000000000000000000000602082015250565b7f4552433732314d657461646174613a2055524920717565727920666f72206e6f60008201527f6e6578697374656e7420746f6b656e0000000000000000000000000000000000602082015250565b7f4552433732313a20617070726f76616c20746f2063757272656e74206f776e6560008201527f7200000000000000000000000000000000000000000000000000000000000000602082015250565b7f4552433732313a207472616e736665722063616c6c6572206973206e6f74206f60008201527f776e6572206e6f7220617070726f766564000000000000000000000000000000602082015250565b7f455243373231456e756d657261626c653a20676c6f62616c20696e646578206f60008201527f7574206f6620626f756e64730000000000000000000000000000000000000000602082015250565b7f416363657373436f6e74726f6c3a206163636f756e7420000000000000000000600082015250565b7f4552433732314275726e61626c653a2063616c6c6572206973206e6f74206f7760008201527f6e6572206e6f7220617070726f76656400000000000000000000000000000000602082015250565b7f4552433732315072657365744d696e7465725061757365724175746f49643a2060008201527f6d75737420686176652070617573657220726f6c6520746f20756e7061757365602082015250565b7f206973206d697373696e6720726f6c6520000000000000000000000000000000600082015250565b7f416363657373436f6e74726f6c3a2063616e206f6e6c792072656e6f756e636560008201527f20726f6c657320666f722073656c660000000000000000000000000000000000602082015250565b614b8a8161414f565b8114614b9557600080fd5b50565b614ba181614161565b8114614bac57600080fd5b50565b614bb88161416d565b8114614bc357600080fd5b50565b614bcf81614177565b8114614bda57600080fd5b50565b614be6816141d1565b8114614bf157600080fd5b50565b614bfd816141db565b8114614c0857600080fd5b5056fea2646970667358221220080acc657f63d39139653ded9d243061c5d359164279df5be558381e0e8df9a564736f6c63430008060033",
  "immutableReferences": {},
  "source": "// SPDX-License-Identifier: MIT\n\npragma solidity ^0.8.0;\n\nimport \"../ERC721.sol\";\nimport \"../extensions/ERC721Enumerable.sol\";\nimport \"../extensions/ERC721Burnable.sol\";\nimport \"../extensions/ERC721Pausable.sol\";\nimport \"../../../access/AccessControlEnumerable.sol\";\nimport \"../../../utils/Context.sol\";\nimport \"../../../utils/Counters.sol\";\n\n/**\n * @dev {ERC721} token, including:\n *\n *  - ability for holders to burn (destroy) their tokens\n *  - a minter role that allows for token minting (creation)\n *  - a pauser role that allows to stop all token transfers\n *  - token ID and URI autogeneration\n *\n * This contract uses {AccessControl} to lock permissioned functions using the\n * different roles - head to its documentation for details.\n *\n * The account that deploys the contract will be granted the minter and pauser\n * roles, as well as the default admin role, which will let it grant both minter\n * and pauser roles to other accounts.\n */\ncontract ERC721Card is\n    Context,\n    AccessControlEnumerable,\n    ERC721Enumerable,\n    ERC721Burnable,\n    ERC721Pausable\n{\n    using Counters for Counters.Counter;\n\n    bytes32 public constant MINTER_ROLE = keccak256(\"MINTER_ROLE\");\n    bytes32 public constant PAUSER_ROLE = keccak256(\"PAUSER_ROLE\");\n\n    Counters.Counter private _tokenIdTracker;\n\n    string private _baseTokenURI;\n\n    struct LevelInfo {\n        uint16 total;\n        uint16 current;\n        uint16 power;\n    }\n    mapping(uint256 => uint8) nftLevel;\n    mapping(uint8 => LevelInfo) levelInfo;\n\n    event MintWithLevel(address indexed to, uint16 level, uint256 id, uint256 timestamp);\n\n    /**\n     * @dev Grants `DEFAULT_ADMIN_ROLE`, `MINTER_ROLE` and `PAUSER_ROLE` to the\n     * account that deploys the contract.\n     *\n     * Token URIs will be autogenerated based on `baseURI` and their token IDs.\n     * See {ERC721-tokenURI}.\n     */\n    constructor(\n        string memory name,\n        string memory symbol,\n        string memory baseTokenURI\n    ) ERC721(name, symbol) {\n        _baseTokenURI = baseTokenURI;\n\n        _setupRole(DEFAULT_ADMIN_ROLE, _msgSender());\n        _setupRole(MINTER_ROLE, _msgSender());\n        _setupRole(PAUSER_ROLE, _msgSender());\n        setLevelInfo();\n    }\n\n    function setLevelInfo() internal {\n        levelInfo[0] = LevelInfo({total:64000, power:100, current:0});\n        levelInfo[1] = LevelInfo({total:18000, power:150, current:0});\n        levelInfo[2] = LevelInfo({total:1800, power:300, current:0});\n        levelInfo[3] = LevelInfo({total:900, power:600, current:0});\n        levelInfo[4] = LevelInfo({total:300, power:1500, current:0});\n    }\n\n    function _baseURI() internal view virtual override returns (string memory) {\n        return _baseTokenURI;\n    }\n\n    function levelOf(uint256 id) external view returns (uint8 level) {\n        return nftLevel[id];\n    }\n\n    function levelView(uint8 level) external view returns (\n        uint16 total,\n        uint16 current,\n        uint16 power\n    ) {\n        LevelInfo memory leve = levelInfo[level];\n        return (leve.total, leve.current, leve.power);\n    }\n\n    function mintWithLevel(uint8 _level, address to) public returns(bool){\n        require(_level < 5, \"Level exceed the limit of 5\");\n        LevelInfo storage level = levelInfo[_level];\n        if (level.current < level.total -1) {\n            level.current += 1;\n            uint256 id = mint(to);\n            nftLevel[id] = _level;\n            emit MintWithLevel(to, _level, id, block.timestamp);\n        }\n        \n        return true;\n    }\n\n    /**\n     * @dev Creates a new token for `to`. Its token ID will be automatically\n     * assigned (and available on the emitted {IERC721-Transfer} event), and the token\n     * URI autogenerated based on the base URI passed at construction.\n     *\n     * See {ERC721-_mint}.\n     *\n     * Requirements:\n     *\n     * - the caller must have the `MINTER_ROLE`.\n     */\n    function mint(address to) private returns (uint256){\n        // require(hasRole(MINTER_ROLE, _msgSender()), \"ERC721PresetMinterPauserAutoId: must have minter role to mint\");\n\n        // We cannot just use balanceOf to create the new tokenId because tokens\n        // can be burned (destroyed), so we need a separate counter.\n        uint256 current = _tokenIdTracker.current();\n        _mint(to, current);\n        _tokenIdTracker.increment();\n        return current;\n    }\n\n    /**\n     * @dev Pauses all token transfers.\n     *\n     * See {ERC721Pausable} and {Pausable-_pause}.\n     *\n     * Requirements:\n     *\n     * - the caller must have the `PAUSER_ROLE`.\n     */\n    function pause() public virtual {\n        require(hasRole(PAUSER_ROLE, _msgSender()), \"ERC721PresetMinterPauserAutoId: must have pauser role to pause\");\n        _pause();\n    }\n\n    /**\n     * @dev Unpauses all token transfers.\n     *\n     * See {ERC721Pausable} and {Pausable-_unpause}.\n     *\n     * Requirements:\n     *\n     * - the caller must have the `PAUSER_ROLE`.\n     */\n    function unpause() public virtual {\n        require(hasRole(PAUSER_ROLE, _msgSender()), \"ERC721PresetMinterPauserAutoId: must have pauser role to unpause\");\n        _unpause();\n    }\n\n    function _beforeTokenTransfer(\n        address from,\n        address to,\n        uint256 tokenId\n    ) internal virtual override(ERC721, ERC721Enumerable, ERC721Pausable) {\n        super._beforeTokenTransfer(from, to, tokenId);\n    }\n\n    /**\n     * @dev See {IERC165-supportsInterface}.\n     */\n    function supportsInterface(bytes4 interfaceId)\n        public\n        view\n        virtual\n        override(AccessControlEnumerable, ERC721, ERC721Enumerable)\n        returns (bool)\n    {\n        return super.supportsInterface(interfaceId);\n    }\n\n}\n",
  "sourcePath": "/Users/jilong/solidity/pantheonNFT/contracts/token/ERC721/presets/ERC721Card.sol",
  "compiler": {
    "name": "solc",
    "version": "0.8.6+commit.11564f7e.Emscripten.clang"
  },
  "schemaVersion": "3.4.2",
  "updatedAt": "2021-08-25T23:02:00.040Z",
  "networkType": "ethereum",
  "devdoc": {
    "details": "{ERC721} token, including:  - ability for holders to burn (destroy) their tokens  - a minter role that allows for token minting (creation)  - a pauser role that allows to stop all token transfers  - token ID and URI autogeneration This contract uses {AccessControl} to lock permissioned functions using the different roles - head to its documentation for details. The account that deploys the contract will be granted the minter and pauser roles, as well as the default admin role, which will let it grant both minter and pauser roles to other accounts.",
    "kind": "dev",
    "methods": {
      "approve(address,uint256)": {
        "details": "See {IERC721-approve}."
      },
      "balanceOf(address)": {
        "details": "See {IERC721-balanceOf}."
      },
      "burn(uint256)": {
        "details": "Burns `tokenId`. See {ERC721-_burn}. Requirements: - The caller must own `tokenId` or be an approved operator."
      },
      "constructor": {
        "details": "Grants `DEFAULT_ADMIN_ROLE`, `MINTER_ROLE` and `PAUSER_ROLE` to the account that deploys the contract. Token URIs will be autogenerated based on `baseURI` and their token IDs. See {ERC721-tokenURI}."
      },
      "getApproved(uint256)": {
        "details": "See {IERC721-getApproved}."
      },
      "getRoleAdmin(bytes32)": {
        "details": "Returns the admin role that controls `role`. See {grantRole} and {revokeRole}. To change a role's admin, use {_setRoleAdmin}."
      },
      "getRoleMember(bytes32,uint256)": {
        "details": "Returns one of the accounts that have `role`. `index` must be a value between 0 and {getRoleMemberCount}, non-inclusive. Role bearers are not sorted in any particular way, and their ordering may change at any point. WARNING: When using {getRoleMember} and {getRoleMemberCount}, make sure you perform all queries on the same block. See the following https://forum.openzeppelin.com/t/iterating-over-elements-on-enumerableset-in-openzeppelin-contracts/2296[forum post] for more information."
      },
      "getRoleMemberCount(bytes32)": {
        "details": "Returns the number of accounts that have `role`. Can be used together with {getRoleMember} to enumerate all bearers of a role."
      },
      "grantRole(bytes32,address)": {
        "details": "Overload {grantRole} to track enumerable memberships"
      },
      "hasRole(bytes32,address)": {
        "details": "Returns `true` if `account` has been granted `role`."
      },
      "isApprovedForAll(address,address)": {
        "details": "See {IERC721-isApprovedForAll}."
      },
      "name()": {
        "details": "See {IERC721Metadata-name}."
      },
      "ownerOf(uint256)": {
        "details": "See {IERC721-ownerOf}."
      },
      "pause()": {
        "details": "Pauses all token transfers. See {ERC721Pausable} and {Pausable-_pause}. Requirements: - the caller must have the `PAUSER_ROLE`."
      },
      "paused()": {
        "details": "Returns true if the contract is paused, and false otherwise."
      },
      "renounceRole(bytes32,address)": {
        "details": "Overload {renounceRole} to track enumerable memberships"
      },
      "revokeRole(bytes32,address)": {
        "details": "Overload {revokeRole} to track enumerable memberships"
      },
      "safeTransferFrom(address,address,uint256)": {
        "details": "See {IERC721-safeTransferFrom}."
      },
      "safeTransferFrom(address,address,uint256,bytes)": {
        "details": "See {IERC721-safeTransferFrom}."
      },
      "setApprovalForAll(address,bool)": {
        "details": "See {IERC721-setApprovalForAll}."
      },
      "supportsInterface(bytes4)": {
        "details": "See {IERC165-supportsInterface}."
      },
      "symbol()": {
        "details": "See {IERC721Metadata-symbol}."
      },
      "tokenByIndex(uint256)": {
        "details": "See {IERC721Enumerable-tokenByIndex}."
      },
      "tokenOfOwnerByIndex(address,uint256)": {
        "details": "See {IERC721Enumerable-tokenOfOwnerByIndex}."
      },
      "tokenURI(uint256)": {
        "details": "See {IERC721Metadata-tokenURI}."
      },
      "totalSupply()": {
        "details": "See {IERC721Enumerable-totalSupply}."
      },
      "transferFrom(address,address,uint256)": {
        "details": "See {IERC721-transferFrom}."
      },
      "unpause()": {
        "details": "Unpauses all token transfers. See {ERC721Pausable} and {Pausable-_unpause}. Requirements: - the caller must have the `PAUSER_ROLE`."
      }
    },
    "version": 1
  },
  "userdoc": {
    "kind": "user",
    "methods": {},
    "version": 1
  }
}