{
  "contractName": "ERC721Card",
  "abi": [
    {
      "inputs": [
        {
          "internalType": "address",
          "name": "adminAddress",
          "type": "address"
        },
        {
          "internalType": "string",
          "name": "name",
          "type": "string"
        },
        {
          "internalType": "string",
          "name": "symbol",
          "type": "string"
        },
        {
          "internalType": "string",
          "name": "baseTokenURI",
          "type": "string"
        }
      ],
      "stateMutability": "nonpayable",
      "type": "constructor"
    },
    {
      "anonymous": false,
      "inputs": [
        {
          "indexed": true,
          "internalType": "address",
          "name": "owner",
          "type": "address"
        },
        {
          "indexed": true,
          "internalType": "address",
          "name": "approved",
          "type": "address"
        },
        {
          "indexed": true,
          "internalType": "uint256",
          "name": "tokenId",
          "type": "uint256"
        }
      ],
      "name": "Approval",
      "type": "event"
    },
    {
      "anonymous": false,
      "inputs": [
        {
          "indexed": true,
          "internalType": "address",
          "name": "owner",
          "type": "address"
        },
        {
          "indexed": true,
          "internalType": "address",
          "name": "operator",
          "type": "address"
        },
        {
          "indexed": false,
          "internalType": "bool",
          "name": "approved",
          "type": "bool"
        }
      ],
      "name": "ApprovalForAll",
      "type": "event"
    },
    {
      "anonymous": false,
      "inputs": [
        {
          "indexed": true,
          "internalType": "address",
          "name": "from",
          "type": "address"
        },
        {
          "indexed": true,
          "internalType": "address",
          "name": "to",
          "type": "address"
        },
        {
          "indexed": false,
          "internalType": "uint16",
          "name": "category",
          "type": "uint16"
        },
        {
          "indexed": false,
          "internalType": "uint16",
          "name": "level",
          "type": "uint16"
        },
        {
          "indexed": false,
          "internalType": "uint256",
          "name": "id",
          "type": "uint256"
        },
        {
          "indexed": false,
          "internalType": "uint256",
          "name": "timestamp",
          "type": "uint256"
        }
      ],
      "name": "MintWithLevel",
      "type": "event"
    },
    {
      "anonymous": false,
      "inputs": [
        {
          "indexed": false,
          "internalType": "address",
          "name": "account",
          "type": "address"
        }
      ],
      "name": "Paused",
      "type": "event"
    },
    {
      "anonymous": false,
      "inputs": [
        {
          "indexed": true,
          "internalType": "bytes32",
          "name": "role",
          "type": "bytes32"
        },
        {
          "indexed": true,
          "internalType": "bytes32",
          "name": "previousAdminRole",
          "type": "bytes32"
        },
        {
          "indexed": true,
          "internalType": "bytes32",
          "name": "newAdminRole",
          "type": "bytes32"
        }
      ],
      "name": "RoleAdminChanged",
      "type": "event"
    },
    {
      "anonymous": false,
      "inputs": [
        {
          "indexed": true,
          "internalType": "bytes32",
          "name": "role",
          "type": "bytes32"
        },
        {
          "indexed": true,
          "internalType": "address",
          "name": "account",
          "type": "address"
        },
        {
          "indexed": true,
          "internalType": "address",
          "name": "sender",
          "type": "address"
        }
      ],
      "name": "RoleGranted",
      "type": "event"
    },
    {
      "anonymous": false,
      "inputs": [
        {
          "indexed": true,
          "internalType": "bytes32",
          "name": "role",
          "type": "bytes32"
        },
        {
          "indexed": true,
          "internalType": "address",
          "name": "account",
          "type": "address"
        },
        {
          "indexed": true,
          "internalType": "address",
          "name": "sender",
          "type": "address"
        }
      ],
      "name": "RoleRevoked",
      "type": "event"
    },
    {
      "anonymous": false,
      "inputs": [
        {
          "indexed": true,
          "internalType": "address",
          "name": "from",
          "type": "address"
        },
        {
          "indexed": true,
          "internalType": "address",
          "name": "to",
          "type": "address"
        },
        {
          "indexed": true,
          "internalType": "uint256",
          "name": "tokenId",
          "type": "uint256"
        }
      ],
      "name": "Transfer",
      "type": "event"
    },
    {
      "anonymous": false,
      "inputs": [
        {
          "indexed": false,
          "internalType": "address",
          "name": "account",
          "type": "address"
        }
      ],
      "name": "Unpaused",
      "type": "event"
    },
    {
      "inputs": [],
      "name": "DEFAULT_ADMIN_ROLE",
      "outputs": [
        {
          "internalType": "bytes32",
          "name": "",
          "type": "bytes32"
        }
      ],
      "stateMutability": "view",
      "type": "function"
    },
    {
      "inputs": [],
      "name": "MINTER_ROLE",
      "outputs": [
        {
          "internalType": "bytes32",
          "name": "",
          "type": "bytes32"
        }
      ],
      "stateMutability": "view",
      "type": "function"
    },
    {
      "inputs": [],
      "name": "PAUSER_ROLE",
      "outputs": [
        {
          "internalType": "bytes32",
          "name": "",
          "type": "bytes32"
        }
      ],
      "stateMutability": "view",
      "type": "function"
    },
    {
      "inputs": [
        {
          "internalType": "address",
          "name": "to",
          "type": "address"
        },
        {
          "internalType": "uint256",
          "name": "tokenId",
          "type": "uint256"
        }
      ],
      "name": "approve",
      "outputs": [],
      "stateMutability": "nonpayable",
      "type": "function"
    },
    {
      "inputs": [
        {
          "internalType": "address",
          "name": "owner",
          "type": "address"
        }
      ],
      "name": "balanceOf",
      "outputs": [
        {
          "internalType": "uint256",
          "name": "",
          "type": "uint256"
        }
      ],
      "stateMutability": "view",
      "type": "function"
    },
    {
      "inputs": [
        {
          "internalType": "uint256",
          "name": "tokenId",
          "type": "uint256"
        }
      ],
      "name": "burn",
      "outputs": [],
      "stateMutability": "nonpayable",
      "type": "function"
    },
    {
      "inputs": [
        {
          "internalType": "uint256",
          "name": "tokenId",
          "type": "uint256"
        }
      ],
      "name": "getApproved",
      "outputs": [
        {
          "internalType": "address",
          "name": "",
          "type": "address"
        }
      ],
      "stateMutability": "view",
      "type": "function"
    },
    {
      "inputs": [
        {
          "internalType": "bytes32",
          "name": "role",
          "type": "bytes32"
        }
      ],
      "name": "getRoleAdmin",
      "outputs": [
        {
          "internalType": "bytes32",
          "name": "",
          "type": "bytes32"
        }
      ],
      "stateMutability": "view",
      "type": "function"
    },
    {
      "inputs": [
        {
          "internalType": "bytes32",
          "name": "role",
          "type": "bytes32"
        },
        {
          "internalType": "uint256",
          "name": "index",
          "type": "uint256"
        }
      ],
      "name": "getRoleMember",
      "outputs": [
        {
          "internalType": "address",
          "name": "",
          "type": "address"
        }
      ],
      "stateMutability": "view",
      "type": "function"
    },
    {
      "inputs": [
        {
          "internalType": "bytes32",
          "name": "role",
          "type": "bytes32"
        }
      ],
      "name": "getRoleMemberCount",
      "outputs": [
        {
          "internalType": "uint256",
          "name": "",
          "type": "uint256"
        }
      ],
      "stateMutability": "view",
      "type": "function"
    },
    {
      "inputs": [
        {
          "internalType": "bytes32",
          "name": "role",
          "type": "bytes32"
        },
        {
          "internalType": "address",
          "name": "account",
          "type": "address"
        }
      ],
      "name": "grantRole",
      "outputs": [],
      "stateMutability": "nonpayable",
      "type": "function"
    },
    {
      "inputs": [
        {
          "internalType": "bytes32",
          "name": "role",
          "type": "bytes32"
        },
        {
          "internalType": "address",
          "name": "account",
          "type": "address"
        }
      ],
      "name": "hasRole",
      "outputs": [
        {
          "internalType": "bool",
          "name": "",
          "type": "bool"
        }
      ],
      "stateMutability": "view",
      "type": "function"
    },
    {
      "inputs": [
        {
          "internalType": "address",
          "name": "owner",
          "type": "address"
        },
        {
          "internalType": "address",
          "name": "operator",
          "type": "address"
        }
      ],
      "name": "isApprovedForAll",
      "outputs": [
        {
          "internalType": "bool",
          "name": "",
          "type": "bool"
        }
      ],
      "stateMutability": "view",
      "type": "function"
    },
    {
      "inputs": [],
      "name": "name",
      "outputs": [
        {
          "internalType": "string",
          "name": "",
          "type": "string"
        }
      ],
      "stateMutability": "view",
      "type": "function"
    },
    {
      "inputs": [
        {
          "internalType": "uint256",
          "name": "tokenId",
          "type": "uint256"
        }
      ],
      "name": "ownerOf",
      "outputs": [
        {
          "internalType": "address",
          "name": "",
          "type": "address"
        }
      ],
      "stateMutability": "view",
      "type": "function"
    },
    {
      "inputs": [],
      "name": "paused",
      "outputs": [
        {
          "internalType": "bool",
          "name": "",
          "type": "bool"
        }
      ],
      "stateMutability": "view",
      "type": "function"
    },
    {
      "inputs": [
        {
          "internalType": "bytes32",
          "name": "role",
          "type": "bytes32"
        },
        {
          "internalType": "address",
          "name": "account",
          "type": "address"
        }
      ],
      "name": "renounceRole",
      "outputs": [],
      "stateMutability": "nonpayable",
      "type": "function"
    },
    {
      "inputs": [
        {
          "internalType": "bytes32",
          "name": "role",
          "type": "bytes32"
        },
        {
          "internalType": "address",
          "name": "account",
          "type": "address"
        }
      ],
      "name": "revokeRole",
      "outputs": [],
      "stateMutability": "nonpayable",
      "type": "function"
    },
    {
      "inputs": [
        {
          "internalType": "address",
          "name": "from",
          "type": "address"
        },
        {
          "internalType": "address",
          "name": "to",
          "type": "address"
        },
        {
          "internalType": "uint256",
          "name": "tokenId",
          "type": "uint256"
        }
      ],
      "name": "safeTransferFrom",
      "outputs": [],
      "stateMutability": "nonpayable",
      "type": "function"
    },
    {
      "inputs": [
        {
          "internalType": "address",
          "name": "from",
          "type": "address"
        },
        {
          "internalType": "address",
          "name": "to",
          "type": "address"
        },
        {
          "internalType": "uint256",
          "name": "tokenId",
          "type": "uint256"
        },
        {
          "internalType": "bytes",
          "name": "_data",
          "type": "bytes"
        }
      ],
      "name": "safeTransferFrom",
      "outputs": [],
      "stateMutability": "nonpayable",
      "type": "function"
    },
    {
      "inputs": [
        {
          "internalType": "address",
          "name": "operator",
          "type": "address"
        },
        {
          "internalType": "bool",
          "name": "approved",
          "type": "bool"
        }
      ],
      "name": "setApprovalForAll",
      "outputs": [],
      "stateMutability": "nonpayable",
      "type": "function"
    },
    {
      "inputs": [],
      "name": "symbol",
      "outputs": [
        {
          "internalType": "string",
          "name": "",
          "type": "string"
        }
      ],
      "stateMutability": "view",
      "type": "function"
    },
    {
      "inputs": [
        {
          "internalType": "uint256",
          "name": "index",
          "type": "uint256"
        }
      ],
      "name": "tokenByIndex",
      "outputs": [
        {
          "internalType": "uint256",
          "name": "",
          "type": "uint256"
        }
      ],
      "stateMutability": "view",
      "type": "function"
    },
    {
      "inputs": [
        {
          "internalType": "address",
          "name": "owner",
          "type": "address"
        },
        {
          "internalType": "uint256",
          "name": "index",
          "type": "uint256"
        }
      ],
      "name": "tokenOfOwnerByIndex",
      "outputs": [
        {
          "internalType": "uint256",
          "name": "",
          "type": "uint256"
        }
      ],
      "stateMutability": "view",
      "type": "function"
    },
    {
      "inputs": [
        {
          "internalType": "uint256",
          "name": "tokenId",
          "type": "uint256"
        }
      ],
      "name": "tokenURI",
      "outputs": [
        {
          "internalType": "string",
          "name": "",
          "type": "string"
        }
      ],
      "stateMutability": "view",
      "type": "function"
    },
    {
      "inputs": [],
      "name": "totalSupply",
      "outputs": [
        {
          "internalType": "uint256",
          "name": "",
          "type": "uint256"
        }
      ],
      "stateMutability": "view",
      "type": "function"
    },
    {
      "inputs": [
        {
          "internalType": "address",
          "name": "from",
          "type": "address"
        },
        {
          "internalType": "address",
          "name": "to",
          "type": "address"
        },
        {
          "internalType": "uint256",
          "name": "tokenId",
          "type": "uint256"
        }
      ],
      "name": "transferFrom",
      "outputs": [],
      "stateMutability": "nonpayable",
      "type": "function"
    },
    {
      "inputs": [
        {
          "internalType": "uint8",
          "name": "_category",
          "type": "uint8"
        },
        {
          "internalType": "uint8",
          "name": "_level",
          "type": "uint8"
        },
        {
          "internalType": "uint16",
          "name": "_total",
          "type": "uint16"
        }
      ],
      "name": "setCardTotal",
      "outputs": [
        {
          "internalType": "bool",
          "name": "",
          "type": "bool"
        }
      ],
      "stateMutability": "nonpayable",
      "type": "function"
    },
    {
      "inputs": [
        {
          "internalType": "uint8",
          "name": "_category",
          "type": "uint8"
        },
        {
          "internalType": "uint8",
          "name": "_level",
          "type": "uint8"
        },
        {
          "internalType": "uint16",
          "name": "_power",
          "type": "uint16"
        }
      ],
      "name": "setCardPower",
      "outputs": [
        {
          "internalType": "bool",
          "name": "",
          "type": "bool"
        }
      ],
      "stateMutability": "nonpayable",
      "type": "function"
    },
    {
      "inputs": [
        {
          "internalType": "uint256",
          "name": "id",
          "type": "uint256"
        }
      ],
      "name": "levelOf",
      "outputs": [
        {
          "internalType": "uint8",
          "name": "level",
          "type": "uint8"
        }
      ],
      "stateMutability": "view",
      "type": "function"
    },
    {
      "inputs": [
        {
          "internalType": "uint256",
          "name": "id",
          "type": "uint256"
        }
      ],
      "name": "powerOf",
      "outputs": [
        {
          "internalType": "uint16",
          "name": "power",
          "type": "uint16"
        }
      ],
      "stateMutability": "view",
      "type": "function"
    },
    {
      "inputs": [
        {
          "internalType": "uint256",
          "name": "id",
          "type": "uint256"
        }
      ],
      "name": "categoryOf",
      "outputs": [
        {
          "internalType": "uint8",
          "name": "category",
          "type": "uint8"
        }
      ],
      "stateMutability": "view",
      "type": "function"
    },
    {
      "inputs": [
        {
          "internalType": "uint8",
          "name": "_category",
          "type": "uint8"
        },
        {
          "internalType": "uint8",
          "name": "_level",
          "type": "uint8"
        }
      ],
      "name": "cardCategory",
      "outputs": [
        {
          "internalType": "uint16",
          "name": "total",
          "type": "uint16"
        },
        {
          "internalType": "uint16",
          "name": "current",
          "type": "uint16"
        },
        {
          "internalType": "uint16",
          "name": "power",
          "type": "uint16"
        }
      ],
      "stateMutability": "view",
      "type": "function"
    },
    {
      "inputs": [
        {
          "internalType": "uint256",
          "name": "id",
          "type": "uint256"
        }
      ],
      "name": "getCard",
      "outputs": [
        {
          "internalType": "uint16",
          "name": "category",
          "type": "uint16"
        },
        {
          "internalType": "uint16",
          "name": "level",
          "type": "uint16"
        },
        {
          "internalType": "uint16",
          "name": "power",
          "type": "uint16"
        },
        {
          "internalType": "address",
          "name": "owner",
          "type": "address"
        }
      ],
      "stateMutability": "view",
      "type": "function"
    },
    {
      "inputs": [
        {
          "internalType": "uint8",
          "name": "category",
          "type": "uint8"
        },
        {
          "internalType": "address",
          "name": "to",
          "type": "address"
        }
      ],
      "name": "mintCard",
      "outputs": [
        {
          "internalType": "bool",
          "name": "",
          "type": "bool"
        }
      ],
      "stateMutability": "nonpayable",
      "type": "function"
    },
    {
      "inputs": [
        {
          "internalType": "uint8",
          "name": "_category",
          "type": "uint8"
        },
        {
          "internalType": "uint8",
          "name": "_level",
          "type": "uint8"
        },
        {
          "internalType": "address",
          "name": "to",
          "type": "address"
        }
      ],
      "name": "mintWithLevel",
      "outputs": [
        {
          "internalType": "bool",
          "name": "",
          "type": "bool"
        }
      ],
      "stateMutability": "nonpayable",
      "type": "function"
    },
    {
      "inputs": [],
      "name": "pause",
      "outputs": [],
      "stateMutability": "nonpayable",
      "type": "function"
    },
    {
      "inputs": [],
      "name": "unpause",
      "outputs": [],
      "stateMutability": "nonpayable",
      "type": "function"
    },
    {
      "inputs": [
        {
          "internalType": "bytes4",
          "name": "interfaceId",
          "type": "bytes4"
        }
      ],
      "name": "supportsInterface",
      "outputs": [
        {
          "internalType": "bool",
          "name": "",
          "type": "bool"
        }
      ],
      "stateMutability": "view",
      "type": "function"
    }
  ],
  "bytecode": "0x60806040523480156200001157600080fd5b5060405162003fe238038062003fe2833981016040819052620000349162000f28565b8251839083906200004d90600290602085019062000dcb565b5080516200006390600390602084019062000dcb565b5050600c805460ff191690555080516200008590600e90602084019062000dcb565b506200009360008562000c66565b620000bf7f65d7a28e3265b37a6474929f336521b332c1681b933f6cb9f3376673440d862a8562000c66565b620000da60008051602062003fc28339815191528562000c66565b620000f560008051602062003fc28339815191523362000c66565b62000c5c6040518060600160405280600a61ffff168152602001600061ffff1681526020016101c261ffff1681525060126000600160ff1681526020019081526020016000206000600460ff16815260200190815260200160002060008201518160000160006101000a81548161ffff021916908361ffff16021790555060208201518160000160026101000a81548161ffff021916908361ffff16021790555060408201518160000160046101000a81548161ffff021916908361ffff1602179055509050506040518060600160405280606461ffff168152602001600061ffff16815260200160c861ffff1681525060126000600160ff1681526020019081526020016000206000600360ff16815260200190815260200160002060008201518160000160006101000a81548161ffff021916908361ffff16021790555060208201518160000160026101000a81548161ffff021916908361ffff16021790555060408201518160000160046101000a81548161ffff021916908361ffff1602179055509050506040518060600160405280609661ffff168152602001600061ffff168152602001609661ffff1681525060126000600160ff1681526020019081526020016000206000600260ff16815260200190815260200160002060008201518160000160006101000a81548161ffff021916908361ffff16021790555060208201518160000160026101000a81548161ffff021916908361ffff16021790555060408201518160000160046101000a81548161ffff021916908361ffff160217905550905050604051806060016040528060c861ffff168152602001600061ffff168152602001607861ffff1681525060126000600160ff1681526020019081526020016000206000600160ff16815260200190815260200160002060008201518160000160006101000a81548161ffff021916908361ffff16021790555060208201518160000160026101000a81548161ffff021916908361ffff16021790555060408201518160000160046101000a81548161ffff021916908361ffff160217905550905050604051806060016040528061021c61ffff168152602001600061ffff168152602001606461ffff1681525060126000600160ff16815260200190815260200160002060008060ff16815260200190815260200160002060008201518160000160006101000a81548161ffff021916908361ffff16021790555060208201518160000160026101000a81548161ffff021916908361ffff16021790555060408201518160000160046101000a81548161ffff021916908361ffff1602179055509050506040518060600160405280600a61ffff168152602001600061ffff1681526020016101c261ffff1681525060126000600260ff1681526020019081526020016000206000600460ff16815260200190815260200160002060008201518160000160006101000a81548161ffff021916908361ffff16021790555060208201518160000160026101000a81548161ffff021916908361ffff16021790555060408201518160000160046101000a81548161ffff021916908361ffff1602179055509050506040518060600160405280606461ffff168152602001600061ffff16815260200160c861ffff1681525060126000600260ff1681526020019081526020016000206000600360ff16815260200190815260200160002060008201518160000160006101000a81548161ffff021916908361ffff16021790555060208201518160000160026101000a81548161ffff021916908361ffff16021790555060408201518160000160046101000a81548161ffff021916908361ffff1602179055509050506040518060600160405280609661ffff168152602001600061ffff168152602001609661ffff1681525060126000600260ff1681526020019081526020016000206000600260ff16815260200190815260200160002060008201518160000160006101000a81548161ffff021916908361ffff16021790555060208201518160000160026101000a81548161ffff021916908361ffff16021790555060408201518160000160046101000a81548161ffff021916908361ffff160217905550905050604051806060016040528060c861ffff168152602001600061ffff168152602001607861ffff1681525060126000600260ff1681526020019081526020016000206000600160ff16815260200190815260200160002060008201518160000160006101000a81548161ffff021916908361ffff16021790555060208201518160000160026101000a81548161ffff021916908361ffff16021790555060408201518160000160046101000a81548161ffff021916908361ffff160217905550905050604051806060016040528061021c61ffff168152602001600061ffff168152602001606461ffff1681525060126000600260ff16815260200190815260200160002060008060ff16815260200190815260200160002060008201518160000160006101000a81548161ffff021916908361ffff16021790555060208201518160000160026101000a81548161ffff021916908361ffff16021790555060408201518160000160046101000a81548161ffff021916908361ffff1602179055509050506040518060600160405280600a61ffff168152602001600061ffff1681526020016101c261ffff1681525060126000600360ff1681526020019081526020016000206000600460ff16815260200190815260200160002060008201518160000160006101000a81548161ffff021916908361ffff16021790555060208201518160000160026101000a81548161ffff021916908361ffff16021790555060408201518160000160046101000a81548161ffff021916908361ffff1602179055509050506040518060600160405280600061ffff168152602001600061ffff16815260200160c861ffff1681525060126000600360ff1681526020019081526020016000206000600360ff16815260200190815260200160002060008201518160000160006101000a81548161ffff021916908361ffff16021790555060208201518160000160026101000a81548161ffff021916908361ffff16021790555060408201518160000160046101000a81548161ffff021916908361ffff1602179055509050506040518060600160405280600061ffff168152602001600061ffff168152602001609661ffff1681525060126000600360ff1681526020019081526020016000206000600260ff16815260200190815260200160002060008201518160000160006101000a81548161ffff021916908361ffff16021790555060208201518160000160026101000a81548161ffff021916908361ffff16021790555060408201518160000160046101000a81548161ffff021916908361ffff1602179055509050506040518060600160405280600061ffff168152602001600061ffff168152602001607861ffff1681525060126000600360ff1681526020019081526020016000206000600160ff16815260200190815260200160002060008201518160000160006101000a81548161ffff021916908361ffff16021790555060208201518160000160026101000a81548161ffff021916908361ffff16021790555060408201518160000160046101000a81548161ffff021916908361ffff16021790555090505060405180606001604052806103de61ffff168152602001600061ffff168152602001606461ffff1681525060126000600360ff16815260200190815260200160002060008060ff16815260200190815260200160002060008201518160000160006101000a81548161ffff021916908361ffff16021790555060208201518160000160026101000a81548161ffff021916908361ffff16021790555060408201518160000160046101000a81548161ffff021916908361ffff160217905550905050565b505050506200102d565b62000c7d828262000ca960201b620013ed1760201c565b600082815260016020908152604090912062000ca4918390620013fb62000cb9821b17901c565b505050565b62000cb5828262000cd9565b5050565b600062000cd0836001600160a01b03841662000d79565b90505b92915050565b6000828152602081815260408083206001600160a01b038516845290915290205460ff1662000cb5576000828152602081815260408083206001600160a01b03851684529091529020805460ff1916600117905562000d353390565b6001600160a01b0316816001600160a01b0316837f2f8788117e7eff1d82e926ec794901d17c78024a50270940304540a733656f0d60405160405180910390a45050565b600081815260018301602052604081205462000dc25750815460018181018455600084815260208082209093018490558454848252828601909352604090209190915562000cd3565b50600062000cd3565b82805462000dd99062000fda565b90600052602060002090601f01602090048101928262000dfd576000855562000e48565b82601f1062000e1857805160ff191683800117855562000e48565b8280016001018555821562000e48579182015b8281111562000e4857825182559160200191906001019062000e2b565b5062000e5692915062000e5a565b5090565b5b8082111562000e56576000815560010162000e5b565b600082601f83011262000e8357600080fd5b81516001600160401b038082111562000ea05762000ea062001017565b604051601f8301601f19908116603f0116810190828211818310171562000ecb5762000ecb62001017565b8160405283815260209250868385880101111562000ee857600080fd5b600091505b8382101562000f0c578582018301518183018401529082019062000eed565b8382111562000f1e5760008385830101525b9695505050505050565b6000806000806080858703121562000f3f57600080fd5b84516001600160a01b038116811462000f5757600080fd5b60208601519094506001600160401b038082111562000f7557600080fd5b62000f838883890162000e71565b9450604087015191508082111562000f9a57600080fd5b62000fa88883890162000e71565b9350606087015191508082111562000fbf57600080fd5b5062000fce8782880162000e71565b91505092959194509250565b600181811c9082168062000fef57607f821691505b602082108114156200101157634e487b7160e01b600052602260045260246000fd5b50919050565b634e487b7160e01b600052604160045260246000fd5b612f85806200103d6000396000f3fe608060405234801561001057600080fd5b506004361061023d5760003560e01c80637a0442281161013b578063a5ba33f5116100b8578063d53913931161007c578063d5391393146105d0578063d547741f146105f7578063df264c201461060a578063e63ab1e914610697578063e985e9c5146106be57600080fd5b8063a5ba33f51461053d578063b88d4fde14610550578063c558a12014610563578063c87b56dd146105aa578063ca15c873146105bd57600080fd5b806391d14854116100ff57806391d14854146104b657806395d89b41146104c957806399d3497a146104d1578063a217fddf14610522578063a22cb4651461052a57600080fd5b80637a0442281461041e5780638456cb59146104315780638ed914cd146104395780639010d07c1461045c5780639188d3121461046f57600080fd5b80632f745c59116101c95780634f6ccce71161018d5780634f6ccce7146103a55780635c975abb146103b85780636352211e146103c35780636d5e3032146103d657806370a082311461040b57600080fd5b80632f745c591461035157806336568abe146103645780633f4ba83a1461037757806342842e0e1461037f57806342966c681461039257600080fd5b8063095ea7b311610210578063095ea7b3146102e157806318160ddd146102f657806323b872dd14610308578063248a9ca31461031b5780632f2ff15d1461033e57600080fd5b806301ffc9a71461024257806304eaa1131461026a57806306fdde03146102a1578063081812fc146102b6575b600080fd5b610255610250366004612a65565b6106fa565b60405190151581526020015b60405180910390f35b61028e610278366004612a07565b60009081526011602052604090205461ffff1690565b60405161ffff9091168152602001610261565b6102a961070b565b6040516102619190612c83565b6102c96102c4366004612a07565b61079d565b6040516001600160a01b039091168152602001610261565b6102f46102ef3660046129dd565b610837565b005b600a545b604051908152602001610261565b6102f4610316366004612889565b61094d565b6102fa610329366004612a07565b60009081526020819052604090206001015490565b6102f461034c366004612a20565b61097f565b6102fa61035f3660046129dd565b6109a1565b6102f4610372366004612a20565b610a37565b6102f4610a59565b6102f461038d366004612889565b610b01565b6102f46103a0366004612a07565b610b1c565b6102fa6103b3366004612a07565b610b96565b600c5460ff16610255565b6102c96103d1366004612a07565b610c29565b6103f96103e4366004612a07565b60009081526010602052604090205460ff1690565b60405160ff9091168152602001610261565b6102fa61041936600461283b565b610ca0565b61025561042c366004612ae5565b610d27565b6102f4610ec3565b6103f9610447366004612a07565b6000908152600f602052604090205460ff1690565b6102c961046a366004612a43565b610f67565b61048261047d366004612a07565b610f86565b6040805161ffff9586168152938516602085015291909316908201526001600160a01b039091166060820152608001610261565b6102556104c4366004612a20565b61101f565b6102a9611048565b6102556104df366004612b28565b60ff8084166000908152601260209081526040808320938616835292905220805461ffff8316600160201b0265ffff000000001990911617905560019392505050565b6102fa600081565b6102f46105383660046129a1565b611057565b61025561054b366004612a9f565b61111c565b6102f461055e3660046128c5565b6112ba565b610255610571366004612b28565b60ff8084166000908152601260209081526040808320938616835292905220805461ffff831661ffff1990911617905560019392505050565b6102a96105b8366004612a07565b6112f2565b6102fa6105cb366004612a07565b6113cc565b6102fa7f9f2df0fed2c77648de5860a4cc508cd0818c85b8b8a1ab4ceeef8d981c8956a681565b6102f4610605366004612a20565b6113e3565b610672610618366004612abb565b60ff80831660009081526012602090815260408083209385168352928152908290208251606081018452905461ffff8082168084526201000083048216948401859052600160201b90920416919093018190529250925092565b6040805161ffff94851681529284166020840152921691810191909152606001610261565b6102fa7f65d7a28e3265b37a6474929f336521b332c1681b933f6cb9f3376673440d862a81565b6102556106cc366004612856565b6001600160a01b03918216600090815260076020908152604080832093909416825291909152205460ff1690565b600061070582611410565b92915050565b60606002805461071a90612e41565b80601f016020809104026020016040519081016040528092919081815260200182805461074690612e41565b80156107935780601f1061076857610100808354040283529160200191610793565b820191906000526020600020905b81548152906001019060200180831161077657829003601f168201915b5050505050905090565b6000818152600460205260408120546001600160a01b031661081b5760405162461bcd60e51b815260206004820152602c60248201527f4552433732313a20617070726f76656420717565727920666f72206e6f6e657860448201526b34b9ba32b73a103a37b5b2b760a11b60648201526084015b60405180910390fd5b506000908152600660205260409020546001600160a01b031690565b600061084282610c29565b9050806001600160a01b0316836001600160a01b031614156108b05760405162461bcd60e51b815260206004820152602160248201527f4552433732313a20617070726f76616c20746f2063757272656e74206f776e656044820152603960f91b6064820152608401610812565b336001600160a01b03821614806108cc57506108cc81336106cc565b61093e5760405162461bcd60e51b815260206004820152603860248201527f4552433732313a20617070726f76652063616c6c6572206973206e6f74206f7760448201527f6e6572206e6f7220617070726f76656420666f7220616c6c00000000000000006064820152608401610812565b6109488383611435565b505050565b610958335b826114a3565b6109745760405162461bcd60e51b815260040161081290612ce8565b61094883838361159a565b6109898282611745565b600082815260016020526040902061094890826113fb565b60006109ac83610ca0565b8210610a0e5760405162461bcd60e51b815260206004820152602b60248201527f455243373231456e756d657261626c653a206f776e657220696e646578206f7560448201526a74206f6620626f756e647360a81b6064820152608401610812565b506001600160a01b03919091166000908152600860209081526040808320938352929052205490565b610a41828261176b565b600082815260016020526040902061094890826117e5565b610a837f65d7a28e3265b37a6474929f336521b332c1681b933f6cb9f3376673440d862a3361101f565b610af7576040805162461bcd60e51b81526020600482015260248101919091527f4552433732315072657365744d696e7465725061757365724175746f49643a2060448201527f6d75737420686176652070617573657220726f6c6520746f20756e70617573656064820152608401610812565b610aff6117fa565b565b610948838383604051806020016040528060008152506112ba565b610b2533610952565b610b8a5760405162461bcd60e51b815260206004820152603060248201527f4552433732314275726e61626c653a2063616c6c6572206973206e6f74206f7760448201526f1b995c881b9bdc88185c1c1c9bdd995960821b6064820152608401610812565b610b938161188d565b50565b6000610ba1600a5490565b8210610c045760405162461bcd60e51b815260206004820152602c60248201527f455243373231456e756d657261626c653a20676c6f62616c20696e646578206f60448201526b7574206f6620626f756e647360a01b6064820152608401610812565b600a8281548110610c1757610c17612f0d565b90600052602060002001549050919050565b6000818152600460205260408120546001600160a01b0316806107055760405162461bcd60e51b815260206004820152602960248201527f4552433732313a206f776e657220717565727920666f72206e6f6e657869737460448201526832b73a103a37b5b2b760b91b6064820152608401610812565b60006001600160a01b038216610d0b5760405162461bcd60e51b815260206004820152602a60248201527f4552433732313a2062616c616e636520717565727920666f7220746865207a65604482015269726f206164647265737360b01b6064820152608401610812565b506001600160a01b031660009081526005602052604090205490565b600060058360ff1610610d7c5760405162461bcd60e51b815260206004820152601b60248201527f4c6576656c2065786365656420746865206c696d6974206f66203500000000006044820152606401610812565b60ff8085166000908152601260209081526040808320938716835292905220805461ffff80821691610db79162010000909104166001612d39565b61ffff161015610eb85780546001908290600290610de090849062010000900461ffff16612d39565b92506101000a81548161ffff021916908361ffff1602179055506000610e0584611934565b6000818152601060209081526040808320805460ff8b811660ff199283168117909355885460118652848720805461ffff191661ffff600160201b90930492909216919091179055600f8552948390208054958d16959091168517905581519384529183019190915281018290524260608201529091506001600160a01b0385169033907fa00501f5dc0294e3b97b8e2511a1004822e99c4f42deda41542e5ec6a281c9db9060800160405180910390a3505b506001949350505050565b610eed7f65d7a28e3265b37a6474929f336521b332c1681b933f6cb9f3376673440d862a3361101f565b610f5f5760405162461bcd60e51b815260206004820152603e60248201527f4552433732315072657365744d696e7465725061757365724175746f49643a2060448201527f6d75737420686176652070617573657220726f6c6520746f20706175736500006064820152608401610812565b610aff6119f7565b6000828152600160205260408120610f7f9083611a72565b9392505050565b6000818152600f602090815260408083205460ff908116808552601284528285208686526010808652848720549093168087529085528386208451606081018652905461ffff8082168352620100008204811683890152600160201b909104169481019485528787529290945291518493849384939290919061100889610c29565b60ff9384169a929093169850965090945092505050565b6000918252602082815260408084206001600160a01b0393909316845291905290205460ff1690565b60606003805461071a90612e41565b6001600160a01b0382163314156110b05760405162461bcd60e51b815260206004820152601960248201527f4552433732313a20617070726f766520746f2063616c6c6572000000000000006044820152606401610812565b3360008181526007602090815260408083206001600160a01b03871680855290835292819020805460ff191686151590811790915590519081529192917f17307eab39ab6107e8899845ad3d59bd9653f200f220920489ca2b5937696c31910160405180910390a35050565b600080600061112a85611a7e565b9150915060008161ffff16116111725760405162461bcd60e51b815260206004820152600d60248201526c139bc81d985b1a590818d85c99609a1b6044820152606401610812565b60ff8086166000908152601260209081526040808320938616835292905220805461ffff808216916111ad9162010000909104166001612d39565b61ffff1610156112ae57805460019082906002906111d690849062010000900461ffff16612d39565b92506101000a81548161ffff021916908361ffff16021790555060006111fb86611934565b6000818152601060209081526040808320805460ff8a811660ff199283168117909355885460118652848720805461ffff191661ffff600160201b90930492909216919091179055600f8552948390208054958e16959091168517905581519384529183019190915281018290524260608201529091506001600160a01b0387169033907fa00501f5dc0294e3b97b8e2511a1004822e99c4f42deda41542e5ec6a281c9db9060800160405180910390a3505b50600195945050505050565b6112c433836114a3565b6112e05760405162461bcd60e51b815260040161081290612ce8565b6112ec84848484611c51565b50505050565b6000818152600460205260409020546060906001600160a01b03166113715760405162461bcd60e51b815260206004820152602f60248201527f4552433732314d657461646174613a2055524920717565727920666f72206e6f60448201526e3732bc34b9ba32b73a103a37b5b2b760891b6064820152608401610812565b600061137b611c84565b9050600081511161139b5760405180602001604052806000815250610f7f565b806113a584611c93565b6040516020016113b6929190612ba2565b6040516020818303038152906040529392505050565b600081815260016020526040812061070590611d91565b610a418282611d9b565b6113f78282611dc1565b5050565b6000610f7f836001600160a01b038416611e45565b60006001600160e01b0319821663780e9d6360e01b1480610705575061070582611e94565b600081815260066020526040902080546001600160a01b0319166001600160a01b038416908117909155819061146a82610c29565b6001600160a01b03167f8c5be1e5ebec7d5bd14f71427d1e84f3dd0314c0f7b2291e5b200ac8c7c3b92560405160405180910390a45050565b6000818152600460205260408120546001600160a01b031661151c5760405162461bcd60e51b815260206004820152602c60248201527f4552433732313a206f70657261746f7220717565727920666f72206e6f6e657860448201526b34b9ba32b73a103a37b5b2b760a11b6064820152608401610812565b600061152783610c29565b9050806001600160a01b0316846001600160a01b031614806115625750836001600160a01b03166115578461079d565b6001600160a01b0316145b8061159257506001600160a01b0380821660009081526007602090815260408083209388168352929052205460ff165b949350505050565b826001600160a01b03166115ad82610c29565b6001600160a01b0316146116155760405162461bcd60e51b815260206004820152602960248201527f4552433732313a207472616e73666572206f6620746f6b656e2074686174206960448201526839903737ba1037bbb760b91b6064820152608401610812565b6001600160a01b0382166116775760405162461bcd60e51b8152602060048201526024808201527f4552433732313a207472616e7366657220746f20746865207a65726f206164646044820152637265737360e01b6064820152608401610812565b611682838383611ed4565b61168d600082611435565b6001600160a01b03831660009081526005602052604081208054600192906116b6908490612dc6565b90915550506001600160a01b03821660009081526005602052604081208054600192906116e4908490612d56565b909155505060008181526004602052604080822080546001600160a01b0319166001600160a01b0386811691821790925591518493918716917fddf252ad1be2c89b69c2b068fc378daa952ba7f163c4a11628f55a4df523b3ef91a4505050565b6000828152602081905260409020600101546117618133611edf565b6109488383611dc1565b6001600160a01b03811633146117db5760405162461bcd60e51b815260206004820152602f60248201527f416363657373436f6e74726f6c3a2063616e206f6e6c792072656e6f756e636560448201526e103937b632b9903337b91039b2b63360891b6064820152608401610812565b6113f78282611f43565b6000610f7f836001600160a01b038416611fa8565b600c5460ff166118435760405162461bcd60e51b815260206004820152601460248201527314185d5cd8589b194e881b9bdd081c185d5cd95960621b6044820152606401610812565b600c805460ff191690557f5db9ee0a495bf2e6ff9c91a7834c1ba4fdd244a5e8aa4e537bd38aeae4b073aa335b6040516001600160a01b03909116815260200160405180910390a1565b600061189882610c29565b90506118a681600084611ed4565b6118b1600083611435565b6001600160a01b03811660009081526005602052604081208054600192906118da908490612dc6565b909155505060008281526004602052604080822080546001600160a01b0319169055518391906001600160a01b038416907fddf252ad1be2c89b69c2b068fc378daa952ba7f163c4a11628f55a4df523b3ef908390a45050565b60006119607f9f2df0fed2c77648de5860a4cc508cd0818c85b8b8a1ab4ceeef8d981c8956a63361101f565b6119d25760405162461bcd60e51b815260206004820152603d60248201527f4552433732315072657365744d696e7465725061757365724175746f49643a2060448201527f6d7573742068617665206d696e74657220726f6c6520746f206d696e740000006064820152608401610812565b60006119dd600d5490565b90506119e9838261209b565b610705600d80546001019055565b600c5460ff1615611a3d5760405162461bcd60e51b815260206004820152601060248201526f14185d5cd8589b194e881c185d5cd95960821b6044820152606401610812565b600c805460ff191660011790557f62e78cea01bee320cd4e420270b5ea74000d11b0c9f74754ebdbfc544b05a2586118703390565b6000610f7f83836121e9565b6000806000611a8b612213565b60ff16905060006101cc821115611aa457506000611ae8565b6101048261ffff161115611aba57506001611ae8565b606e8261ffff161115611acf57506002611ae8565b600a8261ffff161115611ae457506003611ae8565b5060045b805b60008160000b12611b955760ff80871660009081526012602090815260408083209385168352928152908290208251606081018452905461ffff8082168084526201000083048216948401859052600160201b909204169382019390935283929091611b57906001612d39565b61ffff1611611b80578181602001516001611b729190612d39565b965096505050505050915091565b50508080611b8d90612e09565b915050611aea565b506000611ba3826001612d6e565b90505b60048160000b13611c435760ff80871660009081526012602090815260408083209385168352928152908290208251606081018452905461ffff8082168084526201000083048216948401859052600160201b909204169382019390935283929091611c13906001612d39565b61ffff1611611c2e578181602001516001611b729190612d39565b50508080611c3b90612e7c565b915050611ba6565b506000958695509350505050565b611c5c84848461159a565b611c688484848461225c565b6112ec5760405162461bcd60e51b815260040161081290612c96565b6060600e805461071a90612e41565b606081611cb75750506040805180820190915260018152600360fc1b602082015290565b8160005b8115611ce15780611ccb81612e9c565b9150611cda9050600a83612d93565b9150611cbb565b60008167ffffffffffffffff811115611cfc57611cfc612f23565b6040519080825280601f01601f191660200182016040528015611d26576020820181803683370190505b5090505b841561159257611d3b600183612dc6565b9150611d48600a86612eb7565b611d53906030612d56565b60f81b818381518110611d6857611d68612f0d565b60200101906001600160f81b031916908160001a905350611d8a600a86612d93565b9450611d2a565b6000610705825490565b600082815260208190526040902060010154611db78133611edf565b6109488383611f43565b611dcb828261101f565b6113f7576000828152602081815260408083206001600160a01b03851684529091529020805460ff19166001179055611e013390565b6001600160a01b0316816001600160a01b0316837f2f8788117e7eff1d82e926ec794901d17c78024a50270940304540a733656f0d60405160405180910390a45050565b6000818152600183016020526040812054611e8c57508154600181810184556000848152602080822090930184905584548482528286019093526040902091909155610705565b506000610705565b60006001600160e01b031982166380ac58cd60e01b1480611ec557506001600160e01b03198216635b5e139f60e01b145b8061070557506107058261235e565b610948838383612383565b611ee9828261101f565b6113f757611f01816001600160a01b031660146123f5565b611f0c8360206123f5565b604051602001611f1d929190612bd1565b60408051601f198184030181529082905262461bcd60e51b825261081291600401612c83565b611f4d828261101f565b156113f7576000828152602081815260408083206001600160a01b0385168085529252808320805460ff1916905551339285917ff6391f5c32d9c69d2a47ea670b442974b53935d1edc7fd64eb21e047a839171b9190a45050565b60008181526001830160205260408120548015612091576000611fcc600183612dc6565b8554909150600090611fe090600190612dc6565b905081811461204557600086600001828154811061200057612000612f0d565b906000526020600020015490508087600001848154811061202357612023612f0d565b6000918252602080832090910192909255918252600188019052604090208390555b855486908061205657612056612ef7565b600190038181906000526020600020016000905590558560010160008681526020019081526020016000206000905560019350505050610705565b6000915050610705565b6001600160a01b0382166120f15760405162461bcd60e51b815260206004820181905260248201527f4552433732313a206d696e7420746f20746865207a65726f20616464726573736044820152606401610812565b6000818152600460205260409020546001600160a01b0316156121565760405162461bcd60e51b815260206004820152601c60248201527f4552433732313a20746f6b656e20616c7265616479206d696e746564000000006044820152606401610812565b61216260008383611ed4565b6001600160a01b038216600090815260056020526040812080546001929061218b908490612d56565b909155505060008181526004602052604080822080546001600160a01b0319166001600160a01b03861690811790915590518392907fddf252ad1be2c89b69c2b068fc378daa952ba7f163c4a11628f55a4df523b3ef908290a45050565b600082600001828154811061220057612200612f0d565b9060005260206000200154905092915050565b60006103e84244604051602001612234929190918252602082015260400190565b6040516020818303038152906040528051906020012060001c6122579190612eb7565b905090565b60006001600160a01b0384163b15610eb857604051630a85bd0160e11b81526001600160a01b0385169063150b7a02906122a0903390899088908890600401612c46565b602060405180830381600087803b1580156122ba57600080fd5b505af19250505080156122ea575060408051601f3d908101601f191682019092526122e791810190612a82565b60015b612344573d808015612318576040519150601f19603f3d011682016040523d82523d6000602084013e61231d565b606091505b50805161233c5760405162461bcd60e51b815260040161081290612c96565b805181602001fd5b6001600160e01b031916630a85bd0160e11b149050611592565b60006001600160e01b03198216635a05180f60e01b1480610705575061070582612591565b61238e8383836125c6565b600c5460ff16156109485760405162461bcd60e51b815260206004820152602b60248201527f4552433732315061757361626c653a20746f6b656e207472616e73666572207760448201526a1a1a5b19481c185d5cd95960aa1b6064820152608401610812565b60606000612404836002612da7565b61240f906002612d56565b67ffffffffffffffff81111561242757612427612f23565b6040519080825280601f01601f191660200182016040528015612451576020820181803683370190505b509050600360fc1b8160008151811061246c5761246c612f0d565b60200101906001600160f81b031916908160001a905350600f60fb1b8160018151811061249b5761249b612f0d565b60200101906001600160f81b031916908160001a90535060006124bf846002612da7565b6124ca906001612d56565b90505b6001811115612542576f181899199a1a9b1b9c1cb0b131b232b360811b85600f16601081106124fe576124fe612f0d565b1a60f81b82828151811061251457612514612f0d565b60200101906001600160f81b031916908160001a90535060049490941c9361253b81612e2a565b90506124cd565b508315610f7f5760405162461bcd60e51b815260206004820181905260248201527f537472696e67733a20686578206c656e67746820696e73756666696369656e746044820152606401610812565b60006001600160e01b03198216637965db0b60e01b148061070557506301ffc9a760e01b6001600160e01b0319831614610705565b6001600160a01b0383166126215761261c81600a80546000838152600b60205260408120829055600182018355919091527fc65a7bb8d6351c1cf70c95a316cc6a92839c986682d98bc35f958f4883f9d2a80155565b612644565b816001600160a01b0316836001600160a01b03161461264457612644838261267e565b6001600160a01b03821661265b576109488161271b565b826001600160a01b0316826001600160a01b0316146109485761094882826127ca565b6000600161268b84610ca0565b6126959190612dc6565b6000838152600960205260409020549091508082146126e8576001600160a01b03841660009081526008602090815260408083208584528252808320548484528184208190558352600990915290208190555b5060009182526009602090815260408084208490556001600160a01b039094168352600881528383209183525290812055565b600a5460009061272d90600190612dc6565b6000838152600b6020526040812054600a805493945090928490811061275557612755612f0d565b9060005260206000200154905080600a838154811061277657612776612f0d565b6000918252602080832090910192909255828152600b9091526040808220849055858252812055600a8054806127ae576127ae612ef7565b6001900381819060005260206000200160009055905550505050565b60006127d583610ca0565b6001600160a01b039093166000908152600860209081526040808320868452825280832085905593825260099052919091209190915550565b80356001600160a01b038116811461282557600080fd5b919050565b803560ff8116811461282557600080fd5b60006020828403121561284d57600080fd5b610f7f8261280e565b6000806040838503121561286957600080fd5b6128728361280e565b91506128806020840161280e565b90509250929050565b60008060006060848603121561289e57600080fd5b6128a78461280e565b92506128b56020850161280e565b9150604084013590509250925092565b600080600080608085870312156128db57600080fd5b6128e48561280e565b93506128f26020860161280e565b925060408501359150606085013567ffffffffffffffff8082111561291657600080fd5b818701915087601f83011261292a57600080fd5b81358181111561293c5761293c612f23565b604051601f8201601f19908116603f0116810190838211818310171561296457612964612f23565b816040528281528a602084870101111561297d57600080fd5b82602086016020830137600060208483010152809550505050505092959194509250565b600080604083850312156129b457600080fd5b6129bd8361280e565b9150602083013580151581146129d257600080fd5b809150509250929050565b600080604083850312156129f057600080fd5b6129f98361280e565b946020939093013593505050565b600060208284031215612a1957600080fd5b5035919050565b60008060408385031215612a3357600080fd5b823591506128806020840161280e565b60008060408385031215612a5657600080fd5b50508035926020909101359150565b600060208284031215612a7757600080fd5b8135610f7f81612f39565b600060208284031215612a9457600080fd5b8151610f7f81612f39565b60008060408385031215612ab257600080fd5b6128728361282a565b60008060408385031215612ace57600080fd5b612ad78361282a565b91506128806020840161282a565b600080600060608486031215612afa57600080fd5b612b038461282a565b9250612b116020850161282a565b9150612b1f6040850161280e565b90509250925092565b600080600060608486031215612b3d57600080fd5b612b468461282a565b9250612b546020850161282a565b9150604084013561ffff81168114612b6b57600080fd5b809150509250925092565b60008151808452612b8e816020860160208601612ddd565b601f01601f19169290920160200192915050565b60008351612bb4818460208801612ddd565b835190830190612bc8818360208801612ddd565b01949350505050565b7f416363657373436f6e74726f6c3a206163636f756e7420000000000000000000815260008351612c09816017850160208801612ddd565b7001034b99036b4b9b9b4b733903937b6329607d1b6017918401918201528351612c3a816028840160208801612ddd565b01602801949350505050565b6001600160a01b0385811682528416602082015260408101839052608060608201819052600090612c7990830184612b76565b9695505050505050565b602081526000610f7f6020830184612b76565b60208082526032908201527f4552433732313a207472616e7366657220746f206e6f6e20455243373231526560408201527131b2b4bb32b91034b6b83632b6b2b73a32b960711b606082015260800190565b60208082526031908201527f4552433732313a207472616e736665722063616c6c6572206973206e6f74206f6040820152701ddb995c881b9bdc88185c1c1c9bdd9959607a1b606082015260800190565b600061ffff808316818516808303821115612bc857612bc8612ecb565b60008219821115612d6957612d69612ecb565b500190565b600060ff821660ff84168060ff03821115612d8b57612d8b612ecb565b019392505050565b600082612da257612da2612ee1565b500490565b6000816000190483118215151615612dc157612dc1612ecb565b500290565b600082821015612dd857612dd8612ecb565b500390565b60005b83811015612df8578181015183820152602001612de0565b838111156112ec5750506000910152565b600081810b607f19811415612e2057612e20612ecb565b6000190192915050565b600081612e3957612e39612ecb565b506000190190565b600181811c90821680612e5557607f821691505b60208210811415612e7657634e487b7160e01b600052602260045260246000fd5b50919050565b60008160000b607f811415612e9357612e93612ecb565b60010192915050565b6000600019821415612eb057612eb0612ecb565b5060010190565b600082612ec657612ec6612ee1565b500690565b634e487b7160e01b600052601160045260246000fd5b634e487b7160e01b600052601260045260246000fd5b634e487b7160e01b600052603160045260246000fd5b634e487b7160e01b600052603260045260246000fd5b634e487b7160e01b600052604160045260246000fd5b6001600160e01b031981168114610b9357600080fdfea26469706673582212200730b52b057fa01bfd09c83175c1bb64f549197f18c99bc44446c66704867d7564736f6c634300080600339f2df0fed2c77648de5860a4cc508cd0818c85b8b8a1ab4ceeef8d981c8956a6",
  "immutableReferences": {},
  "source": "// SPDX-License-Identifier: MIT\n\npragma solidity ^0.8.0;\n\nimport \"../ERC721.sol\";\nimport \"../extensions/ERC721Enumerable.sol\";\nimport \"../extensions/ERC721Burnable.sol\";\nimport \"../extensions/ERC721Pausable.sol\";\nimport \"../../../access/AccessControlEnumerable.sol\";\nimport \"../../../utils/Context.sol\";\nimport \"../../../utils/Counters.sol\";\n\n/**\n * @dev {ERC721} token, including:\n *\n *  - ability for holders to burn (destroy) their tokens\n *  - a minter role that allows for token minting (creation)\n *  - a pauser role that allows to stop all token transfers\n *  - token ID and URI autogeneration\n *\n * This contract uses {AccessControl} to lock permissioned functions using the\n * different roles - head to its documentation for details.\n *\n * The account that deploys the contract will be granted the minter and pauser\n * roles, as well as the default admin role, which will let it grant both minter\n * and pauser roles to other accounts.\n */\ncontract ERC721Card is\n    Context,\n    AccessControlEnumerable,\n    ERC721Enumerable,\n    ERC721Burnable,\n    ERC721Pausable\n{\n    using Counters for Counters.Counter;\n\n    bytes32 public constant MINTER_ROLE = keccak256(\"MINTER_ROLE\");\n    bytes32 public constant PAUSER_ROLE = keccak256(\"PAUSER_ROLE\");\n\n    Counters.Counter private _tokenIdTracker;\n\n    string private _baseTokenURI;\n\n    struct CardInfo {\n        uint16 total;\n        uint16 current;\n        uint16 power;\n    }\n    mapping(uint256 => uint8) nftCategory;\n    mapping(uint256 => uint8) nftLevel;\n    mapping(uint256 => uint16) nftPower;\n    // CardInfo struct as [category][level][cardInfo]\n    mapping(uint8 => mapping(uint8 => CardInfo)) cardInfo;\n\n    event MintWithLevel(\n        address indexed from,\n        address indexed to,\n        uint16 category,\n        uint16 level,\n        uint256 id,\n        uint256 timestamp\n    );\n\n    /**\n     * @dev Grants `DEFAULT_ADMIN_ROLE`, `MINTER_ROLE` and `PAUSER_ROLE` to the\n     * account that deploys the contract.\n     *\n     * Token URIs will be autogenerated based on `baseURI` and their token IDs.\n     * See {ERC721-tokenURI}.\n     */\n    constructor(\n        address adminAddress,\n        string memory name,\n        string memory symbol,\n        string memory baseTokenURI\n    ) ERC721(name, symbol) {\n        _baseTokenURI = baseTokenURI;\n\n        _setupRole(DEFAULT_ADMIN_ROLE, adminAddress);\n        _setupRole(PAUSER_ROLE, adminAddress);\n        _setupRole(MINTER_ROLE, adminAddress);\n        _setupRole(MINTER_ROLE, _msgSender());\n        setCardInfo();\n    }\n\n    function setCardInfo() internal {\n        cardInfo[1][4] = CardInfo({total: 10, power: 450, current: 0});\n        cardInfo[1][3] = CardInfo({total: 100, power: 200, current: 0});\n        cardInfo[1][2] = CardInfo({total: 150, power: 150, current: 0});\n        cardInfo[1][1] = CardInfo({total: 200, power: 120, current: 0});\n        cardInfo[1][0] = CardInfo({total: 540, power: 100, current: 0});\n\n        cardInfo[2][4] = CardInfo({total: 10, power: 450, current: 0});\n        cardInfo[2][3] = CardInfo({total: 100, power: 200, current: 0});\n        cardInfo[2][2] = CardInfo({total: 150, power: 150, current: 0});\n        cardInfo[2][1] = CardInfo({total: 200, power: 120, current: 0});\n        cardInfo[2][0] = CardInfo({total: 540, power: 100, current: 0});\n\n        cardInfo[3][4] = CardInfo({total: 10, power: 450, current: 0});\n        cardInfo[3][3] = CardInfo({total: 0, power: 200, current: 0});\n        cardInfo[3][2] = CardInfo({total: 0, power: 150, current: 0});\n        cardInfo[3][1] = CardInfo({total: 0, power: 120, current: 0});\n        cardInfo[3][0] = CardInfo({total: 990, power: 100, current: 0});\n    }\n\n    function setCardTotal(\n        uint8 _category,\n        uint8 _level,\n        uint16 _total\n    ) public returns (bool) {\n        CardInfo storage card = cardInfo[_category][_level];\n        card.total = _total;\n        return true;\n    }\n\n    function setCardPower(\n        uint8 _category,\n        uint8 _level,\n        uint16 _power\n    ) public returns (bool) {\n        CardInfo storage card = cardInfo[_category][_level];\n        card.power = _power;\n        return true;\n    }\n\n    function _baseURI() internal view virtual override returns (string memory) {\n        return _baseTokenURI;\n    }\n\n    function levelOf(uint256 id) external view returns (uint8 level) {\n        return nftLevel[id];\n    }\n\n    function powerOf(uint256 id) external view returns (uint16 power) {\n        return nftPower[id];\n    }\n\n    function categoryOf(uint256 id) external view returns (uint8 category) {\n        return nftCategory[id];\n    }\n\n    function cardCategory(uint8 _category, uint8 _level)\n        external\n        view\n        returns (\n            uint16 total,\n            uint16 current,\n            uint16 power\n        )\n    {\n        CardInfo memory card = cardInfo[_category][_level];\n        return (card.total, card.current, card.power);\n    }\n\n    function getCard(uint256 id)\n        external\n        view\n        returns (\n            uint16 category,\n            uint16 level,\n            uint16 power,\n            address owner\n        )\n    {\n        CardInfo memory card = cardInfo[nftCategory[id]][nftLevel[id]];\n        return (nftCategory[id], nftLevel[id], card.power, ownerOf(id));\n    }\n\n    // Get a random 100\n    function random() private view returns (uint8) {\n        return\n            uint8(\n                uint256(\n                    keccak256(\n                        abi.encodePacked(block.timestamp, block.difficulty)\n                    )\n                ) % 1000\n            );\n    }\n\n    function getAvailableCard(uint8 _category)\n        private\n        view\n        returns (uint8, uint16)\n    {\n        uint16 rand = random();\n        uint8 level = 0;\n        if (rand > (200 + 150 + 100 + 10)) {\n            level = 0;\n        } else if (rand > (150 + 100 + 10)) {\n            level = 1;\n        } else if (rand > (100 + 10)) {\n            level = 2;\n        } else if (rand > 10) {\n            level = 3;\n        } else {\n            level = 4;\n        }\n        // look up downward\n        for (int8 i = int8(level); i >= 0; i--) {\n            uint8 l = uint8(i);\n            CardInfo memory card = cardInfo[_category][l];\n            if (card.current + 1 <= card.total) {\n                return (l, card.current + 1);\n            }\n        }\n        // look up upward\n        for (int8 i = int8(level + 1); i <= 4; i++) {\n            uint8 l = uint8(i);\n            CardInfo memory card = cardInfo[_category][l];\n            if (card.current + 1 <= card.total) {\n                return (l, card.current + 1);\n            }\n        }\n        return (0, 0);\n    }\n\n    function mintCard(uint8 category, address to) public returns (bool) {\n        (uint8 level, uint16 current) = getAvailableCard(category);\n        require(current > 0, \"No valid card\");\n        CardInfo storage card = cardInfo[category][level];\n\n        if (card.current + 1 < card.total) {\n            card.current += 1;\n            uint256 id = mint(to);\n            nftLevel[id] = level;\n            nftPower[id] = card.power;\n            nftCategory[id] = category;\n            emit MintWithLevel(\n                msg.sender,\n                to,\n                category,\n                level,\n                id,\n                block.timestamp\n            );\n        }\n\n        return true;\n    }\n\n    function mintWithLevel(\n        uint8 _category,\n        uint8 _level,\n        address to\n    ) public returns (bool) {\n        require(_level < 5, \"Level exceed the limit of 5\");\n        CardInfo storage level = cardInfo[_category][_level];\n        if (level.current + 1 < level.total) {\n            level.current += 1;\n            uint256 id = mint(to);\n            nftLevel[id] = _level;\n            nftPower[id] = level.power;\n            nftCategory[id] = _category;\n            emit MintWithLevel(\n                msg.sender,\n                to,\n                _category,\n                _level,\n                id,\n                block.timestamp\n            );\n        }\n\n        return true;\n    }\n\n    /**\n     * @dev Creates a new token for `to`. Its token ID will be automatically\n     * assigned (and available on the emitted {IERC721-Transfer} event), and the token\n     * URI autogenerated based on the base URI passed at construction.\n     *\n     * See {ERC721-_mint}.\n     *\n     * Requirements:\n     *\n     * - the caller must have the `MINTER_ROLE`.\n     */\n    function mint(address to) private returns (uint256) {\n        require(\n            hasRole(MINTER_ROLE, _msgSender()),\n            \"ERC721PresetMinterPauserAutoId: must have minter role to mint\"\n        );\n\n        // We cannot just use balanceOf to create the new tokenId because tokens\n        // can be burned (destroyed), so we need a separate counter.\n        uint256 current = _tokenIdTracker.current();\n        _mint(to, current);\n        _tokenIdTracker.increment();\n        return current;\n    }\n\n    /**\n     * @dev Pauses all token transfers.\n     *\n     * See {ERC721Pausable} and {Pausable-_pause}.\n     *\n     * Requirements:\n     *\n     * - the caller must have the `PAUSER_ROLE`.\n     */\n    function pause() public virtual {\n        require(\n            hasRole(PAUSER_ROLE, _msgSender()),\n            \"ERC721PresetMinterPauserAutoId: must have pauser role to pause\"\n        );\n        _pause();\n    }\n\n    /**\n     * @dev Unpauses all token transfers.\n     *\n     * See {ERC721Pausable} and {Pausable-_unpause}.\n     *\n     * Requirements:\n     *\n     * - the caller must have the `PAUSER_ROLE`.\n     */\n    function unpause() public virtual {\n        require(\n            hasRole(PAUSER_ROLE, _msgSender()),\n            \"ERC721PresetMinterPauserAutoId: must have pauser role to unpause\"\n        );\n        _unpause();\n    }\n\n    function _beforeTokenTransfer(\n        address from,\n        address to,\n        uint256 tokenId\n    ) internal virtual override(ERC721, ERC721Enumerable, ERC721Pausable) {\n        super._beforeTokenTransfer(from, to, tokenId);\n    }\n\n    /**\n     * @dev See {IERC165-supportsInterface}.\n     */\n    function supportsInterface(bytes4 interfaceId)\n        public\n        view\n        virtual\n        override(AccessControlEnumerable, ERC721, ERC721Enumerable)\n        returns (bool)\n    {\n        return super.supportsInterface(interfaceId);\n    }\n}\n",
  "sourcePath": "/Users/jilong/solidity/pantheonNFT/contracts/token/ERC721/presets/ERC721Card.sol",
  "compiler": {
    "name": "solc",
    "version": "0.8.6+commit.11564f7e.Emscripten.clang"
  },
  "schemaVersion": "3.4.3",
  "updatedAt": "2022-05-04T22:35:49.972Z",
  "devdoc": {
    "details": "{ERC721} token, including:  - ability for holders to burn (destroy) their tokens  - a minter role that allows for token minting (creation)  - a pauser role that allows to stop all token transfers  - token ID and URI autogeneration This contract uses {AccessControl} to lock permissioned functions using the different roles - head to its documentation for details. The account that deploys the contract will be granted the minter and pauser roles, as well as the default admin role, which will let it grant both minter and pauser roles to other accounts.",
    "kind": "dev",
    "methods": {
      "approve(address,uint256)": {
        "details": "See {IERC721-approve}."
      },
      "balanceOf(address)": {
        "details": "See {IERC721-balanceOf}."
      },
      "burn(uint256)": {
        "details": "Burns `tokenId`. See {ERC721-_burn}. Requirements: - The caller must own `tokenId` or be an approved operator."
      },
      "constructor": {
        "details": "Grants `DEFAULT_ADMIN_ROLE`, `MINTER_ROLE` and `PAUSER_ROLE` to the account that deploys the contract. Token URIs will be autogenerated based on `baseURI` and their token IDs. See {ERC721-tokenURI}."
      },
      "getApproved(uint256)": {
        "details": "See {IERC721-getApproved}."
      },
      "getRoleAdmin(bytes32)": {
        "details": "Returns the admin role that controls `role`. See {grantRole} and {revokeRole}. To change a role's admin, use {_setRoleAdmin}."
      },
      "getRoleMember(bytes32,uint256)": {
        "details": "Returns one of the accounts that have `role`. `index` must be a value between 0 and {getRoleMemberCount}, non-inclusive. Role bearers are not sorted in any particular way, and their ordering may change at any point. WARNING: When using {getRoleMember} and {getRoleMemberCount}, make sure you perform all queries on the same block. See the following https://forum.openzeppelin.com/t/iterating-over-elements-on-enumerableset-in-openzeppelin-contracts/2296[forum post] for more information."
      },
      "getRoleMemberCount(bytes32)": {
        "details": "Returns the number of accounts that have `role`. Can be used together with {getRoleMember} to enumerate all bearers of a role."
      },
      "grantRole(bytes32,address)": {
        "details": "Overload {grantRole} to track enumerable memberships"
      },
      "hasRole(bytes32,address)": {
        "details": "Returns `true` if `account` has been granted `role`."
      },
      "isApprovedForAll(address,address)": {
        "details": "See {IERC721-isApprovedForAll}."
      },
      "name()": {
        "details": "See {IERC721Metadata-name}."
      },
      "ownerOf(uint256)": {
        "details": "See {IERC721-ownerOf}."
      },
      "pause()": {
        "details": "Pauses all token transfers. See {ERC721Pausable} and {Pausable-_pause}. Requirements: - the caller must have the `PAUSER_ROLE`."
      },
      "paused()": {
        "details": "Returns true if the contract is paused, and false otherwise."
      },
      "renounceRole(bytes32,address)": {
        "details": "Overload {renounceRole} to track enumerable memberships"
      },
      "revokeRole(bytes32,address)": {
        "details": "Overload {revokeRole} to track enumerable memberships"
      },
      "safeTransferFrom(address,address,uint256)": {
        "details": "See {IERC721-safeTransferFrom}."
      },
      "safeTransferFrom(address,address,uint256,bytes)": {
        "details": "See {IERC721-safeTransferFrom}."
      },
      "setApprovalForAll(address,bool)": {
        "details": "See {IERC721-setApprovalForAll}."
      },
      "supportsInterface(bytes4)": {
        "details": "See {IERC165-supportsInterface}."
      },
      "symbol()": {
        "details": "See {IERC721Metadata-symbol}."
      },
      "tokenByIndex(uint256)": {
        "details": "See {IERC721Enumerable-tokenByIndex}."
      },
      "tokenOfOwnerByIndex(address,uint256)": {
        "details": "See {IERC721Enumerable-tokenOfOwnerByIndex}."
      },
      "tokenURI(uint256)": {
        "details": "See {IERC721Metadata-tokenURI}."
      },
      "totalSupply()": {
        "details": "See {IERC721Enumerable-totalSupply}."
      },
      "transferFrom(address,address,uint256)": {
        "details": "See {IERC721-transferFrom}."
      },
      "unpause()": {
        "details": "Unpauses all token transfers. See {ERC721Pausable} and {Pausable-_unpause}. Requirements: - the caller must have the `PAUSER_ROLE`."
      }
    },
    "version": 1
  },
  "userdoc": {
    "kind": "user",
    "methods": {},
    "version": 1
  }
}