{
  "contractName": "ERC721Card",
  "abi": [
    {
      "inputs": [
        {
          "internalType": "address",
          "name": "adminAddress",
          "type": "address"
        },
        {
          "internalType": "string",
          "name": "name",
          "type": "string"
        },
        {
          "internalType": "string",
          "name": "symbol",
          "type": "string"
        },
        {
          "internalType": "string",
          "name": "baseTokenURI",
          "type": "string"
        }
      ],
      "stateMutability": "nonpayable",
      "type": "constructor"
    },
    {
      "anonymous": false,
      "inputs": [
        {
          "indexed": true,
          "internalType": "address",
          "name": "owner",
          "type": "address"
        },
        {
          "indexed": true,
          "internalType": "address",
          "name": "approved",
          "type": "address"
        },
        {
          "indexed": true,
          "internalType": "uint256",
          "name": "tokenId",
          "type": "uint256"
        }
      ],
      "name": "Approval",
      "type": "event"
    },
    {
      "anonymous": false,
      "inputs": [
        {
          "indexed": true,
          "internalType": "address",
          "name": "owner",
          "type": "address"
        },
        {
          "indexed": true,
          "internalType": "address",
          "name": "operator",
          "type": "address"
        },
        {
          "indexed": false,
          "internalType": "bool",
          "name": "approved",
          "type": "bool"
        }
      ],
      "name": "ApprovalForAll",
      "type": "event"
    },
    {
      "anonymous": false,
      "inputs": [
        {
          "indexed": true,
          "internalType": "address",
          "name": "from",
          "type": "address"
        },
        {
          "indexed": true,
          "internalType": "address",
          "name": "to",
          "type": "address"
        },
        {
          "indexed": false,
          "internalType": "uint16",
          "name": "category",
          "type": "uint16"
        },
        {
          "indexed": false,
          "internalType": "uint32",
          "name": "serialNo",
          "type": "uint32"
        },
        {
          "indexed": false,
          "internalType": "uint16",
          "name": "level",
          "type": "uint16"
        },
        {
          "indexed": false,
          "internalType": "uint256",
          "name": "timestamp",
          "type": "uint256"
        }
      ],
      "name": "MintWithLevel",
      "type": "event"
    },
    {
      "anonymous": false,
      "inputs": [
        {
          "indexed": false,
          "internalType": "address",
          "name": "account",
          "type": "address"
        }
      ],
      "name": "Paused",
      "type": "event"
    },
    {
      "anonymous": false,
      "inputs": [
        {
          "indexed": true,
          "internalType": "bytes32",
          "name": "role",
          "type": "bytes32"
        },
        {
          "indexed": true,
          "internalType": "bytes32",
          "name": "previousAdminRole",
          "type": "bytes32"
        },
        {
          "indexed": true,
          "internalType": "bytes32",
          "name": "newAdminRole",
          "type": "bytes32"
        }
      ],
      "name": "RoleAdminChanged",
      "type": "event"
    },
    {
      "anonymous": false,
      "inputs": [
        {
          "indexed": true,
          "internalType": "bytes32",
          "name": "role",
          "type": "bytes32"
        },
        {
          "indexed": true,
          "internalType": "address",
          "name": "account",
          "type": "address"
        },
        {
          "indexed": true,
          "internalType": "address",
          "name": "sender",
          "type": "address"
        }
      ],
      "name": "RoleGranted",
      "type": "event"
    },
    {
      "anonymous": false,
      "inputs": [
        {
          "indexed": true,
          "internalType": "bytes32",
          "name": "role",
          "type": "bytes32"
        },
        {
          "indexed": true,
          "internalType": "address",
          "name": "account",
          "type": "address"
        },
        {
          "indexed": true,
          "internalType": "address",
          "name": "sender",
          "type": "address"
        }
      ],
      "name": "RoleRevoked",
      "type": "event"
    },
    {
      "anonymous": false,
      "inputs": [
        {
          "indexed": true,
          "internalType": "address",
          "name": "from",
          "type": "address"
        },
        {
          "indexed": true,
          "internalType": "address",
          "name": "to",
          "type": "address"
        },
        {
          "indexed": true,
          "internalType": "uint256",
          "name": "tokenId",
          "type": "uint256"
        }
      ],
      "name": "Transfer",
      "type": "event"
    },
    {
      "anonymous": false,
      "inputs": [
        {
          "indexed": false,
          "internalType": "address",
          "name": "account",
          "type": "address"
        }
      ],
      "name": "Unpaused",
      "type": "event"
    },
    {
      "inputs": [],
      "name": "DEFAULT_ADMIN_ROLE",
      "outputs": [
        {
          "internalType": "bytes32",
          "name": "",
          "type": "bytes32"
        }
      ],
      "stateMutability": "view",
      "type": "function",
      "constant": true
    },
    {
      "inputs": [],
      "name": "MINTER_ROLE",
      "outputs": [
        {
          "internalType": "bytes32",
          "name": "",
          "type": "bytes32"
        }
      ],
      "stateMutability": "view",
      "type": "function",
      "constant": true
    },
    {
      "inputs": [],
      "name": "PAUSER_ROLE",
      "outputs": [
        {
          "internalType": "bytes32",
          "name": "",
          "type": "bytes32"
        }
      ],
      "stateMutability": "view",
      "type": "function",
      "constant": true
    },
    {
      "inputs": [
        {
          "internalType": "address",
          "name": "to",
          "type": "address"
        },
        {
          "internalType": "uint256",
          "name": "tokenId",
          "type": "uint256"
        }
      ],
      "name": "approve",
      "outputs": [],
      "stateMutability": "nonpayable",
      "type": "function"
    },
    {
      "inputs": [
        {
          "internalType": "address",
          "name": "owner",
          "type": "address"
        }
      ],
      "name": "balanceOf",
      "outputs": [
        {
          "internalType": "uint256",
          "name": "",
          "type": "uint256"
        }
      ],
      "stateMutability": "view",
      "type": "function",
      "constant": true
    },
    {
      "inputs": [
        {
          "internalType": "uint256",
          "name": "tokenId",
          "type": "uint256"
        }
      ],
      "name": "burn",
      "outputs": [],
      "stateMutability": "nonpayable",
      "type": "function"
    },
    {
      "inputs": [
        {
          "internalType": "uint256",
          "name": "tokenId",
          "type": "uint256"
        }
      ],
      "name": "getApproved",
      "outputs": [
        {
          "internalType": "address",
          "name": "",
          "type": "address"
        }
      ],
      "stateMutability": "view",
      "type": "function",
      "constant": true
    },
    {
      "inputs": [
        {
          "internalType": "bytes32",
          "name": "role",
          "type": "bytes32"
        }
      ],
      "name": "getRoleAdmin",
      "outputs": [
        {
          "internalType": "bytes32",
          "name": "",
          "type": "bytes32"
        }
      ],
      "stateMutability": "view",
      "type": "function",
      "constant": true
    },
    {
      "inputs": [
        {
          "internalType": "bytes32",
          "name": "role",
          "type": "bytes32"
        },
        {
          "internalType": "uint256",
          "name": "index",
          "type": "uint256"
        }
      ],
      "name": "getRoleMember",
      "outputs": [
        {
          "internalType": "address",
          "name": "",
          "type": "address"
        }
      ],
      "stateMutability": "view",
      "type": "function",
      "constant": true
    },
    {
      "inputs": [
        {
          "internalType": "bytes32",
          "name": "role",
          "type": "bytes32"
        }
      ],
      "name": "getRoleMemberCount",
      "outputs": [
        {
          "internalType": "uint256",
          "name": "",
          "type": "uint256"
        }
      ],
      "stateMutability": "view",
      "type": "function",
      "constant": true
    },
    {
      "inputs": [
        {
          "internalType": "bytes32",
          "name": "role",
          "type": "bytes32"
        },
        {
          "internalType": "address",
          "name": "account",
          "type": "address"
        }
      ],
      "name": "grantRole",
      "outputs": [],
      "stateMutability": "nonpayable",
      "type": "function"
    },
    {
      "inputs": [
        {
          "internalType": "bytes32",
          "name": "role",
          "type": "bytes32"
        },
        {
          "internalType": "address",
          "name": "account",
          "type": "address"
        }
      ],
      "name": "hasRole",
      "outputs": [
        {
          "internalType": "bool",
          "name": "",
          "type": "bool"
        }
      ],
      "stateMutability": "view",
      "type": "function",
      "constant": true
    },
    {
      "inputs": [
        {
          "internalType": "address",
          "name": "owner",
          "type": "address"
        },
        {
          "internalType": "address",
          "name": "operator",
          "type": "address"
        }
      ],
      "name": "isApprovedForAll",
      "outputs": [
        {
          "internalType": "bool",
          "name": "",
          "type": "bool"
        }
      ],
      "stateMutability": "view",
      "type": "function",
      "constant": true
    },
    {
      "inputs": [],
      "name": "name",
      "outputs": [
        {
          "internalType": "string",
          "name": "",
          "type": "string"
        }
      ],
      "stateMutability": "view",
      "type": "function",
      "constant": true
    },
    {
      "inputs": [
        {
          "internalType": "uint256",
          "name": "tokenId",
          "type": "uint256"
        }
      ],
      "name": "ownerOf",
      "outputs": [
        {
          "internalType": "address",
          "name": "",
          "type": "address"
        }
      ],
      "stateMutability": "view",
      "type": "function",
      "constant": true
    },
    {
      "inputs": [],
      "name": "paused",
      "outputs": [
        {
          "internalType": "bool",
          "name": "",
          "type": "bool"
        }
      ],
      "stateMutability": "view",
      "type": "function",
      "constant": true
    },
    {
      "inputs": [
        {
          "internalType": "bytes32",
          "name": "role",
          "type": "bytes32"
        },
        {
          "internalType": "address",
          "name": "account",
          "type": "address"
        }
      ],
      "name": "renounceRole",
      "outputs": [],
      "stateMutability": "nonpayable",
      "type": "function"
    },
    {
      "inputs": [
        {
          "internalType": "bytes32",
          "name": "role",
          "type": "bytes32"
        },
        {
          "internalType": "address",
          "name": "account",
          "type": "address"
        }
      ],
      "name": "revokeRole",
      "outputs": [],
      "stateMutability": "nonpayable",
      "type": "function"
    },
    {
      "inputs": [
        {
          "internalType": "address",
          "name": "from",
          "type": "address"
        },
        {
          "internalType": "address",
          "name": "to",
          "type": "address"
        },
        {
          "internalType": "uint256",
          "name": "tokenId",
          "type": "uint256"
        }
      ],
      "name": "safeTransferFrom",
      "outputs": [],
      "stateMutability": "nonpayable",
      "type": "function"
    },
    {
      "inputs": [
        {
          "internalType": "address",
          "name": "from",
          "type": "address"
        },
        {
          "internalType": "address",
          "name": "to",
          "type": "address"
        },
        {
          "internalType": "uint256",
          "name": "tokenId",
          "type": "uint256"
        },
        {
          "internalType": "bytes",
          "name": "_data",
          "type": "bytes"
        }
      ],
      "name": "safeTransferFrom",
      "outputs": [],
      "stateMutability": "nonpayable",
      "type": "function"
    },
    {
      "inputs": [
        {
          "internalType": "address",
          "name": "operator",
          "type": "address"
        },
        {
          "internalType": "bool",
          "name": "approved",
          "type": "bool"
        }
      ],
      "name": "setApprovalForAll",
      "outputs": [],
      "stateMutability": "nonpayable",
      "type": "function"
    },
    {
      "inputs": [],
      "name": "symbol",
      "outputs": [
        {
          "internalType": "string",
          "name": "",
          "type": "string"
        }
      ],
      "stateMutability": "view",
      "type": "function",
      "constant": true
    },
    {
      "inputs": [
        {
          "internalType": "uint256",
          "name": "index",
          "type": "uint256"
        }
      ],
      "name": "tokenByIndex",
      "outputs": [
        {
          "internalType": "uint256",
          "name": "",
          "type": "uint256"
        }
      ],
      "stateMutability": "view",
      "type": "function",
      "constant": true
    },
    {
      "inputs": [
        {
          "internalType": "address",
          "name": "owner",
          "type": "address"
        },
        {
          "internalType": "uint256",
          "name": "index",
          "type": "uint256"
        }
      ],
      "name": "tokenOfOwnerByIndex",
      "outputs": [
        {
          "internalType": "uint256",
          "name": "",
          "type": "uint256"
        }
      ],
      "stateMutability": "view",
      "type": "function",
      "constant": true
    },
    {
      "inputs": [
        {
          "internalType": "uint256",
          "name": "tokenId",
          "type": "uint256"
        }
      ],
      "name": "tokenURI",
      "outputs": [
        {
          "internalType": "string",
          "name": "",
          "type": "string"
        }
      ],
      "stateMutability": "view",
      "type": "function",
      "constant": true
    },
    {
      "inputs": [],
      "name": "totalSupply",
      "outputs": [
        {
          "internalType": "uint256",
          "name": "",
          "type": "uint256"
        }
      ],
      "stateMutability": "view",
      "type": "function",
      "constant": true
    },
    {
      "inputs": [
        {
          "internalType": "address",
          "name": "from",
          "type": "address"
        },
        {
          "internalType": "address",
          "name": "to",
          "type": "address"
        },
        {
          "internalType": "uint256",
          "name": "tokenId",
          "type": "uint256"
        }
      ],
      "name": "transferFrom",
      "outputs": [],
      "stateMutability": "nonpayable",
      "type": "function"
    },
    {
      "inputs": [
        {
          "internalType": "uint8",
          "name": "_category",
          "type": "uint8"
        },
        {
          "internalType": "uint8",
          "name": "_level",
          "type": "uint8"
        },
        {
          "internalType": "uint16",
          "name": "_total",
          "type": "uint16"
        }
      ],
      "name": "setCardTotal",
      "outputs": [
        {
          "internalType": "bool",
          "name": "",
          "type": "bool"
        }
      ],
      "stateMutability": "nonpayable",
      "type": "function"
    },
    {
      "inputs": [
        {
          "internalType": "uint8",
          "name": "_category",
          "type": "uint8"
        },
        {
          "internalType": "uint8",
          "name": "_level",
          "type": "uint8"
        },
        {
          "internalType": "uint16",
          "name": "_power",
          "type": "uint16"
        }
      ],
      "name": "setCardPower",
      "outputs": [
        {
          "internalType": "bool",
          "name": "",
          "type": "bool"
        }
      ],
      "stateMutability": "nonpayable",
      "type": "function"
    },
    {
      "inputs": [
        {
          "internalType": "uint256",
          "name": "id",
          "type": "uint256"
        }
      ],
      "name": "levelOf",
      "outputs": [
        {
          "internalType": "uint8",
          "name": "level",
          "type": "uint8"
        }
      ],
      "stateMutability": "view",
      "type": "function",
      "constant": true
    },
    {
      "inputs": [
        {
          "internalType": "uint256",
          "name": "id",
          "type": "uint256"
        }
      ],
      "name": "powerOf",
      "outputs": [
        {
          "internalType": "uint16",
          "name": "power",
          "type": "uint16"
        }
      ],
      "stateMutability": "view",
      "type": "function",
      "constant": true
    },
    {
      "inputs": [
        {
          "internalType": "uint256",
          "name": "id",
          "type": "uint256"
        }
      ],
      "name": "categoryOf",
      "outputs": [
        {
          "internalType": "uint8",
          "name": "category",
          "type": "uint8"
        }
      ],
      "stateMutability": "view",
      "type": "function",
      "constant": true
    },
    {
      "inputs": [
        {
          "internalType": "uint256",
          "name": "id",
          "type": "uint256"
        }
      ],
      "name": "nftIndexOf",
      "outputs": [
        {
          "internalType": "uint256",
          "name": "index",
          "type": "uint256"
        }
      ],
      "stateMutability": "view",
      "type": "function",
      "constant": true
    },
    {
      "inputs": [
        {
          "internalType": "uint8",
          "name": "_category",
          "type": "uint8"
        },
        {
          "internalType": "uint8",
          "name": "_level",
          "type": "uint8"
        }
      ],
      "name": "cardCategory",
      "outputs": [
        {
          "internalType": "uint16",
          "name": "total",
          "type": "uint16"
        },
        {
          "internalType": "uint16",
          "name": "current",
          "type": "uint16"
        },
        {
          "internalType": "uint16",
          "name": "power",
          "type": "uint16"
        }
      ],
      "stateMutability": "view",
      "type": "function",
      "constant": true
    },
    {
      "inputs": [
        {
          "internalType": "uint256",
          "name": "id",
          "type": "uint256"
        }
      ],
      "name": "getCard",
      "outputs": [
        {
          "internalType": "uint16",
          "name": "category",
          "type": "uint16"
        },
        {
          "internalType": "uint16",
          "name": "level",
          "type": "uint16"
        },
        {
          "internalType": "uint16",
          "name": "power",
          "type": "uint16"
        },
        {
          "internalType": "address",
          "name": "owner",
          "type": "address"
        }
      ],
      "stateMutability": "view",
      "type": "function",
      "constant": true
    },
    {
      "inputs": [
        {
          "internalType": "uint8",
          "name": "category",
          "type": "uint8"
        },
        {
          "internalType": "uint32",
          "name": "serialNo",
          "type": "uint32"
        },
        {
          "internalType": "address",
          "name": "to",
          "type": "address"
        }
      ],
      "name": "mintCard",
      "outputs": [
        {
          "internalType": "uint8",
          "name": "",
          "type": "uint8"
        },
        {
          "internalType": "uint256",
          "name": "",
          "type": "uint256"
        }
      ],
      "stateMutability": "nonpayable",
      "type": "function"
    },
    {
      "inputs": [
        {
          "internalType": "uint8",
          "name": "_category",
          "type": "uint8"
        },
        {
          "internalType": "uint32",
          "name": "_serialNo",
          "type": "uint32"
        },
        {
          "internalType": "uint8",
          "name": "_level",
          "type": "uint8"
        },
        {
          "internalType": "address",
          "name": "to",
          "type": "address"
        }
      ],
      "name": "mintWithLevel",
      "outputs": [
        {
          "internalType": "bool",
          "name": "",
          "type": "bool"
        }
      ],
      "stateMutability": "nonpayable",
      "type": "function"
    },
    {
      "inputs": [],
      "name": "pause",
      "outputs": [],
      "stateMutability": "nonpayable",
      "type": "function"
    },
    {
      "inputs": [],
      "name": "unpause",
      "outputs": [],
      "stateMutability": "nonpayable",
      "type": "function"
    },
    {
      "inputs": [
        {
          "internalType": "bytes4",
          "name": "interfaceId",
          "type": "bytes4"
        }
      ],
      "name": "supportsInterface",
      "outputs": [
        {
          "internalType": "bool",
          "name": "",
          "type": "bool"
        }
      ],
      "stateMutability": "view",
      "type": "function",
      "constant": true
    }
  ],
  "bytecode": "0x60806040523480156200001157600080fd5b50604051620041c0380380620041c0833981016040819052620000349162000f28565b8251839083906200004d90600290602085019062000dcb565b5080516200006390600390602084019062000dcb565b5050600c805460ff191690555080516200008590600e90602084019062000dcb565b506200009360008562000c66565b620000bf7f65d7a28e3265b37a6474929f336521b332c1681b933f6cb9f3376673440d862a8562000c66565b620000da600080516020620041a08339815191528562000c66565b620000f5600080516020620041a08339815191523362000c66565b62000c5c6040518060600160405280600a61ffff168152602001600061ffff1681526020016101c261ffff1681525060136000600160ff1681526020019081526020016000206000600460ff16815260200190815260200160002060008201518160000160006101000a81548161ffff021916908361ffff16021790555060208201518160000160026101000a81548161ffff021916908361ffff16021790555060408201518160000160046101000a81548161ffff021916908361ffff1602179055509050506040518060600160405280606461ffff168152602001600061ffff16815260200160c861ffff1681525060136000600160ff1681526020019081526020016000206000600360ff16815260200190815260200160002060008201518160000160006101000a81548161ffff021916908361ffff16021790555060208201518160000160026101000a81548161ffff021916908361ffff16021790555060408201518160000160046101000a81548161ffff021916908361ffff1602179055509050506040518060600160405280609661ffff168152602001600061ffff168152602001609661ffff1681525060136000600160ff1681526020019081526020016000206000600260ff16815260200190815260200160002060008201518160000160006101000a81548161ffff021916908361ffff16021790555060208201518160000160026101000a81548161ffff021916908361ffff16021790555060408201518160000160046101000a81548161ffff021916908361ffff160217905550905050604051806060016040528060c861ffff168152602001600061ffff168152602001607861ffff1681525060136000600160ff1681526020019081526020016000206000600160ff16815260200190815260200160002060008201518160000160006101000a81548161ffff021916908361ffff16021790555060208201518160000160026101000a81548161ffff021916908361ffff16021790555060408201518160000160046101000a81548161ffff021916908361ffff160217905550905050604051806060016040528061021c61ffff168152602001600061ffff168152602001606461ffff1681525060136000600160ff16815260200190815260200160002060008060ff16815260200190815260200160002060008201518160000160006101000a81548161ffff021916908361ffff16021790555060208201518160000160026101000a81548161ffff021916908361ffff16021790555060408201518160000160046101000a81548161ffff021916908361ffff1602179055509050506040518060600160405280600a61ffff168152602001600061ffff1681526020016101c261ffff1681525060136000600260ff1681526020019081526020016000206000600460ff16815260200190815260200160002060008201518160000160006101000a81548161ffff021916908361ffff16021790555060208201518160000160026101000a81548161ffff021916908361ffff16021790555060408201518160000160046101000a81548161ffff021916908361ffff1602179055509050506040518060600160405280606461ffff168152602001600061ffff16815260200160c861ffff1681525060136000600260ff1681526020019081526020016000206000600360ff16815260200190815260200160002060008201518160000160006101000a81548161ffff021916908361ffff16021790555060208201518160000160026101000a81548161ffff021916908361ffff16021790555060408201518160000160046101000a81548161ffff021916908361ffff1602179055509050506040518060600160405280609661ffff168152602001600061ffff168152602001609661ffff1681525060136000600260ff1681526020019081526020016000206000600260ff16815260200190815260200160002060008201518160000160006101000a81548161ffff021916908361ffff16021790555060208201518160000160026101000a81548161ffff021916908361ffff16021790555060408201518160000160046101000a81548161ffff021916908361ffff160217905550905050604051806060016040528060c861ffff168152602001600061ffff168152602001607861ffff1681525060136000600260ff1681526020019081526020016000206000600160ff16815260200190815260200160002060008201518160000160006101000a81548161ffff021916908361ffff16021790555060208201518160000160026101000a81548161ffff021916908361ffff16021790555060408201518160000160046101000a81548161ffff021916908361ffff160217905550905050604051806060016040528061021c61ffff168152602001600061ffff168152602001606461ffff1681525060136000600260ff16815260200190815260200160002060008060ff16815260200190815260200160002060008201518160000160006101000a81548161ffff021916908361ffff16021790555060208201518160000160026101000a81548161ffff021916908361ffff16021790555060408201518160000160046101000a81548161ffff021916908361ffff1602179055509050506040518060600160405280600a61ffff168152602001600061ffff1681526020016101c261ffff1681525060136000600360ff1681526020019081526020016000206000600460ff16815260200190815260200160002060008201518160000160006101000a81548161ffff021916908361ffff16021790555060208201518160000160026101000a81548161ffff021916908361ffff16021790555060408201518160000160046101000a81548161ffff021916908361ffff1602179055509050506040518060600160405280600061ffff168152602001600061ffff16815260200160c861ffff1681525060136000600360ff1681526020019081526020016000206000600360ff16815260200190815260200160002060008201518160000160006101000a81548161ffff021916908361ffff16021790555060208201518160000160026101000a81548161ffff021916908361ffff16021790555060408201518160000160046101000a81548161ffff021916908361ffff1602179055509050506040518060600160405280600061ffff168152602001600061ffff168152602001609661ffff1681525060136000600360ff1681526020019081526020016000206000600260ff16815260200190815260200160002060008201518160000160006101000a81548161ffff021916908361ffff16021790555060208201518160000160026101000a81548161ffff021916908361ffff16021790555060408201518160000160046101000a81548161ffff021916908361ffff1602179055509050506040518060600160405280600061ffff168152602001600061ffff168152602001607861ffff1681525060136000600360ff1681526020019081526020016000206000600160ff16815260200190815260200160002060008201518160000160006101000a81548161ffff021916908361ffff16021790555060208201518160000160026101000a81548161ffff021916908361ffff16021790555060408201518160000160046101000a81548161ffff021916908361ffff16021790555090505060405180606001604052806103de61ffff168152602001600061ffff168152602001606461ffff1681525060136000600360ff16815260200190815260200160002060008060ff16815260200190815260200160002060008201518160000160006101000a81548161ffff021916908361ffff16021790555060208201518160000160026101000a81548161ffff021916908361ffff16021790555060408201518160000160046101000a81548161ffff021916908361ffff160217905550905050565b505050506200102d565b62000c7d828262000ca960201b620015461760201c565b600082815260016020908152604090912062000ca49183906200155462000cb9821b17901c565b505050565b62000cb5828262000cd9565b5050565b600062000cd0836001600160a01b03841662000d79565b90505b92915050565b6000828152602081815260408083206001600160a01b038516845290915290205460ff1662000cb5576000828152602081815260408083206001600160a01b03851684529091529020805460ff1916600117905562000d353390565b6001600160a01b0316816001600160a01b0316837f2f8788117e7eff1d82e926ec794901d17c78024a50270940304540a733656f0d60405160405180910390a45050565b600081815260018301602052604081205462000dc25750815460018181018455600084815260208082209093018490558454848252828601909352604090209190915562000cd3565b50600062000cd3565b82805462000dd99062000fda565b90600052602060002090601f01602090048101928262000dfd576000855562000e48565b82601f1062000e1857805160ff191683800117855562000e48565b8280016001018555821562000e48579182015b8281111562000e4857825182559160200191906001019062000e2b565b5062000e5692915062000e5a565b5090565b5b8082111562000e56576000815560010162000e5b565b600082601f83011262000e8357600080fd5b81516001600160401b038082111562000ea05762000ea062001017565b604051601f8301601f19908116603f0116810190828211818310171562000ecb5762000ecb62001017565b8160405283815260209250868385880101111562000ee857600080fd5b600091505b8382101562000f0c578582018301518183018401529082019062000eed565b8382111562000f1e5760008385830101525b9695505050505050565b6000806000806080858703121562000f3f57600080fd5b84516001600160a01b038116811462000f5757600080fd5b60208601519094506001600160401b038082111562000f7557600080fd5b62000f838883890162000e71565b9450604087015191508082111562000f9a57600080fd5b62000fa88883890162000e71565b9350606087015191508082111562000fbf57600080fd5b5062000fce8782880162000e71565b91505092959194509250565b600181811c9082168062000fef57607f821691505b602082108114156200101157634e487b7160e01b600052602260045260246000fd5b50919050565b634e487b7160e01b600052604160045260246000fd5b613163806200103d6000396000f3fe608060405234801561001057600080fd5b50600436106102485760003560e01c806370a082311161013b578063a22cb465116100b8578063d53913931161007c578063d539139314610614578063d547741f1461063b578063df264c201461064e578063e63ab1e9146106db578063e985e9c51461070257600080fd5b8063a22cb46514610581578063b88d4fde14610594578063c558a120146105a7578063c87b56dd146105ee578063ca15c8731461060157600080fd5b806391d14854116100ff57806391d14854146104fa57806393d16c711461050d57806395d89b411461052057806399d3497a14610528578063a217fddf1461057957600080fd5b806370a08231146104625780638456cb59146104755780638ed914cd1461047d5780639010d07c146104a05780639188d312146104b357600080fd5b806336568abe116101c95780634f6ccce71161018d5780634f6ccce7146103d05780635c975abb146103e35780635efbd96d146103ee5780636352211e1461041a5780636d5e30321461042d57600080fd5b806336568abe1461036f5780633f4ba83a1461038257806342842e0e1461038a57806342966c681461039d5780634c7683ff146103b057600080fd5b806318160ddd1161021057806318160ddd1461030157806323b872dd14610313578063248a9ca3146103265780632f2ff15d146103495780632f745c591461035c57600080fd5b806301ffc9a71461024d57806304eaa1131461027557806306fdde03146102ac578063081812fc146102c1578063095ea7b3146102ec575b600080fd5b61026061025b366004612c0b565b61073e565b60405190151581526020015b60405180910390f35b610299610283366004612bad565b60009081526011602052604090205461ffff1690565b60405161ffff909116815260200161026c565b6102b461074f565b60405161026c9190612e61565b6102d46102cf366004612bad565b6107e1565b6040516001600160a01b03909116815260200161026c565b6102ff6102fa366004612b83565b61087b565b005b600a545b60405190815260200161026c565b6102ff610321366004612a2f565b610991565b610305610334366004612bad565b60009081526020819052604090206001015490565b6102ff610357366004612bc6565b6109c3565b61030561036a366004612b83565b6109e5565b6102ff61037d366004612bc6565b610a7b565b6102ff610a9d565b6102ff610398366004612a2f565b610b45565b6102ff6103ab366004612bad565b610b60565b6103056103be366004612bad565b60009081526012602052604090205490565b6103056103de366004612bad565b610bda565b600c5460ff16610260565b6104016103fc366004612c45565b610c6d565b6040805160ff909316835260208301919091520161026c565b6102d4610428366004612bad565b610f0b565b61045061043b366004612bad565b60009081526010602052604090205460ff1690565b60405160ff909116815260200161026c565b6103056104703660046129e1565b610f82565b6102ff611009565b61045061048b366004612bad565b6000908152600f602052604090205460ff1690565b6102d46104ae366004612be9565b6110ad565b6104c66104c1366004612bad565b6110cc565b6040805161ffff9586168152938516602085015291909316908201526001600160a01b03909116606082015260800161026c565b610260610508366004612bc6565b611165565b61026061051b366004612c88565b61118e565b6102b461133f565b610260610536366004612d06565b60ff8084166000908152601360209081526040808320938616835292905220805461ffff8316600160201b0265ffff000000001990911617905560019392505050565b610305600081565b6102ff61058f366004612b47565b61134e565b6102ff6105a2366004612a6b565b611413565b6102606105b5366004612d06565b60ff8084166000908152601360209081526040808320938616835292905220805461ffff831661ffff1990911617905560019392505050565b6102b46105fc366004612bad565b61144b565b61030561060f366004612bad565b611525565b6103057f9f2df0fed2c77648de5860a4cc508cd0818c85b8b8a1ab4ceeef8d981c8956a681565b6102ff610649366004612bc6565b61153c565b6106b661065c366004612cdc565b60ff80831660009081526013602090815260408083209385168352928152908290208251606081018452905461ffff8082168084526201000083048216948401859052600160201b90920416919093018190529250925092565b6040805161ffff9485168152928416602084015292169181019190915260600161026c565b6103057f65d7a28e3265b37a6474929f336521b332c1681b933f6cb9f3376673440d862a81565b6102606107103660046129fc565b6001600160a01b03918216600090815260076020908152604080832093909416825291909152205460ff1690565b600061074982611569565b92915050565b60606002805461075e9061301f565b80601f016020809104026020016040519081016040528092919081815260200182805461078a9061301f565b80156107d75780601f106107ac576101008083540402835291602001916107d7565b820191906000526020600020905b8154815290600101906020018083116107ba57829003601f168201915b5050505050905090565b6000818152600460205260408120546001600160a01b031661085f5760405162461bcd60e51b815260206004820152602c60248201527f4552433732313a20617070726f76656420717565727920666f72206e6f6e657860448201526b34b9ba32b73a103a37b5b2b760a11b60648201526084015b60405180910390fd5b506000908152600660205260409020546001600160a01b031690565b600061088682610f0b565b9050806001600160a01b0316836001600160a01b031614156108f45760405162461bcd60e51b815260206004820152602160248201527f4552433732313a20617070726f76616c20746f2063757272656e74206f776e656044820152603960f91b6064820152608401610856565b336001600160a01b038216148061091057506109108133610710565b6109825760405162461bcd60e51b815260206004820152603860248201527f4552433732313a20617070726f76652063616c6c6572206973206e6f74206f7760448201527f6e6572206e6f7220617070726f76656420666f7220616c6c00000000000000006064820152608401610856565b61098c838361158e565b505050565b61099c335b826115fc565b6109b85760405162461bcd60e51b815260040161085690612ec6565b61098c8383836116ef565b6109cd828261189a565b600082815260016020526040902061098c9082611554565b60006109f083610f82565b8210610a525760405162461bcd60e51b815260206004820152602b60248201527f455243373231456e756d657261626c653a206f776e657220696e646578206f7560448201526a74206f6620626f756e647360a81b6064820152608401610856565b506001600160a01b03919091166000908152600860209081526040808320938352929052205490565b610a8582826118c0565b600082815260016020526040902061098c908261193a565b610ac77f65d7a28e3265b37a6474929f336521b332c1681b933f6cb9f3376673440d862a33611165565b610b3b576040805162461bcd60e51b81526020600482015260248101919091527f4552433732315072657365744d696e7465725061757365724175746f49643a2060448201527f6d75737420686176652070617573657220726f6c6520746f20756e70617573656064820152608401610856565b610b4361194f565b565b61098c83838360405180602001604052806000815250611413565b610b6933610996565b610bce5760405162461bcd60e51b815260206004820152603060248201527f4552433732314275726e61626c653a2063616c6c6572206973206e6f74206f7760448201526f1b995c881b9bdc88185c1c1c9bdd995960821b6064820152608401610856565b610bd7816119e2565b50565b6000610be5600a5490565b8210610c485760405162461bcd60e51b815260206004820152602c60248201527f455243373231456e756d657261626c653a20676c6f62616c20696e646578206f60448201526b7574206f6620626f756e647360a01b6064820152608401610856565b600a8281548110610c5b57610c5b6130eb565b90600052602060002001549050919050565b600080600080610c7c87611a89565b60ff808a16600090815260136020908152604080832093861683529290522080549294509092509061ffff80821691610cbe9162010000909104166001612f17565b61ffff1610610d0f5760405162461bcd60e51b815260206004820152601b60248201527f54686973206c6576656c2063617264206973206d696e74206f757400000000006044820152606401610856565b63ffffffff871660009081526012602052604090205415610d6b5760405162461bcd60e51b81526020600482015260166024820152752a3434b99039b2b934b0b627379034b9903ab9b2b21760511b6044820152606401610856565b80546001908290600290610d8a90849062010000900461ffff16612f17565b92506101000a81548161ffff021916908361ffff1602179055506000610db08789611c8b565b905083601060008a63ffffffff16815260200190815260200160002060006101000a81548160ff021916908360ff1602179055508160000160049054906101000a900461ffff16601160008a63ffffffff16815260200190815260200160002060006101000a81548161ffff021916908361ffff16021790555088600f60008a63ffffffff16815260200190815260200160002060006101000a81548160ff021916908360ff16021790555080601260008a63ffffffff16815260200190815260200160002081905550866001600160a01b0316336001600160a01b03167fedfe0615279efed66dde975fb01ab81427599c8c70f937ee384d78bfaf39c5648b8b8842604051610ee8949392919060ff948516815263ffffffff93909316602084015292166040820152606081019190915260800190565b60405180910390a350549197600160201b90920461ffff16965090945050505050565b6000818152600460205260408120546001600160a01b0316806107495760405162461bcd60e51b815260206004820152602960248201527f4552433732313a206f776e657220717565727920666f72206e6f6e657869737460448201526832b73a103a37b5b2b760b91b6064820152608401610856565b60006001600160a01b038216610fed5760405162461bcd60e51b815260206004820152602a60248201527f4552433732313a2062616c616e636520717565727920666f7220746865207a65604482015269726f206164647265737360b01b6064820152608401610856565b506001600160a01b031660009081526005602052604090205490565b6110337f65d7a28e3265b37a6474929f336521b332c1681b933f6cb9f3376673440d862a33611165565b6110a55760405162461bcd60e51b815260206004820152603e60248201527f4552433732315072657365744d696e7465725061757365724175746f49643a2060448201527f6d75737420686176652070617573657220726f6c6520746f20706175736500006064820152608401610856565b610b43611d54565b60008281526001602052604081206110c59083611dcf565b9392505050565b6000818152600f602090815260408083205460ff908116808552601384528285208686526010808652848720549093168087529085528386208451606081018652905461ffff8082168352620100008204811683890152600160201b909104169481019485528787529290945291518493849384939290919061114e89610f0b565b60ff9384169a929093169850965090945092505050565b6000918252602082815260408084206001600160a01b0393909316845291905290205460ff1690565b600060058360ff16106111e35760405162461bcd60e51b815260206004820152601b60248201527f4c6576656c2065786365656420746865206c696d6974206f66203500000000006044820152606401610856565b60ff8086166000908152601360209081526040808320938716835292905220805461ffff8082169161121e9162010000909104166001612f17565b61ffff161015611331578054600190829060029061124790849062010000900461ffff16612f17565b92506101000a81548161ffff021916908361ffff160217905550600061126d8487611c8b565b63ffffffff87166000818152601060209081526040808320805460ff1990811660ff8d81169182179093558954601186528487208054600160201b90920461ffff1661ffff19909216919091179055600f85528386208054909216928f169283179091556012845293829020869055815190815291820193909352918201524260608201529091506001600160a01b0385169033907fedfe0615279efed66dde975fb01ab81427599c8c70f937ee384d78bfaf39c5649060800160405180910390a3505b60019150505b949350505050565b60606003805461075e9061301f565b6001600160a01b0382163314156113a75760405162461bcd60e51b815260206004820152601960248201527f4552433732313a20617070726f766520746f2063616c6c6572000000000000006044820152606401610856565b3360008181526007602090815260408083206001600160a01b03871680855290835292819020805460ff191686151590811790915590519081529192917f17307eab39ab6107e8899845ad3d59bd9653f200f220920489ca2b5937696c31910160405180910390a35050565b61141d33836115fc565b6114395760405162461bcd60e51b815260040161085690612ec6565b61144584848484611ddb565b50505050565b6000818152600460205260409020546060906001600160a01b03166114ca5760405162461bcd60e51b815260206004820152602f60248201527f4552433732314d657461646174613a2055524920717565727920666f72206e6f60448201526e3732bc34b9ba32b73a103a37b5b2b760891b6064820152608401610856565b60006114d4611e0e565b905060008151116114f457604051806020016040528060008152506110c5565b806114fe84611e1d565b60405160200161150f929190612d80565b6040516020818303038152906040529392505050565b600081815260016020526040812061074990611f1b565b610a858282611f25565b6115508282611f4b565b5050565b60006110c5836001600160a01b038416611fcf565b60006001600160e01b0319821663780e9d6360e01b148061074957506107498261201e565b600081815260066020526040902080546001600160a01b0319166001600160a01b03841690811790915581906115c382610f0b565b6001600160a01b03167f8c5be1e5ebec7d5bd14f71427d1e84f3dd0314c0f7b2291e5b200ac8c7c3b92560405160405180910390a45050565b6000818152600460205260408120546001600160a01b03166116755760405162461bcd60e51b815260206004820152602c60248201527f4552433732313a206f70657261746f7220717565727920666f72206e6f6e657860448201526b34b9ba32b73a103a37b5b2b760a11b6064820152608401610856565b600061168083610f0b565b9050806001600160a01b0316846001600160a01b031614806116bb5750836001600160a01b03166116b0846107e1565b6001600160a01b0316145b8061133757506001600160a01b0380821660009081526007602090815260408083209388168352929052205460ff16611337565b826001600160a01b031661170282610f0b565b6001600160a01b03161461176a5760405162461bcd60e51b815260206004820152602960248201527f4552433732313a207472616e73666572206f6620746f6b656e2074686174206960448201526839903737ba1037bbb760b91b6064820152608401610856565b6001600160a01b0382166117cc5760405162461bcd60e51b8152602060048201526024808201527f4552433732313a207472616e7366657220746f20746865207a65726f206164646044820152637265737360e01b6064820152608401610856565b6117d783838361205e565b6117e260008261158e565b6001600160a01b038316600090815260056020526040812080546001929061180b908490612fa4565b90915550506001600160a01b0382166000908152600560205260408120805460019290611839908490612f34565b909155505060008181526004602052604080822080546001600160a01b0319166001600160a01b0386811691821790925591518493918716917fddf252ad1be2c89b69c2b068fc378daa952ba7f163c4a11628f55a4df523b3ef91a4505050565b6000828152602081905260409020600101546118b68133612069565b61098c8383611f4b565b6001600160a01b03811633146119305760405162461bcd60e51b815260206004820152602f60248201527f416363657373436f6e74726f6c3a2063616e206f6e6c792072656e6f756e636560448201526e103937b632b9903337b91039b2b63360891b6064820152608401610856565b61155082826120cd565b60006110c5836001600160a01b038416612132565b600c5460ff166119985760405162461bcd60e51b815260206004820152601460248201527314185d5cd8589b194e881b9bdd081c185d5cd95960621b6044820152606401610856565b600c805460ff191690557f5db9ee0a495bf2e6ff9c91a7834c1ba4fdd244a5e8aa4e537bd38aeae4b073aa335b6040516001600160a01b03909116815260200160405180910390a1565b60006119ed82610f0b565b90506119fb8160008461205e565b611a0660008361158e565b6001600160a01b0381166000908152600560205260408120805460019290611a2f908490612fa4565b909155505060008281526004602052604080822080546001600160a01b0319169055518391906001600160a01b038416907fddf252ad1be2c89b69c2b068fc378daa952ba7f163c4a11628f55a4df523b3ef908390a45050565b6000806000611a96612225565b60ff16905060006101cc821115611aaf57506000611af3565b6101048261ffff161115611ac557506001611af3565b606e8261ffff161115611ada57506002611af3565b600a8261ffff161115611aef57506003611af3565b5060045b805b60008160000b12611ba05760ff80871660009081526013602090815260408083209385168352928152908290208251606081018452905461ffff8082168084526201000083048216948401859052600160201b909204169382019390935283929091611b62906001612f17565b61ffff1611611b8b578181602001516001611b7d9190612f17565b965096505050505050915091565b50508080611b9890612fe7565b915050611af5565b506000611bae826001612f4c565b90505b60048160000b13611c4e5760ff80871660009081526013602090815260408083209385168352928152908290208251606081018452905461ffff8082168084526201000083048216948401859052600160201b909204169382019390935283929091611c1e906001612f17565b61ffff1611611c39578181602001516001611b7d9190612f17565b50508080611c469061305a565b915050611bb1565b5060405162461bcd60e51b8152602060048201526011602482015270139bc8185d985a5b18589b194818d85c99607a1b6044820152606401610856565b6000611cb77f9f2df0fed2c77648de5860a4cc508cd0818c85b8b8a1ab4ceeef8d981c8956a633611165565b611d295760405162461bcd60e51b815260206004820152603d60248201527f4552433732315072657365744d696e7465725061757365724175746f49643a2060448201527f6d7573742068617665206d696e74657220726f6c6520746f206d696e740000006064820152608401610856565b6000611d34600d5490565b9050611d46848463ffffffff1661226e565b6110c5600d80546001019055565b600c5460ff1615611d9a5760405162461bcd60e51b815260206004820152601060248201526f14185d5cd8589b194e881c185d5cd95960821b6044820152606401610856565b600c805460ff191660011790557f62e78cea01bee320cd4e420270b5ea74000d11b0c9f74754ebdbfc544b05a2586119c53390565b60006110c583836123bc565b611de68484846116ef565b611df2848484846123e6565b6114455760405162461bcd60e51b815260040161085690612e74565b6060600e805461075e9061301f565b606081611e415750506040805180820190915260018152600360fc1b602082015290565b8160005b8115611e6b5780611e558161307a565b9150611e649050600a83612f71565b9150611e45565b60008167ffffffffffffffff811115611e8657611e86613101565b6040519080825280601f01601f191660200182016040528015611eb0576020820181803683370190505b5090505b841561133757611ec5600183612fa4565b9150611ed2600a86613095565b611edd906030612f34565b60f81b818381518110611ef257611ef26130eb565b60200101906001600160f81b031916908160001a905350611f14600a86612f71565b9450611eb4565b6000610749825490565b600082815260208190526040902060010154611f418133612069565b61098c83836120cd565b611f558282611165565b611550576000828152602081815260408083206001600160a01b03851684529091529020805460ff19166001179055611f8b3390565b6001600160a01b0316816001600160a01b0316837f2f8788117e7eff1d82e926ec794901d17c78024a50270940304540a733656f0d60405160405180910390a45050565b600081815260018301602052604081205461201657508154600181810184556000848152602080822090930184905584548482528286019093526040902091909155610749565b506000610749565b60006001600160e01b031982166380ac58cd60e01b148061204f57506001600160e01b03198216635b5e139f60e01b145b806107495750610749826124f0565b61098c838383612515565b6120738282611165565b6115505761208b816001600160a01b03166014612587565b612096836020612587565b6040516020016120a7929190612daf565b60408051601f198184030181529082905262461bcd60e51b825261085691600401612e61565b6120d78282611165565b15611550576000828152602081815260408083206001600160a01b0385168085529252808320805460ff1916905551339285917ff6391f5c32d9c69d2a47ea670b442974b53935d1edc7fd64eb21e047a839171b9190a45050565b6000818152600183016020526040812054801561221b576000612156600183612fa4565b855490915060009061216a90600190612fa4565b90508181146121cf57600086600001828154811061218a5761218a6130eb565b90600052602060002001549050808760000184815481106121ad576121ad6130eb565b6000918252602080832090910192909255918252600188019052604090208390555b85548690806121e0576121e06130d5565b600190038181906000526020600020016000905590558560010160008681526020019081526020016000206000905560019350505050610749565b6000915050610749565b60006103e84244604051602001612246929190918252602082015260400190565b6040516020818303038152906040528051906020012060001c6122699190613095565b905090565b6001600160a01b0382166122c45760405162461bcd60e51b815260206004820181905260248201527f4552433732313a206d696e7420746f20746865207a65726f20616464726573736044820152606401610856565b6000818152600460205260409020546001600160a01b0316156123295760405162461bcd60e51b815260206004820152601c60248201527f4552433732313a20746f6b656e20616c7265616479206d696e746564000000006044820152606401610856565b6123356000838361205e565b6001600160a01b038216600090815260056020526040812080546001929061235e908490612f34565b909155505060008181526004602052604080822080546001600160a01b0319166001600160a01b03861690811790915590518392907fddf252ad1be2c89b69c2b068fc378daa952ba7f163c4a11628f55a4df523b3ef908290a45050565b60008260000182815481106123d3576123d36130eb565b9060005260206000200154905092915050565b60006001600160a01b0384163b156124e857604051630a85bd0160e11b81526001600160a01b0385169063150b7a029061242a903390899088908890600401612e24565b602060405180830381600087803b15801561244457600080fd5b505af1925050508015612474575060408051601f3d908101601f1916820190925261247191810190612c28565b60015b6124ce573d8080156124a2576040519150601f19603f3d011682016040523d82523d6000602084013e6124a7565b606091505b5080516124c65760405162461bcd60e51b815260040161085690612e74565b805181602001fd5b6001600160e01b031916630a85bd0160e11b149050611337565b506001611337565b60006001600160e01b03198216635a05180f60e01b1480610749575061074982612723565b612520838383612758565b600c5460ff161561098c5760405162461bcd60e51b815260206004820152602b60248201527f4552433732315061757361626c653a20746f6b656e207472616e73666572207760448201526a1a1a5b19481c185d5cd95960aa1b6064820152608401610856565b60606000612596836002612f85565b6125a1906002612f34565b67ffffffffffffffff8111156125b9576125b9613101565b6040519080825280601f01601f1916602001820160405280156125e3576020820181803683370190505b509050600360fc1b816000815181106125fe576125fe6130eb565b60200101906001600160f81b031916908160001a905350600f60fb1b8160018151811061262d5761262d6130eb565b60200101906001600160f81b031916908160001a9053506000612651846002612f85565b61265c906001612f34565b90505b60018111156126d4576f181899199a1a9b1b9c1cb0b131b232b360811b85600f1660108110612690576126906130eb565b1a60f81b8282815181106126a6576126a66130eb565b60200101906001600160f81b031916908160001a90535060049490941c936126cd81613008565b905061265f565b5083156110c55760405162461bcd60e51b815260206004820181905260248201527f537472696e67733a20686578206c656e67746820696e73756666696369656e746044820152606401610856565b60006001600160e01b03198216637965db0b60e01b148061074957506301ffc9a760e01b6001600160e01b0319831614610749565b6001600160a01b0383166127b3576127ae81600a80546000838152600b60205260408120829055600182018355919091527fc65a7bb8d6351c1cf70c95a316cc6a92839c986682d98bc35f958f4883f9d2a80155565b6127d6565b816001600160a01b0316836001600160a01b0316146127d6576127d68382612810565b6001600160a01b0382166127ed5761098c816128ad565b826001600160a01b0316826001600160a01b03161461098c5761098c828261295c565b6000600161281d84610f82565b6128279190612fa4565b60008381526009602052604090205490915080821461287a576001600160a01b03841660009081526008602090815260408083208584528252808320548484528184208190558352600990915290208190555b5060009182526009602090815260408084208490556001600160a01b039094168352600881528383209183525290812055565b600a546000906128bf90600190612fa4565b6000838152600b6020526040812054600a80549394509092849081106128e7576128e76130eb565b9060005260206000200154905080600a8381548110612908576129086130eb565b6000918252602080832090910192909255828152600b9091526040808220849055858252812055600a805480612940576129406130d5565b6001900381819060005260206000200160009055905550505050565b600061296783610f82565b6001600160a01b039093166000908152600860209081526040808320868452825280832085905593825260099052919091209190915550565b80356001600160a01b03811681146129b757600080fd5b919050565b803563ffffffff811681146129b757600080fd5b803560ff811681146129b757600080fd5b6000602082840312156129f357600080fd5b6110c5826129a0565b60008060408385031215612a0f57600080fd5b612a18836129a0565b9150612a26602084016129a0565b90509250929050565b600080600060608486031215612a4457600080fd5b612a4d846129a0565b9250612a5b602085016129a0565b9150604084013590509250925092565b60008060008060808587031215612a8157600080fd5b612a8a856129a0565b9350612a98602086016129a0565b925060408501359150606085013567ffffffffffffffff80821115612abc57600080fd5b818701915087601f830112612ad057600080fd5b813581811115612ae257612ae2613101565b604051601f8201601f19908116603f01168101908382118183101715612b0a57612b0a613101565b816040528281528a6020848701011115612b2357600080fd5b82602086016020830137600060208483010152809550505050505092959194509250565b60008060408385031215612b5a57600080fd5b612b63836129a0565b915060208301358015158114612b7857600080fd5b809150509250929050565b60008060408385031215612b9657600080fd5b612b9f836129a0565b946020939093013593505050565b600060208284031215612bbf57600080fd5b5035919050565b60008060408385031215612bd957600080fd5b82359150612a26602084016129a0565b60008060408385031215612bfc57600080fd5b50508035926020909101359150565b600060208284031215612c1d57600080fd5b81356110c581613117565b600060208284031215612c3a57600080fd5b81516110c581613117565b600080600060608486031215612c5a57600080fd5b612c63846129d0565b9250612c71602085016129bc565b9150612c7f604085016129a0565b90509250925092565b60008060008060808587031215612c9e57600080fd5b612ca7856129d0565b9350612cb5602086016129bc565b9250612cc3604086016129d0565b9150612cd1606086016129a0565b905092959194509250565b60008060408385031215612cef57600080fd5b612cf8836129d0565b9150612a26602084016129d0565b600080600060608486031215612d1b57600080fd5b612d24846129d0565b9250612d32602085016129d0565b9150604084013561ffff81168114612d4957600080fd5b809150509250925092565b60008151808452612d6c816020860160208601612fbb565b601f01601f19169290920160200192915050565b60008351612d92818460208801612fbb565b835190830190612da6818360208801612fbb565b01949350505050565b7f416363657373436f6e74726f6c3a206163636f756e7420000000000000000000815260008351612de7816017850160208801612fbb565b7001034b99036b4b9b9b4b733903937b6329607d1b6017918401918201528351612e18816028840160208801612fbb565b01602801949350505050565b6001600160a01b0385811682528416602082015260408101839052608060608201819052600090612e5790830184612d54565b9695505050505050565b6020815260006110c56020830184612d54565b60208082526032908201527f4552433732313a207472616e7366657220746f206e6f6e20455243373231526560408201527131b2b4bb32b91034b6b83632b6b2b73a32b960711b606082015260800190565b60208082526031908201527f4552433732313a207472616e736665722063616c6c6572206973206e6f74206f6040820152701ddb995c881b9bdc88185c1c1c9bdd9959607a1b606082015260800190565b600061ffff808316818516808303821115612da657612da66130a9565b60008219821115612f4757612f476130a9565b500190565b600060ff821660ff84168060ff03821115612f6957612f696130a9565b019392505050565b600082612f8057612f806130bf565b500490565b6000816000190483118215151615612f9f57612f9f6130a9565b500290565b600082821015612fb657612fb66130a9565b500390565b60005b83811015612fd6578181015183820152602001612fbe565b838111156114455750506000910152565b600081810b607f19811415612ffe57612ffe6130a9565b6000190192915050565b600081613017576130176130a9565b506000190190565b600181811c9082168061303357607f821691505b6020821081141561305457634e487b7160e01b600052602260045260246000fd5b50919050565b60008160000b607f811415613071576130716130a9565b60010192915050565b600060001982141561308e5761308e6130a9565b5060010190565b6000826130a4576130a46130bf565b500690565b634e487b7160e01b600052601160045260246000fd5b634e487b7160e01b600052601260045260246000fd5b634e487b7160e01b600052603160045260246000fd5b634e487b7160e01b600052603260045260246000fd5b634e487b7160e01b600052604160045260246000fd5b6001600160e01b031981168114610bd757600080fdfea2646970667358221220fb15e36e2a3718cccd05371b0222807bac48757e40af4e86310ec57574ece2d264736f6c634300080600339f2df0fed2c77648de5860a4cc508cd0818c85b8b8a1ab4ceeef8d981c8956a6",
  "immutableReferences": {},
  "source": "// SPDX-License-Identifier: MIT\n\npragma solidity ^0.8.0;\n\nimport \"../ERC721.sol\";\nimport \"../extensions/ERC721Enumerable.sol\";\nimport \"../extensions/ERC721Burnable.sol\";\nimport \"../extensions/ERC721Pausable.sol\";\nimport \"../../../access/AccessControlEnumerable.sol\";\nimport \"../../../utils/Context.sol\";\nimport \"../../../utils/Counters.sol\";\n\n/**\n * @dev {ERC721} token, including:\n *\n *  - ability for holders to burn (destroy) their tokens\n *  - a minter role that allows for token minting (creation)\n *  - a pauser role that allows to stop all token transfers\n *  - token ID and URI autogeneration\n *\n * This contract uses {AccessControl} to lock permissioned functions using the\n * different roles - head to its documentation for details.\n *\n * The account that deploys the contract will be granted the minter and pauser\n * roles, as well as the default admin role, which will let it grant both minter\n * and pauser roles to other accounts.\n */\ncontract ERC721Card is\n    Context,\n    AccessControlEnumerable,\n    ERC721Enumerable,\n    ERC721Burnable,\n    ERC721Pausable\n{\n    using Counters for Counters.Counter;\n\n    bytes32 public constant MINTER_ROLE = keccak256(\"MINTER_ROLE\");\n    bytes32 public constant PAUSER_ROLE = keccak256(\"PAUSER_ROLE\");\n\n    Counters.Counter private _tokenIdTracker;\n\n    string private _baseTokenURI;\n\n    struct CardInfo {\n        uint16 total;\n        uint16 current;\n        uint16 power;\n    }\n    mapping(uint256 => uint8) nftCategory;\n    mapping(uint256 => uint8) nftLevel;\n    mapping(uint256 => uint16) nftPower;\n    mapping(uint256 => uint256) nftIndex;\n    // CardInfo struct as [category][level][cardInfo]\n    mapping(uint8 => mapping(uint8 => CardInfo)) cardInfo;\n\n    event MintWithLevel(\n        address indexed from,\n        address indexed to,\n        uint16 category,\n        uint32 serialNo,\n        uint16 level,\n        uint256 timestamp\n    );\n\n    /**\n     * @dev Grants `DEFAULT_ADMIN_ROLE`, `MINTER_ROLE` and `PAUSER_ROLE` to the\n     * account that deploys the contract.\n     *\n     * Token URIs will be autogenerated based on `baseURI` and their token IDs.\n     * See {ERC721-tokenURI}.\n     */\n    constructor(\n        address adminAddress,\n        string memory name,\n        string memory symbol,\n        string memory baseTokenURI\n    ) ERC721(name, symbol) {\n        _baseTokenURI = baseTokenURI;\n\n        _setupRole(DEFAULT_ADMIN_ROLE, adminAddress);\n        _setupRole(PAUSER_ROLE, adminAddress);\n        _setupRole(MINTER_ROLE, adminAddress);\n        _setupRole(MINTER_ROLE, _msgSender());\n        setCardInfo();\n    }\n\n    function setCardInfo() internal {\n        cardInfo[1][4] = CardInfo({total: 10, power: 450, current: 0});\n        cardInfo[1][3] = CardInfo({total: 100, power: 200, current: 0});\n        cardInfo[1][2] = CardInfo({total: 150, power: 150, current: 0});\n        cardInfo[1][1] = CardInfo({total: 200, power: 120, current: 0});\n        cardInfo[1][0] = CardInfo({total: 540, power: 100, current: 0});\n\n        cardInfo[2][4] = CardInfo({total: 10, power: 450, current: 0});\n        cardInfo[2][3] = CardInfo({total: 100, power: 200, current: 0});\n        cardInfo[2][2] = CardInfo({total: 150, power: 150, current: 0});\n        cardInfo[2][1] = CardInfo({total: 200, power: 120, current: 0});\n        cardInfo[2][0] = CardInfo({total: 540, power: 100, current: 0});\n\n        cardInfo[3][4] = CardInfo({total: 10, power: 450, current: 0});\n        cardInfo[3][3] = CardInfo({total: 0, power: 200, current: 0});\n        cardInfo[3][2] = CardInfo({total: 0, power: 150, current: 0});\n        cardInfo[3][1] = CardInfo({total: 0, power: 120, current: 0});\n        cardInfo[3][0] = CardInfo({total: 990, power: 100, current: 0});\n    }\n\n    function setCardTotal(\n        uint8 _category,\n        uint8 _level,\n        uint16 _total\n    ) public returns (bool) {\n        CardInfo storage card = cardInfo[_category][_level];\n        card.total = _total;\n        return true;\n    }\n\n    function setCardPower(\n        uint8 _category,\n        uint8 _level,\n        uint16 _power\n    ) public returns (bool) {\n        CardInfo storage card = cardInfo[_category][_level];\n        card.power = _power;\n        return true;\n    }\n\n    function _baseURI() internal view virtual override returns (string memory) {\n        return _baseTokenURI;\n    }\n\n    function levelOf(uint256 id) external view returns (uint8 level) {\n        return nftLevel[id];\n    }\n\n    function powerOf(uint256 id) external view returns (uint16 power) {\n        return nftPower[id];\n    }\n\n    function categoryOf(uint256 id) external view returns (uint8 category) {\n        return nftCategory[id];\n    }\n\n    function nftIndexOf(uint256 id) external view returns (uint256 index) {\n        return nftIndex[id];\n    }\n\n    function cardCategory(uint8 _category, uint8 _level)\n        external\n        view\n        returns (\n            uint16 total,\n            uint16 current,\n            uint16 power\n        )\n    {\n        CardInfo memory card = cardInfo[_category][_level];\n        return (card.total, card.current, card.power);\n    }\n\n    function getCard(uint256 id)\n        external\n        view\n        returns (\n            uint16 category,\n            uint16 level,\n            uint16 power,\n            address owner\n        )\n    {\n        CardInfo memory card = cardInfo[nftCategory[id]][nftLevel[id]];\n        return (nftCategory[id], nftLevel[id], card.power, ownerOf(id));\n    }\n\n    // Get a random 100\n    function random() private view returns (uint8) {\n        return\n            uint8(\n                uint256(\n                    keccak256(\n                        abi.encodePacked(block.timestamp, block.difficulty)\n                    )\n                ) % 1000\n            );\n    }\n\n    // Get a SerialNo\n    function getSerialNo(uint8 category, uint16 current)\n        private\n        view\n        returns (uint32)\n    {\n        return\n            uint32(\n                uint256(keccak256(abi.encodePacked(category, current))) %\n                    1000000000\n            );\n    }\n\n    function getAvailableCard(uint8 _category)\n        private\n        view\n        returns (uint8, uint16)\n    {\n        uint16 rand = random();\n        uint8 level = 0;\n        if (rand > (200 + 150 + 100 + 10)) {\n            level = 0;\n        } else if (rand > (150 + 100 + 10)) {\n            level = 1;\n        } else if (rand > (100 + 10)) {\n            level = 2;\n        } else if (rand > 10) {\n            level = 3;\n        } else {\n            level = 4;\n        }\n        // look up downward\n        for (int8 i = int8(level); i >= 0; i--) {\n            uint8 l = uint8(i);\n            CardInfo memory card = cardInfo[_category][l];\n            if (card.current + 1 <= card.total) {\n                return (l, card.current + 1);\n            }\n        }\n        // look up upward\n        for (int8 i = int8(level + 1); i <= 4; i++) {\n            uint8 l = uint8(i);\n            CardInfo memory card = cardInfo[_category][l];\n            if (card.current + 1 <= card.total) {\n                return (l, card.current + 1);\n            }\n        }\n        revert(\"No available card\");\n    }\n\n    function mintCard(\n        uint8 category,\n        uint32 serialNo,\n        address to\n    ) public returns (uint8, uint256) {\n        (uint8 level, uint16 current) = getAvailableCard(category);\n        CardInfo storage card = cardInfo[category][level];\n        require(card.current + 1 < card.total, \"This level card is mint out\");\n        require(nftIndex[serialNo] == 0, \"This serialNo is used.\");\n        card.current += 1;\n        uint256 idx = mint(to, serialNo);\n        nftLevel[serialNo] = level;\n        nftPower[serialNo] = card.power;\n        nftCategory[serialNo] = category;\n        nftIndex[serialNo] = idx;\n        emit MintWithLevel(\n            msg.sender,\n            to,\n            category,\n            serialNo,\n            level,\n            block.timestamp\n        );\n\n        return (level, card.power);\n    }\n\n    function mintWithLevel(\n        uint8 _category,\n        uint32 _serialNo,\n        uint8 _level,\n        address to\n    ) public returns (bool) {\n        require(_level < 5, \"Level exceed the limit of 5\");\n        CardInfo storage level = cardInfo[_category][_level];\n        if (level.current + 1 < level.total) {\n            level.current += 1;\n            uint256 idx = mint(to, _serialNo);\n            nftLevel[_serialNo] = _level;\n            nftPower[_serialNo] = level.power;\n            nftCategory[_serialNo] = _category;\n            nftIndex[_serialNo] = idx;\n            emit MintWithLevel(\n                msg.sender,\n                to,\n                _category,\n                _serialNo,\n                _level,\n                block.timestamp\n            );\n        }\n\n        return true;\n    }\n\n    /**\n     * @dev Creates a new token for `to`. Its token ID will be automatically\n     * assigned (and available on the emitted {IERC721-Transfer} event), and the token\n     * URI autogenerated based on the base URI passed at construction.\n     *\n     * See {ERC721-_mint}.\n     *\n     * Requirements:\n     *\n     * - the caller must have the `MINTER_ROLE`.\n     */\n    function mint(address to, uint32 serialNo) private returns (uint256) {\n        require(\n            hasRole(MINTER_ROLE, _msgSender()),\n            \"ERC721PresetMinterPauserAutoId: must have minter role to mint\"\n        );\n\n        // We cannot just use balanceOf to create the new tokenId because tokens\n        // can be burned (destroyed), so we need a separate counter.\n        uint256 current = _tokenIdTracker.current();\n        _mint(to, uint256(serialNo));\n        _tokenIdTracker.increment();\n        return current;\n    }\n\n    /**\n     * @dev Pauses all token transfers.\n     *\n     * See {ERC721Pausable} and {Pausable-_pause}.\n     *\n     * Requirements:\n     *\n     * - the caller must have the `PAUSER_ROLE`.\n     */\n    function pause() public virtual {\n        require(\n            hasRole(PAUSER_ROLE, _msgSender()),\n            \"ERC721PresetMinterPauserAutoId: must have pauser role to pause\"\n        );\n        _pause();\n    }\n\n    /**\n     * @dev Unpauses all token transfers.\n     *\n     * See {ERC721Pausable} and {Pausable-_unpause}.\n     *\n     * Requirements:\n     *\n     * - the caller must have the `PAUSER_ROLE`.\n     */\n    function unpause() public virtual {\n        require(\n            hasRole(PAUSER_ROLE, _msgSender()),\n            \"ERC721PresetMinterPauserAutoId: must have pauser role to unpause\"\n        );\n        _unpause();\n    }\n\n    function _beforeTokenTransfer(\n        address from,\n        address to,\n        uint256 tokenId\n    ) internal virtual override(ERC721, ERC721Enumerable, ERC721Pausable) {\n        super._beforeTokenTransfer(from, to, tokenId);\n    }\n\n    /**\n     * @dev See {IERC165-supportsInterface}.\n     */\n    function supportsInterface(bytes4 interfaceId)\n        public\n        view\n        virtual\n        override(AccessControlEnumerable, ERC721, ERC721Enumerable)\n        returns (bool)\n    {\n        return super.supportsInterface(interfaceId);\n    }\n}\n",
  "sourcePath": "/Users/jilong/solidity/pantheonNFT/contracts/token/ERC721/presets/ERC721Card.sol",
  "compiler": {
    "name": "solc",
    "version": "0.8.6+commit.11564f7e.Emscripten.clang"
  },
  "schemaVersion": "3.4.3",
  "updatedAt": "2022-05-16T09:14:21.304Z",
  "networkType": "ethereum",
  "devdoc": {
    "details": "{ERC721} token, including:  - ability for holders to burn (destroy) their tokens  - a minter role that allows for token minting (creation)  - a pauser role that allows to stop all token transfers  - token ID and URI autogeneration This contract uses {AccessControl} to lock permissioned functions using the different roles - head to its documentation for details. The account that deploys the contract will be granted the minter and pauser roles, as well as the default admin role, which will let it grant both minter and pauser roles to other accounts.",
    "kind": "dev",
    "methods": {
      "approve(address,uint256)": {
        "details": "See {IERC721-approve}."
      },
      "balanceOf(address)": {
        "details": "See {IERC721-balanceOf}."
      },
      "burn(uint256)": {
        "details": "Burns `tokenId`. See {ERC721-_burn}. Requirements: - The caller must own `tokenId` or be an approved operator."
      },
      "constructor": {
        "details": "Grants `DEFAULT_ADMIN_ROLE`, `MINTER_ROLE` and `PAUSER_ROLE` to the account that deploys the contract. Token URIs will be autogenerated based on `baseURI` and their token IDs. See {ERC721-tokenURI}."
      },
      "getApproved(uint256)": {
        "details": "See {IERC721-getApproved}."
      },
      "getRoleAdmin(bytes32)": {
        "details": "Returns the admin role that controls `role`. See {grantRole} and {revokeRole}. To change a role's admin, use {_setRoleAdmin}."
      },
      "getRoleMember(bytes32,uint256)": {
        "details": "Returns one of the accounts that have `role`. `index` must be a value between 0 and {getRoleMemberCount}, non-inclusive. Role bearers are not sorted in any particular way, and their ordering may change at any point. WARNING: When using {getRoleMember} and {getRoleMemberCount}, make sure you perform all queries on the same block. See the following https://forum.openzeppelin.com/t/iterating-over-elements-on-enumerableset-in-openzeppelin-contracts/2296[forum post] for more information."
      },
      "getRoleMemberCount(bytes32)": {
        "details": "Returns the number of accounts that have `role`. Can be used together with {getRoleMember} to enumerate all bearers of a role."
      },
      "grantRole(bytes32,address)": {
        "details": "Overload {grantRole} to track enumerable memberships"
      },
      "hasRole(bytes32,address)": {
        "details": "Returns `true` if `account` has been granted `role`."
      },
      "isApprovedForAll(address,address)": {
        "details": "See {IERC721-isApprovedForAll}."
      },
      "name()": {
        "details": "See {IERC721Metadata-name}."
      },
      "ownerOf(uint256)": {
        "details": "See {IERC721-ownerOf}."
      },
      "pause()": {
        "details": "Pauses all token transfers. See {ERC721Pausable} and {Pausable-_pause}. Requirements: - the caller must have the `PAUSER_ROLE`."
      },
      "paused()": {
        "details": "Returns true if the contract is paused, and false otherwise."
      },
      "renounceRole(bytes32,address)": {
        "details": "Overload {renounceRole} to track enumerable memberships"
      },
      "revokeRole(bytes32,address)": {
        "details": "Overload {revokeRole} to track enumerable memberships"
      },
      "safeTransferFrom(address,address,uint256)": {
        "details": "See {IERC721-safeTransferFrom}."
      },
      "safeTransferFrom(address,address,uint256,bytes)": {
        "details": "See {IERC721-safeTransferFrom}."
      },
      "setApprovalForAll(address,bool)": {
        "details": "See {IERC721-setApprovalForAll}."
      },
      "supportsInterface(bytes4)": {
        "details": "See {IERC165-supportsInterface}."
      },
      "symbol()": {
        "details": "See {IERC721Metadata-symbol}."
      },
      "tokenByIndex(uint256)": {
        "details": "See {IERC721Enumerable-tokenByIndex}."
      },
      "tokenOfOwnerByIndex(address,uint256)": {
        "details": "See {IERC721Enumerable-tokenOfOwnerByIndex}."
      },
      "tokenURI(uint256)": {
        "details": "See {IERC721Metadata-tokenURI}."
      },
      "totalSupply()": {
        "details": "See {IERC721Enumerable-totalSupply}."
      },
      "transferFrom(address,address,uint256)": {
        "details": "See {IERC721-transferFrom}."
      },
      "unpause()": {
        "details": "Unpauses all token transfers. See {ERC721Pausable} and {Pausable-_unpause}. Requirements: - the caller must have the `PAUSER_ROLE`."
      }
    },
    "version": 1
  },
  "userdoc": {
    "kind": "user",
    "methods": {},
    "version": 1
  }
}