{
  "contractName": "ERC721Card",
  "abi": [
    {
      "inputs": [
        {
          "internalType": "address",
          "name": "adminAddress",
          "type": "address"
        },
        {
          "internalType": "string",
          "name": "name",
          "type": "string"
        },
        {
          "internalType": "string",
          "name": "symbol",
          "type": "string"
        },
        {
          "internalType": "string",
          "name": "baseTokenURI",
          "type": "string"
        }
      ],
      "stateMutability": "nonpayable",
      "type": "constructor"
    },
    {
      "anonymous": false,
      "inputs": [
        {
          "indexed": true,
          "internalType": "address",
          "name": "owner",
          "type": "address"
        },
        {
          "indexed": true,
          "internalType": "address",
          "name": "approved",
          "type": "address"
        },
        {
          "indexed": true,
          "internalType": "uint256",
          "name": "tokenId",
          "type": "uint256"
        }
      ],
      "name": "Approval",
      "type": "event"
    },
    {
      "anonymous": false,
      "inputs": [
        {
          "indexed": true,
          "internalType": "address",
          "name": "owner",
          "type": "address"
        },
        {
          "indexed": true,
          "internalType": "address",
          "name": "operator",
          "type": "address"
        },
        {
          "indexed": false,
          "internalType": "bool",
          "name": "approved",
          "type": "bool"
        }
      ],
      "name": "ApprovalForAll",
      "type": "event"
    },
    {
      "anonymous": false,
      "inputs": [
        {
          "indexed": true,
          "internalType": "address",
          "name": "from",
          "type": "address"
        },
        {
          "indexed": true,
          "internalType": "address",
          "name": "to",
          "type": "address"
        },
        {
          "indexed": false,
          "internalType": "uint16",
          "name": "level",
          "type": "uint16"
        },
        {
          "indexed": false,
          "internalType": "uint256",
          "name": "id",
          "type": "uint256"
        },
        {
          "indexed": false,
          "internalType": "uint256",
          "name": "timestamp",
          "type": "uint256"
        }
      ],
      "name": "MintWithLevel",
      "type": "event"
    },
    {
      "anonymous": false,
      "inputs": [
        {
          "indexed": false,
          "internalType": "address",
          "name": "account",
          "type": "address"
        }
      ],
      "name": "Paused",
      "type": "event"
    },
    {
      "anonymous": false,
      "inputs": [
        {
          "indexed": true,
          "internalType": "bytes32",
          "name": "role",
          "type": "bytes32"
        },
        {
          "indexed": true,
          "internalType": "bytes32",
          "name": "previousAdminRole",
          "type": "bytes32"
        },
        {
          "indexed": true,
          "internalType": "bytes32",
          "name": "newAdminRole",
          "type": "bytes32"
        }
      ],
      "name": "RoleAdminChanged",
      "type": "event"
    },
    {
      "anonymous": false,
      "inputs": [
        {
          "indexed": true,
          "internalType": "bytes32",
          "name": "role",
          "type": "bytes32"
        },
        {
          "indexed": true,
          "internalType": "address",
          "name": "account",
          "type": "address"
        },
        {
          "indexed": true,
          "internalType": "address",
          "name": "sender",
          "type": "address"
        }
      ],
      "name": "RoleGranted",
      "type": "event"
    },
    {
      "anonymous": false,
      "inputs": [
        {
          "indexed": true,
          "internalType": "bytes32",
          "name": "role",
          "type": "bytes32"
        },
        {
          "indexed": true,
          "internalType": "address",
          "name": "account",
          "type": "address"
        },
        {
          "indexed": true,
          "internalType": "address",
          "name": "sender",
          "type": "address"
        }
      ],
      "name": "RoleRevoked",
      "type": "event"
    },
    {
      "anonymous": false,
      "inputs": [
        {
          "indexed": true,
          "internalType": "address",
          "name": "from",
          "type": "address"
        },
        {
          "indexed": true,
          "internalType": "address",
          "name": "to",
          "type": "address"
        },
        {
          "indexed": true,
          "internalType": "uint256",
          "name": "tokenId",
          "type": "uint256"
        }
      ],
      "name": "Transfer",
      "type": "event"
    },
    {
      "anonymous": false,
      "inputs": [
        {
          "indexed": false,
          "internalType": "address",
          "name": "account",
          "type": "address"
        }
      ],
      "name": "Unpaused",
      "type": "event"
    },
    {
      "inputs": [],
      "name": "DEFAULT_ADMIN_ROLE",
      "outputs": [
        {
          "internalType": "bytes32",
          "name": "",
          "type": "bytes32"
        }
      ],
      "stateMutability": "view",
      "type": "function"
    },
    {
      "inputs": [],
      "name": "MINTER_ROLE",
      "outputs": [
        {
          "internalType": "bytes32",
          "name": "",
          "type": "bytes32"
        }
      ],
      "stateMutability": "view",
      "type": "function"
    },
    {
      "inputs": [],
      "name": "PAUSER_ROLE",
      "outputs": [
        {
          "internalType": "bytes32",
          "name": "",
          "type": "bytes32"
        }
      ],
      "stateMutability": "view",
      "type": "function"
    },
    {
      "inputs": [
        {
          "internalType": "address",
          "name": "to",
          "type": "address"
        },
        {
          "internalType": "uint256",
          "name": "tokenId",
          "type": "uint256"
        }
      ],
      "name": "approve",
      "outputs": [],
      "stateMutability": "nonpayable",
      "type": "function"
    },
    {
      "inputs": [
        {
          "internalType": "address",
          "name": "owner",
          "type": "address"
        }
      ],
      "name": "balanceOf",
      "outputs": [
        {
          "internalType": "uint256",
          "name": "",
          "type": "uint256"
        }
      ],
      "stateMutability": "view",
      "type": "function"
    },
    {
      "inputs": [
        {
          "internalType": "uint256",
          "name": "tokenId",
          "type": "uint256"
        }
      ],
      "name": "burn",
      "outputs": [],
      "stateMutability": "nonpayable",
      "type": "function"
    },
    {
      "inputs": [
        {
          "internalType": "uint256",
          "name": "tokenId",
          "type": "uint256"
        }
      ],
      "name": "getApproved",
      "outputs": [
        {
          "internalType": "address",
          "name": "",
          "type": "address"
        }
      ],
      "stateMutability": "view",
      "type": "function"
    },
    {
      "inputs": [
        {
          "internalType": "bytes32",
          "name": "role",
          "type": "bytes32"
        }
      ],
      "name": "getRoleAdmin",
      "outputs": [
        {
          "internalType": "bytes32",
          "name": "",
          "type": "bytes32"
        }
      ],
      "stateMutability": "view",
      "type": "function"
    },
    {
      "inputs": [
        {
          "internalType": "bytes32",
          "name": "role",
          "type": "bytes32"
        },
        {
          "internalType": "uint256",
          "name": "index",
          "type": "uint256"
        }
      ],
      "name": "getRoleMember",
      "outputs": [
        {
          "internalType": "address",
          "name": "",
          "type": "address"
        }
      ],
      "stateMutability": "view",
      "type": "function"
    },
    {
      "inputs": [
        {
          "internalType": "bytes32",
          "name": "role",
          "type": "bytes32"
        }
      ],
      "name": "getRoleMemberCount",
      "outputs": [
        {
          "internalType": "uint256",
          "name": "",
          "type": "uint256"
        }
      ],
      "stateMutability": "view",
      "type": "function"
    },
    {
      "inputs": [
        {
          "internalType": "bytes32",
          "name": "role",
          "type": "bytes32"
        },
        {
          "internalType": "address",
          "name": "account",
          "type": "address"
        }
      ],
      "name": "grantRole",
      "outputs": [],
      "stateMutability": "nonpayable",
      "type": "function"
    },
    {
      "inputs": [
        {
          "internalType": "bytes32",
          "name": "role",
          "type": "bytes32"
        },
        {
          "internalType": "address",
          "name": "account",
          "type": "address"
        }
      ],
      "name": "hasRole",
      "outputs": [
        {
          "internalType": "bool",
          "name": "",
          "type": "bool"
        }
      ],
      "stateMutability": "view",
      "type": "function"
    },
    {
      "inputs": [
        {
          "internalType": "address",
          "name": "owner",
          "type": "address"
        },
        {
          "internalType": "address",
          "name": "operator",
          "type": "address"
        }
      ],
      "name": "isApprovedForAll",
      "outputs": [
        {
          "internalType": "bool",
          "name": "",
          "type": "bool"
        }
      ],
      "stateMutability": "view",
      "type": "function"
    },
    {
      "inputs": [],
      "name": "name",
      "outputs": [
        {
          "internalType": "string",
          "name": "",
          "type": "string"
        }
      ],
      "stateMutability": "view",
      "type": "function"
    },
    {
      "inputs": [
        {
          "internalType": "uint256",
          "name": "tokenId",
          "type": "uint256"
        }
      ],
      "name": "ownerOf",
      "outputs": [
        {
          "internalType": "address",
          "name": "",
          "type": "address"
        }
      ],
      "stateMutability": "view",
      "type": "function"
    },
    {
      "inputs": [],
      "name": "paused",
      "outputs": [
        {
          "internalType": "bool",
          "name": "",
          "type": "bool"
        }
      ],
      "stateMutability": "view",
      "type": "function"
    },
    {
      "inputs": [
        {
          "internalType": "bytes32",
          "name": "role",
          "type": "bytes32"
        },
        {
          "internalType": "address",
          "name": "account",
          "type": "address"
        }
      ],
      "name": "renounceRole",
      "outputs": [],
      "stateMutability": "nonpayable",
      "type": "function"
    },
    {
      "inputs": [
        {
          "internalType": "bytes32",
          "name": "role",
          "type": "bytes32"
        },
        {
          "internalType": "address",
          "name": "account",
          "type": "address"
        }
      ],
      "name": "revokeRole",
      "outputs": [],
      "stateMutability": "nonpayable",
      "type": "function"
    },
    {
      "inputs": [
        {
          "internalType": "address",
          "name": "from",
          "type": "address"
        },
        {
          "internalType": "address",
          "name": "to",
          "type": "address"
        },
        {
          "internalType": "uint256",
          "name": "tokenId",
          "type": "uint256"
        }
      ],
      "name": "safeTransferFrom",
      "outputs": [],
      "stateMutability": "nonpayable",
      "type": "function"
    },
    {
      "inputs": [
        {
          "internalType": "address",
          "name": "from",
          "type": "address"
        },
        {
          "internalType": "address",
          "name": "to",
          "type": "address"
        },
        {
          "internalType": "uint256",
          "name": "tokenId",
          "type": "uint256"
        },
        {
          "internalType": "bytes",
          "name": "_data",
          "type": "bytes"
        }
      ],
      "name": "safeTransferFrom",
      "outputs": [],
      "stateMutability": "nonpayable",
      "type": "function"
    },
    {
      "inputs": [
        {
          "internalType": "address",
          "name": "operator",
          "type": "address"
        },
        {
          "internalType": "bool",
          "name": "approved",
          "type": "bool"
        }
      ],
      "name": "setApprovalForAll",
      "outputs": [],
      "stateMutability": "nonpayable",
      "type": "function"
    },
    {
      "inputs": [],
      "name": "symbol",
      "outputs": [
        {
          "internalType": "string",
          "name": "",
          "type": "string"
        }
      ],
      "stateMutability": "view",
      "type": "function"
    },
    {
      "inputs": [
        {
          "internalType": "uint256",
          "name": "index",
          "type": "uint256"
        }
      ],
      "name": "tokenByIndex",
      "outputs": [
        {
          "internalType": "uint256",
          "name": "",
          "type": "uint256"
        }
      ],
      "stateMutability": "view",
      "type": "function"
    },
    {
      "inputs": [
        {
          "internalType": "address",
          "name": "owner",
          "type": "address"
        },
        {
          "internalType": "uint256",
          "name": "index",
          "type": "uint256"
        }
      ],
      "name": "tokenOfOwnerByIndex",
      "outputs": [
        {
          "internalType": "uint256",
          "name": "",
          "type": "uint256"
        }
      ],
      "stateMutability": "view",
      "type": "function"
    },
    {
      "inputs": [
        {
          "internalType": "uint256",
          "name": "tokenId",
          "type": "uint256"
        }
      ],
      "name": "tokenURI",
      "outputs": [
        {
          "internalType": "string",
          "name": "",
          "type": "string"
        }
      ],
      "stateMutability": "view",
      "type": "function"
    },
    {
      "inputs": [],
      "name": "totalSupply",
      "outputs": [
        {
          "internalType": "uint256",
          "name": "",
          "type": "uint256"
        }
      ],
      "stateMutability": "view",
      "type": "function"
    },
    {
      "inputs": [
        {
          "internalType": "address",
          "name": "from",
          "type": "address"
        },
        {
          "internalType": "address",
          "name": "to",
          "type": "address"
        },
        {
          "internalType": "uint256",
          "name": "tokenId",
          "type": "uint256"
        }
      ],
      "name": "transferFrom",
      "outputs": [],
      "stateMutability": "nonpayable",
      "type": "function"
    },
    {
      "inputs": [
        {
          "internalType": "uint256",
          "name": "id",
          "type": "uint256"
        }
      ],
      "name": "levelOf",
      "outputs": [
        {
          "internalType": "uint8",
          "name": "level",
          "type": "uint8"
        }
      ],
      "stateMutability": "view",
      "type": "function"
    },
    {
      "inputs": [
        {
          "internalType": "uint8",
          "name": "level",
          "type": "uint8"
        }
      ],
      "name": "levelView",
      "outputs": [
        {
          "internalType": "uint16",
          "name": "total",
          "type": "uint16"
        },
        {
          "internalType": "uint16",
          "name": "current",
          "type": "uint16"
        },
        {
          "internalType": "uint16",
          "name": "power",
          "type": "uint16"
        }
      ],
      "stateMutability": "view",
      "type": "function"
    },
    {
      "inputs": [
        {
          "internalType": "uint8",
          "name": "_level",
          "type": "uint8"
        },
        {
          "internalType": "address",
          "name": "to",
          "type": "address"
        }
      ],
      "name": "mintWithLevel",
      "outputs": [
        {
          "internalType": "bool",
          "name": "",
          "type": "bool"
        }
      ],
      "stateMutability": "nonpayable",
      "type": "function"
    },
    {
      "inputs": [],
      "name": "pause",
      "outputs": [],
      "stateMutability": "nonpayable",
      "type": "function"
    },
    {
      "inputs": [],
      "name": "unpause",
      "outputs": [],
      "stateMutability": "nonpayable",
      "type": "function"
    },
    {
      "inputs": [
        {
          "internalType": "bytes4",
          "name": "interfaceId",
          "type": "bytes4"
        }
      ],
      "name": "supportsInterface",
      "outputs": [
        {
          "internalType": "bool",
          "name": "",
          "type": "bool"
        }
      ],
      "stateMutability": "view",
      "type": "function"
    }
  ],
  "bytecode": "0x60806040523480156200001157600080fd5b5060405162002f9d38038062002f9d8339810160408190526200003491620005f3565b8251839083906200004d90600290602085019062000496565b5080516200006390600390602084019062000496565b5050600c805460ff191690555080516200008590600e90602084019062000496565b506200009360008562000331565b620000bf7f65d7a28e3265b37a6474929f336521b332c1681b933f6cb9f3376673440d862a8562000331565b620000da60008051602062002f7d8339815191528562000331565b620000f560008051602062002f7d8339815191523362000331565b62000327604080516060808201835261fa008252600060208084018281526064858701908152838052601080845295517f6e0956cda88cad152e89927e53611735b61a5c762d1428573c6931b0a5efcb0180549351925161ffff92831663ffffffff19958616176201000094841685021761ffff60201b1990811664010000000092851683021790925589518089018b5261465081528087018881526096828d0190815260018a528b895291517f8c6065603763fec3f5742441d3833f3f43b982453612d76adb39a885e3006b5f805492519351918716928916929092179286168702929092178416918516830291909117905589518089018b52610708815280870188815261012c828d0181815260028b528c8a5292517f853b2fefe141400fef543280f93d98bd49996069f632d0d20236afeeed8e46a2805493519451918816938a1693909317938716880293909317851692861684029290921790558a51808a018c526103848152808801898152610258828e0190815260038b528c8a5291517fb3edd0d534d647cffdae9f1294f11ad21f3fcf2814bea44c92bbb8d384a57d9e805492519351918816928a1692909217928716880292909217851691861684029190911790558a519889018b5288528786018781526105dc9a89019a8b5260049097529790945294517f1588ac671d87f82adc0e6ae8ab009c0de98f92a20243897597e566bc59b9c12680549551985191871695909316949094179685160295909517169116909102179055565b50505050620006f8565b6200034882826200037460201b62000fd11760201c565b60008281526001602090815260409091206200036f91839062000fdf62000384821b17901c565b505050565b620003808282620003a4565b5050565b60006200039b836001600160a01b03841662000444565b90505b92915050565b6000828152602081815260408083206001600160a01b038516845290915290205460ff1662000380576000828152602081815260408083206001600160a01b03851684529091529020805460ff19166001179055620004003390565b6001600160a01b0316816001600160a01b0316837f2f8788117e7eff1d82e926ec794901d17c78024a50270940304540a733656f0d60405160405180910390a45050565b60008181526001830160205260408120546200048d575081546001818101845560008481526020808220909301849055845484825282860190935260409020919091556200039e565b5060006200039e565b828054620004a490620006a5565b90600052602060002090601f016020900481019282620004c8576000855562000513565b82601f10620004e357805160ff191683800117855562000513565b8280016001018555821562000513579182015b8281111562000513578251825591602001919060010190620004f6565b506200052192915062000525565b5090565b5b8082111562000521576000815560010162000526565b600082601f8301126200054e57600080fd5b81516001600160401b03808211156200056b576200056b620006e2565b604051601f8301601f19908116603f01168101908282118183101715620005965762000596620006e2565b81604052838152602092508683858801011115620005b357600080fd5b600091505b83821015620005d75785820183015181830184015290820190620005b8565b83821115620005e95760008385830101525b9695505050505050565b600080600080608085870312156200060a57600080fd5b84516001600160a01b03811681146200062257600080fd5b60208601519094506001600160401b03808211156200064057600080fd5b6200064e888389016200053c565b945060408701519150808211156200066557600080fd5b62000673888389016200053c565b935060608701519150808211156200068a57600080fd5b5062000699878288016200053c565b91505092959194509250565b600181811c90821680620006ba57607f821691505b60208210811415620006dc57634e487b7160e01b600052602260045260246000fd5b50919050565b634e487b7160e01b600052604160045260246000fd5b61287580620007086000396000f3fe608060405234801561001057600080fd5b50600436106101fb5760003560e01c80636d5e30321161011a578063a22cb465116100ad578063ca15c8731161007c578063ca15c873146104b0578063d5391393146104c3578063d547741f146104ea578063e63ab1e9146104fd578063e985e9c51461052457600080fd5b8063a22cb46514610464578063afe7f51a14610477578063b88d4fde1461048a578063c87b56dd1461049d57600080fd5b806390385b17116100e957806390385b17146103c057806391d148541461044157806395d89b4114610454578063a217fddf1461045c57600080fd5b80636d5e30321461035d57806370a08231146103925780638456cb59146103a55780639010d07c146103ad57600080fd5b80632f745c591161019257806342966c681161016157806342966c68146103195780634f6ccce71461032c5780635c975abb1461033f5780636352211e1461034a57600080fd5b80632f745c59146102d857806336568abe146102eb5780633f4ba83a146102fe57806342842e0e1461030657600080fd5b806318160ddd116101ce57806318160ddd1461027d57806323b872dd1461028f578063248a9ca3146102a25780632f2ff15d146102c557600080fd5b806301ffc9a71461020057806306fdde0314610228578063081812fc1461023d578063095ea7b314610268575b600080fd5b61021361020e366004612438565b610560565b60405190151581526020015b60405180910390f35b610230610571565b60405161021f91906125b6565b61025061024b3660046123da565b610603565b6040516001600160a01b03909116815260200161021f565b61027b6102763660046123b0565b61069d565b005b600a545b60405190815260200161021f565b61027b61029d36600461225c565b6107b3565b6102816102b03660046123da565b60009081526020819052604090206001015490565b61027b6102d33660046123f3565b6107e5565b6102816102e63660046123b0565b610807565b61027b6102f93660046123f3565b61089d565b61027b6108bf565b61027b61031436600461225c565b610967565b61027b6103273660046123da565b610982565b61028161033a3660046123da565b6109fc565b600c5460ff16610213565b6102506103583660046123da565b610a8f565b61038061036b3660046123da565b6000908152600f602052604090205460ff1690565b60405160ff909116815260200161021f565b6102816103a036600461220e565b610b06565b61027b610b8d565b6102506103bb366004612416565b610c31565b61041c6103ce366004612472565b60ff166000908152601060209081526040918290208251606081018452905461ffff808216808452620100008304821694840185905264010000000090920416919093018190529192909190565b6040805161ffff9485168152928416602084015292169181019190915260600161021f565b61021361044f3660046123f3565b610c50565b610230610c79565b610281600081565b61027b610472366004612374565b610c88565b61021361048536600461248d565b610d4d565b61027b610498366004612298565b610e9e565b6102306104ab3660046123da565b610ed6565b6102816104be3660046123da565b610fb0565b6102817f9f2df0fed2c77648de5860a4cc508cd0818c85b8b8a1ab4ceeef8d981c8956a681565b61027b6104f83660046123f3565b610fc7565b6102817f65d7a28e3265b37a6474929f336521b332c1681b933f6cb9f3376673440d862a81565b610213610532366004612229565b6001600160a01b03918216600090815260076020908152604080832093909416825291909152205460ff1690565b600061056b82610ff4565b92915050565b60606002805461058090612751565b80601f01602080910402602001604051908101604052809291908181526020018280546105ac90612751565b80156105f95780601f106105ce576101008083540402835291602001916105f9565b820191906000526020600020905b8154815290600101906020018083116105dc57829003601f168201915b5050505050905090565b6000818152600460205260408120546001600160a01b03166106815760405162461bcd60e51b815260206004820152602c60248201527f4552433732313a20617070726f76656420717565727920666f72206e6f6e657860448201526b34b9ba32b73a103a37b5b2b760a11b60648201526084015b60405180910390fd5b506000908152600660205260409020546001600160a01b031690565b60006106a882610a8f565b9050806001600160a01b0316836001600160a01b031614156107165760405162461bcd60e51b815260206004820152602160248201527f4552433732313a20617070726f76616c20746f2063757272656e74206f776e656044820152603960f91b6064820152608401610678565b336001600160a01b038216148061073257506107328133610532565b6107a45760405162461bcd60e51b815260206004820152603860248201527f4552433732313a20617070726f76652063616c6c6572206973206e6f74206f7760448201527f6e6572206e6f7220617070726f76656420666f7220616c6c00000000000000006064820152608401610678565b6107ae8383611019565b505050565b6107be335b82611087565b6107da5760405162461bcd60e51b81526004016106789061261b565b6107ae83838361117e565b6107ef8282611329565b60008281526001602052604090206107ae9082610fdf565b600061081283610b06565b82106108745760405162461bcd60e51b815260206004820152602b60248201527f455243373231456e756d657261626c653a206f776e657220696e646578206f7560448201526a74206f6620626f756e647360a81b6064820152608401610678565b506001600160a01b03919091166000908152600860209081526040808320938352929052205490565b6108a7828261134f565b60008281526001602052604090206107ae90826113c9565b6108e97f65d7a28e3265b37a6474929f336521b332c1681b933f6cb9f3376673440d862a33610c50565b61095d576040805162461bcd60e51b81526020600482015260248101919091527f4552433732315072657365744d696e7465725061757365724175746f49643a2060448201527f6d75737420686176652070617573657220726f6c6520746f20756e70617573656064820152608401610678565b6109656113de565b565b6107ae83838360405180602001604052806000815250610e9e565b61098b336107b8565b6109f05760405162461bcd60e51b815260206004820152603060248201527f4552433732314275726e61626c653a2063616c6c6572206973206e6f74206f7760448201526f1b995c881b9bdc88185c1c1c9bdd995960821b6064820152608401610678565b6109f981611471565b50565b6000610a07600a5490565b8210610a6a5760405162461bcd60e51b815260206004820152602c60248201527f455243373231456e756d657261626c653a20676c6f62616c20696e646578206f60448201526b7574206f6620626f756e647360a01b6064820152608401610678565b600a8281548110610a7d57610a7d6127fd565b90600052602060002001549050919050565b6000818152600460205260408120546001600160a01b03168061056b5760405162461bcd60e51b815260206004820152602960248201527f4552433732313a206f776e657220717565727920666f72206e6f6e657869737460448201526832b73a103a37b5b2b760b91b6064820152608401610678565b60006001600160a01b038216610b715760405162461bcd60e51b815260206004820152602a60248201527f4552433732313a2062616c616e636520717565727920666f7220746865207a65604482015269726f206164647265737360b01b6064820152608401610678565b506001600160a01b031660009081526005602052604090205490565b610bb77f65d7a28e3265b37a6474929f336521b332c1681b933f6cb9f3376673440d862a33610c50565b610c295760405162461bcd60e51b815260206004820152603e60248201527f4552433732315072657365744d696e7465725061757365724175746f49643a2060448201527f6d75737420686176652070617573657220726f6c6520746f20706175736500006064820152608401610678565b610965611518565b6000828152600160205260408120610c499083611593565b9392505050565b6000918252602082815260408084206001600160a01b0393909316845291905290205460ff1690565b60606003805461058090612751565b6001600160a01b038216331415610ce15760405162461bcd60e51b815260206004820152601960248201527f4552433732313a20617070726f766520746f2063616c6c6572000000000000006044820152606401610678565b3360008181526007602090815260408083206001600160a01b03871680855290835292819020805460ff191686151590811790915590519081529192917f17307eab39ab6107e8899845ad3d59bd9653f200f220920489ca2b5937696c31910160405180910390a35050565b600060058360ff1610610da25760405162461bcd60e51b815260206004820152601b60248201527f4c6576656c2065786365656420746865206c696d6974206f66203500000000006044820152606401610678565b60ff831660009081526010602052604090208054610dc69060019061ffff166126d4565b815461ffff918216620100009091049091161015610e945780546001908290600290610dfd90849062010000900461ffff1661266c565b92506101000a81548161ffff021916908361ffff1602179055506000610e228461159f565b6000818152600f6020908152604091829020805460ff8a1660ff1990911681179091558251908152908101839052428183015290519192506001600160a01b0386169133917fdc48d3a442ceb4e0e4692983271eae3d4d27dc1ece2c14aa7886291a97a27962919081900360600190a3505b5060019392505050565b610ea83383611087565b610ec45760405162461bcd60e51b81526004016106789061261b565b610ed084848484611662565b50505050565b6000818152600460205260409020546060906001600160a01b0316610f555760405162461bcd60e51b815260206004820152602f60248201527f4552433732314d657461646174613a2055524920717565727920666f72206e6f60448201526e3732bc34b9ba32b73a103a37b5b2b760891b6064820152608401610678565b6000610f5f611695565b90506000815111610f7f5760405180602001604052806000815250610c49565b80610f89846116a4565b604051602001610f9a9291906124d5565b6040516020818303038152906040529392505050565b600081815260016020526040812061056b906117a2565b6108a782826117ac565b610fdb82826117d2565b5050565b6000610c49836001600160a01b038416611856565b60006001600160e01b0319821663780e9d6360e01b148061056b575061056b826118a5565b600081815260066020526040902080546001600160a01b0319166001600160a01b038416908117909155819061104e82610a8f565b6001600160a01b03167f8c5be1e5ebec7d5bd14f71427d1e84f3dd0314c0f7b2291e5b200ac8c7c3b92560405160405180910390a45050565b6000818152600460205260408120546001600160a01b03166111005760405162461bcd60e51b815260206004820152602c60248201527f4552433732313a206f70657261746f7220717565727920666f72206e6f6e657860448201526b34b9ba32b73a103a37b5b2b760a11b6064820152608401610678565b600061110b83610a8f565b9050806001600160a01b0316846001600160a01b031614806111465750836001600160a01b031661113b84610603565b6001600160a01b0316145b8061117657506001600160a01b0380821660009081526007602090815260408083209388168352929052205460ff165b949350505050565b826001600160a01b031661119182610a8f565b6001600160a01b0316146111f95760405162461bcd60e51b815260206004820152602960248201527f4552433732313a207472616e73666572206f6620746f6b656e2074686174206960448201526839903737ba1037bbb760b91b6064820152608401610678565b6001600160a01b03821661125b5760405162461bcd60e51b8152602060048201526024808201527f4552433732313a207472616e7366657220746f20746865207a65726f206164646044820152637265737360e01b6064820152608401610678565b6112668383836118e5565b611271600082611019565b6001600160a01b038316600090815260056020526040812080546001929061129a9084906126f7565b90915550506001600160a01b03821660009081526005602052604081208054600192906112c8908490612689565b909155505060008181526004602052604080822080546001600160a01b0319166001600160a01b0386811691821790925591518493918716917fddf252ad1be2c89b69c2b068fc378daa952ba7f163c4a11628f55a4df523b3ef91a4505050565b60008281526020819052604090206001015461134581336118f0565b6107ae83836117d2565b6001600160a01b03811633146113bf5760405162461bcd60e51b815260206004820152602f60248201527f416363657373436f6e74726f6c3a2063616e206f6e6c792072656e6f756e636560448201526e103937b632b9903337b91039b2b63360891b6064820152608401610678565b610fdb8282611954565b6000610c49836001600160a01b0384166119b9565b600c5460ff166114275760405162461bcd60e51b815260206004820152601460248201527314185d5cd8589b194e881b9bdd081c185d5cd95960621b6044820152606401610678565b600c805460ff191690557f5db9ee0a495bf2e6ff9c91a7834c1ba4fdd244a5e8aa4e537bd38aeae4b073aa335b6040516001600160a01b03909116815260200160405180910390a1565b600061147c82610a8f565b905061148a816000846118e5565b611495600083611019565b6001600160a01b03811660009081526005602052604081208054600192906114be9084906126f7565b909155505060008281526004602052604080822080546001600160a01b0319169055518391906001600160a01b038416907fddf252ad1be2c89b69c2b068fc378daa952ba7f163c4a11628f55a4df523b3ef908390a45050565b600c5460ff161561155e5760405162461bcd60e51b815260206004820152601060248201526f14185d5cd8589b194e881c185d5cd95960821b6044820152606401610678565b600c805460ff191660011790557f62e78cea01bee320cd4e420270b5ea74000d11b0c9f74754ebdbfc544b05a2586114543390565b6000610c498383611aac565b60006115cb7f9f2df0fed2c77648de5860a4cc508cd0818c85b8b8a1ab4ceeef8d981c8956a633610c50565b61163d5760405162461bcd60e51b815260206004820152603d60248201527f4552433732315072657365744d696e7465725061757365724175746f49643a2060448201527f6d7573742068617665206d696e74657220726f6c6520746f206d696e740000006064820152608401610678565b6000611648600d5490565b90506116548382611ad6565b61056b600d80546001019055565b61166d84848461117e565b61167984848484611c24565b610ed05760405162461bcd60e51b8152600401610678906125c9565b6060600e805461058090612751565b6060816116c85750506040805180820190915260018152600360fc1b602082015290565b8160005b81156116f257806116dc8161278c565b91506116eb9050600a836126a1565b91506116cc565b60008167ffffffffffffffff81111561170d5761170d612813565b6040519080825280601f01601f191660200182016040528015611737576020820181803683370190505b5090505b84156111765761174c6001836126f7565b9150611759600a866127a7565b611764906030612689565b60f81b818381518110611779576117796127fd565b60200101906001600160f81b031916908160001a90535061179b600a866126a1565b945061173b565b600061056b825490565b6000828152602081905260409020600101546117c881336118f0565b6107ae8383611954565b6117dc8282610c50565b610fdb576000828152602081815260408083206001600160a01b03851684529091529020805460ff191660011790556118123390565b6001600160a01b0316816001600160a01b0316837f2f8788117e7eff1d82e926ec794901d17c78024a50270940304540a733656f0d60405160405180910390a45050565b600081815260018301602052604081205461189d5750815460018181018455600084815260208082209093018490558454848252828601909352604090209190915561056b565b50600061056b565b60006001600160e01b031982166380ac58cd60e01b14806118d657506001600160e01b03198216635b5e139f60e01b145b8061056b575061056b82611d31565b6107ae838383611d56565b6118fa8282610c50565b610fdb57611912816001600160a01b03166014611dc8565b61191d836020611dc8565b60405160200161192e929190612504565b60408051601f198184030181529082905262461bcd60e51b8252610678916004016125b6565b61195e8282610c50565b15610fdb576000828152602081815260408083206001600160a01b0385168085529252808320805460ff1916905551339285917ff6391f5c32d9c69d2a47ea670b442974b53935d1edc7fd64eb21e047a839171b9190a45050565b60008181526001830160205260408120548015611aa25760006119dd6001836126f7565b85549091506000906119f1906001906126f7565b9050818114611a56576000866000018281548110611a1157611a116127fd565b9060005260206000200154905080876000018481548110611a3457611a346127fd565b6000918252602080832090910192909255918252600188019052604090208390555b8554869080611a6757611a676127e7565b60019003818190600052602060002001600090559055856001016000868152602001908152602001600020600090556001935050505061056b565b600091505061056b565b6000826000018281548110611ac357611ac36127fd565b9060005260206000200154905092915050565b6001600160a01b038216611b2c5760405162461bcd60e51b815260206004820181905260248201527f4552433732313a206d696e7420746f20746865207a65726f20616464726573736044820152606401610678565b6000818152600460205260409020546001600160a01b031615611b915760405162461bcd60e51b815260206004820152601c60248201527f4552433732313a20746f6b656e20616c7265616479206d696e746564000000006044820152606401610678565b611b9d600083836118e5565b6001600160a01b0382166000908152600560205260408120805460019290611bc6908490612689565b909155505060008181526004602052604080822080546001600160a01b0319166001600160a01b03861690811790915590518392907fddf252ad1be2c89b69c2b068fc378daa952ba7f163c4a11628f55a4df523b3ef908290a45050565b60006001600160a01b0384163b15611d2657604051630a85bd0160e11b81526001600160a01b0385169063150b7a0290611c68903390899088908890600401612579565b602060405180830381600087803b158015611c8257600080fd5b505af1925050508015611cb2575060408051601f3d908101601f19168201909252611caf91810190612455565b60015b611d0c573d808015611ce0576040519150601f19603f3d011682016040523d82523d6000602084013e611ce5565b606091505b508051611d045760405162461bcd60e51b8152600401610678906125c9565b805181602001fd5b6001600160e01b031916630a85bd0160e11b149050611176565b506001949350505050565b60006001600160e01b03198216635a05180f60e01b148061056b575061056b82611f64565b611d61838383611f99565b600c5460ff16156107ae5760405162461bcd60e51b815260206004820152602b60248201527f4552433732315061757361626c653a20746f6b656e207472616e73666572207760448201526a1a1a5b19481c185d5cd95960aa1b6064820152608401610678565b60606000611dd78360026126b5565b611de2906002612689565b67ffffffffffffffff811115611dfa57611dfa612813565b6040519080825280601f01601f191660200182016040528015611e24576020820181803683370190505b509050600360fc1b81600081518110611e3f57611e3f6127fd565b60200101906001600160f81b031916908160001a905350600f60fb1b81600181518110611e6e57611e6e6127fd565b60200101906001600160f81b031916908160001a9053506000611e928460026126b5565b611e9d906001612689565b90505b6001811115611f15576f181899199a1a9b1b9c1cb0b131b232b360811b85600f1660108110611ed157611ed16127fd565b1a60f81b828281518110611ee757611ee76127fd565b60200101906001600160f81b031916908160001a90535060049490941c93611f0e8161273a565b9050611ea0565b508315610c495760405162461bcd60e51b815260206004820181905260248201527f537472696e67733a20686578206c656e67746820696e73756666696369656e746044820152606401610678565b60006001600160e01b03198216637965db0b60e01b148061056b57506301ffc9a760e01b6001600160e01b031983161461056b565b6001600160a01b038316611ff457611fef81600a80546000838152600b60205260408120829055600182018355919091527fc65a7bb8d6351c1cf70c95a316cc6a92839c986682d98bc35f958f4883f9d2a80155565b612017565b816001600160a01b0316836001600160a01b031614612017576120178382612051565b6001600160a01b03821661202e576107ae816120ee565b826001600160a01b0316826001600160a01b0316146107ae576107ae828261219d565b6000600161205e84610b06565b61206891906126f7565b6000838152600960205260409020549091508082146120bb576001600160a01b03841660009081526008602090815260408083208584528252808320548484528184208190558352600990915290208190555b5060009182526009602090815260408084208490556001600160a01b039094168352600881528383209183525290812055565b600a54600090612100906001906126f7565b6000838152600b6020526040812054600a8054939450909284908110612128576121286127fd565b9060005260206000200154905080600a8381548110612149576121496127fd565b6000918252602080832090910192909255828152600b9091526040808220849055858252812055600a805480612181576121816127e7565b6001900381819060005260206000200160009055905550505050565b60006121a883610b06565b6001600160a01b039093166000908152600860209081526040808320868452825280832085905593825260099052919091209190915550565b80356001600160a01b03811681146121f857600080fd5b919050565b803560ff811681146121f857600080fd5b60006020828403121561222057600080fd5b610c49826121e1565b6000806040838503121561223c57600080fd5b612245836121e1565b9150612253602084016121e1565b90509250929050565b60008060006060848603121561227157600080fd5b61227a846121e1565b9250612288602085016121e1565b9150604084013590509250925092565b600080600080608085870312156122ae57600080fd5b6122b7856121e1565b93506122c5602086016121e1565b925060408501359150606085013567ffffffffffffffff808211156122e957600080fd5b818701915087601f8301126122fd57600080fd5b81358181111561230f5761230f612813565b604051601f8201601f19908116603f0116810190838211818310171561233757612337612813565b816040528281528a602084870101111561235057600080fd5b82602086016020830137600060208483010152809550505050505092959194509250565b6000806040838503121561238757600080fd5b612390836121e1565b9150602083013580151581146123a557600080fd5b809150509250929050565b600080604083850312156123c357600080fd5b6123cc836121e1565b946020939093013593505050565b6000602082840312156123ec57600080fd5b5035919050565b6000806040838503121561240657600080fd5b82359150612253602084016121e1565b6000806040838503121561242957600080fd5b50508035926020909101359150565b60006020828403121561244a57600080fd5b8135610c4981612829565b60006020828403121561246757600080fd5b8151610c4981612829565b60006020828403121561248457600080fd5b610c49826121fd565b600080604083850312156124a057600080fd5b612245836121fd565b600081518084526124c181602086016020860161270e565b601f01601f19169290920160200192915050565b600083516124e781846020880161270e565b8351908301906124fb81836020880161270e565b01949350505050565b7f416363657373436f6e74726f6c3a206163636f756e742000000000000000000081526000835161253c81601785016020880161270e565b7001034b99036b4b9b9b4b733903937b6329607d1b601791840191820152835161256d81602884016020880161270e565b01602801949350505050565b6001600160a01b03858116825284166020820152604081018390526080606082018190526000906125ac908301846124a9565b9695505050505050565b602081526000610c4960208301846124a9565b60208082526032908201527f4552433732313a207472616e7366657220746f206e6f6e20455243373231526560408201527131b2b4bb32b91034b6b83632b6b2b73a32b960711b606082015260800190565b60208082526031908201527f4552433732313a207472616e736665722063616c6c6572206973206e6f74206f6040820152701ddb995c881b9bdc88185c1c1c9bdd9959607a1b606082015260800190565b600061ffff8083168185168083038211156124fb576124fb6127bb565b6000821982111561269c5761269c6127bb565b500190565b6000826126b0576126b06127d1565b500490565b60008160001904831182151516156126cf576126cf6127bb565b500290565b600061ffff838116908316818110156126ef576126ef6127bb565b039392505050565b600082821015612709576127096127bb565b500390565b60005b83811015612729578181015183820152602001612711565b83811115610ed05750506000910152565b600081612749576127496127bb565b506000190190565b600181811c9082168061276557607f821691505b6020821081141561278657634e487b7160e01b600052602260045260246000fd5b50919050565b60006000198214156127a0576127a06127bb565b5060010190565b6000826127b6576127b66127d1565b500690565b634e487b7160e01b600052601160045260246000fd5b634e487b7160e01b600052601260045260246000fd5b634e487b7160e01b600052603160045260246000fd5b634e487b7160e01b600052603260045260246000fd5b634e487b7160e01b600052604160045260246000fd5b6001600160e01b0319811681146109f957600080fdfea2646970667358221220f9696f6bc626105b391a01ec7ee384049d81ca64e5a3f2d56ca8d8e2850fbb2f64736f6c634300080600339f2df0fed2c77648de5860a4cc508cd0818c85b8b8a1ab4ceeef8d981c8956a6",
  "immutableReferences": {},
  "source": "// SPDX-License-Identifier: MIT\n\npragma solidity ^0.8.0;\n\nimport \"../ERC721.sol\";\nimport \"../extensions/ERC721Enumerable.sol\";\nimport \"../extensions/ERC721Burnable.sol\";\nimport \"../extensions/ERC721Pausable.sol\";\nimport \"../../../access/AccessControlEnumerable.sol\";\nimport \"../../../utils/Context.sol\";\nimport \"../../../utils/Counters.sol\";\n\n/**\n * @dev {ERC721} token, including:\n *\n *  - ability for holders to burn (destroy) their tokens\n *  - a minter role that allows for token minting (creation)\n *  - a pauser role that allows to stop all token transfers\n *  - token ID and URI autogeneration\n *\n * This contract uses {AccessControl} to lock permissioned functions using the\n * different roles - head to its documentation for details.\n *\n * The account that deploys the contract will be granted the minter and pauser\n * roles, as well as the default admin role, which will let it grant both minter\n * and pauser roles to other accounts.\n */\ncontract ERC721Card is\n    Context,\n    AccessControlEnumerable,\n    ERC721Enumerable,\n    ERC721Burnable,\n    ERC721Pausable\n{\n    using Counters for Counters.Counter;\n\n    bytes32 public constant MINTER_ROLE = keccak256(\"MINTER_ROLE\");\n    bytes32 public constant PAUSER_ROLE = keccak256(\"PAUSER_ROLE\");\n\n    Counters.Counter private _tokenIdTracker;\n\n    string private _baseTokenURI;\n\n    struct LevelInfo {\n        uint16 total;\n        uint16 current;\n        uint16 power;\n    }\n    mapping(uint256 => uint8) nftLevel;\n    mapping(uint8 => LevelInfo) levelInfo;\n\n    event MintWithLevel(address indexed from, address indexed to, uint16 level, uint256 id, uint256 timestamp);\n\n    /**\n     * @dev Grants `DEFAULT_ADMIN_ROLE`, `MINTER_ROLE` and `PAUSER_ROLE` to the\n     * account that deploys the contract.\n     *\n     * Token URIs will be autogenerated based on `baseURI` and their token IDs.\n     * See {ERC721-tokenURI}.\n     */\n    constructor(\n        address adminAddress,\n        string memory name,\n        string memory symbol,\n        string memory baseTokenURI\n    ) ERC721(name, symbol) {\n        _baseTokenURI = baseTokenURI;\n\n        _setupRole(DEFAULT_ADMIN_ROLE, adminAddress);\n        _setupRole(PAUSER_ROLE, adminAddress);\n        _setupRole(MINTER_ROLE, adminAddress);\n        _setupRole(MINTER_ROLE, _msgSender());\n        setLevelInfo();\n    }\n\n    function setLevelInfo() internal {\n        levelInfo[0] = LevelInfo({total:64000, power:100, current:0});\n        levelInfo[1] = LevelInfo({total:18000, power:150, current:0});\n        levelInfo[2] = LevelInfo({total:1800, power:300, current:0});\n        levelInfo[3] = LevelInfo({total:900, power:600, current:0});\n        levelInfo[4] = LevelInfo({total:300, power:1500, current:0});\n    }\n\n    function _baseURI() internal view virtual override returns (string memory) {\n        return _baseTokenURI;\n    }\n\n    function levelOf(uint256 id) external view returns (uint8 level) {\n        return nftLevel[id];\n    }\n\n    function levelView(uint8 level) external view returns (\n        uint16 total,\n        uint16 current,\n        uint16 power\n    ) {\n        LevelInfo memory leve = levelInfo[level];\n        return (leve.total, leve.current, leve.power);\n    }\n\n    function mintWithLevel(uint8 _level, address to) public returns(bool){\n        require(_level < 5, \"Level exceed the limit of 5\");\n        LevelInfo storage level = levelInfo[_level];\n        if (level.current < level.total -1) {\n            level.current += 1;\n            uint256 id = mint(to);\n            nftLevel[id] = _level;\n            emit MintWithLevel(msg.sender, to, _level, id, block.timestamp);\n        }\n        \n        return true;\n    }\n\n    /**\n     * @dev Creates a new token for `to`. Its token ID will be automatically\n     * assigned (and available on the emitted {IERC721-Transfer} event), and the token\n     * URI autogenerated based on the base URI passed at construction.\n     *\n     * See {ERC721-_mint}.\n     *\n     * Requirements:\n     *\n     * - the caller must have the `MINTER_ROLE`.\n     */\n    function mint(address to) private returns (uint256){\n        require(hasRole(MINTER_ROLE, _msgSender()), \"ERC721PresetMinterPauserAutoId: must have minter role to mint\");\n\n        // We cannot just use balanceOf to create the new tokenId because tokens\n        // can be burned (destroyed), so we need a separate counter.\n        uint256 current = _tokenIdTracker.current();\n        _mint(to, current);\n        _tokenIdTracker.increment();\n        return current;\n    }\n\n    /**\n     * @dev Pauses all token transfers.\n     *\n     * See {ERC721Pausable} and {Pausable-_pause}.\n     *\n     * Requirements:\n     *\n     * - the caller must have the `PAUSER_ROLE`.\n     */\n    function pause() public virtual {\n        require(hasRole(PAUSER_ROLE, _msgSender()), \"ERC721PresetMinterPauserAutoId: must have pauser role to pause\");\n        _pause();\n    }\n\n    /**\n     * @dev Unpauses all token transfers.\n     *\n     * See {ERC721Pausable} and {Pausable-_unpause}.\n     *\n     * Requirements:\n     *\n     * - the caller must have the `PAUSER_ROLE`.\n     */\n    function unpause() public virtual {\n        require(hasRole(PAUSER_ROLE, _msgSender()), \"ERC721PresetMinterPauserAutoId: must have pauser role to unpause\");\n        _unpause();\n    }\n\n    function _beforeTokenTransfer(\n        address from,\n        address to,\n        uint256 tokenId\n    ) internal virtual override(ERC721, ERC721Enumerable, ERC721Pausable) {\n        super._beforeTokenTransfer(from, to, tokenId);\n    }\n\n    /**\n     * @dev See {IERC165-supportsInterface}.\n     */\n    function supportsInterface(bytes4 interfaceId)\n        public\n        view\n        virtual\n        override(AccessControlEnumerable, ERC721, ERC721Enumerable)\n        returns (bool)\n    {\n        return super.supportsInterface(interfaceId);\n    }\n\n}\n",
  "sourcePath": "/Users/jilong/solidity/pantheonNFT/contracts/token/ERC721/presets/ERC721Card.sol",
  "compiler": {
    "name": "solc",
    "version": "0.8.6+commit.11564f7e.Emscripten.clang"
  },
  "schemaVersion": "3.4.2",
  "updatedAt": "2021-09-07T18:28:29.727Z",
  "devdoc": {
    "details": "{ERC721} token, including:  - ability for holders to burn (destroy) their tokens  - a minter role that allows for token minting (creation)  - a pauser role that allows to stop all token transfers  - token ID and URI autogeneration This contract uses {AccessControl} to lock permissioned functions using the different roles - head to its documentation for details. The account that deploys the contract will be granted the minter and pauser roles, as well as the default admin role, which will let it grant both minter and pauser roles to other accounts.",
    "kind": "dev",
    "methods": {
      "approve(address,uint256)": {
        "details": "See {IERC721-approve}."
      },
      "balanceOf(address)": {
        "details": "See {IERC721-balanceOf}."
      },
      "burn(uint256)": {
        "details": "Burns `tokenId`. See {ERC721-_burn}. Requirements: - The caller must own `tokenId` or be an approved operator."
      },
      "constructor": {
        "details": "Grants `DEFAULT_ADMIN_ROLE`, `MINTER_ROLE` and `PAUSER_ROLE` to the account that deploys the contract. Token URIs will be autogenerated based on `baseURI` and their token IDs. See {ERC721-tokenURI}."
      },
      "getApproved(uint256)": {
        "details": "See {IERC721-getApproved}."
      },
      "getRoleAdmin(bytes32)": {
        "details": "Returns the admin role that controls `role`. See {grantRole} and {revokeRole}. To change a role's admin, use {_setRoleAdmin}."
      },
      "getRoleMember(bytes32,uint256)": {
        "details": "Returns one of the accounts that have `role`. `index` must be a value between 0 and {getRoleMemberCount}, non-inclusive. Role bearers are not sorted in any particular way, and their ordering may change at any point. WARNING: When using {getRoleMember} and {getRoleMemberCount}, make sure you perform all queries on the same block. See the following https://forum.openzeppelin.com/t/iterating-over-elements-on-enumerableset-in-openzeppelin-contracts/2296[forum post] for more information."
      },
      "getRoleMemberCount(bytes32)": {
        "details": "Returns the number of accounts that have `role`. Can be used together with {getRoleMember} to enumerate all bearers of a role."
      },
      "grantRole(bytes32,address)": {
        "details": "Overload {grantRole} to track enumerable memberships"
      },
      "hasRole(bytes32,address)": {
        "details": "Returns `true` if `account` has been granted `role`."
      },
      "isApprovedForAll(address,address)": {
        "details": "See {IERC721-isApprovedForAll}."
      },
      "name()": {
        "details": "See {IERC721Metadata-name}."
      },
      "ownerOf(uint256)": {
        "details": "See {IERC721-ownerOf}."
      },
      "pause()": {
        "details": "Pauses all token transfers. See {ERC721Pausable} and {Pausable-_pause}. Requirements: - the caller must have the `PAUSER_ROLE`."
      },
      "paused()": {
        "details": "Returns true if the contract is paused, and false otherwise."
      },
      "renounceRole(bytes32,address)": {
        "details": "Overload {renounceRole} to track enumerable memberships"
      },
      "revokeRole(bytes32,address)": {
        "details": "Overload {revokeRole} to track enumerable memberships"
      },
      "safeTransferFrom(address,address,uint256)": {
        "details": "See {IERC721-safeTransferFrom}."
      },
      "safeTransferFrom(address,address,uint256,bytes)": {
        "details": "See {IERC721-safeTransferFrom}."
      },
      "setApprovalForAll(address,bool)": {
        "details": "See {IERC721-setApprovalForAll}."
      },
      "supportsInterface(bytes4)": {
        "details": "See {IERC165-supportsInterface}."
      },
      "symbol()": {
        "details": "See {IERC721Metadata-symbol}."
      },
      "tokenByIndex(uint256)": {
        "details": "See {IERC721Enumerable-tokenByIndex}."
      },
      "tokenOfOwnerByIndex(address,uint256)": {
        "details": "See {IERC721Enumerable-tokenOfOwnerByIndex}."
      },
      "tokenURI(uint256)": {
        "details": "See {IERC721Metadata-tokenURI}."
      },
      "totalSupply()": {
        "details": "See {IERC721Enumerable-totalSupply}."
      },
      "transferFrom(address,address,uint256)": {
        "details": "See {IERC721-transferFrom}."
      },
      "unpause()": {
        "details": "Unpauses all token transfers. See {ERC721Pausable} and {Pausable-_unpause}. Requirements: - the caller must have the `PAUSER_ROLE`."
      }
    },
    "version": 1
  },
  "userdoc": {
    "kind": "user",
    "methods": {},
    "version": 1
  }
}