{
  "contractName": "PanIdoContract",
  "abi": [
    {
      "inputs": [
        {
          "internalType": "address payable",
          "name": "erc20Address_",
          "type": "address"
        },
        {
          "internalType": "address",
          "name": "beneficancy_",
          "type": "address"
        },
        {
          "internalType": "uint256",
          "name": "idoStart_",
          "type": "uint256"
        },
        {
          "internalType": "uint256",
          "name": "idoEnd_",
          "type": "uint256"
        },
        {
          "internalType": "uint256",
          "name": "claimStart_",
          "type": "uint256"
        },
        {
          "internalType": "uint256",
          "name": "claimEnd_",
          "type": "uint256"
        }
      ],
      "stateMutability": "payable",
      "type": "constructor"
    },
    {
      "anonymous": false,
      "inputs": [
        {
          "indexed": false,
          "internalType": "uint256",
          "name": "remain",
          "type": "uint256"
        },
        {
          "indexed": false,
          "internalType": "uint256",
          "name": "total",
          "type": "uint256"
        }
      ],
      "name": "IdoProcessEvent",
      "type": "event"
    },
    {
      "anonymous": false,
      "inputs": [
        {
          "indexed": false,
          "internalType": "enum PanIdoContract.IdoStatus",
          "name": "status",
          "type": "uint8"
        }
      ],
      "name": "IdoStateEvent",
      "type": "event"
    },
    {
      "anonymous": false,
      "inputs": [
        {
          "indexed": true,
          "internalType": "address",
          "name": "previousOwner",
          "type": "address"
        },
        {
          "indexed": true,
          "internalType": "address",
          "name": "newOwner",
          "type": "address"
        }
      ],
      "name": "OwnershipTransferred",
      "type": "event"
    },
    {
      "inputs": [],
      "name": "beneficancy",
      "outputs": [
        {
          "internalType": "address",
          "name": "",
          "type": "address"
        }
      ],
      "stateMutability": "view",
      "type": "function"
    },
    {
      "inputs": [],
      "name": "chairperson",
      "outputs": [
        {
          "internalType": "address",
          "name": "",
          "type": "address"
        }
      ],
      "stateMutability": "view",
      "type": "function"
    },
    {
      "inputs": [],
      "name": "claimEndTimestamp",
      "outputs": [
        {
          "internalType": "uint256",
          "name": "",
          "type": "uint256"
        }
      ],
      "stateMutability": "view",
      "type": "function"
    },
    {
      "inputs": [],
      "name": "claimStartTimestamp",
      "outputs": [
        {
          "internalType": "uint256",
          "name": "",
          "type": "uint256"
        }
      ],
      "stateMutability": "view",
      "type": "function"
    },
    {
      "inputs": [],
      "name": "erc20Address",
      "outputs": [
        {
          "internalType": "address payable",
          "name": "",
          "type": "address"
        }
      ],
      "stateMutability": "view",
      "type": "function"
    },
    {
      "inputs": [],
      "name": "idoEndTimestamp",
      "outputs": [
        {
          "internalType": "uint256",
          "name": "",
          "type": "uint256"
        }
      ],
      "stateMutability": "view",
      "type": "function"
    },
    {
      "inputs": [],
      "name": "idoStartTimestamp",
      "outputs": [
        {
          "internalType": "uint256",
          "name": "",
          "type": "uint256"
        }
      ],
      "stateMutability": "view",
      "type": "function"
    },
    {
      "inputs": [
        {
          "internalType": "address",
          "name": "",
          "type": "address"
        }
      ],
      "name": "idoers",
      "outputs": [
        {
          "internalType": "uint256",
          "name": "ethValue",
          "type": "uint256"
        },
        {
          "internalType": "uint256",
          "name": "panValue",
          "type": "uint256"
        },
        {
          "internalType": "bool",
          "name": "claimed",
          "type": "bool"
        }
      ],
      "stateMutability": "view",
      "type": "function"
    },
    {
      "inputs": [],
      "name": "owner",
      "outputs": [
        {
          "internalType": "address",
          "name": "",
          "type": "address"
        }
      ],
      "stateMutability": "view",
      "type": "function"
    },
    {
      "inputs": [],
      "name": "remainSupply",
      "outputs": [
        {
          "internalType": "uint256",
          "name": "",
          "type": "uint256"
        }
      ],
      "stateMutability": "view",
      "type": "function"
    },
    {
      "inputs": [],
      "name": "renounceOwnership",
      "outputs": [],
      "stateMutability": "nonpayable",
      "type": "function"
    },
    {
      "inputs": [],
      "name": "token",
      "outputs": [
        {
          "internalType": "contract IERC20",
          "name": "",
          "type": "address"
        }
      ],
      "stateMutability": "view",
      "type": "function"
    },
    {
      "inputs": [
        {
          "internalType": "address",
          "name": "newOwner",
          "type": "address"
        }
      ],
      "name": "transferOwnership",
      "outputs": [],
      "stateMutability": "nonpayable",
      "type": "function"
    },
    {
      "inputs": [
        {
          "internalType": "address payable",
          "name": "erc20Address_",
          "type": "address"
        }
      ],
      "name": "setTokenAddress",
      "outputs": [],
      "stateMutability": "nonpayable",
      "type": "function"
    },
    {
      "inputs": [
        {
          "internalType": "uint256",
          "name": "start",
          "type": "uint256"
        },
        {
          "internalType": "uint256",
          "name": "end",
          "type": "uint256"
        }
      ],
      "name": "setIdoTime",
      "outputs": [],
      "stateMutability": "nonpayable",
      "type": "function"
    },
    {
      "inputs": [
        {
          "internalType": "uint256",
          "name": "start",
          "type": "uint256"
        },
        {
          "internalType": "uint256",
          "name": "end",
          "type": "uint256"
        }
      ],
      "name": "setClaimTime",
      "outputs": [],
      "stateMutability": "nonpayable",
      "type": "function"
    },
    {
      "inputs": [],
      "name": "sendEthForIdo",
      "outputs": [
        {
          "internalType": "bool",
          "name": "",
          "type": "bool"
        }
      ],
      "stateMutability": "payable",
      "type": "function"
    },
    {
      "inputs": [],
      "name": "release",
      "outputs": [],
      "stateMutability": "nonpayable",
      "type": "function"
    },
    {
      "inputs": [],
      "name": "claimFromIdo",
      "outputs": [
        {
          "internalType": "bool",
          "name": "",
          "type": "bool"
        }
      ],
      "stateMutability": "nonpayable",
      "type": "function"
    },
    {
      "inputs": [],
      "name": "isIdoEnable",
      "outputs": [
        {
          "internalType": "bool",
          "name": "",
          "type": "bool"
        }
      ],
      "stateMutability": "view",
      "type": "function"
    },
    {
      "inputs": [],
      "name": "isClaimEnable",
      "outputs": [
        {
          "internalType": "bool",
          "name": "",
          "type": "bool"
        }
      ],
      "stateMutability": "view",
      "type": "function"
    },
    {
      "inputs": [],
      "name": "getIdoRemainSupply",
      "outputs": [
        {
          "internalType": "uint256",
          "name": "",
          "type": "uint256"
        },
        {
          "internalType": "uint256",
          "name": "",
          "type": "uint256"
        }
      ],
      "stateMutability": "view",
      "type": "function"
    },
    {
      "inputs": [],
      "name": "getIdoRemainEth",
      "outputs": [
        {
          "internalType": "uint256",
          "name": "",
          "type": "uint256"
        },
        {
          "internalType": "uint256",
          "name": "",
          "type": "uint256"
        }
      ],
      "stateMutability": "view",
      "type": "function"
    },
    {
      "inputs": [],
      "name": "getIdoRemainPAN",
      "outputs": [
        {
          "internalType": "uint256",
          "name": "",
          "type": "uint256"
        },
        {
          "internalType": "uint256",
          "name": "",
          "type": "uint256"
        }
      ],
      "stateMutability": "view",
      "type": "function"
    },
    {
      "inputs": [],
      "name": "getIdoReleaseDate",
      "outputs": [
        {
          "internalType": "bool",
          "name": "",
          "type": "bool"
        },
        {
          "internalType": "uint256",
          "name": "",
          "type": "uint256"
        }
      ],
      "stateMutability": "view",
      "type": "function"
    }
  ],
  "bytecode": "0x6080604052662386f26fc100006001556701bc16d674ec8000600255670de0b6b3a7640000600355645d21dba000600455680d8d726b7177a80000600555620f424060065560405162002362380380620023628339818101604052810190620000699190620002f1565b620000896200007d620001e060201b60201c565b620001e860201b60201c565b33600760006101000a81548173ffffffffffffffffffffffffffffffffffffffff021916908373ffffffffffffffffffffffffffffffffffffffff16021790555060055460098190555084600860006101000a81548173ffffffffffffffffffffffffffffffffffffffff021916908373ffffffffffffffffffffffffffffffffffffffff16021790555085600e60006101000a81548173ffffffffffffffffffffffffffffffffffffffff021916908373ffffffffffffffffffffffffffffffffffffffff16021790555083600a8190555082600b8190555081600c8190555080600d81905550600e60009054906101000a900473ffffffffffffffffffffffffffffffffffffffff16600f60006101000a81548173ffffffffffffffffffffffffffffffffffffffff021916908373ffffffffffffffffffffffffffffffffffffffff16021790555050505050505062000432565b600033905090565b60008060009054906101000a900473ffffffffffffffffffffffffffffffffffffffff169050816000806101000a81548173ffffffffffffffffffffffffffffffffffffffff021916908373ffffffffffffffffffffffffffffffffffffffff1602179055508173ffffffffffffffffffffffffffffffffffffffff168173ffffffffffffffffffffffffffffffffffffffff167f8be0079c531659141344cd1fd0a4f28419497f9722a3daafe3b4186f6b6457e060405160405180910390a35050565b600081519050620002bd81620003e4565b92915050565b600081519050620002d481620003fe565b92915050565b600081519050620002eb8162000418565b92915050565b60008060008060008060c08789031215620003115762000310620003df565b5b60006200032189828a01620002c3565b96505060206200033489828a01620002ac565b95505060406200034789828a01620002da565b94505060606200035a89828a01620002da565b93505060806200036d89828a01620002da565b92505060a06200038089828a01620002da565b9150509295509295509295565b60006200039a82620003b5565b9050919050565b6000620003ae82620003b5565b9050919050565b600073ffffffffffffffffffffffffffffffffffffffff82169050919050565b6000819050919050565b600080fd5b620003ef816200038d565b8114620003fb57600080fd5b50565b6200040981620003a1565b81146200041557600080fd5b50565b6200042381620003d5565b81146200042f57600080fd5b50565b611f2080620004426000396000f3fe6080604052600436106101665760003560e01c806351df4f5b116100d15780638da5cb5b1161008a578063f2fde38b11610064578063f2fde38b146104d0578063f4237673146104f9578063fc0c546a14610525578063fc7a67921461055057610166565b80638da5cb5b1461044f578063a59c42e41461047a578063dfc5d02f146104a557610166565b806351df4f5b14610377578063521a0cc3146103a05780636e702f95146103cb578063715018a6146103f657806377392c4d1461040d57806386d1a69f1461043857610166565b80632e4176cf116101235780632e4176cf1461026c57806334b22a561461029757806338e10f75146102b55780633f5a3152146102e157806345a8b0a61461030c57806351aea8e81461034b57610166565b806301a6a8e81461016b5780631f4b0f4514610196578063265385cd146101c257806326a4e8d2146101ed578063276184ae14610216578063293970cb14610241575b600080fd5b34801561017757600080fd5b50610180610579565b60405161018d91906118d0565b60405180910390f35b3480156101a257600080fd5b506101ab6105aa565b6040516101b9929190611a6a565b60405180910390f35b3480156101ce57600080fd5b506101d76105bb565b6040516101e49190611a4f565b60405180910390f35b3480156101f957600080fd5b50610214600480360381019061020f9190611624565b6105c1565b005b34801561022257600080fd5b5061022b61071e565b604051610238919061188c565b60405180910390f35b34801561024d57600080fd5b50610256610744565b6040516102639190611871565b60405180910390f35b34801561027857600080fd5b5061028161076a565b60405161028e9190611871565b60405180910390f35b61029f610790565b6040516102ac91906118d0565b60405180910390f35b3480156102c157600080fd5b506102ca610b85565b6040516102d8929190611a6a565b60405180910390f35b3480156102ed57600080fd5b506102f6610bd6565b6040516103039190611a4f565b60405180910390f35b34801561031857600080fd5b50610333600480360381019061032e91906115f7565b610bdc565b60405161034293929190611a93565b60405180910390f35b34801561035757600080fd5b50610360610c13565b60405161036e9291906118eb565b60405180910390f35b34801561038357600080fd5b5061039e600480360381019061039991906116ab565b610c27565b005b3480156103ac57600080fd5b506103b5610cb5565b6040516103c291906118d0565b60405180910390f35b3480156103d757600080fd5b506103e0610f2c565b6040516103ed91906118d0565b60405180910390f35b34801561040257600080fd5b5061040b610f5d565b005b34801561041957600080fd5b50610422610fe5565b60405161042f9190611a4f565b60405180910390f35b34801561044457600080fd5b5061044d610feb565b005b34801561045b57600080fd5b5061046461124e565b6040516104719190611871565b60405180910390f35b34801561048657600080fd5b5061048f611277565b60405161049c9190611a4f565b60405180910390f35b3480156104b157600080fd5b506104ba61127d565b6040516104c79190611a4f565b60405180910390f35b3480156104dc57600080fd5b506104f760048036038101906104f291906115f7565b611283565b005b34801561050557600080fd5b5061050e61137b565b60405161051c929190611a6a565b60405180910390f35b34801561053157600080fd5b5061053a6113cc565b6040516105479190611914565b60405180910390f35b34801561055c57600080fd5b50610577600480360381019061057291906116ab565b6113f2565b005b600080429050600a5481101580156105925750600b5481105b156105a15760019150506105a7565b60009150505b90565b600080600954600554915091509091565b600d5481565b6105c9611480565b73ffffffffffffffffffffffffffffffffffffffff166105e761124e565b73ffffffffffffffffffffffffffffffffffffffff161461063d576040517f08c379a0000000000000000000000000000000000000000000000000000000008152600401610634906119ef565b60405180910390fd5b600073ffffffffffffffffffffffffffffffffffffffff168173ffffffffffffffffffffffffffffffffffffffff16141561067757600080fd5b80600e60006101000a81548173ffffffffffffffffffffffffffffffffffffffff021916908373ffffffffffffffffffffffffffffffffffffffff160217905550600e60009054906101000a900473ffffffffffffffffffffffffffffffffffffffff16600f60006101000a81548173ffffffffffffffffffffffffffffffffffffffff021916908373ffffffffffffffffffffffffffffffffffffffff16021790555050565b600e60009054906101000a900473ffffffffffffffffffffffffffffffffffffffff1681565b600860009054906101000a900473ffffffffffffffffffffffffffffffffffffffff1681565b600760009054906101000a900473ffffffffffffffffffffffffffffffffffffffff1681565b6000804290506009543411156107db576040517f08c379a00000000000000000000000000000000000000000000000000000000081526004016107d29061194f565b60405180910390fd5b600154341015610820576040517f08c379a0000000000000000000000000000000000000000000000000000000008152600401610817906119af565b60405180910390fd5b600254341115610865576040517f08c379a000000000000000000000000000000000000000000000000000000000815260040161085c90611a2f565b60405180910390fd5b60025434601060003373ffffffffffffffffffffffffffffffffffffffff1673ffffffffffffffffffffffffffffffffffffffff168152602001908152602001600020600001546108b69190611adb565b11156108f7576040517f08c379a00000000000000000000000000000000000000000000000000000000081526004016108ee906119cf565b60405180910390fd5b600a54811015801561090a5750600b5481105b610949576040517f08c379a00000000000000000000000000000000000000000000000000000000081526004016109409061192f565b60405180910390fd5b6000601060003373ffffffffffffffffffffffffffffffffffffffff1673ffffffffffffffffffffffffffffffffffffffff16815260200190815260200160002060405180606001604052908160008201548152602001600182015481526020016002820160009054906101000a900460ff1615151515815250509050600034905060006109f964e8d4a510006109eb6106408561148890919063ffffffff16565b61149e90919063ffffffff16565b9050610a10826009546114b490919063ffffffff16565b6009819055506000828460000151610a289190611adb565b90506000828560200151610a3c9190611adb565b9050604051806060016040528083815260200182815260200160001515815250601060003373ffffffffffffffffffffffffffffffffffffffff1673ffffffffffffffffffffffffffffffffffffffff168152602001908152602001600020600082015181600001556020820151816001015560408201518160020160006101000a81548160ff021916908315150217905550905050600860009054906101000a900473ffffffffffffffffffffffffffffffffffffffff1673ffffffffffffffffffffffffffffffffffffffff166108fc859081150290604051600060405180830381858888f19350505050158015610b3a573d6000803e3d6000fd5b507f5c719ba1792d965f6ac9c3f45e2f97588c52c97f32d546144bcac70e2e83f326600954600554604051610b70929190611a6a565b60405180910390a16001965050505050505090565b600080601060003373ffffffffffffffffffffffffffffffffffffffff1673ffffffffffffffffffffffffffffffffffffffff16815260200190815260200160002060010154600354915091509091565b60095481565b60106020528060005260406000206000915090508060000154908060010154908060020160009054906101000a900460ff16905083565b600080600c54421015600c54915091509091565b610c2f611480565b73ffffffffffffffffffffffffffffffffffffffff16610c4d61124e565b73ffffffffffffffffffffffffffffffffffffffff1614610ca3576040517f08c379a0000000000000000000000000000000000000000000000000000000008152600401610c9a906119ef565b60405180910390fd5b81600c8190555080600d819055505050565b600080429050600c54811015610cca57600080fd5b6000601060003373ffffffffffffffffffffffffffffffffffffffff1673ffffffffffffffffffffffffffffffffffffffff16815260200190815260200160002060405180606001604052908160008201548152602001600182015481526020016002820160009054906101000a900460ff1615151515815250509050620f424081602001511015610d91576040517f08c379a0000000000000000000000000000000000000000000000000000000008152600401610d8890611a0f565b60405180910390fd5b806040015115610dd6576040517f08c379a0000000000000000000000000000000000000000000000000000000008152600401610dcd9061198f565b60405180910390fd5b6000816020015190506001826040019015159081151581525050600f60009054906101000a900473ffffffffffffffffffffffffffffffffffffffff1673ffffffffffffffffffffffffffffffffffffffff1663a9059cbb33836040518363ffffffff1660e01b8152600401610e4d9291906118a7565b602060405180830381600087803b158015610e6757600080fd5b505af1158015610e7b573d6000803e3d6000fd5b505050506040513d601f19601f82011682018060405250810190610e9f9190611651565b50600082602001818152505081601060003373ffffffffffffffffffffffffffffffffffffffff1673ffffffffffffffffffffffffffffffffffffffff168152602001908152602001600020600082015181600001556020820151816001015560408201518160020160006101000a81548160ff0219169083151502179055509050506001935050505090565b600080429050600c548110158015610f455750600d5481105b15610f54576001915050610f5a565b60009150505b90565b610f65611480565b73ffffffffffffffffffffffffffffffffffffffff16610f8361124e565b73ffffffffffffffffffffffffffffffffffffffff1614610fd9576040517f08c379a0000000000000000000000000000000000000000000000000000000008152600401610fd0906119ef565b60405180910390fd5b610fe360006114ca565b565b600a5481565b610ff3611480565b73ffffffffffffffffffffffffffffffffffffffff1661101161124e565b73ffffffffffffffffffffffffffffffffffffffff1614611067576040517f08c379a000000000000000000000000000000000000000000000000000000000815260040161105e906119ef565b60405180910390fd5b600760009054906101000a900473ffffffffffffffffffffffffffffffffffffffff1673ffffffffffffffffffffffffffffffffffffffff166108fc479081150290604051600060405180830381858888f193505050501580156110cf573d6000803e3d6000fd5b50600f60009054906101000a900473ffffffffffffffffffffffffffffffffffffffff1673ffffffffffffffffffffffffffffffffffffffff1663a9059cbb600760009054906101000a900473ffffffffffffffffffffffffffffffffffffffff16600f60009054906101000a900473ffffffffffffffffffffffffffffffffffffffff1673ffffffffffffffffffffffffffffffffffffffff166370a08231306040518263ffffffff1660e01b815260040161118c9190611871565b60206040518083038186803b1580156111a457600080fd5b505afa1580156111b8573d6000803e3d6000fd5b505050506040513d601f19601f820116820180604052508101906111dc919061167e565b6040518363ffffffff1660e01b81526004016111f99291906118a7565b602060405180830381600087803b15801561121357600080fd5b505af1158015611227573d6000803e3d6000fd5b505050506040513d601f19601f8201168201806040525081019061124b9190611651565b50565b60008060009054906101000a900473ffffffffffffffffffffffffffffffffffffffff16905090565b600b5481565b600c5481565b61128b611480565b73ffffffffffffffffffffffffffffffffffffffff166112a961124e565b73ffffffffffffffffffffffffffffffffffffffff16146112ff576040517f08c379a00000000000000000000000000000000000000000000000000000000081526004016112f6906119ef565b60405180910390fd5b600073ffffffffffffffffffffffffffffffffffffffff168173ffffffffffffffffffffffffffffffffffffffff16141561136f576040517f08c379a00000000000000000000000000000000000000000000000000000000081526004016113669061196f565b60405180910390fd5b611378816114ca565b50565b600080601060003373ffffffffffffffffffffffffffffffffffffffff1673ffffffffffffffffffffffffffffffffffffffff16815260200190815260200160002060000154600254915091509091565b600f60009054906101000a900473ffffffffffffffffffffffffffffffffffffffff1681565b6113fa611480565b73ffffffffffffffffffffffffffffffffffffffff1661141861124e565b73ffffffffffffffffffffffffffffffffffffffff161461146e576040517f08c379a0000000000000000000000000000000000000000000000000000000008152600401611465906119ef565b60405180910390fd5b81600a8190555080600b819055505050565b600033905090565b600081836114969190611b62565b905092915050565b600081836114ac9190611b31565b905092915050565b600081836114c29190611bbc565b905092915050565b60008060009054906101000a900473ffffffffffffffffffffffffffffffffffffffff169050816000806101000a81548173ffffffffffffffffffffffffffffffffffffffff021916908373ffffffffffffffffffffffffffffffffffffffff1602179055508173ffffffffffffffffffffffffffffffffffffffff168173ffffffffffffffffffffffffffffffffffffffff167f8be0079c531659141344cd1fd0a4f28419497f9722a3daafe3b4186f6b6457e060405160405180910390a35050565b60008135905061159d81611e8e565b92915050565b6000813590506115b281611ea5565b92915050565b6000815190506115c781611ebc565b92915050565b6000813590506115dc81611ed3565b92915050565b6000815190506115f181611ed3565b92915050565b60006020828403121561160d5761160c611ccc565b5b600061161b8482850161158e565b91505092915050565b60006020828403121561163a57611639611ccc565b5b6000611648848285016115a3565b91505092915050565b60006020828403121561166757611666611ccc565b5b6000611675848285016115b8565b91505092915050565b60006020828403121561169457611693611ccc565b5b60006116a2848285016115e2565b91505092915050565b600080604083850312156116c2576116c1611ccc565b5b60006116d0858286016115cd565b92505060206116e1858286016115cd565b9150509250929050565b6116f481611c02565b82525050565b61170381611bf0565b82525050565b61171281611c14565b82525050565b61172181611c4a565b82525050565b6000611734600b83611aca565b915061173f82611cd1565b602082019050919050565b6000611757601083611aca565b915061176282611cfa565b602082019050919050565b600061177a602683611aca565b915061178582611d23565b604082019050919050565b600061179d601383611aca565b91506117a882611d72565b602082019050919050565b60006117c0602083611aca565b91506117cb82611d9b565b602082019050919050565b60006117e3602583611aca565b91506117ee82611dc4565b604082019050919050565b6000611806602083611aca565b915061181182611e13565b602082019050919050565b6000611829601d83611aca565b915061183482611e3c565b602082019050919050565b600061184c601f83611aca565b915061185782611e65565b602082019050919050565b61186b81611c40565b82525050565b600060208201905061188660008301846116fa565b92915050565b60006020820190506118a160008301846116eb565b92915050565b60006040820190506118bc60008301856116fa565b6118c96020830184611862565b9392505050565b60006020820190506118e56000830184611709565b92915050565b60006040820190506119006000830185611709565b61190d6020830184611862565b9392505050565b60006020820190506119296000830184611718565b92915050565b6000602082019050818103600083015261194881611727565b9050919050565b600060208201905081810360008301526119688161174a565b9050919050565b600060208201905081810360008301526119888161176d565b9050919050565b600060208201905081810360008301526119a881611790565b9050919050565b600060208201905081810360008301526119c8816117b3565b9050919050565b600060208201905081810360008301526119e8816117d6565b9050919050565b60006020820190508181036000830152611a08816117f9565b9050919050565b60006020820190508181036000830152611a288161181c565b9050919050565b60006020820190508181036000830152611a488161183f565b9050919050565b6000602082019050611a646000830184611862565b92915050565b6000604082019050611a7f6000830185611862565b611a8c6020830184611862565b9392505050565b6000606082019050611aa86000830186611862565b611ab56020830185611862565b611ac26040830184611709565b949350505050565b600082825260208201905092915050565b6000611ae682611c40565b9150611af183611c40565b9250827fffffffffffffffffffffffffffffffffffffffffffffffffffffffffffffffff03821115611b2657611b25611c6e565b5b828201905092915050565b6000611b3c82611c40565b9150611b4783611c40565b925082611b5757611b56611c9d565b5b828204905092915050565b6000611b6d82611c40565b9150611b7883611c40565b9250817fffffffffffffffffffffffffffffffffffffffffffffffffffffffffffffffff0483118215151615611bb157611bb0611c6e565b5b828202905092915050565b6000611bc782611c40565b9150611bd283611c40565b925082821015611be557611be4611c6e565b5b828203905092915050565b6000611bfb82611c20565b9050919050565b6000611c0d82611c20565b9050919050565b60008115159050919050565b600073ffffffffffffffffffffffffffffffffffffffff82169050919050565b6000819050919050565b6000611c5582611c5c565b9050919050565b6000611c6782611c20565b9050919050565b7f4e487b7100000000000000000000000000000000000000000000000000000000600052601160045260246000fd5b7f4e487b7100000000000000000000000000000000000000000000000000000000600052601260045260246000fd5b600080fd5b7f49444f2073746f70706564000000000000000000000000000000000000000000600082015250565b7f4e6f2072656d61696e20737570706c7900000000000000000000000000000000600082015250565b7f4f776e61626c653a206e6577206f776e657220697320746865207a65726f206160008201527f6464726573730000000000000000000000000000000000000000000000000000602082015250565b7f596f7520616c726561647920636c61696d656400000000000000000000000000600082015250565b7f49444f2076616c75652073686f756c6420626967207468616e20302e31455448600082015250565b7f49444f20746f74616c2076616c75652073686f756c64206c657373207468616e60008201527f2034455448000000000000000000000000000000000000000000000000000000602082015250565b7f4f776e61626c653a2063616c6c6572206973206e6f7420746865206f776e6572600082015250565b7f596f75206e656564206465706f736974652066756e642066697273742e000000600082015250565b7f49444f2076616c75652073686f756c64206c657373207468616e203445544800600082015250565b611e9781611bf0565b8114611ea257600080fd5b50565b611eae81611c02565b8114611eb957600080fd5b50565b611ec581611c14565b8114611ed057600080fd5b50565b611edc81611c40565b8114611ee757600080fd5b5056fea26469706673582212202c95ec736e084e0283e120427c0c11e413b0866ac92ad042ae4e9cc1db9fa37164736f6c63430008060033",
  "immutableReferences": {},
  "source": "// SPDX-License-Identifier: MIT\npragma solidity ^0.8.0;\n\nimport \"./utils/math/SafeMath.sol\";\nimport \"./utils/Address.sol\";\nimport \"./access/Ownable.sol\";\nimport \"./token/ERC20/IERC20.sol\";\n\ncontract PanIdoContract is Ownable{\n\n  // 1BNB = 400U\n  // 1BNB = 1600PAN\n  // 1PAN = 10^6wei\n  // 1ETH = 10^18wei\n  uint MIN_DEPOSITE = 1*10**16; // 0.01\n  uint MAX_DEPOSITE_ETH = 0.125 ether; //50U=200PAN\n  uint MAX_DEPOSITE_PAN = 1*10**18; //10**12\n  uint TOTAL_PAN_SUPPLY = 40*10**10; // 40*10^10 400000\n  uint TOTAL_ETH_SUPPLY = 250*10**18; // 250ETH\n  uint MIN_PAN_CLAIM = 1*10**6; // 1 PAN\n\n  enum IdoStatus{\n    IDO_START,\n    IDO_END,\n    IDO_CLAIM_START,\n    IDO_CLAIM\n  }\n\n  struct Idoer {\n    uint ethValue;\n    uint panValue;\n    // uint timestamp;\n    bool claimed;\n  }\n\n  // struct IdoerLog {\n  //   address addr;\n  //   uint ethValue;\n  //   uint panValue;\n  //   uint timestamp;\n  // }\n\n  using SafeMath for uint;\n\n  event IdoProcessEvent(uint remain, uint total);\n  event IdoStateEvent(IdoStatus status);\n\n  // \n  address public chairperson;\n  // \n  address public beneficancy;\n  // IdoerLog[] public idoerLogs;\n  // \n  uint public remainSupply;\n  // \n  uint public idoStartTimestamp;\n  // \n  uint public idoEndTimestamp;\n  // \n  uint public claimStartTimestamp;\n  // \n  uint public claimEndTimestamp;\n\n  // \n  address payable public erc20Address;\n  \n  // token\n  IERC20 public token;\n  // IDO\n  mapping(address => Idoer) public idoers;\n  // \n  // ido \n  constructor(address payable erc20Address_,\n    address beneficancy_,\n    uint idoStart_,\n    uint idoEnd_,\n    uint claimStart_,\n    uint claimEnd_\n    ) payable {\n  \tchairperson = msg.sender;\n  \tremainSupply = TOTAL_ETH_SUPPLY;\n    beneficancy = beneficancy_;\n    erc20Address = erc20Address_;\n    idoStartTimestamp = idoStart_;\n    idoEndTimestamp = idoEnd_;\n    claimStartTimestamp = claimStart_;\n    claimEndTimestamp = claimEnd_;\n  \ttoken = IERC20(erc20Address);\n  }\n  \n  function setTokenAddress(address payable erc20Address_) public onlyOwner{\n    require(erc20Address_ != address(0));\n     erc20Address = erc20Address_;\n     token = IERC20(erc20Address);\n  }\n\n  function setIdoTime(uint start, uint end) public onlyOwner{\n    idoStartTimestamp = start;\n    idoEndTimestamp = end;\n  }\n\n  function setClaimTime(uint start, uint end) public onlyOwner{\n    claimStartTimestamp = start;\n    claimEndTimestamp = end;\n  }\n\n  // EthIDO\n  // ETH\n  function sendEthForIdo() payable public returns (bool){\n    uint timestamp = block.timestamp;\n    require(msg.value <= remainSupply, \"No remain supply\");\n    require(msg.value >= MIN_DEPOSITE, \"IDO value should big than 0.1ETH\");\n    require(msg.value <= MAX_DEPOSITE_ETH, \"IDO value should less than 4ETH\");\n    require(idoers[msg.sender].ethValue + msg.value <= MAX_DEPOSITE_ETH, \"IDO total value should less than 4ETH\");\n    require(timestamp >= idoStartTimestamp && timestamp < idoEndTimestamp, \"IDO stopped\");\n\n    Idoer memory idoer = idoers[msg.sender];\n\n    uint value = msg.value;\n    uint panValue = value.mul(1600).div(10**12);\n    remainSupply = remainSupply.sub(value);\n\n    uint newValue = idoer.ethValue + value;\n    uint newPanValue = idoer.panValue + panValue;\n    idoers[msg.sender] = Idoer({\n      ethValue: newValue,\n      panValue: newPanValue,\n      claimed: false\n    });\n  \tpayable(beneficancy).transfer(value);\n\n    emit IdoProcessEvent(remainSupply, TOTAL_ETH_SUPPLY);\n    // idoerLogs.push(IdoerLog({\n    //   addr: address(msg.sender),\n    //   ethValue: newValue,\n    //   panValue: panValue,\n    //   timestamp: timestamp\n    // }));\n    return true;\n  }\n  \n  function release() public  onlyOwner {\n      payable(chairperson).transfer(address(this).balance);\n      token.transfer(chairperson, token.balanceOf(address(this)));\n  }\n  \n  // claim\n  function claimFromIdo() public returns (bool){\n    uint timestamp = block.timestamp;\n  \trequire(timestamp >= claimStartTimestamp); //  && timestamp < claimEndTimestamp\n    // require(token.balanceOf(address(this)) >= idoers[msg.sender].panValue, \"PANIdo has invalid balance.\");\n  \t\n  \tIdoer memory idoer = idoers[msg.sender];\n  \t// idoer = idoers[msg.sender];\n  \t\n  \trequire(idoer.panValue >=10**6, \"You need deposite fund first.\");\n  \trequire(!idoer.claimed, \"You already claimed\");\n    // require(idoer.panValue >= MIN_PAN_CLAIM, \"Claim value should big than 1PAN\");\n    \n    uint value = idoer.panValue;\n    idoer.claimed = true;\n    \n    token.transfer(msg.sender, value);\n    // idoer.panValue = idoer.panValue.sub(value);\n    idoer.panValue = 0;\n    idoers[msg.sender] = idoer;\n    return true;\n  }\n\n  function isIdoEnable() public view returns(bool) {\n    uint timestamp = block.timestamp;\n    if (timestamp >= idoStartTimestamp && timestamp < idoEndTimestamp)\n      return true;\n    else\n      return false;\n  }\n\n  function isClaimEnable() public view returns(bool) {\n    uint timestamp = block.timestamp;\n    if (timestamp >= claimStartTimestamp && timestamp < claimEndTimestamp)\n      return true;\n    else\n      return false;\n  }\n\n  function getIdoRemainSupply() public view returns(uint,uint) {\n    return (remainSupply, TOTAL_ETH_SUPPLY);\n  }\n\n  function getIdoRemainEth() public view returns(uint, uint) {\n    return (idoers[msg.sender].ethValue, MAX_DEPOSITE_ETH);\n  }\n\n  function getIdoRemainPAN() public view returns(uint, uint) {\n    return (idoers[msg.sender].panValue, MAX_DEPOSITE_PAN);\n  }\n\n  function getIdoReleaseDate() public view returns(bool, uint) {\n    return (block.timestamp >= claimStartTimestamp, claimStartTimestamp);\n  }\n\n}\n",
  "sourcePath": "/Users/jilong/solidity/pantheonNFT/contracts/PantheonIDO.sol",
  "compiler": {
    "name": "solc",
    "version": "0.8.6+commit.11564f7e.Emscripten.clang"
  },
  "schemaVersion": "3.4.2",
  "updatedAt": "2021-08-24T02:05:42.804Z",
  "devdoc": {
    "kind": "dev",
    "methods": {
      "owner()": {
        "details": "Returns the address of the current owner."
      },
      "renounceOwnership()": {
        "details": "Leaves the contract without owner. It will not be possible to call `onlyOwner` functions anymore. Can only be called by the current owner. NOTE: Renouncing ownership will leave the contract without an owner, thereby removing any functionality that is only available to the owner."
      },
      "transferOwnership(address)": {
        "details": "Transfers ownership of the contract to a new account (`newOwner`). Can only be called by the current owner."
      }
    },
    "version": 1
  },
  "userdoc": {
    "kind": "user",
    "methods": {},
    "version": 1
  }
}