{
  "contractName": "PantheonPool",
  "abi": [
    {
      "inputs": [
        {
          "internalType": "contract IERC20",
          "name": "_chaAddress",
          "type": "address"
        },
        {
          "internalType": "contract IERC20",
          "name": "_usdtAddress",
          "type": "address"
        },
        {
          "internalType": "contract IERC721Card",
          "name": "_nftAddress",
          "type": "address"
        },
        {
          "internalType": "address",
          "name": "beneficancy",
          "type": "address"
        },
        {
          "internalType": "address",
          "name": "_blackholeAddress",
          "type": "address"
        },
        {
          "internalType": "address",
          "name": "_airdropAddress",
          "type": "address"
        },
        {
          "internalType": "address",
          "name": "_liquidAddress",
          "type": "address"
        },
        {
          "internalType": "uint256",
          "name": "_chaPerBlock",
          "type": "uint256"
        },
        {
          "internalType": "uint256",
          "name": "_startBlock",
          "type": "uint256"
        },
        {
          "internalType": "uint256",
          "name": "_totalReward",
          "type": "uint256"
        }
      ],
      "stateMutability": "nonpayable",
      "type": "constructor"
    },
    {
      "anonymous": false,
      "inputs": [
        {
          "indexed": true,
          "internalType": "address",
          "name": "user",
          "type": "address"
        },
        {
          "indexed": true,
          "internalType": "uint256",
          "name": "pid",
          "type": "uint256"
        },
        {
          "indexed": false,
          "internalType": "uint256",
          "name": "amount",
          "type": "uint256"
        }
      ],
      "name": "Deposit",
      "type": "event"
    },
    {
      "anonymous": false,
      "inputs": [
        {
          "indexed": true,
          "internalType": "address",
          "name": "user",
          "type": "address"
        },
        {
          "indexed": true,
          "internalType": "uint256",
          "name": "pid",
          "type": "uint256"
        },
        {
          "indexed": false,
          "internalType": "uint256",
          "name": "amount",
          "type": "uint256"
        },
        {
          "indexed": false,
          "internalType": "uint16",
          "name": "nft1",
          "type": "uint16"
        },
        {
          "indexed": false,
          "internalType": "uint16",
          "name": "nft2",
          "type": "uint16"
        },
        {
          "indexed": false,
          "internalType": "uint16",
          "name": "nft3",
          "type": "uint16"
        }
      ],
      "name": "DepositWithNFT",
      "type": "event"
    },
    {
      "anonymous": false,
      "inputs": [
        {
          "indexed": true,
          "internalType": "address",
          "name": "user",
          "type": "address"
        },
        {
          "indexed": true,
          "internalType": "uint256",
          "name": "pid",
          "type": "uint256"
        },
        {
          "indexed": false,
          "internalType": "uint256",
          "name": "amount",
          "type": "uint256"
        }
      ],
      "name": "EmergencyWithdraw",
      "type": "event"
    },
    {
      "anonymous": false,
      "inputs": [
        {
          "indexed": true,
          "internalType": "address",
          "name": "user",
          "type": "address"
        },
        {
          "indexed": true,
          "internalType": "uint256",
          "name": "pid",
          "type": "uint256"
        },
        {
          "indexed": false,
          "internalType": "uint256",
          "name": "amount",
          "type": "uint256"
        }
      ],
      "name": "Harvest",
      "type": "event"
    },
    {
      "anonymous": false,
      "inputs": [
        {
          "indexed": true,
          "internalType": "address",
          "name": "previousOwner",
          "type": "address"
        },
        {
          "indexed": true,
          "internalType": "address",
          "name": "newOwner",
          "type": "address"
        }
      ],
      "name": "OwnershipTransferred",
      "type": "event"
    },
    {
      "anonymous": false,
      "inputs": [
        {
          "indexed": true,
          "internalType": "address",
          "name": "user",
          "type": "address"
        },
        {
          "indexed": true,
          "internalType": "uint256",
          "name": "pid",
          "type": "uint256"
        },
        {
          "indexed": false,
          "internalType": "uint256",
          "name": "amount",
          "type": "uint256"
        }
      ],
      "name": "Withdraw",
      "type": "event"
    },
    {
      "inputs": [],
      "name": "BONUS_MULTIPLIER",
      "outputs": [
        {
          "internalType": "uint256",
          "name": "",
          "type": "uint256"
        }
      ],
      "stateMutability": "view",
      "type": "function"
    },
    {
      "inputs": [],
      "name": "accChaPerShare",
      "outputs": [
        {
          "internalType": "uint256",
          "name": "",
          "type": "uint256"
        }
      ],
      "stateMutability": "view",
      "type": "function"
    },
    {
      "inputs": [],
      "name": "airdropAddress",
      "outputs": [
        {
          "internalType": "address",
          "name": "",
          "type": "address"
        }
      ],
      "stateMutability": "view",
      "type": "function"
    },
    {
      "inputs": [],
      "name": "blackholeAddress",
      "outputs": [
        {
          "internalType": "address",
          "name": "",
          "type": "address"
        }
      ],
      "stateMutability": "view",
      "type": "function"
    },
    {
      "inputs": [],
      "name": "chaPerBlock",
      "outputs": [
        {
          "internalType": "uint256",
          "name": "",
          "type": "uint256"
        }
      ],
      "stateMutability": "view",
      "type": "function"
    },
    {
      "inputs": [],
      "name": "devaddr",
      "outputs": [
        {
          "internalType": "address",
          "name": "",
          "type": "address"
        }
      ],
      "stateMutability": "view",
      "type": "function"
    },
    {
      "inputs": [],
      "name": "inviteForce",
      "outputs": [
        {
          "internalType": "bool",
          "name": "",
          "type": "bool"
        }
      ],
      "stateMutability": "view",
      "type": "function"
    },
    {
      "inputs": [
        {
          "internalType": "address",
          "name": "",
          "type": "address"
        }
      ],
      "name": "inviteReward",
      "outputs": [
        {
          "internalType": "uint256",
          "name": "",
          "type": "uint256"
        }
      ],
      "stateMutability": "view",
      "type": "function"
    },
    {
      "inputs": [],
      "name": "lastRewardBlock",
      "outputs": [
        {
          "internalType": "uint256",
          "name": "",
          "type": "uint256"
        }
      ],
      "stateMutability": "view",
      "type": "function"
    },
    {
      "inputs": [],
      "name": "liquidAddress",
      "outputs": [
        {
          "internalType": "address",
          "name": "",
          "type": "address"
        }
      ],
      "stateMutability": "view",
      "type": "function"
    },
    {
      "inputs": [],
      "name": "maxInviteLayer",
      "outputs": [
        {
          "internalType": "uint8",
          "name": "",
          "type": "uint8"
        }
      ],
      "stateMutability": "view",
      "type": "function"
    },
    {
      "inputs": [
        {
          "internalType": "uint256",
          "name": "",
          "type": "uint256"
        },
        {
          "internalType": "address",
          "name": "",
          "type": "address"
        }
      ],
      "name": "minerInfo",
      "outputs": [
        {
          "internalType": "uint256",
          "name": "amount",
          "type": "uint256"
        },
        {
          "internalType": "uint256",
          "name": "power",
          "type": "uint256"
        },
        {
          "internalType": "uint256",
          "name": "endBlock",
          "type": "uint256"
        },
        {
          "internalType": "uint256",
          "name": "rewardDebt",
          "type": "uint256"
        },
        {
          "internalType": "uint256",
          "name": "nft1",
          "type": "uint256"
        },
        {
          "internalType": "uint256",
          "name": "nft2",
          "type": "uint256"
        },
        {
          "internalType": "uint256",
          "name": "nft3",
          "type": "uint256"
        }
      ],
      "stateMutability": "view",
      "type": "function"
    },
    {
      "inputs": [
        {
          "internalType": "uint256",
          "name": "",
          "type": "uint256"
        }
      ],
      "name": "nftRate",
      "outputs": [
        {
          "internalType": "uint16",
          "name": "",
          "type": "uint16"
        }
      ],
      "stateMutability": "view",
      "type": "function"
    },
    {
      "inputs": [],
      "name": "nftToken",
      "outputs": [
        {
          "internalType": "contract IERC721Card",
          "name": "",
          "type": "address"
        }
      ],
      "stateMutability": "view",
      "type": "function"
    },
    {
      "inputs": [
        {
          "internalType": "address",
          "name": "",
          "type": "address"
        },
        {
          "internalType": "address",
          "name": "",
          "type": "address"
        },
        {
          "internalType": "uint256",
          "name": "",
          "type": "uint256"
        },
        {
          "internalType": "bytes",
          "name": "",
          "type": "bytes"
        }
      ],
      "name": "onERC721Received",
      "outputs": [
        {
          "internalType": "bytes4",
          "name": "",
          "type": "bytes4"
        }
      ],
      "stateMutability": "nonpayable",
      "type": "function"
    },
    {
      "inputs": [],
      "name": "owner",
      "outputs": [
        {
          "internalType": "address",
          "name": "",
          "type": "address"
        }
      ],
      "stateMutability": "view",
      "type": "function"
    },
    {
      "inputs": [],
      "name": "panToken",
      "outputs": [
        {
          "internalType": "contract IERC20",
          "name": "",
          "type": "address"
        }
      ],
      "stateMutability": "view",
      "type": "function"
    },
    {
      "inputs": [
        {
          "internalType": "uint256",
          "name": "",
          "type": "uint256"
        }
      ],
      "name": "poolInfo",
      "outputs": [
        {
          "internalType": "contract IERC20",
          "name": "lpToken",
          "type": "address"
        },
        {
          "internalType": "bool",
          "name": "isLp",
          "type": "bool"
        },
        {
          "internalType": "uint32",
          "name": "timeBlocks",
          "type": "uint32"
        },
        {
          "internalType": "uint256",
          "name": "powerRate",
          "type": "uint256"
        }
      ],
      "stateMutability": "view",
      "type": "function"
    },
    {
      "inputs": [],
      "name": "releasedReward",
      "outputs": [
        {
          "internalType": "uint256",
          "name": "",
          "type": "uint256"
        }
      ],
      "stateMutability": "view",
      "type": "function"
    },
    {
      "inputs": [],
      "name": "renounceOwnership",
      "outputs": [],
      "stateMutability": "nonpayable",
      "type": "function"
    },
    {
      "inputs": [],
      "name": "startBlock",
      "outputs": [
        {
          "internalType": "uint256",
          "name": "",
          "type": "uint256"
        }
      ],
      "stateMutability": "view",
      "type": "function"
    },
    {
      "inputs": [],
      "name": "totalAllocPoint",
      "outputs": [
        {
          "internalType": "uint256",
          "name": "",
          "type": "uint256"
        }
      ],
      "stateMutability": "view",
      "type": "function"
    },
    {
      "inputs": [],
      "name": "totalPower",
      "outputs": [
        {
          "internalType": "uint256",
          "name": "",
          "type": "uint256"
        }
      ],
      "stateMutability": "view",
      "type": "function"
    },
    {
      "inputs": [],
      "name": "totalReward",
      "outputs": [
        {
          "internalType": "uint256",
          "name": "",
          "type": "uint256"
        }
      ],
      "stateMutability": "view",
      "type": "function"
    },
    {
      "inputs": [
        {
          "internalType": "address",
          "name": "newOwner",
          "type": "address"
        }
      ],
      "name": "transferOwnership",
      "outputs": [],
      "stateMutability": "nonpayable",
      "type": "function"
    },
    {
      "inputs": [],
      "name": "usdtToken",
      "outputs": [
        {
          "internalType": "contract IERC20",
          "name": "",
          "type": "address"
        }
      ],
      "stateMutability": "view",
      "type": "function"
    },
    {
      "inputs": [
        {
          "internalType": "address",
          "name": "",
          "type": "address"
        }
      ],
      "name": "userLevel",
      "outputs": [
        {
          "internalType": "uint8",
          "name": "",
          "type": "uint8"
        }
      ],
      "stateMutability": "view",
      "type": "function"
    },
    {
      "inputs": [
        {
          "internalType": "address",
          "name": "",
          "type": "address"
        }
      ],
      "name": "userParent",
      "outputs": [
        {
          "internalType": "address",
          "name": "",
          "type": "address"
        }
      ],
      "stateMutability": "view",
      "type": "function"
    },
    {
      "inputs": [
        {
          "internalType": "address",
          "name": "",
          "type": "address"
        }
      ],
      "name": "userPower",
      "outputs": [
        {
          "internalType": "uint256",
          "name": "",
          "type": "uint256"
        }
      ],
      "stateMutability": "view",
      "type": "function"
    },
    {
      "inputs": [],
      "name": "releaseReward2",
      "outputs": [
        {
          "internalType": "uint256",
          "name": "",
          "type": "uint256"
        }
      ],
      "stateMutability": "view",
      "type": "function"
    },
    {
      "inputs": [],
      "name": "remainReward",
      "outputs": [
        {
          "internalType": "uint256",
          "name": "",
          "type": "uint256"
        }
      ],
      "stateMutability": "view",
      "type": "function"
    },
    {
      "inputs": [],
      "name": "poolLength",
      "outputs": [
        {
          "internalType": "uint256",
          "name": "",
          "type": "uint256"
        }
      ],
      "stateMutability": "view",
      "type": "function"
    },
    {
      "inputs": [
        {
          "internalType": "uint256",
          "name": "_powerRate",
          "type": "uint256"
        },
        {
          "internalType": "contract IERC20",
          "name": "_token",
          "type": "address"
        },
        {
          "internalType": "bool",
          "name": "_isLp",
          "type": "bool"
        },
        {
          "internalType": "uint32",
          "name": "timeBlocks",
          "type": "uint32"
        },
        {
          "internalType": "bool",
          "name": "_withUpdate",
          "type": "bool"
        }
      ],
      "name": "addPool",
      "outputs": [],
      "stateMutability": "nonpayable",
      "type": "function"
    },
    {
      "inputs": [
        {
          "internalType": "uint256",
          "name": "_pid",
          "type": "uint256"
        },
        {
          "internalType": "uint256",
          "name": "_powerRate",
          "type": "uint256"
        },
        {
          "internalType": "bool",
          "name": "_withUpdate",
          "type": "bool"
        }
      ],
      "name": "setPool",
      "outputs": [],
      "stateMutability": "nonpayable",
      "type": "function"
    },
    {
      "inputs": [
        {
          "internalType": "address",
          "name": "parent",
          "type": "address"
        }
      ],
      "name": "setInvite",
      "outputs": [],
      "stateMutability": "nonpayable",
      "type": "function"
    },
    {
      "inputs": [
        {
          "internalType": "bool",
          "name": "enable",
          "type": "bool"
        }
      ],
      "name": "setInviteEnable",
      "outputs": [],
      "stateMutability": "nonpayable",
      "type": "function"
    },
    {
      "inputs": [
        {
          "internalType": "uint8",
          "name": "layer",
          "type": "uint8"
        }
      ],
      "name": "setMaxInviteLayer",
      "outputs": [],
      "stateMutability": "nonpayable",
      "type": "function"
    },
    {
      "inputs": [
        {
          "internalType": "address",
          "name": "addr",
          "type": "address"
        }
      ],
      "name": "getInviteInfo",
      "outputs": [
        {
          "internalType": "uint16",
          "name": "",
          "type": "uint16"
        },
        {
          "internalType": "uint256",
          "name": "",
          "type": "uint256"
        },
        {
          "internalType": "uint256",
          "name": "",
          "type": "uint256"
        },
        {
          "internalType": "address",
          "name": "",
          "type": "address"
        }
      ],
      "stateMutability": "view",
      "type": "function"
    },
    {
      "inputs": [
        {
          "internalType": "uint256",
          "name": "_from",
          "type": "uint256"
        },
        {
          "internalType": "uint256",
          "name": "_to",
          "type": "uint256"
        }
      ],
      "name": "getMultiplier",
      "outputs": [
        {
          "internalType": "uint256",
          "name": "",
          "type": "uint256"
        }
      ],
      "stateMutability": "pure",
      "type": "function"
    },
    {
      "inputs": [
        {
          "internalType": "uint256",
          "name": "_pid",
          "type": "uint256"
        },
        {
          "internalType": "address",
          "name": "_user",
          "type": "address"
        }
      ],
      "name": "pendingReward",
      "outputs": [
        {
          "internalType": "uint256",
          "name": "",
          "type": "uint256"
        }
      ],
      "stateMutability": "view",
      "type": "function"
    },
    {
      "inputs": [],
      "name": "updateReward",
      "outputs": [],
      "stateMutability": "nonpayable",
      "type": "function"
    },
    {
      "inputs": [
        {
          "internalType": "uint256",
          "name": "_pid",
          "type": "uint256"
        },
        {
          "internalType": "uint256",
          "name": "_amount",
          "type": "uint256"
        }
      ],
      "name": "deposit",
      "outputs": [
        {
          "internalType": "bool",
          "name": "",
          "type": "bool"
        }
      ],
      "stateMutability": "nonpayable",
      "type": "function"
    },
    {
      "inputs": [
        {
          "internalType": "uint256",
          "name": "_pid",
          "type": "uint256"
        },
        {
          "internalType": "uint256",
          "name": "_amount",
          "type": "uint256"
        },
        {
          "internalType": "uint16",
          "name": "nft1",
          "type": "uint16"
        },
        {
          "internalType": "uint16",
          "name": "nft2",
          "type": "uint16"
        },
        {
          "internalType": "uint16",
          "name": "nft3",
          "type": "uint16"
        }
      ],
      "name": "depositWithNFT",
      "outputs": [],
      "stateMutability": "nonpayable",
      "type": "function"
    },
    {
      "inputs": [
        {
          "internalType": "uint256",
          "name": "_pid",
          "type": "uint256"
        }
      ],
      "name": "harvest",
      "outputs": [],
      "stateMutability": "nonpayable",
      "type": "function"
    },
    {
      "inputs": [
        {
          "internalType": "uint256",
          "name": "_pid",
          "type": "uint256"
        },
        {
          "internalType": "uint256",
          "name": "_amount",
          "type": "uint256"
        }
      ],
      "name": "withdraw",
      "outputs": [],
      "stateMutability": "nonpayable",
      "type": "function"
    },
    {
      "inputs": [
        {
          "internalType": "uint256",
          "name": "_pid",
          "type": "uint256"
        }
      ],
      "name": "emergencyWithdraw",
      "outputs": [],
      "stateMutability": "nonpayable",
      "type": "function"
    }
  ],
  "bytecode": "0x61012060405260646080908152609660a05261012c60c05261025860e0526105dc6101005262000033906005908162000601565b506000600660006101000a81548160ff021916908315150217905550600a600660016101000a81548160ff021916908360ff160217905550604051806101200160405280604051806101400160405280600560ff168152602001600060ff168152602001600060ff168152602001600060ff168152602001600060ff168152602001600060ff168152602001600060ff168152602001600060ff168152602001600060ff168152602001600060ff168152508152602001604051806101400160405280600860ff168152602001600560ff168152602001600060ff168152602001600060ff168152602001600060ff168152602001600060ff168152602001600060ff168152602001600060ff168152602001600060ff168152602001600060ff168152508152602001604051806101400160405280600a60ff168152602001600660ff168152602001600460ff168152602001600260ff168152602001600060ff168152602001600060ff168152602001600060ff168152602001600060ff168152602001600060ff168152602001600060ff168152508152602001604051806101400160405280600c60ff168152602001600860ff168152602001600660ff168152602001600460ff168152602001600260ff168152602001600260ff168152602001600060ff168152602001600060ff168152602001600060ff168152602001600060ff168152508152602001604051806101400160405280600e60ff168152602001600a60ff168152602001600860ff168152602001600660ff168152602001600460ff168152602001600260ff168152602001600260ff168152602001600260ff168152602001600060ff168152602001600060ff168152508152602001604051806101400160405280601060ff168152602001600c60ff168152602001600a60ff168152602001600860ff168152602001600660ff168152602001600460ff168152602001600260ff168152602001600260ff168152602001600260ff168152602001600260ff168152508152602001604051806101400160405280601260ff168152602001600e60ff168152602001600c60ff168152602001600a60ff168152602001600860ff168152602001600660ff168152602001600460ff168152602001600260ff168152602001600260ff168152602001600260ff168152508152602001604051806101400160405280601460ff168152602001601060ff168152602001600e60ff168152602001600c60ff168152602001600a60ff168152602001600860ff168152602001600660ff168152602001600460ff168152602001600260ff168152602001600260ff168152508152602001604051806101400160405280601660ff168152602001601260ff168152602001601060ff168152602001600e60ff168152602001600c60ff168152602001600a60ff168152602001600860ff168152602001600660ff168152602001600460ff168152602001600260ff16815250815250601490600962000492929190620006b1565b506000601655348015620004a557600080fd5b5060405162003a4e38038062003a4e833981016040819052620004c89162000806565b620004d333620005b1565b6006805462010000600160b01b031916620100006001600160a01b038d81169190910291909117909155600780546001600160a01b03199081168c841617909155600980548216898416179055600a80548216888416179055600b80548216878416179055600e8590556017849055600c83905560018054909116918a1691909117905543821062000568576017546200056a565b435b600255505033600090815260116020526040812080546001600160a01b0319166001600160a01b03979097169690961790955550505060049190915550620008e692505050565b600080546001600160a01b038381166001600160a01b0319831681178455604051919092169283917f8be0079c531659141344cd1fd0a4f28419497f9722a3daafe3b4186f6b6457e09190a35050565b82805482825590600052602060002090600f016010900481019282156200069f5791602002820160005b838211156200066d57835183826101000a81548161ffff021916908361ffff16021790555092602001926002016020816001010492830192600103026200062b565b80156200069d5782816101000a81549061ffff02191690556002016020816001010492830192600103026200066d565b505b50620006ad9291506200070b565b5090565b828054828255906000526020600020908101928215620006fd579160200282015b82811115620006fd578251620006ec908390600a62000722565b5091602001919060010190620006d2565b50620006ad929150620007bb565b5b80821115620006ad57600081556001016200070c565b82805482825590600052602060002090601f016020900481019282156200069f5791602002820160005b838211156200078c57835183826101000a81548160ff021916908360ff16021790555092602001926001016020816000010492830192600103026200074c565b80156200069d5782816101000a81549060ff02191690556001016020816000010492830192600103026200078c565b80821115620006ad576000620007d28282620007dc565b50600101620007bb565b50805460008255601f0160209004906000526020600020908101906200080391906200070b565b50565b6000806000806000806000806000806101408b8d0312156200082757600080fd5b8a516200083481620008d0565b60208c0151909a506200084781620008d0565b60408c01519099506200085a81620008d0565b60608c01519098506200086d81620008d0565b60808c01519097506200088081620008d0565b60a08c01519096506200089381620008d0565b60c08c0151909550620008a681620008d0565b8094505060e08b015192506101008b015191506101208b015190509295989b9194979a5092959850565b6001600160a01b03811681146200080357600080fd5b61315880620008f66000396000f3fe608060405234801561001057600080fd5b506004361061028a5760003560e01c8063715018a61161015c578063a9f8d181116100ce578063e2bbb15811610087578063e2bbb158146106f5578063e92fa01f14610708578063f0884f9f1461071b578063f2fde38b1461073b578063f36c0a721461074e578063f53f8e941461075657600080fd5b8063a9f8d18114610697578063d06fcba8146106a0578063d49e77cd146106b3578063db3ad22c146106c6578063ddc63262146106cf578063dea4d678146106e257600080fd5b80638aa28550116101205780638aa285501461063c5780638da5cb5b146106445780638dbb1e3a1461065557806398969e8214610668578063a0f015ab1461067b578063a98ad46c1461068457600080fd5b8063715018a6146105fc578063750142e6146106045780637d515a101461060d5780638043c10c1461062057806384413b651461062957600080fd5b80634569d415116102005780635312ea8e116101b95780635312ea8e1461058257806354ce5f56146105955780635cab2c08146105b25780635e490652146105c557806360fc9c42146105cd5780636c18005b146105f357600080fd5b80634569d4151461048657806345d3f197146104b057806346ca6bea146105335780634713b7841461054657806348cd4cb1146105595780634d6e34521461056257600080fd5b806317caf6f11161025257806317caf6f11461036e5780632613f87d14610377578063280e31cc1461039a5780634294c09b146103cf57806342f2ca02146103e1578063441a3e701461047357600080fd5b8063081e3eda1461028f5780630dfcaac6146102a65780631485ff78146102e7578063150b7a02146102ef5780631526fe2714610326575b600080fd5b600f545b6040519081526020015b60405180910390f35b6102cf6102b4366004612bf4565b6011602052600090815260409020546001600160a01b031681565b6040516001600160a01b03909116815260200161029d565b61029361076f565b61030d6102fd366004612c2e565b630a85bd0160e11b949350505050565b6040516001600160e01b0319909116815260200161029d565b610339610334366004612d48565b610786565b604080516001600160a01b039095168552921515602085015263ffffffff90911691830191909152606082015260800161029d565b61029360165481565b610398610385366004612d0e565b6006805460ff1916911515919091179055565b005b6103bd6103a8366004612bf4565b60126020526000908152604090205460ff1681565b60405160ff909116815260200161029d565b6006546103bd90610100900460ff1681565b61043e6103ef366004612d7a565b6015602052816000526040600020602052806000526040600020600091509150508060000154908060010154908060020154908060030154908060040154908060050154908060060154905087565b604080519788526020880196909652948601939093526060850191909152608084015260a083015260c082015260e00161029d565b610398610481366004612e1b565b6107d6565b610398610494366004612ecd565b6006805460ff9092166101000261ff0019909216919091179055565b6105056104be366004612bf4565b6001600160a01b03808216600090815260126020908152604080832054601083528184205460138452828520546011909452919093205460ff909316939092169193509193565b6040805161ffff90951685526020850193909352918301526001600160a01b0316606082015260800161029d565b610398610541366004612e3d565b610cbf565b600b546102cf906001600160a01b031681565b61029360175481565b610293610570366004612bf4565b60106020526000908152604090205481565b610398610590366004612d48565b610d25565b6006546105a29060ff1681565b604051901515815260200161029d565b6103986105c0366004612bf4565b610f40565b610293611049565b6105e06105db366004612d48565b61106b565b60405161ffff909116815260200161029d565b61029360035481565b6103986110a3565b610293600c5481565b6009546102cf906001600160a01b031681565b610293600d5481565b600a546102cf906001600160a01b031681565b610293600a81565b6000546001600160a01b03166102cf565b610293610663366004612e1b565b6110d9565b610293610676366004612d7a565b6110ee565b610293600e5481565b6007546102cf906001600160a01b031681565b61029360025481565b6001546102cf906001600160a01b031681565b6008546102cf906001600160a01b031681565b61029360045481565b6103986106dd366004612d48565b6111d2565b6103986106f0366004612e76565b6112d5565b6105a2610703366004612e1b565b611cbc565b610398610716366004612daa565b612057565b610293610729366004612bf4565b60136020526000908152604090205481565b610398610749366004612bf4565b612167565b6103986121ff565b6006546102cf906201000090046001600160a01b031681565b6000600d54600c546107819190613021565b905090565b600f818154811061079657600080fd5b6000918252602090912060029091020180546001909101546001600160a01b0382169250600160a01b820460ff1691600160a81b900463ffffffff169084565b6000600f83815481106107eb576107eb6130c4565b600091825260208083208684526015825260408085203386529092529220805460029092029092019250831061085d5760405162461bcd60e51b81526020600482015260126024820152711dda5d1a191c985dce881b9bdd0819dbdbd960721b60448201526064015b60405180910390fd5b6000600354116108b95760405162461bcd60e51b815260206004820152602160248201527f61636343686150657253686172652073686f756c64206e6f74206265207a65726044820152606f60f81b6064820152608401610854565b438160020154111561090d5760405162461bcd60e51b815260206004820181905260248201527f43616e6e6f7420776974686472617720776974682064617973206c696d69742e6044820152606401610854565b6109156121ff565b600380820154905482546109399164e8d4a510009161093391612305565b90612311565b111561097f576000610971826003015461096b64e8d4a51000610933600354876000015461230590919063ffffffff16565b9061231d565b905061097d3382612329565b505b8154600160a01b900460ff1615610a345760075481546001600160a01b039091169063a9059cbb9033906109b4906004612311565b6040516001600160e01b031960e085901b1681526001600160a01b0390921660048301526024820152604401602060405180830381600087803b1580156109fa57600080fd5b505af1158015610a0e573d6000803e3d6000fd5b505050506040513d601f19601f82011682018060405250810190610a329190612d2b565b505b815460405163a9059cbb60e01b8152336004820152602481018590526001600160a01b039091169063a9059cbb90604401602060405180830381600087803b158015610a7f57600080fd5b505af1158015610a93573d6000803e3d6000fd5b505050506040513d601f19601f82011682018060405250810190610ab79190612d2b565b50600481015415610b2b57600154600480830154604051632142170760e11b81526001600160a01b03909316926342842e0e92610af8923092339201612f4a565b600060405180830381600087803b158015610b1257600080fd5b505af1158015610b26573d6000803e3d6000fd5b505050505b600581015415610b9f576001546005820154604051632142170760e11b81526001600160a01b03909216916342842e0e91610b6c9130913391600401612f4a565b600060405180830381600087803b158015610b8657600080fd5b505af1158015610b9a573d6000803e3d6000fd5b505050505b600681015415610c13576001546006820154604051632142170760e11b81526001600160a01b03909216916342842e0e91610be09130913391600401612f4a565b600060405180830381600087803b158015610bfa57600080fd5b505af1158015610c0e573d6000803e3d6000fd5b505050505b6001810154600454610c249161231d565b600455600181015433600090815260106020526040902054610c459161231d565b336000818152601060205260408082209390935560018401819055808455600484018190556005840181905560068401819055600384015590518591907ff279e6a1f5e320cca91135676d9cb6e44ca8a08c0b88342bcdb1144f6511b56890610cb19087815260200190565b60405180910390a350505050565b6000546001600160a01b03163314610ce95760405162461bcd60e51b815260040161085490612fa1565b8015610cf757610cf76121ff565b81600f8481548110610d0b57610d0b6130c4565b906000526020600020906002020160010181905550505050565b6000600f8281548110610d3a57610d3a6130c4565b600091825260208083208584526015825260408085203386529092529220600281810154920290920192504311610db35760405162461bcd60e51b815260206004820181905260248201527f43616e6e6f7420776974686472617720776974682064617973206c696d69742e6044820152606401610854565b80548254610dce916001600160a01b0390911690339061268e565b8154600160a01b900460ff1615610e835760075481546001600160a01b039091169063a9059cbb903390610e03906004612311565b6040516001600160e01b031960e085901b1681526001600160a01b0390921660048301526024820152604401602060405180830381600087803b158015610e4957600080fd5b505af1158015610e5d573d6000803e3d6000fd5b505050506040513d601f19601f82011682018060405250810190610e819190612d2b565b505b8054604051908152839033907fbb757047c2b5f3974fe26b7c10f732e7bce710b0952a71082702781e62ae05959060200160405180910390a3600181015433600090815260106020526040902054610eda9161231d565b336000908152601060205260409020819055610ef5906126f1565b336000908152601260205260409020805460ff191660ff929092169190911790556001810154600454610f279161231d565b6004556000808255600382018190556001909101555050565b6001600160a01b0381811660009081526011602052604090205416610fa75760405162461bcd60e51b815260206004820152601e60248201527f506172656e742073686f756c6420626520696e766974652066697273742e00006044820152606401610854565b6001600160a01b0381163314156110005760405162461bcd60e51b815260206004820152601c60248201527f506172656e742073686f756c64206e6f7420626520697473656c662e000000006044820152606401610854565b336000908152601160205260409020546001600160a01b03166110465733600090815260116020526040902080546001600160a01b0319166001600160a01b0383161790555b50565b600061078164e8d4a5100061093360035460045461230590919063ffffffff16565b6005818154811061107b57600080fd5b9060005260206000209060109182820401919006600202915054906101000a900461ffff1681565b6000546001600160a01b031633146110cd5760405162461bcd60e51b815260040161085490612fa1565b6110d7600061277f565b565b60006110e5828461231d565b90505b92915050565b60008281526015602090815260408083206001600160a01b0385168452909152812060035460028201544390811115611128575060028201545b6002548111801561113a575060045415155b156111c657600061114d600254836110d9565b90506000611166600e548361230590919063ffffffff16565b905061119061118960045461093364e8d4a510008561230590919063ffffffff16565b85906127cf565b93506111ba856003015461096b64e8d4a51000610933888a6001015461230590919063ffffffff16565b955050505050506110e8565b50600095945050505050565b600081815260156020908152604080832033845290915290206111f36121ff565b600061121f826003015461096b64e8d4a51000610933600354876001015461230590919063ffffffff16565b9050600081116112685760405162461bcd60e51b81526020600482015260146024820152731a185c9d995cdd0e881b9bdb99481c995dd85c9960621b6044820152606401610854565b6112723382612329565b61129464e8d4a51000610933600354856001015461230590919063ffffffff16565b6003830155604051818152839033907f71bab65ced2e5750775a0613be067df48ef06cf92a496ebf7663ae06609249549060200160405180910390a3505050565b6000600f86815481106112ea576112ea6130c4565b60009182526020808320898452601582526040808520338652835293849020845160e08101865281548152600182015493810193909352600280820154958401959095526003810154606084015260048101546080840152600581015460a08401526006015460c0830152919092020191506113646121ff565b8051156113a5576000611397826060015161096b64e8d4a51000610933600354876020015161230590919063ffffffff16565b90506113a33382612329565b505b81546040516323b872dd60e01b81526001600160a01b03909116906323b872dd906113d890339030908b90600401612f4a565b602060405180830381600087803b1580156113f257600080fd5b505af1158015611406573d6000803e3d6000fd5b505050506040513d601f19601f8201168201806040525081019061142a9190612d2b565b508154600160a01b900460ff16156114cc576007546001600160a01b03166323b872dd333061145a8a6004612311565b6040518463ffffffff1660e01b815260040161147893929190612f4a565b602060405180830381600087803b15801561149257600080fd5b505af11580156114a6573d6000803e3d6000fd5b505050506040513d601f19601f820116820180604052508101906114ca9190612d2b565b505b80516114d890876127cf565b815260018201546000908190819061ffff89161580159061157e57506001546040516331a9108f60e11b815261ffff8b16600482015233916001600160a01b031690636352211e9060240160206040518083038186803b15801561153b57600080fd5b505afa15801561154f573d6000803e3d6000fd5b505050506040513d601f19601f820116820180604052508101906115739190612c11565b6001600160a01b0316145b156116ac576001546040516336af181960e11b815261ffff8b1660048201526001600160a01b0390911690636d5e30329060240160206040518083038186803b1580156115ca57600080fd5b505afa1580156115de573d6000803e3d6000fd5b505050506040513d601f19601f820116820180604052508101906116029190612eea565b60ff1693506005848154811061161a5761161a6130c4565b6000918252602090912060108204015461164491600f166002026101000a900461ffff1682612fd6565b600154604051632142170760e11b81529192506001600160a01b0316906342842e0e9061167990339030908e90600401612f23565b600060405180830381600087803b15801561169357600080fd5b505af11580156116a7573d6000803e3d6000fd5b505050505b60008861ffff1611801561174557506001546040516331a9108f60e11b815261ffff8a16600482015233916001600160a01b031690636352211e9060240160206040518083038186803b15801561170257600080fd5b505afa158015611716573d6000803e3d6000fd5b505050506040513d601f19601f8201168201806040525081019061173a9190612c11565b6001600160a01b0316145b15611873576001546040516336af181960e11b815261ffff8a1660048201526001600160a01b0390911690636d5e30329060240160206040518083038186803b15801561179157600080fd5b505afa1580156117a5573d6000803e3d6000fd5b505050506040513d601f19601f820116820180604052508101906117c99190612eea565b60ff169250600583815481106117e1576117e16130c4565b6000918252602090912060108204015461180b91600f166002026101000a900461ffff1682612fd6565b600154604051632142170760e11b81529192506001600160a01b0316906342842e0e9061184090339030908d90600401612f23565b600060405180830381600087803b15801561185a57600080fd5b505af115801561186e573d6000803e3d6000fd5b505050505b60008761ffff1611801561190c57506001546040516331a9108f60e11b815261ffff8916600482015233916001600160a01b031690636352211e9060240160206040518083038186803b1580156118c957600080fd5b505afa1580156118dd573d6000803e3d6000fd5b505050506040513d601f19601f820116820180604052508101906119019190612c11565b6001600160a01b0316145b15611a3a576001546040516336af181960e11b815261ffff891660048201526001600160a01b0390911690636d5e30329060240160206040518083038186803b15801561195857600080fd5b505afa15801561196c573d6000803e3d6000fd5b505050506040513d601f19601f820116820180604052508101906119909190612eea565b60ff169150600582815481106119a8576119a86130c4565b600091825260209091206010820401546119d291600f166002026101000a900461ffff1682612fd6565b600154604051632142170760e11b81529192506001600160a01b0316906342842e0e90611a0790339030908c90600401612f23565b600060405180830381600087803b158015611a2157600080fd5b505af1158015611a35573d6000803e3d6000fd5b505050505b8284148015611a4857508183145b8015611a5e5750600a611a596127db565b60ff16105b15611ac3578360021415611a8a57600a611a7982600d613002565b611a839190612fee565b9050611ac3565b8360031415611aa057600a611a7982600f613002565b8360041415611ac357600a611ab6826014613002565b611ac09190612fee565b90505b6000611ad56103e86109338d85612305565b6020870151909150611ae790826127cf565b6020870152600454611af990826127cf565b60045533600090815260106020526040902054611b1690826127cf565b3360009081526010602052604090205586544390611b4690829063ffffffff600160a81b9091048116906127cf16565b60408089019190915261ffff808d1660808a01528b811660a08a01528a1660c089015233600090815260106020522054611b7f906126f1565b336000908152601260209081526040909120805460ff191660ff939093169290921790915560035490880151611bbf9164e8d4a510009161093391612305565b87606001818152505086601560008f81526020019081526020016000206000336001600160a01b03166001600160a01b03168152602001908152602001600020600082015181600001556020820151816001015560408201518160020155606082015181600301556080820151816004015560a0820151816005015560c082015181600601559050508c336001600160a01b03167f12683d1bce24a39469d43b532a00fb65c26276ed57dbd35b204c720380597f7e8e8e8e8e604051611ca5949392919093845261ffff9283166020850152908216604084015216606082015260800190565b60405180910390a350505050505050505050505050565b600080600f8481548110611cd257611cd26130c4565b60009182526020808320878452601582526040808520338652835293849020845160e08101865281548152600182015493810193909352600280820154958401959095526003810154606084015260048101546080840152600581015460a08401526006015460c083015291909202019150611d4c6121ff565b60065460ff16151560011415611dc157336000908152601160205260409020546001600160a01b0316611dc15760405162461bcd60e51b815260206004820152601a60248201527f596f75206e65656420626520696e76697465642066697273742e0000000000006044820152606401610854565b805115611e02576000611df4826060015161096b64e8d4a51000610933600354876020015161230590919063ffffffff16565b9050611e003382612329565b505b81546040516323b872dd60e01b81526001600160a01b03909116906323b872dd90611e3590339030908990600401612f4a565b602060405180830381600087803b158015611e4f57600080fd5b505af1158015611e63573d6000803e3d6000fd5b505050506040513d601f19601f82011682018060405250810190611e879190612d2b565b508154600160a01b900460ff1615611ebd57611ebd3330611ea9876004612311565b6007546001600160a01b031692919061281e565b8051611ec990856127cf565b81526001820154600090611ee6906103e890610933908890612305565b6020830151909150611ef890826127cf565b6020830152600454611f0a90826127cf565b60045533600090815260106020526040902054611f2790826127cf565b3360009081526010602052604090205582544390611f5790829063ffffffff600160a81b9091048116906127cf16565b60408085019190915233600090815260106020522054611f76906126f1565b336000908152601260209081526040909120805460ff191660ff939093169290921790915560035490840151611fb69164e8d4a510009161093391612305565b606084019081526000888152601560209081526040808320338085529083529281902087518155828801516001820155818801516002820155935160038501556080870151600485015560a0870151600585015560c0870151600690940193909355915188815289927f90890809c654f11d6e72a28fa60149770a0d11ec6c92319d6ceb2bb0a4ea1a15910160405180910390a35060019695505050505050565b6000546001600160a01b031633146120815760405162461bcd60e51b815260040161085490612fa1565b801561208f5761208f6121ff565b50604080516080810182526001600160a01b0394851681529215156020840190815263ffffffff92831691840191825260608401958652600f8054600181018255600091909152935160029094027f8d1108e10bcb7c27dddfc02ed9d693a074039d026cf4ea4240b40f7d581ac8028101805492519351909416600160a81b0263ffffffff60a81b19931515600160a01b026001600160a81b0319909316959096169490941717169290921790915590517f8d1108e10bcb7c27dddfc02ed9d693a074039d026cf4ea4240b40f7d581ac80390910155565b6000546001600160a01b031633146121915760405162461bcd60e51b815260040161085490612fa1565b6001600160a01b0381166121f65760405162461bcd60e51b815260206004820152602660248201527f4f776e61626c653a206e6577206f776e657220697320746865207a65726f206160448201526564647265737360d01b6064820152608401610854565b6110468161277f565b6000612218600d54600c5461231d90919063ffffffff16565b9050600254431115801561222a575080155b156122325750565b600454612240575043600255565b4360025411156122925760405162461bcd60e51b815260206004820152601960248201527f6c617374526577617264426c6f636b206e6f742076616c6964000000000000006044820152606401610854565b60006122a0600254436110d9565b905060006122b9600e548361230590919063ffffffff16565b9050808310156122c65750815b600d546122d390826127cf565b600d556004546122f9906122f0906109338464e8d4a51000612305565b600354906127cf565b60035550504360025550565b60006110e58284613002565b60006110e58284612fee565b60006110e58284613021565b6006546040516370a0823160e01b81523060048201526000916201000090046001600160a01b0316906370a082319060240160206040518083038186803b15801561237357600080fd5b505afa158015612387573d6000803e3d6000fd5b505050506040513d601f19601f820116820180604052508101906123ab9190612d61565b9050808211156123b9578091505b6006546009546001600160a01b036201000090920482169163a9059cbb91166123e86064610933876005612305565b6040516001600160e01b031960e085901b1681526001600160a01b0390921660048301526024820152604401602060405180830381600087803b15801561242e57600080fd5b505af1158015612442573d6000803e3d6000fd5b505050506040513d601f19601f820116820180604052508101906124669190612d2b565b50600654600a546001600160a01b036201000090920482169163a9059cbb91166124966064610933876004612305565b6040516001600160e01b031960e085901b1681526001600160a01b0390921660048301526024820152604401602060405180830381600087803b1580156124dc57600080fd5b505af11580156124f0573d6000803e3d6000fd5b505050506040513d601f19601f820116820180604052508101906125149190612d2b565b50600654600b546001600160a01b036201000090920482169163a9059cbb91166125446064610933876004612305565b6040516001600160e01b031960e085901b1681526001600160a01b0390921660048301526024820152604401602060405180830381600087803b15801561258a57600080fd5b505af115801561259e573d6000803e3d6000fd5b505050506040513d601f19601f820116820180604052508101906125c29190612d2b565b506006546201000090046001600160a01b031663a9059cbb846125f56125ee606461093388600d612305565b869061231d565b6040516001600160e01b031960e085901b1681526001600160a01b0390921660048301526024820152604401602060405180830381600087803b15801561263b57600080fd5b505af115801561264f573d6000803e3d6000fd5b505050506040513d601f19601f820116820180604052508101906126739190612d2b565b5060065460ff1615612689576126898383612845565b505050565b6040516001600160a01b03831660248201526044810182905261268990849063a9059cbb60e01b906064015b60408051601f198184030181529190526020810180516001600160e01b03166001600160e01b031990931692909217909152612991565b60008061270683670de0b6b3a7640000612311565b925061c3508310156127425750600361753083101561273d5750600261271083101561273d5750600161138883101561273d575060005b6110e8565b506004620186a083106110e857506005620249f083106110e85750600662030d4083106110e857506007620493e083106110e85750600892915050565b600080546001600160a01b038381166001600160a01b0319831681178455604051919092169283917f8be0079c531659141344cd1fd0a4f28419497f9722a3daafe3b4186f6b6457e09190a35050565b60006110e58284612fd6565b6000606442446040516020016127fb929190918252602082015260400190565b6040516020818303038152906040528051906020012060001c6107819190613084565b61283f846323b872dd60e01b8585856040516024016126ba93929190612f4a565b50505050565b60005b60065460ff61010090910481169082161015612689576001600160a01b0380841660009081526011602052604090205416801580156128985750836001600160a01b0316816001600160a01b0316145b156128a35750505050565b6001600160a01b0381166000908152601260205260408120546014805460ff9092169291839081106128d7576128d76130c4565b906000526020600020018460ff16815481106128f5576128f56130c4565b60009182526020918290209181049091015460ff601f9092166101000a90041690508061292457505050505050565b600061293860646109338860ff8616612305565b6001600160a01b03851660009081526013602052604090205490915061295e90826127cf565b6001600160a01b03851660009081526013602052604090205550919450829150612989905081613064565b915050612848565b60006129e6826040518060400160405280602081526020017f5361666545524332303a206c6f772d6c6576656c2063616c6c206661696c6564815250856001600160a01b0316612a639092919063ffffffff16565b8051909150156126895780806020019051810190612a049190612d2b565b6126895760405162461bcd60e51b815260206004820152602a60248201527f5361666545524332303a204552433230206f7065726174696f6e20646964206e6044820152691bdd081cdd58d8d9595960b21b6064820152608401610854565b6060612a728484600085612a7c565b90505b9392505050565b606082471015612add5760405162461bcd60e51b815260206004820152602660248201527f416464726573733a20696e73756666696369656e742062616c616e636520666f6044820152651c8818d85b1b60d21b6064820152608401610854565b843b612b2b5760405162461bcd60e51b815260206004820152601d60248201527f416464726573733a2063616c6c20746f206e6f6e2d636f6e74726163740000006044820152606401610854565b600080866001600160a01b03168587604051612b479190612f07565b60006040518083038185875af1925050503d8060008114612b84576040519150601f19603f3d011682016040523d82523d6000602084013e612b89565b606091505b5091509150612b99828286612ba4565b979650505050505050565b60608315612bb3575081612a75565b825115612bc35782518084602001fd5b8160405162461bcd60e51b81526004016108549190612f6e565b803561ffff81168114612bef57600080fd5b919050565b600060208284031215612c0657600080fd5b8135612a75816130f0565b600060208284031215612c2357600080fd5b8151612a75816130f0565b60008060008060808587031215612c4457600080fd5b8435612c4f816130f0565b93506020850135612c5f816130f0565b925060408501359150606085013567ffffffffffffffff80821115612c8357600080fd5b818701915087601f830112612c9757600080fd5b813581811115612ca957612ca96130da565b604051601f8201601f19908116603f01168101908382118183101715612cd157612cd16130da565b816040528281528a6020848701011115612cea57600080fd5b82602086016020830137600060208483010152809550505050505092959194509250565b600060208284031215612d2057600080fd5b8135612a7581613105565b600060208284031215612d3d57600080fd5b8151612a7581613105565b600060208284031215612d5a57600080fd5b5035919050565b600060208284031215612d7357600080fd5b5051919050565b60008060408385031215612d8d57600080fd5b823591506020830135612d9f816130f0565b809150509250929050565b600080600080600060a08688031215612dc257600080fd5b853594506020860135612dd4816130f0565b93506040860135612de481613105565b9250606086013563ffffffff81168114612dfd57600080fd5b91506080860135612e0d81613105565b809150509295509295909350565b60008060408385031215612e2e57600080fd5b50508035926020909101359150565b600080600060608486031215612e5257600080fd5b83359250602084013591506040840135612e6b81613105565b809150509250925092565b600080600080600060a08688031215612e8e57600080fd5b8535945060208601359350612ea560408701612bdd565b9250612eb360608701612bdd565b9150612ec160808701612bdd565b90509295509295909350565b600060208284031215612edf57600080fd5b8135612a7581613113565b600060208284031215612efc57600080fd5b8151612a7581613113565b60008251612f19818460208701613038565b9190910192915050565b6001600160a01b03938416815291909216602082015261ffff909116604082015260600190565b6001600160a01b039384168152919092166020820152604081019190915260600190565b6020815260008251806020840152612f8d816040850160208701613038565b601f01601f19169190910160400192915050565b6020808252818101527f4f776e61626c653a2063616c6c6572206973206e6f7420746865206f776e6572604082015260600190565b60008219821115612fe957612fe9613098565b500190565b600082612ffd57612ffd6130ae565b500490565b600081600019048311821515161561301c5761301c613098565b500290565b60008282101561303357613033613098565b500390565b60005b8381101561305357818101518382015260200161303b565b8381111561283f5750506000910152565b600060ff821660ff81141561307b5761307b613098565b60010192915050565b600082613093576130936130ae565b500690565b634e487b7160e01b600052601160045260246000fd5b634e487b7160e01b600052601260045260246000fd5b634e487b7160e01b600052603260045260246000fd5b634e487b7160e01b600052604160045260246000fd5b6001600160a01b038116811461104657600080fd5b801515811461104657600080fd5b60ff8116811461104657600080fdfea2646970667358221220ebc1bf1027b2fa12d9585cb1e83ddf0e6b1fb1bd8c0d82881e2dde6471c1de9464736f6c63430008060033",
  "immutableReferences": {},
  "source": "// SPDX-License-Identifier: MIT\npragma solidity ^0.8.0;\n\nimport \"./utils/math/SafeMath.sol\";\nimport \"./utils/Address.sol\";\nimport \"./access/Ownable.sol\";\n\nimport \"./token/ERC721/IERC721.sol\";\nimport \"./token/ERC721/IERC721Card.sol\";\nimport \"./token/ERC20/IERC20.sol\";\nimport \"./token/ERC721/utils/ERC721Holder.sol\";\nimport \"./token/ERC20/utils/SafeERC20.sol\";\n\ninterface IMigratorChef {\n    // Perform LP token migration from legacy UniswapV2 to ChaSwap.\n    // Take the current LP token address and return the new LP token address.\n    // Migrator should have full access to the caller's LP token.\n    // Return the new LP token address.\n    //\n    // XXX Migrator must have allowance access to UniswapV2 LP tokens.\n    // ChaSwap must mint EXACTLY the same amount of ChaSwap LP tokens or\n    // else something bad will happen. Traditional UniswapV2 does not\n    // do that so be careful!\n    function migrate(IERC20 token) external returns (IERC20);\n}\n\n// PantheonPool is the master of Reward. He can make Reward and he is a fair guy.\n//\n// Note that it's ownable and the owner wields tremendous power. The ownership\n// will be transferred to a governance smart contract once CHA is sufficiently\n// distributed and the community can show to govern itself.\n//\n// Have fun reading it. Hopefully it's bug-free. God bless.\ncontract PantheonPool is Ownable,ERC721Holder {\n    using SafeMath for uint256;\n    using SafeERC20 for IERC20;\n    // Info of each user.\n    // struct UserInfo {\n    //     uint256 amount; // How many LP tokens the user has provided.\n    //     uint256 rewardDebt; // Reward debt. See explanation below.\n    //     //\n    //     // We do some fancy math here. Basically, any point in time, the amount of CHA\n    //     // entitled to a user but is pending to be distributed is:\n    //     //\n    //     //   pending reward = (user.amount * accChaPerShare) - user.rewardDebt\n    //     //\n    //     // Whenever a user deposits or withdraws LP tokens to a pool. Here's what happens:\n    //     //   1. The pool's `accChaPerShare` (and `lastRewardBlock`) gets updated.\n    //     //   2. User receives the pending reward sent to his/her address.\n    //     //   3. User's `amount` gets updated.\n    //     //   4. User's `rewardDebt` gets updated.\n    // }\n\n    struct InviteInfo {\n        address parent;\n        uint256 totalPower;\n    }\n\n    // Miner information describe miner. One should has many Miners;\n    struct MinerInfo {\n        uint256 amount; // \n        uint256 power; // \n        uint256 endBlock; // block\n        uint256 rewardDebt; // Reward debt. See explanation below.\n        uint256 nft1;\n        uint256 nft2;\n        uint256 nft3;\n    }\n    // Info of each pool. pool is set manully.\n    struct PoolInfo {\n        IERC20 lpToken; // Address of LP token contract.\n        bool isLp; // if isLp is true we should have a usdt token.\n        uint32 timeBlocks; // timeBlocks;\n        uint256 powerRate; // The power rate assigned to this pool. times 1000.\n    }\n    \n    IERC721Card public nftToken;\n    uint256 public lastRewardBlock; // Last block number that CHAs distribution occurs.\n    uint256 public accChaPerShare; // Accumulated CHAs per share, times 1e12. See below.\n    // Total power\n    uint256 public totalPower;\n    uint16[] public nftRate = [100, 150, 300, 600, 1500]; // times 1000\n\n    // Invite\n    bool public inviteForce = false;\n    uint8 public maxInviteLayer = 10;\n    // The CHA TOKEN!\n    IERC20 public panToken;\n    IERC20 public usdtToken;\n    // Dev address.\n    address public devaddr;\n    address public blackholeAddress;\n    address public airdropAddress;\n    address public liquidAddress;\n    // Block number when bonus CHA period ends.\n    // uint256 public bonusEndBlock;\n    // Total reward for miner\n    uint256 public totalReward;\n    // Total released reward\n    uint256 public releasedReward;\n    // CHA tokens created per block.\n    uint256 public chaPerBlock;\n    // Bonus muliplier for early panToken makers.\n    uint256 public constant BONUS_MULTIPLIER = 10;\n    // The migrator contract. It has a lot of power. Can only be set through governance (owner).\n    // IMigratorChef public migrator;\n    // Info of each pool.\n    PoolInfo[] public poolInfo;\n    // Info of each user that stakes LP tokens.\n    mapping(address => uint256) public userPower;\n    mapping(address => address) public userParent;\n    mapping(address => uint8) public userLevel;\n    mapping(address => uint256) public inviteReward;\n    // mapping(uint8 => mapping(uint8 => uint8)) memory inviteRatio;\n    uint8[][] inviteRatio = [[5,0,0,0,0,0,0,0,0,0],[8,5,0,0,0,0,0,0,0,0],[10,6,4,2,0,0,0,0,0,0],[12,8,6,4,2,2,0,0,0,0],[14,10,8,6,4,2,2,2,0,0],[16,12,10,8,6,4,2,2,2,2],[18,14,12,10,8,6,4,2,2,2],[20,16,14,12,10,8,6,4,2,2],[22,18,16,14,12,10,8,6,4,2]];\n    mapping(uint256 => mapping(address => MinerInfo)) public minerInfo;\n    // Total allocation poitns. Must be the sum of all allocation points in all pools.\n    uint256 public totalAllocPoint = 0;\n    // The block number when CHA mining starts.\n    uint256 public startBlock;\n    event Deposit(address indexed user, uint256 indexed pid, uint256 amount);\n    event DepositWithNFT(address indexed user, uint256 indexed pid, uint256 amount,\n        uint16 nft1, uint16 nft2, uint16 nft3);\n    event Withdraw(address indexed user, uint256 indexed pid, uint256 amount);\n    event Harvest(address indexed user, uint256 indexed pid, uint256 amount);\n    event EmergencyWithdraw(\n        address indexed user,\n        uint256 indexed pid,\n        uint256 amount\n    );\n\n    constructor(\n        IERC20 _chaAddress,\n        IERC20 _usdtAddress,\n        IERC721Card _nftAddress,\n        address beneficancy,\n        address _blackholeAddress,\n        address _airdropAddress,\n        address _liquidAddress,\n        uint256 _chaPerBlock,\n        uint256 _startBlock,\n        uint256 _totalReward\n    ) {\n        panToken = _chaAddress;\n        usdtToken = _usdtAddress;\n        blackholeAddress = _blackholeAddress;\n        airdropAddress = _airdropAddress;\n        liquidAddress = _liquidAddress;\n        chaPerBlock = _chaPerBlock;\n        // bonusEndBlock = _bonusEndBlock;\n        startBlock = _startBlock;\n        totalReward = _totalReward;\n        nftToken = IERC721Card(_nftAddress);\n        lastRewardBlock =\n            block.number > startBlock ? block.number : startBlock;\n        // totalAllocPoint = totalAllocPoint.add(_allocPoint);\n        userParent[msg.sender] = beneficancy;\n        totalPower = 0;\n    }\n\n    // function totalReward() external view returns (uint256) {\n    //     return totalReward;\n    // }\n\n    // function releasedReward() external view returns (uint256) {\n    //     return releasedReward;\n    // }\n\n    function releaseReward2() external view returns (uint256) {\n        return totalPower.mul(accChaPerShare).div(1e12);\n    }\n\n    function remainReward() external view returns (uint256) {\n        return totalReward - releasedReward;\n    }\n\n    function poolLength() external view returns (uint256) {\n        return poolInfo.length;\n    }\n\n    // Add a new lp to the pool. Can only be called by the owner.\n    // XXX DO NOT add the same LP token more than once. Rewards will be messed up if you do.\n    function addPool(\n        uint256 _powerRate,\n        IERC20 _token,\n        bool _isLp,\n        uint32 timeBlocks,\n        bool _withUpdate\n    ) public onlyOwner {\n        if (_withUpdate) {\n            updateReward();\n        }\n        \n        poolInfo.push(\n            PoolInfo({\n                lpToken: _token,\n                isLp: _isLp,\n                timeBlocks: timeBlocks,\n                powerRate: _powerRate\n            })\n        );\n    }\n\n    // Update the given pool's CHA power rate. Can only be called by the owner.\n    function setPool(\n        uint256 _pid,\n        uint256 _powerRate,\n        bool _withUpdate\n    ) public onlyOwner {\n        if (_withUpdate) {\n            updateReward();\n        }\n        poolInfo[_pid].powerRate = _powerRate;\n    }\n\n    function setInvite(\n        address parent\n    ) public {\n        require(userParent[parent] != address(0), \"Parent should be invite first.\");\n        require(parent != msg.sender, \"Parent should not be itself.\");\n        if (userParent[msg.sender] == address(0)) {\n            userParent[msg.sender] = parent;\n        }\n    }\n\n    function setInviteEnable(\n        bool enable\n    ) public {\n        inviteForce = enable;\n    }\n\n    function setMaxInviteLayer(uint8 layer) public {\n        maxInviteLayer = layer;\n    }\n\n    // Set the migrator contract. Can only be called by the owner.\n    // function setMigrator(IMigratorChef _migrator) public onlyOwner {\n    //     migrator = _migrator;\n    // }\n\n    // // Migrate lp token to another lp contract. Can be called by anyone. We trust that migrator contract is good.\n    // function migrate(uint256 _pid) public {\n    //     require(address(migrator) != address(0), \"migrate: no migrator\");\n    //     PoolInfo storage pool = poolInfo[_pid];\n    //     IERC20 lpToken = pool.lpToken;\n    //     uint256 bal = lpToken.balanceOf(address(this));\n    //     lpToken.safeApprove(address(migrator), bal);\n    //     IERC20 newLpToken = migrator.migrate(lpToken);\n    //     require(bal == newLpToken.balanceOf(address(this)), \"migrate: bad\");\n    //     pool.lpToken = newLpToken;\n    // }\n    function getInviteInfo(address addr) public view returns (uint16, uint256, uint256, address){\n        return (userLevel[addr],userPower[addr], inviteReward[addr], userParent[addr]);\n    }\n    // Return reward multiplier over the given _from to _to block.\n    function getMultiplier(uint256 _from, uint256 _to)\n        public\n        pure\n        returns (uint256)\n    {\n        return _to.sub(_from);\n        // if (_to <= bonusEndBlock) {\n        //     return _to.sub(_from).mul(BONUS_MULTIPLIER);\n        // } else if (_from >= bonusEndBlock) {\n        //     return _to.sub(_from);\n        // } else {\n        //     return\n        //         bonusEndBlock.sub(_from).mul(BONUS_MULTIPLIER).add(\n        //             _to.sub(bonusEndBlock)\n        //         );\n        // }\n    }\n\n    // View function to see pending CHA on frontend.\n    function pendingReward(uint256 _pid, address _user)\n        external\n        view\n        returns (uint256)\n    {\n        // PoolInfo storage pool = poolInfo[_pid];\n        MinerInfo storage miner = minerInfo[_pid][_user];\n        uint256 accCha = accChaPerShare;\n        uint256 endBlock = block.number;\n        if (block.number > miner.endBlock) {\n            endBlock = miner.endBlock;\n        }\n        if (endBlock > lastRewardBlock && totalPower != 0) {\n            uint256 multiplier =\n                getMultiplier(lastRewardBlock, endBlock);\n            uint256 chaReward = multiplier.mul(chaPerBlock);\n            accCha = accCha.add(\n                chaReward.mul(1e12).div(totalPower)\n            );\n            return miner.power.mul(accCha).div(1e12).sub(miner.rewardDebt);\n        }\n        return 0;\n    }\n\n    // Update reward vairables for all pools. Be careful of gas spending!\n    // function updateReward() public {\n    //     uint256 length = poolInfo.length;\n    //     for (uint256 pid = 0; pid < length; ++pid) {\n    //         updateReward(pid);\n    //     }\n    // }\n\n    // Update reward variables of the given pool to be up-to-date.\n    function updateReward() public {\n        // PoolInfo storage pool = poolInfo[_pid];\n        // uint256 remain = panToken.balanceOf(address(this));\n        uint256 remain = totalReward.sub(releasedReward);\n        if (block.number <= lastRewardBlock && remain <= 0) {\n            return;\n        }\n        if (totalPower == 0) {\n            lastRewardBlock = block.number;\n            return;\n        }\n        require(lastRewardBlock<=block.number, \"lastRewardBlock not valid\");\n        uint256 multiplier = getMultiplier(lastRewardBlock, block.number);\n        uint256 chaReward = multiplier.mul(chaPerBlock);\n        // panToken.mint(devaddr, chaReward.div(10));\n        // panToken.mint(address(this), chaReward);\n        if ( remain < chaReward ) {\n            chaReward = remain;\n        }\n        releasedReward  = releasedReward.add(chaReward);\n        accChaPerShare = accChaPerShare.add(\n            chaReward.mul(1e12).div(totalPower)\n        );\n        lastRewardBlock = block.number;\n    }\n\n\n    // Deposit LP tokens to PantheonPool for CHA allocation.\n    function deposit(uint256 _pid, uint256 _amount) public returns (bool){\n        PoolInfo storage pool = poolInfo[_pid];\n        MinerInfo memory miner = minerInfo[_pid][msg.sender];\n        updateReward();\n        if (inviteForce == true) {\n            require(userParent[msg.sender] != address(0), \"You need be invited first.\");\n        }\n        if (miner.amount > 0) {\n            uint256 pending =\n                miner.power.mul(accChaPerShare).div(1e12).sub(\n                    miner.rewardDebt\n                );\n            safeChaTransfer(msg.sender, pending);\n        }\n        // pool.lpToken.approve(address(this), _amount);\n        pool.lpToken.transferFrom(\n            address(msg.sender),\n            address(this),\n            _amount\n        );\n        if (pool.isLp) {\n            // usdtToken.safeApprove(address(this), _amount.mul(1e12).div(4));\n            usdtToken.safeTransferFrom(\n                address(msg.sender),\n                address(this),\n                _amount.div(4)\n            );\n        }\n        miner.amount = miner.amount.add(_amount);\n        uint256 power = _amount.mul(pool.powerRate).div(1000);\n        miner.power = miner.power.add(power);\n        totalPower = totalPower.add(power);\n        userPower[msg.sender] = userPower[msg.sender].add(power);\n        uint256 blockNumber = block.number;\n        miner.endBlock = blockNumber.add(pool.timeBlocks); // * 24 * 1200;\n        userLevel[msg.sender] = getUserLevel(userPower[msg.sender]);\n        miner.rewardDebt = miner.power.mul(accChaPerShare).div(1e12);\n        minerInfo[_pid][msg.sender] = miner;\n        emit Deposit(msg.sender, _pid, _amount);\n        return true;\n    }\n\n    // Deposit LP tokens to PantheonPool for CHA allocation.\n    function depositWithNFT(uint256 _pid, uint256 _amount, uint16 nft1, uint16 nft2, uint16 nft3) public {\n        PoolInfo storage pool = poolInfo[_pid];\n        MinerInfo memory miner = minerInfo[_pid][msg.sender];\n        // require(miner.amount == 0, \"You already depsoit this pool.\");\n        updateReward();\n        if (miner.amount > 0) {\n            uint256 pending =\n                miner.power.mul(accChaPerShare).div(1e12).sub(\n                    miner.rewardDebt\n                );\n            safeChaTransfer(msg.sender, pending);\n        }\n        pool.lpToken.transferFrom(\n            address(msg.sender),\n            address(this),\n            _amount\n        );\n        if (pool.isLp) {\n            usdtToken.transferFrom(\n                address(msg.sender),\n                address(this),\n                _amount.div(4)\n            );\n        }\n        miner.amount = miner.amount.add(_amount);\n        uint256 level;\n        uint256 level2;\n        uint256 level3;\n        uint256 rate = pool.powerRate;\n        if (nft1 > 0 && nftToken.ownerOf(nft1) == msg.sender) {\n            level = nftToken.levelOf(nft1);\n            rate += nftRate[level];\n            nftToken.safeTransferFrom(msg.sender, address(this), nft1);\n        }\n        if (nft2 > 0 && nftToken.ownerOf(nft2) == msg.sender) {\n            level2 = nftToken.levelOf(nft2);\n            rate += nftRate[level2];\n            nftToken.safeTransferFrom(msg.sender, address(this), nft2);\n        }\n        if (nft3 > 0 && nftToken.ownerOf(nft3) == msg.sender) {\n            level3 = nftToken.levelOf(nft3);\n            rate += nftRate[level3];\n            nftToken.safeTransferFrom(msg.sender, address(this), nft3);\n        }\n        // \n        if(level == level2 && level2 == level3 && random() < 10) {\n            if (level == 2 ) {\n                rate = rate * 13 / 10;\n            } else if (level==3) {\n                rate = rate * 15 / 10;\n            } else if (level == 4) {\n                rate = rate * 20 / 10;\n            }\n        }\n        uint256 power = _amount.mul(rate).div(1000);\n        miner.power = miner.power.add(power);\n        totalPower = totalPower.add(power);\n        userPower[msg.sender] = userPower[msg.sender].add(power);\n        uint256 blockNumber = block.number;\n        miner.endBlock = blockNumber.add(pool.timeBlocks);\n        miner.nft1 = uint16(nft1);\n        miner.nft2 = uint16(nft2);\n        miner.nft3 = uint16(nft3);\n        userLevel[msg.sender] = getUserLevel(userPower[msg.sender]);\n        miner.rewardDebt = miner.power.mul(accChaPerShare).div(1e12);\n        minerInfo[_pid][msg.sender] = miner;\n        emit DepositWithNFT(msg.sender, _pid, _amount, nft1, nft2, nft3);\n    }\n    function getUserLevel(uint256 power) private pure returns(uint8){\n        uint8 level;\n        power = power.div(1e18);\n        if (power < 50000) {\n            level = 3;\n            if (power < 30000) {\n                level = 2;\n                if(power <10000) {\n                    level = 1;\n                    if (power < 5000)\n                        level = 0;\n                }\n            }\n        } else {\n            level = 4;\n            if (power >= 100000) {\n                level = 5;\n                if (power >= 150000) {\n                    level = 6;\n                    if (power >= 200000) {\n                        level =7;\n                        if (power >= 300000)\n                            level = 8;\n                    }\n                }\n            }\n        }\n        return level;\n    }\n    // // Get a random 100\n    // Get a random 100\n    function random() private view returns (uint8) {\n        return uint8(uint256(keccak256(abi.encodePacked(block.timestamp, block.difficulty)))%100);\n    }\n    // harvest LP tokens from PantheonPool.\n    function harvest(uint256 _pid) public {\n        // PoolInfo storage pool = poolInfo[_pid];\n        MinerInfo storage miner = minerInfo[_pid][msg.sender];\n        updateReward();\n        uint256 pending =\n            miner.power.mul(accChaPerShare).div(1e12).sub(\n                miner.rewardDebt\n            );\n        require(pending > 0, \"harvest: none reward\");\n        safeChaTransfer(msg.sender, pending);\n        miner.rewardDebt = miner.power.mul(accChaPerShare).div(1e12);\n        emit Harvest(msg.sender, _pid, pending);\n    }\n\n    // Withdraw LP tokens from PantheonPool.\n    function withdraw(uint256 _pid, uint256 _amount) public {\n        PoolInfo storage pool = poolInfo[_pid];\n        MinerInfo storage miner = minerInfo[_pid][msg.sender];\n        require(miner.amount > _amount, \"withdraw: not good\");\n        require(accChaPerShare > 0, \"accChaPerShare should not be zero\");\n        require(miner.endBlock <= block.number, \"Cannot withdraw with days limit.\");\n        updateReward();\n        if (miner.amount.mul(accChaPerShare).div(1e12) > miner.rewardDebt) {\n            uint256 pending = miner.amount.mul(accChaPerShare).div(1e12).sub(\n                miner.rewardDebt\n            );\n            safeChaTransfer(msg.sender, pending);\n        }\n        \n        if (pool.isLp) {\n            usdtToken.transfer(\n                msg.sender,\n                miner.amount.div(4) // div(1e6).mul(1e8) equ mul(1e12)\n            );\n        }\n\n        // miner.rewardDebt = miner.power.mul(accChaPerShare).div(1e12);\n        // userLevel[msg.sender] = getUserLevel(userPower[msg.sender]);\n        pool.lpToken.transfer(address(msg.sender), _amount);\n\n        if (miner.nft1 > 0) {\n            nftToken.safeTransferFrom(address(this), msg.sender, miner.nft1);\n        }\n        if (miner.nft2 > 0) {\n            nftToken.safeTransferFrom(address(this), msg.sender, miner.nft2);\n        }\n        if (miner.nft3 > 0) {\n            nftToken.safeTransferFrom(address(this), msg.sender, miner.nft3);\n        }\n\n        // reduce power\n        // uint256 power = miner.power.mul(_amount).div(miner.amount);\n        totalPower = totalPower.sub(miner.power);\n\n        userPower[msg.sender] = userPower[msg.sender].sub(miner.power);\n        //  reduce amount\n        miner.power = 0;\n        miner.amount = 0;\n        miner.nft1 = 0;\n        miner.nft2 = 0;\n        miner.nft3 = 0;\n        miner.rewardDebt = 0;\n        // minerInfo[_pid][msg.sender] = 0;\n\n        emit Withdraw(msg.sender, _pid, _amount);\n    }\n\n    function calculeInviteReward(address child, uint256 total) private {\n\n        for(uint8 layer=0; layer< maxInviteLayer; layer++) {\n            address parent = userParent[child];\n            if (parent == address(0) && parent == child)\n                return;\n            uint8 level = userLevel[parent];\n            uint8 ratio = inviteRatio[level][layer];\n            if (ratio <= 0) {\n                return ;\n            }\n            uint256 reward = total.mul(ratio).div(100);\n            inviteReward[parent] = inviteReward[parent].add(reward);\n            child = parent;\n        }\n    }\n\n    // Withdraw without caring about rewards. EMERGENCY ONLY.\n    function emergencyWithdraw(uint256 _pid) public {\n        PoolInfo storage pool = poolInfo[_pid];\n        MinerInfo storage miner = minerInfo[_pid][msg.sender];\n        require(miner.endBlock < block.number, \"Cannot withdraw with days limit.\");\n        pool.lpToken.safeTransfer(address(msg.sender), miner.amount);\n        if (pool.isLp) {\n            usdtToken.transfer(\n                msg.sender,\n                miner.amount.div(4) // div(1e6).mul(1e8) equ mul(1e12)\n            );\n        }\n        emit EmergencyWithdraw(msg.sender, _pid, miner.amount);\n        userPower[msg.sender] = userPower[msg.sender].sub(miner.power);\n        userLevel[msg.sender] = getUserLevel(userPower[msg.sender]);\n        totalPower = totalPower.sub(miner.power);\n        miner.amount = 0;\n        miner.rewardDebt = 0;\n        miner.power = 0;\n    }\n\n    // Safe panToken transfer function, just in case if rounding error causes pool to not have enough CHA.\n    function safeChaTransfer(address _to, uint256 _amount) internal {\n        uint256 chaBal = panToken.balanceOf(address(this));\n        if (_amount > chaBal) {\n            _amount = chaBal;\n        }\n        panToken.transfer(blackholeAddress, _amount.mul(5).div(100));\n        panToken.transfer(airdropAddress, _amount.mul(4).div(100));\n        panToken.transfer(liquidAddress, _amount.mul(4).div(100));\n        panToken.transfer(_to, _amount.sub(_amount.mul(13).div(100)));\n        if(inviteForce)\n           calculeInviteReward(_to, _amount);\n    }\n}",
  "sourcePath": "/Users/jilong/solidity/pantheonNFT/contracts/PantheonPool.sol",
  "compiler": {
    "name": "solc",
    "version": "0.8.6+commit.11564f7e.Emscripten.clang"
  },
  "schemaVersion": "3.4.2",
  "updatedAt": "2021-09-07T16:27:11.299Z",
  "devdoc": {
    "kind": "dev",
    "methods": {
      "onERC721Received(address,address,uint256,bytes)": {
        "details": "See {IERC721Receiver-onERC721Received}. Always returns `IERC721Receiver.onERC721Received.selector`."
      },
      "owner()": {
        "details": "Returns the address of the current owner."
      },
      "renounceOwnership()": {
        "details": "Leaves the contract without owner. It will not be possible to call `onlyOwner` functions anymore. Can only be called by the current owner. NOTE: Renouncing ownership will leave the contract without an owner, thereby removing any functionality that is only available to the owner."
      },
      "transferOwnership(address)": {
        "details": "Transfers ownership of the contract to a new account (`newOwner`). Can only be called by the current owner."
      }
    },
    "version": 1
  },
  "userdoc": {
    "kind": "user",
    "methods": {},
    "version": 1
  }
}