{
  "contractName": "PantheonIDO",
  "abi": [
    {
      "inputs": [
        {
          "internalType": "address payable",
          "name": "erc20Address_",
          "type": "address"
        },
        {
          "internalType": "address",
          "name": "beneficancy_",
          "type": "address"
        },
        {
          "internalType": "uint256",
          "name": "idoStart_",
          "type": "uint256"
        },
        {
          "internalType": "uint256",
          "name": "idoEnd_",
          "type": "uint256"
        },
        {
          "internalType": "uint256",
          "name": "claimStart_",
          "type": "uint256"
        },
        {
          "internalType": "uint256",
          "name": "claimEnd_",
          "type": "uint256"
        }
      ],
      "stateMutability": "payable",
      "type": "constructor"
    },
    {
      "anonymous": false,
      "inputs": [
        {
          "indexed": false,
          "internalType": "uint256",
          "name": "remain",
          "type": "uint256"
        },
        {
          "indexed": false,
          "internalType": "uint256",
          "name": "total",
          "type": "uint256"
        }
      ],
      "name": "IdoProcessEvent",
      "type": "event"
    },
    {
      "anonymous": false,
      "inputs": [
        {
          "indexed": false,
          "internalType": "enum PantheonIDO.IdoStatus",
          "name": "status",
          "type": "uint8"
        }
      ],
      "name": "IdoStateEvent",
      "type": "event"
    },
    {
      "anonymous": false,
      "inputs": [
        {
          "indexed": true,
          "internalType": "address",
          "name": "previousOwner",
          "type": "address"
        },
        {
          "indexed": true,
          "internalType": "address",
          "name": "newOwner",
          "type": "address"
        }
      ],
      "name": "OwnershipTransferred",
      "type": "event"
    },
    {
      "inputs": [],
      "name": "beneficancy",
      "outputs": [
        {
          "internalType": "address",
          "name": "",
          "type": "address"
        }
      ],
      "stateMutability": "view",
      "type": "function"
    },
    {
      "inputs": [],
      "name": "chairperson",
      "outputs": [
        {
          "internalType": "address",
          "name": "",
          "type": "address"
        }
      ],
      "stateMutability": "view",
      "type": "function"
    },
    {
      "inputs": [],
      "name": "claimEndTimestamp",
      "outputs": [
        {
          "internalType": "uint256",
          "name": "",
          "type": "uint256"
        }
      ],
      "stateMutability": "view",
      "type": "function"
    },
    {
      "inputs": [],
      "name": "claimStartTimestamp",
      "outputs": [
        {
          "internalType": "uint256",
          "name": "",
          "type": "uint256"
        }
      ],
      "stateMutability": "view",
      "type": "function"
    },
    {
      "inputs": [],
      "name": "erc20Address",
      "outputs": [
        {
          "internalType": "address payable",
          "name": "",
          "type": "address"
        }
      ],
      "stateMutability": "view",
      "type": "function"
    },
    {
      "inputs": [],
      "name": "idoEndTimestamp",
      "outputs": [
        {
          "internalType": "uint256",
          "name": "",
          "type": "uint256"
        }
      ],
      "stateMutability": "view",
      "type": "function"
    },
    {
      "inputs": [],
      "name": "idoStartTimestamp",
      "outputs": [
        {
          "internalType": "uint256",
          "name": "",
          "type": "uint256"
        }
      ],
      "stateMutability": "view",
      "type": "function"
    },
    {
      "inputs": [
        {
          "internalType": "address",
          "name": "",
          "type": "address"
        }
      ],
      "name": "idoers",
      "outputs": [
        {
          "internalType": "uint256",
          "name": "ethValue",
          "type": "uint256"
        },
        {
          "internalType": "uint256",
          "name": "panValue",
          "type": "uint256"
        },
        {
          "internalType": "bool",
          "name": "claimed",
          "type": "bool"
        }
      ],
      "stateMutability": "view",
      "type": "function"
    },
    {
      "inputs": [],
      "name": "owner",
      "outputs": [
        {
          "internalType": "address",
          "name": "",
          "type": "address"
        }
      ],
      "stateMutability": "view",
      "type": "function"
    },
    {
      "inputs": [],
      "name": "remainSupply",
      "outputs": [
        {
          "internalType": "uint256",
          "name": "",
          "type": "uint256"
        }
      ],
      "stateMutability": "view",
      "type": "function"
    },
    {
      "inputs": [],
      "name": "renounceOwnership",
      "outputs": [],
      "stateMutability": "nonpayable",
      "type": "function"
    },
    {
      "inputs": [],
      "name": "token",
      "outputs": [
        {
          "internalType": "contract IERC20",
          "name": "",
          "type": "address"
        }
      ],
      "stateMutability": "view",
      "type": "function"
    },
    {
      "inputs": [
        {
          "internalType": "address",
          "name": "newOwner",
          "type": "address"
        }
      ],
      "name": "transferOwnership",
      "outputs": [],
      "stateMutability": "nonpayable",
      "type": "function"
    },
    {
      "inputs": [
        {
          "internalType": "address payable",
          "name": "erc20Address_",
          "type": "address"
        }
      ],
      "name": "setTokenAddress",
      "outputs": [],
      "stateMutability": "nonpayable",
      "type": "function"
    },
    {
      "inputs": [
        {
          "internalType": "uint256",
          "name": "start",
          "type": "uint256"
        },
        {
          "internalType": "uint256",
          "name": "end",
          "type": "uint256"
        }
      ],
      "name": "setIdoTime",
      "outputs": [],
      "stateMutability": "nonpayable",
      "type": "function"
    },
    {
      "inputs": [
        {
          "internalType": "uint256",
          "name": "start",
          "type": "uint256"
        },
        {
          "internalType": "uint256",
          "name": "end",
          "type": "uint256"
        }
      ],
      "name": "setClaimTime",
      "outputs": [],
      "stateMutability": "nonpayable",
      "type": "function"
    },
    {
      "inputs": [],
      "name": "sendEthForIdo",
      "outputs": [
        {
          "internalType": "bool",
          "name": "",
          "type": "bool"
        }
      ],
      "stateMutability": "payable",
      "type": "function"
    },
    {
      "inputs": [],
      "name": "release",
      "outputs": [],
      "stateMutability": "nonpayable",
      "type": "function"
    },
    {
      "inputs": [],
      "name": "claimFromIdo",
      "outputs": [
        {
          "internalType": "bool",
          "name": "",
          "type": "bool"
        }
      ],
      "stateMutability": "nonpayable",
      "type": "function"
    },
    {
      "inputs": [],
      "name": "isIdoEnable",
      "outputs": [
        {
          "internalType": "bool",
          "name": "",
          "type": "bool"
        }
      ],
      "stateMutability": "view",
      "type": "function"
    },
    {
      "inputs": [],
      "name": "isClaimEnable",
      "outputs": [
        {
          "internalType": "bool",
          "name": "",
          "type": "bool"
        }
      ],
      "stateMutability": "view",
      "type": "function"
    },
    {
      "inputs": [],
      "name": "getIdoRemainSupply",
      "outputs": [
        {
          "internalType": "uint256",
          "name": "",
          "type": "uint256"
        },
        {
          "internalType": "uint256",
          "name": "",
          "type": "uint256"
        }
      ],
      "stateMutability": "view",
      "type": "function"
    },
    {
      "inputs": [],
      "name": "getIdoRemainEth",
      "outputs": [
        {
          "internalType": "uint256",
          "name": "",
          "type": "uint256"
        },
        {
          "internalType": "uint256",
          "name": "",
          "type": "uint256"
        }
      ],
      "stateMutability": "view",
      "type": "function"
    },
    {
      "inputs": [],
      "name": "getIdoRemainPAN",
      "outputs": [
        {
          "internalType": "uint256",
          "name": "",
          "type": "uint256"
        },
        {
          "internalType": "uint256",
          "name": "",
          "type": "uint256"
        }
      ],
      "stateMutability": "view",
      "type": "function"
    },
    {
      "inputs": [],
      "name": "getIdoReleaseDate",
      "outputs": [
        {
          "internalType": "bool",
          "name": "",
          "type": "bool"
        },
        {
          "internalType": "uint256",
          "name": "",
          "type": "uint256"
        }
      ],
      "stateMutability": "view",
      "type": "function"
    }
  ],
  "bytecode": "0x6080604052662386f26fc100006001556701bc16d674ec8000600255670de0b6b3a7640000600355645d21dba000600455680d8d726b7177a80000600555620f424060065560405161108d38038061108d8339810160408190526100629161011d565b61006b336100cd565b60078054336001600160a01b0319918216179091556005546009556008805482166001600160a01b03978816179055600e8054821697909616968717909555600a93909355600b91909155600c55600d55600f80549091169091179055610193565b600080546001600160a01b038381166001600160a01b0319831681178455604051919092169283917f8be0079c531659141344cd1fd0a4f28419497f9722a3daafe3b4186f6b6457e09190a35050565b60008060008060008060c0878903121561013657600080fd5b86516101418161017b565b60208801519096506101528161017b565b6040880151606089015160808a015160a0909a0151989b929a5090989097909650945092505050565b6001600160a01b038116811461019057600080fd5b50565b610eeb806101a26000396000f3fe6080604052600436106101665760003560e01c806351df4f5b116100d15780638da5cb5b1161008a578063f2fde38b11610064578063f2fde38b14610423578063f423767314610443578063fc0c546a14610468578063fc7a67921461048857600080fd5b80638da5cb5b146103d9578063a59c42e4146103f7578063dfc5d02f1461040d57600080fd5b806351df4f5b1461034f578063521a0cc31461036f5780636e702f9514610384578063715018a61461039957806377392c4d146103ae57806386d1a69f146103c457600080fd5b80632e4176cf116101235780632e4176cf1461025c57806334b22a561461027c57806338e10f75146102845780633f5a3152146102ac57806345a8b0a6146102c257806351aea8e81461031e57600080fd5b806301a6a8e81461016b5780631f4b0f4514610195578063265385cd146101be57806326a4e8d2146101e2578063276184ae14610204578063293970cb1461023c575b600080fd5b34801561017757600080fd5b506101806104a8565b60405190151581526020015b60405180910390f35b3480156101a157600080fd5b506009546005545b6040805192835260208301919091520161018c565b3480156101ca57600080fd5b506101d4600d5481565b60405190815260200161018c565b3480156101ee57600080fd5b506102026101fd366004610d6b565b6104d5565b005b34801561021057600080fd5b50600e54610224906001600160a01b031681565b6040516001600160a01b03909116815260200161018c565b34801561024857600080fd5b50600854610224906001600160a01b031681565b34801561026857600080fd5b50600754610224906001600160a01b031681565b610180610547565b34801561029057600080fd5b50336000908152601060205260409020600101546003546101a9565b3480156102b857600080fd5b506101d460095481565b3480156102ce57600080fd5b506103016102dd366004610d6b565b60106020526000908152604090208054600182015460029092015490919060ff1683565b60408051938452602084019290925215159082015260600161018c565b34801561032a57600080fd5b50610338600c544281111591565b60408051921515835260208301919091520161018c565b34801561035b57600080fd5b5061020261036a366004610dc3565b610861565b34801561037b57600080fd5b50610180610896565b34801561039057600080fd5b50610180610a5c565b3480156103a557600080fd5b50610202610a80565b3480156103ba57600080fd5b506101d4600a5481565b3480156103d057600080fd5b50610202610ab6565b3480156103e557600080fd5b506000546001600160a01b0316610224565b34801561040357600080fd5b506101d4600b5481565b34801561041957600080fd5b506101d4600c5481565b34801561042f57600080fd5b5061020261043e366004610d6b565b610c23565b34801561044f57600080fd5b50336000908152601060205260409020546002546101a9565b34801561047457600080fd5b50600f54610224906001600160a01b031681565b34801561049457600080fd5b506102026104a3366004610dc3565b610cbb565b600a54600090429081108015906104c05750600b5481105b156104cd57600191505090565b600091505090565b6000546001600160a01b031633146105085760405162461bcd60e51b81526004016104ff90610de5565b60405180910390fd5b6001600160a01b03811661051b57600080fd5b600e80546001600160a01b039092166001600160a01b03199283168117909155600f8054909216179055565b60095460009042903411156105915760405162461bcd60e51b815260206004820152601060248201526f4e6f2072656d61696e20737570706c7960801b60448201526064016104ff565b6001543410156105e35760405162461bcd60e51b815260206004820181905260248201527f49444f2076616c75652073686f756c6420626967207468616e20302e3145544860448201526064016104ff565b6002543411156106355760405162461bcd60e51b815260206004820152601f60248201527f49444f2076616c75652073686f756c64206c657373207468616e20344554480060448201526064016104ff565b60025433600090815260106020526040902054610653903490610e1a565b11156106af5760405162461bcd60e51b815260206004820152602560248201527f49444f20746f74616c2076616c75652073686f756c64206c657373207468616e604482015264040688aa8960db1b60648201526084016104ff565b600a5481101580156106c25750600b5481105b6106fc5760405162461bcd60e51b815260206004820152600b60248201526a125113c81cdd1bdc1c195960aa1b60448201526064016104ff565b3360009081526010602090815260408083208151606081018352815481526001820154938101939093526002015460ff1615159082015290349061075164e8d4a5100061074b84610640610cf0565b90610d03565b6009549091506107619083610d0f565b6009558251600090610774908490610e1a565b905060008285602001516107889190610e1a565b60408051606081018252848152602080820184815260008385018181523382526010909352848120935184559051600184015590516002909201805460ff19169215159290921790915560085491519293506001600160a01b03909116916108fc87150291879190818181858888f1935050505015801561080d573d6000803e3d6000fd5b507f5c719ba1792d965f6ac9c3f45e2f97588c52c97f32d546144bcac70e2e83f32660095460055460405161084c929190918252602082015260400190565b60405180910390a16001965050505050505090565b6000546001600160a01b0316331461088b5760405162461bcd60e51b81526004016104ff90610de5565b600c91909155600d55565b600c5460009042908110156108aa57600080fd5b33600090815260106020908152604091829020825160608101845281548152600182015492810183905260029091015460ff16151592810192909252620f424011156109385760405162461bcd60e51b815260206004820152601d60248201527f596f75206e656564206465706f736974652066756e642066697273742e00000060448201526064016104ff565b8060400151156109805760405162461bcd60e51b8152602060048201526013602482015272165bdd48185b1c9958591e4818db185a5b5959606a1b60448201526064016104ff565b60208101516001604080840191909152600f54905163a9059cbb60e01b8152336004820152602481018390526001600160a01b039091169063a9059cbb90604401602060405180830381600087803b1580156109db57600080fd5b505af11580156109ef573d6000803e3d6000fd5b505050506040513d601f19601f82011682018060405250810190610a139190610d88565b505060006020828101828152338352601090915260409182902083518155905160018083019190915591909201516002909201805460ff19169215159290921790915592915050565b600c54600090429081108015906104c05750600d548110156104cd57600191505090565b6000546001600160a01b03163314610aaa5760405162461bcd60e51b81526004016104ff90610de5565b610ab46000610d1b565b565b6000546001600160a01b03163314610ae05760405162461bcd60e51b81526004016104ff90610de5565b6007546040516001600160a01b03909116904780156108fc02916000818181858888f19350505050158015610b19573d6000803e3d6000fd5b50600f546007546040516370a0823160e01b81523060048201526001600160a01b039283169263a9059cbb92169083906370a082319060240160206040518083038186803b158015610b6a57600080fd5b505afa158015610b7e573d6000803e3d6000fd5b505050506040513d601f19601f82011682018060405250810190610ba29190610daa565b6040516001600160e01b031960e085901b1681526001600160a01b0390921660048301526024820152604401602060405180830381600087803b158015610be857600080fd5b505af1158015610bfc573d6000803e3d6000fd5b505050506040513d601f19601f82011682018060405250810190610c209190610d88565b50565b6000546001600160a01b03163314610c4d5760405162461bcd60e51b81526004016104ff90610de5565b6001600160a01b038116610cb25760405162461bcd60e51b815260206004820152602660248201527f4f776e61626c653a206e6577206f776e657220697320746865207a65726f206160448201526564647265737360d01b60648201526084016104ff565b610c2081610d1b565b6000546001600160a01b03163314610ce55760405162461bcd60e51b81526004016104ff90610de5565b600a91909155600b55565b6000610cfc8284610e54565b9392505050565b6000610cfc8284610e32565b6000610cfc8284610e73565b600080546001600160a01b038381166001600160a01b0319831681178455604051919092169283917f8be0079c531659141344cd1fd0a4f28419497f9722a3daafe3b4186f6b6457e09190a35050565b600060208284031215610d7d57600080fd5b8135610cfc81610ea0565b600060208284031215610d9a57600080fd5b81518015158114610cfc57600080fd5b600060208284031215610dbc57600080fd5b5051919050565b60008060408385031215610dd657600080fd5b50508035926020909101359150565b6020808252818101527f4f776e61626c653a2063616c6c6572206973206e6f7420746865206f776e6572604082015260600190565b60008219821115610e2d57610e2d610e8a565b500190565b600082610e4f57634e487b7160e01b600052601260045260246000fd5b500490565b6000816000190483118215151615610e6e57610e6e610e8a565b500290565b600082821015610e8557610e85610e8a565b500390565b634e487b7160e01b600052601160045260246000fd5b6001600160a01b0381168114610c2057600080fdfea2646970667358221220839a8b8c700203d992dd8be19f79b4cc24d5e3f3f31726a0cb6893e0c30761dd64736f6c63430008060033",
  "immutableReferences": {},
  "source": "// SPDX-License-Identifier: MIT\npragma solidity ^0.8.0;\n\nimport \"./utils/math/SafeMath.sol\";\nimport \"./utils/Address.sol\";\nimport \"./access/Ownable.sol\";\nimport \"./token/ERC20/IERC20.sol\";\n\ncontract PantheonIDO is Ownable{\n\n  // 1BNB = 400U\n  // 1BNB = 1600PAN\n  // 1PAN = 10^6wei\n  // 1ETH = 10^18wei\n  uint MIN_DEPOSITE = 1*10**16; // 0.01\n  uint MAX_DEPOSITE_ETH = 0.125 ether; //50U=200PAN\n  uint MAX_DEPOSITE_PAN = 1*10**18; //10**12\n  uint TOTAL_PAN_SUPPLY = 40*10**10; // 40*10^10 400000\n  uint TOTAL_ETH_SUPPLY = 250*10**18; // 250ETH\n  uint MIN_PAN_CLAIM = 1*10**6; // 1 PAN\n\n  enum IdoStatus{\n    IDO_START,\n    IDO_END,\n    IDO_CLAIM_START,\n    IDO_CLAIM\n  }\n\n  struct Idoer {\n    uint ethValue;\n    uint panValue;\n    // uint timestamp;\n    bool claimed;\n  }\n\n  // struct IdoerLog {\n  //   address addr;\n  //   uint ethValue;\n  //   uint panValue;\n  //   uint timestamp;\n  // }\n\n  using SafeMath for uint;\n\n  event IdoProcessEvent(uint remain, uint total);\n  event IdoStateEvent(IdoStatus status);\n\n  // \n  address public chairperson;\n  // \n  address public beneficancy;\n  // IdoerLog[] public idoerLogs;\n  // \n  uint public remainSupply;\n  // \n  uint public idoStartTimestamp;\n  // \n  uint public idoEndTimestamp;\n  // \n  uint public claimStartTimestamp;\n  // \n  uint public claimEndTimestamp;\n\n  // \n  address payable public erc20Address;\n  \n  // token\n  IERC20 public token;\n  // IDO\n  mapping(address => Idoer) public idoers;\n  // \n  // ido \n  constructor(address payable erc20Address_,\n    address beneficancy_,\n    uint idoStart_,\n    uint idoEnd_,\n    uint claimStart_,\n    uint claimEnd_\n    ) payable {\n  \tchairperson = msg.sender;\n  \tremainSupply = TOTAL_ETH_SUPPLY;\n    beneficancy = beneficancy_;\n    erc20Address = erc20Address_;\n    idoStartTimestamp = idoStart_;\n    idoEndTimestamp = idoEnd_;\n    claimStartTimestamp = claimStart_;\n    claimEndTimestamp = claimEnd_;\n  \ttoken = IERC20(erc20Address);\n  }\n  \n  function setTokenAddress(address payable erc20Address_) public onlyOwner{\n    require(erc20Address_ != address(0));\n     erc20Address = erc20Address_;\n     token = IERC20(erc20Address);\n  }\n\n  function setIdoTime(uint start, uint end) public onlyOwner{\n    idoStartTimestamp = start;\n    idoEndTimestamp = end;\n  }\n\n  function setClaimTime(uint start, uint end) public onlyOwner{\n    claimStartTimestamp = start;\n    claimEndTimestamp = end;\n  }\n\n  // EthIDO\n  // ETH\n  function sendEthForIdo() payable public returns (bool){\n    uint timestamp = block.timestamp;\n    require(msg.value <= remainSupply, \"No remain supply\");\n    require(msg.value >= MIN_DEPOSITE, \"IDO value should big than 0.1ETH\");\n    require(msg.value <= MAX_DEPOSITE_ETH, \"IDO value should less than 4ETH\");\n    require(idoers[msg.sender].ethValue + msg.value <= MAX_DEPOSITE_ETH, \"IDO total value should less than 4ETH\");\n    require(timestamp >= idoStartTimestamp && timestamp < idoEndTimestamp, \"IDO stopped\");\n\n    Idoer memory idoer = idoers[msg.sender];\n\n    uint value = msg.value;\n    uint panValue = value.mul(1600).div(10**12);\n    remainSupply = remainSupply.sub(value);\n\n    uint newValue = idoer.ethValue + value;\n    uint newPanValue = idoer.panValue + panValue;\n    idoers[msg.sender] = Idoer({\n      ethValue: newValue,\n      panValue: newPanValue,\n      claimed: false\n    });\n  \tpayable(beneficancy).transfer(value);\n\n    emit IdoProcessEvent(remainSupply, TOTAL_ETH_SUPPLY);\n    // idoerLogs.push(IdoerLog({\n    //   addr: address(msg.sender),\n    //   ethValue: newValue,\n    //   panValue: panValue,\n    //   timestamp: timestamp\n    // }));\n    return true;\n  }\n  \n  function release() public  onlyOwner {\n      payable(chairperson).transfer(address(this).balance);\n      token.transfer(chairperson, token.balanceOf(address(this)));\n  }\n  \n  // claim\n  function claimFromIdo() public returns (bool){\n    uint timestamp = block.timestamp;\n  \trequire(timestamp >= claimStartTimestamp); //  && timestamp < claimEndTimestamp\n    // require(token.balanceOf(address(this)) >= idoers[msg.sender].panValue, \"PANIdo has invalid balance.\");\n  \t\n  \tIdoer memory idoer = idoers[msg.sender];\n  \t// idoer = idoers[msg.sender];\n  \t\n  \trequire(idoer.panValue >=10**6, \"You need deposite fund first.\");\n  \trequire(!idoer.claimed, \"You already claimed\");\n    // require(idoer.panValue >= MIN_PAN_CLAIM, \"Claim value should big than 1PAN\");\n    \n    uint value = idoer.panValue;\n    idoer.claimed = true;\n    \n    token.transfer(msg.sender, value);\n    // idoer.panValue = idoer.panValue.sub(value);\n    idoer.panValue = 0;\n    idoers[msg.sender] = idoer;\n    return true;\n  }\n\n  function isIdoEnable() public view returns(bool) {\n    uint timestamp = block.timestamp;\n    if (timestamp >= idoStartTimestamp && timestamp < idoEndTimestamp)\n      return true;\n    else\n      return false;\n  }\n\n  function isClaimEnable() public view returns(bool) {\n    uint timestamp = block.timestamp;\n    if (timestamp >= claimStartTimestamp && timestamp < claimEndTimestamp)\n      return true;\n    else\n      return false;\n  }\n\n  function getIdoRemainSupply() public view returns(uint,uint) {\n    return (remainSupply, TOTAL_ETH_SUPPLY);\n  }\n\n  function getIdoRemainEth() public view returns(uint, uint) {\n    return (idoers[msg.sender].ethValue, MAX_DEPOSITE_ETH);\n  }\n\n  function getIdoRemainPAN() public view returns(uint, uint) {\n    return (idoers[msg.sender].panValue, MAX_DEPOSITE_PAN);\n  }\n\n  function getIdoReleaseDate() public view returns(bool, uint) {\n    return (block.timestamp >= claimStartTimestamp, claimStartTimestamp);\n  }\n\n}\n",
  "sourcePath": "/Users/jilong/solidity/pantheonNFT/contracts/PantheonIDO.sol",
  "compiler": {
    "name": "solc",
    "version": "0.8.6+commit.11564f7e.Emscripten.clang"
  },
  "schemaVersion": "3.4.2",
  "updatedAt": "2021-09-01T07:57:07.063Z",
  "devdoc": {
    "kind": "dev",
    "methods": {
      "owner()": {
        "details": "Returns the address of the current owner."
      },
      "renounceOwnership()": {
        "details": "Leaves the contract without owner. It will not be possible to call `onlyOwner` functions anymore. Can only be called by the current owner. NOTE: Renouncing ownership will leave the contract without an owner, thereby removing any functionality that is only available to the owner."
      },
      "transferOwnership(address)": {
        "details": "Transfers ownership of the contract to a new account (`newOwner`). Can only be called by the current owner."
      }
    },
    "version": 1
  },
  "userdoc": {
    "kind": "user",
    "methods": {},
    "version": 1
  }
}