{
  "contractName": "PantheonC2C",
  "abi": [
    {
      "inputs": [
        {
          "internalType": "address",
          "name": "nftAddress_",
          "type": "address"
        },
        {
          "internalType": "address",
          "name": "tokenAddress_",
          "type": "address"
        }
      ],
      "stateMutability": "nonpayable",
      "type": "constructor"
    },
    {
      "anonymous": false,
      "inputs": [
        {
          "indexed": false,
          "internalType": "address",
          "name": "owner",
          "type": "address"
        },
        {
          "indexed": false,
          "internalType": "uint256",
          "name": "nftId",
          "type": "uint256"
        },
        {
          "indexed": false,
          "internalType": "uint256",
          "name": "value",
          "type": "uint256"
        },
        {
          "indexed": false,
          "internalType": "uint256",
          "name": "timestamp",
          "type": "uint256"
        }
      ],
      "name": "C2CBuyItemEvent",
      "type": "event"
    },
    {
      "anonymous": false,
      "inputs": [
        {
          "indexed": false,
          "internalType": "address",
          "name": "owner",
          "type": "address"
        },
        {
          "indexed": false,
          "internalType": "uint256",
          "name": "nftId",
          "type": "uint256"
        },
        {
          "indexed": false,
          "internalType": "uint256",
          "name": "value",
          "type": "uint256"
        },
        {
          "indexed": false,
          "internalType": "uint256",
          "name": "timestamp",
          "type": "uint256"
        }
      ],
      "name": "C2CDepositItemEvent",
      "type": "event"
    },
    {
      "anonymous": false,
      "inputs": [
        {
          "indexed": false,
          "internalType": "address",
          "name": "owner",
          "type": "address"
        },
        {
          "indexed": false,
          "internalType": "uint256",
          "name": "nftId",
          "type": "uint256"
        },
        {
          "indexed": false,
          "internalType": "uint256",
          "name": "timestamp",
          "type": "uint256"
        }
      ],
      "name": "C2CDownItemEvent",
      "type": "event"
    },
    {
      "anonymous": false,
      "inputs": [
        {
          "indexed": true,
          "internalType": "address",
          "name": "previousOwner",
          "type": "address"
        },
        {
          "indexed": true,
          "internalType": "address",
          "name": "newOwner",
          "type": "address"
        }
      ],
      "name": "OwnershipTransferred",
      "type": "event"
    },
    {
      "inputs": [
        {
          "internalType": "uint256",
          "name": "",
          "type": "uint256"
        }
      ],
      "name": "c2cAllItems",
      "outputs": [
        {
          "internalType": "address",
          "name": "author",
          "type": "address"
        },
        {
          "internalType": "uint256",
          "name": "nftId",
          "type": "uint256"
        },
        {
          "internalType": "uint256",
          "name": "value",
          "type": "uint256"
        },
        {
          "internalType": "uint256",
          "name": "timestamp",
          "type": "uint256"
        }
      ],
      "stateMutability": "view",
      "type": "function",
      "constant": true
    },
    {
      "inputs": [],
      "name": "c2cEnabled",
      "outputs": [
        {
          "internalType": "bool",
          "name": "",
          "type": "bool"
        }
      ],
      "stateMutability": "view",
      "type": "function",
      "constant": true
    },
    {
      "inputs": [
        {
          "internalType": "uint256",
          "name": "",
          "type": "uint256"
        }
      ],
      "name": "c2cItems",
      "outputs": [
        {
          "internalType": "address",
          "name": "author",
          "type": "address"
        },
        {
          "internalType": "uint256",
          "name": "nftId",
          "type": "uint256"
        },
        {
          "internalType": "uint256",
          "name": "value",
          "type": "uint256"
        },
        {
          "internalType": "uint256",
          "name": "timestamp",
          "type": "uint256"
        }
      ],
      "stateMutability": "view",
      "type": "function",
      "constant": true
    },
    {
      "inputs": [],
      "name": "chairperson",
      "outputs": [
        {
          "internalType": "address",
          "name": "",
          "type": "address"
        }
      ],
      "stateMutability": "view",
      "type": "function",
      "constant": true
    },
    {
      "inputs": [],
      "name": "nftToken",
      "outputs": [
        {
          "internalType": "contract IERC721",
          "name": "",
          "type": "address"
        }
      ],
      "stateMutability": "view",
      "type": "function",
      "constant": true
    },
    {
      "inputs": [
        {
          "internalType": "address",
          "name": "",
          "type": "address"
        },
        {
          "internalType": "address",
          "name": "",
          "type": "address"
        },
        {
          "internalType": "uint256",
          "name": "",
          "type": "uint256"
        },
        {
          "internalType": "bytes",
          "name": "",
          "type": "bytes"
        }
      ],
      "name": "onERC721Received",
      "outputs": [
        {
          "internalType": "bytes4",
          "name": "",
          "type": "bytes4"
        }
      ],
      "stateMutability": "nonpayable",
      "type": "function"
    },
    {
      "inputs": [],
      "name": "owner",
      "outputs": [
        {
          "internalType": "address",
          "name": "",
          "type": "address"
        }
      ],
      "stateMutability": "view",
      "type": "function",
      "constant": true
    },
    {
      "inputs": [],
      "name": "renounceOwnership",
      "outputs": [],
      "stateMutability": "nonpayable",
      "type": "function"
    },
    {
      "inputs": [],
      "name": "token",
      "outputs": [
        {
          "internalType": "contract IERC20",
          "name": "",
          "type": "address"
        }
      ],
      "stateMutability": "view",
      "type": "function",
      "constant": true
    },
    {
      "inputs": [],
      "name": "tokenAddress",
      "outputs": [
        {
          "internalType": "address payable",
          "name": "",
          "type": "address"
        }
      ],
      "stateMutability": "view",
      "type": "function",
      "constant": true
    },
    {
      "inputs": [],
      "name": "totalItem",
      "outputs": [
        {
          "internalType": "uint256",
          "name": "",
          "type": "uint256"
        }
      ],
      "stateMutability": "view",
      "type": "function",
      "constant": true
    },
    {
      "inputs": [
        {
          "internalType": "address",
          "name": "newOwner",
          "type": "address"
        }
      ],
      "name": "transferOwnership",
      "outputs": [],
      "stateMutability": "nonpayable",
      "type": "function"
    },
    {
      "inputs": [
        {
          "internalType": "address payable",
          "name": "nftAddress_",
          "type": "address"
        }
      ],
      "name": "setNFTAddress",
      "outputs": [],
      "stateMutability": "nonpayable",
      "type": "function"
    },
    {
      "inputs": [
        {
          "internalType": "uint256",
          "name": "nftId",
          "type": "uint256"
        },
        {
          "internalType": "uint256",
          "name": "value",
          "type": "uint256"
        }
      ],
      "name": "depositC2CItem",
      "outputs": [
        {
          "internalType": "bool",
          "name": "",
          "type": "bool"
        }
      ],
      "stateMutability": "nonpayable",
      "type": "function"
    },
    {
      "inputs": [
        {
          "internalType": "uint256",
          "name": "nftId",
          "type": "uint256"
        }
      ],
      "name": "buyC2CItem",
      "outputs": [
        {
          "internalType": "bool",
          "name": "",
          "type": "bool"
        }
      ],
      "stateMutability": "payable",
      "type": "function",
      "payable": true
    },
    {
      "inputs": [
        {
          "internalType": "uint256",
          "name": "nftId",
          "type": "uint256"
        }
      ],
      "name": "downC2CItem",
      "outputs": [
        {
          "internalType": "bool",
          "name": "",
          "type": "bool"
        }
      ],
      "stateMutability": "nonpayable",
      "type": "function"
    },
    {
      "inputs": [
        {
          "internalType": "uint256",
          "name": "nftId",
          "type": "uint256"
        }
      ],
      "name": "getC2CItem",
      "outputs": [
        {
          "components": [
            {
              "internalType": "address",
              "name": "author",
              "type": "address"
            },
            {
              "internalType": "uint256",
              "name": "nftId",
              "type": "uint256"
            },
            {
              "internalType": "uint256",
              "name": "value",
              "type": "uint256"
            },
            {
              "internalType": "uint256",
              "name": "timestamp",
              "type": "uint256"
            }
          ],
          "internalType": "struct PantheonC2C.C2CItem",
          "name": "item",
          "type": "tuple"
        }
      ],
      "stateMutability": "view",
      "type": "function",
      "constant": true
    },
    {
      "inputs": [],
      "name": "getTotalItem",
      "outputs": [
        {
          "internalType": "uint256",
          "name": "",
          "type": "uint256"
        }
      ],
      "stateMutability": "view",
      "type": "function",
      "constant": true
    },
    {
      "inputs": [],
      "name": "release",
      "outputs": [],
      "stateMutability": "nonpayable",
      "type": "function"
    },
    {
      "inputs": [
        {
          "internalType": "bool",
          "name": "enable",
          "type": "bool"
        }
      ],
      "name": "setC2CEnable",
      "outputs": [],
      "stateMutability": "nonpayable",
      "type": "function"
    },
    {
      "inputs": [],
      "name": "isC2CEnable",
      "outputs": [
        {
          "internalType": "bool",
          "name": "",
          "type": "bool"
        }
      ],
      "stateMutability": "view",
      "type": "function",
      "constant": true
    }
  ],
  "bytecode": "0x6080604052620f42406001556702c68af0bb140000600255670de0b6b3a76400006003553480156200003057600080fd5b5060405162002a7038038062002a70833981810160405281019062000056919062000305565b620000766200006a6200022260201b60201c565b6200022a60201b60201c565b33600860006101000a81548173ffffffffffffffffffffffffffffffffffffffff021916908373ffffffffffffffffffffffffffffffffffffffff1602179055506001600a60006101000a81548160ff02191690831515021790555081600660006101000a81548173ffffffffffffffffffffffffffffffffffffffff021916908373ffffffffffffffffffffffffffffffffffffffff160217905550600660009054906101000a900473ffffffffffffffffffffffffffffffffffffffff16600760006101000a81548173ffffffffffffffffffffffffffffffffffffffff021916908373ffffffffffffffffffffffffffffffffffffffff16021790555080600460006101000a81548173ffffffffffffffffffffffffffffffffffffffff021916908373ffffffffffffffffffffffffffffffffffffffff160217905550600460009054906101000a900473ffffffffffffffffffffffffffffffffffffffff16600560006101000a81548173ffffffffffffffffffffffffffffffffffffffff021916908373ffffffffffffffffffffffffffffffffffffffff16021790555050506200039f565b600033905090565b60008060009054906101000a900473ffffffffffffffffffffffffffffffffffffffff169050816000806101000a81548173ffffffffffffffffffffffffffffffffffffffff021916908373ffffffffffffffffffffffffffffffffffffffff1602179055508173ffffffffffffffffffffffffffffffffffffffff168173ffffffffffffffffffffffffffffffffffffffff167f8be0079c531659141344cd1fd0a4f28419497f9722a3daafe3b4186f6b6457e060405160405180910390a35050565b600081519050620002ff8162000385565b92915050565b600080604083850312156200031f576200031e62000380565b5b60006200032f85828601620002ee565b92505060206200034285828601620002ee565b9150509250929050565b6000620003598262000360565b9050919050565b600073ffffffffffffffffffffffffffffffffffffffff82169050919050565b600080fd5b62000390816200034c565b81146200039c57600080fd5b50565b6126c180620003af6000396000f3fe60806040526004361061012a5760003560e01c8063997a3745116100ab578063d59ae61c1161006f578063d59ae61c146103c6578063e9a3655c14610406578063f15cdad114610443578063f2fde38b1461046e578063f482e24314610497578063fc0c546a146104d45761012a565b8063997a3745146102f15780639d76ea581461031a578063ae4c603014610345578063bda4fd8914610370578063d06fcba81461039b5761012a565b806369d03738116100f257806369d037381461023f578063715018a61461026857806385b4c2901461027f57806386d1a69f146102af5780638da5cb5b146102c65761012a565b8063040750521461012f578063150b7a021461016c5780632e4176cf146101a9578063403a9909146101d45780634b9f0783146101ff575b600080fd5b34801561013b57600080fd5b5061015660048036038101906101519190611c45565b6104ff565b6040516101639190612008565b60405180910390f35b34801561017857600080fd5b50610193600480360381019061018e9190611b68565b6107c9565b6040516101a09190612023565b60405180910390f35b3480156101b557600080fd5b506101be6107dd565b6040516101cb9190611ef6565b60405180910390f35b3480156101e057600080fd5b506101e9610803565b6040516101f69190612008565b60405180910390f35b34801561020b57600080fd5b5061022660048036038101906102219190611c45565b61081a565b6040516102369493929190611fc3565b60405180910390f35b34801561024b57600080fd5b5061026660048036038101906102619190611b3b565b61087a565b005b34801561027457600080fd5b5061027d6109d7565b005b61029960048036038101906102949190611c45565b610a5f565b6040516102a69190612008565b60405180910390f35b3480156102bb57600080fd5b506102c4610eb9565b005b3480156102d257600080fd5b506102db61111c565b6040516102e89190611ef6565b60405180910390f35b3480156102fd57600080fd5b5061031860048036038101906103139190611beb565b611145565b005b34801561032657600080fd5b5061032f6111de565b60405161033c9190611f11565b60405180910390f35b34801561035157600080fd5b5061035a611204565b60405161036791906121af565b60405180910390f35b34801561037c57600080fd5b5061038561120e565b60405161039291906121af565b60405180910390f35b3480156103a757600080fd5b506103b0611214565b6040516103bd9190612059565b60405180910390f35b3480156103d257600080fd5b506103ed60048036038101906103e89190611c45565b61123a565b6040516103fd9493929190611fc3565b60405180910390f35b34801561041257600080fd5b5061042d60048036038101906104289190611c9f565b61128a565b60405161043a9190612008565b60405180910390f35b34801561044f57600080fd5b506104586116d6565b6040516104659190612008565b60405180910390f35b34801561047a57600080fd5b5061049560048036038101906104909190611ae1565b6116e9565b005b3480156104a357600080fd5b506104be60048036038101906104b99190611c45565b6117e1565b6040516104cb9190612194565b60405180910390f35b3480156104e057600080fd5b506104e9611882565b6040516104f6919061203e565b60405180910390f35b6000804290506000600c60008581526020019081526020016000206040518060800160405290816000820160009054906101000a900473ffffffffffffffffffffffffffffffffffffffff1673ffffffffffffffffffffffffffffffffffffffff1673ffffffffffffffffffffffffffffffffffffffff16815260200160018201548152602001600282015481526020016003820154815250509050600073ffffffffffffffffffffffffffffffffffffffff16816000015173ffffffffffffffffffffffffffffffffffffffff16141561060f576040517f08c379a0000000000000000000000000000000000000000000000000000000008152600401610606906120d4565b60405180910390fd5b3373ffffffffffffffffffffffffffffffffffffffff16816000015173ffffffffffffffffffffffffffffffffffffffff1614610681576040517f08c379a000000000000000000000000000000000000000000000000000000000815260040161067890612174565b60405180910390fd5b600760009054906101000a900473ffffffffffffffffffffffffffffffffffffffff1673ffffffffffffffffffffffffffffffffffffffff166342842e0e3033876040518463ffffffff1660e01b81526004016106e093929190611f2c565b600060405180830381600087803b1580156106fa57600080fd5b505af115801561070e573d6000803e3d6000fd5b50505050600c6000858152602001908152602001600020600080820160006101000a81549073ffffffffffffffffffffffffffffffffffffffff021916905560018201600090556002820160009055600382016000905550507fd6a8a797238a0196f4a98543809e846abfdc496a09799c6857519d5156447dc133858460405161079a93929190611f8c565b60405180910390a16107b86001600b546118a890919063ffffffff16565b600b81905550600192505050919050565b600063150b7a0260e01b9050949350505050565b600860009054906101000a900473ffffffffffffffffffffffffffffffffffffffff1681565b6000600a60009054906101000a900460ff16905090565b6009818154811061082a57600080fd5b90600052602060002090600402016000915090508060000160009054906101000a900473ffffffffffffffffffffffffffffffffffffffff16908060010154908060020154908060030154905084565b6108826118be565b73ffffffffffffffffffffffffffffffffffffffff166108a061111c565b73ffffffffffffffffffffffffffffffffffffffff16146108f6576040517f08c379a00000000000000000000000000000000000000000000000000000000081526004016108ed90612134565b60405180910390fd5b600073ffffffffffffffffffffffffffffffffffffffff168173ffffffffffffffffffffffffffffffffffffffff16141561093057600080fd5b80600660006101000a81548173ffffffffffffffffffffffffffffffffffffffff021916908373ffffffffffffffffffffffffffffffffffffffff160217905550600660009054906101000a900473ffffffffffffffffffffffffffffffffffffffff16600760006101000a81548173ffffffffffffffffffffffffffffffffffffffff021916908373ffffffffffffffffffffffffffffffffffffffff16021790555050565b6109df6118be565b73ffffffffffffffffffffffffffffffffffffffff166109fd61111c565b73ffffffffffffffffffffffffffffffffffffffff1614610a53576040517f08c379a0000000000000000000000000000000000000000000000000000000008152600401610a4a90612134565b60405180910390fd5b610a5d60006118c6565b565b6000804290506000600c60008581526020019081526020016000206040518060800160405290816000820160009054906101000a900473ffffffffffffffffffffffffffffffffffffffff1673ffffffffffffffffffffffffffffffffffffffff1673ffffffffffffffffffffffffffffffffffffffff16815260200160018201548152602001600282015481526020016003820154815250509050600a60009054906101000a900460ff16610b4a576040517f08c379a0000000000000000000000000000000000000000000000000000000008152600401610b4190612154565b60405180910390fd5b600073ffffffffffffffffffffffffffffffffffffffff16816000015173ffffffffffffffffffffffffffffffffffffffff161415610bbe576040517f08c379a0000000000000000000000000000000000000000000000000000000008152600401610bb5906120d4565b60405180910390fd5b6000816040015190508160400151600560009054906101000a900473ffffffffffffffffffffffffffffffffffffffff1673ffffffffffffffffffffffffffffffffffffffff166370a08231336040518263ffffffff1660e01b8152600401610c279190611ef6565b60206040518083038186803b158015610c3f57600080fd5b505afa158015610c53573d6000803e3d6000fd5b505050506040513d601f19601f82011682018060405250810190610c779190611c72565b1015610cb8576040517f08c379a0000000000000000000000000000000000000000000000000000000008152600401610caf906120b4565b60405180910390fd5b600760009054906101000a900473ffffffffffffffffffffffffffffffffffffffff1673ffffffffffffffffffffffffffffffffffffffff166342842e0e3033886040518463ffffffff1660e01b8152600401610d1793929190611f2c565b600060405180830381600087803b158015610d3157600080fd5b505af1158015610d45573d6000803e3d6000fd5b50505050600560009054906101000a900473ffffffffffffffffffffffffffffffffffffffff1673ffffffffffffffffffffffffffffffffffffffff166323b872dd338460000151846040518463ffffffff1660e01b8152600401610dac93929190611f2c565b602060405180830381600087803b158015610dc657600080fd5b505af1158015610dda573d6000803e3d6000fd5b505050506040513d601f19601f82011682018060405250810190610dfe9190611c18565b50600c6000868152602001908152602001600020600080820160006101000a81549073ffffffffffffffffffffffffffffffffffffffff02191690556001820160009055600282016000905560038201600090555050610e6a6001600b546118a890919063ffffffff16565b600b819055507f34a30b4763822d24aabe89e533a6b7cb17320c79b6f36fd8d24f6ec9d1ccd05a33868386604051610ea59493929190611fc3565b60405180910390a160019350505050919050565b610ec16118be565b73ffffffffffffffffffffffffffffffffffffffff16610edf61111c565b73ffffffffffffffffffffffffffffffffffffffff1614610f35576040517f08c379a0000000000000000000000000000000000000000000000000000000008152600401610f2c90612134565b60405180910390fd5b600860009054906101000a900473ffffffffffffffffffffffffffffffffffffffff1673ffffffffffffffffffffffffffffffffffffffff166108fc479081150290604051600060405180830381858888f19350505050158015610f9d573d6000803e3d6000fd5b50600560009054906101000a900473ffffffffffffffffffffffffffffffffffffffff1673ffffffffffffffffffffffffffffffffffffffff1663a9059cbb600860009054906101000a900473ffffffffffffffffffffffffffffffffffffffff16600560009054906101000a900473ffffffffffffffffffffffffffffffffffffffff1673ffffffffffffffffffffffffffffffffffffffff166370a08231306040518263ffffffff1660e01b815260040161105a9190611ef6565b60206040518083038186803b15801561107257600080fd5b505afa158015611086573d6000803e3d6000fd5b505050506040513d601f19601f820116820180604052508101906110aa9190611c72565b6040518363ffffffff1660e01b81526004016110c7929190611f63565b602060405180830381600087803b1580156110e157600080fd5b505af11580156110f5573d6000803e3d6000fd5b505050506040513d601f19601f820116820180604052508101906111199190611c18565b50565b60008060009054906101000a900473ffffffffffffffffffffffffffffffffffffffff16905090565b61114d6118be565b73ffffffffffffffffffffffffffffffffffffffff1661116b61111c565b73ffffffffffffffffffffffffffffffffffffffff16146111c1576040517f08c379a00000000000000000000000000000000000000000000000000000000081526004016111b890612134565b60405180910390fd5b80600a60006101000a81548160ff02191690831515021790555050565b600460009054906101000a900473ffffffffffffffffffffffffffffffffffffffff1681565b6000600b54905090565b600b5481565b600760009054906101000a900473ffffffffffffffffffffffffffffffffffffffff1681565b600c6020528060005260406000206000915090508060000160009054906101000a900473ffffffffffffffffffffffffffffffffffffffff16908060010154908060020154908060030154905084565b600080429050600a60009054906101000a900460ff166112df576040517f08c379a00000000000000000000000000000000000000000000000000000000081526004016112d690612154565b60405180910390fd5b600154831015611324576040517f08c379a000000000000000000000000000000000000000000000000000000000815260040161131b90612074565b60405180910390fd5b6000600760009054906101000a900473ffffffffffffffffffffffffffffffffffffffff1673ffffffffffffffffffffffffffffffffffffffff166370a08231336040518263ffffffff1660e01b81526004016113819190611ef6565b60206040518083038186803b15801561139957600080fd5b505afa1580156113ad573d6000803e3d6000fd5b505050506040513d601f19601f820116820180604052508101906113d19190611c72565b11611411576040517f08c379a0000000000000000000000000000000000000000000000000000000008152600401611408906120f4565b60405180910390fd5b3373ffffffffffffffffffffffffffffffffffffffff16600760009054906101000a900473ffffffffffffffffffffffffffffffffffffffff1673ffffffffffffffffffffffffffffffffffffffff16636352211e866040518263ffffffff1660e01b815260040161148391906121af565b60206040518083038186803b15801561149b57600080fd5b505afa1580156114af573d6000803e3d6000fd5b505050506040513d601f19601f820116820180604052508101906114d39190611b0e565b73ffffffffffffffffffffffffffffffffffffffff1614611529576040517f08c379a000000000000000000000000000000000000000000000000000000000815260040161152090612114565b60405180910390fd5b600760009054906101000a900473ffffffffffffffffffffffffffffffffffffffff1673ffffffffffffffffffffffffffffffffffffffff166323b872dd3330876040518463ffffffff1660e01b815260040161158893929190611f2c565b600060405180830381600087803b1580156115a257600080fd5b505af11580156115b6573d6000803e3d6000fd5b50505050600060405180608001604052803373ffffffffffffffffffffffffffffffffffffffff16815260200186815260200185815260200142815250905080600c600087815260200190815260200160002060008201518160000160006101000a81548173ffffffffffffffffffffffffffffffffffffffff021916908373ffffffffffffffffffffffffffffffffffffffff1602179055506020820151816001015560408201518160020155606082015181600301559050506116876001600b5461198a90919063ffffffff16565b600b819055507f44312976b1f5e95e73b3484c3c98f645e08e08b5059b84dfea041a4e815a736b338686856040516116c29493929190611fc3565b60405180910390a160019250505092915050565b600a60009054906101000a900460ff1681565b6116f16118be565b73ffffffffffffffffffffffffffffffffffffffff1661170f61111c565b73ffffffffffffffffffffffffffffffffffffffff1614611765576040517f08c379a000000000000000000000000000000000000000000000000000000000815260040161175c90612134565b60405180910390fd5b600073ffffffffffffffffffffffffffffffffffffffff168173ffffffffffffffffffffffffffffffffffffffff1614156117d5576040517f08c379a00000000000000000000000000000000000000000000000000000000081526004016117cc90612094565b60405180910390fd5b6117de816118c6565b50565b6117e96119a0565b600c60008381526020019081526020016000206040518060800160405290816000820160009054906101000a900473ffffffffffffffffffffffffffffffffffffffff1673ffffffffffffffffffffffffffffffffffffffff1673ffffffffffffffffffffffffffffffffffffffff16815260200160018201548152602001600282015481526020016003820154815250509050919050565b600560009054906101000a900473ffffffffffffffffffffffffffffffffffffffff1681565b600081836118b69190612287565b905092915050565b600033905090565b60008060009054906101000a900473ffffffffffffffffffffffffffffffffffffffff169050816000806101000a81548173ffffffffffffffffffffffffffffffffffffffff021916908373ffffffffffffffffffffffffffffffffffffffff1602179055508173ffffffffffffffffffffffffffffffffffffffff168173ffffffffffffffffffffffffffffffffffffffff167f8be0079c531659141344cd1fd0a4f28419497f9722a3daafe3b4186f6b6457e060405160405180910390a35050565b600081836119989190612231565b905092915050565b6040518060800160405280600073ffffffffffffffffffffffffffffffffffffffff1681526020016000815260200160008152602001600081525090565b60006119f16119ec846121ef565b6121ca565b905082815260208101848484011115611a0d57611a0c61242c565b5b611a18848285612389565b509392505050565b600081359050611a2f8161262f565b92915050565b600081519050611a448161262f565b92915050565b600081359050611a5981612646565b92915050565b600081359050611a6e8161265d565b92915050565b600081519050611a838161265d565b92915050565b600082601f830112611a9e57611a9d612427565b5b8135611aae8482602086016119de565b91505092915050565b600081359050611ac681612674565b92915050565b600081519050611adb81612674565b92915050565b600060208284031215611af757611af6612436565b5b6000611b0584828501611a20565b91505092915050565b600060208284031215611b2457611b23612436565b5b6000611b3284828501611a35565b91505092915050565b600060208284031215611b5157611b50612436565b5b6000611b5f84828501611a4a565b91505092915050565b60008060008060808587031215611b8257611b81612436565b5b6000611b9087828801611a20565b9450506020611ba187828801611a20565b9350506040611bb287828801611ab7565b925050606085013567ffffffffffffffff811115611bd357611bd2612431565b5b611bdf87828801611a89565b91505092959194509250565b600060208284031215611c0157611c00612436565b5b6000611c0f84828501611a5f565b91505092915050565b600060208284031215611c2e57611c2d612436565b5b6000611c3c84828501611a74565b91505092915050565b600060208284031215611c5b57611c5a612436565b5b6000611c6984828501611ab7565b91505092915050565b600060208284031215611c8857611c87612436565b5b6000611c9684828501611acc565b91505092915050565b60008060408385031215611cb657611cb5612436565b5b6000611cc485828601611ab7565b9250506020611cd585828601611ab7565b9150509250929050565b611ce8816122cd565b82525050565b611cf7816122bb565b82525050565b611d06816122bb565b82525050565b611d15816122df565b82525050565b611d24816122eb565b82525050565b611d3381612341565b82525050565b611d4281612365565b82525050565b6000611d55602083612220565b9150611d608261244c565b602082019050919050565b6000611d78602683612220565b9150611d8382612475565b604082019050919050565b6000611d9b602883612220565b9150611da6826124c4565b604082019050919050565b6000611dbe601883612220565b9150611dc982612513565b602082019050919050565b6000611de1602083612220565b9150611dec8261253c565b602082019050919050565b6000611e04602483612220565b9150611e0f82612565565b604082019050919050565b6000611e27602083612220565b9150611e32826125b4565b602082019050919050565b6000611e4a601383612220565b9150611e55826125dd565b602082019050919050565b6000611e6d601283612220565b9150611e7882612606565b602082019050919050565b608082016000820151611e996000850182611cee565b506020820151611eac6020850182611ed8565b506040820151611ebf6040850182611ed8565b506060820151611ed26060850182611ed8565b50505050565b611ee181612337565b82525050565b611ef081612337565b82525050565b6000602082019050611f0b6000830184611cfd565b92915050565b6000602082019050611f266000830184611cdf565b92915050565b6000606082019050611f416000830186611cfd565b611f4e6020830185611cfd565b611f5b6040830184611ee7565b949350505050565b6000604082019050611f786000830185611cfd565b611f856020830184611ee7565b9392505050565b6000606082019050611fa16000830186611cfd565b611fae6020830185611ee7565b611fbb6040830184611ee7565b949350505050565b6000608082019050611fd86000830187611cfd565b611fe56020830186611ee7565b611ff26040830185611ee7565b611fff6060830184611ee7565b95945050505050565b600060208201905061201d6000830184611d0c565b92915050565b60006020820190506120386000830184611d1b565b92915050565b60006020820190506120536000830184611d2a565b92915050565b600060208201905061206e6000830184611d39565b92915050565b6000602082019050818103600083015261208d81611d48565b9050919050565b600060208201905081810360008301526120ad81611d6b565b9050919050565b600060208201905081810360008301526120cd81611d8e565b9050919050565b600060208201905081810360008301526120ed81611db1565b9050919050565b6000602082019050818103600083015261210d81611dd4565b9050919050565b6000602082019050818103600083015261212d81611df7565b9050919050565b6000602082019050818103600083015261214d81611e1a565b9050919050565b6000602082019050818103600083015261216d81611e3d565b9050919050565b6000602082019050818103600083015261218d81611e60565b9050919050565b60006080820190506121a96000830184611e83565b92915050565b60006020820190506121c46000830184611ee7565b92915050565b60006121d46121e5565b90506121e08282612398565b919050565b6000604051905090565b600067ffffffffffffffff82111561220a576122096123f8565b5b6122138261243b565b9050602081019050919050565b600082825260208201905092915050565b600061223c82612337565b915061224783612337565b9250827fffffffffffffffffffffffffffffffffffffffffffffffffffffffffffffffff0382111561227c5761227b6123c9565b5b828201905092915050565b600061229282612337565b915061229d83612337565b9250828210156122b0576122af6123c9565b5b828203905092915050565b60006122c682612317565b9050919050565b60006122d882612317565b9050919050565b60008115159050919050565b60007fffffffff0000000000000000000000000000000000000000000000000000000082169050919050565b600073ffffffffffffffffffffffffffffffffffffffff82169050919050565b6000819050919050565b600061234c82612353565b9050919050565b600061235e82612317565b9050919050565b600061237082612377565b9050919050565b600061238282612317565b9050919050565b82818337600083830152505050565b6123a18261243b565b810181811067ffffffffffffffff821117156123c0576123bf6123f8565b5b80604052505050565b7f4e487b7100000000000000000000000000000000000000000000000000000000600052601160045260246000fd5b7f4e487b7100000000000000000000000000000000000000000000000000000000600052604160045260246000fd5b600080fd5b600080fd5b600080fd5b600080fd5b6000601f19601f8301169050919050565b7f4e46542076616c75652073686f756c6420626967207468616e20302e31455448600082015250565b7f4f776e61626c653a206e6577206f776e657220697320746865207a65726f206160008201527f6464726573730000000000000000000000000000000000000000000000000000602082015250565b7f5468652076616c756520697320696e73756666696365696e7420666f7220746860008201527f697320746f6b656e000000000000000000000000000000000000000000000000602082015250565b7f54686973206e6674206973206e6f7420666f722073656c6c0000000000000000600082015250565b7f53656e64657220686173206e6f6e65206f6620746869732074797065206e6674600082015250565b7f53656e646572206973206e6f7420746865206f776e6572206f6620746869732060008201527f6974656d00000000000000000000000000000000000000000000000000000000602082015250565b7f4f776e61626c653a2063616c6c6572206973206e6f7420746865206f776e6572600082015250565b7f4332432073797374656d20697320646f776e2e00000000000000000000000000600082015250565b7f49742773206e6f7420796f7572206974656d0000000000000000000000000000600082015250565b612638816122bb565b811461264357600080fd5b50565b61264f816122cd565b811461265a57600080fd5b50565b612666816122df565b811461267157600080fd5b50565b61267d81612337565b811461268857600080fd5b5056fea26469706673582212200e3a403f988dca43705dca0241bd0e81f62a1866dea978d1cb8f9e927c28548a64736f6c63430008060033",
  "immutableReferences": {},
  "source": "\nimport \"./utils/math/SafeMath.sol\";\nimport \"./utils/Address.sol\";\nimport \"./token/ERC721/IERC721.sol\";\nimport \"./token/ERC20/IERC20.sol\";\nimport \"./access/Ownable.sol\";\nimport \"./token/ERC721/utils/ERC721Holder.sol\";\n\npragma solidity ^0.8.0;\n// SPDX-License-Identifier: MIT\n\ncontract PantheonC2C is Ownable, ERC721Holder{\n\n  uint MIN_DEPOSITE = 1*10**6; // 1PAN\n  uint MAX_DEPOSITE_ETH = 0.2 ether; //10\n  uint MAX_DEPOSITE_SCC = 1*10**18; //10**12\n\n  enum C2CStatus{\n    C2C_ONLINE,\n    C2C_OFFLINE,\n    C2C_LOCKED,\n    C2C_PAUSED\n  }\n\n  struct C2CItem {\n    address author;\n    uint nftId;\n    uint value;\n    // C2CStatus status;\n    uint timestamp;\n  }\n\n  using SafeMath for uint;\n\n  event C2CDepositItemEvent(address owner, uint nftId, uint value, uint timestamp);\n  event C2CBuyItemEvent(address owner, uint nftId, uint value, uint timestamp);\n  event C2CDownItemEvent(address owner, uint nftId, uint timestamp);\n\n  // \n  address payable public tokenAddress;\n  IERC20 public token;\n\n  // NFTToken\n  address nftAddress;\n  IERC721 public nftToken;\n\n  // \n  address public chairperson;\n  C2CItem[] public c2cAllItems;\n  \n  bool public c2cEnabled;\n  // // \n  uint public totalItem;\n\n  // IDO\n  mapping(uint => C2CItem) public c2cItems;\n  // \n  // ido \n  constructor(address nftAddress_, address tokenAddress_) {\n  \tchairperson = msg.sender;\n  \t// remainSupply = TOTAL_ETH_SUPPLY;\n    c2cEnabled = true;\n\n    nftAddress = nftAddress_;\n  \tnftToken = IERC721(nftAddress);\n    tokenAddress = payable(tokenAddress_);\n    token = IERC20(tokenAddress);\n  }\n  \n  function setNFTAddress(address payable nftAddress_) public onlyOwner{\n    require(nftAddress_ != address(0));\n     nftAddress = nftAddress_;\n     nftToken = IERC721(nftAddress);\n  }\n\n  // ETH\n  // ETH\n  function depositC2CItem(uint nftId, uint value) public returns (bool){\n    uint timestamp = block.timestamp;\n\n    require(c2cEnabled, \"C2C system is down.\");\n\n    require(value >= MIN_DEPOSITE, \"NFT value should big than 0.1ETH\");\n    // NFT\n    require(nftToken.balanceOf(msg.sender) >0, \"Sender has none of this type nft\");\n    // NFT\n    require(nftToken.ownerOf(nftId) == msg.sender, \"Sender is not the owner of this item\");\n\n    // NFT\n    nftToken.transferFrom(msg.sender, address(this), nftId);\n\n    // C2C\n    C2CItem memory c2cItem = C2CItem({\n      nftId: nftId,\n      value: value,\n      author: msg.sender,\n      timestamp: block.timestamp\n    });\n    c2cItems[nftId] = c2cItem;\n    totalItem = totalItem.add(1);\n    // c2cAllItems.push();\n\n    emit C2CDepositItemEvent(msg.sender, nftId, value, timestamp);\n    \n    return true;\n  }\n\n  // IDO\n  // ETH\n  function buyC2CItem(uint nftId) payable public returns (bool){\n    uint timestamp = block.timestamp;\n    // nftitem\n    C2CItem memory c2cItem = c2cItems[nftId];\n    require(c2cEnabled, \"C2C system is down.\");\n    require(c2cItem.author != address(0), \"This nft is not for sell\");\n    // \n    uint value = c2cItem.value;\n    // \n    require(token.balanceOf(msg.sender) >= c2cItem.value, \"The value is insufficeint for this token\");\n\n    // NFT\n    nftToken.safeTransferFrom(address(this), msg.sender, nftId);\n    \n    // \n    token.transferFrom(msg.sender, c2cItem.author, value);\n\n    delete c2cItems[nftId];\n    totalItem = totalItem.sub(1);\n    // \n    emit C2CBuyItemEvent(msg.sender, nftId, value, timestamp);\n\n    return true;\n\n  }\n\n  // IDO\n  // ETH\n  function downC2CItem(uint nftId) public returns (bool){\n    uint timestamp = block.timestamp;\n    // nftitem\n    C2CItem memory c2cItem = c2cItems[nftId];\n    // item\n    require(c2cItem.author != address(0), \"This nft is not for sell\");\n\n    // check is author has the permmit.\n    require(c2cItem.author == msg.sender, \"It's not your item\");\n\n    // NFT\n    nftToken.safeTransferFrom(address(this), msg.sender, nftId);\n\n    delete c2cItems[nftId];\n\n    // \n    emit C2CDownItemEvent(msg.sender, nftId, timestamp);\n    totalItem = totalItem.sub(1);\n    // c2cItems.push(C2CItem({\n    //   nftId: nftId,\n    //   value: value,\n    //   status: C2CStatus.C2C_ONLINE,\n    //   timestamp: block.timestamp\n    // }));\n    return true;\n\n  }\n  \n  function getC2CItem(uint nftId) public view returns(C2CItem memory item){\n    return c2cItems[nftId];\n  }\n\n  function getTotalItem() public view returns (uint) {\n    return totalItem;\n  }\n\n  function release() public  onlyOwner {\n      payable(chairperson).transfer(address(this).balance);\n      token.transfer(chairperson, token.balanceOf(address(this)));\n  }\n\n  function setC2CEnable(bool enable) public onlyOwner {\n    c2cEnabled = enable;\n  }\n\n  function isC2CEnable() public view returns(bool) {\n    return c2cEnabled;\n  }\n\n}",
  "sourcePath": "/Users/jilong/solidity/pantheonNFT/contracts/PantheonC2C.sol",
  "compiler": {
    "name": "solc",
    "version": "0.8.6+commit.11564f7e.Emscripten.clang"
  },
  "schemaVersion": "3.4.2",
  "updatedAt": "2021-08-25T23:02:00.091Z",
  "networkType": "ethereum",
  "devdoc": {
    "kind": "dev",
    "methods": {
      "onERC721Received(address,address,uint256,bytes)": {
        "details": "See {IERC721Receiver-onERC721Received}. Always returns `IERC721Receiver.onERC721Received.selector`."
      },
      "owner()": {
        "details": "Returns the address of the current owner."
      },
      "renounceOwnership()": {
        "details": "Leaves the contract without owner. It will not be possible to call `onlyOwner` functions anymore. Can only be called by the current owner. NOTE: Renouncing ownership will leave the contract without an owner, thereby removing any functionality that is only available to the owner."
      },
      "transferOwnership(address)": {
        "details": "Transfers ownership of the contract to a new account (`newOwner`). Can only be called by the current owner."
      }
    },
    "version": 1
  },
  "userdoc": {
    "kind": "user",
    "methods": {},
    "version": 1
  }
}