{
  "contractName": "PantheonPool",
  "abi": [
    {
      "inputs": [
        {
          "internalType": "contract IERC20",
          "name": "_chaAddress",
          "type": "address"
        },
        {
          "internalType": "contract IERC20",
          "name": "_usdtAddress",
          "type": "address"
        },
        {
          "internalType": "contract IERC721Card",
          "name": "_nftAddress",
          "type": "address"
        },
        {
          "internalType": "address",
          "name": "beneficancy",
          "type": "address"
        },
        {
          "internalType": "uint256",
          "name": "_chaPerBlock",
          "type": "uint256"
        },
        {
          "internalType": "uint256",
          "name": "_startBlock",
          "type": "uint256"
        },
        {
          "internalType": "uint256",
          "name": "_totalReward",
          "type": "uint256"
        }
      ],
      "stateMutability": "nonpayable",
      "type": "constructor"
    },
    {
      "anonymous": false,
      "inputs": [
        {
          "indexed": true,
          "internalType": "address",
          "name": "user",
          "type": "address"
        },
        {
          "indexed": true,
          "internalType": "uint256",
          "name": "pid",
          "type": "uint256"
        },
        {
          "indexed": false,
          "internalType": "uint256",
          "name": "amount",
          "type": "uint256"
        }
      ],
      "name": "Deposit",
      "type": "event"
    },
    {
      "anonymous": false,
      "inputs": [
        {
          "indexed": true,
          "internalType": "address",
          "name": "user",
          "type": "address"
        },
        {
          "indexed": true,
          "internalType": "uint256",
          "name": "pid",
          "type": "uint256"
        },
        {
          "indexed": false,
          "internalType": "uint256",
          "name": "amount",
          "type": "uint256"
        },
        {
          "indexed": false,
          "internalType": "uint16",
          "name": "nft1",
          "type": "uint16"
        },
        {
          "indexed": false,
          "internalType": "uint16",
          "name": "nft2",
          "type": "uint16"
        },
        {
          "indexed": false,
          "internalType": "uint16",
          "name": "nft3",
          "type": "uint16"
        }
      ],
      "name": "DepositWithNFT",
      "type": "event"
    },
    {
      "anonymous": false,
      "inputs": [
        {
          "indexed": true,
          "internalType": "address",
          "name": "user",
          "type": "address"
        },
        {
          "indexed": true,
          "internalType": "uint256",
          "name": "pid",
          "type": "uint256"
        },
        {
          "indexed": false,
          "internalType": "uint256",
          "name": "amount",
          "type": "uint256"
        }
      ],
      "name": "EmergencyWithdraw",
      "type": "event"
    },
    {
      "anonymous": false,
      "inputs": [
        {
          "indexed": true,
          "internalType": "address",
          "name": "user",
          "type": "address"
        },
        {
          "indexed": true,
          "internalType": "uint256",
          "name": "pid",
          "type": "uint256"
        },
        {
          "indexed": false,
          "internalType": "uint256",
          "name": "amount",
          "type": "uint256"
        }
      ],
      "name": "Harvest",
      "type": "event"
    },
    {
      "anonymous": false,
      "inputs": [
        {
          "indexed": true,
          "internalType": "address",
          "name": "previousOwner",
          "type": "address"
        },
        {
          "indexed": true,
          "internalType": "address",
          "name": "newOwner",
          "type": "address"
        }
      ],
      "name": "OwnershipTransferred",
      "type": "event"
    },
    {
      "anonymous": false,
      "inputs": [
        {
          "indexed": true,
          "internalType": "address",
          "name": "user",
          "type": "address"
        },
        {
          "indexed": true,
          "internalType": "uint256",
          "name": "pid",
          "type": "uint256"
        },
        {
          "indexed": false,
          "internalType": "uint256",
          "name": "amount",
          "type": "uint256"
        }
      ],
      "name": "Withdraw",
      "type": "event"
    },
    {
      "inputs": [],
      "name": "BONUS_MULTIPLIER",
      "outputs": [
        {
          "internalType": "uint256",
          "name": "",
          "type": "uint256"
        }
      ],
      "stateMutability": "view",
      "type": "function"
    },
    {
      "inputs": [],
      "name": "accChaPerShare",
      "outputs": [
        {
          "internalType": "uint256",
          "name": "",
          "type": "uint256"
        }
      ],
      "stateMutability": "view",
      "type": "function"
    },
    {
      "inputs": [],
      "name": "chaPerBlock",
      "outputs": [
        {
          "internalType": "uint256",
          "name": "",
          "type": "uint256"
        }
      ],
      "stateMutability": "view",
      "type": "function"
    },
    {
      "inputs": [],
      "name": "devaddr",
      "outputs": [
        {
          "internalType": "address",
          "name": "",
          "type": "address"
        }
      ],
      "stateMutability": "view",
      "type": "function"
    },
    {
      "inputs": [],
      "name": "inviteForce",
      "outputs": [
        {
          "internalType": "bool",
          "name": "",
          "type": "bool"
        }
      ],
      "stateMutability": "view",
      "type": "function"
    },
    {
      "inputs": [
        {
          "internalType": "address",
          "name": "",
          "type": "address"
        }
      ],
      "name": "inviteReward",
      "outputs": [
        {
          "internalType": "uint256",
          "name": "",
          "type": "uint256"
        }
      ],
      "stateMutability": "view",
      "type": "function"
    },
    {
      "inputs": [],
      "name": "lastRewardBlock",
      "outputs": [
        {
          "internalType": "uint256",
          "name": "",
          "type": "uint256"
        }
      ],
      "stateMutability": "view",
      "type": "function"
    },
    {
      "inputs": [],
      "name": "maxInviteLayer",
      "outputs": [
        {
          "internalType": "uint8",
          "name": "",
          "type": "uint8"
        }
      ],
      "stateMutability": "view",
      "type": "function"
    },
    {
      "inputs": [
        {
          "internalType": "uint256",
          "name": "",
          "type": "uint256"
        },
        {
          "internalType": "address",
          "name": "",
          "type": "address"
        }
      ],
      "name": "minerInfo",
      "outputs": [
        {
          "internalType": "uint256",
          "name": "amount",
          "type": "uint256"
        },
        {
          "internalType": "uint256",
          "name": "power",
          "type": "uint256"
        },
        {
          "internalType": "uint256",
          "name": "endBlock",
          "type": "uint256"
        },
        {
          "internalType": "uint256",
          "name": "rewardDebt",
          "type": "uint256"
        },
        {
          "internalType": "uint256",
          "name": "nft1",
          "type": "uint256"
        },
        {
          "internalType": "uint256",
          "name": "nft2",
          "type": "uint256"
        },
        {
          "internalType": "uint256",
          "name": "nft3",
          "type": "uint256"
        }
      ],
      "stateMutability": "view",
      "type": "function"
    },
    {
      "inputs": [
        {
          "internalType": "uint256",
          "name": "",
          "type": "uint256"
        }
      ],
      "name": "nftRate",
      "outputs": [
        {
          "internalType": "uint16",
          "name": "",
          "type": "uint16"
        }
      ],
      "stateMutability": "view",
      "type": "function"
    },
    {
      "inputs": [],
      "name": "nftToken",
      "outputs": [
        {
          "internalType": "contract IERC721Card",
          "name": "",
          "type": "address"
        }
      ],
      "stateMutability": "view",
      "type": "function"
    },
    {
      "inputs": [
        {
          "internalType": "address",
          "name": "",
          "type": "address"
        },
        {
          "internalType": "address",
          "name": "",
          "type": "address"
        },
        {
          "internalType": "uint256",
          "name": "",
          "type": "uint256"
        },
        {
          "internalType": "bytes",
          "name": "",
          "type": "bytes"
        }
      ],
      "name": "onERC721Received",
      "outputs": [
        {
          "internalType": "bytes4",
          "name": "",
          "type": "bytes4"
        }
      ],
      "stateMutability": "nonpayable",
      "type": "function"
    },
    {
      "inputs": [],
      "name": "owner",
      "outputs": [
        {
          "internalType": "address",
          "name": "",
          "type": "address"
        }
      ],
      "stateMutability": "view",
      "type": "function"
    },
    {
      "inputs": [],
      "name": "panToken",
      "outputs": [
        {
          "internalType": "contract IERC20",
          "name": "",
          "type": "address"
        }
      ],
      "stateMutability": "view",
      "type": "function"
    },
    {
      "inputs": [
        {
          "internalType": "uint256",
          "name": "",
          "type": "uint256"
        }
      ],
      "name": "poolInfo",
      "outputs": [
        {
          "internalType": "contract IERC20",
          "name": "lpToken",
          "type": "address"
        },
        {
          "internalType": "bool",
          "name": "isLp",
          "type": "bool"
        },
        {
          "internalType": "uint32",
          "name": "timeBlocks",
          "type": "uint32"
        },
        {
          "internalType": "uint256",
          "name": "powerRate",
          "type": "uint256"
        }
      ],
      "stateMutability": "view",
      "type": "function"
    },
    {
      "inputs": [],
      "name": "releasedReward",
      "outputs": [
        {
          "internalType": "uint256",
          "name": "",
          "type": "uint256"
        }
      ],
      "stateMutability": "view",
      "type": "function"
    },
    {
      "inputs": [],
      "name": "renounceOwnership",
      "outputs": [],
      "stateMutability": "nonpayable",
      "type": "function"
    },
    {
      "inputs": [],
      "name": "startBlock",
      "outputs": [
        {
          "internalType": "uint256",
          "name": "",
          "type": "uint256"
        }
      ],
      "stateMutability": "view",
      "type": "function"
    },
    {
      "inputs": [],
      "name": "totalAllocPoint",
      "outputs": [
        {
          "internalType": "uint256",
          "name": "",
          "type": "uint256"
        }
      ],
      "stateMutability": "view",
      "type": "function"
    },
    {
      "inputs": [],
      "name": "totalPower",
      "outputs": [
        {
          "internalType": "uint256",
          "name": "",
          "type": "uint256"
        }
      ],
      "stateMutability": "view",
      "type": "function"
    },
    {
      "inputs": [],
      "name": "totalReward",
      "outputs": [
        {
          "internalType": "uint256",
          "name": "",
          "type": "uint256"
        }
      ],
      "stateMutability": "view",
      "type": "function"
    },
    {
      "inputs": [
        {
          "internalType": "address",
          "name": "newOwner",
          "type": "address"
        }
      ],
      "name": "transferOwnership",
      "outputs": [],
      "stateMutability": "nonpayable",
      "type": "function"
    },
    {
      "inputs": [],
      "name": "usdtToken",
      "outputs": [
        {
          "internalType": "contract IERC20",
          "name": "",
          "type": "address"
        }
      ],
      "stateMutability": "view",
      "type": "function"
    },
    {
      "inputs": [
        {
          "internalType": "address",
          "name": "",
          "type": "address"
        }
      ],
      "name": "userLevel",
      "outputs": [
        {
          "internalType": "uint8",
          "name": "",
          "type": "uint8"
        }
      ],
      "stateMutability": "view",
      "type": "function"
    },
    {
      "inputs": [
        {
          "internalType": "address",
          "name": "",
          "type": "address"
        }
      ],
      "name": "userParent",
      "outputs": [
        {
          "internalType": "address",
          "name": "",
          "type": "address"
        }
      ],
      "stateMutability": "view",
      "type": "function"
    },
    {
      "inputs": [
        {
          "internalType": "address",
          "name": "",
          "type": "address"
        }
      ],
      "name": "userPower",
      "outputs": [
        {
          "internalType": "uint256",
          "name": "",
          "type": "uint256"
        }
      ],
      "stateMutability": "view",
      "type": "function"
    },
    {
      "inputs": [],
      "name": "releaseReward2",
      "outputs": [
        {
          "internalType": "uint256",
          "name": "",
          "type": "uint256"
        }
      ],
      "stateMutability": "view",
      "type": "function"
    },
    {
      "inputs": [],
      "name": "remainReward",
      "outputs": [
        {
          "internalType": "uint256",
          "name": "",
          "type": "uint256"
        }
      ],
      "stateMutability": "view",
      "type": "function"
    },
    {
      "inputs": [],
      "name": "poolLength",
      "outputs": [
        {
          "internalType": "uint256",
          "name": "",
          "type": "uint256"
        }
      ],
      "stateMutability": "view",
      "type": "function"
    },
    {
      "inputs": [
        {
          "internalType": "uint256",
          "name": "_powerRate",
          "type": "uint256"
        },
        {
          "internalType": "contract IERC20",
          "name": "_token",
          "type": "address"
        },
        {
          "internalType": "bool",
          "name": "_isLp",
          "type": "bool"
        },
        {
          "internalType": "uint32",
          "name": "timeBlocks",
          "type": "uint32"
        },
        {
          "internalType": "bool",
          "name": "_withUpdate",
          "type": "bool"
        }
      ],
      "name": "addPool",
      "outputs": [],
      "stateMutability": "nonpayable",
      "type": "function"
    },
    {
      "inputs": [
        {
          "internalType": "uint256",
          "name": "_pid",
          "type": "uint256"
        },
        {
          "internalType": "uint256",
          "name": "_powerRate",
          "type": "uint256"
        },
        {
          "internalType": "bool",
          "name": "_withUpdate",
          "type": "bool"
        }
      ],
      "name": "setPool",
      "outputs": [],
      "stateMutability": "nonpayable",
      "type": "function"
    },
    {
      "inputs": [
        {
          "internalType": "address",
          "name": "parent",
          "type": "address"
        }
      ],
      "name": "setInvite",
      "outputs": [],
      "stateMutability": "nonpayable",
      "type": "function"
    },
    {
      "inputs": [
        {
          "internalType": "bool",
          "name": "enable",
          "type": "bool"
        }
      ],
      "name": "setInviteEnable",
      "outputs": [],
      "stateMutability": "nonpayable",
      "type": "function"
    },
    {
      "inputs": [
        {
          "internalType": "uint8",
          "name": "layer",
          "type": "uint8"
        }
      ],
      "name": "setMaxInviteLayer",
      "outputs": [],
      "stateMutability": "nonpayable",
      "type": "function"
    },
    {
      "inputs": [
        {
          "internalType": "address",
          "name": "addr",
          "type": "address"
        }
      ],
      "name": "getInviteInfo",
      "outputs": [
        {
          "internalType": "uint16",
          "name": "",
          "type": "uint16"
        },
        {
          "internalType": "uint256",
          "name": "",
          "type": "uint256"
        },
        {
          "internalType": "uint256",
          "name": "",
          "type": "uint256"
        },
        {
          "internalType": "address",
          "name": "",
          "type": "address"
        }
      ],
      "stateMutability": "view",
      "type": "function"
    },
    {
      "inputs": [
        {
          "internalType": "uint256",
          "name": "_from",
          "type": "uint256"
        },
        {
          "internalType": "uint256",
          "name": "_to",
          "type": "uint256"
        }
      ],
      "name": "getMultiplier",
      "outputs": [
        {
          "internalType": "uint256",
          "name": "",
          "type": "uint256"
        }
      ],
      "stateMutability": "pure",
      "type": "function"
    },
    {
      "inputs": [
        {
          "internalType": "uint256",
          "name": "_pid",
          "type": "uint256"
        },
        {
          "internalType": "address",
          "name": "_user",
          "type": "address"
        }
      ],
      "name": "pendingReward",
      "outputs": [
        {
          "internalType": "uint256",
          "name": "",
          "type": "uint256"
        }
      ],
      "stateMutability": "view",
      "type": "function"
    },
    {
      "inputs": [],
      "name": "updateReward",
      "outputs": [],
      "stateMutability": "nonpayable",
      "type": "function"
    },
    {
      "inputs": [
        {
          "internalType": "uint256",
          "name": "_pid",
          "type": "uint256"
        },
        {
          "internalType": "uint256",
          "name": "_amount",
          "type": "uint256"
        }
      ],
      "name": "deposit",
      "outputs": [
        {
          "internalType": "bool",
          "name": "",
          "type": "bool"
        }
      ],
      "stateMutability": "nonpayable",
      "type": "function"
    },
    {
      "inputs": [
        {
          "internalType": "uint256",
          "name": "_pid",
          "type": "uint256"
        },
        {
          "internalType": "uint256",
          "name": "_amount",
          "type": "uint256"
        },
        {
          "internalType": "uint16",
          "name": "nft1",
          "type": "uint16"
        },
        {
          "internalType": "uint16",
          "name": "nft2",
          "type": "uint16"
        },
        {
          "internalType": "uint16",
          "name": "nft3",
          "type": "uint16"
        }
      ],
      "name": "depositWithNFT",
      "outputs": [],
      "stateMutability": "nonpayable",
      "type": "function"
    },
    {
      "inputs": [
        {
          "internalType": "uint256",
          "name": "_pid",
          "type": "uint256"
        }
      ],
      "name": "harvest",
      "outputs": [],
      "stateMutability": "nonpayable",
      "type": "function"
    },
    {
      "inputs": [
        {
          "internalType": "uint256",
          "name": "_pid",
          "type": "uint256"
        },
        {
          "internalType": "uint256",
          "name": "_amount",
          "type": "uint256"
        }
      ],
      "name": "withdraw",
      "outputs": [],
      "stateMutability": "nonpayable",
      "type": "function"
    },
    {
      "inputs": [
        {
          "internalType": "uint256",
          "name": "_pid",
          "type": "uint256"
        }
      ],
      "name": "emergencyWithdraw",
      "outputs": [],
      "stateMutability": "nonpayable",
      "type": "function"
    }
  ],
  "bytecode": "0x61012060405260646080908152609660a05261012c60c05261025860e0526105dc61010052620000339060059081620005d7565b506000600660006101000a81548160ff021916908315150217905550600a600660016101000a81548160ff021916908360ff160217905550604051806101200160405280604051806101400160405280600560ff168152602001600060ff168152602001600060ff168152602001600060ff168152602001600060ff168152602001600060ff168152602001600060ff168152602001600060ff168152602001600060ff168152602001600060ff168152508152602001604051806101400160405280600860ff168152602001600560ff168152602001600060ff168152602001600060ff168152602001600060ff168152602001600060ff168152602001600060ff168152602001600060ff168152602001600060ff168152602001600060ff168152508152602001604051806101400160405280600a60ff168152602001600660ff168152602001600460ff168152602001600260ff168152602001600060ff168152602001600060ff168152602001600060ff168152602001600060ff168152602001600060ff168152602001600060ff168152508152602001604051806101400160405280600c60ff168152602001600860ff168152602001600660ff168152602001600460ff168152602001600260ff168152602001600260ff168152602001600060ff168152602001600060ff168152602001600060ff168152602001600060ff168152508152602001604051806101400160405280600e60ff168152602001600a60ff168152602001600860ff168152602001600660ff168152602001600460ff168152602001600260ff168152602001600260ff168152602001600260ff168152602001600060ff168152602001600060ff168152508152602001604051806101400160405280601060ff168152602001600c60ff168152602001600a60ff168152602001600860ff168152602001600660ff168152602001600460ff168152602001600260ff168152602001600260ff168152602001600260ff168152602001600260ff168152508152602001604051806101400160405280601260ff168152602001600e60ff168152602001600c60ff168152602001600a60ff168152602001600860ff168152602001600660ff168152602001600460ff168152602001600260ff168152602001600260ff168152602001600260ff168152508152602001604051806101400160405280601460ff168152602001601060ff168152602001600e60ff168152602001600c60ff168152602001600a60ff168152602001600860ff168152602001600660ff168152602001600460ff168152602001600260ff168152602001600260ff168152508152602001604051806101400160405280601660ff168152602001601260ff168152602001601060ff168152602001600e60ff168152602001600c60ff168152602001600a60ff168152602001600860ff168152602001600660ff168152602001600460ff168152602001600260ff1681525081525060119060096200049292919062000687565b506000601355348015620004a557600080fd5b50604051620036fa380380620036fa833981016040819052620004c891620007dc565b620004d33362000587565b600680546001600160a01b03808a16620100000262010000600160b01b031990921691909117909155600780548883166001600160a01b031991821617909155600b859055601484905560098390556001805492881692909116919091179055438210620005445760145462000546565b435b6002555050336000908152600e6020526040812080546001600160a01b0319166001600160a01b039490941693909317909255506004555062000879915050565b600080546001600160a01b038381166001600160a01b0319831681178455604051919092169283917f8be0079c531659141344cd1fd0a4f28419497f9722a3daafe3b4186f6b6457e09190a35050565b82805482825590600052602060002090600f01601090048101928215620006755791602002820160005b838211156200064357835183826101000a81548161ffff021916908361ffff160217905550926020019260020160208160010104928301926001030262000601565b8015620006735782816101000a81549061ffff021916905560020160208160010104928301926001030262000643565b505b5062000683929150620006e1565b5090565b828054828255906000526020600020908101928215620006d3579160200282015b82811115620006d3578251620006c2908390600a620006f8565b5091602001919060010190620006a8565b506200068392915062000791565b5b80821115620006835760008155600101620006e2565b82805482825590600052602060002090601f01602090048101928215620006755791602002820160005b838211156200076257835183826101000a81548160ff021916908360ff160217905550926020019260010160208160000104928301926001030262000722565b8015620006735782816101000a81549060ff021916905560010160208160000104928301926001030262000762565b8082111562000683576000620007a88282620007b2565b5060010162000791565b50805460008255601f016020900490600052602060002090810190620007d99190620006e1565b50565b600080600080600080600060e0888a031215620007f857600080fd5b8751620008058162000863565b6020890151909750620008188162000863565b60408901519096506200082b8162000863565b60608901519095506200083e8162000863565b809450506080880151925060a0880151915060c0880151905092959891949750929550565b6001600160a01b0381168114620007d957600080fd5b612e7180620008896000396000f3fe608060405234801561001057600080fd5b50600436106102695760003560e01c80636c18005b11610151578063d06fcba8116100c3578063e2bbb15811610087578063e2bbb1581461069b578063e92fa01f146106ae578063f0884f9f146106c1578063f2fde38b146106e1578063f36c0a72146106f4578063f53f8e94146106fc57600080fd5b8063d06fcba814610646578063d49e77cd14610659578063db3ad22c1461066c578063ddc6326214610675578063dea4d6781461068857600080fd5b80638da5cb5b116101155780638da5cb5b146105ea5780638dbb1e3a146105fb57806398969e821461060e578063a0f015ab14610621578063a98ad46c1461062a578063a9f8d1811461063d57600080fd5b80636c18005b146105bf578063715018a6146105c8578063750142e6146105d05780638043c10c146105d95780638aa28550146105e257600080fd5b8063441a3e70116101ea5780634d6e3452116101ae5780634d6e34521461052e5780635312ea8e1461054e57806354ce5f56146105615780635cab2c081461057e5780635e4906521461059157806360fc9c421461059957600080fd5b8063441a3e70146104525780634569d4151461046557806345d3f1971461048f57806346ca6bea1461051257806348cd4cb11461052557600080fd5b806317caf6f11161023157806317caf6f11461034d5780632613f87d14610356578063280e31cc146103795780634294c09b146103ae57806342f2ca02146103c057600080fd5b8063081e3eda1461026e5780630dfcaac6146102855780631485ff78146102c6578063150b7a02146102ce5780631526fe2714610305575b600080fd5b600c545b6040519081526020015b60405180910390f35b6102ae61029336600461290d565b600e602052600090815260409020546001600160a01b031681565b6040516001600160a01b03909116815260200161027c565b610272610715565b6102ec6102dc366004612947565b630a85bd0160e11b949350505050565b6040516001600160e01b0319909116815260200161027c565b610318610313366004612a61565b61072c565b604080516001600160a01b039095168552921515602085015263ffffffff90911691830191909152606082015260800161027c565b61027260135481565b610377610364366004612a27565b6006805460ff1916911515919091179055565b005b61039c61038736600461290d565b600f6020526000908152604090205460ff1681565b60405160ff909116815260200161027c565b60065461039c90610100900460ff1681565b61041d6103ce366004612a93565b6012602052816000526040600020602052806000526040600020600091509150508060000154908060010154908060020154908060030154908060040154908060050154908060060154905087565b604080519788526020880196909652948601939093526060850191909152608084015260a083015260c082015260e00161027c565b610377610460366004612b34565b61077c565b610377610473366004612be6565b6006805460ff9092166101000261ff0019909216919091179055565b6104e461049d36600461290d565b6001600160a01b038082166000908152600f6020908152604080832054600d8352818420546010845282852054600e909452919093205460ff909316939092169193509193565b6040805161ffff90951685526020850193909352918301526001600160a01b0316606082015260800161027c565b610377610520366004612b56565b610c0f565b61027260145481565b61027261053c36600461290d565b600d6020526000908152604090205481565b61037761055c366004612a61565b610c75565b60065461056e9060ff1681565b604051901515815260200161027c565b61037761058c36600461290d565b610e90565b610272610f99565b6105ac6105a7366004612a61565b610fbb565b60405161ffff909116815260200161027c565b61027260035481565b610377610ff3565b61027260095481565b610272600a5481565b610272600a81565b6000546001600160a01b03166102ae565b610272610609366004612b34565b611029565b61027261061c366004612a93565b61103e565b610272600b5481565b6007546102ae906001600160a01b031681565b61027260025481565b6001546102ae906001600160a01b031681565b6008546102ae906001600160a01b031681565b61027260045481565b610377610683366004612a61565b611122565b610377610696366004612b8f565b611225565b61056e6106a9366004612b34565b611c0c565b6103776106bc366004612ac3565b611fa7565b6102726106cf36600461290d565b60106020526000908152604090205481565b6103776106ef36600461290d565b6120b7565b61037761214f565b6006546102ae906201000090046001600160a01b031681565b6000600a546009546107279190612d3a565b905090565b600c818154811061073c57600080fd5b6000918252602090912060029091020180546001909101546001600160a01b0382169250600160a01b820460ff1691600160a81b900463ffffffff169084565b6000600c838154811061079157610791612ddd565b6000918252602080832086845260128252604080852033865290925292208054600290920290920192506108015760405162461bcd60e51b81526020600482015260126024820152711dda5d1a191c985dce881b9bdd0819dbdbd960721b60448201526064015b60405180910390fd5b60006003541161085d5760405162461bcd60e51b815260206004820152602160248201527f61636343686150657253686172652073686f756c64206e6f74206265207a65726044820152606f60f81b60648201526084016107f8565b61086561214f565b600380820154905482546108899164e8d4a510009161088391612255565b90612261565b11156108cf5760006108c182600301546108bb64e8d4a51000610883600354876000015461225590919063ffffffff16565b9061226d565b90506108cd3382612279565b505b8154600160a01b900460ff16156109845760075481546001600160a01b039091169063a9059cbb903390610904906004612261565b6040516001600160e01b031960e085901b1681526001600160a01b0390921660048301526024820152604401602060405180830381600087803b15801561094a57600080fd5b505af115801561095e573d6000803e3d6000fd5b505050506040513d601f19601f820116820180604052508101906109829190612a44565b505b815460405163a9059cbb60e01b8152336004820152602481018590526001600160a01b039091169063a9059cbb90604401602060405180830381600087803b1580156109cf57600080fd5b505af11580156109e3573d6000803e3d6000fd5b505050506040513d601f19601f82011682018060405250810190610a079190612a44565b50600481015415610a7b57600154600480830154604051632142170760e11b81526001600160a01b03909316926342842e0e92610a48923092339201612c63565b600060405180830381600087803b158015610a6257600080fd5b505af1158015610a76573d6000803e3d6000fd5b505050505b600581015415610aef576001546005820154604051632142170760e11b81526001600160a01b03909216916342842e0e91610abc9130913391600401612c63565b600060405180830381600087803b158015610ad657600080fd5b505af1158015610aea573d6000803e3d6000fd5b505050505b600681015415610b63576001546006820154604051632142170760e11b81526001600160a01b03909216916342842e0e91610b309130913391600401612c63565b600060405180830381600087803b158015610b4a57600080fd5b505af1158015610b5e573d6000803e3d6000fd5b505050505b6001810154600454610b749161226d565b6004556001810154336000908152600d6020526040902054610b959161226d565b336000818152600d60205260408082209390935560018401819055808455600484018190556005840181905560068401819055600384015590518591907ff279e6a1f5e320cca91135676d9cb6e44ca8a08c0b88342bcdb1144f6511b56890610c019087815260200190565b60405180910390a350505050565b6000546001600160a01b03163314610c395760405162461bcd60e51b81526004016107f890612cba565b8015610c4757610c4761214f565b81600c8481548110610c5b57610c5b612ddd565b906000526020600020906002020160010181905550505050565b6000600c8281548110610c8a57610c8a612ddd565b600091825260208083208584526012825260408085203386529092529220600281810154920290920192504311610d035760405162461bcd60e51b815260206004820181905260248201527f43616e6e6f7420776974686472617720776974682064617973206c696d69742e60448201526064016107f8565b80548254610d1e916001600160a01b039091169033906123b1565b8154600160a01b900460ff1615610dd35760075481546001600160a01b039091169063a9059cbb903390610d53906004612261565b6040516001600160e01b031960e085901b1681526001600160a01b0390921660048301526024820152604401602060405180830381600087803b158015610d9957600080fd5b505af1158015610dad573d6000803e3d6000fd5b505050506040513d601f19601f82011682018060405250810190610dd19190612a44565b505b8054604051908152839033907fbb757047c2b5f3974fe26b7c10f732e7bce710b0952a71082702781e62ae05959060200160405180910390a36001810154336000908152600d6020526040902054610e2a9161226d565b336000908152600d60205260409020819055610e4590612414565b336000908152600f60205260409020805460ff191660ff929092169190911790556001810154600454610e779161226d565b6004556000808255600382018190556001909101555050565b6001600160a01b038181166000908152600e602052604090205416610ef75760405162461bcd60e51b815260206004820152601e60248201527f506172656e742073686f756c6420626520696e766974652066697273742e000060448201526064016107f8565b6001600160a01b038116331415610f505760405162461bcd60e51b815260206004820152601c60248201527f506172656e742073686f756c64206e6f7420626520697473656c662e0000000060448201526064016107f8565b336000908152600e60205260409020546001600160a01b0316610f9657336000908152600e6020526040902080546001600160a01b0319166001600160a01b0383161790555b50565b600061072764e8d4a5100061088360035460045461225590919063ffffffff16565b60058181548110610fcb57600080fd5b9060005260206000209060109182820401919006600202915054906101000a900461ffff1681565b6000546001600160a01b0316331461101d5760405162461bcd60e51b81526004016107f890612cba565b6110276000612498565b565b6000611035828461226d565b90505b92915050565b60008281526012602090815260408083206001600160a01b0385168452909152812060035460028201544390811115611078575060028201545b6002548111801561108a575060045415155b1561111657600061109d60025483611029565b905060006110b6600b548361225590919063ffffffff16565b90506110e06110d960045461088364e8d4a510008561225590919063ffffffff16565b85906124e8565b935061110a85600301546108bb64e8d4a51000610883888a6001015461225590919063ffffffff16565b95505050505050611038565b50600095945050505050565b6000818152601260209081526040808320338452909152902061114361214f565b600061116f82600301546108bb64e8d4a51000610883600354876001015461225590919063ffffffff16565b9050600081116111b85760405162461bcd60e51b81526020600482015260146024820152731a185c9d995cdd0e881b9bdb99481c995dd85c9960621b60448201526064016107f8565b6111c23382612279565b6111e464e8d4a51000610883600354856001015461225590919063ffffffff16565b6003830155604051818152839033907f71bab65ced2e5750775a0613be067df48ef06cf92a496ebf7663ae06609249549060200160405180910390a3505050565b6000600c868154811061123a5761123a612ddd565b60009182526020808320898452601282526040808520338652835293849020845160e08101865281548152600182015493810193909352600280820154958401959095526003810154606084015260048101546080840152600581015460a08401526006015460c0830152919092020191506112b461214f565b8051156112f55760006112e782606001516108bb64e8d4a51000610883600354876020015161225590919063ffffffff16565b90506112f33382612279565b505b81546040516323b872dd60e01b81526001600160a01b03909116906323b872dd9061132890339030908b90600401612c63565b602060405180830381600087803b15801561134257600080fd5b505af1158015611356573d6000803e3d6000fd5b505050506040513d601f19601f8201168201806040525081019061137a9190612a44565b508154600160a01b900460ff161561141c576007546001600160a01b03166323b872dd33306113aa8a6004612261565b6040518463ffffffff1660e01b81526004016113c893929190612c63565b602060405180830381600087803b1580156113e257600080fd5b505af11580156113f6573d6000803e3d6000fd5b505050506040513d601f19601f8201168201806040525081019061141a9190612a44565b505b805161142890876124e8565b815260018201546000908190819061ffff8916158015906114ce57506001546040516331a9108f60e11b815261ffff8b16600482015233916001600160a01b031690636352211e9060240160206040518083038186803b15801561148b57600080fd5b505afa15801561149f573d6000803e3d6000fd5b505050506040513d601f19601f820116820180604052508101906114c3919061292a565b6001600160a01b0316145b156115fc576001546040516336af181960e11b815261ffff8b1660048201526001600160a01b0390911690636d5e30329060240160206040518083038186803b15801561151a57600080fd5b505afa15801561152e573d6000803e3d6000fd5b505050506040513d601f19601f820116820180604052508101906115529190612c03565b60ff1693506005848154811061156a5761156a612ddd565b6000918252602090912060108204015461159491600f166002026101000a900461ffff1682612cef565b600154604051632142170760e11b81529192506001600160a01b0316906342842e0e906115c990339030908e90600401612c3c565b600060405180830381600087803b1580156115e357600080fd5b505af11580156115f7573d6000803e3d6000fd5b505050505b60008861ffff1611801561169557506001546040516331a9108f60e11b815261ffff8a16600482015233916001600160a01b031690636352211e9060240160206040518083038186803b15801561165257600080fd5b505afa158015611666573d6000803e3d6000fd5b505050506040513d601f19601f8201168201806040525081019061168a919061292a565b6001600160a01b0316145b156117c3576001546040516336af181960e11b815261ffff8a1660048201526001600160a01b0390911690636d5e30329060240160206040518083038186803b1580156116e157600080fd5b505afa1580156116f5573d6000803e3d6000fd5b505050506040513d601f19601f820116820180604052508101906117199190612c03565b60ff1692506005838154811061173157611731612ddd565b6000918252602090912060108204015461175b91600f166002026101000a900461ffff1682612cef565b600154604051632142170760e11b81529192506001600160a01b0316906342842e0e9061179090339030908d90600401612c3c565b600060405180830381600087803b1580156117aa57600080fd5b505af11580156117be573d6000803e3d6000fd5b505050505b60008761ffff1611801561185c57506001546040516331a9108f60e11b815261ffff8916600482015233916001600160a01b031690636352211e9060240160206040518083038186803b15801561181957600080fd5b505afa15801561182d573d6000803e3d6000fd5b505050506040513d601f19601f82011682018060405250810190611851919061292a565b6001600160a01b0316145b1561198a576001546040516336af181960e11b815261ffff891660048201526001600160a01b0390911690636d5e30329060240160206040518083038186803b1580156118a857600080fd5b505afa1580156118bc573d6000803e3d6000fd5b505050506040513d601f19601f820116820180604052508101906118e09190612c03565b60ff169150600582815481106118f8576118f8612ddd565b6000918252602090912060108204015461192291600f166002026101000a900461ffff1682612cef565b600154604051632142170760e11b81529192506001600160a01b0316906342842e0e9061195790339030908c90600401612c3c565b600060405180830381600087803b15801561197157600080fd5b505af1158015611985573d6000803e3d6000fd5b505050505b828414801561199857508183145b80156119ae5750600a6119a96124f4565b60ff16105b15611a135783600214156119da57600a6119c982600d612d1b565b6119d39190612d07565b9050611a13565b83600314156119f057600a6119c982600f612d1b565b8360041415611a1357600a611a06826014612d1b565b611a109190612d07565b90505b6000611a256103e86108838d85612255565b6020870151909150611a3790826124e8565b6020870152600454611a4990826124e8565b600455336000908152600d6020526040902054611a6690826124e8565b336000908152600d602052604090205586544390611a9690829063ffffffff600160a81b9091048116906124e816565b60408089019190915261ffff808d1660808a01528b811660a08a01528a1660c0890152336000908152600d6020522054611acf90612414565b336000908152600f60209081526040909120805460ff191660ff939093169290921790915560035490880151611b0f9164e8d4a510009161088391612255565b87606001818152505086601260008f81526020019081526020016000206000336001600160a01b03166001600160a01b03168152602001908152602001600020600082015181600001556020820151816001015560408201518160020155606082015181600301556080820151816004015560a0820151816005015560c082015181600601559050508c336001600160a01b03167f12683d1bce24a39469d43b532a00fb65c26276ed57dbd35b204c720380597f7e8e8e8e8e604051611bf5949392919093845261ffff9283166020850152908216604084015216606082015260800190565b60405180910390a350505050505050505050505050565b600080600c8481548110611c2257611c22612ddd565b60009182526020808320878452601282526040808520338652835293849020845160e08101865281548152600182015493810193909352600280820154958401959095526003810154606084015260048101546080840152600581015460a08401526006015460c083015291909202019150611c9c61214f565b60065460ff16151560011415611d1157336000908152600e60205260409020546001600160a01b0316611d115760405162461bcd60e51b815260206004820152601a60248201527f596f75206e65656420626520696e76697465642066697273742e00000000000060448201526064016107f8565b805115611d52576000611d4482606001516108bb64e8d4a51000610883600354876020015161225590919063ffffffff16565b9050611d503382612279565b505b81546040516323b872dd60e01b81526001600160a01b03909116906323b872dd90611d8590339030908990600401612c63565b602060405180830381600087803b158015611d9f57600080fd5b505af1158015611db3573d6000803e3d6000fd5b505050506040513d601f19601f82011682018060405250810190611dd79190612a44565b508154600160a01b900460ff1615611e0d57611e0d3330611df9876004612261565b6007546001600160a01b0316929190612537565b8051611e1990856124e8565b81526001820154600090611e36906103e890610883908890612255565b6020830151909150611e4890826124e8565b6020830152600454611e5a90826124e8565b600455336000908152600d6020526040902054611e7790826124e8565b336000908152600d602052604090205582544390611ea790829063ffffffff600160a81b9091048116906124e816565b604080850191909152336000908152600d6020522054611ec690612414565b336000908152600f60209081526040909120805460ff191660ff939093169290921790915560035490840151611f069164e8d4a510009161088391612255565b606084019081526000888152601260209081526040808320338085529083529281902087518155828801516001820155818801516002820155935160038501556080870151600485015560a0870151600585015560c0870151600690940193909355915188815289927f90890809c654f11d6e72a28fa60149770a0d11ec6c92319d6ceb2bb0a4ea1a15910160405180910390a35060019695505050505050565b6000546001600160a01b03163314611fd15760405162461bcd60e51b81526004016107f890612cba565b8015611fdf57611fdf61214f565b50604080516080810182526001600160a01b0394851681529215156020840190815263ffffffff92831691840191825260608401958652600c8054600181018255600091909152935160029094027fdf6966c971051c3d54ec59162606531493a51404a002842f56009d7e5cf4a8c78101805492519351909416600160a81b0263ffffffff60a81b19931515600160a01b026001600160a81b0319909316959096169490941717169290921790915590517fdf6966c971051c3d54ec59162606531493a51404a002842f56009d7e5cf4a8c890910155565b6000546001600160a01b031633146120e15760405162461bcd60e51b81526004016107f890612cba565b6001600160a01b0381166121465760405162461bcd60e51b815260206004820152602660248201527f4f776e61626c653a206e6577206f776e657220697320746865207a65726f206160448201526564647265737360d01b60648201526084016107f8565b610f9681612498565b6000612168600a5460095461226d90919063ffffffff16565b9050600254431115801561217a575080155b156121825750565b600454612190575043600255565b4360025411156121e25760405162461bcd60e51b815260206004820152601960248201527f6c617374526577617264426c6f636b206e6f742076616c69640000000000000060448201526064016107f8565b60006121f060025443611029565b90506000612209600b548361225590919063ffffffff16565b9050808310156122165750815b600a5461222390826124e8565b600a5560045461224990612240906108838464e8d4a51000612255565b600354906124e8565b60035550504360025550565b60006110358284612d1b565b60006110358284612d07565b60006110358284612d3a565b6006546040516370a0823160e01b81523060048201526000916201000090046001600160a01b0316906370a082319060240160206040518083038186803b1580156122c357600080fd5b505afa1580156122d7573d6000803e3d6000fd5b505050506040513d601f19601f820116820180604052508101906122fb9190612a7a565b905080821115612309578091505b60065460405163a9059cbb60e01b81526001600160a01b03858116600483015260248201859052620100009092049091169063a9059cbb90604401602060405180830381600087803b15801561235e57600080fd5b505af1158015612372573d6000803e3d6000fd5b505050506040513d601f19601f820116820180604052508101906123969190612a44565b5060065460ff16156123ac576123ac838361255e565b505050565b6040516001600160a01b0383166024820152604481018290526123ac90849063a9059cbb60e01b906064015b60408051601f198184030181529190526020810180516001600160e01b03166001600160e01b0319909316929092179091526126aa565b60008061242983670de0b6b3a7640000612261565b925061c350831015612465575060036175308310156124605750600261271083101561246057506001611388831015612460575060005b611038565b506005620249f08311156110385750600662030d4083111561103857506007620493e08311156110385750600892915050565b600080546001600160a01b038381166001600160a01b0319831681178455604051919092169283917f8be0079c531659141344cd1fd0a4f28419497f9722a3daafe3b4186f6b6457e09190a35050565b60006110358284612cef565b600060644244604051602001612514929190918252602082015260400190565b6040516020818303038152906040528051906020012060001c6107279190612d9d565b612558846323b872dd60e01b8585856040516024016123dd93929190612c63565b50505050565b60005b60065460ff610100909104811690821610156123ac576001600160a01b038084166000908152600e602052604090205416801580156125b15750836001600160a01b0316816001600160a01b0316145b156125bc5750505050565b6001600160a01b0381166000908152600f60205260408120546011805460ff9092169291839081106125f0576125f0612ddd565b906000526020600020018460ff168154811061260e5761260e612ddd565b60009182526020918290209181049091015460ff601f9092166101000a90041690508061263d57505050505050565b600061265160646108838860ff8616612255565b6001600160a01b03851660009081526010602052604090205490915061267790826124e8565b6001600160a01b038516600090815260106020526040902055509194508291506126a2905081612d7d565b915050612561565b60006126ff826040518060400160405280602081526020017f5361666545524332303a206c6f772d6c6576656c2063616c6c206661696c6564815250856001600160a01b031661277c9092919063ffffffff16565b8051909150156123ac578080602001905181019061271d9190612a44565b6123ac5760405162461bcd60e51b815260206004820152602a60248201527f5361666545524332303a204552433230206f7065726174696f6e20646964206e6044820152691bdd081cdd58d8d9595960b21b60648201526084016107f8565b606061278b8484600085612795565b90505b9392505050565b6060824710156127f65760405162461bcd60e51b815260206004820152602660248201527f416464726573733a20696e73756666696369656e742062616c616e636520666f6044820152651c8818d85b1b60d21b60648201526084016107f8565b843b6128445760405162461bcd60e51b815260206004820152601d60248201527f416464726573733a2063616c6c20746f206e6f6e2d636f6e747261637400000060448201526064016107f8565b600080866001600160a01b031685876040516128609190612c20565b60006040518083038185875af1925050503d806000811461289d576040519150601f19603f3d011682016040523d82523d6000602084013e6128a2565b606091505b50915091506128b28282866128bd565b979650505050505050565b606083156128cc57508161278e565b8251156128dc5782518084602001fd5b8160405162461bcd60e51b81526004016107f89190612c87565b803561ffff8116811461290857600080fd5b919050565b60006020828403121561291f57600080fd5b813561278e81612e09565b60006020828403121561293c57600080fd5b815161278e81612e09565b6000806000806080858703121561295d57600080fd5b843561296881612e09565b9350602085013561297881612e09565b925060408501359150606085013567ffffffffffffffff8082111561299c57600080fd5b818701915087601f8301126129b057600080fd5b8135818111156129c2576129c2612df3565b604051601f8201601f19908116603f011681019083821181831017156129ea576129ea612df3565b816040528281528a6020848701011115612a0357600080fd5b82602086016020830137600060208483010152809550505050505092959194509250565b600060208284031215612a3957600080fd5b813561278e81612e1e565b600060208284031215612a5657600080fd5b815161278e81612e1e565b600060208284031215612a7357600080fd5b5035919050565b600060208284031215612a8c57600080fd5b5051919050565b60008060408385031215612aa657600080fd5b823591506020830135612ab881612e09565b809150509250929050565b600080600080600060a08688031215612adb57600080fd5b853594506020860135612aed81612e09565b93506040860135612afd81612e1e565b9250606086013563ffffffff81168114612b1657600080fd5b91506080860135612b2681612e1e565b809150509295509295909350565b60008060408385031215612b4757600080fd5b50508035926020909101359150565b600080600060608486031215612b6b57600080fd5b83359250602084013591506040840135612b8481612e1e565b809150509250925092565b600080600080600060a08688031215612ba757600080fd5b8535945060208601359350612bbe604087016128f6565b9250612bcc606087016128f6565b9150612bda608087016128f6565b90509295509295909350565b600060208284031215612bf857600080fd5b813561278e81612e2c565b600060208284031215612c1557600080fd5b815161278e81612e2c565b60008251612c32818460208701612d51565b9190910192915050565b6001600160a01b03938416815291909216602082015261ffff909116604082015260600190565b6001600160a01b039384168152919092166020820152604081019190915260600190565b6020815260008251806020840152612ca6816040850160208701612d51565b601f01601f19169190910160400192915050565b6020808252818101527f4f776e61626c653a2063616c6c6572206973206e6f7420746865206f776e6572604082015260600190565b60008219821115612d0257612d02612db1565b500190565b600082612d1657612d16612dc7565b500490565b6000816000190483118215151615612d3557612d35612db1565b500290565b600082821015612d4c57612d4c612db1565b500390565b60005b83811015612d6c578181015183820152602001612d54565b838111156125585750506000910152565b600060ff821660ff811415612d9457612d94612db1565b60010192915050565b600082612dac57612dac612dc7565b500690565b634e487b7160e01b600052601160045260246000fd5b634e487b7160e01b600052601260045260246000fd5b634e487b7160e01b600052603260045260246000fd5b634e487b7160e01b600052604160045260246000fd5b6001600160a01b0381168114610f9657600080fd5b8015158114610f9657600080fd5b60ff81168114610f9657600080fdfea2646970667358221220f9921d66616a3215e0b0e0203dfb84473c021443b725477fd2d3ffc723c4b42364736f6c63430008060033",
  "immutableReferences": {},
  "source": "// SPDX-License-Identifier: MIT\npragma solidity ^0.8.0;\n\nimport \"./utils/math/SafeMath.sol\";\nimport \"./utils/Address.sol\";\nimport \"./access/Ownable.sol\";\n\nimport \"./token/ERC721/IERC721.sol\";\nimport \"./token/ERC721/IERC721Card.sol\";\nimport \"./token/ERC20/IERC20.sol\";\nimport \"./token/ERC721/utils/ERC721Holder.sol\";\nimport \"./token/ERC20/utils/SafeERC20.sol\";\n\ninterface IMigratorChef {\n    // Perform LP token migration from legacy UniswapV2 to ChaSwap.\n    // Take the current LP token address and return the new LP token address.\n    // Migrator should have full access to the caller's LP token.\n    // Return the new LP token address.\n    //\n    // XXX Migrator must have allowance access to UniswapV2 LP tokens.\n    // ChaSwap must mint EXACTLY the same amount of ChaSwap LP tokens or\n    // else something bad will happen. Traditional UniswapV2 does not\n    // do that so be careful!\n    function migrate(IERC20 token) external returns (IERC20);\n}\n\n// PantheonPool is the master of Reward. He can make Reward and he is a fair guy.\n//\n// Note that it's ownable and the owner wields tremendous power. The ownership\n// will be transferred to a governance smart contract once CHA is sufficiently\n// distributed and the community can show to govern itself.\n//\n// Have fun reading it. Hopefully it's bug-free. God bless.\ncontract PantheonPool is Ownable,ERC721Holder {\n    using SafeMath for uint256;\n    using SafeERC20 for IERC20;\n    // Info of each user.\n    // struct UserInfo {\n    //     uint256 amount; // How many LP tokens the user has provided.\n    //     uint256 rewardDebt; // Reward debt. See explanation below.\n    //     //\n    //     // We do some fancy math here. Basically, any point in time, the amount of CHA\n    //     // entitled to a user but is pending to be distributed is:\n    //     //\n    //     //   pending reward = (user.amount * accChaPerShare) - user.rewardDebt\n    //     //\n    //     // Whenever a user deposits or withdraws LP tokens to a pool. Here's what happens:\n    //     //   1. The pool's `accChaPerShare` (and `lastRewardBlock`) gets updated.\n    //     //   2. User receives the pending reward sent to his/her address.\n    //     //   3. User's `amount` gets updated.\n    //     //   4. User's `rewardDebt` gets updated.\n    // }\n\n    struct InviteInfo {\n        address parent;\n        uint256 totalPower;\n    }\n\n    // Miner information describe miner. One should has many Miners;\n    struct MinerInfo {\n        uint256 amount; // \n        uint256 power; // \n        uint256 endBlock; // block\n        uint256 rewardDebt; // Reward debt. See explanation below.\n        uint256 nft1;\n        uint256 nft2;\n        uint256 nft3;\n    }\n    // Info of each pool. pool is set manully.\n    struct PoolInfo {\n        IERC20 lpToken; // Address of LP token contract.\n        bool isLp; // if isLp is true we should have a usdt token.\n        uint32 timeBlocks; // timeBlocks;\n        uint256 powerRate; // The power rate assigned to this pool. times 1000.\n    }\n    \n    IERC721Card public nftToken;\n    uint256 public lastRewardBlock; // Last block number that CHAs distribution occurs.\n    uint256 public accChaPerShare; // Accumulated CHAs per share, times 1e12. See below.\n    // Total power\n    uint256 public totalPower;\n    uint16[] public nftRate = [100, 150, 300, 600, 1500]; // times 1000\n\n    // Invite\n    bool public inviteForce = false;\n    uint8 public maxInviteLayer = 10;\n    // The CHA TOKEN!\n    IERC20 public panToken;\n    IERC20 public usdtToken;\n    // Dev address.\n    address public devaddr;\n    // Block number when bonus CHA period ends.\n    // uint256 public bonusEndBlock;\n    // Total reward for miner\n    uint256 public totalReward;\n    // Total released reward\n    uint256 public releasedReward;\n    // CHA tokens created per block.\n    uint256 public chaPerBlock;\n    // Bonus muliplier for early panToken makers.\n    uint256 public constant BONUS_MULTIPLIER = 10;\n    // The migrator contract. It has a lot of power. Can only be set through governance (owner).\n    // IMigratorChef public migrator;\n    // Info of each pool.\n    PoolInfo[] public poolInfo;\n    // Info of each user that stakes LP tokens.\n    mapping(address => uint256) public userPower;\n    mapping(address => address) public userParent;\n    mapping(address => uint8) public userLevel;\n    mapping(address => uint256) public inviteReward;\n    // mapping(uint8 => mapping(uint8 => uint8)) memory inviteRatio;\n    uint8[][] inviteRatio = [[5,0,0,0,0,0,0,0,0,0],[8,5,0,0,0,0,0,0,0,0],[10,6,4,2,0,0,0,0,0,0],[12,8,6,4,2,2,0,0,0,0],[14,10,8,6,4,2,2,2,0,0],[16,12,10,8,6,4,2,2,2,2],[18,14,12,10,8,6,4,2,2,2],[20,16,14,12,10,8,6,4,2,2],[22,18,16,14,12,10,8,6,4,2]];\n    mapping(uint256 => mapping(address => MinerInfo)) public minerInfo;\n    // Total allocation poitns. Must be the sum of all allocation points in all pools.\n    uint256 public totalAllocPoint = 0;\n    // The block number when CHA mining starts.\n    uint256 public startBlock;\n    event Deposit(address indexed user, uint256 indexed pid, uint256 amount);\n    event DepositWithNFT(address indexed user, uint256 indexed pid, uint256 amount,\n        uint16 nft1, uint16 nft2, uint16 nft3);\n    event Withdraw(address indexed user, uint256 indexed pid, uint256 amount);\n    event Harvest(address indexed user, uint256 indexed pid, uint256 amount);\n    event EmergencyWithdraw(\n        address indexed user,\n        uint256 indexed pid,\n        uint256 amount\n    );\n\n    constructor(\n        IERC20 _chaAddress,\n        IERC20 _usdtAddress,\n        IERC721Card _nftAddress,\n        address beneficancy,\n        uint256 _chaPerBlock,\n        uint256 _startBlock,\n        uint256 _totalReward\n    ) {\n        panToken = _chaAddress;\n        usdtToken = _usdtAddress;\n        chaPerBlock = _chaPerBlock;\n        // bonusEndBlock = _bonusEndBlock;\n        startBlock = _startBlock;\n        totalReward = _totalReward;\n        nftToken = IERC721Card(_nftAddress);\n        lastRewardBlock =\n            block.number > startBlock ? block.number : startBlock;\n        // totalAllocPoint = totalAllocPoint.add(_allocPoint);\n        userParent[msg.sender] = beneficancy;\n        totalPower = 0;\n    }\n\n    // function totalReward() external view returns (uint256) {\n    //     return totalReward;\n    // }\n\n    // function releasedReward() external view returns (uint256) {\n    //     return releasedReward;\n    // }\n\n    function releaseReward2() external view returns (uint256) {\n        return totalPower.mul(accChaPerShare).div(1e12);\n    }\n\n    function remainReward() external view returns (uint256) {\n        return totalReward - releasedReward;\n    }\n\n    function poolLength() external view returns (uint256) {\n        return poolInfo.length;\n    }\n\n    // Add a new lp to the pool. Can only be called by the owner.\n    // XXX DO NOT add the same LP token more than once. Rewards will be messed up if you do.\n    function addPool(\n        uint256 _powerRate,\n        IERC20 _token,\n        bool _isLp,\n        uint32 timeBlocks,\n        bool _withUpdate\n    ) public onlyOwner {\n        if (_withUpdate) {\n            updateReward();\n        }\n        \n        poolInfo.push(\n            PoolInfo({\n                lpToken: _token,\n                isLp: _isLp,\n                timeBlocks: timeBlocks,\n                powerRate: _powerRate\n            })\n        );\n    }\n\n    // Update the given pool's CHA power rate. Can only be called by the owner.\n    function setPool(\n        uint256 _pid,\n        uint256 _powerRate,\n        bool _withUpdate\n    ) public onlyOwner {\n        if (_withUpdate) {\n            updateReward();\n        }\n        poolInfo[_pid].powerRate = _powerRate;\n    }\n\n    function setInvite(\n        address parent\n    ) public {\n        require(userParent[parent] != address(0), \"Parent should be invite first.\");\n        require(parent != msg.sender, \"Parent should not be itself.\");\n        if (userParent[msg.sender] == address(0)) {\n            userParent[msg.sender] = parent;\n        }\n    }\n\n    function setInviteEnable(\n        bool enable\n    ) public {\n        inviteForce = enable;\n    }\n\n    function setMaxInviteLayer(uint8 layer) public {\n        maxInviteLayer = layer;\n    }\n\n    // Set the migrator contract. Can only be called by the owner.\n    // function setMigrator(IMigratorChef _migrator) public onlyOwner {\n    //     migrator = _migrator;\n    // }\n\n    // // Migrate lp token to another lp contract. Can be called by anyone. We trust that migrator contract is good.\n    // function migrate(uint256 _pid) public {\n    //     require(address(migrator) != address(0), \"migrate: no migrator\");\n    //     PoolInfo storage pool = poolInfo[_pid];\n    //     IERC20 lpToken = pool.lpToken;\n    //     uint256 bal = lpToken.balanceOf(address(this));\n    //     lpToken.safeApprove(address(migrator), bal);\n    //     IERC20 newLpToken = migrator.migrate(lpToken);\n    //     require(bal == newLpToken.balanceOf(address(this)), \"migrate: bad\");\n    //     pool.lpToken = newLpToken;\n    // }\n    function getInviteInfo(address addr) public view returns (uint16, uint256, uint256, address){\n        return (userLevel[addr],userPower[addr], inviteReward[addr], userParent[addr]);\n    }\n    // Return reward multiplier over the given _from to _to block.\n    function getMultiplier(uint256 _from, uint256 _to)\n        public\n        pure\n        returns (uint256)\n    {\n        return _to.sub(_from);\n        // if (_to <= bonusEndBlock) {\n        //     return _to.sub(_from).mul(BONUS_MULTIPLIER);\n        // } else if (_from >= bonusEndBlock) {\n        //     return _to.sub(_from);\n        // } else {\n        //     return\n        //         bonusEndBlock.sub(_from).mul(BONUS_MULTIPLIER).add(\n        //             _to.sub(bonusEndBlock)\n        //         );\n        // }\n    }\n\n    // View function to see pending CHA on frontend.\n    function pendingReward(uint256 _pid, address _user)\n        external\n        view\n        returns (uint256)\n    {\n        // PoolInfo storage pool = poolInfo[_pid];\n        MinerInfo storage miner = minerInfo[_pid][_user];\n        uint256 accCha = accChaPerShare;\n        uint256 endBlock = block.number;\n        if (block.number > miner.endBlock) {\n            endBlock = miner.endBlock;\n        }\n        if (endBlock > lastRewardBlock && totalPower != 0) {\n            uint256 multiplier =\n                getMultiplier(lastRewardBlock, endBlock);\n            uint256 chaReward = multiplier.mul(chaPerBlock);\n            accCha = accCha.add(\n                chaReward.mul(1e12).div(totalPower)\n            );\n            return miner.power.mul(accCha).div(1e12).sub(miner.rewardDebt);\n        }\n        return 0;\n    }\n\n    // Update reward vairables for all pools. Be careful of gas spending!\n    // function updateReward() public {\n    //     uint256 length = poolInfo.length;\n    //     for (uint256 pid = 0; pid < length; ++pid) {\n    //         updateReward(pid);\n    //     }\n    // }\n\n    // Update reward variables of the given pool to be up-to-date.\n    function updateReward() public {\n        // PoolInfo storage pool = poolInfo[_pid];\n        // uint256 remain = panToken.balanceOf(address(this));\n        uint256 remain = totalReward.sub(releasedReward);\n        if (block.number <= lastRewardBlock && remain <= 0) {\n            return;\n        }\n        if (totalPower == 0) {\n            lastRewardBlock = block.number;\n            return;\n        }\n        require(lastRewardBlock<=block.number, \"lastRewardBlock not valid\");\n        uint256 multiplier = getMultiplier(lastRewardBlock, block.number);\n        uint256 chaReward = multiplier.mul(chaPerBlock);\n        // panToken.mint(devaddr, chaReward.div(10));\n        // panToken.mint(address(this), chaReward);\n        if ( remain < chaReward ) {\n            chaReward = remain;\n        }\n        releasedReward  = releasedReward.add(chaReward);\n        accChaPerShare = accChaPerShare.add(\n            chaReward.mul(1e12).div(totalPower)\n        );\n        lastRewardBlock = block.number;\n    }\n\n\n    // Deposit LP tokens to PantheonPool for CHA allocation.\n    function deposit(uint256 _pid, uint256 _amount) public returns (bool){\n        PoolInfo storage pool = poolInfo[_pid];\n        MinerInfo memory miner = minerInfo[_pid][msg.sender];\n        updateReward();\n        if (inviteForce == true) {\n            require(userParent[msg.sender] != address(0), \"You need be invited first.\");\n        }\n        if (miner.amount > 0) {\n            uint256 pending =\n                miner.power.mul(accChaPerShare).div(1e12).sub(\n                    miner.rewardDebt\n                );\n            safeChaTransfer(msg.sender, pending);\n        }\n        // pool.lpToken.approve(address(this), _amount);\n        pool.lpToken.transferFrom(\n            address(msg.sender),\n            address(this),\n            _amount\n        );\n        if (pool.isLp) {\n            // usdtToken.safeApprove(address(this), _amount.mul(1e12).div(4));\n            usdtToken.safeTransferFrom(\n                address(msg.sender),\n                address(this),\n                _amount.div(4)\n            );\n        }\n        miner.amount = miner.amount.add(_amount);\n        uint256 power = _amount.mul(pool.powerRate).div(1000);\n        miner.power = miner.power.add(power);\n        totalPower = totalPower.add(power);\n        userPower[msg.sender] = userPower[msg.sender].add(power);\n        uint256 blockNumber = block.number;\n        miner.endBlock = blockNumber.add(pool.timeBlocks); // * 24 * 1200;\n        userLevel[msg.sender] = getUserLevel(userPower[msg.sender]);\n        miner.rewardDebt = miner.power.mul(accChaPerShare).div(1e12);\n        minerInfo[_pid][msg.sender] = miner;\n        emit Deposit(msg.sender, _pid, _amount);\n        return true;\n    }\n\n    // Deposit LP tokens to PantheonPool for CHA allocation.\n    function depositWithNFT(uint256 _pid, uint256 _amount, uint16 nft1, uint16 nft2, uint16 nft3) public {\n        PoolInfo storage pool = poolInfo[_pid];\n        MinerInfo memory miner = minerInfo[_pid][msg.sender];\n        // require(miner.amount == 0, \"You already depsoit this pool.\");\n        updateReward();\n        if (miner.amount > 0) {\n            uint256 pending =\n                miner.power.mul(accChaPerShare).div(1e12).sub(\n                    miner.rewardDebt\n                );\n            safeChaTransfer(msg.sender, pending);\n        }\n        pool.lpToken.transferFrom(\n            address(msg.sender),\n            address(this),\n            _amount\n        );\n        if (pool.isLp) {\n            usdtToken.transferFrom(\n                address(msg.sender),\n                address(this),\n                _amount.div(4)\n            );\n        }\n        miner.amount = miner.amount.add(_amount);\n        uint256 level;\n        uint256 level2;\n        uint256 level3;\n        uint256 rate = pool.powerRate;\n        if (nft1 > 0 && nftToken.ownerOf(nft1) == msg.sender) {\n            level = nftToken.levelOf(nft1);\n            rate += nftRate[level];\n            nftToken.safeTransferFrom(msg.sender, address(this), nft1);\n        }\n        if (nft2 > 0 && nftToken.ownerOf(nft2) == msg.sender) {\n            level2 = nftToken.levelOf(nft2);\n            rate += nftRate[level2];\n            nftToken.safeTransferFrom(msg.sender, address(this), nft2);\n        }\n        if (nft3 > 0 && nftToken.ownerOf(nft3) == msg.sender) {\n            level3 = nftToken.levelOf(nft3);\n            rate += nftRate[level3];\n            nftToken.safeTransferFrom(msg.sender, address(this), nft3);\n        }\n        // \n        if(level == level2 && level2 == level3 && random() < 10) {\n            if (level == 2 ) {\n                rate = rate * 13 / 10;\n            } else if (level==3) {\n                rate = rate * 15 / 10;\n            } else if (level == 4) {\n                rate = rate * 20 / 10;\n            }\n        }\n        uint256 power = _amount.mul(rate).div(1000);\n        miner.power = miner.power.add(power);\n        totalPower = totalPower.add(power);\n        userPower[msg.sender] = userPower[msg.sender].add(power);\n        uint256 blockNumber = block.number;\n        miner.endBlock = blockNumber.add(pool.timeBlocks);\n        miner.nft1 = uint16(nft1);\n        miner.nft2 = uint16(nft2);\n        miner.nft3 = uint16(nft3);\n        userLevel[msg.sender] = getUserLevel(userPower[msg.sender]);\n        miner.rewardDebt = miner.power.mul(accChaPerShare).div(1e12);\n        minerInfo[_pid][msg.sender] = miner;\n        emit DepositWithNFT(msg.sender, _pid, _amount, nft1, nft2, nft3);\n    }\n    function getUserLevel(uint256 power) private pure returns(uint8){\n        uint8 level;\n        power = power.div(1e18);\n        if (power < 50000) {\n            level = 3;\n            if (power < 30000) {\n                level = 2;\n                if(power <10000) {\n                    level = 1;\n                    if (power < 5000)\n                        level = 0;\n                }\n            }\n        } else {\n            level = 5;\n            if (power > 150000) {\n                level = 6;\n                if (power > 200000) {\n                    level =7;\n                    if (power > 300000)\n                        level = 8;\n                }\n            }\n        }\n        return level;\n    }\n    // // Get a random 100\n    // Get a random 100\n    function random() private view returns (uint8) {\n        return uint8(uint256(keccak256(abi.encodePacked(block.timestamp, block.difficulty)))%100);\n    }\n    // harvest LP tokens from PantheonPool.\n    function harvest(uint256 _pid) public {\n        // PoolInfo storage pool = poolInfo[_pid];\n        MinerInfo storage miner = minerInfo[_pid][msg.sender];\n        updateReward();\n        uint256 pending =\n            miner.power.mul(accChaPerShare).div(1e12).sub(\n                miner.rewardDebt\n            );\n        require(pending > 0, \"harvest: none reward\");\n        safeChaTransfer(msg.sender, pending);\n        miner.rewardDebt = miner.power.mul(accChaPerShare).div(1e12);\n        emit Harvest(msg.sender, _pid, pending);\n    }\n\n    // Withdraw LP tokens from PantheonPool.\n    function withdraw(uint256 _pid, uint256 _amount) public {\n        PoolInfo storage pool = poolInfo[_pid];\n        MinerInfo storage miner = minerInfo[_pid][msg.sender];\n        require(miner.amount > 0, \"withdraw: not good\");\n        require(accChaPerShare > 0, \"accChaPerShare should not be zero\");\n        // require(miner.endBlock < block.number, \"Cannot withdraw with days limit.\");\n        updateReward();\n        if (miner.amount.mul(accChaPerShare).div(1e12) > miner.rewardDebt) {\n            uint256 pending = miner.amount.mul(accChaPerShare).div(1e12).sub(\n                miner.rewardDebt\n            );\n            safeChaTransfer(msg.sender, pending);\n        }\n        \n        if (pool.isLp) {\n            usdtToken.transfer(\n                msg.sender,\n                miner.amount.div(4) // div(1e6).mul(1e8) equ mul(1e12)\n            );\n        }\n\n        // miner.rewardDebt = miner.power.mul(accChaPerShare).div(1e12);\n        // userLevel[msg.sender] = getUserLevel(userPower[msg.sender]);\n        pool.lpToken.transfer(address(msg.sender), _amount);\n\n        if (miner.nft1 > 0) {\n            nftToken.safeTransferFrom(address(this), msg.sender, miner.nft1);\n        }\n        if (miner.nft2 > 0) {\n            nftToken.safeTransferFrom(address(this), msg.sender, miner.nft2);\n        }\n        if (miner.nft3 > 0) {\n            nftToken.safeTransferFrom(address(this), msg.sender, miner.nft3);\n        }\n\n        // reduce power\n        // uint256 power = miner.power.mul(_amount).div(miner.amount);\n        totalPower = totalPower.sub(miner.power);\n\n        userPower[msg.sender] = userPower[msg.sender].sub(miner.power);\n        //  reduce amount\n        miner.power = 0;\n        miner.amount = 0;\n        miner.nft1 = 0;\n        miner.nft2 = 0;\n        miner.nft3 = 0;\n        miner.rewardDebt = 0;\n        // minerInfo[_pid][msg.sender] = 0;\n\n        emit Withdraw(msg.sender, _pid, _amount);\n    }\n\n    function calculeInviteReward(address child, uint256 total) private {\n\n        for(uint8 layer=0; layer< maxInviteLayer; layer++) {\n            address parent = userParent[child];\n            if (parent == address(0) && parent == child)\n                return;\n            uint8 level = userLevel[parent];\n            uint8 ratio = inviteRatio[level][layer];\n            if (ratio <= 0) {\n                return ;\n            }\n            uint256 reward = total.mul(ratio).div(100);\n            inviteReward[parent] = inviteReward[parent].add(reward);\n            child = parent;\n        }\n    }\n\n    // Withdraw without caring about rewards. EMERGENCY ONLY.\n    function emergencyWithdraw(uint256 _pid) public {\n        PoolInfo storage pool = poolInfo[_pid];\n        MinerInfo storage miner = minerInfo[_pid][msg.sender];\n        require(miner.endBlock < block.number, \"Cannot withdraw with days limit.\");\n        pool.lpToken.safeTransfer(address(msg.sender), miner.amount);\n        if (pool.isLp) {\n            usdtToken.transfer(\n                msg.sender,\n                miner.amount.div(4) // div(1e6).mul(1e8) equ mul(1e12)\n            );\n        }\n        emit EmergencyWithdraw(msg.sender, _pid, miner.amount);\n        userPower[msg.sender] = userPower[msg.sender].sub(miner.power);\n        userLevel[msg.sender] = getUserLevel(userPower[msg.sender]);\n        totalPower = totalPower.sub(miner.power);\n        miner.amount = 0;\n        miner.rewardDebt = 0;\n        miner.power = 0;\n    }\n\n    // Safe panToken transfer function, just in case if rounding error causes pool to not have enough CHA.\n    function safeChaTransfer(address _to, uint256 _amount) internal {\n        uint256 chaBal = panToken.balanceOf(address(this));\n        if (_amount > chaBal) {\n            _amount = chaBal;\n        }\n        panToken.transfer(_to, _amount);\n        if(inviteForce)\n           calculeInviteReward(_to, _amount);\n    }\n}",
  "sourcePath": "/Users/jilong/solidity/pantheonNFT/contracts/PantheonPool.sol",
  "compiler": {
    "name": "solc",
    "version": "0.8.6+commit.11564f7e.Emscripten.clang"
  },
  "schemaVersion": "3.4.2",
  "updatedAt": "2021-08-26T10:21:53.319Z",
  "devdoc": {
    "kind": "dev",
    "methods": {
      "onERC721Received(address,address,uint256,bytes)": {
        "details": "See {IERC721Receiver-onERC721Received}. Always returns `IERC721Receiver.onERC721Received.selector`."
      },
      "owner()": {
        "details": "Returns the address of the current owner."
      },
      "renounceOwnership()": {
        "details": "Leaves the contract without owner. It will not be possible to call `onlyOwner` functions anymore. Can only be called by the current owner. NOTE: Renouncing ownership will leave the contract without an owner, thereby removing any functionality that is only available to the owner."
      },
      "transferOwnership(address)": {
        "details": "Transfers ownership of the contract to a new account (`newOwner`). Can only be called by the current owner."
      }
    },
    "version": 1
  },
  "userdoc": {
    "kind": "user",
    "methods": {},
    "version": 1
  }
}